{
  "contractName": "AuthorHandler",
  "abi": [
    {
      "anonymous": false,
      "inputs": [
        {
          "indexed": false,
          "internalType": "address",
          "name": "usrAddr",
          "type": "address"
        },
        {
          "indexed": false,
          "internalType": "uint256",
          "name": "indx",
          "type": "uint256"
        }
      ],
      "name": "AuthorAdded",
      "type": "event"
    },
    {
      "anonymous": false,
      "inputs": [
        {
          "indexed": false,
          "internalType": "address",
          "name": "usrAddr",
          "type": "address"
        },
        {
          "indexed": false,
          "internalType": "uint256",
          "name": "indx",
          "type": "uint256"
        }
      ],
      "name": "CreationAdded",
      "type": "event"
    },
    {
      "anonymous": false,
      "inputs": [
        {
          "indexed": true,
          "internalType": "address",
          "name": "previousOwner",
          "type": "address"
        },
        {
          "indexed": true,
          "internalType": "address",
          "name": "newOwner",
          "type": "address"
        }
      ],
      "name": "OwnershipTransferred",
      "type": "event"
    },
    {
      "inputs": [
        {
          "internalType": "uint256",
          "name": "",
          "type": "uint256"
        }
      ],
      "name": "allCreations",
      "outputs": [
        {
          "internalType": "address",
          "name": "author",
          "type": "address"
        },
        {
          "internalType": "address",
          "name": "NFT_Bkg_Adr",
          "type": "address"
        },
        {
          "internalType": "uint256",
          "name": "price",
          "type": "uint256"
        },
        {
          "internalType": "uint256",
          "name": "creationId",
          "type": "uint256"
        },
        {
          "internalType": "string",
          "name": "description",
          "type": "string"
        },
        {
          "internalType": "string",
          "name": "URI",
          "type": "string"
        }
      ],
      "stateMutability": "view",
      "type": "function"
    },
    {
      "inputs": [],
      "name": "owner",
      "outputs": [
        {
          "internalType": "address",
          "name": "",
          "type": "address"
        }
      ],
      "stateMutability": "view",
      "type": "function"
    },
    {
      "inputs": [
        {
          "internalType": "uint256",
          "name": "",
          "type": "uint256"
        }
      ],
      "name": "registeredAuthors",
      "outputs": [
        {
          "internalType": "address",
          "name": "",
          "type": "address"
        }
      ],
      "stateMutability": "view",
      "type": "function"
    },
    {
      "inputs": [],
      "name": "renounceOwnership",
      "outputs": [],
      "stateMutability": "nonpayable",
      "type": "function"
    },
    {
      "inputs": [
        {
          "internalType": "address",
          "name": "newOwner",
          "type": "address"
        }
      ],
      "name": "transferOwnership",
      "outputs": [],
      "stateMutability": "nonpayable",
      "type": "function"
    },
    {
      "inputs": [
        {
          "internalType": "address",
          "name": "_user",
          "type": "address"
        },
        {
          "internalType": "uint256",
          "name": "_price",
          "type": "uint256"
        },
        {
          "internalType": "string",
          "name": "_description",
          "type": "string"
        },
        {
          "internalType": "string",
          "name": "_URI",
          "type": "string"
        }
      ],
      "name": "addCreation",
      "outputs": [],
      "stateMutability": "nonpayable",
      "type": "function"
    },
    {
      "inputs": [
        {
          "internalType": "uint256",
          "name": "_creationId",
          "type": "uint256"
        },
        {
          "internalType": "address",
          "name": "_NFT",
          "type": "address"
        }
      ],
      "name": "affectNFTtoCreation",
      "outputs": [],
      "stateMutability": "nonpayable",
      "type": "function"
    },
    {
      "inputs": [
        {
          "internalType": "address",
          "name": "_author",
          "type": "address"
        }
      ],
      "name": "getAuthorCreationsList",
      "outputs": [
        {
          "internalType": "uint256[]",
          "name": "",
          "type": "uint256[]"
        }
      ],
      "stateMutability": "view",
      "type": "function"
    },
    {
      "inputs": [
        {
          "internalType": "uint256",
          "name": "_start",
          "type": "uint256"
        },
        {
          "internalType": "uint256",
          "name": "_end",
          "type": "uint256"
        }
      ],
      "name": "getCreationList",
      "outputs": [
        {
          "components": [
            {
              "internalType": "address",
              "name": "author",
              "type": "address"
            },
            {
              "internalType": "address",
              "name": "NFT_Bkg_Adr",
              "type": "address"
            },
            {
              "internalType": "uint256",
              "name": "price",
              "type": "uint256"
            },
            {
              "internalType": "uint256",
              "name": "creationId",
              "type": "uint256"
            },
            {
              "internalType": "string",
              "name": "description",
              "type": "string"
            },
            {
              "internalType": "string",
              "name": "URI",
              "type": "string"
            }
          ],
          "internalType": "struct NFT_Medal_Bkg_Desc[]",
          "name": "",
          "type": "tuple[]"
        }
      ],
      "stateMutability": "view",
      "type": "function"
    },
    {
      "inputs": [
        {
          "internalType": "address",
          "name": "_user",
          "type": "address"
        }
      ],
      "name": "getAuthor",
      "outputs": [
        {
          "components": [
            {
              "internalType": "address",
              "name": "userAddress",
              "type": "address"
            },
            {
              "internalType": "uint256[]",
              "name": "creations",
              "type": "uint256[]"
            },
            {
              "internalType": "bool",
              "name": "activ",
              "type": "bool"
            }
          ],
          "internalType": "struct Author",
          "name": "",
          "type": "tuple"
        }
      ],
      "stateMutability": "view",
      "type": "function"
    }
  ],
  "bytecode": "0x608060405234801561001057600080fd5b5061002161001c610026565b61002a565b61007a565b3390565b600080546001600160a01b038381166001600160a01b0319831681178455604051919092169283917f8be0079c531659141344cd1fd0a4f28419497f9722a3daafe3b4186f6b6457e09190a35050565b61124e806100896000396000f3fe608060405234801561001057600080fd5b506004361061008e5760003560e01c80630ab30093146100935780635336abb5146100bc5780635e2fc6bf146100e1578063715018a6146100f65780637990b367146100fe5780638da5cb5b1461011e5780639107e87914610126578063c888724914610146578063cd284f6514610166578063f2fde38b14610179575b600080fd5b6100a66100a1366004610d94565b61018c565b6040516100b39190611127565b60405180910390f35b6100cf6100ca366004610e2f565b610242565b6040516100b396959493929190610f2c565b6100f46100ef366004610db5565b6103a9565b005b6100f4610597565b61011161010c366004610e2f565b6105e2565b6040516100b39190610f18565b61011161060c565b610139610134366004610d94565b61061b565b6040516100b3919061105b565b610159610154366004610e72565b6106c7565b6040516100b39190610f9e565b6100f4610174366004610e47565b610a77565b6100f4610187366004610d94565b610b26565b610194610beb565b816001600160a01b0381166101a857600080fd5b6001600160a01b038084166000908152600160208181526040928390208351606081018552815490951685529182018054845181840281018401909552808552929385830193909283018282801561021f57602002820191906000526020600020905b81548152602001906001019080831161020b575b50505091835250506002919091015460ff16151560209091015291505b50919050565b6003818154811061025257600080fd5b6000918252602090912060069091020180546001820154600283015460038401546004850180546001600160a01b0395861697509390941694919390926102989061119c565b80601f01602080910402602001604051908101604052809291908181526020018280546102c49061119c565b80156103115780601f106102e657610100808354040283529160200191610311565b820191906000526020600020905b8154815290600101906020018083116102f457829003601f168201915b5050505050908060050180546103269061119c565b80601f01602080910402602001604051908101604052809291908181526020018280546103529061119c565b801561039f5780601f106103745761010080835404028352916020019161039f565b820191906000526020600020905b81548152906001019060200180831161038257829003601f168201915b5050505050905086565b6103b1610b97565b6001600160a01b03166103c261060c565b6001600160a01b0316146103f15760405162461bcd60e51b81526004016103e8906110d3565b60405180910390fd5b836001600160a01b03811661040557600080fd5b6001600160a01b0385166000908152600160205260409020600281015460ff166104415760405162461bcd60e51b81526004016103e8906110b4565b600380546001810180835560008381526040805160c0810182526001600160a01b038c16815260208101929092528101899052606081018390526080810188905260a08101879052919290839081106104aa57634e487b7160e01b600052603260045260246000fd5b6000918252602091829020835160069092020180546001600160a01b039283166001600160a01b03199182161782558484015160018301805491909416911617909155604083015160028201556060830151600382015560808301518051919261051c92600485019290910190610c17565b5060a08201518051610538916005840191602090910190610c17565b505050600180830180549182018155600090815260209020018190556040517f6ebd5b45b68b36b036925496b54a9c90f49bdc2a23cf8fb9d7f92e13eb113c15906105869089908490610f85565b60405180910390a150505050505050565b61059f610b97565b6001600160a01b03166105b061060c565b6001600160a01b0316146105d65760405162461bcd60e51b81526004016103e8906110d3565b6105e06000610b9b565b565b600281815481106105f257600080fd5b6000918252602090912001546001600160a01b0316905081565b6000546001600160a01b031690565b6060816001600160a01b03811661063157600080fd5b6001600160a01b038316600090815260016020819052604090912001548061065857600080fd5b6001600160a01b038416600090815260016020818152604092839020909101805483518184028101840190945280845290918301828280156106b957602002820191906000526020600020905b8154815260200190600101908083116106a5575b505050505092505050919050565b600354606090806106d757600080fd5b828411156106e457600080fd5b60035484106107055760405162461bcd60e51b81526004016103e890611108565b60035483106107205760035461071d90600190611185565b92505b600061072c8585611185565b61073790600161116d565b6001600160401b0381111561075c57634e487b7160e01b600052604160045260246000fd5b60405190808252806020026020018201604052801561079557816020015b610782610c9b565b81526020019060019003908161077a5790505b509050845b848111610a6e576040518060c00160405280600383815481106107cd57634e487b7160e01b600052603260045260246000fd5b6000918252602091829020600690910201546001600160a01b031682526003805492909101918490811061081157634e487b7160e01b600052603260045260246000fd5b6000918252602091829020600160069092020101546001600160a01b031682526003805492909101918490811061085857634e487b7160e01b600052603260045260246000fd5b90600052602060002090600602016002015481526020016003838154811061089057634e487b7160e01b600052603260045260246000fd5b9060005260206000209060060201600301548152602001600383815481106108c857634e487b7160e01b600052603260045260246000fd5b906000526020600020906006020160040180546108e49061119c565b80601f01602080910402602001604051908101604052809291908181526020018280546109109061119c565b801561095d5780601f106109325761010080835404028352916020019161095d565b820191906000526020600020905b81548152906001019060200180831161094057829003601f168201915b505050505081526020016003838154811061098857634e487b7160e01b600052603260045260246000fd5b906000526020600020906006020160050180546109a49061119c565b80601f01602080910402602001604051908101604052809291908181526020018280546109d09061119c565b8015610a1d5780601f106109f257610100808354040283529160200191610a1d565b820191906000526020600020905b815481529060010190602001808311610a0057829003601f168201915b5050505050815250828783610a329190611185565b81518110610a5057634e487b7160e01b600052603260045260246000fd5b60200260200101819052508080610a66906111d1565b91505061079a565b50949350505050565b610a7f610b97565b6001600160a01b0316610a9061060c565b6001600160a01b031614610ab65760405162461bcd60e51b81526004016103e8906110d3565b806001600160a01b038116610aca57600080fd5b8160038481548110610aec57634e487b7160e01b600052603260045260246000fd5b906000526020600020906006020160010160006101000a8154816001600160a01b0302191690836001600160a01b03160217905550505050565b610b2e610b97565b6001600160a01b0316610b3f61060c565b6001600160a01b031614610b655760405162461bcd60e51b81526004016103e8906110d3565b6001600160a01b038116610b8b5760405162461bcd60e51b81526004016103e89061106e565b610b9481610b9b565b50565b3390565b600080546001600160a01b038381166001600160a01b0319831681178455604051919092169283917f8be0079c531659141344cd1fd0a4f28419497f9722a3daafe3b4186f6b6457e09190a35050565b604051806060016040528060006001600160a01b03168152602001606081526020016000151581525090565b828054610c239061119c565b90600052602060002090601f016020900481019282610c455760008555610c8b565b82601f10610c5e57805160ff1916838001178555610c8b565b82800160010185558215610c8b579182015b82811115610c8b578251825591602001919060010190610c70565b50610c97929150610ce3565b5090565b6040518060c0016040528060006001600160a01b0316815260200160006001600160a01b03168152602001600081526020016000815260200160608152602001606081525090565b5b80821115610c975760008155600101610ce4565b80356001600160a01b0381168114610d0f57600080fd5b919050565b600082601f830112610d24578081fd5b81356001600160401b0380821115610d3e57610d3e611202565b604051601f8301601f191681016020018281118282101715610d6257610d62611202565b604052828152848301602001861015610d79578384fd5b82602086016020830137918201602001929092529392505050565b600060208284031215610da5578081fd5b610dae82610cf8565b9392505050565b60008060008060808587031215610dca578283fd5b610dd385610cf8565b93506020850135925060408501356001600160401b0380821115610df5578384fd5b610e0188838901610d14565b93506060870135915080821115610e16578283fd5b50610e2387828801610d14565b91505092959194509250565b600060208284031215610e40578081fd5b5035919050565b60008060408385031215610e59578182fd5b82359150610e6960208401610cf8565b90509250929050565b60008060408385031215610e84578182fd5b50508035926020909101359150565b6000815180845260208085019450808401835b83811015610ec257815187529582019590820190600101610ea6565b509495945050505050565b60008151808452815b81811015610ef257602081850181015186830182015201610ed6565b81811115610f035782602083870101525b50601f01601f19169290920160200192915050565b6001600160a01b0391909116815260200190565b6001600160a01b03878116825286166020820152604081018590526060810184905260c060808201819052600090610f6690830185610ecd565b82810360a0840152610f788185610ecd565b9998505050505050505050565b6001600160a01b03929092168252602082015260400190565b60208082528251828201819052600091906040908185019080840286018301878501865b8381101561104d57888303603f19018552815180516001600160a01b03908116855288820151168885015286810151878501526060808201519085015260808082015160c0828701819052919061101b83880182610ecd565b9250505060a080830151925085820381870152506110398183610ecd565b968901969450505090860190600101610fc2565b509098975050505050505050565b600060208252610dae6020830184610e93565b60208082526026908201527f4f776e61626c653a206e6577206f776e657220697320746865207a65726f206160408201526564647265737360d01b606082015260800190565b60208082526005908201526404552525f360dc1b604082015260600190565b6020808252818101527f4f776e61626c653a2063616c6c6572206973206e6f7420746865206f776e6572604082015260600190565b6020808252600590820152644552525f3160d81b604082015260600190565b602080825282516001600160a01b031682820152820151606060408301526000906111556080840182610e93565b90506040840151151560608401528091505092915050565b60008219821115611180576111806111ec565b500190565b600082821015611197576111976111ec565b500390565b6002810460018216806111b057607f821691505b6020821081141561023c57634e487b7160e01b600052602260045260246000fd5b60006000198214156111e5576111e56111ec565b5060010190565b634e487b7160e01b600052601160045260246000fd5b634e487b7160e01b600052604160045260246000fdfea26469706673582212207e750dabfe2ab3800317992d41aafeba8d4bcbe28473812a3115e5be3e60e48164736f6c63430008000033",
  "immutableReferences": {},
  "source": "// SPDX-License-Identifier: MIT\npragma solidity ^0.8;\nimport \"@openzeppelin/contracts/access/Ownable.sol\";\nstruct NFT_Medal_Bkg_Desc {\n\taddress author; // Owner of the NFT\n\taddress NFT_Bkg_Adr; //Address for the minted NFT (can be null)\n\tuint256 price; // Price for the corresponding NFT\n\tuint256 creationId; // Creation ref\n\tstring description; // Its Description\n\tstring URI; // URI for the image\n}\n\n///@dev Structure for describing MedalVerse Authors - used by AuthorHandler\nstruct Author {\n\taddress userAddress; // address used as ref\n\tuint256[] creations; // list of creations saved in AuthorHandler\n\tbool activ;\n}\n\n///@dev Contract Adding / Removing Authors and their creations\ncontract AuthorHandler is Ownable {\n\t// Data ---------------------------------\n\t// - Authors -\n\tmapping(address => Author) allAuthors; // Container for all the authors by address\n\taddress[] public registeredAuthors; // Array of all the authors addresses\n\n\t// - Creations -\n\tNFT_Medal_Bkg_Desc[] public allCreations; // Container for all the creations made by authors\n\n\t// Modifiers ----------------------------\n\tmodifier isNotNull(address a) virtual {\n\t\trequire(a != address(0));\n\t\t_;\n\t}\n\tmodifier isNotNullUint256(uint256 a) virtual {\n\t\trequire(a != 0);\n\t\t_;\n\t}\n\t// Events -------------------------------\n\tevent AuthorAdded(address usrAddr, uint256 indx);\n\tevent CreationAdded(address usrAddr, uint256 indx);\n\n\t// Methods -------------------------------\n\t///@dev Register an author, given an address\n\t///@param _user Address of the user to register as author\n\tfunction addAuthor(address _user) internal onlyOwner isNotNull(_user) {\n\t\tregisteredAuthors.push(_user);\n\n\t\tallAuthors[_user].userAddress = _user;\n\t\tallAuthors[_user].activ = true;\n\t\temit AuthorAdded(_user, registeredAuthors.length - 1);\n\t}\n\n\t///@dev Register a creation for a given author\n\t///@param _user Address of the user to register as author\n\t///@param _price Price of the NFT\n\t///@param _description may be null\n\t///@param _URI Address of the image, used before minting the NFT\n\tfunction addCreation(\n\t\taddress _user,\n\t\tuint256 _price,\n\t\tstring memory _description,\n\t\tstring memory _URI\n\t) external onlyOwner isNotNull(_user) {\n\t\tAuthor storage _author = allAuthors[_user];\n\t\trequire(_author.activ, \"ERR_0\");\n\t\tuint256 allCreationCount = allCreations.length;\n\t\tallCreations.push();\n\t\t// Register the creation in the global list of creations\n\t\tallCreations[allCreationCount] = NFT_Medal_Bkg_Desc({\n\t\t\tprice: _price,\n\t\t\tcreationId: allCreationCount,\n\t\t\tauthor: _user,\n\t\t\tNFT_Bkg_Adr: address(0x00),\n\t\t\tdescription: _description,\n\t\t\tURI: _URI\n\t\t});\n\n\t\t// Save the index into the author Structure\n\t\t_author.creations.push(allCreationCount);\n\t\temit CreationAdded(_user, allCreationCount);\n\t}\n\n\t///@dev Register a creation for a given author TESTED\n\t///@param _creationId index of the creation as registered in allCreations\n\t///@param _NFT Address of the minted NFT\n\tfunction affectNFTtoCreation(uint256 _creationId, address _NFT)\n\t\texternal\n\t\tonlyOwner\n\t\tisNotNull(_NFT)\n\t{\n\t\tallCreations[_creationId].NFT_Bkg_Adr = _NFT;\n\t}\n\n\t///@dev returns the list of creations for user _author TESTED\n\t///@param _author address of the user\n\tfunction getAuthorCreationsList(address _author)\n\t\texternal\n\t\tview\n\t\tisNotNull(_author)\n\t\tisNotNullUint256(allAuthors[_author].creations.length)\n\t\treturns (uint256[] memory)\n\t{\n\t\treturn allAuthors[_author].creations;\n\t}\n\n\t///@dev returns the list of creations\n\t///@param _start start index  - paging\n\t///@param _end ending index - paging\n\tfunction getCreationList(uint256 _start, uint256 _end)\n\t\texternal\n\t\tview\n\t\tisNotNullUint256(allCreations.length)\n\t\treturns (NFT_Medal_Bkg_Desc[] memory)\n\t{\n\t\trequire(_start <= _end); // check params\n\t\trequire(_start < allCreations.length, \"ERR_1\");\n\n\t\t// we adjust the ending value\n\t\tif (_end >= allCreations.length) _end = allCreations.length - 1;\n\n\t\t// creat an array for returning only usefull values\n\t\tNFT_Medal_Bkg_Desc[] memory _desc = new NFT_Medal_Bkg_Desc[](\n\t\t\t_end - _start + 1\n\t\t);\n\n\t\t// Fill the structure\n\t\tuint256 x = _start;\n\t\twhile (x <= _end) {\n\t\t\t_desc[x - _start] = NFT_Medal_Bkg_Desc({\n\t\t\t\tprice: allCreations[x].price,\n\t\t\t\tcreationId: allCreations[x].creationId,\n\t\t\t\tauthor: allCreations[x].author,\n\t\t\t\tNFT_Bkg_Adr: allCreations[x].NFT_Bkg_Adr,\n\t\t\t\tdescription: allCreations[x].description,\n\t\t\t\tURI: allCreations[x].URI\n\t\t\t});\n\n\t\t\tx++;\n\t\t}\n\t\treturn _desc;\n\t}\n\n\t///@dev returns the Author struc corresponding to the user TESTED\n\t///@param _user user address\n\tfunction getAuthor(address _user)\n\t\texternal\n\t\tview\n\t\tisNotNull(_user)\n\t\treturns (Author memory)\n\t{\n\t\treturn allAuthors[_user];\n\t}\n}\n",
  "sourcePath": "/home/pec/Projets/MedalVerse/MedalVerse-Front/contracts/Dapp Internal Struct/AuthorHandler.sol",
  "compiler": {
    "name": "solc",
    "version": "0.8.0+commit.c7dfd78e.Emscripten.clang"
  },
  "schemaVersion": "3.4.4",
  "updatedAt": "2022-01-17T07:06:11.284Z",
  "devdoc": {
    "details": "Contract Adding / Removing Authors and their creations",
    "kind": "dev",
    "methods": {
      "addCreation(address,uint256,string,string)": {
        "details": "Register a creation for a given author",
        "params": {
          "_URI": "Address of the image, used before minting the NFT",
          "_description": "may be null",
          "_price": "Price of the NFT",
          "_user": "Address of the user to register as author"
        }
      },
      "affectNFTtoCreation(uint256,address)": {
        "details": "Register a creation for a given author TESTED",
        "params": {
          "_NFT": "Address of the minted NFT",
          "_creationId": "index of the creation as registered in allCreations"
        }
      },
      "getAuthor(address)": {
        "details": "returns the Author struc corresponding to the user TESTED",
        "params": {
          "_user": "user address"
        }
      },
      "getAuthorCreationsList(address)": {
        "details": "returns the list of creations for user _author TESTED",
        "params": {
          "_author": "address of the user"
        }
      },
      "getCreationList(uint256,uint256)": {
        "details": "returns the list of creations",
        "params": {
          "_end": "ending index - paging",
          "_start": "start index  - paging"
        }
      },
      "owner()": {
        "details": "Returns the address of the current owner."
      },
      "renounceOwnership()": {
        "details": "Leaves the contract without owner. It will not be possible to call `onlyOwner` functions anymore. Can only be called by the current owner. NOTE: Renouncing ownership will leave the contract without an owner, thereby removing any functionality that is only available to the owner."
      },
      "transferOwnership(address)": {
        "details": "Transfers ownership of the contract to a new account (`newOwner`). Can only be called by the current owner."
      }
    },
    "version": 1
  },
  "userdoc": {
    "kind": "user",
    "methods": {},
    "version": 1
  }
}