{
  "contractName": "AuthorHandler",
  "abi": [
    {
      "anonymous": false,
      "inputs": [
        {
          "indexed": false,
          "internalType": "address",
          "name": "usrAddr",
          "type": "address"
        },
        {
          "indexed": false,
          "internalType": "uint256",
          "name": "indx",
          "type": "uint256"
        }
      ],
      "name": "AuthorAdded",
      "type": "event"
    },
    {
      "anonymous": false,
      "inputs": [
        {
          "indexed": false,
          "internalType": "address",
          "name": "usrAddr",
          "type": "address"
        },
        {
          "indexed": false,
          "internalType": "uint256",
          "name": "indx",
          "type": "uint256"
        }
      ],
      "name": "CreationAdded",
      "type": "event"
    },
    {
      "anonymous": false,
      "inputs": [
        {
          "indexed": true,
          "internalType": "address",
          "name": "previousOwner",
          "type": "address"
        },
        {
          "indexed": true,
          "internalType": "address",
          "name": "newOwner",
          "type": "address"
        }
      ],
      "name": "OwnershipTransferred",
      "type": "event"
    },
    {
      "inputs": [
        {
          "internalType": "uint256",
          "name": "",
          "type": "uint256"
        }
      ],
      "name": "allCreations",
      "outputs": [
        {
          "internalType": "uint256",
          "name": "price",
          "type": "uint256"
        },
        {
          "internalType": "uint256",
          "name": "creationId",
          "type": "uint256"
        },
        {
          "internalType": "uint256",
          "name": "sportCategory",
          "type": "uint256"
        },
        {
          "internalType": "address",
          "name": "author",
          "type": "address"
        },
        {
          "internalType": "address",
          "name": "NFT_Bkg_Adr",
          "type": "address"
        },
        {
          "internalType": "string",
          "name": "description",
          "type": "string"
        },
        {
          "internalType": "string",
          "name": "URI",
          "type": "string"
        },
        {
          "internalType": "bool",
          "name": "activ",
          "type": "bool"
        }
      ],
      "stateMutability": "view",
      "type": "function"
    },
    {
      "inputs": [],
      "name": "owner",
      "outputs": [
        {
          "internalType": "address",
          "name": "",
          "type": "address"
        }
      ],
      "stateMutability": "view",
      "type": "function"
    },
    {
      "inputs": [
        {
          "internalType": "uint256",
          "name": "",
          "type": "uint256"
        }
      ],
      "name": "registeredAuthors",
      "outputs": [
        {
          "internalType": "address",
          "name": "",
          "type": "address"
        }
      ],
      "stateMutability": "view",
      "type": "function"
    },
    {
      "inputs": [],
      "name": "renounceOwnership",
      "outputs": [],
      "stateMutability": "nonpayable",
      "type": "function"
    },
    {
      "inputs": [
        {
          "internalType": "address",
          "name": "newOwner",
          "type": "address"
        }
      ],
      "name": "transferOwnership",
      "outputs": [],
      "stateMutability": "nonpayable",
      "type": "function"
    },
    {
      "inputs": [
        {
          "internalType": "address",
          "name": "_user",
          "type": "address"
        },
        {
          "internalType": "uint256",
          "name": "_price",
          "type": "uint256"
        },
        {
          "internalType": "uint256",
          "name": "_sportCategory",
          "type": "uint256"
        },
        {
          "internalType": "string",
          "name": "_description",
          "type": "string"
        },
        {
          "internalType": "string",
          "name": "_URI",
          "type": "string"
        }
      ],
      "name": "addCreation",
      "outputs": [],
      "stateMutability": "nonpayable",
      "type": "function"
    },
    {
      "inputs": [
        {
          "internalType": "uint256",
          "name": "_creationId",
          "type": "uint256"
        },
        {
          "internalType": "address",
          "name": "_NFT",
          "type": "address"
        }
      ],
      "name": "affectNFTtoCreation",
      "outputs": [],
      "stateMutability": "nonpayable",
      "type": "function"
    },
    {
      "inputs": [
        {
          "internalType": "address",
          "name": "_author",
          "type": "address"
        }
      ],
      "name": "getAuthorCreationsList",
      "outputs": [
        {
          "internalType": "uint256[]",
          "name": "",
          "type": "uint256[]"
        }
      ],
      "stateMutability": "view",
      "type": "function"
    },
    {
      "inputs": [
        {
          "internalType": "uint256",
          "name": "_start",
          "type": "uint256"
        },
        {
          "internalType": "uint256",
          "name": "_end",
          "type": "uint256"
        }
      ],
      "name": "getCreationList",
      "outputs": [
        {
          "components": [
            {
              "internalType": "uint256",
              "name": "price",
              "type": "uint256"
            },
            {
              "internalType": "uint256",
              "name": "creationId",
              "type": "uint256"
            },
            {
              "internalType": "uint256",
              "name": "sportCategory",
              "type": "uint256"
            },
            {
              "internalType": "address",
              "name": "author",
              "type": "address"
            },
            {
              "internalType": "address",
              "name": "NFT_Bkg_Adr",
              "type": "address"
            },
            {
              "internalType": "string",
              "name": "description",
              "type": "string"
            },
            {
              "internalType": "string",
              "name": "URI",
              "type": "string"
            },
            {
              "internalType": "bool",
              "name": "activ",
              "type": "bool"
            }
          ],
          "internalType": "struct NFT_Medal_Bkg_Desc[]",
          "name": "",
          "type": "tuple[]"
        }
      ],
      "stateMutability": "view",
      "type": "function"
    },
    {
      "inputs": [
        {
          "internalType": "address",
          "name": "_user",
          "type": "address"
        }
      ],
      "name": "getAuthor",
      "outputs": [
        {
          "components": [
            {
              "internalType": "address",
              "name": "userAddress",
              "type": "address"
            },
            {
              "internalType": "uint256[]",
              "name": "creations",
              "type": "uint256[]"
            },
            {
              "internalType": "bool",
              "name": "activ",
              "type": "bool"
            }
          ],
          "internalType": "struct Author",
          "name": "",
          "type": "tuple"
        }
      ],
      "stateMutability": "view",
      "type": "function"
    }
  ],
  "bytecode": "0x608060405234801561001057600080fd5b5061002161001c610026565b61002a565b61007a565b3390565b600080546001600160a01b038381166001600160a01b0319831681178455604051919092169283917f8be0079c531659141344cd1fd0a4f28419497f9722a3daafe3b4186f6b6457e09190a35050565b6113c8806100896000396000f3fe608060405234801561001057600080fd5b506004361061009e5760003560e01c80639107e879116100665780639107e87914610125578063ad97046314610145578063c888724914610158578063cd284f6514610178578063f2fde38b1461018b5761009e565b80630ab30093146100a35780635336abb5146100cc578063715018a6146100f35780637990b367146100fd5780638da5cb5b1461011d575b600080fd5b6100b66100b1366004610e79565b61019e565b6040516100c39190611234565b60405180910390f35b6100df6100da366004610f1f565b610254565b6040516100c398979695949392919061127a565b6100fb6103cc565b005b61011061010b366004610f1f565b610420565b6040516100c3919061101b565b61011061044a565b610138610133366004610e79565b610459565b6040516100c3919061112b565b6100fb610153366004610e9a565b610505565b61016b610166366004610f62565b610722565b6040516100c39190611048565b6100fb610186366004610f37565b610b4a565b6100fb610199366004610e79565b610bf9565b6101a6610cbe565b816001600160a01b0381166101ba57600080fd5b6001600160a01b038084166000908152600160208181526040928390208351606081018552815490951685529182018054845181840281018401909552808552929385830193909283018282801561023157602002820191906000526020600020905b81548152602001906001019080831161021d575b50505091835250506002919091015460ff16151560209091015291505b50919050565b6003818154811061026457600080fd5b6000918252602090912060089091020180546001820154600283015460038401546004850154600586018054959750939592946001600160a01b03928316949190921692916102b290611316565b80601f01602080910402602001604051908101604052809291908181526020018280546102de90611316565b801561032b5780601f106103005761010080835404028352916020019161032b565b820191906000526020600020905b81548152906001019060200180831161030e57829003601f168201915b50505050509080600601805461034090611316565b80601f016020809104026020016040519081016040528092919081815260200182805461036c90611316565b80156103b95780601f1061038e576101008083540402835291602001916103b9565b820191906000526020600020905b81548152906001019060200180831161039c57829003601f168201915b5050506007909301549192505060ff1688565b6103d4610c6a565b6001600160a01b03166103e561044a565b6001600160a01b0316146104145760405162461bcd60e51b815260040161040b90611184565b60405180910390fd5b61041e6000610c6e565b565b6002818154811061043057600080fd5b6000918252602090912001546001600160a01b0316905081565b6000546001600160a01b031690565b6060816001600160a01b03811661046f57600080fd5b6001600160a01b038316600090815260016020819052604090912001548061049657600080fd5b6001600160a01b038416600090815260016020818152604092839020909101805483518184028101840190945280845290918301828280156104f757602002820191906000526020600020905b8154815260200190600101908083116104e3575b505050505092505050919050565b61050d610c6a565b6001600160a01b031661051e61044a565b6001600160a01b0316146105445760405162461bcd60e51b815260040161040b90611184565b846001600160a01b03811661055857600080fd5b6001600160a01b0386166000908152600160205260409020600281015460ff166105945760405162461bcd60e51b815260040161040b906111f0565b600380546001808201808455600084815260408051610100810182528c8152602081018690529081018b90526001600160a01b038d166060820152608081019190915260a0810189905260c0810188905260e0810192909252919290918390811061060f57634e487b7160e01b600052603260045260246000fd5b600091825260209182902083516008909202019081558282015160018201556040830151600282015560608301516003820180546001600160a01b039283166001600160a01b031991821617909155608085015160048401805491909316911617905560a08301518051919261068d92600585019290910190610cea565b5060c082015180516106a9916006840191602090910190610cea565b5060e091909101516007909101805460ff1916911515919091179055600182810180549182018155600090815260209020018190556040517f6ebd5b45b68b36b036925496b54a9c90f49bdc2a23cf8fb9d7f92e13eb113c1590610710908a90849061102f565b60405180910390a15050505050505050565b6003546060908061073257600080fd5b8284111561073f57600080fd5b60035484106107605760405162461bcd60e51b815260040161040b906111b9565b600354831061077b57600354610778906001906112ff565b92505b600061078785856112ff565b6107929060016112e7565b67ffffffffffffffff8111156107b857634e487b7160e01b600052604160045260246000fd5b6040519080825280602002602001820160405280156107f157816020015b6107de610d6e565b8152602001906001900390816107d65790505b509050845b848111610b41576040518061010001604052806003838154811061082a57634e487b7160e01b600052603260045260246000fd5b90600052602060002090600802016000015481526020016003838154811061086257634e487b7160e01b600052603260045260246000fd5b90600052602060002090600802016001015481526020016003838154811061089a57634e487b7160e01b600052603260045260246000fd5b9060005260206000209060080201600201548152602001600383815481106108d257634e487b7160e01b600052603260045260246000fd5b600091825260209182902060036008909202018101546001600160a01b03168352805492909101918490811061091857634e487b7160e01b600052603260045260246000fd5b6000918252602091829020600460089092020101546001600160a01b031682526003805492909101918490811061095f57634e487b7160e01b600052603260045260246000fd5b9060005260206000209060080201600501805461097b90611316565b80601f01602080910402602001604051908101604052809291908181526020018280546109a790611316565b80156109f45780601f106109c9576101008083540402835291602001916109f4565b820191906000526020600020905b8154815290600101906020018083116109d757829003601f168201915b5050505050815260200160038381548110610a1f57634e487b7160e01b600052603260045260246000fd5b90600052602060002090600802016006018054610a3b90611316565b80601f0160208091040260200160405190810160405280929190818152602001828054610a6790611316565b8015610ab45780601f10610a8957610100808354040283529160200191610ab4565b820191906000526020600020905b815481529060010190602001808311610a9757829003601f168201915b5050505050815260200160038381548110610adf57634e487b7160e01b600052603260045260246000fd5b600091825260209091206007600890920201015460ff161515905282610b0588846112ff565b81518110610b2357634e487b7160e01b600052603260045260246000fd5b60200260200101819052508080610b399061134b565b9150506107f6565b50949350505050565b610b52610c6a565b6001600160a01b0316610b6361044a565b6001600160a01b031614610b895760405162461bcd60e51b815260040161040b90611184565b806001600160a01b038116610b9d57600080fd5b8160038481548110610bbf57634e487b7160e01b600052603260045260246000fd5b906000526020600020906008020160040160006101000a8154816001600160a01b0302191690836001600160a01b03160217905550505050565b610c01610c6a565b6001600160a01b0316610c1261044a565b6001600160a01b031614610c385760405162461bcd60e51b815260040161040b90611184565b6001600160a01b038116610c5e5760405162461bcd60e51b815260040161040b9061113e565b610c6781610c6e565b50565b3390565b600080546001600160a01b038381166001600160a01b0319831681178455604051919092169283917f8be0079c531659141344cd1fd0a4f28419497f9722a3daafe3b4186f6b6457e09190a35050565b604051806060016040528060006001600160a01b03168152602001606081526020016000151581525090565b828054610cf690611316565b90600052602060002090601f016020900481019282610d185760008555610d5e565b82601f10610d3157805160ff1916838001178555610d5e565b82800160010185558215610d5e579182015b82811115610d5e578251825591602001919060010190610d43565b50610d6a929150610dc7565b5090565b60405180610100016040528060008152602001600081526020016000815260200160006001600160a01b0316815260200160006001600160a01b0316815260200160608152602001606081526020016000151581525090565b5b80821115610d6a5760008155600101610dc8565b80356001600160a01b0381168114610df357600080fd5b919050565b600082601f830112610e08578081fd5b813567ffffffffffffffff80821115610e2357610e2361137c565b604051601f8301601f191681016020018281118282101715610e4757610e4761137c565b604052828152848301602001861015610e5e578384fd5b82602086016020830137918201602001929092529392505050565b600060208284031215610e8a578081fd5b610e9382610ddc565b9392505050565b600080600080600060a08688031215610eb1578081fd5b610eba86610ddc565b94506020860135935060408601359250606086013567ffffffffffffffff80821115610ee4578283fd5b610ef089838a01610df8565b93506080880135915080821115610f05578283fd5b50610f1288828901610df8565b9150509295509295909350565b600060208284031215610f30578081fd5b5035919050565b60008060408385031215610f49578182fd5b82359150610f5960208401610ddc565b90509250929050565b60008060408385031215610f74578182fd5b50508035926020909101359150565b6001600160a01b03169052565b6000815180845260208085019450808401835b83811015610fbf57815187529582019590820190600101610fa3565b509495945050505050565b15159052565b60008151808452815b81811015610ff557602081850181015186830182015201610fd9565b818111156110065782602083870101525b50601f01601f19169290920160200192915050565b6001600160a01b0391909116815260200190565b6001600160a01b03929092168252602082015260400190565b60208082528251828201819052600091906040908185019080840286018301878501865b8381101561111d57888303603f19018552815180518452878101518885015286810151878501526060808201516001600160a01b03169085015260808082015161010091906110bd82880182610f83565b505060a08083015182828801526110d683880182610fd0565b9250505060c080830151868303828801526110f18382610fd0565b9250505060e080830151925061110981870184610fca565b50958801959350509086019060010161106c565b509098975050505050505050565b600060208252610e936020830184610f90565b60208082526026908201527f4f776e61626c653a206e6577206f776e657220697320746865207a65726f206160408201526564647265737360d01b606082015260800190565b6020808252818101527f4f776e61626c653a2063616c6c6572206973206e6f7420746865206f776e6572604082015260600190565b60208082526017908201527f5374617274496e646578206f7574206f662072616e6765000000000000000000604082015260600190565b60208082526024908201527f417574686f72206d75737420626520616374697620746f2061646420437265616040820152633a34b7b760e11b606082015260800190565b602080825282516001600160a01b031682820152820151606060408301526000906112626080840182610f90565b90506040840151151560608401528091505092915050565b88815260208101889052604081018790526001600160a01b0386811660608301528516608082015261010060a082018190526000906112bb83820187610fd0565b905082810360c08401526112cf8186610fd0565b91505082151560e08301529998505050505050505050565b600082198211156112fa576112fa611366565b500190565b60008282101561131157611311611366565b500390565b60028104600182168061132a57607f821691505b6020821081141561024e57634e487b7160e01b600052602260045260246000fd5b600060001982141561135f5761135f611366565b5060010190565b634e487b7160e01b600052601160045260246000fd5b634e487b7160e01b600052604160045260246000fdfea264697066735822122082aa49aac59c8a9ae6658448270f2ce89ed5a6a9bb8c23caa0984fcb3377416d64736f6c63430008000033",
  "immutableReferences": {},
  "source": "// SPDX-License-Identifier: MIT\npragma solidity ^0.8;\nimport \"@openzeppelin/contracts/access/Ownable.sol\";\nimport \"./NFT_Medal_Bkg_Desc.sol\";\n\n///@dev Structure for describing MedalVerse Authors - used by AuthorHandler\nstruct Author {\n\taddress userAddress; // address used as ref\n\tuint256[] creations; // list of creations saved in AuthorHandler\n\tbool activ;\n}\n\n///@dev Contract Adding / Removing Authors and their creations\ncontract AuthorHandler is Ownable {\n\t// Data ---------------------------------\n\t// - Authors -\n\tmapping(address => Author) allAuthors; // Container for all the authors by address\n\taddress[] public registeredAuthors; // Array of all the authors addresses\n\n\t// - Creations -\n\tNFT_Medal_Bkg_Desc[] public allCreations; // Container for all the creations made by authors\n\n\t// Modifiers ----------------------------\n\tmodifier isNotNull(address a) virtual {\n\t\trequire(a != address(0));\n\t\t_;\n\t}\n\tmodifier isNotNullUint256(uint256 a) virtual {\n\t\trequire(a != 0);\n\t\t_;\n\t}\n\t// Events -------------------------------\n\tevent AuthorAdded(address usrAddr, uint256 indx);\n\tevent CreationAdded(address usrAddr, uint256 indx);\n\n\t// Methods -------------------------------\n\t///@dev Register an author, given an address\n\t///@param _user Address of the user to register as author\n\tfunction addAuthor(address _user) internal onlyOwner isNotNull(_user) {\n\t\tregisteredAuthors.push(_user);\n\t\tAuthor storage _author = allAuthors[_user];\n\t\t_author.userAddress = _user;\n\t\t_author.activ = true;\n\t\temit AuthorAdded(_user, registeredAuthors.length - 1);\n\t}\n\n\t///@dev Register a creation for a given author\n\t///@param _user Address of the user to register as author\n\t///@param _price Price of the NFT\n\t///@param _sportCategory Category for UI\n\t///@param _description may be null\n\t///@param _URI Address of the image, used before minting the NFT\n\tfunction addCreation(\n\t\taddress _user,\n\t\tuint256 _price,\n\t\tuint256 _sportCategory,\n\t\tstring memory _description,\n\t\tstring memory _URI\n\t) public onlyOwner isNotNull(_user) {\n\t\tAuthor storage _author = allAuthors[_user];\n\t\trequire(_author.activ, \"Author must be activ to add Creation\");\n\t\tuint256 allCreationCount = allCreations.length;\n\t\tallCreations.push();\n\t\t// Register the creation in the global list of creations\n\t\tallCreations[allCreationCount] = NFT_Medal_Bkg_Desc({\n\t\t\tprice: _price,\n\t\t\tcreationId: allCreationCount,\n\t\t\tsportCategory: _sportCategory,\n\t\t\tauthor: _user,\n\t\t\tNFT_Bkg_Adr: address(0x00),\n\t\t\tdescription: _description,\n\t\t\tURI: _URI,\n\t\t\tactiv: true\n\t\t});\n\n\t\t// Save the index into the author Structure\n\t\t_author.creations.push(allCreationCount);\n\t\temit CreationAdded(_user, allCreationCount);\n\t}\n\n\t///@dev Register a creation for a given author TESTED\n\t///@param _creationId index of the creation as registered in allCreations\n\t///@param _NFT Address of the minted NFT\n\tfunction affectNFTtoCreation(uint256 _creationId, address _NFT)\n\t\tpublic\n\t\tonlyOwner\n\t\tisNotNull(_NFT)\n\t{\n\t\tallCreations[_creationId].NFT_Bkg_Adr = _NFT;\n\t}\n\n\t///@dev returns the list of creations for user _author TESTED\n\t///@param _author address of the user\n\tfunction getAuthorCreationsList(address _author)\n\t\tpublic\n\t\tview\n\t\tisNotNull(_author)\n\t\tisNotNullUint256(allAuthors[_author].creations.length)\n\t\treturns (uint256[] memory)\n\t{\n\t\treturn allAuthors[_author].creations;\n\t}\n\n\t///@dev returns the list of creations: they may be inactive, must test activ value TESTED\n\t///@param _start start index  - paging\n\t///@param _end ending index - paging\n\tfunction getCreationList(uint256 _start, uint256 _end)\n\t\tpublic\n\t\tview\n\t\tisNotNullUint256(allCreations.length)\n\t\treturns (NFT_Medal_Bkg_Desc[] memory)\n\t{\n\t\trequire(_start <= _end); // check params\n\t\trequire(_start < allCreations.length, \"StartIndex out of range\");\n\n\t\t// we adjust the ending value\n\t\tif (_end >= allCreations.length) _end = allCreations.length - 1;\n\n\t\t// creat an array for returning only usefull values\n\t\tNFT_Medal_Bkg_Desc[] memory _desc = new NFT_Medal_Bkg_Desc[](\n\t\t\t_end - _start + 1\n\t\t);\n\n\t\t// Fill the structure\n\t\tuint256 x = _start;\n\t\twhile (x <= _end) {\n\t\t\t_desc[x - _start] = NFT_Medal_Bkg_Desc({\n\t\t\t\tprice: allCreations[x].price,\n\t\t\t\tcreationId: allCreations[x].creationId,\n\t\t\t\tsportCategory: allCreations[x].sportCategory,\n\t\t\t\tauthor: allCreations[x].author,\n\t\t\t\tNFT_Bkg_Adr: allCreations[x].NFT_Bkg_Adr,\n\t\t\t\tdescription: allCreations[x].description,\n\t\t\t\tURI: allCreations[x].URI,\n\t\t\t\tactiv: allCreations[x].activ\n\t\t\t});\n\n\t\t\tx++;\n\t\t}\n\t\treturn _desc;\n\t}\n\n\t///@dev returns the Author struc corresponding to the user TESTED\n\t///@param _user user address\n\tfunction getAuthor(address _user)\n\t\tpublic\n\t\tview\n\t\tisNotNull(_user)\n\t\treturns (Author memory)\n\t{\n\t\treturn allAuthors[_user];\n\t}\n}\n",
  "sourcePath": "/home/pec/Projets/MedalVerse/MedalVerse-Front/contracts/Dapp Internal Struct/AuthorHandler.sol",
  "compiler": {
    "name": "solc",
    "version": "0.8.0+commit.c7dfd78e.Emscripten.clang"
  },
  "schemaVersion": "3.4.3",
  "updatedAt": "2022-01-03T09:54:13.542Z",
  "devdoc": {
    "details": "Contract Adding / Removing Authors and their creations",
    "kind": "dev",
    "methods": {
      "addCreation(address,uint256,uint256,string,string)": {
        "details": "Register a creation for a given author",
        "params": {
          "_URI": "Address of the image, used before minting the NFT",
          "_description": "may be null",
          "_price": "Price of the NFT",
          "_sportCategory": "Category for UI",
          "_user": "Address of the user to register as author"
        }
      },
      "affectNFTtoCreation(uint256,address)": {
        "details": "Register a creation for a given author TESTED",
        "params": {
          "_NFT": "Address of the minted NFT",
          "_creationId": "index of the creation as registered in allCreations"
        }
      },
      "getAuthor(address)": {
        "details": "returns the Author struc corresponding to the user TESTED",
        "params": {
          "_user": "user address"
        }
      },
      "getAuthorCreationsList(address)": {
        "details": "returns the list of creations for user _author TESTED",
        "params": {
          "_author": "address of the user"
        }
      },
      "getCreationList(uint256,uint256)": {
        "details": "returns the list of creations: they may be inactive, must test activ value TESTED",
        "params": {
          "_end": "ending index - paging",
          "_start": "start index  - paging"
        }
      },
      "owner()": {
        "details": "Returns the address of the current owner."
      },
      "renounceOwnership()": {
        "details": "Leaves the contract without owner. It will not be possible to call `onlyOwner` functions anymore. Can only be called by the current owner. NOTE: Renouncing ownership will leave the contract without an owner, thereby removing any functionality that is only available to the owner."
      },
      "transferOwnership(address)": {
        "details": "Transfers ownership of the contract to a new account (`newOwner`). Can only be called by the current owner."
      }
    },
    "version": 1
  },
  "userdoc": {
    "kind": "user",
    "methods": {},
    "version": 1
  }
}