{
  "contractName": "AuthorHandler",
  "abi": [
    {
      "anonymous": false,
      "inputs": [
        {
          "indexed": false,
          "internalType": "address",
          "name": "usrAddr",
          "type": "address"
        },
        {
          "indexed": false,
          "internalType": "uint256",
          "name": "indx",
          "type": "uint256"
        }
      ],
      "name": "AuthorAdded",
      "type": "event"
    },
    {
      "anonymous": false,
      "inputs": [
        {
          "indexed": false,
          "internalType": "address",
          "name": "usrAddr",
          "type": "address"
        },
        {
          "indexed": false,
          "internalType": "uint256",
          "name": "indx",
          "type": "uint256"
        }
      ],
      "name": "CreationAdded",
      "type": "event"
    },
    {
      "anonymous": false,
      "inputs": [
        {
          "indexed": true,
          "internalType": "address",
          "name": "previousOwner",
          "type": "address"
        },
        {
          "indexed": true,
          "internalType": "address",
          "name": "newOwner",
          "type": "address"
        }
      ],
      "name": "OwnershipTransferred",
      "type": "event"
    },
    {
      "inputs": [
        {
          "internalType": "uint256",
          "name": "",
          "type": "uint256"
        }
      ],
      "name": "allCreations",
      "outputs": [
        {
          "internalType": "uint256",
          "name": "price",
          "type": "uint256"
        },
        {
          "internalType": "uint256",
          "name": "creationId",
          "type": "uint256"
        },
        {
          "internalType": "uint256",
          "name": "sportCategory",
          "type": "uint256"
        },
        {
          "internalType": "address",
          "name": "author",
          "type": "address"
        },
        {
          "internalType": "address",
          "name": "NFT_Bkg_Adr",
          "type": "address"
        },
        {
          "internalType": "string",
          "name": "description",
          "type": "string"
        },
        {
          "internalType": "string",
          "name": "URI",
          "type": "string"
        },
        {
          "internalType": "bool",
          "name": "activ",
          "type": "bool"
        }
      ],
      "stateMutability": "view",
      "type": "function"
    },
    {
      "inputs": [],
      "name": "owner",
      "outputs": [
        {
          "internalType": "address",
          "name": "",
          "type": "address"
        }
      ],
      "stateMutability": "view",
      "type": "function"
    },
    {
      "inputs": [
        {
          "internalType": "uint256",
          "name": "",
          "type": "uint256"
        }
      ],
      "name": "registeredAuthors",
      "outputs": [
        {
          "internalType": "address",
          "name": "",
          "type": "address"
        }
      ],
      "stateMutability": "view",
      "type": "function"
    },
    {
      "inputs": [],
      "name": "renounceOwnership",
      "outputs": [],
      "stateMutability": "nonpayable",
      "type": "function"
    },
    {
      "inputs": [
        {
          "internalType": "address",
          "name": "newOwner",
          "type": "address"
        }
      ],
      "name": "transferOwnership",
      "outputs": [],
      "stateMutability": "nonpayable",
      "type": "function"
    },
    {
      "inputs": [
        {
          "internalType": "address",
          "name": "_user",
          "type": "address"
        },
        {
          "internalType": "uint256",
          "name": "_price",
          "type": "uint256"
        },
        {
          "internalType": "uint256",
          "name": "_sportCategory",
          "type": "uint256"
        },
        {
          "internalType": "string",
          "name": "_description",
          "type": "string"
        },
        {
          "internalType": "string",
          "name": "_URI",
          "type": "string"
        }
      ],
      "name": "addCreation",
      "outputs": [],
      "stateMutability": "nonpayable",
      "type": "function"
    },
    {
      "inputs": [
        {
          "internalType": "uint256",
          "name": "_creationId",
          "type": "uint256"
        },
        {
          "internalType": "address",
          "name": "_NFT",
          "type": "address"
        }
      ],
      "name": "affectNFTtoCreation",
      "outputs": [],
      "stateMutability": "nonpayable",
      "type": "function"
    }
  ],
  "bytecode": "0x608060405234801561001057600080fd5b5061002161001c610026565b61002a565b61007a565b3390565b600080546001600160a01b038381166001600160a01b0319831681178455604051919092169283917f8be0079c531659141344cd1fd0a4f28419497f9722a3daafe3b4186f6b6457e09190a35050565b610b3a806100896000396000f3fe608060405234801561001057600080fd5b506004361061007d5760003560e01c80638da5cb5b1161005b5780638da5cb5b146100dc578063ad970463146100e4578063cd284f65146100f7578063f2fde38b1461010a5761007d565b80635336abb514610082578063715018a6146100b25780637990b367146100bc575b600080fd5b6100956100903660046108a5565b61011d565b6040516100a9989796959493929190610a1f565b60405180910390f35b6100ba610295565b005b6100cf6100ca3660046108a5565b6102e9565b6040516100a99190610933565b6100cf610313565b6100ba6100f2366004610820565b610322565b6100ba6101053660046108bd565b610555565b6100ba6101183660046107ff565b610604565b6003818154811061012d57600080fd5b6000918252602090912060089091020180546001820154600283015460038401546004850154600586018054959750939592946001600160a01b039283169491909216929161017b90610a8c565b80601f01602080910402602001604051908101604052809291908181526020018280546101a790610a8c565b80156101f45780601f106101c9576101008083540402835291602001916101f4565b820191906000526020600020905b8154815290600101906020018083116101d757829003601f168201915b50505050509080600601805461020990610a8c565b80601f016020809104026020016040519081016040528092919081815260200182805461023590610a8c565b80156102825780601f1061025757610100808354040283529160200191610282565b820191906000526020600020905b81548152906001019060200180831161026557829003601f168201915b5050506007909301549192505060ff1688565b61029d610675565b6001600160a01b03166102ae610313565b6001600160a01b0316146102dd5760405162461bcd60e51b81526004016102d4906109a6565b60405180910390fd5b6102e76000610679565b565b600281815481106102f957600080fd5b6000918252602090912001546001600160a01b0316905081565b6000546001600160a01b031690565b61032a610675565b6001600160a01b031661033b610313565b6001600160a01b0316146103615760405162461bcd60e51b81526004016102d4906109a6565b846001600160a01b03811661037557600080fd5b6001600160a01b0386166000908152600160205260409020600381015460ff166103b15760405162461bcd60e51b81526004016102d4906109db565b600380546001808201808455600084815260408051610100810182528c8152602081018690529081018b90526001600160a01b038d166060820152608081019190915260a0810189905260c0810188905260e0810192909252919290918390811061042c57634e487b7160e01b600052603260045260246000fd5b600091825260209182902083516008909202019081558282015160018201556040830151600282015560608301516003820180546001600160a01b039283166001600160a01b031991821617909155608085015160048401805491909316911617905560a0830151805191926104aa926005850192909101906106c9565b5060c082015180516104c69160068401916020909101906106c9565b5060e091909101516007909101805460ff191691151591909117905560028201805482916001850191600091826104fc83610ac7565b919050558152602001908152602001600020819055507f6ebd5b45b68b36b036925496b54a9c90f49bdc2a23cf8fb9d7f92e13eb113c158882604051610543929190610947565b60405180910390a15050505050505050565b61055d610675565b6001600160a01b031661056e610313565b6001600160a01b0316146105945760405162461bcd60e51b81526004016102d4906109a6565b806001600160a01b0381166105a857600080fd5b81600384815481106105ca57634e487b7160e01b600052603260045260246000fd5b906000526020600020906008020160040160006101000a8154816001600160a01b0302191690836001600160a01b03160217905550505050565b61060c610675565b6001600160a01b031661061d610313565b6001600160a01b0316146106435760405162461bcd60e51b81526004016102d4906109a6565b6001600160a01b0381166106695760405162461bcd60e51b81526004016102d490610960565b61067281610679565b50565b3390565b600080546001600160a01b038381166001600160a01b0319831681178455604051919092169283917f8be0079c531659141344cd1fd0a4f28419497f9722a3daafe3b4186f6b6457e09190a35050565b8280546106d590610a8c565b90600052602060002090601f0160209004810192826106f7576000855561073d565b82601f1061071057805160ff191683800117855561073d565b8280016001018555821561073d579182015b8281111561073d578251825591602001919060010190610722565b5061074992915061074d565b5090565b5b80821115610749576000815560010161074e565b80356001600160a01b038116811461077957600080fd5b919050565b600082601f83011261078e578081fd5b813567ffffffffffffffff808211156107a9576107a9610aee565b604051601f8301601f1916810160200182811182821017156107cd576107cd610aee565b6040528281528483016020018610156107e4578384fd5b82602086016020830137918201602001929092529392505050565b600060208284031215610810578081fd5b61081982610762565b9392505050565b600080600080600060a08688031215610837578081fd5b61084086610762565b94506020860135935060408601359250606086013567ffffffffffffffff8082111561086a578283fd5b61087689838a0161077e565b9350608088013591508082111561088b578283fd5b506108988882890161077e565b9150509295509295909350565b6000602082840312156108b6578081fd5b5035919050565b600080604083850312156108cf578182fd5b823591506108df60208401610762565b90509250929050565b60008151808452815b8181101561090d576020818501810151868301820152016108f1565b8181111561091e5782602083870101525b50601f01601f19169290920160200192915050565b6001600160a01b0391909116815260200190565b6001600160a01b03929092168252602082015260400190565b60208082526026908201527f4f776e61626c653a206e6577206f776e657220697320746865207a65726f206160408201526564647265737360d01b606082015260800190565b6020808252818101527f4f776e61626c653a2063616c6c6572206973206e6f7420746865206f776e6572604082015260600190565b60208082526024908201527f417574686f72206d75737420626520616374697620746f2061646420437265616040820152633a34b7b760e11b606082015260800190565b88815260208101889052604081018790526001600160a01b0386811660608301528516608082015261010060a08201819052600090610a60838201876108e8565b905082810360c0840152610a7481866108e8565b91505082151560e08301529998505050505050505050565b600281046001821680610aa057607f821691505b60208210811415610ac157634e487b7160e01b600052602260045260246000fd5b50919050565b6000600019821415610ae757634e487b7160e01b81526011600452602481fd5b5060010190565b634e487b7160e01b600052604160045260246000fdfea2646970667358221220df7a24144c4204ff7cf125f5f931c37486b102493e7420ec58b8786b8d82e8d064736f6c63430008000033",
  "immutableReferences": {},
  "source": "// SPDX-License-Identifier: MIT\npragma solidity ^0.8;\nimport \"@openzeppelin/contracts/access/Ownable.sol\";\nimport \"./NFT_Medal_Bkg_Desc.sol\";\n\n///@dev Structure for describing MedalVerse Authors - used by AuthorHandler\nstruct Author {\n\taddress userAddress; // address used as ref\n\tmapping(uint256 => uint256) creations; // list of creations saved in AuthorHandler\n\tuint256 creationCount; // Number of creations\n\tbool activ;\n}\n\n///@dev Contract Adding / Removing Authors and their creations\ncontract AuthorHandler is Ownable {\n\t// Data ---------------------------------\n\t// - Authors -\n\tmapping(address => Author) allAuthors; // Container for all the authors by address\n\taddress[] public registeredAuthors; // Array of all the authors addresses\n\n\t// - Creations -\n\tNFT_Medal_Bkg_Desc[] public allCreations; // Container for all the creations made by authors\n\n\t// Modifiers ----------------------------\n\tmodifier isNotNull(address a) virtual {\n\t\trequire(a != address(0));\n\t\t_;\n\t}\n\n\t// Events -------------------------------\n\tevent AuthorAdded(address usrAddr, uint256 indx);\n\tevent CreationAdded(address usrAddr, uint256 indx);\n\n\t// Methods -------------------------------\n\t///@dev Register an author, given an address\n\t///@param _user Address of the user to register as author\n\tfunction addAuthor(address _user) internal onlyOwner isNotNull(_user) {\n\t\tregisteredAuthors.push(_user);\n\t\tAuthor storage _author = allAuthors[_user];\n\t\t_author.userAddress = _user;\n\t\t_author.activ = true;\n\t\temit AuthorAdded(_user, registeredAuthors.length - 1);\n\t}\n\n\t///@dev Register a creation for a given author\n\t///@param _user Address of the user to register as author\n\t///@param _price Price of the NFT\n\t///@param _sportCategory Category for UI\n\t///@param _description may be null\n\t///@param _URI Address of the image, used before minting the NFT\n\tfunction addCreation(\n\t\taddress _user,\n\t\tuint256 _price,\n\t\tuint256 _sportCategory,\n\t\tstring memory _description,\n\t\tstring memory _URI\n\t) public onlyOwner isNotNull(_user) {\n\t\tAuthor storage _author = allAuthors[_user];\n\t\trequire(_author.activ, \"Author must be activ to add Creation\");\n\t\tuint256 allCreationCount = allCreations.length;\n\t\tallCreations.push();\n\t\t// Register the creation in the global list of creations\n\t\tallCreations[allCreationCount] = NFT_Medal_Bkg_Desc({\n\t\t\tprice: _price,\n\t\t\tcreationId: allCreationCount,\n\t\t\tsportCategory: _sportCategory,\n\t\t\tauthor: _user,\n\t\t\tNFT_Bkg_Adr: address(0x00),\n\t\t\tdescription: _description,\n\t\t\tURI: _URI,\n\t\t\tactiv: true\n\t\t});\n\n\t\t// Save the index into the author Structure\n\t\t_author.creations[_author.creationCount++] = allCreationCount;\n\t\temit CreationAdded(_user, allCreationCount);\n\t}\n\n\t///@dev Register a creation for a given author\n\t///@param _creationId index of the creation as registered in allCreations\n\t///@param _NFT Address of the minted NFT\n\tfunction affectNFTtoCreation(uint256 _creationId, address _NFT)\n\t\tpublic\n\t\tonlyOwner\n\t\tisNotNull(_NFT)\n\t{\n\t\tallCreations[_creationId].NFT_Bkg_Adr = _NFT;\n\t}\n}\n",
  "sourcePath": "/home/pec/Projets/MedalVerse/MedalVerse-Front/contracts/Dapp Internal Struct/AuthorHandler.sol",
  "compiler": {
    "name": "solc",
    "version": "0.8.0+commit.c7dfd78e.Emscripten.clang"
  },
  "schemaVersion": "3.4.3",
  "updatedAt": "2021-12-19T16:42:28.600Z",
  "devdoc": {
    "details": "Contract Adding / Removing Authors and their creations",
    "kind": "dev",
    "methods": {
      "addCreation(address,uint256,uint256,string,string)": {
        "details": "Register a creation for a given author",
        "params": {
          "_URI": "Address of the image, used before minting the NFT",
          "_description": "may be null",
          "_price": "Price of the NFT",
          "_sportCategory": "Category for UI",
          "_user": "Address of the user to register as author"
        }
      },
      "affectNFTtoCreation(uint256,address)": {
        "details": "Register a creation for a given author",
        "params": {
          "_NFT": "Address of the minted NFT",
          "_creationId": "index of the creation as registered in allCreations"
        }
      },
      "owner()": {
        "details": "Returns the address of the current owner."
      },
      "renounceOwnership()": {
        "details": "Leaves the contract without owner. It will not be possible to call `onlyOwner` functions anymore. Can only be called by the current owner. NOTE: Renouncing ownership will leave the contract without an owner, thereby removing any functionality that is only available to the owner."
      },
      "transferOwnership(address)": {
        "details": "Transfers ownership of the contract to a new account (`newOwner`). Can only be called by the current owner."
      }
    },
    "version": 1
  },
  "userdoc": {
    "kind": "user",
    "methods": {},
    "version": 1
  }
}