{
  "contractName": "EventHandler",
  "abi": [
    {
      "anonymous": false,
      "inputs": [
        {
          "indexed": true,
          "internalType": "address",
          "name": "previousOwner",
          "type": "address"
        },
        {
          "indexed": true,
          "internalType": "address",
          "name": "newOwner",
          "type": "address"
        }
      ],
      "name": "OwnershipTransferred",
      "type": "event"
    },
    {
      "anonymous": false,
      "inputs": [
        {
          "indexed": false,
          "internalType": "uint256",
          "name": "eventId",
          "type": "uint256"
        }
      ],
      "name": "eventAdded",
      "type": "event"
    },
    {
      "anonymous": false,
      "inputs": [
        {
          "indexed": false,
          "internalType": "uint256",
          "name": "eventId",
          "type": "uint256"
        }
      ],
      "name": "eventRemoved",
      "type": "event"
    },
    {
      "inputs": [],
      "name": "owner",
      "outputs": [
        {
          "internalType": "address",
          "name": "",
          "type": "address"
        }
      ],
      "stateMutability": "view",
      "type": "function"
    },
    {
      "inputs": [],
      "name": "renounceOwnership",
      "outputs": [],
      "stateMutability": "nonpayable",
      "type": "function"
    },
    {
      "inputs": [
        {
          "internalType": "address",
          "name": "newOwner",
          "type": "address"
        }
      ],
      "name": "transferOwnership",
      "outputs": [],
      "stateMutability": "nonpayable",
      "type": "function"
    },
    {
      "inputs": [
        {
          "internalType": "uint256",
          "name": "_organizedBy",
          "type": "uint256"
        },
        {
          "internalType": "uint8",
          "name": "_startDate",
          "type": "uint8"
        },
        {
          "internalType": "uint8",
          "name": "_endDate",
          "type": "uint8"
        },
        {
          "internalType": "uint256",
          "name": "_sportCategory",
          "type": "uint256"
        }
      ],
      "name": "addEvent",
      "outputs": [],
      "stateMutability": "nonpayable",
      "type": "function"
    },
    {
      "inputs": [
        {
          "internalType": "uint256",
          "name": "eventId",
          "type": "uint256"
        }
      ],
      "name": "getEvent",
      "outputs": [
        {
          "components": [
            {
              "internalType": "uint256",
              "name": "eventId",
              "type": "uint256"
            },
            {
              "internalType": "uint256",
              "name": "sportCategory",
              "type": "uint256"
            },
            {
              "internalType": "uint256",
              "name": "organizedBy",
              "type": "uint256"
            },
            {
              "internalType": "address[]",
              "name": "registeredSportsMan",
              "type": "address[]"
            },
            {
              "internalType": "uint8",
              "name": "startDate",
              "type": "uint8"
            },
            {
              "internalType": "uint8",
              "name": "endDate",
              "type": "uint8"
            },
            {
              "internalType": "bool",
              "name": "activ",
              "type": "bool"
            }
          ],
          "internalType": "struct EventHandler.EventDesc",
          "name": "",
          "type": "tuple"
        }
      ],
      "stateMutability": "view",
      "type": "function"
    },
    {
      "inputs": [
        {
          "internalType": "uint256",
          "name": "_start",
          "type": "uint256"
        },
        {
          "internalType": "uint256",
          "name": "_end",
          "type": "uint256"
        }
      ],
      "name": "getEventList",
      "outputs": [
        {
          "components": [
            {
              "internalType": "uint256",
              "name": "eventId",
              "type": "uint256"
            },
            {
              "internalType": "uint256",
              "name": "sportCategory",
              "type": "uint256"
            },
            {
              "internalType": "uint256",
              "name": "organizedBy",
              "type": "uint256"
            },
            {
              "internalType": "address[]",
              "name": "registeredSportsMan",
              "type": "address[]"
            },
            {
              "internalType": "uint8",
              "name": "startDate",
              "type": "uint8"
            },
            {
              "internalType": "uint8",
              "name": "endDate",
              "type": "uint8"
            },
            {
              "internalType": "bool",
              "name": "activ",
              "type": "bool"
            }
          ],
          "internalType": "struct EventHandler.EventDesc[]",
          "name": "",
          "type": "tuple[]"
        }
      ],
      "stateMutability": "view",
      "type": "function"
    },
    {
      "inputs": [],
      "name": "getEventCount",
      "outputs": [
        {
          "internalType": "uint256",
          "name": "",
          "type": "uint256"
        }
      ],
      "stateMutability": "view",
      "type": "function"
    }
  ],
  "bytecode": "0x608060405234801561001057600080fd5b5061002161001c610026565b61002a565b61007a565b3390565b600080546001600160a01b038381166001600160a01b0319831681178455604051919092169283917f8be0079c531659141344cd1fd0a4f28419497f9722a3daafe3b4186f6b6457e09190a35050565b610984806100896000396000f3fe608060405234801561001057600080fd5b506004361061007d5760003560e01c8063715018a61161005b578063715018a6146100e05780638da5cb5b146100e8578063d9e48f5c146100fd578063f2fde38b146101125761007d565b806335d3339e146100825780636d1884e0146100ab5780636e39f630146100cb575b600080fd5b61009561009036600461068b565b610125565b6040516100a291906107c0565b60405180910390f35b6100be6100b9366004610673565b610310565b6040516100a291906108d2565b6100de6100d93660046106ac565b6103db565b005b6100de6104ca565b6100f0610515565b6040516100a291906107ac565b610105610524565b6040516100a291906108e5565b6100de610120366004610645565b61052a565b6060600254806000141561013857600080fd5b8284111561014557600080fd5b600254841061016f5760405162461bcd60e51b81526004016101669061089b565b60405180910390fd5b600254831061018a5760016002546101879190610906565b92505b60006101968585610906565b6101a19060016108ee565b67ffffffffffffffff8111156101c757634e487b7160e01b600052604160045260246000fd5b60405190808252806020026020018201604052801561020057816020015b6101ed6105ef565b8152602001906001900390816101e55790505b509050845b84811161030757600081815260016020818152604092839020835160e08101855281548152928101548383015260028101548385015260038101805485518185028101850190965280865293949193606086019383018282801561029257602002820191906000526020600020905b81546001600160a01b03168152600190910190602001808311610274575b50505091835250506004919091015460ff80821660208401526101008204811660408401526201000090910416151560609091015282518390839081106102e957634e487b7160e01b600052603260045260246000fd5b602002602001018190525080806102ff9061091d565b915050610205565b50949350505050565b6103186105ef565b600082815260016020818152604092839020835160e08101855281548152928101548383015260028101548385015260038101805485518185028101850190965280865293949193606086019383018282801561039e57602002820191906000526020600020905b81546001600160a01b03168152600190910190602001808311610380575b50505091835250506004919091015460ff80821660208401526101008204811660408401526201000090910416151560609091015290505b919050565b6103e361059b565b6001600160a01b03166103f4610515565b6001600160a01b03161461041a5760405162461bcd60e51b815260040161016690610866565b6002805460008181526001602081905260409182902092835582840188905560048301805491840186905562ff00001960ff8881166101000261ff0019918b1660ff1990951694909417169290921791909116620100001790559154915190917fb74b81e22ed2c551cf1d61041f3314bcb4dc74e133a311f76c5de475735b0264916104a691906108e5565b60405180910390a1600280549060006104be8361091d565b91905055505050505050565b6104d261059b565b6001600160a01b03166104e3610515565b6001600160a01b0316146105095760405162461bcd60e51b815260040161016690610866565b610513600061059f565b565b6000546001600160a01b031690565b60025490565b61053261059b565b6001600160a01b0316610543610515565b6001600160a01b0316146105695760405162461bcd60e51b815260040161016690610866565b6001600160a01b03811661058f5760405162461bcd60e51b815260040161016690610820565b6105988161059f565b50565b3390565b600080546001600160a01b038381166001600160a01b0319831681178455604051919092169283917f8be0079c531659141344cd1fd0a4f28419497f9722a3daafe3b4186f6b6457e09190a35050565b6040518060e0016040528060008152602001600081526020016000815260200160608152602001600060ff168152602001600060ff1681526020016000151581525090565b803560ff811681146103d657600080fd5b600060208284031215610656578081fd5b81356001600160a01b038116811461066c578182fd5b9392505050565b600060208284031215610684578081fd5b5035919050565b6000806040838503121561069d578081fd5b50508035926020909101359150565b600080600080608085870312156106c1578182fd5b843593506106d160208601610634565b92506106df60408601610634565b9396929550929360600135925050565b15159052565b600060e08301825184526020808401518186015260408401516040860152606084015160e060608701528281518085526101008801915083830194508592505b8083101561075e5784516001600160a01b03168252938301936001929092019190830190610735565b506080860151935061077360808801856107a5565b60a0860151935061078760a08801856107a5565b60c0860151935061079b60c08801856106ef565b9695505050505050565b60ff169052565b6001600160a01b0391909116815260200190565b6000602080830181845280855180835260408601915060408482028701019250838701855b8281101561081357603f198886030184526108018583516106f5565b945092850192908501906001016107e5565b5092979650505050505050565b60208082526026908201527f4f776e61626c653a206e6577206f776e657220697320746865207a65726f206160408201526564647265737360d01b606082015260800190565b6020808252818101527f4f776e61626c653a2063616c6c6572206973206e6f7420746865206f776e6572604082015260600190565b60208082526017908201527f5374617274496e646578206f7574206f662072616e6765000000000000000000604082015260600190565b60006020825261066c60208301846106f5565b90815260200190565b6000821982111561090157610901610938565b500190565b60008282101561091857610918610938565b500390565b600060001982141561093157610931610938565b5060010190565b634e487b7160e01b600052601160045260246000fdfea264697066735822122033ab8417b9720d927b5534eba2346a9e9f61f8b89d5c3bbf8abe1a4dce80d72964736f6c63430008000033",
  "immutableReferences": {},
  "source": "// SPDX-License-Identifier: MIT\r\npragma solidity ^0.8;\r\nimport \"@openzeppelin/contracts/access/Ownable.sol\";\r\n\r\ncontract EventHandler is Ownable {\r\n\tstruct EventDesc {\r\n\t\tuint256 eventId;\r\n\t\tuint256 sportCategory;\r\n\t\tuint256 organizedBy;\r\n\t\taddress[] registeredSportsMan;\r\n\t\tuint8 startDate;\r\n\t\tuint8 endDate;\r\n\t\tbool activ;\r\n\t}\r\n\r\n\t// Data ---------------------------------\r\n\t//   Events\r\n\tmapping(uint256 => EventDesc) eventList; // List of events already registered\r\n\tuint256 eventCount; // Index for events\r\n\r\n\t// Modifiers ----------------------------\r\n\tmodifier isNotNull(address a) virtual {\r\n\t\trequire(a != address(0));\r\n\t\t_;\r\n\t}\r\n\tmodifier isNotNullUint256(uint256 a) virtual {\r\n\t\trequire(a != 0);\r\n\t\t_;\r\n\t}\r\n\t// Events -------------------------------\r\n\tevent eventAdded(uint256 eventId);\r\n\tevent eventRemoved(uint256 eventId);\r\n\r\n\t// Methods -------------------------------\r\n\t///@dev add an event to the list of events\r\n\t///@param _organizedBy id of the organizer\r\n\t///@param _startDate Date for the event to start\r\n\t///@param _endDate Date for the event to finish\r\n\t///@param _sportCategory Type of event\r\n\tfunction addEvent(\r\n\t\tuint256 _organizedBy,\r\n\t\tuint8 _startDate,\r\n\t\tuint8 _endDate,\r\n\t\tuint256 _sportCategory\r\n\t) public onlyOwner {\r\n\t\tEventDesc storage _event = eventList[eventCount];\r\n\t\t_event.eventId = eventCount;\r\n\t\t_event.organizedBy = _organizedBy;\r\n\t\t_event.startDate = _startDate;\r\n\t\t_event.endDate = _endDate;\r\n\t\t_event.sportCategory = _sportCategory;\r\n\t\t_event.activ = true;\r\n\t\temit eventAdded(eventCount);\r\n\t\teventCount++;\r\n\t}\r\n\r\n\t///@dev remove an event from the list of events\r\n\t///@param eventId id of the event\r\n\tfunction removeEvent(uint256 eventId) private onlyOwner {\r\n\t\teventList[eventCount].activ = false;\r\n\t\temit eventRemoved(eventId);\r\n\t}\r\n\r\n\t///@dev returns the details of a specific event\r\n\t///@param eventId id of the event\r\n\tfunction getEvent(uint256 eventId) public view returns (EventDesc memory) {\r\n\t\treturn eventList[eventId];\r\n\t}\r\n\r\n\t///@dev returns the list of Events\r\n\t///@param _start start index  - paging\r\n\t///@param _end ending index - paging\r\n\tfunction getEventList(uint256 _start, uint256 _end)\r\n\t\tpublic\r\n\t\tview\r\n\t\tisNotNullUint256(eventCount)\r\n\t\treturns (EventDesc[] memory)\r\n\t{\r\n\t\trequire(_start <= _end); // check params\r\n\t\trequire(_start < eventCount, \"StartIndex out of range\");\r\n\r\n\t\t// we adjust the ending value\r\n\t\tif (_end >= eventCount) _end = eventCount - 1;\r\n\r\n\t\t// creat an array for returning only usefull values\r\n\t\tEventDesc[] memory _result = new EventDesc[](_end - _start + 1);\r\n\t\t// Fill the structure\r\n\t\tuint256 x = _start;\r\n\t\twhile (x <= _end) {\r\n\t\t\t_result[x] = eventList[x];\r\n\t\t\tx++;\r\n\t\t}\r\n\t\treturn _result;\r\n\t}\r\n\r\n\t///@dev returns the number of Events\r\n\tfunction getEventCount() public view returns (uint256) {\r\n\t\treturn eventCount;\r\n\t}\r\n}\r\n",
  "sourcePath": "C:\\DEV\\ETH\\Alyra\\MedalVerse\\MedalVerse-Front\\contracts\\Dapp Internal Struct\\EventHandler.sol",
  "compiler": {
    "name": "solc",
    "version": "0.8.0+commit.c7dfd78e.Emscripten.clang"
  },
  "schemaVersion": "3.4.3",
  "updatedAt": "2021-12-20T20:36:22.635Z",
  "devdoc": {
    "kind": "dev",
    "methods": {
      "addEvent(uint256,uint8,uint8,uint256)": {
        "details": "add an event to the list of events",
        "params": {
          "_endDate": "Date for the event to finish",
          "_organizedBy": "id of the organizer",
          "_sportCategory": "Type of event",
          "_startDate": "Date for the event to start"
        }
      },
      "getEvent(uint256)": {
        "details": "returns the details of a specific event",
        "params": {
          "eventId": "id of the event"
        }
      },
      "getEventCount()": {
        "details": "returns the number of Events"
      },
      "getEventList(uint256,uint256)": {
        "details": "returns the list of Events",
        "params": {
          "_end": "ending index - paging",
          "_start": "start index  - paging"
        }
      },
      "owner()": {
        "details": "Returns the address of the current owner."
      },
      "renounceOwnership()": {
        "details": "Leaves the contract without owner. It will not be possible to call `onlyOwner` functions anymore. Can only be called by the current owner. NOTE: Renouncing ownership will leave the contract without an owner, thereby removing any functionality that is only available to the owner."
      },
      "transferOwnership(address)": {
        "details": "Transfers ownership of the contract to a new account (`newOwner`). Can only be called by the current owner."
      }
    },
    "version": 1
  },
  "userdoc": {
    "kind": "user",
    "methods": {},
    "version": 1
  }
}