{
  "contractName": "EventHandler",
  "abi": [
    {
      "anonymous": false,
      "inputs": [
        {
          "indexed": true,
          "internalType": "address",
          "name": "previousOwner",
          "type": "address"
        },
        {
          "indexed": true,
          "internalType": "address",
          "name": "newOwner",
          "type": "address"
        }
      ],
      "name": "OwnershipTransferred",
      "type": "event"
    },
    {
      "anonymous": false,
      "inputs": [
        {
          "indexed": false,
          "internalType": "uint256",
          "name": "eventId",
          "type": "uint256"
        }
      ],
      "name": "eventAdded",
      "type": "event"
    },
    {
      "anonymous": false,
      "inputs": [
        {
          "indexed": false,
          "internalType": "uint256",
          "name": "eventId",
          "type": "uint256"
        },
        {
          "indexed": false,
          "internalType": "address",
          "name": "sportsmanId",
          "type": "address"
        }
      ],
      "name": "eventRegisterSportsman",
      "type": "event"
    },
    {
      "anonymous": false,
      "inputs": [
        {
          "indexed": false,
          "internalType": "uint256",
          "name": "eventId",
          "type": "uint256"
        }
      ],
      "name": "eventRemoved",
      "type": "event"
    },
    {
      "anonymous": false,
      "inputs": [
        {
          "indexed": false,
          "internalType": "uint256",
          "name": "eventID",
          "type": "uint256"
        },
        {
          "indexed": false,
          "internalType": "enum stateOfCompetition",
          "name": "newStatus",
          "type": "uint8"
        }
      ],
      "name": "eventStatusChanged",
      "type": "event"
    },
    {
      "inputs": [],
      "name": "owner",
      "outputs": [
        {
          "internalType": "address",
          "name": "",
          "type": "address"
        }
      ],
      "stateMutability": "view",
      "type": "function"
    },
    {
      "inputs": [],
      "name": "renounceOwnership",
      "outputs": [],
      "stateMutability": "nonpayable",
      "type": "function"
    },
    {
      "inputs": [
        {
          "internalType": "address",
          "name": "newOwner",
          "type": "address"
        }
      ],
      "name": "transferOwnership",
      "outputs": [],
      "stateMutability": "nonpayable",
      "type": "function"
    },
    {
      "inputs": [
        {
          "internalType": "uint256",
          "name": "_organizedBy",
          "type": "uint256"
        },
        {
          "internalType": "uint256",
          "name": "_startDate",
          "type": "uint256"
        },
        {
          "internalType": "uint256",
          "name": "_endDate",
          "type": "uint256"
        },
        {
          "internalType": "uint256",
          "name": "_sportCategory",
          "type": "uint256"
        },
        {
          "internalType": "string",
          "name": "_eventDescription",
          "type": "string"
        }
      ],
      "name": "addEvent",
      "outputs": [
        {
          "internalType": "uint256",
          "name": "",
          "type": "uint256"
        }
      ],
      "stateMutability": "nonpayable",
      "type": "function"
    },
    {
      "inputs": [
        {
          "internalType": "uint256",
          "name": "evntID",
          "type": "uint256"
        }
      ],
      "name": "getEventCurrentState",
      "outputs": [
        {
          "internalType": "enum stateOfCompetition",
          "name": "",
          "type": "uint8"
        }
      ],
      "stateMutability": "view",
      "type": "function"
    },
    {
      "inputs": [
        {
          "internalType": "uint256",
          "name": "eventId",
          "type": "uint256"
        }
      ],
      "name": "getEvent",
      "outputs": [
        {
          "components": [
            {
              "internalType": "uint256",
              "name": "eventId",
              "type": "uint256"
            },
            {
              "internalType": "uint256",
              "name": "sportCategory",
              "type": "uint256"
            },
            {
              "internalType": "uint256",
              "name": "organizedBy",
              "type": "uint256"
            },
            {
              "internalType": "address[]",
              "name": "registeredSportsMan",
              "type": "address[]"
            },
            {
              "internalType": "address",
              "name": "winner",
              "type": "address"
            },
            {
              "internalType": "uint256",
              "name": "startDate",
              "type": "uint256"
            },
            {
              "internalType": "uint256",
              "name": "endDate",
              "type": "uint256"
            },
            {
              "internalType": "uint256",
              "name": "medalID",
              "type": "uint256"
            },
            {
              "internalType": "string",
              "name": "eventDescription",
              "type": "string"
            },
            {
              "internalType": "string",
              "name": "positionX",
              "type": "string"
            },
            {
              "internalType": "string",
              "name": "positionY",
              "type": "string"
            },
            {
              "internalType": "bool",
              "name": "hasMedal",
              "type": "bool"
            },
            {
              "internalType": "bool",
              "name": "activ",
              "type": "bool"
            },
            {
              "internalType": "bool",
              "name": "ended",
              "type": "bool"
            },
            {
              "internalType": "bool",
              "name": "started",
              "type": "bool"
            },
            {
              "internalType": "enum stateOfCompetition",
              "name": "eventState",
              "type": "uint8"
            }
          ],
          "internalType": "struct EventHandler.EventDesc",
          "name": "",
          "type": "tuple"
        }
      ],
      "stateMutability": "view",
      "type": "function"
    },
    {
      "inputs": [
        {
          "internalType": "uint256",
          "name": "eventId",
          "type": "uint256"
        }
      ],
      "name": "getWinner",
      "outputs": [
        {
          "internalType": "address",
          "name": "",
          "type": "address"
        }
      ],
      "stateMutability": "view",
      "type": "function"
    },
    {
      "inputs": [
        {
          "internalType": "uint256",
          "name": "_start",
          "type": "uint256"
        },
        {
          "internalType": "uint256",
          "name": "_end",
          "type": "uint256"
        }
      ],
      "name": "getEventList",
      "outputs": [
        {
          "components": [
            {
              "internalType": "uint256",
              "name": "eventId",
              "type": "uint256"
            },
            {
              "internalType": "uint256",
              "name": "sportCategory",
              "type": "uint256"
            },
            {
              "internalType": "uint256",
              "name": "organizedBy",
              "type": "uint256"
            },
            {
              "internalType": "address[]",
              "name": "registeredSportsMan",
              "type": "address[]"
            },
            {
              "internalType": "address",
              "name": "winner",
              "type": "address"
            },
            {
              "internalType": "uint256",
              "name": "startDate",
              "type": "uint256"
            },
            {
              "internalType": "uint256",
              "name": "endDate",
              "type": "uint256"
            },
            {
              "internalType": "uint256",
              "name": "medalID",
              "type": "uint256"
            },
            {
              "internalType": "string",
              "name": "eventDescription",
              "type": "string"
            },
            {
              "internalType": "string",
              "name": "positionX",
              "type": "string"
            },
            {
              "internalType": "string",
              "name": "positionY",
              "type": "string"
            },
            {
              "internalType": "bool",
              "name": "hasMedal",
              "type": "bool"
            },
            {
              "internalType": "bool",
              "name": "activ",
              "type": "bool"
            },
            {
              "internalType": "bool",
              "name": "ended",
              "type": "bool"
            },
            {
              "internalType": "bool",
              "name": "started",
              "type": "bool"
            },
            {
              "internalType": "enum stateOfCompetition",
              "name": "eventState",
              "type": "uint8"
            }
          ],
          "internalType": "struct EventHandler.EventDesc[]",
          "name": "",
          "type": "tuple[]"
        }
      ],
      "stateMutability": "view",
      "type": "function"
    },
    {
      "inputs": [],
      "name": "getEventCount",
      "outputs": [
        {
          "internalType": "uint256",
          "name": "",
          "type": "uint256"
        }
      ],
      "stateMutability": "view",
      "type": "function"
    },
    {
      "inputs": [
        {
          "internalType": "uint256",
          "name": "eventID",
          "type": "uint256"
        }
      ],
      "name": "eventHasMedal",
      "outputs": [
        {
          "internalType": "bool",
          "name": "",
          "type": "bool"
        }
      ],
      "stateMutability": "view",
      "type": "function"
    },
    {
      "inputs": [
        {
          "internalType": "uint256",
          "name": "eventID",
          "type": "uint256"
        }
      ],
      "name": "eventGetMedal",
      "outputs": [
        {
          "internalType": "uint256",
          "name": "",
          "type": "uint256"
        }
      ],
      "stateMutability": "view",
      "type": "function"
    },
    {
      "inputs": [
        {
          "internalType": "uint256",
          "name": "eventID",
          "type": "uint256"
        }
      ],
      "name": "eventGetWinner",
      "outputs": [
        {
          "internalType": "address",
          "name": "",
          "type": "address"
        }
      ],
      "stateMutability": "view",
      "type": "function"
    },
    {
      "inputs": [
        {
          "internalType": "uint256",
          "name": "eventID",
          "type": "uint256"
        }
      ],
      "name": "eventGetPositionX",
      "outputs": [
        {
          "internalType": "string",
          "name": "",
          "type": "string"
        }
      ],
      "stateMutability": "view",
      "type": "function"
    },
    {
      "inputs": [
        {
          "internalType": "uint256",
          "name": "eventID",
          "type": "uint256"
        }
      ],
      "name": "eventGetPositionY",
      "outputs": [
        {
          "internalType": "string",
          "name": "",
          "type": "string"
        }
      ],
      "stateMutability": "view",
      "type": "function"
    }
  ],
  "bytecode": "0x608060405234801561001057600080fd5b5061002161001c610026565b61002a565b61007a565b3390565b600080546001600160a01b038381166001600160a01b0319831681178455604051919092169283917f8be0079c531659141344cd1fd0a4f28419497f9722a3daafe3b4186f6b6457e09190a35050565b611608806100896000396000f3fe608060405234801561001057600080fd5b50600436106100ea5760003560e01c80636d1884e01161008c578063d9e48f5c11610066578063d9e48f5c146101f0578063f022f355146101f8578063f2fde38b14610218578063fd7f1b541461022b576100ea565b80636d1884e0146101be578063715018a6146101de5780638da5cb5b146101e8576100ea565b806338caac65116100c857806338caac65146101585780634129b2c91461016b57806355d97b3f1461018b5780635a473e25146101ab576100ea565b80631b4a4397146100ef5780632605d9a71461011857806335d3339e14610138575b600080fd5b6101026100fd3660046110bc565b61023e565b60405161010f9190611507565b60405180910390f35b61012b610126366004611083565b61030f565b60405161010f91906113f5565b61014b61014636600461109b565b610343565b60405161010f919061138a565b610102610166366004611083565b6107de565b61017e610179366004611083565b610839565b60405161010f9190611376565b61019e610199366004611083565b610892565b60405161010f9190611409565b61017e6101b9366004611083565b610975565b6101d16101cc366004611083565b6109da565b60405161010f91906114f4565b6101e6610d31565b005b61017e610d7c565b610102610d8b565b61020b610206366004611083565b610d91565b60405161010f91906113ea565b6101e6610226366004611055565b610df0565b61019e610239366004611083565b610e61565b600280546000818152600160208181526040832093845593830189905560058301889055600683018790558201859055600b8201805461ff0019166101001790556004820180546001600160a01b0319169055835190926102a6916008840191860190610f10565b50600b8101805464ff00000000191690556002546040517fb74b81e22ed2c551cf1d61041f3314bcb4dc74e133a311f76c5de475735b0264916102e891611507565b60405180910390a1600280549060006103008361158b565b90915550979650505050505050565b600060018161031e8285611528565b81526020810191909152604001600020600b0154640100000000900460ff1692915050565b6060600254806000141561035657600080fd5b838061036157600080fd5b8461036b8161153f565b95505083806103799061153f565b9450508385111561038957600080fd5b60025485106103b35760405162461bcd60e51b81526004016103aa906114bd565b60405180910390fd5b60025484106103ce5760016002546103cb9190611528565b93505b60006103da8686611528565b6103e5906001611510565b67ffffffffffffffff81111561040b57634e487b7160e01b600052604160045260246000fd5b60405190808252806020026020018201604052801561044457816020015b610431610f94565b8152602001906001900390816104295790505b509050855b8581116107d4576000818152600160208181526040928390208351610200810185528154815292810154838301526002810154838501526003810180548551818502810185019096528086529394919360608601938301828280156104d757602002820191906000526020600020905b81546001600160a01b031681526001909101906020018083116104b9575b505050918352505060048201546001600160a01b0316602082015260058201546040820152600682015460608201526007820154608082015260088201805460a09092019161052590611556565b80601f016020809104026020016040519081016040528092919081815260200182805461055190611556565b801561059e5780601f106105735761010080835404028352916020019161059e565b820191906000526020600020905b81548152906001019060200180831161058157829003601f168201915b505050505081526020016009820180546105b790611556565b80601f01602080910402602001604051908101604052809291908181526020018280546105e390611556565b80156106305780601f1061060557610100808354040283529160200191610630565b820191906000526020600020905b81548152906001019060200180831161061357829003601f168201915b50505050508152602001600a8201805461064990611556565b80601f016020809104026020016040519081016040528092919081815260200182805461067590611556565b80156106c25780601f10610697576101008083540402835291602001916106c2565b820191906000526020600020905b8154815290600101906020018083116106a557829003601f168201915b5050509183525050600b82015460ff8082161515602084015261010082048116151560408401526201000082048116151560608401526301000000820481161515608084015260a09092019164010000000090910416600381111561073757634e487b7160e01b600052602160045260246000fd5b600381111561075657634e487b7160e01b600052602160045260246000fd5b8152505082828151811061077a57634e487b7160e01b600052603260045260246000fd5b602002602001018190525060018282815181106107a757634e487b7160e01b600052603260045260246000fd5b60200260200101516000018181516107bf9190611510565b905250806107cc8161158b565b915050610449565b5095945050505050565b600081600254808211156108045760405162461bcd60e51b81526004016103aa9061141c565b838061080f57600080fd5b6001600061081d8288611528565b8152602001908152602001600020600701549350505050919050565b6000816002548082111561085f5760405162461bcd60e51b81526004016103aa9061141c565b6001600061086d8287611528565b81526020810191909152604001600020600401546001600160a01b0316949350505050565b606081600254808211156108b85760405162461bcd60e51b81526004016103aa9061141c565b83806108c357600080fd5b600160006108d18288611528565b8152602001908152602001600020600a0180546108ed90611556565b80601f016020809104026020016040519081016040528092919081815260200182805461091990611556565b80156109665780601f1061093b57610100808354040283529160200191610966565b820191906000526020600020905b81548152906001019060200180831161094957829003601f168201915b50505050509350505050919050565b6000816002548082111561099b5760405162461bcd60e51b81526004016103aa9061141c565b83806109a657600080fd5b600160006109b48288611528565b81526020810191909152604001600020600401546001600160a01b031695945050505050565b6109e2610f94565b81806109ed57600080fd5b60006001816109fc8287611528565b81526020019081526020016000206040518061020001604052908160008201548152602001600182015481526020016002820154815260200160038201805480602002602001604051908101604052809291908181526020018280548015610a8d57602002820191906000526020600020905b81546001600160a01b03168152600190910190602001808311610a6f575b505050918352505060048201546001600160a01b0316602082015260058201546040820152600682015460608201526007820154608082015260088201805460a090920191610adb90611556565b80601f0160208091040260200160405190810160405280929190818152602001828054610b0790611556565b8015610b545780601f10610b2957610100808354040283529160200191610b54565b820191906000526020600020905b815481529060010190602001808311610b3757829003601f168201915b50505050508152602001600982018054610b6d90611556565b80601f0160208091040260200160405190810160405280929190818152602001828054610b9990611556565b8015610be65780601f10610bbb57610100808354040283529160200191610be6565b820191906000526020600020905b815481529060010190602001808311610bc957829003601f168201915b50505050508152602001600a82018054610bff90611556565b80601f0160208091040260200160405190810160405280929190818152602001828054610c2b90611556565b8015610c785780601f10610c4d57610100808354040283529160200191610c78565b820191906000526020600020905b815481529060010190602001808311610c5b57829003601f168201915b5050509183525050600b82015460ff8082161515602084015261010082048116151560408401526201000082048116151560608401526301000000820481161515608084015260a090920191640100000000909104166003811115610ced57634e487b7160e01b600052602160045260246000fd5b6003811115610d0c57634e487b7160e01b600052602160045260246000fd5b815250509050600181600001818151610d259190611510565b90525091505b50919050565b610d39610ebc565b6001600160a01b0316610d4a610d7c565b6001600160a01b031614610d705760405162461bcd60e51b81526004016103aa90611488565b610d7a6000610ec0565b565b6000546001600160a01b031690565b60025490565b60008160025480821115610db75760405162461bcd60e51b81526004016103aa9061141c565b8380610dc257600080fd5b60016000610dd08288611528565b81526020810191909152604001600020600b015460ff1695945050505050565b610df8610ebc565b6001600160a01b0316610e09610d7c565b6001600160a01b031614610e2f5760405162461bcd60e51b81526004016103aa90611488565b6001600160a01b038116610e555760405162461bcd60e51b81526004016103aa90611442565b610e5e81610ec0565b50565b60608160025480821115610e875760405162461bcd60e51b81526004016103aa9061141c565b8380610e9257600080fd5b60016000610ea08288611528565b815260200190815260200160002060090180546108ed90611556565b3390565b600080546001600160a01b038381166001600160a01b0319831681178455604051919092169283917f8be0079c531659141344cd1fd0a4f28419497f9722a3daafe3b4186f6b6457e09190a35050565b828054610f1c90611556565b90600052602060002090601f016020900481019282610f3e5760008555610f84565b82601f10610f5757805160ff1916838001178555610f84565b82800160010185558215610f84579182015b82811115610f84578251825591602001919060010190610f69565b50610f90929150611040565b5090565b6040518061020001604052806000815260200160008152602001600081526020016060815260200160006001600160a01b031681526020016000815260200160008152602001600081526020016060815260200160608152602001606081526020016000151581526020016000151581526020016000151581526020016000151581526020016000600381111561103b57634e487b7160e01b600052602160045260246000fd5b905290565b5b80821115610f905760008155600101611041565b600060208284031215611066578081fd5b81356001600160a01b038116811461107c578182fd5b9392505050565b600060208284031215611094578081fd5b5035919050565b600080604083850312156110ad578081fd5b50508035926020909101359150565b600080600080600060a086880312156110d3578081fd5b8535945060208087013594506040870135935060608701359250608087013567ffffffffffffffff80821115611107578384fd5b818901915089601f83011261111a578384fd5b81358181111561112c5761112c6115bc565b604051601f8201601f191681018501838111828210171561114f5761114f6115bc565b60405281815283820185018c1015611165578586fd5b81858501868301378585838301015280955050505050509295509295909350565b6001600160a01b03169052565b6000815180845260208085019450808401835b838110156111cb5781516001600160a01b0316875295820195908201906001016111a6565b509495945050505050565b15159052565b600481106111fa57634e487b7160e01b600052602160045260246000fd5b9052565b60008151808452815b8181101561122357602081850181015186830182015201611207565b818111156112345782602083870101525b50601f01601f19169290920160200192915050565b6000610200825184526020830151602085015260408301516040850152606083015181606086015261127d82860182611193565b91505060808301516112926080860182611186565b5060a083015160a085015260c083015160c085015260e083015160e085015261010080840151858303828701526112c983826111fe565b9250505061012080840151858303828701526112e583826111fe565b92505050610140808401518583038287015261130183826111fe565b9250505061016080840151611318828701826111d6565b50506101808084015161132d828701826111d6565b50506101a080840151611342828701826111d6565b50506101c080840151611357828701826111d6565b50506101e08084015161136c828701826111dc565b5090949350505050565b6001600160a01b0391909116815260200190565b6000602080830181845280855180835260408601915060408482028701019250838701855b828110156113dd57603f198886030184526113cb858351611249565b945092850192908501906001016113af565b5092979650505050505050565b901515815260200190565b6020810161140382846111dc565b92915050565b60006020825261107c60208301846111fe565b6020808252600c908201526b6e6f7420696e2072616e676560a01b604082015260600190565b60208082526026908201527f4f776e61626c653a206e6577206f776e657220697320746865207a65726f206160408201526564647265737360d01b606082015260800190565b6020808252818101527f4f776e61626c653a2063616c6c6572206973206e6f7420746865206f776e6572604082015260600190565b60208082526017908201527f5374617274496e646578206f7574206f662072616e6765000000000000000000604082015260600190565b60006020825261107c6020830184611249565b90815260200190565b60008219821115611523576115236115a6565b500190565b60008282101561153a5761153a6115a6565b500390565b60008161154e5761154e6115a6565b506000190190565b60028104600182168061156a57607f821691505b60208210811415610d2b57634e487b7160e01b600052602260045260246000fd5b600060001982141561159f5761159f6115a6565b5060010190565b634e487b7160e01b600052601160045260246000fd5b634e487b7160e01b600052604160045260246000fdfea2646970667358221220de8809f099092058f1e08560639a2011c3b598270763e8f52519ecf26d4bce0164736f6c63430008000033",
  "immutableReferences": {},
  "source": "// SPDX-License-Identifier: MIT\r\npragma solidity ^0.8;\r\nimport \"@openzeppelin/contracts/access/Ownable.sol\";\r\n\r\nenum stateOfCompetition {\r\n\tRegistrationOfParticipants,\r\n\tCompetitionInProgress,\r\n\tRewardDistribution,\r\n\tRewardDistributed\r\n}\r\n\r\ncontract EventHandler is Ownable {\r\n\tstruct EventDesc {\r\n\t\tuint256 eventId; // Index of the event in the EventList\r\n\t\tuint256 sportCategory; // Category\r\n\t\tuint256 organizedBy; // Id of the Organization\r\n\t\taddress[] registeredSportsMan; //List of sportsman that are participating to the event\r\n\t\taddress winner; // Winner of the Event\r\n\t\tuint256 startDate;\r\n\t\tuint256 endDate;\r\n\t\tuint256 medalID;\r\n\t\tstring eventDescription; // String describing the event\r\n\t\tstring positionX;\r\n\t\tstring positionY;\r\n\t\tbool hasMedal;\r\n\t\tbool activ;\r\n\t\tbool ended; // finished ?\r\n\t\tbool started; // The event has started\r\n\t\tstateOfCompetition eventState;\r\n\t}\r\n\r\n\t// Data ---------------------------------\r\n\r\n\t//   Events\r\n\tmapping(uint256 => EventDesc) eventList; // List of events already registered\r\n\tuint256 eventCount; // Index for events\r\n\r\n\t// Modifiers ----------------------------\r\n\tmodifier eventIsInState(uint256 eventId, stateOfCompetition _state) {\r\n\t\trequire(\r\n\t\t\teventList[eventId - 1].eventState == _state,\r\n\t\t\t\"Not possible in current state of the Event\"\r\n\t\t);\r\n\t\t_;\r\n\t}\r\n\tmodifier isNotNull(address a) virtual {\r\n\t\trequire(a != address(0));\r\n\t\t_;\r\n\t}\r\n\tmodifier isNotNullUint256(uint256 a) virtual {\r\n\t\trequire(a != 0);\r\n\t\t_;\r\n\t}\r\n\tmodifier isInRange(uint256 a, uint256 b) {\r\n\t\trequire(a <= b, \"not in range\");\r\n\t\t_;\r\n\t}\r\n\r\n\t// Events -------------------------------\r\n\tevent eventAdded(uint256 eventId);\r\n\tevent eventRemoved(uint256 eventId);\r\n\tevent eventRegisterSportsman(uint256 eventId, address sportsmanId);\r\n\tevent eventStatusChanged(uint256 eventID, stateOfCompetition newStatus);\r\n\r\n\t// Methods -------------------------------\r\n\t///@dev add an event to the list of events\r\n\t///@param _organizedBy id of the oganization\r\n\t///@param _startDate Date for the event to start\r\n\t///@param _endDate Date for the event to finish\r\n\t///@param _sportCategory Type of event\r\n\t///@param _eventDescription Desc of the evnt\r\n\tfunction addEvent(\r\n\t\tuint256 _organizedBy,\r\n\t\tuint256 _startDate,\r\n\t\tuint256 _endDate,\r\n\t\tuint256 _sportCategory,\r\n\t\tstring memory _eventDescription\r\n\t) public returns (uint256) {\r\n\t\tEventDesc storage _event = eventList[eventCount];\r\n\t\t_event.eventId = eventCount;\r\n\t\t_event.organizedBy = _organizedBy;\r\n\t\t_event.startDate = _startDate;\r\n\t\t_event.endDate = _endDate;\r\n\t\t_event.sportCategory = _sportCategory;\r\n\t\t_event.activ = true;\r\n\t\t_event.winner = address(0);\r\n\t\t_event.eventDescription = _eventDescription;\r\n\t\t_event.eventState = stateOfCompetition.RegistrationOfParticipants;\r\n\t\temit eventAdded(eventCount);\r\n\r\n\t\treturn eventCount++;\r\n\t}\r\n\r\n\t///@dev returns the current state of the event\r\n\t///@param evntID index of the event\r\n\tfunction getEventCurrentState(uint256 evntID)\r\n\t\tpublic\r\n\t\tview\r\n\t\treturns (stateOfCompetition)\r\n\t{\r\n\t\treturn eventList[evntID - 1].eventState;\r\n\t}\r\n\r\n\t///@dev remove an event from the list of events\r\n\t///@param eventId id of the event\r\n\tfunction removeEvent(uint256 eventId)\r\n\t\tprivate\r\n\t\tisNotNullUint256(eventId)\r\n\t\tonlyOwner\r\n\t{\r\n\t\teventList[eventId - 1].activ = false;\r\n\t\temit eventRemoved(eventId);\r\n\t}\r\n\r\n\t///@dev returns the details of a specific event\r\n\t///@param eventId id of the event\r\n\tfunction getEvent(uint256 eventId)\r\n\t\tpublic\r\n\t\tview\r\n\t\tisNotNullUint256(eventId)\r\n\t\treturns (EventDesc memory)\r\n\t{\r\n\t\tEventDesc memory dsc = eventList[eventId - 1];\r\n\t\tdsc.eventId += 1;\r\n\t\treturn dsc;\r\n\t}\r\n\r\n\t///@dev returns the winner of the event\r\n\t///@param eventId id of the event\r\n\tfunction getWinner(uint256 eventId)\r\n\t\tpublic\r\n\t\tview\r\n\t\tisInRange(eventId, eventCount)\r\n\t\treturns (address)\r\n\t{\r\n\t\treturn eventList[eventId - 1].winner;\r\n\t}\r\n\r\n\t///@dev defines the winner of the event\r\n\t///@param eventID id of the event\r\n\t///@param _winner address of the winner\r\n\tfunction setEventWinner(uint256 eventID, address _winner)\r\n\t\tinternal\r\n\t\tisNotNullUint256(eventID)\r\n\t\tisInRange(eventID, eventCount)\r\n\t\teventIsInState(eventID, stateOfCompetition.RewardDistribution)\r\n\t{\r\n\t\teventList[eventID - 1].winner = _winner;\r\n\t}\r\n\r\n\t///@dev Open to registration\r\n\t///@param eventId id of the event\r\n\tfunction startEvent(uint256 eventId)\r\n\t\tinternal\r\n\t\tisNotNullUint256(eventId)\r\n\t\tisInRange(eventId, eventCount)\r\n\t\teventIsInState(eventId, stateOfCompetition.RegistrationOfParticipants)\r\n\t{\r\n\t\t// start the competition\r\n\t\teventList[eventId - 1].eventState = stateOfCompetition\r\n\t\t\t.CompetitionInProgress;\r\n\t\temit eventStatusChanged(\r\n\t\t\teventId + 1,\r\n\t\t\tstateOfCompetition.CompetitionInProgress\r\n\t\t);\r\n\t}\r\n\r\n\t///@dev The event is closed\r\n\t///@param eventId id of the event\r\n\tfunction endEvent(uint256 eventId)\r\n\t\tinternal\r\n\t\tisInRange(eventId, eventCount)\r\n\t\tisNotNullUint256(eventId)\r\n\t\teventIsInState(eventId, stateOfCompetition.CompetitionInProgress)\r\n\t{\r\n\t\teventList[eventId - 1].eventState = stateOfCompetition\r\n\t\t\t.RewardDistribution;\r\n\t\temit eventStatusChanged(eventId, stateOfCompetition.RewardDistribution);\r\n\t}\r\n\r\n\t///@dev returns the list of Events\r\n\t///@param _start start index  - paging\r\n\t///@param _end ending index - paging\r\n\tfunction getEventList(uint256 _start, uint256 _end)\r\n\t\tpublic\r\n\t\tview\r\n\t\tisNotNullUint256(eventCount)\r\n\t\tisNotNullUint256(_start)\r\n\t\treturns (EventDesc[] memory)\r\n\t{\r\n\t\t_start--;\r\n\t\t_end--;\r\n\t\trequire(_start <= _end); // check params\r\n\t\trequire(_start < eventCount, \"StartIndex out of range\");\r\n\r\n\t\t// we adjust the ending value\r\n\t\tif (_end >= eventCount) _end = eventCount - 1;\r\n\r\n\t\t// creat an array for returning only usefull values\r\n\t\tEventDesc[] memory _result = new EventDesc[](_end - _start + 1);\r\n\t\t// Fill the structure\r\n\t\tuint256 x = _start;\r\n\t\twhile (x <= _end) {\r\n\t\t\t_result[x] = eventList[x];\r\n\t\t\t_result[x].eventId += 1;\r\n\t\t\tx++;\r\n\t\t}\r\n\t\treturn _result;\r\n\t}\r\n\r\n\t///@dev returns the number of Events\r\n\tfunction getEventCount() public view returns (uint256) {\r\n\t\treturn eventCount;\r\n\t}\r\n\r\n\t///@dev Add a Sportsman to an event\r\n\t///@param eventId id of the event\r\n\t///@param sportsmanID address of the sportsman\r\n\tfunction EventRegisterSportsman(\r\n\t\tuint256 eventId,\r\n\t\taddress sportsmanID // Sportsman already validated by child class\r\n\t) internal isInRange(eventId, eventCount) isNotNullUint256(eventId) {\r\n\t\teventList[eventId - 1].registeredSportsMan.push(sportsmanID);\r\n\t\temit eventRegisterSportsman(eventId, sportsmanID);\r\n\t}\r\n\r\n\t///@dev returns the id of the event organizer\r\n\t///@param eventId id of the event\r\n\tfunction getEventOrganizer(uint256 eventId)\r\n\t\tinternal\r\n\t\tview\r\n\t\tisNotNullUint256(eventId)\r\n\t\tisInRange(eventId, eventCount)\r\n\t\treturns (uint256)\r\n\t{\r\n\t\treturn eventList[eventId - 1].organizedBy;\r\n\t}\r\n\r\n\tfunction eventSetMedal(uint256 eventID, uint256 medalID)\r\n\t\tinternal\r\n\t\tisInRange(eventID, eventCount)\r\n\t\tisNotNullUint256(eventID)\r\n//\t\t// eventIsInState(eventID, stateOfCompetition.RewardDistribution)\r\n\t{\r\n\t\teventID--;\r\n\t\teventList[eventID].hasMedal = true;\r\n\t\teventList[eventID].medalID = medalID;\r\n\t}\r\n\r\n\tfunction eventDistributeMedal(uint256 eventID)\r\n\t\tinternal\r\n\t\tisInRange(eventID, eventCount)\r\n\t\tisNotNullUint256(eventID)\r\n\t\teventIsInState(eventID, stateOfCompetition.RewardDistribution)\r\n\t{\r\n\t\trequire(\r\n\t\t\teventList[eventID - 1].hasMedal == true,\r\n\t\t\t\"no medal affected to the event\"\r\n\t\t);\r\n\t\teventList[eventID - 1].eventState = stateOfCompetition\r\n\t\t\t.RewardDistributed;\r\n\t\temit eventStatusChanged(eventID, stateOfCompetition.RewardDistributed);\r\n\t}\r\n\r\n\tfunction eventHasMedal(uint256 eventID)\r\n\t\tpublic\r\n\t\tview\r\n\t\tisInRange(eventID, eventCount)\r\n\t\tisNotNullUint256(eventID)\r\n\t\treturns (bool)\r\n\t{\r\n\t\treturn eventList[eventID - 1].hasMedal;\r\n\t}\r\n\r\n\tfunction eventGetMedal(uint256 eventID)\r\n\t\tpublic\r\n\t\tview\r\n\t\tisInRange(eventID, eventCount)\r\n\t\tisNotNullUint256(eventID)\r\n\t\treturns (uint256)\r\n\t{\r\n\t\treturn eventList[eventID - 1].medalID;\r\n\t}\r\n\r\n\tfunction eventGetWinner(uint256 eventID)\r\n\t\tpublic\r\n\t\tview\r\n\t\tisInRange(eventID, eventCount)\r\n\t\tisNotNullUint256(eventID)\r\n\t\treturns (address)\r\n\t{\r\n\t\treturn eventList[eventID - 1].winner;\r\n\t}\r\n\r\n\tfunction eventSetPosition(\r\n\t\tuint256 eventID,\r\n\t\tstring memory posX,\r\n\t\tstring memory posY\r\n\t) internal isInRange(eventID, eventCount) isNotNullUint256(eventID) {\r\n\t\teventList[eventID - 1].positionX = posX;\r\n\t\teventList[eventID - 1].positionY = posY;\r\n\t}\r\n\r\n\tfunction eventGetPositionX(uint256 eventID)\r\n\t\tpublic\r\n\t\tview\r\n\t\tisInRange(eventID, eventCount)\r\n\t\tisNotNullUint256(eventID)\r\n\t\treturns (string memory)\r\n\t{\r\n\t\treturn eventList[eventID - 1].positionX;\r\n\t}\r\n\r\n\tfunction eventGetPositionY(uint256 eventID)\r\n\t\tpublic\r\n\t\tview\r\n\t\tisInRange(eventID, eventCount)\r\n\t\tisNotNullUint256(eventID)\r\n\t\treturns (string memory)\r\n\t{\r\n\t\treturn eventList[eventID - 1].positionY;\r\n\t}\r\n}\r\n",
  "sourcePath": "C:\\DEV\\ETH\\Alyra\\MedalVerse\\MedalVerse-Front\\contracts\\Dapp Internal Struct\\EventHandler.sol",
  "compiler": {
    "name": "solc",
    "version": "0.8.0+commit.c7dfd78e.Emscripten.clang"
  },
  "schemaVersion": "3.4.4",
  "updatedAt": "2022-01-06T11:11:37.476Z",
  "devdoc": {
    "kind": "dev",
    "methods": {
      "addEvent(uint256,uint256,uint256,uint256,string)": {
        "details": "add an event to the list of events",
        "params": {
          "_endDate": "Date for the event to finish",
          "_eventDescription": "Desc of the evnt",
          "_organizedBy": "id of the oganization",
          "_sportCategory": "Type of event",
          "_startDate": "Date for the event to start"
        }
      },
      "getEvent(uint256)": {
        "details": "returns the details of a specific event",
        "params": {
          "eventId": "id of the event"
        }
      },
      "getEventCount()": {
        "details": "returns the number of Events"
      },
      "getEventCurrentState(uint256)": {
        "details": "returns the current state of the event",
        "params": {
          "evntID": "index of the event"
        }
      },
      "getEventList(uint256,uint256)": {
        "details": "returns the list of Events",
        "params": {
          "_end": "ending index - paging",
          "_start": "start index  - paging"
        }
      },
      "getWinner(uint256)": {
        "details": "returns the winner of the event",
        "params": {
          "eventId": "id of the event"
        }
      },
      "owner()": {
        "details": "Returns the address of the current owner."
      },
      "renounceOwnership()": {
        "details": "Leaves the contract without owner. It will not be possible to call `onlyOwner` functions anymore. Can only be called by the current owner. NOTE: Renouncing ownership will leave the contract without an owner, thereby removing any functionality that is only available to the owner."
      },
      "transferOwnership(address)": {
        "details": "Transfers ownership of the contract to a new account (`newOwner`). Can only be called by the current owner."
      }
    },
    "version": 1
  },
  "userdoc": {
    "kind": "user",
    "methods": {},
    "version": 1
  }
}