{
  "contractName": "EventHandler",
  "abi": [
    {
      "anonymous": false,
      "inputs": [
        {
          "indexed": true,
          "internalType": "address",
          "name": "previousOwner",
          "type": "address"
        },
        {
          "indexed": true,
          "internalType": "address",
          "name": "newOwner",
          "type": "address"
        }
      ],
      "name": "OwnershipTransferred",
      "type": "event"
    },
    {
      "anonymous": false,
      "inputs": [
        {
          "indexed": false,
          "internalType": "uint256",
          "name": "eventId",
          "type": "uint256"
        }
      ],
      "name": "eventAdded",
      "type": "event"
    },
    {
      "anonymous": false,
      "inputs": [
        {
          "indexed": false,
          "internalType": "uint256",
          "name": "eventId",
          "type": "uint256"
        },
        {
          "indexed": false,
          "internalType": "address",
          "name": "sportsmanId",
          "type": "address"
        }
      ],
      "name": "eventRegisterSportsman",
      "type": "event"
    },
    {
      "anonymous": false,
      "inputs": [
        {
          "indexed": false,
          "internalType": "uint256",
          "name": "eventId",
          "type": "uint256"
        }
      ],
      "name": "eventRemoved",
      "type": "event"
    },
    {
      "anonymous": false,
      "inputs": [
        {
          "indexed": false,
          "internalType": "uint256",
          "name": "eventID",
          "type": "uint256"
        },
        {
          "indexed": false,
          "internalType": "enum stateOfCompetition",
          "name": "newStatus",
          "type": "uint8"
        }
      ],
      "name": "eventStatusChanged",
      "type": "event"
    },
    {
      "anonymous": false,
      "inputs": [
        {
          "indexed": false,
          "internalType": "uint256",
          "name": "eventId",
          "type": "uint256"
        },
        {
          "indexed": false,
          "internalType": "address",
          "name": "winner",
          "type": "address"
        }
      ],
      "name": "eventWinnerSet",
      "type": "event"
    },
    {
      "inputs": [],
      "name": "owner",
      "outputs": [
        {
          "internalType": "address",
          "name": "",
          "type": "address"
        }
      ],
      "stateMutability": "view",
      "type": "function"
    },
    {
      "inputs": [],
      "name": "renounceOwnership",
      "outputs": [],
      "stateMutability": "nonpayable",
      "type": "function"
    },
    {
      "inputs": [
        {
          "internalType": "address",
          "name": "newOwner",
          "type": "address"
        }
      ],
      "name": "transferOwnership",
      "outputs": [],
      "stateMutability": "nonpayable",
      "type": "function"
    },
    {
      "inputs": [
        {
          "internalType": "uint256",
          "name": "_organizedBy",
          "type": "uint256"
        },
        {
          "internalType": "uint256",
          "name": "_startDate",
          "type": "uint256"
        },
        {
          "internalType": "uint256",
          "name": "_endDate",
          "type": "uint256"
        },
        {
          "internalType": "uint256",
          "name": "_sportCategory",
          "type": "uint256"
        },
        {
          "internalType": "string",
          "name": "_eventDescription",
          "type": "string"
        }
      ],
      "name": "addEvent",
      "outputs": [
        {
          "internalType": "uint256",
          "name": "",
          "type": "uint256"
        }
      ],
      "stateMutability": "nonpayable",
      "type": "function"
    },
    {
      "inputs": [
        {
          "internalType": "uint256",
          "name": "evntID",
          "type": "uint256"
        }
      ],
      "name": "getEventCurrentState",
      "outputs": [
        {
          "internalType": "enum stateOfCompetition",
          "name": "",
          "type": "uint8"
        }
      ],
      "stateMutability": "view",
      "type": "function"
    },
    {
      "inputs": [
        {
          "internalType": "uint256",
          "name": "eventId",
          "type": "uint256"
        }
      ],
      "name": "getEvent",
      "outputs": [
        {
          "components": [
            {
              "internalType": "uint256",
              "name": "eventId",
              "type": "uint256"
            },
            {
              "internalType": "uint256",
              "name": "sportCategory",
              "type": "uint256"
            },
            {
              "internalType": "uint256",
              "name": "organizedBy",
              "type": "uint256"
            },
            {
              "internalType": "address[]",
              "name": "registeredSportsMan",
              "type": "address[]"
            },
            {
              "internalType": "address",
              "name": "winner",
              "type": "address"
            },
            {
              "internalType": "uint256",
              "name": "startDate",
              "type": "uint256"
            },
            {
              "internalType": "uint256",
              "name": "endDate",
              "type": "uint256"
            },
            {
              "internalType": "uint256",
              "name": "medalID",
              "type": "uint256"
            },
            {
              "internalType": "string",
              "name": "eventDescription",
              "type": "string"
            },
            {
              "internalType": "string",
              "name": "positionX",
              "type": "string"
            },
            {
              "internalType": "string",
              "name": "positionY",
              "type": "string"
            },
            {
              "internalType": "bool",
              "name": "hasMedal",
              "type": "bool"
            },
            {
              "internalType": "bool",
              "name": "activ",
              "type": "bool"
            },
            {
              "internalType": "bool",
              "name": "ended",
              "type": "bool"
            },
            {
              "internalType": "bool",
              "name": "started",
              "type": "bool"
            },
            {
              "internalType": "enum stateOfCompetition",
              "name": "eventState",
              "type": "uint8"
            }
          ],
          "internalType": "struct EventHandler.EventDesc",
          "name": "",
          "type": "tuple"
        }
      ],
      "stateMutability": "view",
      "type": "function"
    },
    {
      "inputs": [
        {
          "internalType": "uint256",
          "name": "eventId",
          "type": "uint256"
        }
      ],
      "name": "getWinner",
      "outputs": [
        {
          "internalType": "address",
          "name": "",
          "type": "address"
        }
      ],
      "stateMutability": "view",
      "type": "function"
    },
    {
      "inputs": [
        {
          "internalType": "uint256",
          "name": "_start",
          "type": "uint256"
        },
        {
          "internalType": "uint256",
          "name": "_end",
          "type": "uint256"
        }
      ],
      "name": "getEventList",
      "outputs": [
        {
          "components": [
            {
              "internalType": "uint256",
              "name": "eventId",
              "type": "uint256"
            },
            {
              "internalType": "uint256",
              "name": "sportCategory",
              "type": "uint256"
            },
            {
              "internalType": "uint256",
              "name": "organizedBy",
              "type": "uint256"
            },
            {
              "internalType": "address[]",
              "name": "registeredSportsMan",
              "type": "address[]"
            },
            {
              "internalType": "address",
              "name": "winner",
              "type": "address"
            },
            {
              "internalType": "uint256",
              "name": "startDate",
              "type": "uint256"
            },
            {
              "internalType": "uint256",
              "name": "endDate",
              "type": "uint256"
            },
            {
              "internalType": "uint256",
              "name": "medalID",
              "type": "uint256"
            },
            {
              "internalType": "string",
              "name": "eventDescription",
              "type": "string"
            },
            {
              "internalType": "string",
              "name": "positionX",
              "type": "string"
            },
            {
              "internalType": "string",
              "name": "positionY",
              "type": "string"
            },
            {
              "internalType": "bool",
              "name": "hasMedal",
              "type": "bool"
            },
            {
              "internalType": "bool",
              "name": "activ",
              "type": "bool"
            },
            {
              "internalType": "bool",
              "name": "ended",
              "type": "bool"
            },
            {
              "internalType": "bool",
              "name": "started",
              "type": "bool"
            },
            {
              "internalType": "enum stateOfCompetition",
              "name": "eventState",
              "type": "uint8"
            }
          ],
          "internalType": "struct EventHandler.EventDesc[]",
          "name": "",
          "type": "tuple[]"
        }
      ],
      "stateMutability": "view",
      "type": "function"
    },
    {
      "inputs": [],
      "name": "getEventCount",
      "outputs": [
        {
          "internalType": "uint256",
          "name": "",
          "type": "uint256"
        }
      ],
      "stateMutability": "view",
      "type": "function"
    },
    {
      "inputs": [
        {
          "internalType": "uint256",
          "name": "eventID",
          "type": "uint256"
        }
      ],
      "name": "eventHasMedal",
      "outputs": [
        {
          "internalType": "bool",
          "name": "",
          "type": "bool"
        }
      ],
      "stateMutability": "view",
      "type": "function"
    },
    {
      "inputs": [
        {
          "internalType": "uint256",
          "name": "eventID",
          "type": "uint256"
        }
      ],
      "name": "eventGetMedal",
      "outputs": [
        {
          "internalType": "uint256",
          "name": "",
          "type": "uint256"
        }
      ],
      "stateMutability": "view",
      "type": "function"
    },
    {
      "inputs": [
        {
          "internalType": "uint256",
          "name": "eventID",
          "type": "uint256"
        }
      ],
      "name": "eventGetWinner",
      "outputs": [
        {
          "internalType": "address",
          "name": "",
          "type": "address"
        }
      ],
      "stateMutability": "view",
      "type": "function"
    },
    {
      "inputs": [
        {
          "internalType": "uint256",
          "name": "eventID",
          "type": "uint256"
        }
      ],
      "name": "eventGetPositionX",
      "outputs": [
        {
          "internalType": "string",
          "name": "",
          "type": "string"
        }
      ],
      "stateMutability": "view",
      "type": "function"
    },
    {
      "inputs": [
        {
          "internalType": "uint256",
          "name": "eventID",
          "type": "uint256"
        }
      ],
      "name": "eventGetPositionY",
      "outputs": [
        {
          "internalType": "string",
          "name": "",
          "type": "string"
        }
      ],
      "stateMutability": "view",
      "type": "function"
    }
  ],
  "bytecode": "0x608060405234801561001057600080fd5b5061002161001c610026565b61002a565b61007a565b3390565b600080546001600160a01b038381166001600160a01b0319831681178455604051919092169283917f8be0079c531659141344cd1fd0a4f28419497f9722a3daafe3b4186f6b6457e09190a35050565b6115cc806100896000396000f3fe608060405234801561001057600080fd5b50600436106100ba5760003560e01c80631b4a4397146100bf5780632605d9a7146100e857806335d3339e1461010857806338caac65146101285780634129b2c91461013b57806355d97b3f1461015b5780635a473e251461017b5780636d1884e01461018e578063715018a6146101ae5780638da5cb5b146101b8578063d9e48f5c146101c0578063f022f355146101c8578063f2fde38b146101e8578063fd7f1b54146101fb575b600080fd5b6100d26100cd366004611087565b61020e565b6040516100df91906114cb565b60405180910390f35b6100fb6100f636600461104e565b6102de565b6040516100df91906113bf565b61011b610116366004611066565b610311565b6040516100df9190611354565b6100d261013636600461104e565b6107aa565b61014e61014936600461104e565b610805565b6040516100df9190611340565b61016e61016936600461104e565b61085e565b6040516100df91906113d3565b61014e61018936600461104e565b610941565b6101a161019c36600461104e565b6109a6565b6040516100df91906114b8565b6101b6610cfc565b005b61014e610d47565b6100d2610d56565b6101db6101d636600461104e565b610d5c565b6040516100df91906113b4565b6101b66101f6366004611020565b610dbb565b61016e61020936600461104e565b610e2c565b600280546000818152600160208181526040832093845593830189905560058301889055600683018790558201859055600b8201805461ff0019166101001790556004820180546001600160a01b031916905583519092610276916008840191860190610edb565b50600b8101805460ff60201b191690556002546040517fb74b81e22ed2c551cf1d61041f3314bcb4dc74e133a311f76c5de475735b0264916102b7916114cb565b60405180910390a1600280549060006102cf8361154f565b90915550979650505050505050565b60006001816102ed82856114ec565b81526020810191909152604001600020600b0154600160201b900460ff1692915050565b6060600254806000141561032457600080fd5b838061032f57600080fd5b8461033981611503565b955050838061034790611503565b9450508385111561035757600080fd5b60025485106103815760405162461bcd60e51b815260040161037890611487565b60405180910390fd5b600254841061039c57600160025461039991906114ec565b93505b60006103a886866114ec565b6103b39060016114d4565b6001600160401b038111156103d857634e487b7160e01b600052604160045260246000fd5b60405190808252806020026020018201604052801561041157816020015b6103fe610f5f565b8152602001906001900390816103f65790505b509050855b8581116107a0576000818152600160208181526040928390208351610200810185528154815292810154838301526002810154838501526003810180548551818502810185019096528086529394919360608601938301828280156104a457602002820191906000526020600020905b81546001600160a01b03168152600190910190602001808311610486575b505050918352505060048201546001600160a01b0316602082015260058201546040820152600682015460608201526007820154608082015260088201805460a0909201916104f29061151a565b80601f016020809104026020016040519081016040528092919081815260200182805461051e9061151a565b801561056b5780601f106105405761010080835404028352916020019161056b565b820191906000526020600020905b81548152906001019060200180831161054e57829003601f168201915b505050505081526020016009820180546105849061151a565b80601f01602080910402602001604051908101604052809291908181526020018280546105b09061151a565b80156105fd5780601f106105d2576101008083540402835291602001916105fd565b820191906000526020600020905b8154815290600101906020018083116105e057829003601f168201915b50505050508152602001600a820180546106169061151a565b80601f01602080910402602001604051908101604052809291908181526020018280546106429061151a565b801561068f5780601f106106645761010080835404028352916020019161068f565b820191906000526020600020905b81548152906001019060200180831161067257829003601f168201915b5050509183525050600b82015460ff8082161515602084015261010082048116151560408401526201000082048116151560608401526301000000820481161515608084015260a090920191600160201b90910416600381111561070357634e487b7160e01b600052602160045260246000fd5b600381111561072257634e487b7160e01b600052602160045260246000fd5b8152505082828151811061074657634e487b7160e01b600052603260045260246000fd5b6020026020010181905250600182828151811061077357634e487b7160e01b600052603260045260246000fd5b602002602001015160000181815161078b91906114d4565b905250806107988161154f565b915050610416565b5095945050505050565b600081600254808211156107d05760405162461bcd60e51b8152600401610378906113e6565b83806107db57600080fd5b600160006107e982886114ec565b8152602001908152602001600020600701549350505050919050565b6000816002548082111561082b5760405162461bcd60e51b8152600401610378906113e6565b6001600061083982876114ec565b81526020810191909152604001600020600401546001600160a01b0316949350505050565b606081600254808211156108845760405162461bcd60e51b8152600401610378906113e6565b838061088f57600080fd5b6001600061089d82886114ec565b8152602001908152602001600020600a0180546108b99061151a565b80601f01602080910402602001604051908101604052809291908181526020018280546108e59061151a565b80156109325780601f1061090757610100808354040283529160200191610932565b820191906000526020600020905b81548152906001019060200180831161091557829003601f168201915b50505050509350505050919050565b600081600254808211156109675760405162461bcd60e51b8152600401610378906113e6565b838061097257600080fd5b6001600061098082886114ec565b81526020810191909152604001600020600401546001600160a01b031695945050505050565b6109ae610f5f565b81806109b957600080fd5b60006001816109c882876114ec565b81526020019081526020016000206040518061020001604052908160008201548152602001600182015481526020016002820154815260200160038201805480602002602001604051908101604052809291908181526020018280548015610a5957602002820191906000526020600020905b81546001600160a01b03168152600190910190602001808311610a3b575b505050918352505060048201546001600160a01b0316602082015260058201546040820152600682015460608201526007820154608082015260088201805460a090920191610aa79061151a565b80601f0160208091040260200160405190810160405280929190818152602001828054610ad39061151a565b8015610b205780601f10610af557610100808354040283529160200191610b20565b820191906000526020600020905b815481529060010190602001808311610b0357829003601f168201915b50505050508152602001600982018054610b399061151a565b80601f0160208091040260200160405190810160405280929190818152602001828054610b659061151a565b8015610bb25780601f10610b8757610100808354040283529160200191610bb2565b820191906000526020600020905b815481529060010190602001808311610b9557829003601f168201915b50505050508152602001600a82018054610bcb9061151a565b80601f0160208091040260200160405190810160405280929190818152602001828054610bf79061151a565b8015610c445780601f10610c1957610100808354040283529160200191610c44565b820191906000526020600020905b815481529060010190602001808311610c2757829003601f168201915b5050509183525050600b82015460ff8082161515602084015261010082048116151560408401526201000082048116151560608401526301000000820481161515608084015260a090920191600160201b909104166003811115610cb857634e487b7160e01b600052602160045260246000fd5b6003811115610cd757634e487b7160e01b600052602160045260246000fd5b815250509050600181600001818151610cf091906114d4565b90525091505b50919050565b610d04610e87565b6001600160a01b0316610d15610d47565b6001600160a01b031614610d3b5760405162461bcd60e51b815260040161037890611452565b610d456000610e8b565b565b6000546001600160a01b031690565b60025490565b60008160025480821115610d825760405162461bcd60e51b8152600401610378906113e6565b8380610d8d57600080fd5b60016000610d9b82886114ec565b81526020810191909152604001600020600b015460ff1695945050505050565b610dc3610e87565b6001600160a01b0316610dd4610d47565b6001600160a01b031614610dfa5760405162461bcd60e51b815260040161037890611452565b6001600160a01b038116610e205760405162461bcd60e51b81526004016103789061140c565b610e2981610e8b565b50565b60608160025480821115610e525760405162461bcd60e51b8152600401610378906113e6565b8380610e5d57600080fd5b60016000610e6b82886114ec565b815260200190815260200160002060090180546108b99061151a565b3390565b600080546001600160a01b038381166001600160a01b0319831681178455604051919092169283917f8be0079c531659141344cd1fd0a4f28419497f9722a3daafe3b4186f6b6457e09190a35050565b828054610ee79061151a565b90600052602060002090601f016020900481019282610f095760008555610f4f565b82601f10610f2257805160ff1916838001178555610f4f565b82800160010185558215610f4f579182015b82811115610f4f578251825591602001919060010190610f34565b50610f5b92915061100b565b5090565b6040518061020001604052806000815260200160008152602001600081526020016060815260200160006001600160a01b031681526020016000815260200160008152602001600081526020016060815260200160608152602001606081526020016000151581526020016000151581526020016000151581526020016000151581526020016000600381111561100657634e487b7160e01b600052602160045260246000fd5b905290565b5b80821115610f5b576000815560010161100c565b600060208284031215611031578081fd5b81356001600160a01b0381168114611047578182fd5b9392505050565b60006020828403121561105f578081fd5b5035919050565b60008060408385031215611078578081fd5b50508035926020909101359150565b600080600080600060a0868803121561109e578081fd5b853594506020808701359450604087013593506060870135925060808701356001600160401b03808211156110d1578384fd5b818901915089601f8301126110e4578384fd5b8135818111156110f6576110f6611580565b604051601f8201601f191681018501838111828210171561111957611119611580565b60405281815283820185018c101561112f578586fd5b81858501868301378585838301015280955050505050509295509295909350565b6001600160a01b03169052565b6000815180845260208085019450808401835b838110156111955781516001600160a01b031687529582019590820190600101611170565b509495945050505050565b15159052565b600481106111c457634e487b7160e01b600052602160045260246000fd5b9052565b60008151808452815b818110156111ed576020818501810151868301820152016111d1565b818111156111fe5782602083870101525b50601f01601f19169290920160200192915050565b600061020082518452602083015160208501526040830151604085015260608301518160608601526112478286018261115d565b915050608083015161125c6080860182611150565b5060a083015160a085015260c083015160c085015260e083015160e0850152610100808401518583038287015261129383826111c8565b9250505061012080840151858303828701526112af83826111c8565b9250505061014080840151858303828701526112cb83826111c8565b92505050610160808401516112e2828701826111a0565b5050610180808401516112f7828701826111a0565b50506101a08084015161130c828701826111a0565b50506101c080840151611321828701826111a0565b50506101e080840151611336828701826111a6565b5090949350505050565b6001600160a01b0391909116815260200190565b6000602080830181845280855180835260408601915060408482028701019250838701855b828110156113a757603f19888603018452611395858351611213565b94509285019290850190600101611379565b5092979650505050505050565b901515815260200190565b602081016113cd82846111a6565b92915050565b60006020825261104760208301846111c8565b6020808252600c908201526b6e6f7420696e2072616e676560a01b604082015260600190565b60208082526026908201527f4f776e61626c653a206e6577206f776e657220697320746865207a65726f206160408201526564647265737360d01b606082015260800190565b6020808252818101527f4f776e61626c653a2063616c6c6572206973206e6f7420746865206f776e6572604082015260600190565b6020808252601790820152765374617274496e646578206f7574206f662072616e676560481b604082015260600190565b6000602082526110476020830184611213565b90815260200190565b600082198211156114e7576114e761156a565b500190565b6000828210156114fe576114fe61156a565b500390565b6000816115125761151261156a565b506000190190565b60028104600182168061152e57607f821691505b60208210811415610cf657634e487b7160e01b600052602260045260246000fd5b60006000198214156115635761156361156a565b5060010190565b634e487b7160e01b600052601160045260246000fd5b634e487b7160e01b600052604160045260246000fdfea26469706673582212208dfa8add956089b4b066d2f1d5f66e4c14120993aa6e98a10ca498db1973ce5d64736f6c63430008000033",
  "immutableReferences": {},
  "source": "// SPDX-License-Identifier: MIT\r\npragma solidity ^0.8;\r\nimport \"@openzeppelin/contracts/access/Ownable.sol\";\r\n\r\nenum stateOfCompetition {\r\n\tRegistrationOfParticipants,\r\n\tCompetitionInProgress,\r\n\tRewardDistribution,\r\n\tRewardDistributed\r\n}\r\n\r\ncontract EventHandler is Ownable {\r\n\tstruct EventDesc {\r\n\t\tuint256 eventId; // Index of the event in the EventList\r\n\t\tuint256 sportCategory; // Category\r\n\t\tuint256 organizedBy; // Id of the Organization\r\n\t\taddress[] registeredSportsMan; //List of sportsman that are participating to the event\r\n\t\taddress winner; // Winner of the Event\r\n\t\tuint256 startDate;\r\n\t\tuint256 endDate;\r\n\t\tuint256 medalID;\r\n\t\tstring eventDescription; // String describing the event\r\n\t\tstring positionX;\r\n\t\tstring positionY;\r\n\t\tbool hasMedal;\r\n\t\tbool activ;\r\n\t\tbool ended; // finished ?\r\n\t\tbool started; // The event has started\r\n\t\tstateOfCompetition eventState;\r\n\t}\r\n\r\n\t// Data ---------------------------------\r\n\r\n\t//   Events\r\n\tmapping(uint256 => EventDesc) eventList; // List of events already registered\r\n\tuint256 eventCount; // Index for events\r\n\r\n\t// Modifiers ----------------------------\r\n\tmodifier eventIsInState(uint256 eventId, stateOfCompetition _state) {\r\n\t\trequire(\r\n\t\t\teventList[eventId - 1].eventState == _state,\r\n\t\t\t\"Not possible in current state of the Event\"\r\n\t\t);\r\n\t\t_;\r\n\t}\r\n\tmodifier isNotNull(address a) virtual {\r\n\t\trequire(a != address(0));\r\n\t\t_;\r\n\t}\r\n\tmodifier isNotNullUint256(uint256 a) virtual {\r\n\t\trequire(a != 0);\r\n\t\t_;\r\n\t}\r\n\tmodifier isInRange(uint256 a, uint256 b) {\r\n\t\trequire(a <= b, \"not in range\");\r\n\t\t_;\r\n\t}\r\n\r\n\t// Events -------------------------------\r\n\tevent eventAdded(uint256 eventId);\r\n\tevent eventRemoved(uint256 eventId);\r\n\tevent eventRegisterSportsman(uint256 eventId, address sportsmanId);\r\n\tevent eventStatusChanged(uint256 eventID, stateOfCompetition newStatus);\r\n\tevent eventWinnerSet(uint256 eventId, address winner);\r\n\r\n\t// Methods -------------------------------\r\n\t///@dev add an event to the list of events\r\n\t///@param _organizedBy id of the oganization\r\n\t///@param _startDate Date for the event to start\r\n\t///@param _endDate Date for the event to finish\r\n\t///@param _sportCategory Type of event\r\n\t///@param _eventDescription Desc of the evnt\r\n\tfunction addEvent(\r\n\t\tuint256 _organizedBy,\r\n\t\tuint256 _startDate,\r\n\t\tuint256 _endDate,\r\n\t\tuint256 _sportCategory,\r\n\t\tstring memory _eventDescription\r\n\t) public returns (uint256) {\r\n\t\tEventDesc storage _event = eventList[eventCount];\r\n\t\t_event.eventId = eventCount;\r\n\t\t_event.organizedBy = _organizedBy;\r\n\t\t_event.startDate = _startDate;\r\n\t\t_event.endDate = _endDate;\r\n\t\t_event.sportCategory = _sportCategory;\r\n\t\t_event.activ = true;\r\n\t\t_event.winner = address(0);\r\n\t\t_event.eventDescription = _eventDescription;\r\n\t\t_event.eventState = stateOfCompetition.RegistrationOfParticipants;\r\n\t\temit eventAdded(eventCount);\r\n\r\n\t\treturn eventCount++;\r\n\t}\r\n\r\n\t///@dev returns the current state of the event\r\n\t///@param evntID index of the event\r\n\tfunction getEventCurrentState(uint256 evntID)\r\n\t\tpublic\r\n\t\tview\r\n\t\treturns (stateOfCompetition)\r\n\t{\r\n\t\treturn eventList[evntID - 1].eventState;\r\n\t}\r\n\r\n\t///@dev remove an event from the list of events\r\n\t///@param eventId id of the event\r\n\tfunction removeEvent(uint256 eventId)\r\n\t\tprivate\r\n\t\tisNotNullUint256(eventId)\r\n\t\tonlyOwner\r\n\t{\r\n\t\teventList[eventId - 1].activ = false;\r\n\t\temit eventRemoved(eventId);\r\n\t}\r\n\r\n\t///@dev returns the details of a specific event\r\n\t///@param eventId id of the event\r\n\tfunction getEvent(uint256 eventId)\r\n\t\tpublic\r\n\t\tview\r\n\t\tisNotNullUint256(eventId)\r\n\t\treturns (EventDesc memory)\r\n\t{\r\n\t\tEventDesc memory dsc = eventList[eventId - 1];\r\n\t\tdsc.eventId += 1;\r\n\t\treturn dsc;\r\n\t}\r\n\r\n\t///@dev returns the winner of the event\r\n\t///@param eventId id of the event\r\n\tfunction getWinner(uint256 eventId)\r\n\t\tpublic\r\n\t\tview\r\n\t\tisInRange(eventId, eventCount)\r\n\t\treturns (address)\r\n\t{\r\n\t\treturn eventList[eventId - 1].winner;\r\n\t}\r\n\r\n\t///@dev defines the winner of the event\r\n\t///@param eventID id of the event\r\n\t///@param _winner address of the winner\r\n\tfunction setEventWinner(uint256 eventID, address _winner)\r\n\t\tinternal\r\n\t\tisNotNullUint256(eventID)\r\n\t\tisInRange(eventID, eventCount)\r\n\t\teventIsInState(eventID, stateOfCompetition.RewardDistribution)\r\n\t{\r\n\t\teventList[eventID - 1].winner = _winner;\r\n\t\temit eventWinnerSet(eventID, _winner);\r\n\t}\r\n\r\n\t///@dev Open to registration\r\n\t///@param eventId id of the event\r\n\tfunction startEvent(uint256 eventId)\r\n\t\tinternal\r\n\t\tisNotNullUint256(eventId)\r\n\t\tisInRange(eventId, eventCount)\r\n\t\teventIsInState(eventId, stateOfCompetition.RegistrationOfParticipants)\r\n\t{\r\n\t\t// start the competition\r\n\t\teventList[eventId - 1].eventState = stateOfCompetition\r\n\t\t\t.CompetitionInProgress;\r\n\t\teventList[eventId - 1].started = true;\r\n\t\temit eventStatusChanged(\r\n\t\t\teventId + 1,\r\n\t\t\tstateOfCompetition.CompetitionInProgress\r\n\t\t);\r\n\t}\r\n\r\n\t///@dev The event is closed\r\n\t///@param eventId id of the event\r\n\tfunction endEvent(uint256 eventId)\r\n\t\tinternal\r\n\t\tisInRange(eventId, eventCount)\r\n\t\tisNotNullUint256(eventId)\r\n\t\teventIsInState(eventId, stateOfCompetition.CompetitionInProgress)\r\n\t{\r\n\t\teventList[eventId - 1].eventState = stateOfCompetition\r\n\t\t\t.RewardDistribution;\r\n\t\teventList[eventId - 1].ended = true;\r\n\t\temit eventStatusChanged(eventId, stateOfCompetition.RewardDistribution);\r\n\t}\r\n\r\n\t///@dev returns the list of Events\r\n\t///@param _start start index  - paging\r\n\t///@param _end ending index - paging\r\n\tfunction getEventList(uint256 _start, uint256 _end)\r\n\t\tpublic\r\n\t\tview\r\n\t\tisNotNullUint256(eventCount)\r\n\t\tisNotNullUint256(_start)\r\n\t\treturns (EventDesc[] memory)\r\n\t{\r\n\t\t_start--;\r\n\t\t_end--;\r\n\t\trequire(_start <= _end); // check params\r\n\t\trequire(_start < eventCount, \"StartIndex out of range\");\r\n\r\n\t\t// we adjust the ending value\r\n\t\tif (_end >= eventCount) _end = eventCount - 1;\r\n\r\n\t\t// creat an array for returning only usefull values\r\n\t\tEventDesc[] memory _result = new EventDesc[](_end - _start + 1);\r\n\t\t// Fill the structure\r\n\t\tuint256 x = _start;\r\n\t\twhile (x <= _end) {\r\n\t\t\t_result[x] = eventList[x];\r\n\t\t\t_result[x].eventId += 1;\r\n\t\t\tx++;\r\n\t\t}\r\n\t\treturn _result;\r\n\t}\r\n\r\n\t///@dev returns the number of Events\r\n\tfunction getEventCount() public view returns (uint256) {\r\n\t\treturn eventCount;\r\n\t}\r\n\r\n\t///@dev Add a Sportsman to an event\r\n\t///@param eventId id of the event\r\n\t///@param sportsmanID address of the sportsman\r\n\tfunction EventRegisterSportsman(\r\n\t\tuint256 eventId,\r\n\t\taddress sportsmanID // Sportsman already validated by child class\r\n\t) internal isInRange(eventId, eventCount) isNotNullUint256(eventId) {\r\n\t\teventList[eventId - 1].registeredSportsMan.push(sportsmanID);\r\n\t\temit eventRegisterSportsman(eventId, sportsmanID);\r\n\t}\r\n\r\n\t///@dev returns the id of the event organizer\r\n\t///@param eventId id of the event\r\n\tfunction getEventOrganizer(uint256 eventId)\r\n\t\tinternal\r\n\t\tview\r\n\t\tisNotNullUint256(eventId)\r\n\t\tisInRange(eventId, eventCount)\r\n\t\treturns (uint256)\r\n\t{\r\n\t\treturn eventList[eventId - 1].organizedBy;\r\n\t}\r\n\r\n\tfunction eventSetMedal(uint256 eventID, uint256 medalID)\r\n\t\tinternal\r\n\t\tisInRange(eventID, eventCount)\r\n\t\tisNotNullUint256(eventID)\r\n\t//\t\t// eventIsInState(eventID, stateOfCompetition.RewardDistribution)\r\n\t{\r\n\t\teventID--;\r\n\t\teventList[eventID].hasMedal = true;\r\n\t\teventList[eventID].medalID = medalID;\r\n\t}\r\n\r\n\t///@dev Affect the medal of the event to the winner\r\n\t///@param eventID id of the event\r\n\tfunction eventDistributeMedal(uint256 eventID)\r\n\t\tinternal\r\n\t\tisInRange(eventID, eventCount)\r\n\t\tisNotNullUint256(eventID)\r\n\t\teventIsInState(eventID, stateOfCompetition.RewardDistribution)\r\n\t{\r\n\t\trequire(\r\n\t\t\teventList[eventID - 1].hasMedal == true,\r\n\t\t\t\"no medal affected to the event\"\r\n\t\t);\r\n\t\teventList[eventID - 1].eventState = stateOfCompetition\r\n\t\t\t.RewardDistributed;\r\n\t\temit eventStatusChanged(eventID, stateOfCompetition.RewardDistributed);\r\n\t}\r\n\r\n\t///@dev checks if event has a medal\r\n\t///@param eventID id of the event\r\n\tfunction eventHasMedal(uint256 eventID)\r\n\t\tpublic\r\n\t\tview\r\n\t\tisInRange(eventID, eventCount)\r\n\t\tisNotNullUint256(eventID)\r\n\t\treturns (bool)\r\n\t{\r\n\t\treturn eventList[eventID - 1].hasMedal;\r\n\t}\r\n\r\n\t///@dev returns the id of the medal associated to the event\r\n\t///@param eventID id of the event\r\n\tfunction eventGetMedal(uint256 eventID)\r\n\t\tpublic\r\n\t\tview\r\n\t\tisInRange(eventID, eventCount)\r\n\t\tisNotNullUint256(eventID)\r\n\t\treturns (uint256)\r\n\t{\r\n\t\treturn eventList[eventID - 1].medalID;\r\n\t}\r\n\r\n\t///@dev returns the id of the winner associated to the event\r\n\t///@param eventID id of the event\r\n\tfunction eventGetWinner(uint256 eventID)\r\n\t\tpublic\r\n\t\tview\r\n\t\tisInRange(eventID, eventCount)\r\n\t\tisNotNullUint256(eventID)\r\n\t\treturns (address)\r\n\t{\r\n\t\treturn eventList[eventID - 1].winner;\r\n\t}\r\n\r\n\t///@dev Affects coordinates to en event\r\n\t///@param eventID id of the event\r\n\t///@param posX X position\r\n\t///@param posY Y Position\r\n\tfunction eventSetPosition(\r\n\t\tuint256 eventID,\r\n\t\tstring memory posX,\r\n\t\tstring memory posY\r\n\t) internal isInRange(eventID, eventCount) isNotNullUint256(eventID) {\r\n\t\teventList[eventID - 1].positionX = posX;\r\n\t\teventList[eventID - 1].positionY = posY;\r\n\t}\r\n\r\n\t///@dev returns X coordinate of an event\r\n\t///@param eventID id of the event\r\n\tfunction eventGetPositionX(uint256 eventID)\r\n\t\tpublic\r\n\t\tview\r\n\t\tisInRange(eventID, eventCount)\r\n\t\tisNotNullUint256(eventID)\r\n\t\treturns (string memory)\r\n\t{\r\n\t\treturn eventList[eventID - 1].positionX;\r\n\t}\r\n\r\n\t///@dev returns Y coordinate of an event\r\n\t///@param eventID id of the event\r\n\tfunction eventGetPositionY(uint256 eventID)\r\n\t\tpublic\r\n\t\tview\r\n\t\tisInRange(eventID, eventCount)\r\n\t\tisNotNullUint256(eventID)\r\n\t\treturns (string memory)\r\n\t{\r\n\t\treturn eventList[eventID - 1].positionY;\r\n\t}\r\n}\r\n",
  "sourcePath": "C:\\DEV\\ETH\\Alyra\\MedalVerse\\MedalVerse-Front\\contracts\\Dapp Internal Struct\\EventHandler.sol",
  "compiler": {
    "name": "solc",
    "version": "0.8.0+commit.c7dfd78e.Emscripten.clang"
  },
  "schemaVersion": "3.4.4",
  "updatedAt": "2022-01-12T09:39:25.152Z",
  "devdoc": {
    "kind": "dev",
    "methods": {
      "addEvent(uint256,uint256,uint256,uint256,string)": {
        "details": "add an event to the list of events",
        "params": {
          "_endDate": "Date for the event to finish",
          "_eventDescription": "Desc of the evnt",
          "_organizedBy": "id of the oganization",
          "_sportCategory": "Type of event",
          "_startDate": "Date for the event to start"
        }
      },
      "eventGetMedal(uint256)": {
        "details": "returns the id of the medal associated to the event",
        "params": {
          "eventID": "id of the event"
        }
      },
      "eventGetPositionX(uint256)": {
        "details": "returns X coordinate of an event",
        "params": {
          "eventID": "id of the event"
        }
      },
      "eventGetPositionY(uint256)": {
        "details": "returns Y coordinate of an event",
        "params": {
          "eventID": "id of the event"
        }
      },
      "eventGetWinner(uint256)": {
        "details": "returns the id of the winner associated to the event",
        "params": {
          "eventID": "id of the event"
        }
      },
      "eventHasMedal(uint256)": {
        "details": "checks if event has a medal",
        "params": {
          "eventID": "id of the event"
        }
      },
      "getEvent(uint256)": {
        "details": "returns the details of a specific event",
        "params": {
          "eventId": "id of the event"
        }
      },
      "getEventCount()": {
        "details": "returns the number of Events"
      },
      "getEventCurrentState(uint256)": {
        "details": "returns the current state of the event",
        "params": {
          "evntID": "index of the event"
        }
      },
      "getEventList(uint256,uint256)": {
        "details": "returns the list of Events",
        "params": {
          "_end": "ending index - paging",
          "_start": "start index  - paging"
        }
      },
      "getWinner(uint256)": {
        "details": "returns the winner of the event",
        "params": {
          "eventId": "id of the event"
        }
      },
      "owner()": {
        "details": "Returns the address of the current owner."
      },
      "renounceOwnership()": {
        "details": "Leaves the contract without owner. It will not be possible to call `onlyOwner` functions anymore. Can only be called by the current owner. NOTE: Renouncing ownership will leave the contract without an owner, thereby removing any functionality that is only available to the owner."
      },
      "transferOwnership(address)": {
        "details": "Transfers ownership of the contract to a new account (`newOwner`). Can only be called by the current owner."
      }
    },
    "version": 1
  },
  "userdoc": {
    "kind": "user",
    "methods": {},
    "version": 1
  }
}