{
  "contractName": "EventHandler",
  "abi": [
    {
      "anonymous": false,
      "inputs": [
        {
          "indexed": true,
          "internalType": "address",
          "name": "previousOwner",
          "type": "address"
        },
        {
          "indexed": true,
          "internalType": "address",
          "name": "newOwner",
          "type": "address"
        }
      ],
      "name": "OwnershipTransferred",
      "type": "event"
    },
    {
      "anonymous": false,
      "inputs": [
        {
          "indexed": false,
          "internalType": "uint256",
          "name": "eventId",
          "type": "uint256"
        }
      ],
      "name": "eventAdded",
      "type": "event"
    },
    {
      "anonymous": false,
      "inputs": [
        {
          "indexed": false,
          "internalType": "uint256",
          "name": "eventId",
          "type": "uint256"
        },
        {
          "indexed": false,
          "internalType": "address",
          "name": "sportsmanId",
          "type": "address"
        }
      ],
      "name": "eventRegisterSportsman",
      "type": "event"
    },
    {
      "anonymous": false,
      "inputs": [
        {
          "indexed": false,
          "internalType": "uint256",
          "name": "eventId",
          "type": "uint256"
        }
      ],
      "name": "eventRemoved",
      "type": "event"
    },
    {
      "inputs": [],
      "name": "owner",
      "outputs": [
        {
          "internalType": "address",
          "name": "",
          "type": "address"
        }
      ],
      "stateMutability": "view",
      "type": "function"
    },
    {
      "inputs": [],
      "name": "renounceOwnership",
      "outputs": [],
      "stateMutability": "nonpayable",
      "type": "function"
    },
    {
      "inputs": [
        {
          "internalType": "address",
          "name": "newOwner",
          "type": "address"
        }
      ],
      "name": "transferOwnership",
      "outputs": [],
      "stateMutability": "nonpayable",
      "type": "function"
    },
    {
      "inputs": [
        {
          "internalType": "uint256",
          "name": "_organizedBy",
          "type": "uint256"
        },
        {
          "internalType": "uint256",
          "name": "_startDate",
          "type": "uint256"
        },
        {
          "internalType": "uint256",
          "name": "_endDate",
          "type": "uint256"
        },
        {
          "internalType": "uint256",
          "name": "_sportCategory",
          "type": "uint256"
        }
      ],
      "name": "addEvent",
      "outputs": [
        {
          "internalType": "uint256",
          "name": "",
          "type": "uint256"
        }
      ],
      "stateMutability": "nonpayable",
      "type": "function"
    },
    {
      "inputs": [
        {
          "internalType": "uint256",
          "name": "eventId",
          "type": "uint256"
        }
      ],
      "name": "getEvent",
      "outputs": [
        {
          "components": [
            {
              "internalType": "uint256",
              "name": "eventId",
              "type": "uint256"
            },
            {
              "internalType": "uint256",
              "name": "sportCategory",
              "type": "uint256"
            },
            {
              "internalType": "uint256",
              "name": "organizedBy",
              "type": "uint256"
            },
            {
              "internalType": "address[]",
              "name": "registeredSportsMan",
              "type": "address[]"
            },
            {
              "internalType": "address",
              "name": "winner",
              "type": "address"
            },
            {
              "internalType": "uint256",
              "name": "startDate",
              "type": "uint256"
            },
            {
              "internalType": "uint256",
              "name": "endDate",
              "type": "uint256"
            },
            {
              "internalType": "uint256",
              "name": "medalID",
              "type": "uint256"
            },
            {
              "internalType": "bool",
              "name": "hasMedal",
              "type": "bool"
            },
            {
              "internalType": "bool",
              "name": "activ",
              "type": "bool"
            },
            {
              "internalType": "bool",
              "name": "ended",
              "type": "bool"
            },
            {
              "internalType": "bool",
              "name": "started",
              "type": "bool"
            }
          ],
          "internalType": "struct EventHandler.EventDesc",
          "name": "",
          "type": "tuple"
        }
      ],
      "stateMutability": "view",
      "type": "function"
    },
    {
      "inputs": [
        {
          "internalType": "uint256",
          "name": "eventId",
          "type": "uint256"
        }
      ],
      "name": "getWinner",
      "outputs": [
        {
          "internalType": "address",
          "name": "",
          "type": "address"
        }
      ],
      "stateMutability": "view",
      "type": "function"
    },
    {
      "inputs": [
        {
          "internalType": "uint256",
          "name": "_start",
          "type": "uint256"
        },
        {
          "internalType": "uint256",
          "name": "_end",
          "type": "uint256"
        }
      ],
      "name": "getEventList",
      "outputs": [
        {
          "components": [
            {
              "internalType": "uint256",
              "name": "eventId",
              "type": "uint256"
            },
            {
              "internalType": "uint256",
              "name": "sportCategory",
              "type": "uint256"
            },
            {
              "internalType": "uint256",
              "name": "organizedBy",
              "type": "uint256"
            },
            {
              "internalType": "address[]",
              "name": "registeredSportsMan",
              "type": "address[]"
            },
            {
              "internalType": "address",
              "name": "winner",
              "type": "address"
            },
            {
              "internalType": "uint256",
              "name": "startDate",
              "type": "uint256"
            },
            {
              "internalType": "uint256",
              "name": "endDate",
              "type": "uint256"
            },
            {
              "internalType": "uint256",
              "name": "medalID",
              "type": "uint256"
            },
            {
              "internalType": "bool",
              "name": "hasMedal",
              "type": "bool"
            },
            {
              "internalType": "bool",
              "name": "activ",
              "type": "bool"
            },
            {
              "internalType": "bool",
              "name": "ended",
              "type": "bool"
            },
            {
              "internalType": "bool",
              "name": "started",
              "type": "bool"
            }
          ],
          "internalType": "struct EventHandler.EventDesc[]",
          "name": "",
          "type": "tuple[]"
        }
      ],
      "stateMutability": "view",
      "type": "function"
    },
    {
      "inputs": [],
      "name": "getEventCount",
      "outputs": [
        {
          "internalType": "uint256",
          "name": "",
          "type": "uint256"
        }
      ],
      "stateMutability": "view",
      "type": "function"
    },
    {
      "inputs": [
        {
          "internalType": "uint256",
          "name": "eventID",
          "type": "uint256"
        }
      ],
      "name": "eventHasMedal",
      "outputs": [
        {
          "internalType": "bool",
          "name": "",
          "type": "bool"
        }
      ],
      "stateMutability": "view",
      "type": "function"
    },
    {
      "inputs": [
        {
          "internalType": "uint256",
          "name": "eventID",
          "type": "uint256"
        }
      ],
      "name": "eventGetMedal",
      "outputs": [
        {
          "internalType": "uint256",
          "name": "",
          "type": "uint256"
        }
      ],
      "stateMutability": "view",
      "type": "function"
    }
  ],
  "bytecode": "0x608060405234801561001057600080fd5b5061002161001c610026565b61002a565b61007a565b3390565b600080546001600160a01b038381166001600160a01b0319831681178455604051919092169283917f8be0079c531659141344cd1fd0a4f28419497f9722a3daafe3b4186f6b6457e09190a35050565b610be4806100896000396000f3fe608060405234801561001057600080fd5b506004361061009e5760003560e01c806384506a061161006657806384506a06146101365780638da5cb5b14610149578063d9e48f5c14610151578063f022f35514610159578063f2fde38b146101795761009e565b806335d3339e146100a357806338caac65146100cc5780634129b2c9146100ec5780636d1884e01461010c578063715018a61461012c575b600080fd5b6100b66100b136600461087e565b61018c565b6040516100c391906109fe565b60405180910390f35b6100df6100da366004610866565b6103e1565b6040516100c39190610b2e565b6100ff6100fa366004610866565b610429565b6040516100c391906109ea565b61011f61011a366004610866565b61046f565b6040516100c39190610b1b565b61013461059f565b005b6100df61014436600461089f565b6105ea565b6100ff6106a0565b6100df6106af565b61016c610167366004610866565b6106b5565b6040516100c39190610a5e565b610134610187366004610838565b610701565b6060600254806000141561019f57600080fd5b83806101aa57600080fd5b846101b481610b66565b95505083806101c290610b66565b945050838511156101d257600080fd5b60025485106101fc5760405162461bcd60e51b81526004016101f390610ae4565b60405180910390fd5b60025484106102175760016002546102149190610b4f565b93505b60006102238686610b4f565b61022e906001610b37565b67ffffffffffffffff81111561025457634e487b7160e01b600052604160045260246000fd5b60405190808252806020026020018201604052801561028d57816020015b61027a6107c6565b8152602001906001900390816102725790505b509050855b8581116103d75760008181526001602081815260409283902083516101808101855281548152928101548383015260028101548385015260038101805485518185028101850190965280865293949193606086019383018282801561032057602002820191906000526020600020905b81546001600160a01b03168152600190910190602001808311610302575b505050918352505060048201546001600160a01b0316602082015260058201546040820152600682015460608201526007820154608082015260089091015460ff808216151560a08401526101008083048216151560c08501526201000083048216151560e0850152630100000090920416151591015282518390839081106103b957634e487b7160e01b600052603260045260246000fd5b602002602001018190525080806103cf90610b7d565b915050610292565b5095945050505050565b600081600254808211156103f457600080fd5b83806103ff57600080fd5b6001600061040d8288610b4f565b8152602001908152602001600020600701549350505050919050565b6000816002548082111561043c57600080fd5b6001600061044a8287610b4f565b81526020810191909152604001600020600401546001600160a01b0316949350505050565b6104776107c6565b818061048257600080fd5b600160006104908286610b4f565b8152602001908152602001600020604051806101800160405290816000820154815260200160018201548152602001600282015481526020016003820180548060200260200160405190810160405280929190818152602001828054801561052157602002820191906000526020600020905b81546001600160a01b03168152600190910190602001808311610503575b505050918352505060048201546001600160a01b0316602082015260058201546040820152600682015460608201526007820154608082015260089091015460ff808216151560a08401526101008083048216151560c08501526201000083048216151560e085015263010000009092041615159101529392505050565b6105a7610772565b6001600160a01b03166105b86106a0565b6001600160a01b0316146105de5760405162461bcd60e51b81526004016101f390610aaf565b6105e86000610776565b565b600280546000818152600160208190526040808320938455838501899055600584018890556006840187905590830185905560088301805463ffff00001961ff0019909116610100171690556004830180546001600160a01b03191690559254925190927fb74b81e22ed2c551cf1d61041f3314bcb4dc74e133a311f76c5de475735b02649161067a9190610b2e565b60405180910390a16002805490600061069283610b7d565b909155509695505050505050565b6000546001600160a01b031690565b60025490565b600081600254808211156106c857600080fd5b83806106d357600080fd5b600160006106e18288610b4f565b815260208101919091526040016000206008015460ff1695945050505050565b610709610772565b6001600160a01b031661071a6106a0565b6001600160a01b0316146107405760405162461bcd60e51b81526004016101f390610aaf565b6001600160a01b0381166107665760405162461bcd60e51b81526004016101f390610a69565b61076f81610776565b50565b3390565b600080546001600160a01b038381166001600160a01b0319831681178455604051919092169283917f8be0079c531659141344cd1fd0a4f28419497f9722a3daafe3b4186f6b6457e09190a35050565b6040518061018001604052806000815260200160008152602001600081526020016060815260200160006001600160a01b031681526020016000815260200160008152602001600081526020016000151581526020016000151581526020016000151581526020016000151581525090565b600060208284031215610849578081fd5b81356001600160a01b038116811461085f578182fd5b9392505050565b600060208284031215610877578081fd5b5035919050565b60008060408385031215610890578081fd5b50508035926020909101359150565b600080600080608085870312156108b4578182fd5b5050823594602084013594506040840135936060013592509050565b6001600160a01b03169052565b6000815180845260208085019450808401835b838110156109155781516001600160a01b0316875295820195908201906001016108f0565b509495945050505050565b15159052565b6000610180825184526020830151602085015260408301516040850152606083015181606086015261095a828601826108dd565b915050608083015161096f60808601826108d0565b5060a083015160a085015260c083015160c085015260e083015160e0850152610100808401516109a182870182610920565b5050610120808401516109b682870182610920565b5050610140808401516109cb82870182610920565b5050610160808401516109e082870182610920565b5090949350505050565b6001600160a01b0391909116815260200190565b6000602080830181845280855180835260408601915060408482028701019250838701855b82811015610a5157603f19888603018452610a3f858351610926565b94509285019290850190600101610a23565b5092979650505050505050565b901515815260200190565b60208082526026908201527f4f776e61626c653a206e6577206f776e657220697320746865207a65726f206160408201526564647265737360d01b606082015260800190565b6020808252818101527f4f776e61626c653a2063616c6c6572206973206e6f7420746865206f776e6572604082015260600190565b60208082526017908201527f5374617274496e646578206f7574206f662072616e6765000000000000000000604082015260600190565b60006020825261085f6020830184610926565b90815260200190565b60008219821115610b4a57610b4a610b98565b500190565b600082821015610b6157610b61610b98565b500390565b600081610b7557610b75610b98565b506000190190565b6000600019821415610b9157610b91610b98565b5060010190565b634e487b7160e01b600052601160045260246000fdfea2646970667358221220f8bfff7a521da4efb997bcbbb0e22bd43d6b1abcdbc565a8e3ff99e94ba8c53864736f6c63430008000033",
  "immutableReferences": {},
  "source": "// SPDX-License-Identifier: MIT\r\npragma solidity ^0.8;\r\nimport \"@openzeppelin/contracts/access/Ownable.sol\";\r\n\r\ncontract EventHandler is Ownable {\r\n\tstruct EventDesc {\r\n\t\tuint256 eventId; // Index of the event in the EventList\r\n\t\tuint256 sportCategory; // Category\r\n\t\tuint256 organizedBy; // Id of the Organization\r\n\t\taddress[] registeredSportsMan; //List of sportsman that are participating to the event\r\n\t\taddress winner; // Winner of the Event\r\n\t\tuint256 startDate;\r\n\t\tuint256 endDate;\r\n\t\tuint256 medalID;\r\n\t\tbool hasMedal;\r\n\t\tbool activ;\r\n\t\tbool ended; // finished ?\r\n\t\tbool started; // The event has started\r\n\t}\r\n\r\n\t// Data ---------------------------------\r\n\t//   Events\r\n\tmapping(uint256 => EventDesc) eventList; // List of events already registered\r\n\tuint256 eventCount; // Index for events\r\n\r\n\t// Modifiers ----------------------------\r\n\tmodifier isNotNull(address a) virtual {\r\n\t\trequire(a != address(0));\r\n\t\t_;\r\n\t}\r\n\tmodifier isNotNullUint256(uint256 a) virtual {\r\n\t\trequire(a != 0);\r\n\t\t_;\r\n\t}\r\n\tmodifier isInRange(uint256 a, uint256 b) {\r\n\t\trequire(a <= b);\r\n\t\t_;\r\n\t}\r\n\r\n\t// Events -------------------------------\r\n\tevent eventAdded(uint256 eventId);\r\n\tevent eventRemoved(uint256 eventId);\r\n\tevent eventRegisterSportsman(uint256 eventId, address sportsmanId);\r\n\r\n\t// Methods -------------------------------\r\n\t///@dev add an event to the list of events\r\n\t///@param _organizedBy id of the oganization\r\n\t///@param _startDate Date for the event to start\r\n\t///@param _endDate Date for the event to finish\r\n\t///@param _sportCategory Type of event\r\n\tfunction addEvent(\r\n\t\tuint256 _organizedBy,\r\n\t\tuint256 _startDate,\r\n\t\tuint256 _endDate,\r\n\t\tuint256 _sportCategory\r\n\t) public returns (uint256) {\r\n\t\tEventDesc storage _event = eventList[eventCount];\r\n\t\t_event.eventId = eventCount;\r\n\t\t_event.organizedBy = _organizedBy;\r\n\t\t_event.startDate = _startDate;\r\n\t\t_event.endDate = _endDate;\r\n\t\t_event.sportCategory = _sportCategory;\r\n\t\t_event.activ = true;\r\n\t\t_event.ended = false;\r\n\t\t_event.started = false;\r\n\t\t_event.winner = address(0);\r\n\t\temit eventAdded(eventCount);\r\n\t\t// return eventCount++;\r\n\r\n\t\t// eventCount++;\r\n\t\t// return _event.eventId;\r\n\r\n\t\treturn eventCount++;\r\n\t}\r\n\r\n\t///@dev remove an event from the list of events\r\n\t///@param eventId id of the event\r\n\tfunction removeEvent(uint256 eventId)\r\n\t\tprivate\r\n\t\tisNotNullUint256(eventId)\r\n\t\tonlyOwner\r\n\t{\r\n\t\teventList[eventId - 1].activ = false;\r\n\t\temit eventRemoved(eventId);\r\n\t}\r\n\r\n\t///@dev returns the details of a specific event\r\n\t///@param eventId id of the event\r\n\tfunction getEvent(uint256 eventId)\r\n\t\tpublic\r\n\t\tview\r\n\t\tisNotNullUint256(eventId)\r\n\t\treturns (EventDesc memory)\r\n\t{\r\n\t\treturn eventList[eventId - 1];\r\n\t}\r\n\r\n\t///@dev returns the winner of the event\r\n\t///@param eventId id of the event\r\n\tfunction getWinner(uint256 eventId)\r\n\t\tpublic\r\n\t\tview\r\n\t\tisInRange(eventId, eventCount)\r\n\t\treturns (address)\r\n\t{\r\n\t\treturn eventList[eventId - 1].winner;\r\n\t}\r\n\r\n\t///@dev defines the winner of the event\r\n\t///@param eventID id of the event\r\n\t///@param _winner address of the winner\r\n\tfunction setEventWinner(uint256 eventID, address _winner)\r\n\t\tinternal\r\n\t\tisNotNullUint256(eventID)\r\n\t\tisInRange(eventID, eventCount)\r\n\t{\r\n\t\teventList[eventID - 1].winner = _winner;\r\n\t}\r\n\r\n\t///@dev Open to registration\r\n\t///@param eventId id of the event\r\n\tfunction startEvent(uint256 eventId)\r\n\t\tinternal\r\n\t\tisNotNullUint256(eventId)\r\n\t\tisInRange(eventId, eventCount)\r\n\t{\r\n\t\teventId--;\r\n\t\teventList[eventId].started = true;\r\n\t\teventList[eventId].ended = false;\r\n\t}\r\n\r\n\t///@dev The event is closed\r\n\t///@param eventId id of the event\r\n\tfunction endEvent(uint256 eventId)\r\n\t\tinternal\r\n\t\tisInRange(eventId, eventCount)\r\n\t\tisNotNullUint256(eventId)\r\n\t{\r\n\t\teventList[eventId - 1].ended = true;\r\n\t}\r\n\r\n\t///@dev returns the list of Events\r\n\t///@param _start start index  - paging\r\n\t///@param _end ending index - paging\r\n\tfunction getEventList(uint256 _start, uint256 _end)\r\n\t\tpublic\r\n\t\tview\r\n\t\tisNotNullUint256(eventCount)\r\n\t\tisNotNullUint256(_start)\r\n\t\treturns (EventDesc[] memory)\r\n\t{\r\n\t\t_start--;\r\n\t\t_end--;\r\n\t\trequire(_start <= _end); // check params\r\n\t\trequire(_start < eventCount, \"StartIndex out of range\");\r\n\r\n\t\t// we adjust the ending value\r\n\t\tif (_end >= eventCount) _end = eventCount - 1;\r\n\r\n\t\t// creat an array for returning only usefull values\r\n\t\tEventDesc[] memory _result = new EventDesc[](_end - _start + 1);\r\n\t\t// Fill the structure\r\n\t\tuint256 x = _start;\r\n\t\twhile (x <= _end) {\r\n\t\t\t_result[x] = eventList[x];\r\n\t\t\tx++;\r\n\t\t}\r\n\t\treturn _result;\r\n\t}\r\n\r\n\t///@dev returns the number of Events\r\n\tfunction getEventCount() public view returns (uint256) {\r\n\t\treturn eventCount;\r\n\t}\r\n\r\n\t///@dev Add a Sportsman to an event\r\n\t///@param eventId id of the event\r\n\t///@param sportsmanID address of the sportsman\r\n\tfunction EventRegisterSportsman(\r\n\t\tuint256 eventId,\r\n\t\taddress sportsmanID // Sportsman already validated by child class\r\n\t) internal isInRange(eventId, eventCount) isNotNullUint256(eventId) {\r\n\t\teventList[eventId - 1].registeredSportsMan.push(sportsmanID);\r\n\t\temit eventRegisterSportsman(eventId, sportsmanID);\r\n\t}\r\n\r\n\t///@dev returns the id of the event organizer\r\n\t///@param eventId id of the event\r\n\tfunction getEventOrganizer(uint256 eventId)\r\n\t\tinternal\r\n\t\tview\r\n\t\tisNotNullUint256(eventId)\r\n\t\tisInRange(eventId, eventCount)\r\n\t\treturns (uint256)\r\n\t{\r\n\t\treturn eventList[eventId - 1].organizedBy;\r\n\t}\r\n\r\n\tfunction eventSetMedal(uint256 eventID, uint256 medalID)\r\n\t\tinternal\r\n\t\tisInRange(eventID, eventCount)\r\n\t\tisNotNullUint256(eventID)\r\n\t{\r\n\t\teventList[eventID - 1].hasMedal = true;\r\n\t\teventList[eventID - 1].medalID = medalID;\r\n\t}\r\n\r\n\tfunction eventHasMedal(uint256 eventID)\r\n\t\tpublic\r\n\t\tview\r\n\t\tisInRange(eventID, eventCount)\r\n\t\tisNotNullUint256(eventID)\r\n\t\treturns (bool)\r\n\t{\r\n\t\treturn eventList[eventID - 1].hasMedal;\r\n\t}\r\n\r\n\tfunction eventGetMedal(uint256 eventID)\r\n\t\tpublic\r\n\t\tview\r\n\t\tisInRange(eventID, eventCount)\r\n\t\tisNotNullUint256(eventID)\r\n\t\treturns (uint256)\r\n\t{\r\n\t\treturn eventList[eventID - 1].medalID;\r\n\t}\r\n}\r\n",
  "sourcePath": "C:\\DEV\\ETH\\Alyra\\MedalVerse\\MedalVerse-Front\\contracts\\Dapp Internal Struct\\EventHandler.sol",
  "compiler": {
    "name": "solc",
    "version": "0.8.0+commit.c7dfd78e.Emscripten.clang"
  },
  "schemaVersion": "3.4.4",
  "updatedAt": "2021-12-31T22:38:00.659Z",
  "devdoc": {
    "kind": "dev",
    "methods": {
      "addEvent(uint256,uint256,uint256,uint256)": {
        "details": "add an event to the list of events",
        "params": {
          "_endDate": "Date for the event to finish",
          "_organizedBy": "id of the oganization",
          "_sportCategory": "Type of event",
          "_startDate": "Date for the event to start"
        }
      },
      "getEvent(uint256)": {
        "details": "returns the details of a specific event",
        "params": {
          "eventId": "id of the event"
        }
      },
      "getEventCount()": {
        "details": "returns the number of Events"
      },
      "getEventList(uint256,uint256)": {
        "details": "returns the list of Events",
        "params": {
          "_end": "ending index - paging",
          "_start": "start index  - paging"
        }
      },
      "getWinner(uint256)": {
        "details": "returns the winner of the event",
        "params": {
          "eventId": "id of the event"
        }
      },
      "owner()": {
        "details": "Returns the address of the current owner."
      },
      "renounceOwnership()": {
        "details": "Leaves the contract without owner. It will not be possible to call `onlyOwner` functions anymore. Can only be called by the current owner. NOTE: Renouncing ownership will leave the contract without an owner, thereby removing any functionality that is only available to the owner."
      },
      "transferOwnership(address)": {
        "details": "Transfers ownership of the contract to a new account (`newOwner`). Can only be called by the current owner."
      }
    },
    "version": 1
  },
  "userdoc": {
    "kind": "user",
    "methods": {},
    "version": 1
  }
}