{
  "contractName": "EventHandler",
  "abi": [
    {
      "anonymous": false,
      "inputs": [
        {
          "indexed": true,
          "internalType": "address",
          "name": "previousOwner",
          "type": "address"
        },
        {
          "indexed": true,
          "internalType": "address",
          "name": "newOwner",
          "type": "address"
        }
      ],
      "name": "OwnershipTransferred",
      "type": "event"
    },
    {
      "anonymous": false,
      "inputs": [
        {
          "indexed": false,
          "internalType": "uint256",
          "name": "eventId",
          "type": "uint256"
        }
      ],
      "name": "eventAdded",
      "type": "event"
    },
    {
      "anonymous": false,
      "inputs": [
        {
          "indexed": false,
          "internalType": "uint256",
          "name": "eventId",
          "type": "uint256"
        },
        {
          "indexed": false,
          "internalType": "address",
          "name": "sportsmanId",
          "type": "address"
        }
      ],
      "name": "eventRegisterSportsman",
      "type": "event"
    },
    {
      "anonymous": false,
      "inputs": [
        {
          "indexed": false,
          "internalType": "uint256",
          "name": "eventId",
          "type": "uint256"
        }
      ],
      "name": "eventRemoved",
      "type": "event"
    },
    {
      "anonymous": false,
      "inputs": [
        {
          "indexed": false,
          "internalType": "uint256",
          "name": "eventId",
          "type": "uint256"
        },
        {
          "indexed": false,
          "internalType": "enum stateOfCompetition",
          "name": "newStatus",
          "type": "uint8"
        }
      ],
      "name": "eventStatusChanged",
      "type": "event"
    },
    {
      "anonymous": false,
      "inputs": [
        {
          "indexed": false,
          "internalType": "uint256",
          "name": "eventId",
          "type": "uint256"
        },
        {
          "indexed": false,
          "internalType": "address",
          "name": "winner",
          "type": "address"
        }
      ],
      "name": "eventWinnerSet",
      "type": "event"
    },
    {
      "inputs": [],
      "name": "owner",
      "outputs": [
        {
          "internalType": "address",
          "name": "",
          "type": "address"
        }
      ],
      "stateMutability": "view",
      "type": "function"
    },
    {
      "inputs": [],
      "name": "renounceOwnership",
      "outputs": [],
      "stateMutability": "nonpayable",
      "type": "function"
    },
    {
      "inputs": [
        {
          "internalType": "address",
          "name": "newOwner",
          "type": "address"
        }
      ],
      "name": "transferOwnership",
      "outputs": [],
      "stateMutability": "nonpayable",
      "type": "function"
    },
    {
      "inputs": [
        {
          "internalType": "uint256",
          "name": "evntID",
          "type": "uint256"
        }
      ],
      "name": "getEventCurrentState",
      "outputs": [
        {
          "internalType": "enum stateOfCompetition",
          "name": "",
          "type": "uint8"
        }
      ],
      "stateMutability": "view",
      "type": "function"
    },
    {
      "inputs": [
        {
          "internalType": "uint256",
          "name": "eventId",
          "type": "uint256"
        }
      ],
      "name": "getEvent",
      "outputs": [
        {
          "components": [
            {
              "internalType": "address",
              "name": "winner",
              "type": "address"
            },
            {
              "internalType": "uint256",
              "name": "eventId",
              "type": "uint256"
            },
            {
              "internalType": "uint256",
              "name": "organizedBy",
              "type": "uint256"
            },
            {
              "internalType": "uint256",
              "name": "medalID",
              "type": "uint256"
            },
            {
              "internalType": "uint128",
              "name": "startDate",
              "type": "uint128"
            },
            {
              "internalType": "uint128",
              "name": "endDate",
              "type": "uint128"
            },
            {
              "internalType": "enum stateOfCompetition",
              "name": "eventState",
              "type": "uint8"
            },
            {
              "internalType": "string",
              "name": "eventDescription",
              "type": "string"
            },
            {
              "internalType": "string",
              "name": "positionX",
              "type": "string"
            },
            {
              "internalType": "string",
              "name": "positionY",
              "type": "string"
            },
            {
              "internalType": "address[]",
              "name": "registeredSportsMan",
              "type": "address[]"
            },
            {
              "internalType": "bool",
              "name": "hasMedal",
              "type": "bool"
            },
            {
              "internalType": "bool",
              "name": "ended",
              "type": "bool"
            },
            {
              "internalType": "bool",
              "name": "started",
              "type": "bool"
            }
          ],
          "internalType": "struct EventHandler.EventDesc",
          "name": "",
          "type": "tuple"
        }
      ],
      "stateMutability": "view",
      "type": "function"
    },
    {
      "inputs": [
        {
          "internalType": "uint256",
          "name": "eventId",
          "type": "uint256"
        }
      ],
      "name": "getWinner",
      "outputs": [
        {
          "internalType": "address",
          "name": "",
          "type": "address"
        }
      ],
      "stateMutability": "view",
      "type": "function"
    },
    {
      "inputs": [
        {
          "internalType": "uint256",
          "name": "_start",
          "type": "uint256"
        },
        {
          "internalType": "uint256",
          "name": "_end",
          "type": "uint256"
        }
      ],
      "name": "getEventList",
      "outputs": [
        {
          "components": [
            {
              "internalType": "address",
              "name": "winner",
              "type": "address"
            },
            {
              "internalType": "uint256",
              "name": "eventId",
              "type": "uint256"
            },
            {
              "internalType": "uint256",
              "name": "organizedBy",
              "type": "uint256"
            },
            {
              "internalType": "uint256",
              "name": "medalID",
              "type": "uint256"
            },
            {
              "internalType": "uint128",
              "name": "startDate",
              "type": "uint128"
            },
            {
              "internalType": "uint128",
              "name": "endDate",
              "type": "uint128"
            },
            {
              "internalType": "enum stateOfCompetition",
              "name": "eventState",
              "type": "uint8"
            },
            {
              "internalType": "string",
              "name": "eventDescription",
              "type": "string"
            },
            {
              "internalType": "string",
              "name": "positionX",
              "type": "string"
            },
            {
              "internalType": "string",
              "name": "positionY",
              "type": "string"
            },
            {
              "internalType": "address[]",
              "name": "registeredSportsMan",
              "type": "address[]"
            },
            {
              "internalType": "bool",
              "name": "hasMedal",
              "type": "bool"
            },
            {
              "internalType": "bool",
              "name": "ended",
              "type": "bool"
            },
            {
              "internalType": "bool",
              "name": "started",
              "type": "bool"
            }
          ],
          "internalType": "struct EventHandler.EventDesc[]",
          "name": "",
          "type": "tuple[]"
        }
      ],
      "stateMutability": "view",
      "type": "function"
    },
    {
      "inputs": [],
      "name": "getEventCount",
      "outputs": [
        {
          "internalType": "uint256",
          "name": "",
          "type": "uint256"
        }
      ],
      "stateMutability": "view",
      "type": "function"
    },
    {
      "inputs": [
        {
          "internalType": "uint256",
          "name": "eventID",
          "type": "uint256"
        }
      ],
      "name": "eventHasMedal",
      "outputs": [
        {
          "internalType": "bool",
          "name": "",
          "type": "bool"
        }
      ],
      "stateMutability": "view",
      "type": "function"
    },
    {
      "inputs": [
        {
          "internalType": "uint256",
          "name": "eventID",
          "type": "uint256"
        }
      ],
      "name": "eventGetMedal",
      "outputs": [
        {
          "internalType": "uint256",
          "name": "",
          "type": "uint256"
        }
      ],
      "stateMutability": "view",
      "type": "function"
    },
    {
      "inputs": [
        {
          "internalType": "uint256",
          "name": "eventID",
          "type": "uint256"
        }
      ],
      "name": "eventGetWinner",
      "outputs": [
        {
          "internalType": "address",
          "name": "",
          "type": "address"
        }
      ],
      "stateMutability": "view",
      "type": "function"
    },
    {
      "inputs": [
        {
          "internalType": "uint256",
          "name": "eventID",
          "type": "uint256"
        }
      ],
      "name": "eventGetPositionX",
      "outputs": [
        {
          "internalType": "string",
          "name": "",
          "type": "string"
        }
      ],
      "stateMutability": "view",
      "type": "function"
    },
    {
      "inputs": [
        {
          "internalType": "uint256",
          "name": "eventID",
          "type": "uint256"
        }
      ],
      "name": "eventGetPositionY",
      "outputs": [
        {
          "internalType": "string",
          "name": "",
          "type": "string"
        }
      ],
      "stateMutability": "view",
      "type": "function"
    }
  ],
  "bytecode": "0x608060405234801561001057600080fd5b5061002161001c610026565b61002a565b61007a565b3390565b600080546001600160a01b038381166001600160a01b0319831681178455604051919092169283917f8be0079c531659141344cd1fd0a4f28419497f9722a3daafe3b4186f6b6457e09190a35050565b6112e0806100896000396000f3fe608060405234801561001057600080fd5b50600436106100af5760003560e01c80632605d9a7146100b457806335d3339e146100dd57806338caac65146100fd5780634129b2c91461011d57806355d97b3f1461013d5780635a473e251461015d5780636d1884e014610170578063715018a6146101905780638da5cb5b1461019a578063d9e48f5c146101a2578063f022f355146101aa578063f2fde38b146101ca578063fd7f1b54146101dd575b600080fd5b6100c76100c2366004610e7d565b6101f0565b6040516100d49190611121565b60405180910390f35b6100f06100eb366004610e95565b61021d565b6040516100d491906110b6565b61011061010b366004610e7d565b6106b4565b6040516100d491906111f5565b61013061012b366004610e7d565b610710565b6040516100d491906110a2565b61015061014b366004610e7d565b610767565b6040516100d49190611135565b61013061016b366004610e7d565b61084b565b61018361017e366004610e7d565b6108ae565b6040516100d491906111e2565b610198610c00565b005b610130610c4b565b610110610c5a565b6101bd6101b8366004610e7d565b610c60565b6040516100d49190611116565b6101986101d8366004610e4f565b610cc0565b6101506101eb366004610e7d565b610d31565b6000600281610200600185611216565b815260208101919091526040016000206005015460ff1692915050565b6060600154806000141561023057600080fd5b838061023b57600080fd5b846102458161122d565b95505083806102539061122d565b9450508385111561026357600080fd5b600154851061028d5760405162461bcd60e51b8152600401610284906111c3565b60405180910390fd5b60015484106102a757600180546102a49190611216565b93505b60006102b38686611216565b6102be9060016111fe565b67ffffffffffffffff8111156102e457634e487b7160e01b600052604160045260246000fd5b60405190808252806020026020018201604052801561031d57816020015b61030a610de1565b8152602001906001900390816103025790505b509050855b8581116106aa5760008181526002602081815260409283902083516101c08101855281546001600160a01b031681526001820154928101929092529182015492810192909252600380820154606084015260048201546001600160801b038082166080860152600160801b9091041660a0840152600582015460c084019160ff909116908111156103c357634e487b7160e01b600052602160045260246000fd5b60038111156103e257634e487b7160e01b600052602160045260246000fd5b81526020016006820180546103f690611244565b80601f016020809104026020016040519081016040528092919081815260200182805461042290611244565b801561046f5780601f106104445761010080835404028352916020019161046f565b820191906000526020600020905b81548152906001019060200180831161045257829003601f168201915b5050505050815260200160078201805461048890611244565b80601f01602080910402602001604051908101604052809291908181526020018280546104b490611244565b80156105015780601f106104d657610100808354040283529160200191610501565b820191906000526020600020905b8154815290600101906020018083116104e457829003601f168201915b5050505050815260200160088201805461051a90611244565b80601f016020809104026020016040519081016040528092919081815260200182805461054690611244565b80156105935780601f1061056857610100808354040283529160200191610593565b820191906000526020600020905b81548152906001019060200180831161057657829003601f168201915b50505050508152602001600982018054806020026020016040519081016040528092919081815260200182805480156105f557602002820191906000526020600020905b81546001600160a01b031681526001909101906020018083116105d7575b5050509183525050600a919091015460ff80821615156020840152610100820481161515604084015262010000909104161515606090910152825183908390811061065057634e487b7160e01b600052603260045260246000fd5b6020026020010181905250600182828151811061067d57634e487b7160e01b600052603260045260246000fd5b602002602001015160200181815161069591906111fe565b905250806106a281611279565b915050610322565b5095945050505050565b600081600154808211156106da5760405162461bcd60e51b8152600401610284906111c3565b83806106e557600080fd5b600260006106f4600188611216565b8152602001908152602001600020600301549350505050919050565b600081600154808211156107365760405162461bcd60e51b8152600401610284906111c3565b60026000610745600187611216565b81526020810191909152604001600020546001600160a01b0316949350505050565b6060816001548082111561078d5760405162461bcd60e51b8152600401610284906111c3565b838061079857600080fd5b600260006107a7600188611216565b815260200190815260200160002060080180546107c390611244565b80601f01602080910402602001604051908101604052809291908181526020018280546107ef90611244565b801561083c5780601f106108115761010080835404028352916020019161083c565b820191906000526020600020905b81548152906001019060200180831161081f57829003601f168201915b50505050509350505050919050565b600081600154808211156108715760405162461bcd60e51b8152600401610284906111c3565b838061087c57600080fd5b6002600061088b600188611216565b81526020810191909152604001600020546001600160a01b031695945050505050565b6108b6610de1565b81806108c157600080fd5b60006002816108d1600187611216565b8152602080820192909252604090810160002081516101c08101835281546001600160a01b03168152600182015493810193909352600281015491830191909152600380820154606084015260048201546001600160801b038082166080860152600160801b9091041660a0840152600582015460c084019160ff9091169081111561096d57634e487b7160e01b600052602160045260246000fd5b600381111561098c57634e487b7160e01b600052602160045260246000fd5b81526020016006820180546109a090611244565b80601f01602080910402602001604051908101604052809291908181526020018280546109cc90611244565b8015610a195780601f106109ee57610100808354040283529160200191610a19565b820191906000526020600020905b8154815290600101906020018083116109fc57829003601f168201915b50505050508152602001600782018054610a3290611244565b80601f0160208091040260200160405190810160405280929190818152602001828054610a5e90611244565b8015610aab5780601f10610a8057610100808354040283529160200191610aab565b820191906000526020600020905b815481529060010190602001808311610a8e57829003601f168201915b50505050508152602001600882018054610ac490611244565b80601f0160208091040260200160405190810160405280929190818152602001828054610af090611244565b8015610b3d5780601f10610b1257610100808354040283529160200191610b3d565b820191906000526020600020905b815481529060010190602001808311610b2057829003601f168201915b5050505050815260200160098201805480602002602001604051908101604052809291908181526020018280548015610b9f57602002820191906000526020600020905b81546001600160a01b03168152600190910190602001808311610b81575b5050509183525050600a919091015460ff808216151560208085019190915261010083048216151560408501526201000090920416151560609092019190915281018051919250600191610bf49083906111fe565b90525091505b50919050565b610c08610d8d565b6001600160a01b0316610c19610c4b565b6001600160a01b031614610c3f5760405162461bcd60e51b81526004016102849061118e565b610c496000610d91565b565b6000546001600160a01b031690565b60015490565b60008160015480821115610c865760405162461bcd60e51b8152600401610284906111c3565b8380610c9157600080fd5b60026000610ca0600188611216565b81526020810191909152604001600020600a015460ff1695945050505050565b610cc8610d8d565b6001600160a01b0316610cd9610c4b565b6001600160a01b031614610cff5760405162461bcd60e51b81526004016102849061118e565b6001600160a01b038116610d255760405162461bcd60e51b815260040161028490611148565b610d2e81610d91565b50565b60608160015480821115610d575760405162461bcd60e51b8152600401610284906111c3565b8380610d6257600080fd5b60026000610d71600188611216565b815260200190815260200160002060070180546107c390611244565b3390565b600080546001600160a01b038381166001600160a01b0319831681178455604051919092169283917f8be0079c531659141344cd1fd0a4f28419497f9722a3daafe3b4186f6b6457e09190a35050565b604080516101c081018252600080825260208201819052918101829052606081018290526080810182905260a081018290529060c08201908152606060208201819052604082018190528082018190526080820152600060a0820181905260c0820181905260e09091015290565b600060208284031215610e60578081fd5b81356001600160a01b0381168114610e76578182fd5b9392505050565b600060208284031215610e8e578081fd5b5035919050565b60008060408385031215610ea7578081fd5b50508035926020909101359150565b6001600160a01b03169052565b6000815180845260208085019450808401835b83811015610efb5781516001600160a01b031687529582019590820190600101610ed6565b509495945050505050565b15159052565b60048110610f2a57634e487b7160e01b600052602160045260246000fd5b9052565b60008151808452815b81811015610f5357602081850181015186830182015201610f37565b81811115610f645782602083870101525b50601f01601f19169290920160200192915050565b60006101c0610f89848451610eb6565b6020830151602085015260408301516040850152606083015160608501526080830151610fb96080860182611095565b5060a0830151610fcc60a0860182611095565b5060c0830151610fdf60c0860182610f0c565b5060e08301518160e0860152610ff782860182610f2e565b91505061010080840151858303828701526110128382610f2e565b92505050610120808401518583038287015261102e8382610f2e565b92505050610140808401518583038287015261104a8382610ec3565b925050506101608084015161106182870182610f06565b50506101808084015161107682870182610f06565b50506101a08084015161108b82870182610f06565b5090949350505050565b6001600160801b03169052565b6001600160a01b0391909116815260200190565b6000602080830181845280855180835260408601915060408482028701019250838701855b8281101561110957603f198886030184526110f7858351610f79565b945092850192908501906001016110db565b5092979650505050505050565b901515815260200190565b6020810161112f8284610f0c565b92915050565b600060208252610e766020830184610f2e565b60208082526026908201527f4f776e61626c653a206e6577206f776e657220697320746865207a65726f206160408201526564647265737360d01b606082015260800190565b6020808252818101527f4f776e61626c653a2063616c6c6572206973206e6f7420746865206f776e6572604082015260600190565b6020808252600590820152644552525f3160d81b604082015260600190565b600060208252610e766020830184610f79565b90815260200190565b6000821982111561121157611211611294565b500190565b60008282101561122857611228611294565b500390565b60008161123c5761123c611294565b506000190190565b60028104600182168061125857607f821691505b60208210811415610bfa57634e487b7160e01b600052602260045260246000fd5b600060001982141561128d5761128d611294565b5060010190565b634e487b7160e01b600052601160045260246000fdfea2646970667358221220d36b2a569409b3624b71e51a8547be57dda2347510c1876b22c43f639989fbb964736f6c63430008000033",
  "immutableReferences": {},
  "source": "// SPDX-License-Identifier: MIT\npragma solidity ^0.8;\nimport \"@openzeppelin/contracts/access/Ownable.sol\";\n\nenum stateOfCompetition {\n\tRegistrationOfParticipants,\n\tCompetitionInProgress,\n\tRewardDistribution,\n\tRewardDistributed\n}\n\ncontract EventHandler is Ownable {\n\tstruct EventDesc {\n\t\taddress winner; // Winner of the Event\n\t\tuint256 eventId; // Index of the event in the EventList\n\t\tuint256 organizedBy; // Id of the Organization\n\t\tuint256 medalID;\n\t\tuint128 startDate;\n\t\tuint128 endDate;\n\t\tstateOfCompetition eventState;\n\t\tstring eventDescription; // String describing the event\n\t\tstring positionX;\n\t\tstring positionY;\n\t\taddress[] registeredSportsMan; //List of sportsman that are participating to the event\n\t\tbool hasMedal;\n\t\tbool ended; // finished ?\n\t\tbool started; // The event has started\n\t}\n\n\t// Data ---------------------------------\n\n\tuint256 eventCount; // Index for events\n\tmapping(uint256 => EventDesc) eventList; // List of events already registered\n\n\t// Modifiers ----------------------------\n\tmodifier eventIsInState(uint256 eventId, stateOfCompetition _state) {\n\t\trequire(eventList[eventId - 1].eventState == _state, \"ERR_3\");\n\t\t_;\n\t}\n\tmodifier isNotNull(address a) virtual {\n\t\trequire(a != address(0));\n\t\t_;\n\t}\n\tmodifier isNotNullUint256(uint256 a) virtual {\n\t\trequire(a != 0);\n\t\t_;\n\t}\n\tmodifier isInRange(uint256 a, uint256 b) {\n\t\trequire(a <= b, \"ERR_1\");\n\t\t_;\n\t}\n\n\t// Events -------------------------------\n\tevent eventAdded(uint256 eventId);\n\tevent eventRemoved(uint256 eventId);\n\tevent eventRegisterSportsman(uint256 eventId, address sportsmanId);\n\tevent eventStatusChanged(uint256 eventId, stateOfCompetition newStatus);\n\tevent eventWinnerSet(uint256 eventId, address winner);\n\n\t// Methods -------------------------------\n\t///@dev add an event to the list of events\n\t///@param _organizedBy id of the oganization\n\t///@param _startDate Date for the event to start\n\t///@param _endDate Date for the event to finish\n\t///@param _eventDescription Desc of the evnt\n\tfunction addEvent(\n\t\tuint256 _organizedBy,\n\t\tuint128 _startDate,\n\t\tuint128 _endDate,\n\t\tstring memory _eventDescription\n\t) internal returns (uint256) {\n\t\tEventDesc storage _event = eventList[eventCount];\n\t\t_event.eventId = eventCount;\n\t\t_event.organizedBy = _organizedBy;\n\t\t_event.startDate = _startDate;\n\t\t_event.endDate = _endDate;\n\t\t_event.winner = address(0);\n\t\t_event.eventDescription = _eventDescription;\n\t\t_event.eventState = stateOfCompetition.RegistrationOfParticipants;\n\n\t\temit eventAdded(eventCount);\n\n\t\treturn eventCount++;\n\t}\n\n\t///@dev returns the current state of the event\n\t///@param evntID index of the event\n\tfunction getEventCurrentState(uint256 evntID)\n\t\tpublic\n\t\tview\n\t\treturns (stateOfCompetition)\n\t{\n\t\treturn eventList[evntID - 1].eventState;\n\t}\n\n\t///@dev returns the details of a specific event\n\t///@param eventId id of the event\n\tfunction getEvent(uint256 eventId)\n\t\texternal\n\t\tview\n\t\tisNotNullUint256(eventId)\n\t\treturns (EventDesc memory)\n\t{\n\t\tEventDesc memory dsc = eventList[eventId - 1];\n\t\tdsc.eventId += 1;\n\t\treturn dsc;\n\t}\n\n\t///@dev returns the winner of the event\n\t///@param eventId id of the event\n\tfunction getWinner(uint256 eventId)\n\t\tpublic\n\t\tview\n\t\tisInRange(eventId, eventCount)\n\t\treturns (address)\n\t{\n\t\treturn eventList[eventId - 1].winner;\n\t}\n\n\t///@dev defines the winner of the event\n\t///@param eventID id of the event\n\t///@param _winner address of the winner\n\tfunction setEventWinner(uint256 eventID, address _winner)\n\t\tinternal\n\t\tisNotNullUint256(eventID)\n\t\tisInRange(eventID, eventCount)\n\t\teventIsInState(eventID, stateOfCompetition.RewardDistribution)\n\t{\n\t\teventList[eventID - 1].winner = _winner;\n\t\temit eventWinnerSet(eventID, _winner);\n\t}\n\n\t///@dev Open to registration\n\t///@param eventId id of the event\n\tfunction startEvent(uint256 eventId)\n\t\tinternal\n\t\tisNotNullUint256(eventId)\n\t\tisInRange(eventId, eventCount)\n\t\teventIsInState(eventId, stateOfCompetition.RegistrationOfParticipants)\n\t{\n\t\t// start the competition\n\t\teventList[eventId - 1].eventState = stateOfCompetition\n\t\t\t.CompetitionInProgress;\n\t\teventList[eventId - 1].started = true;\n\t\temit eventStatusChanged(\n\t\t\teventId,\n\t\t\tstateOfCompetition.CompetitionInProgress\n\t\t);\n\t}\n\n\t///@dev The event is closed\n\t///@param eventId id of the event\n\tfunction endEvent(uint256 eventId)\n\t\tinternal\n\t\tisInRange(eventId, eventCount)\n\t\tisNotNullUint256(eventId)\n\t\teventIsInState(eventId, stateOfCompetition.CompetitionInProgress)\n\t{\n\t\teventList[eventId - 1].eventState = stateOfCompetition\n\t\t\t.RewardDistribution;\n\t\teventList[eventId - 1].ended = true;\n\t\temit eventStatusChanged(eventId, stateOfCompetition.RewardDistribution);\n\t}\n\n\t///@dev returns the list of Events\n\t///@param _start start index  - paging\n\t///@param _end ending index - paging\n\tfunction getEventList(uint256 _start, uint256 _end)\n\t\texternal\n\t\tview\n\t\tisNotNullUint256(eventCount)\n\t\tisNotNullUint256(_start)\n\t\treturns (EventDesc[] memory)\n\t{\n\t\t_start--;\n\t\t_end--;\n\t\trequire(_start <= _end); // check params\n\t\trequire(_start < eventCount, \"ERR_1\");\n\n\t\t// we adjust the ending value\n\t\tif (_end >= eventCount) _end = eventCount - 1;\n\n\t\t// creat an array for returning only usefull values\n\t\tEventDesc[] memory _result = new EventDesc[](_end - _start + 1);\n\t\t// Fill the structure\n\t\tuint256 x = _start;\n\t\twhile (x <= _end) {\n\t\t\t_result[x] = eventList[x];\n\t\t\t_result[x].eventId += 1;\n\t\t\tx++;\n\t\t}\n\t\treturn _result;\n\t}\n\n\t///@dev returns the number of Events\n\tfunction getEventCount() public view returns (uint256) {\n\t\treturn eventCount;\n\t}\n\n\t///@dev Add a Sportsman to an event\n\t///@param eventId id of the event\n\t///@param sportsmanID address of the sportsman\n\tfunction EventRegisterSportsman(\n\t\tuint256 eventId,\n\t\taddress sportsmanID // Sportsman already validated by child class\n\t) internal isInRange(eventId, eventCount) isNotNullUint256(eventId) {\n\t\teventList[eventId - 1].registeredSportsMan.push(sportsmanID);\n\t\temit eventRegisterSportsman(eventId, sportsmanID);\n\t}\n\n\t///@dev returns the id of the event organizer\n\t///@param eventId id of the event\n\tfunction getEventOrganizer(uint256 eventId)\n\t\tinternal\n\t\tview\n\t\tisNotNullUint256(eventId)\n\t\tisInRange(eventId, eventCount)\n\t\treturns (uint256)\n\t{\n\t\treturn eventList[eventId - 1].organizedBy;\n\t}\n\n\t///@dev Define the medal for the event\n\t///@param eventID id of the event\n\t///@param medalID id of the medal\n\tfunction eventSetMedal(uint256 eventID, uint256 medalID)\n\t\tinternal\n\t\tisInRange(eventID, eventCount)\n\t\tisNotNullUint256(eventID)\n\t//\t\t// eventIsInState(eventID, stateOfCompetition.RewardDistribution)\n\t{\n\t\teventID--;\n\t\teventList[eventID].hasMedal = true;\n\t\teventList[eventID].medalID = medalID;\n\t}\n\n\t///@dev Affect the medal of the event to the winner\n\t///@param eventID id of the event\n\tfunction eventDistributeMedal(uint256 eventID)\n\t\tinternal\n\t\tisInRange(eventID, eventCount)\n\t\tisNotNullUint256(eventID)\n\t\teventIsInState(eventID, stateOfCompetition.RewardDistribution)\n\t{\n\t\trequire(eventList[eventID - 1].hasMedal == true, \"ERR_4\");\n\t\teventList[eventID - 1].eventState = stateOfCompetition\n\t\t\t.RewardDistributed;\n\t\temit eventStatusChanged(eventID, stateOfCompetition.RewardDistributed);\n\t}\n\n\t///@dev checks if event has a medal\n\t///@param eventID id of the event\n\tfunction eventHasMedal(uint256 eventID)\n\t\tpublic\n\t\tview\n\t\tisInRange(eventID, eventCount)\n\t\tisNotNullUint256(eventID)\n\t\treturns (bool)\n\t{\n\t\treturn eventList[eventID - 1].hasMedal;\n\t}\n\n\t///@dev returns the id of the medal associated to the event\n\t///@param eventID id of the event\n\tfunction eventGetMedal(uint256 eventID)\n\t\tpublic\n\t\tview\n\t\tisInRange(eventID, eventCount)\n\t\tisNotNullUint256(eventID)\n\t\treturns (uint256)\n\t{\n\t\treturn eventList[eventID - 1].medalID;\n\t}\n\n\t///@dev returns the id of the winner associated to the event\n\t///@param eventID id of the event\n\tfunction eventGetWinner(uint256 eventID)\n\t\texternal\n\t\tview\n\t\tisInRange(eventID, eventCount)\n\t\tisNotNullUint256(eventID)\n\t\treturns (address)\n\t{\n\t\treturn eventList[eventID - 1].winner;\n\t}\n\n\t///@dev Affects coordinates to en event\n\t///@param eventID id of the event\n\t///@param posX X position\n\t///@param posY Y Position\n\tfunction eventSetPosition(\n\t\tuint256 eventID,\n\t\tstring memory posX,\n\t\tstring memory posY\n\t) internal isInRange(eventID, eventCount) isNotNullUint256(eventID) {\n\t\teventList[eventID - 1].positionX = posX;\n\t\teventList[eventID - 1].positionY = posY;\n\t}\n\n\t///@dev returns X coordinate of an event\n\t///@param eventID id of the event\n\tfunction eventGetPositionX(uint256 eventID)\n\t\texternal\n\t\tview\n\t\tisInRange(eventID, eventCount)\n\t\tisNotNullUint256(eventID)\n\t\treturns (string memory)\n\t{\n\t\treturn eventList[eventID - 1].positionX;\n\t}\n\n\t///@dev returns Y coordinate of an event\n\t///@param eventID id of the event\n\tfunction eventGetPositionY(uint256 eventID)\n\t\texternal\n\t\tview\n\t\tisInRange(eventID, eventCount)\n\t\tisNotNullUint256(eventID)\n\t\treturns (string memory)\n\t{\n\t\treturn eventList[eventID - 1].positionY;\n\t}\n}\n",
  "sourcePath": "/home/pec/Projets/MedalVerse/MedalVerse-Front/contracts/Dapp Internal Struct/EventHandler.sol",
  "compiler": {
    "name": "solc",
    "version": "0.8.0+commit.c7dfd78e.Emscripten.clang"
  },
  "schemaVersion": "3.4.4",
  "updatedAt": "2022-01-17T07:06:11.292Z",
  "devdoc": {
    "kind": "dev",
    "methods": {
      "eventGetMedal(uint256)": {
        "details": "returns the id of the medal associated to the event",
        "params": {
          "eventID": "id of the event"
        }
      },
      "eventGetPositionX(uint256)": {
        "details": "returns X coordinate of an event",
        "params": {
          "eventID": "id of the event"
        }
      },
      "eventGetPositionY(uint256)": {
        "details": "returns Y coordinate of an event",
        "params": {
          "eventID": "id of the event"
        }
      },
      "eventGetWinner(uint256)": {
        "details": "returns the id of the winner associated to the event",
        "params": {
          "eventID": "id of the event"
        }
      },
      "eventHasMedal(uint256)": {
        "details": "checks if event has a medal",
        "params": {
          "eventID": "id of the event"
        }
      },
      "getEvent(uint256)": {
        "details": "returns the details of a specific event",
        "params": {
          "eventId": "id of the event"
        }
      },
      "getEventCount()": {
        "details": "returns the number of Events"
      },
      "getEventCurrentState(uint256)": {
        "details": "returns the current state of the event",
        "params": {
          "evntID": "index of the event"
        }
      },
      "getEventList(uint256,uint256)": {
        "details": "returns the list of Events",
        "params": {
          "_end": "ending index - paging",
          "_start": "start index  - paging"
        }
      },
      "getWinner(uint256)": {
        "details": "returns the winner of the event",
        "params": {
          "eventId": "id of the event"
        }
      },
      "owner()": {
        "details": "Returns the address of the current owner."
      },
      "renounceOwnership()": {
        "details": "Leaves the contract without owner. It will not be possible to call `onlyOwner` functions anymore. Can only be called by the current owner. NOTE: Renouncing ownership will leave the contract without an owner, thereby removing any functionality that is only available to the owner."
      },
      "transferOwnership(address)": {
        "details": "Transfers ownership of the contract to a new account (`newOwner`). Can only be called by the current owner."
      }
    },
    "version": 1
  },
  "userdoc": {
    "kind": "user",
    "methods": {},
    "version": 1
  }
}