{
  "contractName": "EventHandler",
  "abi": [
    {
      "anonymous": false,
      "inputs": [
        {
          "indexed": true,
          "internalType": "address",
          "name": "previousOwner",
          "type": "address"
        },
        {
          "indexed": true,
          "internalType": "address",
          "name": "newOwner",
          "type": "address"
        }
      ],
      "name": "OwnershipTransferred",
      "type": "event"
    },
    {
      "anonymous": false,
      "inputs": [
        {
          "indexed": false,
          "internalType": "uint256",
          "name": "eventId",
          "type": "uint256"
        }
      ],
      "name": "eventAdded",
      "type": "event"
    },
    {
      "anonymous": false,
      "inputs": [
        {
          "indexed": false,
          "internalType": "uint256",
          "name": "eventId",
          "type": "uint256"
        }
      ],
      "name": "eventRemoved",
      "type": "event"
    },
    {
      "inputs": [],
      "name": "owner",
      "outputs": [
        {
          "internalType": "address",
          "name": "",
          "type": "address"
        }
      ],
      "stateMutability": "view",
      "type": "function"
    },
    {
      "inputs": [],
      "name": "renounceOwnership",
      "outputs": [],
      "stateMutability": "nonpayable",
      "type": "function"
    },
    {
      "inputs": [
        {
          "internalType": "address",
          "name": "newOwner",
          "type": "address"
        }
      ],
      "name": "transferOwnership",
      "outputs": [],
      "stateMutability": "nonpayable",
      "type": "function"
    },
    {
      "inputs": [
        {
          "internalType": "uint256",
          "name": "_organizedBy",
          "type": "uint256"
        },
        {
          "internalType": "uint8",
          "name": "_startDate",
          "type": "uint8"
        },
        {
          "internalType": "uint8",
          "name": "_endDate",
          "type": "uint8"
        },
        {
          "internalType": "uint256",
          "name": "_sportCategory",
          "type": "uint256"
        }
      ],
      "name": "addEvent",
      "outputs": [],
      "stateMutability": "nonpayable",
      "type": "function"
    },
    {
      "inputs": [
        {
          "internalType": "uint256",
          "name": "eventId",
          "type": "uint256"
        }
      ],
      "name": "getEvent",
      "outputs": [
        {
          "components": [
            {
              "internalType": "uint256",
              "name": "eventId",
              "type": "uint256"
            },
            {
              "internalType": "uint256",
              "name": "sportCategory",
              "type": "uint256"
            },
            {
              "internalType": "uint256",
              "name": "organizedBy",
              "type": "uint256"
            },
            {
              "internalType": "address[]",
              "name": "registeredSportsMan",
              "type": "address[]"
            },
            {
              "internalType": "uint8",
              "name": "startDate",
              "type": "uint8"
            },
            {
              "internalType": "uint8",
              "name": "endDate",
              "type": "uint8"
            },
            {
              "internalType": "bool",
              "name": "activ",
              "type": "bool"
            }
          ],
          "internalType": "struct EventHandler.EventDesc",
          "name": "",
          "type": "tuple"
        }
      ],
      "stateMutability": "view",
      "type": "function"
    }
  ],
  "bytecode": "0x608060405234801561001057600080fd5b5061002161001c610026565b61002a565b61007a565b3390565b600080546001600160a01b038381166001600160a01b0319831681178455604051919092169283917f8be0079c531659141344cd1fd0a4f28419497f9722a3daafe3b4186f6b6457e09190a35050565b610644806100896000396000f3fe608060405234801561001057600080fd5b50600436106100575760003560e01c80636d1884e01461005c5780636e39f63014610085578063715018a61461009a5780638da5cb5b146100a2578063f2fde38b146100b7575b600080fd5b61006f61006a366004610430565b6100ca565b60405161007c9190610527565b60405180910390f35b610098610093366004610448565b610195565b005b61009861028d565b6100aa6102d8565b60405161007c9190610498565b6100986100c5366004610402565b6102e7565b6100d26103ac565b600082815260016020818152604092839020835160e08101855281548152928101548383015260028101548385015260038101805485518185028101850190965280865293949193606086019383018282801561015857602002820191906000526020600020905b81546001600160a01b0316815260019091019060200180831161013a575b50505091835250506004919091015460ff80821660208401526101008204811660408401526201000090910416151560609091015290505b919050565b61019d610358565b6001600160a01b03166101ae6102d8565b6001600160a01b0316146101dd5760405162461bcd60e51b81526004016101d4906104f2565b60405180910390fd5b6002805460008181526001602081905260409182902092835582840188905560048301805491840186905562ff00001960ff8881166101000261ff0019918b1660ff1990951694909417169290921791909116620100001790559154915190917fb74b81e22ed2c551cf1d61041f3314bcb4dc74e133a311f76c5de475735b02649161026991906105de565b60405180910390a160028054906000610281836105e7565b91905055505050505050565b610295610358565b6001600160a01b03166102a66102d8565b6001600160a01b0316146102cc5760405162461bcd60e51b81526004016101d4906104f2565b6102d6600061035c565b565b6000546001600160a01b031690565b6102ef610358565b6001600160a01b03166103006102d8565b6001600160a01b0316146103265760405162461bcd60e51b81526004016101d4906104f2565b6001600160a01b03811661034c5760405162461bcd60e51b81526004016101d4906104ac565b6103558161035c565b50565b3390565b600080546001600160a01b038381166001600160a01b0319831681178455604051919092169283917f8be0079c531659141344cd1fd0a4f28419497f9722a3daafe3b4186f6b6457e09190a35050565b6040518060e0016040528060008152602001600081526020016000815260200160608152602001600060ff168152602001600060ff1681526020016000151581525090565b803560ff8116811461019057600080fd5b600060208284031215610413578081fd5b81356001600160a01b0381168114610429578182fd5b9392505050565b600060208284031215610441578081fd5b5035919050565b6000806000806080858703121561045d578283fd5b8435935061046d602086016103f1565b925061047b604086016103f1565b9396929550929360600135925050565b15159052565b60ff169052565b6001600160a01b0391909116815260200190565b60208082526026908201527f4f776e61626c653a206e6577206f776e657220697320746865207a65726f206160408201526564647265737360d01b606082015260800190565b6020808252818101527f4f776e61626c653a2063616c6c6572206973206e6f7420746865206f776e6572604082015260600190565b60006020808352610100830184518285015281850151604085015260408501516060850152606085015160e060808601528181518084526101208701915084830193508592505b808310156105975783516001600160a01b0316825292840192600192909201919084019061056e565b50608087015193506105ac60a0870185610491565b60a087015193506105c060c0870185610491565b60c087015193506105d460e087018561048b565b9695505050505050565b90815260200190565b600060001982141561060757634e487b7160e01b81526011600452602481fd5b506001019056fea26469706673582212206f060d22d9157c355d94fb945d2b5b1df39e90e9d907efa851aed1efc3089be964736f6c63430008000033",
  "immutableReferences": {},
  "source": "// SPDX-License-Identifier: MIT\npragma solidity ^0.8;\nimport \"@openzeppelin/contracts/access/Ownable.sol\";\n\ncontract EventHandler is Ownable {\n\tstruct EventDesc {\n\t\tuint256 eventId;\n\t\tuint256 sportCategory;\n\t\tuint256 organizedBy;\n\t\taddress[] registeredSportsMan;\n\t\tuint8 startDate;\n\t\tuint8 endDate;\n\t\tbool activ;\n\t}\n\n\t// Data ---------------------------------\n\t//   Events\n\tmapping(uint256 => EventDesc) eventList; // List of events already registered\n\tuint256 eventCount; // Index for events\n\n\t// Modifiers ----------------------------\n\tmodifier isNotNull(address a) virtual {\n\t\trequire(a != address(0));\n\t\t_;\n\t}\n\n\t// Events -------------------------------\n\tevent eventAdded(uint256 eventId);\n\tevent eventRemoved(uint256 eventId);\n\n\t// Methods -------------------------------\n\t///@dev add an event to the list of events\n\t///@param _organizedBy id of the organizer\n\t///@param _startDate Date for the event to start\n\t///@param _endDate Date for the event to finish\n\t///@param _sportCategory Type of event\n\tfunction addEvent(\n\t\tuint256 _organizedBy,\n\t\tuint8 _startDate,\n\t\tuint8 _endDate,\n\t\tuint256 _sportCategory\n\t) public onlyOwner {\n\t\tEventDesc storage _event = eventList[eventCount];\n\t\t_event.eventId = eventCount;\n\t\t_event.organizedBy = _organizedBy;\n\t\t_event.startDate = _startDate;\n\t\t_event.endDate = _endDate;\n\t\t_event.sportCategory = _sportCategory;\n\t\t_event.activ = true;\n\t\temit eventAdded(eventCount);\n\t\teventCount++;\n\t}\n\n\t///@dev remove an event from the list of events\n\t///@param eventId id of the event\n\tfunction removeEvent(uint256 eventId) private onlyOwner {\n\t\teventList[eventCount].activ = false;\n\t\temit eventRemoved(eventId);\n\t}\n\n\t///@dev returns the details of a specific event\n\t///@param eventId id of the event\n\tfunction getEvent(uint256 eventId) public view returns (EventDesc memory) {\n\t\treturn eventList[eventId];\n\t}\n}\n",
  "sourcePath": "/home/pec/Projets/MedalVerse/MedalVerse-Front/contracts/Dapp Internal Struct/EventHandler.sol",
  "compiler": {
    "name": "solc",
    "version": "0.8.0+commit.c7dfd78e.Emscripten.clang"
  },
  "schemaVersion": "3.4.3",
  "updatedAt": "2021-12-19T16:32:54.534Z",
  "devdoc": {
    "kind": "dev",
    "methods": {
      "addEvent(uint256,uint8,uint8,uint256)": {
        "details": "add an event to the list of events",
        "params": {
          "_endDate": "Date for the event to finish",
          "_organizedBy": "id of the organizer",
          "_sportCategory": "Type of event",
          "_startDate": "Date for the event to start"
        }
      },
      "getEvent(uint256)": {
        "details": "returns the details of a specific event",
        "params": {
          "eventId": "id of the event"
        }
      },
      "owner()": {
        "details": "Returns the address of the current owner."
      },
      "renounceOwnership()": {
        "details": "Leaves the contract without owner. It will not be possible to call `onlyOwner` functions anymore. Can only be called by the current owner. NOTE: Renouncing ownership will leave the contract without an owner, thereby removing any functionality that is only available to the owner."
      },
      "transferOwnership(address)": {
        "details": "Transfers ownership of the contract to a new account (`newOwner`). Can only be called by the current owner."
      }
    },
    "version": 1
  },
  "userdoc": {
    "kind": "user",
    "methods": {},
    "version": 1
  }
}