{
  "contractName": "EventHandler",
  "abi": [
    {
      "anonymous": false,
      "inputs": [
        {
          "indexed": true,
          "internalType": "address",
          "name": "previousOwner",
          "type": "address"
        },
        {
          "indexed": true,
          "internalType": "address",
          "name": "newOwner",
          "type": "address"
        }
      ],
      "name": "OwnershipTransferred",
      "type": "event"
    },
    {
      "anonymous": false,
      "inputs": [
        {
          "indexed": false,
          "internalType": "uint256",
          "name": "eventId",
          "type": "uint256"
        }
      ],
      "name": "eventAdded",
      "type": "event"
    },
    {
      "anonymous": false,
      "inputs": [
        {
          "indexed": false,
          "internalType": "uint256",
          "name": "eventId",
          "type": "uint256"
        },
        {
          "indexed": false,
          "internalType": "address",
          "name": "sportsmanId",
          "type": "address"
        }
      ],
      "name": "eventRegisterSportsman",
      "type": "event"
    },
    {
      "anonymous": false,
      "inputs": [
        {
          "indexed": false,
          "internalType": "uint256",
          "name": "eventId",
          "type": "uint256"
        }
      ],
      "name": "eventRemoved",
      "type": "event"
    },
    {
      "inputs": [],
      "name": "owner",
      "outputs": [
        {
          "internalType": "address",
          "name": "",
          "type": "address"
        }
      ],
      "stateMutability": "view",
      "type": "function"
    },
    {
      "inputs": [],
      "name": "renounceOwnership",
      "outputs": [],
      "stateMutability": "nonpayable",
      "type": "function"
    },
    {
      "inputs": [
        {
          "internalType": "address",
          "name": "newOwner",
          "type": "address"
        }
      ],
      "name": "transferOwnership",
      "outputs": [],
      "stateMutability": "nonpayable",
      "type": "function"
    },
    {
      "inputs": [
        {
          "internalType": "uint256",
          "name": "_organizedBy",
          "type": "uint256"
        },
        {
          "internalType": "uint256",
          "name": "_startDate",
          "type": "uint256"
        },
        {
          "internalType": "uint256",
          "name": "_endDate",
          "type": "uint256"
        },
        {
          "internalType": "uint256",
          "name": "_sportCategory",
          "type": "uint256"
        },
        {
          "internalType": "string",
          "name": "_eventDescription",
          "type": "string"
        }
      ],
      "name": "addEvent",
      "outputs": [
        {
          "internalType": "uint256",
          "name": "",
          "type": "uint256"
        }
      ],
      "stateMutability": "nonpayable",
      "type": "function"
    },
    {
      "inputs": [
        {
          "internalType": "uint256",
          "name": "eventId",
          "type": "uint256"
        }
      ],
      "name": "getEvent",
      "outputs": [
        {
          "components": [
            {
              "internalType": "uint256",
              "name": "eventId",
              "type": "uint256"
            },
            {
              "internalType": "uint256",
              "name": "sportCategory",
              "type": "uint256"
            },
            {
              "internalType": "uint256",
              "name": "organizedBy",
              "type": "uint256"
            },
            {
              "internalType": "address[]",
              "name": "registeredSportsMan",
              "type": "address[]"
            },
            {
              "internalType": "address",
              "name": "winner",
              "type": "address"
            },
            {
              "internalType": "uint256",
              "name": "startDate",
              "type": "uint256"
            },
            {
              "internalType": "uint256",
              "name": "endDate",
              "type": "uint256"
            },
            {
              "internalType": "uint256",
              "name": "medalID",
              "type": "uint256"
            },
            {
              "internalType": "string",
              "name": "eventDescription",
              "type": "string"
            },
            {
              "internalType": "bool",
              "name": "hasMedal",
              "type": "bool"
            },
            {
              "internalType": "bool",
              "name": "activ",
              "type": "bool"
            },
            {
              "internalType": "bool",
              "name": "ended",
              "type": "bool"
            },
            {
              "internalType": "bool",
              "name": "started",
              "type": "bool"
            }
          ],
          "internalType": "struct EventHandler.EventDesc",
          "name": "",
          "type": "tuple"
        }
      ],
      "stateMutability": "view",
      "type": "function"
    },
    {
      "inputs": [
        {
          "internalType": "uint256",
          "name": "eventId",
          "type": "uint256"
        }
      ],
      "name": "getWinner",
      "outputs": [
        {
          "internalType": "address",
          "name": "",
          "type": "address"
        }
      ],
      "stateMutability": "view",
      "type": "function"
    },
    {
      "inputs": [
        {
          "internalType": "uint256",
          "name": "_start",
          "type": "uint256"
        },
        {
          "internalType": "uint256",
          "name": "_end",
          "type": "uint256"
        }
      ],
      "name": "getEventList",
      "outputs": [
        {
          "components": [
            {
              "internalType": "uint256",
              "name": "eventId",
              "type": "uint256"
            },
            {
              "internalType": "uint256",
              "name": "sportCategory",
              "type": "uint256"
            },
            {
              "internalType": "uint256",
              "name": "organizedBy",
              "type": "uint256"
            },
            {
              "internalType": "address[]",
              "name": "registeredSportsMan",
              "type": "address[]"
            },
            {
              "internalType": "address",
              "name": "winner",
              "type": "address"
            },
            {
              "internalType": "uint256",
              "name": "startDate",
              "type": "uint256"
            },
            {
              "internalType": "uint256",
              "name": "endDate",
              "type": "uint256"
            },
            {
              "internalType": "uint256",
              "name": "medalID",
              "type": "uint256"
            },
            {
              "internalType": "string",
              "name": "eventDescription",
              "type": "string"
            },
            {
              "internalType": "bool",
              "name": "hasMedal",
              "type": "bool"
            },
            {
              "internalType": "bool",
              "name": "activ",
              "type": "bool"
            },
            {
              "internalType": "bool",
              "name": "ended",
              "type": "bool"
            },
            {
              "internalType": "bool",
              "name": "started",
              "type": "bool"
            }
          ],
          "internalType": "struct EventHandler.EventDesc[]",
          "name": "",
          "type": "tuple[]"
        }
      ],
      "stateMutability": "view",
      "type": "function"
    },
    {
      "inputs": [],
      "name": "getEventCount",
      "outputs": [
        {
          "internalType": "uint256",
          "name": "",
          "type": "uint256"
        }
      ],
      "stateMutability": "view",
      "type": "function"
    },
    {
      "inputs": [
        {
          "internalType": "uint256",
          "name": "eventID",
          "type": "uint256"
        }
      ],
      "name": "eventHasMedal",
      "outputs": [
        {
          "internalType": "bool",
          "name": "",
          "type": "bool"
        }
      ],
      "stateMutability": "view",
      "type": "function"
    },
    {
      "inputs": [
        {
          "internalType": "uint256",
          "name": "eventID",
          "type": "uint256"
        }
      ],
      "name": "eventGetMedal",
      "outputs": [
        {
          "internalType": "uint256",
          "name": "",
          "type": "uint256"
        }
      ],
      "stateMutability": "view",
      "type": "function"
    }
  ],
  "bytecode": "0x608060405234801561001057600080fd5b5061002161001c610026565b61002a565b61007a565b3390565b600080546001600160a01b038381166001600160a01b0319831681178455604051919092169283917f8be0079c531659141344cd1fd0a4f28419497f9722a3daafe3b4186f6b6457e09190a35050565b610f17806100896000396000f3fe608060405234801561001057600080fd5b506004361061009e5760003560e01c8063715018a611610066578063715018a61461013f5780638da5cb5b14610149578063d9e48f5c14610151578063f022f35514610159578063f2fde38b146101795761009e565b80631b4a4397146100a357806335d3339e146100cc57806338caac65146100ec5780634129b2c9146100ff5780636d1884e01461011f575b600080fd5b6100b66100b1366004610a87565b61018c565b6040516100c39190610e16565b60405180910390f35b6100df6100da366004610a66565b610256565b6040516100c39190610ce6565b6100b66100fa366004610a4e565b610544565b61011261010d366004610a4e565b61058c565b6040516100c39190610cd2565b61013261012d366004610a4e565b6105d2565b6040516100c39190610e03565b61014761079d565b005b6101126107e8565b6100b66107f7565b61016c610167366004610a4e565b6107fd565b6040516100c39190610d46565b610147610187366004610a20565b610849565b60028054600081815260016020818152604083209384559383018990556005830188905560068301879055820185905560098201805463ffff00001961ff0019909116610100171690556004820180546001600160a01b0319169055835190926101fd91600884019186019061090e565b507fb74b81e22ed2c551cf1d61041f3314bcb4dc74e133a311f76c5de475735b026460025460405161022f9190610e16565b60405180910390a16002805490600061024783610e9a565b90915550979650505050505050565b6060600254806000141561026957600080fd5b838061027457600080fd5b8461027e81610e4e565b955050838061028c90610e4e565b9450508385111561029c57600080fd5b60025485106102c65760405162461bcd60e51b81526004016102bd90610dcc565b60405180910390fd5b60025484106102e15760016002546102de9190610e37565b93505b60006102ed8686610e37565b6102f8906001610e1f565b67ffffffffffffffff81111561031e57634e487b7160e01b600052604160045260246000fd5b60405190808252806020026020018201604052801561035757816020015b610344610992565b81526020019060019003908161033c5790505b509050855b85811161053a5760008181526001602081815260409283902083516101a0810185528154815292810154838301526002810154838501526003810180548551818502810185019096528086529394919360608601938301828280156103ea57602002820191906000526020600020905b81546001600160a01b031681526001909101906020018083116103cc575b505050918352505060048201546001600160a01b0316602082015260058201546040820152600682015460608201526007820154608082015260088201805460a09092019161043890610e65565b80601f016020809104026020016040519081016040528092919081815260200182805461046490610e65565b80156104b15780601f10610486576101008083540402835291602001916104b1565b820191906000526020600020905b81548152906001019060200180831161049457829003601f168201915b50505091835250506009919091015460ff8082161515602084015261010082048116151560408401526201000082048116151560608401526301000000909104161515608090910152825183908390811061051c57634e487b7160e01b600052603260045260246000fd5b6020026020010181905250808061053290610e9a565b91505061035c565b5095945050505050565b6000816002548082111561055757600080fd5b838061056257600080fd5b600160006105708288610e37565b8152602001908152602001600020600701549350505050919050565b6000816002548082111561059f57600080fd5b600160006105ad8287610e37565b81526020810191909152604001600020600401546001600160a01b0316949350505050565b6105da610992565b81806105e557600080fd5b600160006105f38286610e37565b8152602001908152602001600020604051806101a00160405290816000820154815260200160018201548152602001600282015481526020016003820180548060200260200160405190810160405280929190818152602001828054801561068457602002820191906000526020600020905b81546001600160a01b03168152600190910190602001808311610666575b505050918352505060048201546001600160a01b0316602082015260058201546040820152600682015460608201526007820154608082015260088201805460a0909201916106d290610e65565b80601f01602080910402602001604051908101604052809291908181526020018280546106fe90610e65565b801561074b5780601f106107205761010080835404028352916020019161074b565b820191906000526020600020905b81548152906001019060200180831161072e57829003601f168201915b50505091835250506009919091015460ff808216151560208401526101008204811615156040840152620100008204811615156060840152630100000090910416151560809091015291505b50919050565b6107a56108ba565b6001600160a01b03166107b66107e8565b6001600160a01b0316146107dc5760405162461bcd60e51b81526004016102bd90610d97565b6107e660006108be565b565b6000546001600160a01b031690565b60025490565b6000816002548082111561081057600080fd5b838061081b57600080fd5b600160006108298288610e37565b815260208101919091526040016000206009015460ff1695945050505050565b6108516108ba565b6001600160a01b03166108626107e8565b6001600160a01b0316146108885760405162461bcd60e51b81526004016102bd90610d97565b6001600160a01b0381166108ae5760405162461bcd60e51b81526004016102bd90610d51565b6108b7816108be565b50565b3390565b600080546001600160a01b038381166001600160a01b0319831681178455604051919092169283917f8be0079c531659141344cd1fd0a4f28419497f9722a3daafe3b4186f6b6457e09190a35050565b82805461091a90610e65565b90600052602060002090601f01602090048101928261093c5760008555610982565b82601f1061095557805160ff1916838001178555610982565b82800160010185558215610982579182015b82811115610982578251825591602001919060010190610967565b5061098e929150610a0b565b5090565b604051806101a001604052806000815260200160008152602001600081526020016060815260200160006001600160a01b03168152602001600081526020016000815260200160008152602001606081526020016000151581526020016000151581526020016000151581526020016000151581525090565b5b8082111561098e5760008155600101610a0c565b600060208284031215610a31578081fd5b81356001600160a01b0381168114610a47578182fd5b9392505050565b600060208284031215610a5f578081fd5b5035919050565b60008060408385031215610a78578081fd5b50508035926020909101359150565b600080600080600060a08688031215610a9e578081fd5b8535945060208087013594506040870135935060608701359250608087013567ffffffffffffffff80821115610ad2578384fd5b818901915089601f830112610ae5578384fd5b813581811115610af757610af7610ecb565b604051601f8201601f1916810185018381118282101715610b1a57610b1a610ecb565b60405281815283820185018c1015610b30578586fd5b81858501868301378585838301015280955050505050509295509295909350565b6001600160a01b03169052565b6000815180845260208085019450808401835b83811015610b965781516001600160a01b031687529582019590820190600101610b71565b509495945050505050565b15159052565b60008151808452815b81811015610bcc57602081850181015186830182015201610bb0565b81811115610bdd5782602083870101525b50601f01601f19169290920160200192915050565b60006101a08251845260208301516020850152604083015160408501526060830151816060860152610c2682860182610b5e565b9150506080830151610c3b6080860182610b51565b5060a083015160a085015260c083015160c085015260e083015160e08501526101008084015185830382870152610c728382610ba7565b9250505061012080840151610c8982870182610ba1565b505061014080840151610c9e82870182610ba1565b505061016080840151610cb382870182610ba1565b505061018080840151610cc882870182610ba1565b5090949350505050565b6001600160a01b0391909116815260200190565b6000602080830181845280855180835260408601915060408482028701019250838701855b82811015610d3957603f19888603018452610d27858351610bf2565b94509285019290850190600101610d0b565b5092979650505050505050565b901515815260200190565b60208082526026908201527f4f776e61626c653a206e6577206f776e657220697320746865207a65726f206160408201526564647265737360d01b606082015260800190565b6020808252818101527f4f776e61626c653a2063616c6c6572206973206e6f7420746865206f776e6572604082015260600190565b60208082526017908201527f5374617274496e646578206f7574206f662072616e6765000000000000000000604082015260600190565b600060208252610a476020830184610bf2565b90815260200190565b60008219821115610e3257610e32610eb5565b500190565b600082821015610e4957610e49610eb5565b500390565b600081610e5d57610e5d610eb5565b506000190190565b600281046001821680610e7957607f821691505b6020821081141561079757634e487b7160e01b600052602260045260246000fd5b6000600019821415610eae57610eae610eb5565b5060010190565b634e487b7160e01b600052601160045260246000fd5b634e487b7160e01b600052604160045260246000fdfea264697066735822122072202218c1e1b03be78a8ed21a0133b184aa619529eb7dd265f56bfe78c3629564736f6c63430008000033",
  "immutableReferences": {},
  "source": "// SPDX-License-Identifier: MIT\npragma solidity ^0.8;\nimport \"@openzeppelin/contracts/access/Ownable.sol\";\n\ncontract EventHandler is Ownable {\n\tstruct EventDesc {\n\t\tuint256 eventId; // Index of the event in the EventList\n\t\tuint256 sportCategory; // Category\n\t\tuint256 organizedBy; // Id of the Organization\n\t\taddress[] registeredSportsMan; //List of sportsman that are participating to the event\n\t\taddress winner; // Winner of the Event\n\t\tuint256 startDate;\n\t\tuint256 endDate;\n\t\tuint256 medalID;\n\t\tstring eventDescription; // String describing the event\n\t\tbool hasMedal;\n\t\tbool activ;\n\t\tbool ended; // finished ?\n\t\tbool started; // The event has started\n\t}\n\n\t// Data ---------------------------------\n\t//   Events\n\tmapping(uint256 => EventDesc) eventList; // List of events already registered\n\tuint256 eventCount; // Index for events\n\n\t// Modifiers ----------------------------\n\tmodifier isNotNull(address a) virtual {\n\t\trequire(a != address(0));\n\t\t_;\n\t}\n\tmodifier isNotNullUint256(uint256 a) virtual {\n\t\trequire(a != 0);\n\t\t_;\n\t}\n\tmodifier isInRange(uint256 a, uint256 b) {\n\t\trequire(a <= b);\n\t\t_;\n\t}\n\n\t// Events -------------------------------\n\tevent eventAdded(uint256 eventId);\n\tevent eventRemoved(uint256 eventId);\n\tevent eventRegisterSportsman(uint256 eventId, address sportsmanId);\n\n\t// Methods -------------------------------\n\t///@dev add an event to the list of events\n\t///@param _organizedBy id of the oganization\n\t///@param _startDate Date for the event to start\n\t///@param _endDate Date for the event to finish\n\t///@param _sportCategory Type of event\n\t///@param _eventDescription Desc of the evnt\n\tfunction addEvent(\n\t\tuint256 _organizedBy,\n\t\tuint256 _startDate,\n\t\tuint256 _endDate,\n\t\tuint256 _sportCategory,\n\t\tstring memory _eventDescription\n\t) public returns (uint256) {\n\t\tEventDesc storage _event = eventList[eventCount];\n\t\t_event.eventId = eventCount;\n\t\t_event.organizedBy = _organizedBy;\n\t\t_event.startDate = _startDate;\n\t\t_event.endDate = _endDate;\n\t\t_event.sportCategory = _sportCategory;\n\t\t_event.activ = true;\n\t\t_event.ended = false;\n\t\t_event.started = false;\n\t\t_event.winner = address(0);\n\t\t_event.eventDescription = _eventDescription;\n\t\temit eventAdded(eventCount);\n\t\t// return eventCount++;\n\n\t\t// eventCount++;\n\t\t// return _event.eventId;\n\n\t\treturn eventCount++;\n\t}\n\n\t///@dev remove an event from the list of events\n\t///@param eventId id of the event\n\tfunction removeEvent(uint256 eventId)\n\t\tprivate\n\t\tisNotNullUint256(eventId)\n\t\tonlyOwner\n\t{\n\t\teventList[eventId - 1].activ = false;\n\t\temit eventRemoved(eventId);\n\t}\n\n\t///@dev returns the details of a specific event\n\t///@param eventId id of the event\n\tfunction getEvent(uint256 eventId)\n\t\tpublic\n\t\tview\n\t\tisNotNullUint256(eventId)\n\t\treturns (EventDesc memory)\n\t{\n\t\treturn eventList[eventId - 1];\n\t}\n\n\t///@dev returns the winner of the event\n\t///@param eventId id of the event\n\tfunction getWinner(uint256 eventId)\n\t\tpublic\n\t\tview\n\t\tisInRange(eventId, eventCount)\n\t\treturns (address)\n\t{\n\t\treturn eventList[eventId - 1].winner;\n\t}\n\n\t///@dev defines the winner of the event\n\t///@param eventID id of the event\n\t///@param _winner address of the winner\n\tfunction setEventWinner(uint256 eventID, address _winner)\n\t\tinternal\n\t\tisNotNullUint256(eventID)\n\t\tisInRange(eventID, eventCount)\n\t{\n\t\teventList[eventID - 1].winner = _winner;\n\t}\n\n\t///@dev Open to registration\n\t///@param eventId id of the event\n\tfunction startEvent(uint256 eventId)\n\t\tinternal\n\t\tisNotNullUint256(eventId)\n\t\tisInRange(eventId, eventCount)\n\t{\n\t\teventId--;\n\t\teventList[eventId].started = true;\n\t\teventList[eventId].ended = false;\n\t}\n\n\t///@dev The event is closed\n\t///@param eventId id of the event\n\tfunction endEvent(uint256 eventId)\n\t\tinternal\n\t\tisInRange(eventId, eventCount)\n\t\tisNotNullUint256(eventId)\n\t{\n\t\teventList[eventId - 1].ended = true;\n\t}\n\n\t///@dev returns the list of Events\n\t///@param _start start index  - paging\n\t///@param _end ending index - paging\n\tfunction getEventList(uint256 _start, uint256 _end)\n\t\tpublic\n\t\tview\n\t\tisNotNullUint256(eventCount)\n\t\tisNotNullUint256(_start)\n\t\treturns (EventDesc[] memory)\n\t{\n\t\t_start--;\n\t\t_end--;\n\t\trequire(_start <= _end); // check params\n\t\trequire(_start < eventCount, \"StartIndex out of range\");\n\n\t\t// we adjust the ending value\n\t\tif (_end >= eventCount) _end = eventCount - 1;\n\n\t\t// creat an array for returning only usefull values\n\t\tEventDesc[] memory _result = new EventDesc[](_end - _start + 1);\n\t\t// Fill the structure\n\t\tuint256 x = _start;\n\t\twhile (x <= _end) {\n\t\t\t_result[x] = eventList[x];\n\t\t\tx++;\n\t\t}\n\t\treturn _result;\n\t}\n\n\t///@dev returns the number of Events\n\tfunction getEventCount() public view returns (uint256) {\n\t\treturn eventCount;\n\t}\n\n\t///@dev Add a Sportsman to an event\n\t///@param eventId id of the event\n\t///@param sportsmanID address of the sportsman\n\tfunction EventRegisterSportsman(\n\t\tuint256 eventId,\n\t\taddress sportsmanID // Sportsman already validated by child class\n\t) internal isInRange(eventId, eventCount) isNotNullUint256(eventId) {\n\t\teventList[eventId - 1].registeredSportsMan.push(sportsmanID);\n\t\temit eventRegisterSportsman(eventId, sportsmanID);\n\t}\n\n\t///@dev returns the id of the event organizer\n\t///@param eventId id of the event\n\tfunction getEventOrganizer(uint256 eventId)\n\t\tinternal\n\t\tview\n\t\tisNotNullUint256(eventId)\n\t\tisInRange(eventId, eventCount)\n\t\treturns (uint256)\n\t{\n\t\treturn eventList[eventId - 1].organizedBy;\n\t}\n\n\tfunction eventSetMedal(uint256 eventID, uint256 medalID)\n\t\tinternal\n\t\tisInRange(eventID, eventCount)\n\t\tisNotNullUint256(eventID)\n\t{\n\t\teventList[eventID - 1].hasMedal = true;\n\t\teventList[eventID - 1].medalID = medalID;\n\t}\n\n\tfunction eventHasMedal(uint256 eventID)\n\t\tpublic\n\t\tview\n\t\tisInRange(eventID, eventCount)\n\t\tisNotNullUint256(eventID)\n\t\treturns (bool)\n\t{\n\t\treturn eventList[eventID - 1].hasMedal;\n\t}\n\n\tfunction eventGetMedal(uint256 eventID)\n\t\tpublic\n\t\tview\n\t\tisInRange(eventID, eventCount)\n\t\tisNotNullUint256(eventID)\n\t\treturns (uint256)\n\t{\n\t\treturn eventList[eventID - 1].medalID;\n\t}\n}\n",
  "sourcePath": "/home/pec/Projets/MedalVerse/MedalVerse-Front/contracts/Dapp Internal Struct/EventHandler.sol",
  "compiler": {
    "name": "solc",
    "version": "0.8.0+commit.c7dfd78e.Emscripten.clang"
  },
  "schemaVersion": "3.4.3",
  "updatedAt": "2022-01-03T09:54:13.548Z",
  "devdoc": {
    "kind": "dev",
    "methods": {
      "addEvent(uint256,uint256,uint256,uint256,string)": {
        "details": "add an event to the list of events",
        "params": {
          "_endDate": "Date for the event to finish",
          "_eventDescription": "Desc of the evnt",
          "_organizedBy": "id of the oganization",
          "_sportCategory": "Type of event",
          "_startDate": "Date for the event to start"
        }
      },
      "getEvent(uint256)": {
        "details": "returns the details of a specific event",
        "params": {
          "eventId": "id of the event"
        }
      },
      "getEventCount()": {
        "details": "returns the number of Events"
      },
      "getEventList(uint256,uint256)": {
        "details": "returns the list of Events",
        "params": {
          "_end": "ending index - paging",
          "_start": "start index  - paging"
        }
      },
      "getWinner(uint256)": {
        "details": "returns the winner of the event",
        "params": {
          "eventId": "id of the event"
        }
      },
      "owner()": {
        "details": "Returns the address of the current owner."
      },
      "renounceOwnership()": {
        "details": "Leaves the contract without owner. It will not be possible to call `onlyOwner` functions anymore. Can only be called by the current owner. NOTE: Renouncing ownership will leave the contract without an owner, thereby removing any functionality that is only available to the owner."
      },
      "transferOwnership(address)": {
        "details": "Transfers ownership of the contract to a new account (`newOwner`). Can only be called by the current owner."
      }
    },
    "version": 1
  },
  "userdoc": {
    "kind": "user",
    "methods": {},
    "version": 1
  }
}