{
  "contractName": "Medal",
  "abi": [
    {
      "inputs": [],
      "stateMutability": "nonpayable",
      "type": "constructor"
    },
    {
      "anonymous": false,
      "inputs": [
        {
          "indexed": true,
          "internalType": "address",
          "name": "owner",
          "type": "address"
        },
        {
          "indexed": true,
          "internalType": "address",
          "name": "spender",
          "type": "address"
        },
        {
          "indexed": false,
          "internalType": "uint256",
          "name": "value",
          "type": "uint256"
        }
      ],
      "name": "Approval",
      "type": "event"
    },
    {
      "anonymous": false,
      "inputs": [
        {
          "indexed": true,
          "internalType": "address",
          "name": "previousOwner",
          "type": "address"
        },
        {
          "indexed": true,
          "internalType": "address",
          "name": "newOwner",
          "type": "address"
        }
      ],
      "name": "OwnershipTransferred",
      "type": "event"
    },
    {
      "anonymous": false,
      "inputs": [
        {
          "indexed": true,
          "internalType": "address",
          "name": "from",
          "type": "address"
        },
        {
          "indexed": true,
          "internalType": "address",
          "name": "to",
          "type": "address"
        },
        {
          "indexed": false,
          "internalType": "uint256",
          "name": "value",
          "type": "uint256"
        }
      ],
      "name": "Transfer",
      "type": "event"
    },
    {
      "inputs": [
        {
          "internalType": "address",
          "name": "owner",
          "type": "address"
        },
        {
          "internalType": "address",
          "name": "spender",
          "type": "address"
        }
      ],
      "name": "allowance",
      "outputs": [
        {
          "internalType": "uint256",
          "name": "",
          "type": "uint256"
        }
      ],
      "stateMutability": "view",
      "type": "function",
      "constant": true
    },
    {
      "inputs": [
        {
          "internalType": "address",
          "name": "spender",
          "type": "address"
        },
        {
          "internalType": "uint256",
          "name": "amount",
          "type": "uint256"
        }
      ],
      "name": "approve",
      "outputs": [
        {
          "internalType": "bool",
          "name": "",
          "type": "bool"
        }
      ],
      "stateMutability": "nonpayable",
      "type": "function"
    },
    {
      "inputs": [
        {
          "internalType": "address",
          "name": "account",
          "type": "address"
        }
      ],
      "name": "balanceOf",
      "outputs": [
        {
          "internalType": "uint256",
          "name": "",
          "type": "uint256"
        }
      ],
      "stateMutability": "view",
      "type": "function",
      "constant": true
    },
    {
      "inputs": [],
      "name": "decimals",
      "outputs": [
        {
          "internalType": "uint8",
          "name": "",
          "type": "uint8"
        }
      ],
      "stateMutability": "view",
      "type": "function",
      "constant": true
    },
    {
      "inputs": [
        {
          "internalType": "address",
          "name": "spender",
          "type": "address"
        },
        {
          "internalType": "uint256",
          "name": "subtractedValue",
          "type": "uint256"
        }
      ],
      "name": "decreaseAllowance",
      "outputs": [
        {
          "internalType": "bool",
          "name": "",
          "type": "bool"
        }
      ],
      "stateMutability": "nonpayable",
      "type": "function"
    },
    {
      "inputs": [
        {
          "internalType": "address",
          "name": "spender",
          "type": "address"
        },
        {
          "internalType": "uint256",
          "name": "addedValue",
          "type": "uint256"
        }
      ],
      "name": "increaseAllowance",
      "outputs": [
        {
          "internalType": "bool",
          "name": "",
          "type": "bool"
        }
      ],
      "stateMutability": "nonpayable",
      "type": "function"
    },
    {
      "inputs": [],
      "name": "name",
      "outputs": [
        {
          "internalType": "string",
          "name": "",
          "type": "string"
        }
      ],
      "stateMutability": "view",
      "type": "function",
      "constant": true
    },
    {
      "inputs": [],
      "name": "owner",
      "outputs": [
        {
          "internalType": "address",
          "name": "",
          "type": "address"
        }
      ],
      "stateMutability": "view",
      "type": "function",
      "constant": true
    },
    {
      "inputs": [],
      "name": "renounceOwnership",
      "outputs": [],
      "stateMutability": "nonpayable",
      "type": "function"
    },
    {
      "inputs": [],
      "name": "symbol",
      "outputs": [
        {
          "internalType": "string",
          "name": "",
          "type": "string"
        }
      ],
      "stateMutability": "view",
      "type": "function",
      "constant": true
    },
    {
      "inputs": [],
      "name": "totalSupply",
      "outputs": [
        {
          "internalType": "uint256",
          "name": "",
          "type": "uint256"
        }
      ],
      "stateMutability": "view",
      "type": "function",
      "constant": true
    },
    {
      "inputs": [
        {
          "internalType": "address",
          "name": "recipient",
          "type": "address"
        },
        {
          "internalType": "uint256",
          "name": "amount",
          "type": "uint256"
        }
      ],
      "name": "transfer",
      "outputs": [
        {
          "internalType": "bool",
          "name": "",
          "type": "bool"
        }
      ],
      "stateMutability": "nonpayable",
      "type": "function"
    },
    {
      "inputs": [
        {
          "internalType": "address",
          "name": "sender",
          "type": "address"
        },
        {
          "internalType": "address",
          "name": "recipient",
          "type": "address"
        },
        {
          "internalType": "uint256",
          "name": "amount",
          "type": "uint256"
        }
      ],
      "name": "transferFrom",
      "outputs": [
        {
          "internalType": "bool",
          "name": "",
          "type": "bool"
        }
      ],
      "stateMutability": "nonpayable",
      "type": "function"
    },
    {
      "inputs": [
        {
          "internalType": "address",
          "name": "newOwner",
          "type": "address"
        }
      ],
      "name": "transferOwnership",
      "outputs": [],
      "stateMutability": "nonpayable",
      "type": "function"
    },
    {
      "inputs": [
        {
          "internalType": "uint256",
          "name": "amount",
          "type": "uint256"
        }
      ],
      "name": "burn",
      "outputs": [],
      "stateMutability": "nonpayable",
      "type": "function"
    },
    {
      "inputs": [],
      "name": "getTokenBurned",
      "outputs": [
        {
          "internalType": "uint256",
          "name": "",
          "type": "uint256"
        }
      ],
      "stateMutability": "view",
      "type": "function",
      "constant": true
    }
  ],
  "bytecode": "0x60806040526aa56fa5b99019a5c80000006006556a52b7d2dcc80cd2e40000006007553480156200002f57600080fd5b50604080518082018252600681526509135959185b60d21b6020808301918252835180850190945260048452630913511360e21b9084015281519192916200007a9160039162000204565b5080516200009090600490602084019062000204565b505050620000ad620000a7620000c760201b60201c565b620000cb565b620000c1336006546200011d60201b60201c565b6200034c565b3390565b600580546001600160a01b038381166001600160a01b0319831681179093556040519116919082907f8be0079c531659141344cd1fd0a4f28419497f9722a3daafe3b4186f6b6457e090600090a35050565b6001600160a01b0382166200014f5760405162461bcd60e51b81526004016200014690620002aa565b60405180910390fd5b6200015d60008383620001ff565b8060026000828254620001719190620002ea565b90915550506001600160a01b03821660009081526020819052604081208054839290620001a0908490620002ea565b90915550506040516001600160a01b038316906000907fddf252ad1be2c89b69c2b068fc378daa952ba7f163c4a11628f55a4df523b3ef90620001e5908590620002e1565b60405180910390a3620001fb60008383620001ff565b5050565b505050565b82805462000212906200030f565b90600052602060002090601f01602090048101928262000236576000855562000281565b82601f106200025157805160ff191683800117855562000281565b8280016001018555821562000281579182015b828111156200028157825182559160200191906001019062000264565b506200028f92915062000293565b5090565b5b808211156200028f576000815560010162000294565b6020808252601f908201527f45524332303a206d696e7420746f20746865207a65726f206164647265737300604082015260600190565b90815260200190565b600082198211156200030a57634e487b7160e01b81526011600452602481fd5b500190565b6002810460018216806200032457607f821691505b602082108114156200034657634e487b7160e01b600052602260045260246000fd5b50919050565b610df0806200035c6000396000f3fe608060405234801561001057600080fd5b50600436106100d05760003560e01c806306fdde03146100d5578063095ea7b3146100f357806318160ddd14610113578063189ecc0e1461012857806323b872dd14610130578063313ce56714610143578063395093511461015857806342966c681461016b57806370a0823114610180578063715018a6146101935780638da5cb5b1461019b57806395d89b41146101b0578063a457c2d7146101b8578063a9059cbb146101cb578063dd62ed3e146101de578063f2fde38b146101f1575b600080fd5b6100dd610204565b6040516100ea91906109f1565b60405180910390f35b610106610101366004610991565b610296565b6040516100ea91906109e6565b61011b6102b3565b6040516100ea9190610d23565b61011b6102b9565b61010661013e366004610956565b6102bf565b61014b610358565b6040516100ea9190610d2c565b610106610166366004610991565b61035d565b61017e6101793660046109ba565b6103b1565b005b61011b61018e366004610903565b610418565b61017e610437565b6101a3610482565b6040516100ea91906109d2565b6100dd610491565b6101066101c6366004610991565b6104a0565b6101066101d9366004610991565b610519565b61011b6101ec366004610924565b61052d565b61017e6101ff366004610903565b610558565b60606003805461021390610d69565b80601f016020809104026020016040519081016040528092919081815260200182805461023f90610d69565b801561028c5780601f106102615761010080835404028352916020019161028c565b820191906000526020600020905b81548152906001019060200180831161026f57829003601f168201915b5050505050905090565b60006102aa6102a36105c6565b84846105ca565b50600192915050565b60025490565b60085490565b60006102cc84848461067e565b6001600160a01b0384166000908152600160205260408120816102ed6105c6565b6001600160a01b03166001600160a01b03168152602001908152602001600020549050828110156103395760405162461bcd60e51b815260040161033090610b97565b60405180910390fd5b61034d856103456105c6565b8584036105ca565b506001949350505050565b601290565b60006102aa61036a6105c6565b8484600160006103786105c6565b6001600160a01b03908116825260208083019390935260409182016000908120918b16815292529020546103ac9190610d3a565b6105ca565b6103b96105c6565b6001600160a01b03166103ca610482565b6001600160a01b0316146103f05760405162461bcd60e51b815260040161033090610bdf565b600754816008546104019190610d3a565b1161040b57600080fd5b61041533826107a8565b50565b6001600160a01b0381166000908152602081905260409020545b919050565b61043f6105c6565b6001600160a01b0316610450610482565b6001600160a01b0316146104765760405162461bcd60e51b815260040161033090610bdf565b610480600061089a565b565b6005546001600160a01b031690565b60606004805461021390610d69565b600080600160006104af6105c6565b6001600160a01b03908116825260208083019390935260409182016000908120918816815292529020549050828110156104fb5760405162461bcd60e51b815260040161033090610cde565b61050f6105066105c6565b858584036105ca565b5060019392505050565b60006102aa6105266105c6565b848461067e565b6001600160a01b03918216600090815260016020908152604080832093909416825291909152205490565b6105606105c6565b6001600160a01b0316610571610482565b6001600160a01b0316146105975760405162461bcd60e51b815260040161033090610bdf565b6001600160a01b0381166105bd5760405162461bcd60e51b815260040161033090610ac9565b6104158161089a565b3390565b6001600160a01b0383166105f05760405162461bcd60e51b815260040161033090610c9a565b6001600160a01b0382166106165760405162461bcd60e51b815260040161033090610b0f565b6001600160a01b0380841660008181526001602090815260408083209487168084529490915290819020849055517f8c5be1e5ebec7d5bd14f71427d1e84f3dd0314c0f7b2291e5b200ac8c7c3b92590610671908590610d23565b60405180910390a3505050565b6001600160a01b0383166106a45760405162461bcd60e51b815260040161033090610c55565b6001600160a01b0382166106ca5760405162461bcd60e51b815260040161033090610a44565b6106d5838383610895565b6001600160a01b0383166000908152602081905260409020548181101561070e5760405162461bcd60e51b815260040161033090610b51565b6001600160a01b03808516600090815260208190526040808220858503905591851681529081208054849290610745908490610d3a565b92505081905550826001600160a01b0316846001600160a01b03167fddf252ad1be2c89b69c2b068fc378daa952ba7f163c4a11628f55a4df523b3ef8460405161078f9190610d23565b60405180910390a36107a2848484610895565b50505050565b6001600160a01b0382166107ce5760405162461bcd60e51b815260040161033090610c14565b6107da82600083610895565b6001600160a01b038216600090815260208190526040902054818110156108135760405162461bcd60e51b815260040161033090610a87565b6001600160a01b0383166000908152602081905260408120838303905560028054849290610842908490610d52565b90915550506040516000906001600160a01b038516907fddf252ad1be2c89b69c2b068fc378daa952ba7f163c4a11628f55a4df523b3ef90610885908690610d23565b60405180910390a3610895836000845b505050565b600580546001600160a01b038381166001600160a01b0319831681179093556040519116919082907f8be0079c531659141344cd1fd0a4f28419497f9722a3daafe3b4186f6b6457e090600090a35050565b80356001600160a01b038116811461043257600080fd5b600060208284031215610914578081fd5b61091d826108ec565b9392505050565b60008060408385031215610936578081fd5b61093f836108ec565b915061094d602084016108ec565b90509250929050565b60008060006060848603121561096a578081fd5b610973846108ec565b9250610981602085016108ec565b9150604084013590509250925092565b600080604083850312156109a3578182fd5b6109ac836108ec565b946020939093013593505050565b6000602082840312156109cb578081fd5b5035919050565b6001600160a01b0391909116815260200190565b901515815260200190565b6000602080835283518082850152825b81811015610a1d57858101830151858201604001528201610a01565b81811115610a2e5783604083870101525b50601f01601f1916929092016040019392505050565b60208082526023908201527f45524332303a207472616e7366657220746f20746865207a65726f206164647260408201526265737360e81b606082015260800190565b60208082526022908201527f45524332303a206275726e20616d6f756e7420657863656564732062616c616e604082015261636560f01b606082015260800190565b60208082526026908201527f4f776e61626c653a206e6577206f776e657220697320746865207a65726f206160408201526564647265737360d01b606082015260800190565b60208082526022908201527f45524332303a20617070726f766520746f20746865207a65726f206164647265604082015261737360f01b606082015260800190565b60208082526026908201527f45524332303a207472616e7366657220616d6f756e7420657863656564732062604082015265616c616e636560d01b606082015260800190565b60208082526028908201527f45524332303a207472616e7366657220616d6f756e74206578636565647320616040820152676c6c6f77616e636560c01b606082015260800190565b6020808252818101527f4f776e61626c653a2063616c6c6572206973206e6f7420746865206f776e6572604082015260600190565b60208082526021908201527f45524332303a206275726e2066726f6d20746865207a65726f206164647265736040820152607360f81b606082015260800190565b60208082526025908201527f45524332303a207472616e736665722066726f6d20746865207a65726f206164604082015264647265737360d81b606082015260800190565b60208082526024908201527f45524332303a20617070726f76652066726f6d20746865207a65726f206164646040820152637265737360e01b606082015260800190565b60208082526025908201527f45524332303a2064656372656173656420616c6c6f77616e63652062656c6f77604082015264207a65726f60d81b606082015260800190565b90815260200190565b60ff91909116815260200190565b60008219821115610d4d57610d4d610da4565b500190565b600082821015610d6457610d64610da4565b500390565b600281046001821680610d7d57607f821691505b60208210811415610d9e57634e487b7160e01b600052602260045260246000fd5b50919050565b634e487b7160e01b600052601160045260246000fdfea264697066735822122031faedf3066a58994f2076a5a6db84b5f03f1229b3b64cf08af0383eff1b62d864736f6c63430008000033",
  "immutableReferences": {},
  "source": "// SPDX-License-Identifier: MIT\r\npragma solidity ^0.8;\r\n\r\nimport \"@openzeppelin/contracts/access/Ownable.sol\";\r\nimport \"@openzeppelin/contracts/token/ERC20/ERC20.sol\";\r\n\r\ncontract Medal is ERC20, Ownable {\r\n\r\n    uint supplyMax = 20 * (10 ** 25);\r\n    uint maxBurned = 10 * (10 ** 25);\r\n    uint tokenBurned;\r\n\r\n    constructor() ERC20(\"$Medal\", \"$MDL\"){\r\n        _mint(msg.sender, supplyMax);\r\n    }\r\n\r\n    function burn(uint amount) public onlyOwner {\r\n        require(tokenBurned + amount > maxBurned);\r\n        _burn(msg.sender, amount);\r\n    }\r\n\r\n    function getTokenBurned() public view returns(uint) {\r\n        return tokenBurned;\r\n    }\r\n        \r\n}",
  "sourcePath": "C:\\DEV\\ETH\\Alyra\\MedalVerse\\MedalVerse-Front\\contracts\\Medal.sol",
  "compiler": {
    "name": "solc",
    "version": "0.8.0+commit.c7dfd78e.Emscripten.clang"
  },
  "schemaVersion": "3.4.4",
  "updatedAt": "2022-01-12T09:50:09.395Z",
  "networkType": "ethereum",
  "devdoc": {
    "kind": "dev",
    "methods": {
      "allowance(address,address)": {
        "details": "See {IERC20-allowance}."
      },
      "approve(address,uint256)": {
        "details": "See {IERC20-approve}. Requirements: - `spender` cannot be the zero address."
      },
      "balanceOf(address)": {
        "details": "See {IERC20-balanceOf}."
      },
      "decimals()": {
        "details": "Returns the number of decimals used to get its user representation. For example, if `decimals` equals `2`, a balance of `505` tokens should be displayed to a user as `5.05` (`505 / 10 ** 2`). Tokens usually opt for a value of 18, imitating the relationship between Ether and Wei. This is the value {ERC20} uses, unless this function is overridden; NOTE: This information is only used for _display_ purposes: it in no way affects any of the arithmetic of the contract, including {IERC20-balanceOf} and {IERC20-transfer}."
      },
      "decreaseAllowance(address,uint256)": {
        "details": "Atomically decreases the allowance granted to `spender` by the caller. This is an alternative to {approve} that can be used as a mitigation for problems described in {IERC20-approve}. Emits an {Approval} event indicating the updated allowance. Requirements: - `spender` cannot be the zero address. - `spender` must have allowance for the caller of at least `subtractedValue`."
      },
      "increaseAllowance(address,uint256)": {
        "details": "Atomically increases the allowance granted to `spender` by the caller. This is an alternative to {approve} that can be used as a mitigation for problems described in {IERC20-approve}. Emits an {Approval} event indicating the updated allowance. Requirements: - `spender` cannot be the zero address."
      },
      "name()": {
        "details": "Returns the name of the token."
      },
      "owner()": {
        "details": "Returns the address of the current owner."
      },
      "renounceOwnership()": {
        "details": "Leaves the contract without owner. It will not be possible to call `onlyOwner` functions anymore. Can only be called by the current owner. NOTE: Renouncing ownership will leave the contract without an owner, thereby removing any functionality that is only available to the owner."
      },
      "symbol()": {
        "details": "Returns the symbol of the token, usually a shorter version of the name."
      },
      "totalSupply()": {
        "details": "See {IERC20-totalSupply}."
      },
      "transfer(address,uint256)": {
        "details": "See {IERC20-transfer}. Requirements: - `recipient` cannot be the zero address. - the caller must have a balance of at least `amount`."
      },
      "transferFrom(address,address,uint256)": {
        "details": "See {IERC20-transferFrom}. Emits an {Approval} event indicating the updated allowance. This is not required by the EIP. See the note at the beginning of {ERC20}. Requirements: - `sender` and `recipient` cannot be the zero address. - `sender` must have a balance of at least `amount`. - the caller must have allowance for ``sender``'s tokens of at least `amount`."
      },
      "transferOwnership(address)": {
        "details": "Transfers ownership of the contract to a new account (`newOwner`). Can only be called by the current owner."
      }
    },
    "version": 1
  },
  "userdoc": {
    "kind": "user",
    "methods": {},
    "version": 1
  }
}