{
  "contractName": "MedalVerse",
  "abi": [
    {
      "anonymous": false,
      "inputs": [
        {
          "indexed": false,
          "internalType": "address",
          "name": "usrAddr",
          "type": "address"
        },
        {
          "indexed": false,
          "internalType": "uint256",
          "name": "indx",
          "type": "uint256"
        }
      ],
      "name": "AuthorAdded",
      "type": "event"
    },
    {
      "anonymous": false,
      "inputs": [
        {
          "indexed": false,
          "internalType": "address",
          "name": "usrAddr",
          "type": "address"
        },
        {
          "indexed": false,
          "internalType": "uint256",
          "name": "indx",
          "type": "uint256"
        }
      ],
      "name": "CreationAdded",
      "type": "event"
    },
    {
      "anonymous": false,
      "inputs": [
        {
          "indexed": false,
          "internalType": "uint256",
          "name": "medalID",
          "type": "uint256"
        },
        {
          "indexed": false,
          "internalType": "uint256",
          "name": "eventID",
          "type": "uint256"
        }
      ],
      "name": "MedalAdded",
      "type": "event"
    },
    {
      "anonymous": false,
      "inputs": [
        {
          "indexed": false,
          "internalType": "address",
          "name": "_user",
          "type": "address"
        },
        {
          "indexed": false,
          "internalType": "uint256",
          "name": "indx",
          "type": "uint256"
        }
      ],
      "name": "OganizationAdded",
      "type": "event"
    },
    {
      "anonymous": false,
      "inputs": [
        {
          "indexed": false,
          "internalType": "address",
          "name": "_user",
          "type": "address"
        },
        {
          "indexed": false,
          "internalType": "uint256",
          "name": "indx",
          "type": "uint256"
        }
      ],
      "name": "OrganizerAdded",
      "type": "event"
    },
    {
      "anonymous": false,
      "inputs": [
        {
          "indexed": true,
          "internalType": "address",
          "name": "previousOwner",
          "type": "address"
        },
        {
          "indexed": true,
          "internalType": "address",
          "name": "newOwner",
          "type": "address"
        }
      ],
      "name": "OwnershipTransferred",
      "type": "event"
    },
    {
      "anonymous": false,
      "inputs": [
        {
          "indexed": false,
          "internalType": "address",
          "name": "usrAddr",
          "type": "address"
        },
        {
          "indexed": false,
          "internalType": "uint256",
          "name": "indx",
          "type": "uint256"
        }
      ],
      "name": "UserAdded",
      "type": "event"
    },
    {
      "anonymous": false,
      "inputs": [
        {
          "indexed": false,
          "internalType": "uint256",
          "name": "eventId",
          "type": "uint256"
        }
      ],
      "name": "eventAdded",
      "type": "event"
    },
    {
      "anonymous": false,
      "inputs": [
        {
          "indexed": false,
          "internalType": "uint256",
          "name": "eventId",
          "type": "uint256"
        },
        {
          "indexed": false,
          "internalType": "address",
          "name": "sportsmanId",
          "type": "address"
        }
      ],
      "name": "eventRegisterSportsman",
      "type": "event"
    },
    {
      "anonymous": false,
      "inputs": [
        {
          "indexed": false,
          "internalType": "uint256",
          "name": "eventId",
          "type": "uint256"
        }
      ],
      "name": "eventRemoved",
      "type": "event"
    },
    {
      "anonymous": false,
      "inputs": [
        {
          "indexed": false,
          "internalType": "uint256",
          "name": "eventID",
          "type": "uint256"
        },
        {
          "indexed": false,
          "internalType": "enum stateOfCompetition",
          "name": "newStatus",
          "type": "uint8"
        }
      ],
      "name": "eventStatusChanged",
      "type": "event"
    },
    {
      "anonymous": false,
      "inputs": [
        {
          "indexed": false,
          "internalType": "uint256",
          "name": "eventId",
          "type": "uint256"
        },
        {
          "indexed": false,
          "internalType": "address",
          "name": "winner",
          "type": "address"
        }
      ],
      "name": "eventWinnerSet",
      "type": "event"
    },
    {
      "anonymous": false,
      "inputs": [],
      "name": "organizerAddedEvent",
      "type": "event"
    },
    {
      "anonymous": false,
      "inputs": [
        {
          "indexed": false,
          "internalType": "address",
          "name": "usrAddr",
          "type": "address"
        }
      ],
      "name": "sportsmanAdded",
      "type": "event"
    },
    {
      "anonymous": false,
      "inputs": [
        {
          "indexed": false,
          "internalType": "address",
          "name": "sportsmanId",
          "type": "address"
        },
        {
          "indexed": false,
          "internalType": "uint256",
          "name": "medalID",
          "type": "uint256"
        }
      ],
      "name": "sportsmanMedalAdded",
      "type": "event"
    },
    {
      "anonymous": false,
      "inputs": [
        {
          "indexed": false,
          "internalType": "address",
          "name": "usrAddr",
          "type": "address"
        },
        {
          "indexed": false,
          "internalType": "uint256",
          "name": "eventID",
          "type": "uint256"
        }
      ],
      "name": "sportsmanRegisterdEvent",
      "type": "event"
    },
    {
      "anonymous": false,
      "inputs": [
        {
          "indexed": false,
          "internalType": "address",
          "name": "usrAddr",
          "type": "address"
        },
        {
          "indexed": false,
          "internalType": "uint256",
          "name": "eventID",
          "type": "uint256"
        }
      ],
      "name": "sportsmanUnregisterdEvent",
      "type": "event"
    },
    {
      "inputs": [
        {
          "internalType": "address",
          "name": "_user",
          "type": "address"
        },
        {
          "internalType": "uint256",
          "name": "_price",
          "type": "uint256"
        },
        {
          "internalType": "uint256",
          "name": "_sportCategory",
          "type": "uint256"
        },
        {
          "internalType": "string",
          "name": "_description",
          "type": "string"
        },
        {
          "internalType": "string",
          "name": "_URI",
          "type": "string"
        }
      ],
      "name": "addCreation",
      "outputs": [],
      "stateMutability": "nonpayable",
      "type": "function"
    },
    {
      "inputs": [
        {
          "internalType": "uint256",
          "name": "_organizedBy",
          "type": "uint256"
        },
        {
          "internalType": "uint256",
          "name": "_startDate",
          "type": "uint256"
        },
        {
          "internalType": "uint256",
          "name": "_endDate",
          "type": "uint256"
        },
        {
          "internalType": "uint256",
          "name": "_sportCategory",
          "type": "uint256"
        },
        {
          "internalType": "string",
          "name": "_eventDescription",
          "type": "string"
        }
      ],
      "name": "addEvent",
      "outputs": [
        {
          "internalType": "uint256",
          "name": "",
          "type": "uint256"
        }
      ],
      "stateMutability": "nonpayable",
      "type": "function"
    },
    {
      "inputs": [
        {
          "internalType": "address",
          "name": "_user",
          "type": "address"
        },
        {
          "internalType": "string",
          "name": "_name",
          "type": "string"
        },
        {
          "internalType": "string",
          "name": "_description",
          "type": "string"
        },
        {
          "internalType": "string",
          "name": "_logoURI",
          "type": "string"
        }
      ],
      "name": "addOrganization",
      "outputs": [],
      "stateMutability": "nonpayable",
      "type": "function"
    },
    {
      "inputs": [
        {
          "internalType": "uint256",
          "name": "_creationId",
          "type": "uint256"
        },
        {
          "internalType": "address",
          "name": "_NFT",
          "type": "address"
        }
      ],
      "name": "affectNFTtoCreation",
      "outputs": [],
      "stateMutability": "nonpayable",
      "type": "function"
    },
    {
      "inputs": [
        {
          "internalType": "uint256",
          "name": "",
          "type": "uint256"
        }
      ],
      "name": "allCreations",
      "outputs": [
        {
          "internalType": "uint256",
          "name": "price",
          "type": "uint256"
        },
        {
          "internalType": "uint256",
          "name": "creationId",
          "type": "uint256"
        },
        {
          "internalType": "uint256",
          "name": "sportCategory",
          "type": "uint256"
        },
        {
          "internalType": "address",
          "name": "author",
          "type": "address"
        },
        {
          "internalType": "address",
          "name": "NFT_Bkg_Adr",
          "type": "address"
        },
        {
          "internalType": "string",
          "name": "description",
          "type": "string"
        },
        {
          "internalType": "string",
          "name": "URI",
          "type": "string"
        },
        {
          "internalType": "bool",
          "name": "activ",
          "type": "bool"
        }
      ],
      "stateMutability": "view",
      "type": "function",
      "constant": true
    },
    {
      "inputs": [
        {
          "internalType": "uint256",
          "name": "orgIndx",
          "type": "uint256"
        }
      ],
      "name": "checkorganizerisAdminOf",
      "outputs": [
        {
          "internalType": "bool",
          "name": "",
          "type": "bool"
        }
      ],
      "stateMutability": "view",
      "type": "function",
      "constant": true
    },
    {
      "inputs": [
        {
          "internalType": "uint256",
          "name": "organizer",
          "type": "uint256"
        },
        {
          "internalType": "uint256",
          "name": "orgIndx",
          "type": "uint256"
        }
      ],
      "name": "checkorganizerisAdminOf",
      "outputs": [
        {
          "internalType": "bool",
          "name": "",
          "type": "bool"
        }
      ],
      "stateMutability": "view",
      "type": "function",
      "constant": true
    },
    {
      "inputs": [
        {
          "internalType": "uint256",
          "name": "eventID",
          "type": "uint256"
        }
      ],
      "name": "eventGetMedal",
      "outputs": [
        {
          "internalType": "uint256",
          "name": "",
          "type": "uint256"
        }
      ],
      "stateMutability": "view",
      "type": "function",
      "constant": true
    },
    {
      "inputs": [
        {
          "internalType": "uint256",
          "name": "eventID",
          "type": "uint256"
        }
      ],
      "name": "eventGetPositionX",
      "outputs": [
        {
          "internalType": "string",
          "name": "",
          "type": "string"
        }
      ],
      "stateMutability": "view",
      "type": "function",
      "constant": true
    },
    {
      "inputs": [
        {
          "internalType": "uint256",
          "name": "eventID",
          "type": "uint256"
        }
      ],
      "name": "eventGetPositionY",
      "outputs": [
        {
          "internalType": "string",
          "name": "",
          "type": "string"
        }
      ],
      "stateMutability": "view",
      "type": "function",
      "constant": true
    },
    {
      "inputs": [
        {
          "internalType": "uint256",
          "name": "eventID",
          "type": "uint256"
        }
      ],
      "name": "eventGetWinner",
      "outputs": [
        {
          "internalType": "address",
          "name": "",
          "type": "address"
        }
      ],
      "stateMutability": "view",
      "type": "function",
      "constant": true
    },
    {
      "inputs": [
        {
          "internalType": "uint256",
          "name": "eventID",
          "type": "uint256"
        }
      ],
      "name": "eventHasMedal",
      "outputs": [
        {
          "internalType": "bool",
          "name": "",
          "type": "bool"
        }
      ],
      "stateMutability": "view",
      "type": "function",
      "constant": true
    },
    {
      "inputs": [
        {
          "internalType": "uint256",
          "name": "orgIndx",
          "type": "uint256"
        }
      ],
      "name": "getAdminList",
      "outputs": [
        {
          "internalType": "uint256[]",
          "name": "",
          "type": "uint256[]"
        }
      ],
      "stateMutability": "view",
      "type": "function",
      "constant": true
    },
    {
      "inputs": [
        {
          "internalType": "address",
          "name": "_user",
          "type": "address"
        }
      ],
      "name": "getAuthor",
      "outputs": [
        {
          "components": [
            {
              "internalType": "address",
              "name": "userAddress",
              "type": "address"
            },
            {
              "internalType": "uint256[]",
              "name": "creations",
              "type": "uint256[]"
            },
            {
              "internalType": "bool",
              "name": "activ",
              "type": "bool"
            }
          ],
          "internalType": "struct Author",
          "name": "",
          "type": "tuple"
        }
      ],
      "stateMutability": "view",
      "type": "function",
      "constant": true
    },
    {
      "inputs": [
        {
          "internalType": "address",
          "name": "_author",
          "type": "address"
        }
      ],
      "name": "getAuthorCreationsList",
      "outputs": [
        {
          "internalType": "uint256[]",
          "name": "",
          "type": "uint256[]"
        }
      ],
      "stateMutability": "view",
      "type": "function",
      "constant": true
    },
    {
      "inputs": [
        {
          "internalType": "uint256",
          "name": "_start",
          "type": "uint256"
        },
        {
          "internalType": "uint256",
          "name": "_end",
          "type": "uint256"
        }
      ],
      "name": "getCreationList",
      "outputs": [
        {
          "components": [
            {
              "internalType": "uint256",
              "name": "price",
              "type": "uint256"
            },
            {
              "internalType": "uint256",
              "name": "creationId",
              "type": "uint256"
            },
            {
              "internalType": "uint256",
              "name": "sportCategory",
              "type": "uint256"
            },
            {
              "internalType": "address",
              "name": "author",
              "type": "address"
            },
            {
              "internalType": "address",
              "name": "NFT_Bkg_Adr",
              "type": "address"
            },
            {
              "internalType": "string",
              "name": "description",
              "type": "string"
            },
            {
              "internalType": "string",
              "name": "URI",
              "type": "string"
            },
            {
              "internalType": "bool",
              "name": "activ",
              "type": "bool"
            }
          ],
          "internalType": "struct NFT_Medal_Bkg_Desc[]",
          "name": "",
          "type": "tuple[]"
        }
      ],
      "stateMutability": "view",
      "type": "function",
      "constant": true
    },
    {
      "inputs": [
        {
          "internalType": "uint256",
          "name": "eventId",
          "type": "uint256"
        }
      ],
      "name": "getEvent",
      "outputs": [
        {
          "components": [
            {
              "internalType": "uint256",
              "name": "eventId",
              "type": "uint256"
            },
            {
              "internalType": "uint256",
              "name": "sportCategory",
              "type": "uint256"
            },
            {
              "internalType": "uint256",
              "name": "organizedBy",
              "type": "uint256"
            },
            {
              "internalType": "address[]",
              "name": "registeredSportsMan",
              "type": "address[]"
            },
            {
              "internalType": "address",
              "name": "winner",
              "type": "address"
            },
            {
              "internalType": "uint256",
              "name": "startDate",
              "type": "uint256"
            },
            {
              "internalType": "uint256",
              "name": "endDate",
              "type": "uint256"
            },
            {
              "internalType": "uint256",
              "name": "medalID",
              "type": "uint256"
            },
            {
              "internalType": "string",
              "name": "eventDescription",
              "type": "string"
            },
            {
              "internalType": "string",
              "name": "positionX",
              "type": "string"
            },
            {
              "internalType": "string",
              "name": "positionY",
              "type": "string"
            },
            {
              "internalType": "bool",
              "name": "hasMedal",
              "type": "bool"
            },
            {
              "internalType": "bool",
              "name": "activ",
              "type": "bool"
            },
            {
              "internalType": "bool",
              "name": "ended",
              "type": "bool"
            },
            {
              "internalType": "bool",
              "name": "started",
              "type": "bool"
            },
            {
              "internalType": "enum stateOfCompetition",
              "name": "eventState",
              "type": "uint8"
            }
          ],
          "internalType": "struct EventHandler.EventDesc",
          "name": "",
          "type": "tuple"
        }
      ],
      "stateMutability": "view",
      "type": "function",
      "constant": true
    },
    {
      "inputs": [],
      "name": "getEventCount",
      "outputs": [
        {
          "internalType": "uint256",
          "name": "",
          "type": "uint256"
        }
      ],
      "stateMutability": "view",
      "type": "function",
      "constant": true
    },
    {
      "inputs": [
        {
          "internalType": "uint256",
          "name": "evntID",
          "type": "uint256"
        }
      ],
      "name": "getEventCurrentState",
      "outputs": [
        {
          "internalType": "enum stateOfCompetition",
          "name": "",
          "type": "uint8"
        }
      ],
      "stateMutability": "view",
      "type": "function",
      "constant": true
    },
    {
      "inputs": [
        {
          "internalType": "uint256",
          "name": "_start",
          "type": "uint256"
        },
        {
          "internalType": "uint256",
          "name": "_end",
          "type": "uint256"
        }
      ],
      "name": "getEventList",
      "outputs": [
        {
          "components": [
            {
              "internalType": "uint256",
              "name": "eventId",
              "type": "uint256"
            },
            {
              "internalType": "uint256",
              "name": "sportCategory",
              "type": "uint256"
            },
            {
              "internalType": "uint256",
              "name": "organizedBy",
              "type": "uint256"
            },
            {
              "internalType": "address[]",
              "name": "registeredSportsMan",
              "type": "address[]"
            },
            {
              "internalType": "address",
              "name": "winner",
              "type": "address"
            },
            {
              "internalType": "uint256",
              "name": "startDate",
              "type": "uint256"
            },
            {
              "internalType": "uint256",
              "name": "endDate",
              "type": "uint256"
            },
            {
              "internalType": "uint256",
              "name": "medalID",
              "type": "uint256"
            },
            {
              "internalType": "string",
              "name": "eventDescription",
              "type": "string"
            },
            {
              "internalType": "string",
              "name": "positionX",
              "type": "string"
            },
            {
              "internalType": "string",
              "name": "positionY",
              "type": "string"
            },
            {
              "internalType": "bool",
              "name": "hasMedal",
              "type": "bool"
            },
            {
              "internalType": "bool",
              "name": "activ",
              "type": "bool"
            },
            {
              "internalType": "bool",
              "name": "ended",
              "type": "bool"
            },
            {
              "internalType": "bool",
              "name": "started",
              "type": "bool"
            },
            {
              "internalType": "enum stateOfCompetition",
              "name": "eventState",
              "type": "uint8"
            }
          ],
          "internalType": "struct EventHandler.EventDesc[]",
          "name": "",
          "type": "tuple[]"
        }
      ],
      "stateMutability": "view",
      "type": "function",
      "constant": true
    },
    {
      "inputs": [
        {
          "internalType": "uint256",
          "name": "orgId",
          "type": "uint256"
        }
      ],
      "name": "getEventList",
      "outputs": [
        {
          "internalType": "uint256[]",
          "name": "",
          "type": "uint256[]"
        }
      ],
      "stateMutability": "view",
      "type": "function",
      "constant": true
    },
    {
      "inputs": [
        {
          "internalType": "uint256",
          "name": "medalID",
          "type": "uint256"
        }
      ],
      "name": "getMedal",
      "outputs": [
        {
          "components": [
            {
              "internalType": "address",
              "name": "throwIn",
              "type": "address"
            },
            {
              "internalType": "address",
              "name": "winner",
              "type": "address"
            },
            {
              "internalType": "uint256",
              "name": "organizationID",
              "type": "uint256"
            },
            {
              "internalType": "uint256",
              "name": "eventID",
              "type": "uint256"
            },
            {
              "internalType": "bool",
              "name": "isInWinnerGallery",
              "type": "bool"
            }
          ],
          "internalType": "struct Medal",
          "name": "",
          "type": "tuple"
        }
      ],
      "stateMutability": "view",
      "type": "function",
      "constant": true
    },
    {
      "inputs": [],
      "name": "getMedalCount",
      "outputs": [
        {
          "internalType": "uint256",
          "name": "",
          "type": "uint256"
        }
      ],
      "stateMutability": "view",
      "type": "function",
      "constant": true
    },
    {
      "inputs": [],
      "name": "getNumberOfSportsman",
      "outputs": [
        {
          "internalType": "uint256",
          "name": "",
          "type": "uint256"
        }
      ],
      "stateMutability": "view",
      "type": "function",
      "constant": true
    },
    {
      "inputs": [],
      "name": "getOrganisationCount",
      "outputs": [
        {
          "internalType": "uint256",
          "name": "",
          "type": "uint256"
        }
      ],
      "stateMutability": "view",
      "type": "function",
      "constant": true
    },
    {
      "inputs": [
        {
          "internalType": "uint256",
          "name": "orgID",
          "type": "uint256"
        }
      ],
      "name": "getOrganizationName",
      "outputs": [
        {
          "internalType": "string",
          "name": "",
          "type": "string"
        }
      ],
      "stateMutability": "view",
      "type": "function",
      "constant": true
    },
    {
      "inputs": [
        {
          "internalType": "uint256",
          "name": "_start",
          "type": "uint256"
        },
        {
          "internalType": "uint256",
          "name": "_end",
          "type": "uint256"
        }
      ],
      "name": "getOrganizationsList",
      "outputs": [
        {
          "components": [
            {
              "internalType": "string",
              "name": "name",
              "type": "string"
            },
            {
              "internalType": "string",
              "name": "description",
              "type": "string"
            },
            {
              "internalType": "string",
              "name": "logoURI",
              "type": "string"
            },
            {
              "internalType": "bool",
              "name": "activ",
              "type": "bool"
            }
          ],
          "internalType": "struct OrganizerHandler.organizationDesc[]",
          "name": "",
          "type": "tuple[]"
        }
      ],
      "stateMutability": "view",
      "type": "function",
      "constant": true
    },
    {
      "inputs": [
        {
          "internalType": "uint256",
          "name": "id",
          "type": "uint256"
        }
      ],
      "name": "getOrganizerAddressById",
      "outputs": [
        {
          "internalType": "address",
          "name": "",
          "type": "address"
        }
      ],
      "stateMutability": "view",
      "type": "function",
      "constant": true
    },
    {
      "inputs": [
        {
          "internalType": "address",
          "name": "_user",
          "type": "address"
        }
      ],
      "name": "getOrganizerOrganisationList",
      "outputs": [
        {
          "internalType": "uint256[]",
          "name": "",
          "type": "uint256[]"
        }
      ],
      "stateMutability": "view",
      "type": "function",
      "constant": true
    },
    {
      "inputs": [
        {
          "internalType": "address",
          "name": "sportsmanId",
          "type": "address"
        }
      ],
      "name": "getSportsManEventsNumber",
      "outputs": [
        {
          "internalType": "uint256",
          "name": "",
          "type": "uint256"
        }
      ],
      "stateMutability": "view",
      "type": "function",
      "constant": true
    },
    {
      "inputs": [
        {
          "internalType": "address",
          "name": "sportsmanId",
          "type": "address"
        }
      ],
      "name": "getSportsmanEventsSubscriptions",
      "outputs": [
        {
          "internalType": "uint256[]",
          "name": "",
          "type": "uint256[]"
        }
      ],
      "stateMutability": "view",
      "type": "function",
      "constant": true
    },
    {
      "inputs": [
        {
          "internalType": "uint256",
          "name": "_start",
          "type": "uint256"
        },
        {
          "internalType": "uint256",
          "name": "_end",
          "type": "uint256"
        }
      ],
      "name": "getSportsmanList",
      "outputs": [
        {
          "components": [
            {
              "internalType": "address",
              "name": "userAddress",
              "type": "address"
            },
            {
              "internalType": "uint256",
              "name": "sportCategory",
              "type": "uint256"
            },
            {
              "internalType": "uint256",
              "name": "nbActivSubscriptions",
              "type": "uint256"
            },
            {
              "internalType": "bool",
              "name": "activ",
              "type": "bool"
            }
          ],
          "internalType": "struct SportsmanHandler.SportsmanDesc[]",
          "name": "",
          "type": "tuple[]"
        }
      ],
      "stateMutability": "view",
      "type": "function",
      "constant": true
    },
    {
      "inputs": [
        {
          "internalType": "address",
          "name": "sportsmanId",
          "type": "address"
        },
        {
          "internalType": "uint256",
          "name": "indx",
          "type": "uint256"
        }
      ],
      "name": "getSportsmanMedal",
      "outputs": [
        {
          "internalType": "uint256",
          "name": "",
          "type": "uint256"
        }
      ],
      "stateMutability": "view",
      "type": "function",
      "constant": true
    },
    {
      "inputs": [
        {
          "internalType": "address",
          "name": "sportsmanId",
          "type": "address"
        }
      ],
      "name": "getSportsmanMedalCount",
      "outputs": [
        {
          "internalType": "uint256",
          "name": "",
          "type": "uint256"
        }
      ],
      "stateMutability": "view",
      "type": "function",
      "constant": true
    },
    {
      "inputs": [
        {
          "internalType": "address",
          "name": "sportsmanId",
          "type": "address"
        }
      ],
      "name": "getSportsmanMedalList",
      "outputs": [
        {
          "internalType": "uint256[]",
          "name": "",
          "type": "uint256[]"
        }
      ],
      "stateMutability": "view",
      "type": "function",
      "constant": true
    },
    {
      "inputs": [],
      "name": "getUserCount",
      "outputs": [
        {
          "internalType": "uint256",
          "name": "",
          "type": "uint256"
        }
      ],
      "stateMutability": "view",
      "type": "function",
      "constant": true
    },
    {
      "inputs": [
        {
          "internalType": "address",
          "name": "_userAdr",
          "type": "address"
        }
      ],
      "name": "getUserDetails",
      "outputs": [
        {
          "components": [
            {
              "internalType": "string",
              "name": "iconURI",
              "type": "string"
            },
            {
              "internalType": "string",
              "name": "userName",
              "type": "string"
            },
            {
              "internalType": "string",
              "name": "email",
              "type": "string"
            },
            {
              "internalType": "uint8",
              "name": "role",
              "type": "uint8"
            },
            {
              "internalType": "bool",
              "name": "activ",
              "type": "bool"
            }
          ],
          "internalType": "struct User",
          "name": "",
          "type": "tuple"
        }
      ],
      "stateMutability": "view",
      "type": "function",
      "constant": true
    },
    {
      "inputs": [
        {
          "internalType": "uint256",
          "name": "eventId",
          "type": "uint256"
        }
      ],
      "name": "getWinner",
      "outputs": [
        {
          "internalType": "address",
          "name": "",
          "type": "address"
        }
      ],
      "stateMutability": "view",
      "type": "function",
      "constant": true
    },
    {
      "inputs": [
        {
          "internalType": "uint256",
          "name": "orgId",
          "type": "uint256"
        },
        {
          "internalType": "address",
          "name": "_user",
          "type": "address"
        }
      ],
      "name": "organizationAddAdmin",
      "outputs": [],
      "stateMutability": "nonpayable",
      "type": "function"
    },
    {
      "inputs": [],
      "name": "owner",
      "outputs": [
        {
          "internalType": "address",
          "name": "",
          "type": "address"
        }
      ],
      "stateMutability": "view",
      "type": "function",
      "constant": true
    },
    {
      "inputs": [
        {
          "internalType": "uint256",
          "name": "",
          "type": "uint256"
        }
      ],
      "name": "registeredAuthors",
      "outputs": [
        {
          "internalType": "address",
          "name": "",
          "type": "address"
        }
      ],
      "stateMutability": "view",
      "type": "function",
      "constant": true
    },
    {
      "inputs": [
        {
          "internalType": "uint256",
          "name": "",
          "type": "uint256"
        }
      ],
      "name": "registeredSportsman",
      "outputs": [
        {
          "internalType": "address",
          "name": "",
          "type": "address"
        }
      ],
      "stateMutability": "view",
      "type": "function",
      "constant": true
    },
    {
      "inputs": [
        {
          "internalType": "uint256",
          "name": "",
          "type": "uint256"
        }
      ],
      "name": "registeredUsers",
      "outputs": [
        {
          "internalType": "address",
          "name": "",
          "type": "address"
        }
      ],
      "stateMutability": "view",
      "type": "function",
      "constant": true
    },
    {
      "inputs": [],
      "name": "renounceOwnership",
      "outputs": [],
      "stateMutability": "nonpayable",
      "type": "function"
    },
    {
      "inputs": [
        {
          "internalType": "address",
          "name": "newOwner",
          "type": "address"
        }
      ],
      "name": "transferOwnership",
      "outputs": [],
      "stateMutability": "nonpayable",
      "type": "function"
    },
    {
      "inputs": [
        {
          "internalType": "address",
          "name": "_userAddress",
          "type": "address"
        },
        {
          "internalType": "string",
          "name": "_iconURI",
          "type": "string"
        },
        {
          "internalType": "string",
          "name": "_userName",
          "type": "string"
        },
        {
          "internalType": "string",
          "name": "_email",
          "type": "string"
        },
        {
          "internalType": "uint8",
          "name": "_role",
          "type": "uint8"
        },
        {
          "internalType": "uint256",
          "name": "_sportsCategory",
          "type": "uint256"
        }
      ],
      "name": "addNewUser",
      "outputs": [],
      "stateMutability": "nonpayable",
      "type": "function"
    },
    {
      "inputs": [
        {
          "internalType": "address",
          "name": "_userAddress",
          "type": "address"
        },
        {
          "internalType": "uint256",
          "name": "eventid",
          "type": "uint256"
        }
      ],
      "name": "LinkUserAndEvent",
      "outputs": [],
      "stateMutability": "nonpayable",
      "type": "function"
    },
    {
      "inputs": [
        {
          "internalType": "uint256",
          "name": "organizationId",
          "type": "uint256"
        },
        {
          "internalType": "uint256",
          "name": "startDate",
          "type": "uint256"
        },
        {
          "internalType": "uint256",
          "name": "endDate",
          "type": "uint256"
        },
        {
          "internalType": "uint256",
          "name": "sportsCategory",
          "type": "uint256"
        },
        {
          "internalType": "string",
          "name": "eventDesc",
          "type": "string"
        }
      ],
      "name": "newEvent",
      "outputs": [],
      "stateMutability": "nonpayable",
      "type": "function"
    },
    {
      "inputs": [
        {
          "internalType": "uint256",
          "name": "eventID",
          "type": "uint256"
        }
      ],
      "name": "adminStartEvent",
      "outputs": [],
      "stateMutability": "nonpayable",
      "type": "function"
    },
    {
      "inputs": [
        {
          "internalType": "uint256",
          "name": "eventID",
          "type": "uint256"
        }
      ],
      "name": "adminEndEvent",
      "outputs": [],
      "stateMutability": "nonpayable",
      "type": "function"
    },
    {
      "inputs": [
        {
          "internalType": "uint256",
          "name": "eventID",
          "type": "uint256"
        },
        {
          "internalType": "address",
          "name": "winner",
          "type": "address"
        }
      ],
      "name": "adminSetWinner",
      "outputs": [],
      "stateMutability": "nonpayable",
      "type": "function"
    },
    {
      "inputs": [
        {
          "internalType": "uint256",
          "name": "eventID",
          "type": "uint256"
        },
        {
          "internalType": "address",
          "name": "_nft",
          "type": "address"
        }
      ],
      "name": "adminAddMedal",
      "outputs": [],
      "stateMutability": "nonpayable",
      "type": "function"
    },
    {
      "inputs": [
        {
          "internalType": "uint256",
          "name": "eventID",
          "type": "uint256"
        }
      ],
      "name": "adminGiveMedalToWinner",
      "outputs": [],
      "stateMutability": "nonpayable",
      "type": "function"
    },
    {
      "inputs": [
        {
          "internalType": "uint256",
          "name": "medalIndx",
          "type": "uint256"
        },
        {
          "internalType": "bool",
          "name": "status",
          "type": "bool"
        }
      ],
      "name": "publishMedal",
      "outputs": [],
      "stateMutability": "nonpayable",
      "type": "function"
    },
    {
      "inputs": [
        {
          "internalType": "uint256",
          "name": "eventID",
          "type": "uint256"
        },
        {
          "internalType": "string",
          "name": "posX",
          "type": "string"
        },
        {
          "internalType": "string",
          "name": "posY",
          "type": "string"
        }
      ],
      "name": "adminSetEventPosition",
      "outputs": [],
      "stateMutability": "nonpayable",
      "type": "function"
    }
  ],
  "bytecode": "0x60806040523480156200001157600080fd5b5062000026620000206200002c565b62000030565b62000080565b3390565b600080546001600160a01b038381166001600160a01b0319831681178455604051919092169283917f8be0079c531659141344cd1fd0a4f28419497f9722a3daafe3b4186f6b6457e09190a35050565b615eeb80620000906000396000f3fe608060405234801561001057600080fd5b506004361061035d5760003560e01c80638ed1891d116101d3578063d4a0e8ad11610104578063f5ad8cda116100a2578063fbf5f1991161007c578063fbf5f19914610799578063fd395fc5146107ac578063fd7f1b54146107cc578063fe4363a3146107df5761035d565b8063f5ad8cda14610760578063fb87aa4214610773578063fbcbd067146107865761035d565b8063e56afc75116100de578063e56afc7514610714578063eebd127414610727578063f022f3551461073a578063f2fde38b1461074d5761035d565b8063d4a0e8ad146106e6578063d7bc151a146106f9578063d9e48f5c1461070c5761035d565b8063b5cb15f711610171578063c88872491161014b578063c88872491461068b578063cc3d967b146106ab578063cd284f65146106cb578063ce7c5d9d146106de5761035d565b8063b5cb15f714610650578063b700389f14610658578063c46f05b9146106785761035d565b80639847587a116101ad5780639847587a1461060f578063ad97046314610622578063ade03dbf14610635578063b082b9c7146106485761035d565b80638ed1891d146105d65780639107e879146105e957806391850ab3146105fc5761035d565b80634dbc196c116102ad5780636d1884e01161024b57806375bb71741161022557806375bb7174146105935780637990b3671461059b578063826226bf146105ae5780638da5cb5b146105ce5761035d565b80636d1884e014610558578063715018a6146105785780637259e0f8146105805761035d565b806355d97b3f1161028757806355d97b3f146104ff5780635a473e251461051f5780635b4c4b20146105325780636ccf16b0146105455761035d565b80634dbc196c146104b25780635336abb5146104c557806354abd15f146104ec5761035d565b8063292e20ee1161031a57806338caac65116102f457806338caac65146104595780633a6526fb1461046c5780633da21e3a1461047f5780634129b2c9146104925761035d565b8063292e20ee146104065780632bd0e1cc1461041957806335d3339e146104395761035d565b80630ab30093146103625780630d4f284a1461038b5780631b4a4397146103a057806320ad6864146103c057806323708737146103d35780632605d9a7146103e6575b600080fd5b610375610370366004614fb9565b6107ff565b6040516103829190615c1a565b60405180910390f35b61039e61039936600461511d565b6108d3565b005b6103b36103ae3660046152e2565b610913565b6040516103829190615d36565b61039e6103ce3660046151e6565b6109e5565b61039e6103e1366004615258565b610a90565b6103f96103f43660046151e6565b610ad5565b6040516103829190615804565b61039e6104143660046152e2565b610b0b565b61042c610427366004614fb9565b610bea565b60405161038291906157d1565b61044c6104473660046152c1565b610c59565b6040516103829190615582565b6103b36104673660046151e6565b611112565b6103b361047a366004614fb9565b611181565b6103b361048d36600461511d565b6111a0565b6104a56104a03660046151e6565b61122a565b6040516103829190615555565b6104a56104c03660046151e6565b611284565b6104d86104d33660046151e6565b6112ae565b604051610382989796959493929190615d78565b61039e6104fa3660046151fe565b611426565b61051261050d3660046151e6565b61151f565b6040516103829190615812565b6104a561052d3660046151e6565b611616565b6105126105403660046151e6565b61168f565b61042c6105533660046151e6565b61176b565b61056b6105663660046151e6565b6117f8565b6040516103829190615c60565b61039e611b60565b6104a561058e3660046151e6565b611bab565b6103b3611bbb565b6104a56105a93660046151e6565b611bc1565b6105c16105bc3660046151e6565b611bd1565b60405161038291906157e4565b6104a5611c0f565b61039e6105e43660046151e6565b611c1e565b61042c6105f7366004614fb9565b611c5a565b61042c61060a366004614fb9565b611d2b565b6103b361061d366004614fb9565b611f4b565b61039e610630366004615146565b611f94565b61039e610643366004615229565b6121c4565b6103b36121dc565b6103b36121e2565b61066b6106663660046151e6565b6121e8565b6040516103829190615c73565b61042c6106863660046151e6565b612298565b61069e6106993660046152c1565b612454565b60405161038291906155e2565b6106be6106b9366004614fb9565b61288f565b6040516103829190615cb8565b61039e6106d93660046151fe565b612abc565b6103b3612b7e565b61039e6106f43660046151e6565b612b84565b61039e6107073660046151fe565b612bc0565b6103b3612c5d565b61039e6107223660046151fe565b612c63565b61042c610735366004614fb9565b612dc4565b6105c16107483660046151e6565b612f25565b61039e61075b366004614fb9565b612f98565b61039e61076e366004615067565b613009565b6104a56107813660046151e6565b6130c2565b61039e610794366004614fd3565b613119565b6105c16107a73660046152c1565b613272565b6107bf6107ba3660046152c1565b613381565b60405161038291906156c5565b6105126107da3660046151e6565b61353f565b6107f26107ed3660046152c1565b6135ae565b6040516103829190615734565b610807614c99565b816001600160a01b0381166108375760405162461bcd60e51b815260040161082e90615bee565b60405180910390fd5b6001600160a01b038084166000908152600360209081526040918290208251606081018452815490941684526001810180548451818502810185019095528085529193858401939092908301828280156108b057602002820191906000526020600020905b81548152602001906001019080831161089c575b50505091835250506002919091015460ff16151560209091015291505b50919050565b816001600160a01b0381166108fa5760405162461bcd60e51b815260040161082e90615bee565b6109048284613969565b61090e8383613a3b565b505050565b6009546000818152600860208181526040832093845560028401899055600584018890556006840187905560018401869055600b8401805461ff0019166101001790556004840180546001600160a01b0319169055845192939261097c92840191860190614cc5565b50600b8101805464ff00000000191690556009546040517fb74b81e22ed2c551cf1d61041f3314bcb4dc74e133a311f76c5de475735b0264916109be91615d36565b60405180910390a1600980549060006109d683615e60565b90915550979650505050505050565b8060006109f182613bb3565b90506109fc81611bd1565b610a185760405162461bcd60e51b815260040161082e90615b97565b6000610a238461122a565b90506001600160a01b038116610a4b5760405162461bcd60e51b815260040161082e90615a43565b610a5484612f25565b610a5d57600080fd5b610a6f610a6985611112565b82613c22565b610a7884613ca1565b610a8a81610a8586611112565b613e31565b50505050565b826000610a9c82613bb3565b9050610aa781611bd1565b610ac35760405162461bcd60e51b815260040161082e90615b97565b610ace858585613e9e565b5050505050565b6000600881610ae5600185615dfd565b81526020810191909152604001600020600b0154600160201b900460ff1690505b919050565b8380610b295760405162461bcd60e51b815260040161082e90615a6f565b8380610b475760405162461bcd60e51b815260040161082e90615a6f565b858511610b665760405162461bcd60e51b815260040161082e9061592a565b336000908152600b602052604090205480610b935760405162461bcd60e51b815260040161082e90615825565b610b9d8189613272565b610bb95760405162461bcd60e51b815260040161082e90615b97565b6000610bc88989898989610913565b9050610bdf828a610bda846001615de5565b613f49565b505050505050505050565b6001600160a01b038116600090815260066020818152604092839020909101805483518184028101840190945280845260609392830182828015610c4d57602002820191906000526020600020905b815481526020019060010190808311610c39575b50505050509050919050565b60606009548060001415610c7f5760405162461bcd60e51b815260040161082e90615a6f565b8380610c9d5760405162461bcd60e51b815260040161082e90615a6f565b84610ca781615e14565b9550508380610cb590615e14565b94505083851115610cc557600080fd5b6009548510610ce65760405162461bcd60e51b815260040161082e90615b02565b6009548410610d01576001600954610cfe9190615dfd565b93505b6000610d0d8686615dfd565b610d18906001615de5565b6001600160401b03811115610d3d57634e487b7160e01b600052604160045260246000fd5b604051908082528060200260200182016040528015610d7657816020015b610d63614d49565b815260200190600190039081610d5b5790505b509050855b85811161110857600081815260086020908152604091829020825161020081018452815481526001820154818401526002820154818501526003820180548551818602810186019096528086529194929360608601939290830182828015610e0c57602002820191906000526020600020905b81546001600160a01b03168152600190910190602001808311610dee575b505050918352505060048201546001600160a01b0316602082015260058201546040820152600682015460608201526007820154608082015260088201805460a090920191610e5a90615e2b565b80601f0160208091040260200160405190810160405280929190818152602001828054610e8690615e2b565b8015610ed35780601f10610ea857610100808354040283529160200191610ed3565b820191906000526020600020905b815481529060010190602001808311610eb657829003601f168201915b50505050508152602001600982018054610eec90615e2b565b80601f0160208091040260200160405190810160405280929190818152602001828054610f1890615e2b565b8015610f655780601f10610f3a57610100808354040283529160200191610f65565b820191906000526020600020905b815481529060010190602001808311610f4857829003601f168201915b50505050508152602001600a82018054610f7e90615e2b565b80601f0160208091040260200160405190810160405280929190818152602001828054610faa90615e2b565b8015610ff75780601f10610fcc57610100808354040283529160200191610ff7565b820191906000526020600020905b815481529060010190602001808311610fda57829003601f168201915b5050509183525050600b82015460ff8082161515602084015261010082048116151560408401526201000082048116151560608401526301000000820481161515608084015260a090920191600160201b90910416600381111561106b57634e487b7160e01b600052602160045260246000fd5b600381111561108a57634e487b7160e01b600052602160045260246000fd5b815250508282815181106110ae57634e487b7160e01b600052603260045260246000fd5b602002602001018190525060018282815181106110db57634e487b7160e01b600052603260045260246000fd5b60200260200101516000018181516110f39190615de5565b9052508061110081615e60565b915050610d7b565b5095945050505050565b600081600954808211156111385760405162461bcd60e51b815260040161082e9061585c565b83806111565760405162461bcd60e51b815260040161082e90615a6f565b60086000611165600188615dfd565b8152602001908152602001600020600701549350505050919050565b6001600160a01b03166000908152600660208190526040909120015490565b6001600160a01b03821660009081526006602081905260408220015482106111da5760405162461bcd60e51b815260040161082e906158ff565b6001600160a01b03831660009081526006602081905260409091200180548390811061121657634e487b7160e01b600052603260045260246000fd5b906000526020600020015490505b92915050565b600081600954808211156112505760405162461bcd60e51b815260040161082e9061585c565b6008600061125f600187615dfd565b81526020810191909152604001600020600401546001600160a01b0316949350505050565b6007818154811061129457600080fd5b6000918252602090912001546001600160a01b0316905081565b600581815481106112be57600080fd5b6000918252602090912060089091020180546001820154600283015460038401546004850154600586018054959750939592946001600160a01b039283169491909216929161130c90615e2b565b80601f016020809104026020016040519081016040528092919081815260200182805461133890615e2b565b80156113855780601f1061135a57610100808354040283529160200191611385565b820191906000526020600020905b81548152906001019060200180831161136857829003601f168201915b50505050509080600601805461139a90615e2b565b80601f01602080910402602001604051908101604052809291908181526020018280546113c690615e2b565b80156114135780601f106113e857610100808354040283529160200191611413565b820191906000526020600020905b8154815290600101906020018083116113f657829003601f168201915b5050506007909301549192505060ff1688565b81600061143282613bb3565b905061143d81611bd1565b6114595760405162461bcd60e51b815260040161082e90615b97565b6040516301ffc9a760e01b81526001600160a01b038416906301ffc9a79061148c906380ac58cd60e01b906004016157ef565b60206040518083038186803b1580156114a457600080fd5b505afa1580156114b8573d6000803e3d6000fd5b505050506040513d601f19601f820116820180604052508101906114dc91906151ca565b5060006114e885613bb3565b90506114f5848287613fdb565b60006001611501612b7e565b61150b9190615dfd565b9050611517868261415b565b505050505050565b606081600954808211156115455760405162461bcd60e51b815260040161082e9061585c565b83806115635760405162461bcd60e51b815260040161082e90615a6f565b60086000611572600188615dfd565b8152602001908152602001600020600a01805461158e90615e2b565b80601f01602080910402602001604051908101604052809291908181526020018280546115ba90615e2b565b80156116075780601f106115dc57610100808354040283529160200191611607565b820191906000526020600020905b8154815290600101906020018083116115ea57829003601f168201915b50505050509350505050919050565b6000816009548082111561163c5760405162461bcd60e51b815260040161082e9061585c565b838061165a5760405162461bcd60e51b815260040161082e90615a6f565b60086000611669600188615dfd565b81526020810191909152604001600020600401546001600160a01b031695945050505050565b600c5460609082106116b35760405162461bcd60e51b815260040161082e90615bc2565b600c82815481106116d457634e487b7160e01b600052603260045260246000fd5b906000526020600020906006020160020180546116f090615e2b565b80601f016020809104026020016040519081016040528092919081815260200182805461171c90615e2b565b8015610c4d5780601f1061173e57610100808354040283529160200191610c4d565b820191906000526020600020905b81548152906001019060200180831161174c5750939695505050505050565b60606000600c838154811061179057634e487b7160e01b600052603260045260246000fd5b90600052602060002090600602016001018054806020026020016040519081016040528092919081815260200182805480156117eb57602002820191906000526020600020905b8154815260200190600101908083116117d7575b5093979650505050505050565b611800614d49565b818061181e5760405162461bcd60e51b815260040161082e90615a6f565b600060088161182e600187615dfd565b815260200190815260200160002060405180610200016040529081600082015481526020016001820154815260200160028201548152602001600382018054806020026020016040519081016040528092919081815260200182805480156118bf57602002820191906000526020600020905b81546001600160a01b031681526001909101906020018083116118a1575b505050918352505060048201546001600160a01b0316602082015260058201546040820152600682015460608201526007820154608082015260088201805460a09092019161190d90615e2b565b80601f016020809104026020016040519081016040528092919081815260200182805461193990615e2b565b80156119865780601f1061195b57610100808354040283529160200191611986565b820191906000526020600020905b81548152906001019060200180831161196957829003601f168201915b5050505050815260200160098201805461199f90615e2b565b80601f01602080910402602001604051908101604052809291908181526020018280546119cb90615e2b565b8015611a185780601f106119ed57610100808354040283529160200191611a18565b820191906000526020600020905b8154815290600101906020018083116119fb57829003601f168201915b50505050508152602001600a82018054611a3190615e2b565b80601f0160208091040260200160405190810160405280929190818152602001828054611a5d90615e2b565b8015611aaa5780601f10611a7f57610100808354040283529160200191611aaa565b820191906000526020600020905b815481529060010190602001808311611a8d57829003601f168201915b5050509183525050600b82015460ff8082161515602084015261010082048116151560408401526201000082048116151560608401526301000000820481161515608084015260a090920191600160201b909104166003811115611b1e57634e487b7160e01b600052602160045260246000fd5b6003811115611b3d57634e487b7160e01b600052602160045260246000fd5b815250509050600181600001818151611b569190615de5565b9052509392505050565b611b686141d2565b6001600160a01b0316611b79611c0f565b6001600160a01b031614611b9f5760405162461bcd60e51b815260040161082e90615acd565b611ba960006141d6565b565b6002818154811061129457600080fd5b60075490565b6004818154811061129457600080fd5b336000908152600b602052604081205480611bfe5760405162461bcd60e51b815260040161082e90615825565b611c088184613272565b9392505050565b6000546001600160a01b031690565b806000611c2a82613bb3565b9050611c3581611bd1565b611c515760405162461bcd60e51b815260040161082e90615b97565b61090e83614226565b6060816001600160a01b038116611c835760405162461bcd60e51b815260040161082e90615bee565b6001600160a01b03831660009081526003602052604090206001015480611cbc5760405162461bcd60e51b815260040161082e90615a6f565b6001600160a01b03841660009081526003602090815260409182902060010180548351818402810184019094528084529091830182828015611d1d57602002820191906000526020600020905b815481526020019060010190808311611d09575b505050505092505050919050565b6001600160a01b0381166000908152600b602052604090205460609080611d645760405162461bcd60e51b815260040161082e906158c8565b80611d6e81615e14565b9150506000600a8281548110611d9457634e487b7160e01b600052603260045260246000fd5b906000526020600020906004020160020154905060008111611dc85760405162461bcd60e51b815260040161082e906159f8565b6000816001600160401b03811115611df057634e487b7160e01b600052604160045260246000fd5b604051908082528060200260200182016040528015611e19578160200160208202803683370190505b5090506000805b600c54811015611f40576000600a8681548110611e4d57634e487b7160e01b600052603260045260246000fd5b90600052602060002090600402016001018281548110611e7d57634e487b7160e01b600052603260045260246000fd5b90600052602060002001541115611f2e576001600a8681548110611eb157634e487b7160e01b600052603260045260246000fd5b90600052602060002090600402016001018281548110611ee157634e487b7160e01b600052603260045260246000fd5b9060005260206000200154611ef69190615dfd565b8383611f0181615e60565b945081518110611f2157634e487b7160e01b600052603260045260246000fd5b6020026020010181815250505b80611f3881615e60565b915050611e20565b509095945050505050565b6000816001600160a01b038116611f745760405162461bcd60e51b815260040161082e90615bee565b50506001600160a01b031660009081526006602052604090206005015490565b611f9c6141d2565b6001600160a01b0316611fad611c0f565b6001600160a01b031614611fd35760405162461bcd60e51b815260040161082e90615acd565b846001600160a01b038116611ffa5760405162461bcd60e51b815260040161082e90615bee565b6001600160a01b0386166000908152600360205260409020600281015460ff166120365760405162461bcd60e51b815260040161082e906159d2565b600580546001808201808455600084815260408051610100810182528c8152602081018690529081018b90526001600160a01b038d166060820152608081019190915260a0810189905260c0810188905260e081019290925291929091839081106120b157634e487b7160e01b600052603260045260246000fd5b600091825260209182902083516008909202019081558282015160018201556040830151600282015560608301516003820180546001600160a01b039283166001600160a01b031991821617909155608085015160048401805491909316911617905560a08301518051919261212f92600585019290910190614cc5565b5060c0820151805161214b916006840191602090910190614cc5565b5060e091909101516007909101805460ff1916911515919091179055600182810180549182018155600090815260209020018190556040517f6ebd5b45b68b36b036925496b54a9c90f49bdc2a23cf8fb9d7f92e13eb113c15906121b2908a908490615569565b60405180910390a15050505050505050565b60006121d033846111a0565b905061090e8183614397565b600c5490565b60025490565b6121f0614df5565b600d54829081106122135760405162461bcd60e51b815260040161082e90615b69565b600d838154811061223457634e487b7160e01b600052603260045260246000fd5b60009182526020918290206040805160a081018252600590930290910180546001600160a01b039081168452600182015416938301939093526002830154908201526003820154606082015260049091015460ff1615156080820152915050919050565b600c5460609082908082106122ac57600080fd5b60006122b785614403565b90506000816001600160401b038111156122e157634e487b7160e01b600052604160045260246000fd5b60405190808252806020026020018201604052801561230a578160200160208202803683370190505b50905060005b600c878154811061233157634e487b7160e01b600052603260045260246000fd5b6000918252602090912060069091020154811015611108576000600c888154811061236c57634e487b7160e01b600052603260045260246000fd5b9060005260206000209060060201600001828154811061239c57634e487b7160e01b600052603260045260246000fd5b90600052602060002001541115612442576001600c88815481106123d057634e487b7160e01b600052603260045260246000fd5b9060005260206000209060060201600001828154811061240057634e487b7160e01b600052603260045260246000fd5b90600052602060002001546124159190615dfd565b82828151811061243557634e487b7160e01b600052603260045260246000fd5b6020026020010181815250505b8061244c81615e60565b915050612310565b600554606090806124775760405162461bcd60e51b815260040161082e90615a6f565b8284111561248457600080fd5b60055484106124a55760405162461bcd60e51b815260040161082e90615b02565b60055483106124c0576005546124bd90600190615dfd565b92505b60006124cc8585615dfd565b6124d7906001615de5565b6001600160401b038111156124fc57634e487b7160e01b600052604160045260246000fd5b60405190808252806020026020018201604052801561253557816020015b612522614e23565b81526020019060019003908161251a5790505b509050845b848111612886576040518061010001604052806005838154811061256e57634e487b7160e01b600052603260045260246000fd5b9060005260206000209060080201600001548152602001600583815481106125a657634e487b7160e01b600052603260045260246000fd5b9060005260206000209060080201600101548152602001600583815481106125de57634e487b7160e01b600052603260045260246000fd5b90600052602060002090600802016002015481526020016005838154811061261657634e487b7160e01b600052603260045260246000fd5b6000918252602091829020600360089092020101546001600160a01b031682526005805492909101918490811061265d57634e487b7160e01b600052603260045260246000fd5b6000918252602091829020600460089092020101546001600160a01b03168252600580549290910191849081106126a457634e487b7160e01b600052603260045260246000fd5b906000526020600020906008020160050180546126c090615e2b565b80601f01602080910402602001604051908101604052809291908181526020018280546126ec90615e2b565b80156127395780601f1061270e57610100808354040283529160200191612739565b820191906000526020600020905b81548152906001019060200180831161271c57829003601f168201915b505050505081526020016005838154811061276457634e487b7160e01b600052603260045260246000fd5b9060005260206000209060080201600601805461278090615e2b565b80601f01602080910402602001604051908101604052809291908181526020018280546127ac90615e2b565b80156127f95780601f106127ce576101008083540402835291602001916127f9565b820191906000526020600020905b8154815290600101906020018083116127dc57829003601f168201915b505050505081526020016005838154811061282457634e487b7160e01b600052603260045260246000fd5b600091825260209091206007600890920201015460ff16151590528261284a8884615dfd565b8151811061286857634e487b7160e01b600052603260045260246000fd5b6020026020010181905250808061287e90615e60565b91505061253a565b50949350505050565b612897614e7c565b816001600160a01b0381166128be5760405162461bcd60e51b815260040161082e90615bee565b6001600160a01b03831660009081526001602052604090819020815160a081019092528054829082906128f090615e2b565b80601f016020809104026020016040519081016040528092919081815260200182805461291c90615e2b565b80156129695780601f1061293e57610100808354040283529160200191612969565b820191906000526020600020905b81548152906001019060200180831161294c57829003601f168201915b5050505050815260200160018201805461298290615e2b565b80601f01602080910402602001604051908101604052809291908181526020018280546129ae90615e2b565b80156129fb5780601f106129d0576101008083540402835291602001916129fb565b820191906000526020600020905b8154815290600101906020018083116129de57829003601f168201915b50505050508152602001600282018054612a1490615e2b565b80601f0160208091040260200160405190810160405280929190818152602001828054612a4090615e2b565b8015612a8d5780601f10612a6257610100808354040283529160200191612a8d565b820191906000526020600020905b815481529060010190602001808311612a7057829003601f168201915b50505091835250506003919091015460ff80821660208401526101009091041615156040909101529392505050565b612ac46141d2565b6001600160a01b0316612ad5611c0f565b6001600160a01b031614612afb5760405162461bcd60e51b815260040161082e90615acd565b806001600160a01b038116612b225760405162461bcd60e51b815260040161082e90615bee565b8160058481548110612b4457634e487b7160e01b600052603260045260246000fd5b906000526020600020906008020160040160006101000a8154816001600160a01b0302191690836001600160a01b03160217905550505050565b600d5490565b806000612b9082613bb3565b9050612b9b81611bd1565b612bb75760405162461bcd60e51b815260040161082e90615b97565b61090e836144cb565b816000612bcc82613bb3565b9050612bd781611bd1565b612bf35760405162461bcd60e51b815260040161082e90615b97565b826001600160a01b038116612c1a5760405162461bcd60e51b815260040161082e90615bee565b6001612c2586610ad5565b6003811115612c4457634e487b7160e01b600052602160045260246000fd5b1415612c5357612c5385614226565b610ace858561464a565b60095490565b612c6b6141d2565b6001600160a01b0316612c7c611c0f565b6001600160a01b031614612ca25760405162461bcd60e51b815260040161082e90615acd565b806001600160a01b038116612cc95760405162461bcd60e51b815260040161082e90615bee565b6000600c8481548110612cec57634e487b7160e01b600052603260045260246000fd5b600091825260208083206001600160a01b0387168452600b9091526040909220546006909102909101915080612d3257634e487b7160e01b600052600160045260246000fd5b6000600a612d41600184615dfd565b81548110612d5f57634e487b7160e01b600052603260045260246000fd5b9060005260206000209060040201905080600101866001612d809190615de5565b8154600181018355600092835260208320015560028201805491612da383615e60565b90915550508254600181018455600093845260209093209092015550505050565b6001600160a01b038116600090815260066020526040902060050154606090612dfd57634e487b7160e01b600052600160045260246000fd5b6001600160a01b0382166000908152600660205260408120600501546001600160401b03811115612e3e57634e487b7160e01b600052604160045260246000fd5b604051908082528060200260200182016040528015612e67578160200160208202803683370190505b5090506000805b6001600160a01b038516600090815260066020526040902060040154811015612f1c576001600160a01b03851660009081526006602090815260408083208484526002810183528184205480855260039091019092529091205460ff1615612f0957808484612edc81615e60565b955081518110612efc57634e487b7160e01b600052603260045260246000fd5b6020026020010181815250505b5080612f1481615e60565b915050612e6e565b50909392505050565b60008160095480821115612f4b5760405162461bcd60e51b815260040161082e9061585c565b8380612f695760405162461bcd60e51b815260040161082e90615a6f565b60086000612f78600188615dfd565b81526020810191909152604001600020600b015460ff1695945050505050565b612fa06141d2565b6001600160a01b0316612fb1611c0f565b6001600160a01b031614612fd75760405162461bcd60e51b815260040161082e90615acd565b6001600160a01b038116612ffd5760405162461bcd60e51b815260040161082e90615882565b613006816141d6565b50565b6130116141d2565b6001600160a01b0316613022611c0f565b6001600160a01b0316146130485760405162461bcd60e51b815260040161082e90615acd565b856001600160a01b03811661306f5760405162461bcd60e51b815260040161082e90615bee565b61307c878787878761476f565b600280841614156130905761309087614925565b600480841614156130a4576130a487614a3b565b600880841614156130b9576130b98783614b8a565b50505050505050565b600a5460009082908082106130d657600080fd5b600a84815481106130f757634e487b7160e01b600052603260045260246000fd5b60009182526020909120600490910201546001600160a01b0316949350505050565b836001600160a01b0381166131405760405162461bcd60e51b815260040161082e90615bee565b6131486141d2565b6001600160a01b0316613159611c0f565b6001600160a01b03161461317f5760405162461bcd60e51b815260040161082e90615acd565b600c80546001810182556000919091528451600682027fdf6966c971051c3d54ec59162606531493a51404a002842f56009d7e5cf4a8c78101916131ea917fdf6966c971051c3d54ec59162606531493a51404a002842f56009d7e5cf4a8c901906020890190614cc5565b5084516132009060038301906020880190614cc5565b5083516132169060048301906020870190614cc5565b5060058101805460ff191660011790556132308288612c63565b7fcbbf31cd62dff8d3e3fd3ff1549adbbd47b39c0682301e54af8f3a0ffaade4a38783604051613261929190615569565b60405180910390a150505050505050565b600c5460009082106132965760405162461bcd60e51b815260040161082e90615b39565b600a548311156132b85760405162461bcd60e51b815260040161082e90615a9f565b6000600c83815481106132db57634e487b7160e01b600052603260045260246000fd5b6000918252602082206006909102015491505b818110156133765784600c858154811061331857634e487b7160e01b600052603260045260246000fd5b9060005260206000209060060201600001828154811061334857634e487b7160e01b600052603260045260246000fd5b9060005260206000200154141561336457600192505050611224565b8061336e81615e60565b9150506132ee565b506000949350505050565b600754606090806133a45760405162461bcd60e51b815260040161082e90615a6f565b828411156133b157600080fd5b60075484106133d25760405162461bcd60e51b815260040161082e90615b02565b60075483106133ed576007546133ea90600190615dfd565b92505b60006133f98585615dfd565b613404906001615de5565b6001600160401b0381111561342957634e487b7160e01b600052604160045260246000fd5b60405190808252806020026020018201604052801561346257816020015b61344f614eb0565b8152602001906001900390816134475790505b509050845b848111612886576000600660006007848154811061349557634e487b7160e01b600052603260045260246000fd5b60009182526020808320909101546001600160a01b039081168452838201949094526040928301909120825160808101845281549094168452600181015491840191909152600581015491830191909152600781015460ff16151560608301529150836135028985615dfd565b8151811061352057634e487b7160e01b600052603260045260246000fd5b6020026020010181905250818061353690615e60565b92505050613467565b606081600954808211156135655760405162461bcd60e51b815260040161082e9061585c565b83806135835760405162461bcd60e51b815260040161082e90615a6f565b60086000613592600188615dfd565b8152602001908152602001600020600901805461158e90615e2b565b600c54606090806135d15760405162461bcd60e51b815260040161082e90615a6f565b828411156135de57600080fd5b600c5484106135ff5760405162461bcd60e51b815260040161082e90615b02565b600c54831061361a57600c5461361790600190615dfd565b92505b60006136268585615dfd565b613631906001615de5565b6001600160401b0381111561365657634e487b7160e01b600052604160045260246000fd5b60405190808252806020026020018201604052801561368f57816020015b61367c614ee3565b8152602001906001900390816136745790505b509050845b848111612886576040518060800160405280600c83815481106136c757634e487b7160e01b600052603260045260246000fd5b906000526020600020906006020160020180546136e390615e2b565b80601f016020809104026020016040519081016040528092919081815260200182805461370f90615e2b565b801561375c5780601f106137315761010080835404028352916020019161375c565b820191906000526020600020905b81548152906001019060200180831161373f57829003601f168201915b50505050508152602001600c838154811061378757634e487b7160e01b600052603260045260246000fd5b906000526020600020906006020160030180546137a390615e2b565b80601f01602080910402602001604051908101604052809291908181526020018280546137cf90615e2b565b801561381c5780601f106137f15761010080835404028352916020019161381c565b820191906000526020600020905b8154815290600101906020018083116137ff57829003601f168201915b50505050508152602001600c838154811061384757634e487b7160e01b600052603260045260246000fd5b9060005260206000209060060201600401805461386390615e2b565b80601f016020809104026020016040519081016040528092919081815260200182805461388f90615e2b565b80156138dc5780601f106138b1576101008083540402835291602001916138dc565b820191906000526020600020905b8154815290600101906020018083116138bf57829003601f168201915b50505050508152602001600c838154811061390757634e487b7160e01b600052603260045260246000fd5b600091825260209091206005600690920201015460ff16151590528261392d8884615dfd565b8151811061394b57634e487b7160e01b600052603260045260246000fd5b6020026020010181905250808061396190615e60565b915050613694565b816009548082111561398d5760405162461bcd60e51b815260040161082e9061585c565b83806139ab5760405162461bcd60e51b815260040161082e90615a6f565b600860006139ba600188615dfd565b815260208082019290925260409081016000908120600301805460018101825590825292902090910180546001600160a01b0319166001600160a01b038716179055517fc307fc17fe83556f9fb433b29e4b3c62d9ff95510c7bd3215592c16041d8148890613a2c9087908790615d3f565b60405180910390a15050505050565b613a436141d2565b6001600160a01b0316613a54611c0f565b6001600160a01b031614613a7a5760405162461bcd60e51b815260040161082e90615acd565b816001600160a01b038116613aa15760405162461bcd60e51b815260040161082e90615bee565b8180613abf5760405162461bcd60e51b815260040161082e90615a6f565b6001600160a01b03841660009081526006602052604090206007015460ff16613af857634e487b7160e01b600052600160045260246000fd5b6001600160a01b038416600090815260066020526040812060040180549082613b2083615e60565b909155506001600160a01b03861660008181526006602081815260408084208685526002810183528185208b90558a8552600381018352908420805460ff19166001179055938352526005909101805492935090613b7d83615e60565b91905055507fcd13c9c12305e70e268e3608aad04ff3a1e9c696deeacaff175d26eada2ec62a8585604051613a2c929190615569565b60008180613bd35760405162461bcd60e51b815260040161082e90615a6f565b8260095480821115613bf75760405162461bcd60e51b815260040161082e9061585c565b60086000613c06600188615dfd565b8152602001908152602001600020600201549350505050919050565b600d5482908110613c455760405162461bcd60e51b815260040161082e90615b69565b81600d8481548110613c6757634e487b7160e01b600052603260045260246000fd5b906000526020600020906005020160010160006101000a8154816001600160a01b0302191690836001600160a01b03160217905550505050565b8060095480821115613cc55760405162461bcd60e51b815260040161082e9061585c565b8280613ce35760405162461bcd60e51b815260040161082e90615a6f565b8360028060086000613cf6600186615dfd565b81526020810191909152604001600020600b0154600160201b900460ff166003811115613d3357634e487b7160e01b600052602160045260246000fd5b14613d505760405162461bcd60e51b815260040161082e90615951565b60086000613d5f600189615dfd565b81526020810191909152604001600020600b015460ff161515600114613d975760405162461bcd60e51b815260040161082e9061599b565b600360086000613da860018a615dfd565b81526020810191909152604001600020600b01805464ff000000001916600160201b836003811115613dea57634e487b7160e01b600052602160045260246000fd5b02179055507faab6e46db3cf8733c355f44f3e9eaff83e3113187a9fa63d7159a320f750bd86866003604051613e21929190615d56565b60405180910390a1505050505050565b6001600160a01b038216600090815260066020818152604080842090920180546001810182559084529220909101829055517fa64a320168fc7af2fa4bb2a506ae4dbf56b81b4d25b5e88e668c13f8df90c85290613e929084908490615569565b60405180910390a15050565b8260095480821115613ec25760405162461bcd60e51b815260040161082e9061585c565b8480613ee05760405162461bcd60e51b815260040161082e90615a6f565b8460086000613ef060018a615dfd565b81526020019081526020016000206009019080519060200190613f14929190614cc5565b508360086000613f2560018a615dfd565b8152602001908152602001600020600a0190805190602001906130b9929190614cc5565b600a54831115613f6b5760405162461bcd60e51b815260040161082e90615a21565b600c8281548110613f8c57634e487b7160e01b600052603260045260246000fd5b60009182526020808320600160069093020182018054928301815583528220018290556040517f1380c2e36e31808e9facd9dd593019045cd2e559c30ef1f87343b7a30bf4d1539190a1505050565b6040805160a0810182526001600160a01b0380861682526000602083018181529383018681526060840186815260808501838152600d80546001818101835595829052965160059097027fd7b6990105719101dabeb77144f2a3385c8033acd3af97e9423a695e81ad1eb5810180549888166001600160a01b0319998a1617905597517fd7b6990105719101dabeb77144f2a3385c8033acd3af97e9423a695e81ad1eb6890180549190971697169690961790945590517fd7b6990105719101dabeb77144f2a3385c8033acd3af97e9423a695e81ad1eb7860155517fd7b6990105719101dabeb77144f2a3385c8033acd3af97e9423a695e81ad1eb885015590517fd7b6990105719101dabeb77144f2a3385c8033acd3af97e9423a695e81ad1eb9909301805493151560ff1990941693909317909255547f92e1244fb0ae9fa971febd084422b4d2fabe644650512a440ede7884706fb9669161413f91615dfd565b8260405161414e929190615d6a565b60405180910390a1505050565b816009548082111561417f5760405162461bcd60e51b815260040161082e9061585c565b838061419d5760405162461bcd60e51b815260040161082e90615a6f565b846141a781615e14565b6000908152600860205260409020600b8101805460ff19166001179055600701949094555050505050565b3390565b600080546001600160a01b038381166001600160a01b0319831681178455604051919092169283917f8be0079c531659141344cd1fd0a4f28419497f9722a3daafe3b4186f6b6457e09190a35050565b806009548082111561424a5760405162461bcd60e51b815260040161082e9061585c565b82806142685760405162461bcd60e51b815260040161082e90615a6f565b836001806008600061427b600186615dfd565b81526020810191909152604001600020600b0154600160201b900460ff1660038111156142b857634e487b7160e01b600052602160045260246000fd5b146142d55760405162461bcd60e51b815260040161082e90615951565b6002600860006142e660018a615dfd565b81526020810191909152604001600020600b01805464ff000000001916600160201b83600381111561432857634e487b7160e01b600052602160045260246000fd5b021790555060016008600061433d838a615dfd565b8152602001908152602001600020600b0160026101000a81548160ff0219169083151502179055507faab6e46db3cf8733c355f44f3e9eaff83e3113187a9fa63d7159a320f750bd86866002604051613e21929190615d56565b600d54829081106143ba5760405162461bcd60e51b815260040161082e90615b69565b81600d84815481106143dc57634e487b7160e01b600052603260045260246000fd5b60009182526020909120600590910201600401805460ff1916911515919091179055505050565b600080805b600c848154811061442957634e487b7160e01b600052603260045260246000fd5b60009182526020909120600690910201548110156144c457600c848154811061446257634e487b7160e01b600052603260045260246000fd5b9060005260206000209060060201600001818154811061449257634e487b7160e01b600052603260045260246000fd5b90600052602060002001546000146144b257816144ae81615e60565b9250505b806144bc81615e60565b915050614408565b5092915050565b80806144e95760405162461bcd60e51b815260040161082e90615a6f565b816009548082111561450d5760405162461bcd60e51b815260040161082e9061585c565b8360008060086000614520600186615dfd565b81526020810191909152604001600020600b0154600160201b900460ff16600381111561455d57634e487b7160e01b600052602160045260246000fd5b1461457a5760405162461bcd60e51b815260040161082e90615951565b60016008600061458a838a615dfd565b81526020810191909152604001600020600b01805464ff000000001916600160201b8360038111156145cc57634e487b7160e01b600052602160045260246000fd5b02179055506001600860006145e1838a615dfd565b81526020810191909152604001600020600b01805491151563010000000263ff000000199092169190911790557faab6e46db3cf8733c355f44f3e9eaff83e3113187a9fa63d7159a320f750bd8661463a876001615de5565b6001604051613e21929190615d56565b81806146685760405162461bcd60e51b815260040161082e90615a6f565b826009548082111561468c5760405162461bcd60e51b815260040161082e9061585c565b846002806008600061469f600186615dfd565b81526020810191909152604001600020600b0154600160201b900460ff1660038111156146dc57634e487b7160e01b600052602160045260246000fd5b146146f95760405162461bcd60e51b815260040161082e90615951565b856008600061470960018b615dfd565b815260200190815260200160002060040160006101000a8154816001600160a01b0302191690836001600160a01b031602179055507f9c6da09a3bc72442fbff4d94dcfcd2e442e75b368ce8471d8fa9042102621e098787604051613261929190615d3f565b6147776141d2565b6001600160a01b0316614788611c0f565b6001600160a01b0316146147ae5760405162461bcd60e51b815260040161082e90615acd565b846001600160a01b0381166147d55760405162461bcd60e51b815260040161082e90615bee565b6040805160a081018252868152602080820187905281830186905260ff851660608301526001608083018190526001600160a01b038a16600090815290825292909220815180519293919261482d9284920190614cc5565b5060208281015180516148469260018501920190614cc5565b5060408201518051614862916002840191602090910190614cc5565b5060608201516003909101805460809093015115156101000261ff001960ff90931660ff199094169390931791909116919091179055600280546001818101835560008390527f405787fa12a823e0f2b7631cc41b3ba8828b3321ca811111fa75cd3aa3bb5ace90910180546001600160a01b038a166001600160a01b031990911617905590547f25ddd06f7eaeb83bb3fbcaa231d4b89e2d7bcd781043983661920061e755a7f09188916149179190615dfd565b604051613e21929190615569565b61492d6141d2565b6001600160a01b031661493e611c0f565b6001600160a01b0316146149645760405162461bcd60e51b815260040161082e90615acd565b806001600160a01b03811661498b5760405162461bcd60e51b815260040161082e90615bee565b60048054600181810183557f8a35acfbc15ff81a39ae7d344fd709f28e8600b4aa8c65c6b64bfe7fe36bd19b90910180546001600160a01b0386166001600160a01b0319918216811790925560008281526003602052604090208054909116909117815560028101805460ff19168317905591547fb33697d74ba91a225da88048bf57b244fc8aa1a7b8f90aeb4788b8a4ef65d1cf918591614a2d9190615dfd565b60405161414e929190615569565b614a436141d2565b6001600160a01b0316614a54611c0f565b6001600160a01b031614614a7a5760405162461bcd60e51b815260040161082e90615acd565b806001600160a01b038116614aa15760405162461bcd60e51b815260040161082e90615bee565b600a8054600180820183556000929092527fc65a7bb8d6351c1cf70c95a316cc6a92839c986682d98bc35f958f4883f9d2a86004820290810180546001600160a01b0319166001600160a01b0387161781557fc65a7bb8d6351c1cf70c95a316cc6a92839c986682d98bc35f958f4883f9d2ab909101805460ff1916841790559091614b2e908390615de5565b6001600160a01b0385166000908152600b60205260409081902091909155517fecc5d9929809b3db05d64ac37958ea2e6d0676af617f0d6ebec74a40e43382b790614b7c9086908590615569565b60405180910390a150505050565b614b926141d2565b6001600160a01b0316614ba3611c0f565b6001600160a01b031614614bc95760405162461bcd60e51b815260040161082e90615acd565b816001600160a01b038116614bf05760405162461bcd60e51b815260040161082e90615bee565b60078054600181810183557fa66cc928b5edb82af9bd49922954155ab7b0942694bea4ce44661d9a8736c68890910180546001600160a01b0387166001600160a01b031991821681179092556000828152600660205260409081902080549092169092178155808301869055928301805460ff1916909217909155517fa448e5e847c6d262439050f776e09d4734f840b963b23fcfb5cd33cd233518e690614b7c908690615555565b604051806060016040528060006001600160a01b03168152602001606081526020016000151581525090565b828054614cd190615e2b565b90600052602060002090601f016020900481019282614cf35760008555614d39565b82601f10614d0c57805160ff1916838001178555614d39565b82800160010185558215614d39579182015b82811115614d39578251825591602001919060010190614d1e565b50614d45929150614f0d565b5090565b6040518061020001604052806000815260200160008152602001600081526020016060815260200160006001600160a01b0316815260200160008152602001600081526020016000815260200160608152602001606081526020016060815260200160001515815260200160001515815260200160001515815260200160001515815260200160006003811115614df057634e487b7160e01b600052602160045260246000fd5b905290565b6040805160a08101825260008082526020820181905291810182905260608101829052608081019190915290565b60405180610100016040528060008152602001600081526020016000815260200160006001600160a01b0316815260200160006001600160a01b0316815260200160608152602001606081526020016000151581525090565b6040518060a00160405280606081526020016060815260200160608152602001600060ff1681526020016000151581525090565b604051806080016040528060006001600160a01b0316815260200160008152602001600081526020016000151581525090565b60405180608001604052806060815260200160608152602001606081526020016000151581525090565b5b80821115614d455760008155600101614f0e565b80356001600160a01b0381168114610b0657600080fd5b600082601f830112614f49578081fd5b81356001600160401b0380821115614f6357614f63615e91565b604051601f8301601f191681016020018281118282101715614f8757614f87615e91565b604052828152848301602001861015614f9e578384fd5b82602086016020830137918201602001929092529392505050565b600060208284031215614fca578081fd5b611c0882614f22565b60008060008060808587031215614fe8578283fd5b614ff185614f22565b935060208501356001600160401b038082111561500c578485fd5b61501888838901614f39565b9450604087013591508082111561502d578384fd5b61503988838901614f39565b9350606087013591508082111561504e578283fd5b5061505b87828801614f39565b91505092959194509250565b60008060008060008060c0878903121561507f578182fd5b61508887614f22565b955060208701356001600160401b03808211156150a3578384fd5b6150af8a838b01614f39565b965060408901359150808211156150c4578384fd5b6150d08a838b01614f39565b955060608901359150808211156150e5578384fd5b506150f289828a01614f39565b935050608087013560ff81168114615108578283fd5b8092505060a087013590509295509295509295565b6000806040838503121561512f578182fd5b61513883614f22565b946020939093013593505050565b600080600080600060a0868803121561515d578081fd5b61516686614f22565b9450602086013593506040860135925060608601356001600160401b038082111561518f578283fd5b61519b89838a01614f39565b935060808801359150808211156151b0578283fd5b506151bd88828901614f39565b9150509295509295909350565b6000602082840312156151db578081fd5b8151611c0881615ea7565b6000602082840312156151f7578081fd5b5035919050565b60008060408385031215615210578182fd5b8235915061522060208401614f22565b90509250929050565b6000806040838503121561523b578182fd5b82359150602083013561524d81615ea7565b809150509250929050565b60008060006060848603121561526c578283fd5b8335925060208401356001600160401b0380821115615289578384fd5b61529587838801614f39565b935060408601359150808211156152aa578283fd5b506152b786828701614f39565b9150509250925092565b600080604083850312156152d3578182fd5b50508035926020909101359150565b600080600080600060a086880312156152f9578081fd5b8535945060208601359350604086013592506060860135915060808601356001600160401b0381111561532a578182fd5b6151bd88828901614f39565b6001600160a01b03169052565b6000815180845260208085019450808401835b8381101561537b5781516001600160a01b031687529582019590820190600101615356565b509495945050505050565b6000815180845260208085019450808401835b8381101561537b57815187529582019590820190600101615399565b15159052565b600481106153d957634e487b7160e01b600052602160045260246000fd5b9052565b60008151808452815b81811015615402576020818501810151868301820152016153e6565b818111156154135782602083870101525b50601f01601f19169290920160200192915050565b6000610200825184526020830151602085015260408301516040850152606083015181606086015261545c82860182615343565b91505060808301516154716080860182615336565b5060a083015160a085015260c083015160c085015260e083015160e085015261010080840151858303828701526154a883826153dd565b9250505061012080840151858303828701526154c483826153dd565b9250505061014080840151858303828701526154e083826153dd565b92505050610160808401516154f7828701826153b5565b50506101808084015161550c828701826153b5565b50506101a080840151615521828701826153b5565b50506101c080840151615536828701826153b5565b50506101e08084015161554b828701826153bb565b5090949350505050565b6001600160a01b0391909116815260200190565b6001600160a01b03929092168252602082015260400190565b6000602080830181845280855180835260408601915060408482028701019250838701855b828110156155d557603f198886030184526155c3858351615428565b945092850192908501906001016155a7565b5092979650505050505050565b60208082528251828201819052600091906040908185019080840286018301878501865b838110156156b757888303603f19018552815180518452878101518885015286810151878501526060808201516001600160a01b031690850152608080820151610100919061565782880182615336565b505060a0808301518282880152615670838801826153dd565b9250505060c0808301518683038288015261568b83826153dd565b9250505060e08083015192506156a3818701846153b5565b509588019593505090860190600101615606565b509098975050505050505050565b602080825282518282018190526000919060409081850190868401855b8281101561572757815180516001600160a01b0316855286810151878601528581015186860152606090810151151590850152608090930192908501906001016156e2565b5091979650505050505050565b60208082528251828201819052600091906040908185019080840286018301878501865b838110156156b757603f1989840301855281516080815181865261577e828701826153dd565b915050888201518582038a87015261579682826153dd565b91505087820151858203898701526157ae82826153dd565b606093840151151596909301959095525094870194925090860190600101615758565b600060208252611c086020830184615386565b901515815260200190565b6001600160e01b031991909116815260200190565b6020810161122482846153bb565b600060208252611c0860208301846153dd565b60208082526018908201527f796f75206d75737420626520616e206f7267616e697a65720000000000000000604082015260600190565b6020808252600c908201526b6e6f7420696e2072616e676560a01b604082015260600190565b60208082526026908201527f4f776e61626c653a206e6577206f776e657220697320746865207a65726f206160408201526564647265737360d01b606082015260800190565b60208082526018908201527f75736572206973206e6f7420616e206f7267616e697a65720000000000000000604082015260600190565b602080825260119082015270696e6478206f7574206f662072616e676560781b604082015260600190565b6020808252600d908201526c696e76616c696420646174657360981b604082015260600190565b6020808252602a908201527f4e6f7420706f737369626c6520696e2063757272656e74207374617465206f66604082015269081d1a1948115d995b9d60b21b606082015260800190565b6020808252601e908201527f6e6f206d6564616c20616666656374656420746f20746865206576656e740000604082015260600190565b6020808252600c908201526b24b73b30b634b2102ab9b2b960a11b604082015260600190565b6020808252600f908201526e37379039bab139b1b934b83a34b7b760891b604082015260600190565b6020808252600890820152671ddc9bdb99c8125960c21b604082015260600190565b60208082526012908201527114d95d08184815da5b9b995c88119a5c9cdd60721b604082015260600190565b6020808252601690820152751d985b1d59481b5d5cdd081b9bdd081899481b9d5b1b60521b604082015260600190565b60208082526014908201527313dc99d85b9a5e995c88125b9d985b1a5908125960621b604082015260600190565b6020808252818101527f4f776e61626c653a2063616c6c6572206973206e6f7420746865206f776e6572604082015260600190565b60208082526017908201527f5374617274496e646578206f7574206f662072616e6765000000000000000000604082015260600190565b60208082526016908201527513dc99d85b9a5e985d1a5bdb881b9bdd08199bdd5b9960521b604082015260600190565b6020808252601490820152734d6564616c4944206f7574206f662072616e676560601b604082015260600190565b6020808252601190820152703cb7ba9036bab9ba1031329030b236b4b760791b604082015260600190565b6020808252601290820152716f72674944206f7574206f662072616e676560701b604082015260600190565b6020808252601290820152711cda1bdd5b19081b9bdd081899481b9d5b1b60721b604082015260600190565b602080825282516001600160a01b03168282015282015160606040830152600090615c486080840182615386565b90506040840151151560608401528091505092915050565b600060208252611c086020830184615428565b81516001600160a01b03908116825260208084015190911690820152604080830151908201526060808301519082015260809182015115159181019190915260a00190565b600060208252825160a06020840152615cd460c08401826153dd565b90506020840151601f1980858403016040860152615cf283836153dd565b9250604086015191508085840301606086015250615d1082826153dd565b91505060ff60608501511660808401526080840151151560a08401528091505092915050565b90815260200190565b9182526001600160a01b0316602082015260400190565b82815260408101611c0860208301846153bb565b918252602082015260400190565b88815260208101889052604081018790526001600160a01b0386811660608301528516608082015261010060a08201819052600090615db9838201876153dd565b905082810360c0840152615dcd81866153dd565b91505082151560e08301529998505050505050505050565b60008219821115615df857615df8615e7b565b500190565b600082821015615e0f57615e0f615e7b565b500390565b600081615e2357615e23615e7b565b506000190190565b600281046001821680615e3f57607f821691505b602082108114156108cd57634e487b7160e01b600052602260045260246000fd5b6000600019821415615e7457615e74615e7b565b5060010190565b634e487b7160e01b600052601160045260246000fd5b634e487b7160e01b600052604160045260246000fd5b801515811461300657600080fdfea2646970667358221220396b8528219386b8ba92693b58660fa506967e9a368b5c92c6df55dc71aaa19d64736f6c63430008000033",
  "immutableReferences": {},
  "source": "// SPDX-License-Identifier: MIT\r\npragma solidity ^0.8;\r\nimport \"@openzeppelin/contracts/access/Ownable.sol\";\r\nimport \"./Dapp Internal Struct/UserHandler.sol\";\r\nimport \"./Dapp Internal Struct/AuthorHandler.sol\";\r\nimport \"./Dapp Internal Struct/SportsmanHandler.sol\";\r\nimport \"./Dapp Internal Struct/EventHandler.sol\";\r\nimport \"./Dapp Internal Struct/OrganizerHandler.sol\";\r\nimport \"./Dapp Internal Struct/MedalHandler.sol\";\r\nimport \"@openzeppelin/contracts/token/ERC721/ERC721.sol\";\r\n\r\ncontract MedalVerse is\r\n\tOwnable,\r\n\tUserHandler,\r\n\tAuthorHandler,\r\n\tSportsmanHandler,\r\n\tEventHandler,\r\n\tOrganizerHandler,\r\n\tMedalHandler\r\n{\r\n\t// Modifiers ----------------------------\r\n\tmodifier isNotNull(address a)\r\n\t\tvirtual\r\n\t\toverride(\r\n\t\t\tUserHandler,\r\n\t\t\tAuthorHandler,\r\n\t\t\tSportsmanHandler,\r\n\t\t\tEventHandler,\r\n\t\t\tOrganizerHandler\r\n\t\t) {\r\n\t\trequire(a != address(0), \"should not be null\");\r\n\t\t_;\r\n\t}\r\n\tmodifier isNotNullUint256(uint256 a)\r\n\t\tvirtual\r\n\t\toverride(\r\n\t\t\tOrganizerHandler,\r\n\t\t\tSportsmanHandler,\r\n\t\t\tEventHandler,\r\n\t\t\tAuthorHandler\r\n\t\t) {\r\n\t\trequire(a != 0, \"value must not be null\");\r\n\t\t_;\r\n\t}\r\n\r\n\tmodifier isAdminOfEvent(uint256 eventID) {\r\n\t\tuint256 organizationId = getEventOrganizer(eventID);\r\n\r\n\t\trequire(checkorganizerisAdminOf(organizationId), \"you must be admin\");\r\n\t\t_;\r\n\t}\r\n\r\n\t// Methods -------------------------------\r\n\r\n\t///@dev Add a new user to the DB, using parent classes\r\n\t///@param _userAddress userAddr\r\n\t///@param _iconURI Image for the UI\r\n\t///@param _userName FName + LName\r\n\t///@param _email email address\r\n\t///@param _role Author / Organizer / sportsman\r\n\t///@param _sportsCategory id of the event\r\n\tfunction addNewUser(\r\n\t\taddress _userAddress,\r\n\t\tstring memory _iconURI,\r\n\t\tstring memory _userName,\r\n\t\tstring memory _email,\r\n\t\tuint8 _role,\r\n\t\tuint256 _sportsCategory\r\n\t) public onlyOwner isNotNull(_userAddress) {\r\n\t\taddUser(_userAddress, _iconURI, _userName, _email, _role);\r\n\t\tif ((_role & 2) == 2) addAuthor(_userAddress);\r\n\t\tif ((_role & 4) == 4) addOrganizer(_userAddress);\r\n\t\tif ((_role & 8) == 8) addSportsman(_userAddress, _sportsCategory);\r\n\t}\r\n\r\n\t///@dev register a user to an event and event to user\r\n\t///@param _userAddress address of the user\r\n\t///@param eventid id of the event\r\n\tfunction LinkUserAndEvent(address _userAddress, uint256 eventid)\r\n\t\tpublic\r\n\t\tisNotNull(_userAddress)\r\n\t{\r\n\t\tEventRegisterSportsman(eventid, _userAddress); // checks both values\r\n\t\tregisterSportsmanToEvent(_userAddress, eventid); // no check required, already don above\r\n\t}\r\n\r\n\t///@dev creates a new event, associated to an organization\r\n\t///@param organizationId Id Of the Organization\r\n\t///@param startDate starting Date\r\n\t///@param endDate ending Date\r\n\t///@param sportsCategory Category of sport for the event\r\n\t///@param eventDesc Description for the event\r\n\tfunction newEvent(\r\n\t\tuint256 organizationId,\r\n\t\tuint256 startDate,\r\n\t\tuint256 endDate,\r\n\t\tuint256 sportsCategory,\r\n\t\tstring memory eventDesc\r\n\t) public isNotNullUint256(startDate) isNotNullUint256(endDate) {\r\n\t\trequire(endDate > startDate, \"invalid dates\");\r\n\t\t// We first neet to check that the sender corresponds to an organizer\r\n\t\tuint256 organizerId = organizerByAddress[msg.sender];\r\n\t\trequire(organizerId > 0, \"you must be an organizer\");\r\n\t\trequire(\r\n\t\t\tcheckorganizerisAdminOf(organizerId, organizationId),\r\n\t\t\t\"you must be admin\"\r\n\t\t);\r\n\r\n\t\tuint256 eventID = addEvent(\r\n\t\t\torganizationId,\r\n\t\t\tstartDate,\r\n\t\t\tendDate,\r\n\t\t\tsportsCategory,\r\n\t\t\teventDesc\r\n\t\t);\r\n\t\torganizerAddEvent(organizerId, organizationId, eventID + 1);\r\n\t}\r\n\r\n\t///@dev The event starts now, checks we are an admin for the event\r\n\t///@param eventID id of the event\r\n\tfunction adminStartEvent(uint256 eventID) external isAdminOfEvent(eventID) {\r\n\t\tstartEvent(eventID);\r\n\t}\r\n\r\n\t///@dev The event ends now,checks we are an admin for the event\r\n\t///@param eventID id of the event\r\n\tfunction adminEndEvent(uint256 eventID) external isAdminOfEvent(eventID) {\r\n\t\tendEvent(eventID);\r\n\t}\r\n\r\n\t///@dev The event gets a winner and closes,checks we are an admin for the event\r\n\t///@param eventID id of the event\r\n\tfunction adminSetWinner(uint256 eventID, address winner)\r\n\t\texternal\r\n\t\tisAdminOfEvent(eventID)\r\n\t\tisNotNull(winner)\r\n\t{\r\n\t\tif (\r\n\t\t\tgetEventCurrentState(eventID) ==\r\n\t\t\tstateOfCompetition.CompetitionInProgress\r\n\t\t) endEvent(eventID);\r\n\t\tsetEventWinner(eventID, winner);\r\n\t}\r\n\r\n\t///@dev A medal is associated to an event, whatever its status\r\n\t///@param eventID id of the event\r\n\t///@param _nft address of medal nft associated to the prize\r\n\tfunction adminAddMedal(uint256 eventID, address _nft)\r\n\t\texternal\r\n\t\tisAdminOfEvent(eventID)\r\n\t{\r\n\t\t// Check we have a IERC21 contract\r\n\t\tIERC721(_nft).supportsInterface(type(IERC721).interfaceId);\r\n\r\n\t\t// Find the organizer corresponding to the event\r\n\t\tuint256 orgId = getEventOrganizer(eventID);\r\n\t\taddMedal(_nft, orgId, eventID);\r\n\t\tuint256 medalID = getMedalCount() - 1;\r\n\t\t// registers medal to the event structure\r\n\t\teventSetMedal(eventID, medalID);\r\n\t}\r\n\r\n\t///@dev Affect the medal owned by the event to the winner of the competition\r\n\t///@param eventID id of the event\r\n\tfunction adminGiveMedalToWinner(uint256 eventID)\r\n\t\texternal\r\n\t\tisAdminOfEvent(eventID)\r\n\t{\r\n\t\t// Gets the id og the winner to associate the medal\r\n\t\taddress winner = getWinner(eventID);\r\n\t\trequire(winner != address(0), \"Set a Winner First\");\r\n\t\trequire(eventHasMedal(eventID));\r\n\r\n\t\tsetMedalWinner(eventGetMedal(eventID), winner);\r\n\t\teventDistributeMedal(eventID);\r\n\t\tsportsmanAddMedal(winner, eventGetMedal(eventID));\r\n\t}\r\n\r\n\t///@dev add / remove the medal from user gallery. Nota: checks are done in getSportsmanMedal\r\n\t///@param medalIndx id of the event\r\n\tfunction publishMedal(uint256 medalIndx, bool status) public {\r\n\t\tuint256 mdID = getSportsmanMedal(msg.sender, medalIndx); // converts sportsMan->medalIndx => medalID\r\n\t\tmedalPublish(mdID, status);\r\n\t}\r\n\r\n\t///@dev Set the geographic position of the Event\r\n\t///@param eventID id of the event\r\n\tfunction adminSetEventPosition(\r\n\t\tuint256 eventID,\r\n\t\tstring memory posX,\r\n\t\tstring memory posY\r\n\t) external isAdminOfEvent(eventID) {\r\n\t\teventSetPosition(eventID, posX, posY);\r\n\t}\r\n}\r\n",
  "sourcePath": "C:\\DEV\\ETH\\Alyra\\MedalVerse\\MedalVerse-Front\\contracts\\MedalVerse.sol",
  "compiler": {
    "name": "solc",
    "version": "0.8.0+commit.c7dfd78e.Emscripten.clang"
  },
  "schemaVersion": "3.4.4",
  "updatedAt": "2022-01-09T21:08:52.281Z",
  "networkType": "ethereum",
  "devdoc": {
    "kind": "dev",
    "methods": {
      "LinkUserAndEvent(address,uint256)": {
        "details": "register a user to an event and event to user",
        "params": {
          "_userAddress": "address of the user",
          "eventid": "id of the event"
        }
      },
      "addCreation(address,uint256,uint256,string,string)": {
        "details": "Register a creation for a given author",
        "params": {
          "_URI": "Address of the image, used before minting the NFT",
          "_description": "may be null",
          "_price": "Price of the NFT",
          "_sportCategory": "Category for UI",
          "_user": "Address of the user to register as author"
        }
      },
      "addEvent(uint256,uint256,uint256,uint256,string)": {
        "details": "add an event to the list of events",
        "params": {
          "_endDate": "Date for the event to finish",
          "_eventDescription": "Desc of the evnt",
          "_organizedBy": "id of the oganization",
          "_sportCategory": "Type of event",
          "_startDate": "Date for the event to start"
        }
      },
      "addNewUser(address,string,string,string,uint8,uint256)": {
        "details": "Add a new user to the DB, using parent classes",
        "params": {
          "_email": "email address",
          "_iconURI": "Image for the UI",
          "_role": "Author / Organizer / sportsman",
          "_sportsCategory": "id of the event",
          "_userAddress": "userAddr",
          "_userName": "FName + LName"
        }
      },
      "addOrganization(address,string,string,string)": {
        "details": "add an organization to the list of orgs",
        "params": {
          "_description": "UI description text",
          "_logoURI": "Link to the icon lo\t\tuser.organizationState[orgId] = true;",
          "_name": "UI dislay name",
          "_user": "admin of the organization"
        }
      },
      "adminAddMedal(uint256,address)": {
        "details": "A medal is associated to an event, whatever its status",
        "params": {
          "_nft": "address of medal nft associated to the prize",
          "eventID": "id of the event"
        }
      },
      "adminEndEvent(uint256)": {
        "details": "The event ends now,checks we are an admin for the event",
        "params": {
          "eventID": "id of the event"
        }
      },
      "adminGiveMedalToWinner(uint256)": {
        "details": "Affect the medal owned by the event to the winner of the competition",
        "params": {
          "eventID": "id of the event"
        }
      },
      "adminSetEventPosition(uint256,string,string)": {
        "details": "Set the geographic position of the Event",
        "params": {
          "eventID": "id of the event"
        }
      },
      "adminSetWinner(uint256,address)": {
        "details": "The event gets a winner and closes,checks we are an admin for the event",
        "params": {
          "eventID": "id of the event"
        }
      },
      "adminStartEvent(uint256)": {
        "details": "The event starts now, checks we are an admin for the event",
        "params": {
          "eventID": "id of the event"
        }
      },
      "affectNFTtoCreation(uint256,address)": {
        "details": "Register a creation for a given author TESTED",
        "params": {
          "_NFT": "Address of the minted NFT",
          "_creationId": "index of the creation as registered in allCreations"
        }
      },
      "checkorganizerisAdminOf(uint256)": {
        "details": "returns true if the user is admin of the organization",
        "params": {
          "orgIndx": "index amoung organizations"
        }
      },
      "checkorganizerisAdminOf(uint256,uint256)": {
        "details": "returns true if the user is admin of the organization",
        "params": {
          "orgIndx": "index amoung organizations",
          "organizer": "index amoung organizers"
        }
      },
      "eventGetMedal(uint256)": {
        "details": "returns the id of the medal associated to the event",
        "params": {
          "eventID": "id of the event"
        }
      },
      "eventGetPositionX(uint256)": {
        "details": "returns X coordinate of an event",
        "params": {
          "eventID": "id of the event"
        }
      },
      "eventGetPositionY(uint256)": {
        "details": "returns Y coordinate of an event",
        "params": {
          "eventID": "id of the event"
        }
      },
      "eventGetWinner(uint256)": {
        "details": "returns the id of the winner associated to the event",
        "params": {
          "eventID": "id of the event"
        }
      },
      "eventHasMedal(uint256)": {
        "details": "checks if event has a medal",
        "params": {
          "eventID": "id of the event"
        }
      },
      "getAdminList(uint256)": {
        "details": "returns the list activ admin of an organisation",
        "params": {
          "orgIndx": "index amoung organizations"
        }
      },
      "getAuthor(address)": {
        "details": "returns the Author struc corresponding to the user TESTED",
        "params": {
          "_user": "user address"
        }
      },
      "getAuthorCreationsList(address)": {
        "details": "returns the list of creations for user _author TESTED",
        "params": {
          "_author": "address of the user"
        }
      },
      "getCreationList(uint256,uint256)": {
        "details": "returns the list of creations: they may be inactive, must test activ value TESTED",
        "params": {
          "_end": "ending index - paging",
          "_start": "start index  - paging"
        }
      },
      "getEvent(uint256)": {
        "details": "returns the details of a specific event",
        "params": {
          "eventId": "id of the event"
        }
      },
      "getEventCount()": {
        "details": "returns the number of Events"
      },
      "getEventCurrentState(uint256)": {
        "details": "returns the current state of the event",
        "params": {
          "evntID": "index of the event"
        }
      },
      "getEventList(uint256)": {
        "details": "return the list of events associated to an organization",
        "params": {
          "orgId": "id of the org"
        }
      },
      "getEventList(uint256,uint256)": {
        "details": "returns the list of Events",
        "params": {
          "_end": "ending index - paging",
          "_start": "start index  - paging"
        }
      },
      "getNumberOfSportsman()": {
        "details": "returns the number of Sportsman"
      },
      "getOrganisationCount()": {
        "details": "returns the number of Organizations"
      },
      "getOrganizationsList(uint256,uint256)": {
        "details": "returns the list of organization : they may be inactive, must test activ value",
        "params": {
          "_end": "ending index amoung ogranizations",
          "_start": "starting index amoung organizations"
        }
      },
      "getOrganizerAddressById(uint256)": {
        "details": "returns the address of an admin, given an id organizer",
        "params": {
          "id": "id (=index) of the organizer"
        }
      },
      "getOrganizerOrganisationList(address)": {
        "details": "returns the list of organization the organizer subscribed to",
        "params": {
          "_user": "address of the user"
        }
      },
      "getSportsManEventsNumber(address)": {
        "details": "returns the nb of activ events the sportsman registered to",
        "params": {
          "sportsmanId": "address of the sportsman"
        }
      },
      "getSportsmanEventsSubscriptions(address)": {
        "details": "returns the list of activ events the sportsman registered to",
        "params": {
          "sportsmanId": "address of the sportsman"
        }
      },
      "getSportsmanList(uint256,uint256)": {
        "details": "returns the list of organization : they may be inactif, must test activ value",
        "params": {
          "_end": "ending index amoung ogranizations",
          "_start": "starting index amoung organizations"
        }
      },
      "getUserDetails(address)": {
        "details": "Returns details about a user, given an address (for UI=)",
        "params": {
          "_userAdr": "of the user"
        }
      },
      "getWinner(uint256)": {
        "details": "returns the winner of the event",
        "params": {
          "eventId": "id of the event"
        }
      },
      "newEvent(uint256,uint256,uint256,uint256,string)": {
        "details": "creates a new event, associated to an organization",
        "params": {
          "endDate": "ending Date",
          "eventDesc": "Description for the event",
          "organizationId": "Id Of the Organization",
          "sportsCategory": "Category of sport for the event",
          "startDate": "starting Date"
        }
      },
      "organizationAddAdmin(uint256,address)": {
        "details": "add an admin to an org.",
        "params": {
          "_user": "admin of the organizatio",
          "orgId": "id of the organization"
        }
      },
      "owner()": {
        "details": "Returns the address of the current owner."
      },
      "publishMedal(uint256,bool)": {
        "details": "add / remove the medal from user gallery. Nota: checks are done in getSportsmanMedal",
        "params": {
          "medalIndx": "id of the event"
        }
      },
      "renounceOwnership()": {
        "details": "Leaves the contract without owner. It will not be possible to call `onlyOwner` functions anymore. Can only be called by the current owner. NOTE: Renouncing ownership will leave the contract without an owner, thereby removing any functionality that is only available to the owner."
      },
      "transferOwnership(address)": {
        "details": "Transfers ownership of the contract to a new account (`newOwner`). Can only be called by the current owner."
      }
    },
    "version": 1
  },
  "userdoc": {
    "kind": "user",
    "methods": {},
    "version": 1
  }
}