{
  "contractName": "MedalVerse",
  "abi": [
    {
      "inputs": [
        {
          "internalType": "address",
          "name": "addressToken",
          "type": "address"
        }
      ],
      "stateMutability": "nonpayable",
      "type": "constructor"
    },
    {
      "anonymous": false,
      "inputs": [
        {
          "indexed": false,
          "internalType": "address",
          "name": "usrAddr",
          "type": "address"
        },
        {
          "indexed": false,
          "internalType": "uint256",
          "name": "indx",
          "type": "uint256"
        }
      ],
      "name": "AuthorAdded",
      "type": "event"
    },
    {
      "anonymous": false,
      "inputs": [
        {
          "indexed": false,
          "internalType": "address",
          "name": "usrAddr",
          "type": "address"
        },
        {
          "indexed": false,
          "internalType": "uint256",
          "name": "indx",
          "type": "uint256"
        }
      ],
      "name": "CreationAdded",
      "type": "event"
    },
    {
      "anonymous": false,
      "inputs": [
        {
          "indexed": false,
          "internalType": "uint256",
          "name": "medalID",
          "type": "uint256"
        },
        {
          "indexed": false,
          "internalType": "uint256",
          "name": "eventID",
          "type": "uint256"
        }
      ],
      "name": "MedalAdded",
      "type": "event"
    },
    {
      "anonymous": false,
      "inputs": [
        {
          "indexed": false,
          "internalType": "uint256",
          "name": "medalID",
          "type": "uint256"
        },
        {
          "indexed": false,
          "internalType": "bool",
          "name": "status",
          "type": "bool"
        }
      ],
      "name": "MedalPublished",
      "type": "event"
    },
    {
      "anonymous": false,
      "inputs": [
        {
          "indexed": false,
          "internalType": "address",
          "name": "owner",
          "type": "address"
        }
      ],
      "name": "MedalVerseWithdraw",
      "type": "event"
    },
    {
      "anonymous": false,
      "inputs": [
        {
          "indexed": false,
          "internalType": "address",
          "name": "_user",
          "type": "address"
        },
        {
          "indexed": false,
          "internalType": "uint256",
          "name": "indx",
          "type": "uint256"
        }
      ],
      "name": "OganizationAdded",
      "type": "event"
    },
    {
      "anonymous": false,
      "inputs": [
        {
          "indexed": false,
          "internalType": "address",
          "name": "_user",
          "type": "address"
        },
        {
          "indexed": false,
          "internalType": "uint256",
          "name": "indx",
          "type": "uint256"
        }
      ],
      "name": "OrganizerAdded",
      "type": "event"
    },
    {
      "anonymous": false,
      "inputs": [
        {
          "indexed": true,
          "internalType": "address",
          "name": "previousOwner",
          "type": "address"
        },
        {
          "indexed": true,
          "internalType": "address",
          "name": "newOwner",
          "type": "address"
        }
      ],
      "name": "OwnershipTransferred",
      "type": "event"
    },
    {
      "anonymous": false,
      "inputs": [
        {
          "indexed": false,
          "internalType": "address",
          "name": "usrAddr",
          "type": "address"
        },
        {
          "indexed": false,
          "internalType": "uint256",
          "name": "indx",
          "type": "uint256"
        }
      ],
      "name": "UserAdded",
      "type": "event"
    },
    {
      "anonymous": false,
      "inputs": [
        {
          "indexed": false,
          "internalType": "uint256",
          "name": "eventId",
          "type": "uint256"
        }
      ],
      "name": "eventAdded",
      "type": "event"
    },
    {
      "anonymous": false,
      "inputs": [
        {
          "indexed": false,
          "internalType": "uint256",
          "name": "eventId",
          "type": "uint256"
        },
        {
          "indexed": false,
          "internalType": "address",
          "name": "sportsmanId",
          "type": "address"
        }
      ],
      "name": "eventRegisterSportsman",
      "type": "event"
    },
    {
      "anonymous": false,
      "inputs": [
        {
          "indexed": false,
          "internalType": "uint256",
          "name": "eventId",
          "type": "uint256"
        }
      ],
      "name": "eventRemoved",
      "type": "event"
    },
    {
      "anonymous": false,
      "inputs": [
        {
          "indexed": false,
          "internalType": "uint256",
          "name": "eventId",
          "type": "uint256"
        },
        {
          "indexed": false,
          "internalType": "enum stateOfCompetition",
          "name": "newStatus",
          "type": "uint8"
        }
      ],
      "name": "eventStatusChanged",
      "type": "event"
    },
    {
      "anonymous": false,
      "inputs": [
        {
          "indexed": false,
          "internalType": "uint256",
          "name": "eventId",
          "type": "uint256"
        },
        {
          "indexed": false,
          "internalType": "address",
          "name": "winner",
          "type": "address"
        }
      ],
      "name": "eventWinnerSet",
      "type": "event"
    },
    {
      "anonymous": false,
      "inputs": [],
      "name": "organizerAddedEvent",
      "type": "event"
    },
    {
      "anonymous": false,
      "inputs": [
        {
          "indexed": false,
          "internalType": "address",
          "name": "usrAddr",
          "type": "address"
        }
      ],
      "name": "sportsmanAdded",
      "type": "event"
    },
    {
      "anonymous": false,
      "inputs": [
        {
          "indexed": false,
          "internalType": "address",
          "name": "sportsmanId",
          "type": "address"
        },
        {
          "indexed": false,
          "internalType": "uint256",
          "name": "medalID",
          "type": "uint256"
        }
      ],
      "name": "sportsmanMedalAdded",
      "type": "event"
    },
    {
      "anonymous": false,
      "inputs": [
        {
          "indexed": false,
          "internalType": "address",
          "name": "usrAddr",
          "type": "address"
        },
        {
          "indexed": false,
          "internalType": "uint256",
          "name": "eventID",
          "type": "uint256"
        }
      ],
      "name": "sportsmanRegisterdEvent",
      "type": "event"
    },
    {
      "anonymous": false,
      "inputs": [
        {
          "indexed": false,
          "internalType": "address",
          "name": "usrAddr",
          "type": "address"
        },
        {
          "indexed": false,
          "internalType": "uint256",
          "name": "eventID",
          "type": "uint256"
        }
      ],
      "name": "sportsmanUnregisterdEvent",
      "type": "event"
    },
    {
      "inputs": [
        {
          "internalType": "address",
          "name": "_user",
          "type": "address"
        },
        {
          "internalType": "uint256",
          "name": "_price",
          "type": "uint256"
        },
        {
          "internalType": "string",
          "name": "_description",
          "type": "string"
        },
        {
          "internalType": "string",
          "name": "_URI",
          "type": "string"
        }
      ],
      "name": "addCreation",
      "outputs": [],
      "stateMutability": "nonpayable",
      "type": "function"
    },
    {
      "inputs": [
        {
          "internalType": "address",
          "name": "_user",
          "type": "address"
        },
        {
          "internalType": "string",
          "name": "_name",
          "type": "string"
        },
        {
          "internalType": "string",
          "name": "_description",
          "type": "string"
        },
        {
          "internalType": "string",
          "name": "_logoURI",
          "type": "string"
        }
      ],
      "name": "addOrganization",
      "outputs": [],
      "stateMutability": "nonpayable",
      "type": "function"
    },
    {
      "inputs": [
        {
          "internalType": "uint256",
          "name": "_creationId",
          "type": "uint256"
        },
        {
          "internalType": "address",
          "name": "_NFT",
          "type": "address"
        }
      ],
      "name": "affectNFTtoCreation",
      "outputs": [],
      "stateMutability": "nonpayable",
      "type": "function"
    },
    {
      "inputs": [
        {
          "internalType": "uint256",
          "name": "",
          "type": "uint256"
        }
      ],
      "name": "allCreations",
      "outputs": [
        {
          "internalType": "address",
          "name": "author",
          "type": "address"
        },
        {
          "internalType": "address",
          "name": "NFT_Bkg_Adr",
          "type": "address"
        },
        {
          "internalType": "uint256",
          "name": "price",
          "type": "uint256"
        },
        {
          "internalType": "uint256",
          "name": "creationId",
          "type": "uint256"
        },
        {
          "internalType": "string",
          "name": "description",
          "type": "string"
        },
        {
          "internalType": "string",
          "name": "URI",
          "type": "string"
        }
      ],
      "stateMutability": "view",
      "type": "function",
      "constant": true
    },
    {
      "inputs": [
        {
          "internalType": "uint256",
          "name": "orgIndx",
          "type": "uint256"
        }
      ],
      "name": "checkorganizerisAdminOf",
      "outputs": [
        {
          "internalType": "bool",
          "name": "",
          "type": "bool"
        }
      ],
      "stateMutability": "view",
      "type": "function",
      "constant": true
    },
    {
      "inputs": [
        {
          "internalType": "uint256",
          "name": "organizer",
          "type": "uint256"
        },
        {
          "internalType": "uint256",
          "name": "orgIndx",
          "type": "uint256"
        }
      ],
      "name": "checkorganizerisAdminOf",
      "outputs": [
        {
          "internalType": "bool",
          "name": "",
          "type": "bool"
        }
      ],
      "stateMutability": "view",
      "type": "function",
      "constant": true
    },
    {
      "inputs": [
        {
          "internalType": "uint256",
          "name": "eventID",
          "type": "uint256"
        }
      ],
      "name": "eventGetMedal",
      "outputs": [
        {
          "internalType": "uint256",
          "name": "",
          "type": "uint256"
        }
      ],
      "stateMutability": "view",
      "type": "function",
      "constant": true
    },
    {
      "inputs": [
        {
          "internalType": "uint256",
          "name": "eventID",
          "type": "uint256"
        }
      ],
      "name": "eventGetPositionX",
      "outputs": [
        {
          "internalType": "string",
          "name": "",
          "type": "string"
        }
      ],
      "stateMutability": "view",
      "type": "function",
      "constant": true
    },
    {
      "inputs": [
        {
          "internalType": "uint256",
          "name": "eventID",
          "type": "uint256"
        }
      ],
      "name": "eventGetPositionY",
      "outputs": [
        {
          "internalType": "string",
          "name": "",
          "type": "string"
        }
      ],
      "stateMutability": "view",
      "type": "function",
      "constant": true
    },
    {
      "inputs": [
        {
          "internalType": "uint256",
          "name": "eventID",
          "type": "uint256"
        }
      ],
      "name": "eventGetWinner",
      "outputs": [
        {
          "internalType": "address",
          "name": "",
          "type": "address"
        }
      ],
      "stateMutability": "view",
      "type": "function",
      "constant": true
    },
    {
      "inputs": [
        {
          "internalType": "uint256",
          "name": "eventID",
          "type": "uint256"
        }
      ],
      "name": "eventHasMedal",
      "outputs": [
        {
          "internalType": "bool",
          "name": "",
          "type": "bool"
        }
      ],
      "stateMutability": "view",
      "type": "function",
      "constant": true
    },
    {
      "inputs": [
        {
          "internalType": "uint256",
          "name": "orgIndx",
          "type": "uint256"
        }
      ],
      "name": "getAdminList",
      "outputs": [
        {
          "internalType": "uint256[]",
          "name": "",
          "type": "uint256[]"
        }
      ],
      "stateMutability": "view",
      "type": "function",
      "constant": true
    },
    {
      "inputs": [
        {
          "internalType": "address",
          "name": "_user",
          "type": "address"
        }
      ],
      "name": "getAuthor",
      "outputs": [
        {
          "components": [
            {
              "internalType": "address",
              "name": "userAddress",
              "type": "address"
            },
            {
              "internalType": "uint256[]",
              "name": "creations",
              "type": "uint256[]"
            },
            {
              "internalType": "bool",
              "name": "activ",
              "type": "bool"
            }
          ],
          "internalType": "struct Author",
          "name": "",
          "type": "tuple"
        }
      ],
      "stateMutability": "view",
      "type": "function",
      "constant": true
    },
    {
      "inputs": [
        {
          "internalType": "address",
          "name": "_author",
          "type": "address"
        }
      ],
      "name": "getAuthorCreationsList",
      "outputs": [
        {
          "internalType": "uint256[]",
          "name": "",
          "type": "uint256[]"
        }
      ],
      "stateMutability": "view",
      "type": "function",
      "constant": true
    },
    {
      "inputs": [
        {
          "internalType": "uint256",
          "name": "_start",
          "type": "uint256"
        },
        {
          "internalType": "uint256",
          "name": "_end",
          "type": "uint256"
        }
      ],
      "name": "getCreationList",
      "outputs": [
        {
          "components": [
            {
              "internalType": "address",
              "name": "author",
              "type": "address"
            },
            {
              "internalType": "address",
              "name": "NFT_Bkg_Adr",
              "type": "address"
            },
            {
              "internalType": "uint256",
              "name": "price",
              "type": "uint256"
            },
            {
              "internalType": "uint256",
              "name": "creationId",
              "type": "uint256"
            },
            {
              "internalType": "string",
              "name": "description",
              "type": "string"
            },
            {
              "internalType": "string",
              "name": "URI",
              "type": "string"
            }
          ],
          "internalType": "struct NFT_Medal_Bkg_Desc[]",
          "name": "",
          "type": "tuple[]"
        }
      ],
      "stateMutability": "view",
      "type": "function",
      "constant": true
    },
    {
      "inputs": [
        {
          "internalType": "uint256",
          "name": "eventId",
          "type": "uint256"
        }
      ],
      "name": "getEvent",
      "outputs": [
        {
          "components": [
            {
              "internalType": "address",
              "name": "winner",
              "type": "address"
            },
            {
              "internalType": "uint256",
              "name": "eventId",
              "type": "uint256"
            },
            {
              "internalType": "uint256",
              "name": "organizedBy",
              "type": "uint256"
            },
            {
              "internalType": "uint256",
              "name": "medalID",
              "type": "uint256"
            },
            {
              "internalType": "uint128",
              "name": "startDate",
              "type": "uint128"
            },
            {
              "internalType": "uint128",
              "name": "endDate",
              "type": "uint128"
            },
            {
              "internalType": "enum stateOfCompetition",
              "name": "eventState",
              "type": "uint8"
            },
            {
              "internalType": "string",
              "name": "eventDescription",
              "type": "string"
            },
            {
              "internalType": "string",
              "name": "positionX",
              "type": "string"
            },
            {
              "internalType": "string",
              "name": "positionY",
              "type": "string"
            },
            {
              "internalType": "address[]",
              "name": "registeredSportsMan",
              "type": "address[]"
            },
            {
              "internalType": "bool",
              "name": "hasMedal",
              "type": "bool"
            },
            {
              "internalType": "bool",
              "name": "ended",
              "type": "bool"
            },
            {
              "internalType": "bool",
              "name": "started",
              "type": "bool"
            }
          ],
          "internalType": "struct EventHandler.EventDesc",
          "name": "",
          "type": "tuple"
        }
      ],
      "stateMutability": "view",
      "type": "function",
      "constant": true
    },
    {
      "inputs": [],
      "name": "getEventCount",
      "outputs": [
        {
          "internalType": "uint256",
          "name": "",
          "type": "uint256"
        }
      ],
      "stateMutability": "view",
      "type": "function",
      "constant": true
    },
    {
      "inputs": [
        {
          "internalType": "uint256",
          "name": "evntID",
          "type": "uint256"
        }
      ],
      "name": "getEventCurrentState",
      "outputs": [
        {
          "internalType": "enum stateOfCompetition",
          "name": "",
          "type": "uint8"
        }
      ],
      "stateMutability": "view",
      "type": "function",
      "constant": true
    },
    {
      "inputs": [
        {
          "internalType": "uint256",
          "name": "_start",
          "type": "uint256"
        },
        {
          "internalType": "uint256",
          "name": "_end",
          "type": "uint256"
        }
      ],
      "name": "getEventList",
      "outputs": [
        {
          "components": [
            {
              "internalType": "address",
              "name": "winner",
              "type": "address"
            },
            {
              "internalType": "uint256",
              "name": "eventId",
              "type": "uint256"
            },
            {
              "internalType": "uint256",
              "name": "organizedBy",
              "type": "uint256"
            },
            {
              "internalType": "uint256",
              "name": "medalID",
              "type": "uint256"
            },
            {
              "internalType": "uint128",
              "name": "startDate",
              "type": "uint128"
            },
            {
              "internalType": "uint128",
              "name": "endDate",
              "type": "uint128"
            },
            {
              "internalType": "enum stateOfCompetition",
              "name": "eventState",
              "type": "uint8"
            },
            {
              "internalType": "string",
              "name": "eventDescription",
              "type": "string"
            },
            {
              "internalType": "string",
              "name": "positionX",
              "type": "string"
            },
            {
              "internalType": "string",
              "name": "positionY",
              "type": "string"
            },
            {
              "internalType": "address[]",
              "name": "registeredSportsMan",
              "type": "address[]"
            },
            {
              "internalType": "bool",
              "name": "hasMedal",
              "type": "bool"
            },
            {
              "internalType": "bool",
              "name": "ended",
              "type": "bool"
            },
            {
              "internalType": "bool",
              "name": "started",
              "type": "bool"
            }
          ],
          "internalType": "struct EventHandler.EventDesc[]",
          "name": "",
          "type": "tuple[]"
        }
      ],
      "stateMutability": "view",
      "type": "function",
      "constant": true
    },
    {
      "inputs": [
        {
          "internalType": "uint256",
          "name": "orgId",
          "type": "uint256"
        }
      ],
      "name": "getEventList",
      "outputs": [
        {
          "internalType": "uint256[]",
          "name": "",
          "type": "uint256[]"
        }
      ],
      "stateMutability": "view",
      "type": "function",
      "constant": true
    },
    {
      "inputs": [
        {
          "internalType": "uint256",
          "name": "medalID",
          "type": "uint256"
        }
      ],
      "name": "getMedal",
      "outputs": [
        {
          "components": [
            {
              "internalType": "address",
              "name": "throwIn",
              "type": "address"
            },
            {
              "internalType": "address",
              "name": "winner",
              "type": "address"
            },
            {
              "internalType": "uint256",
              "name": "organizationID",
              "type": "uint256"
            },
            {
              "internalType": "uint256",
              "name": "eventID",
              "type": "uint256"
            },
            {
              "internalType": "bool",
              "name": "isInWinnerGallery",
              "type": "bool"
            }
          ],
          "internalType": "struct Medal",
          "name": "",
          "type": "tuple"
        }
      ],
      "stateMutability": "view",
      "type": "function",
      "constant": true
    },
    {
      "inputs": [],
      "name": "getMedalCount",
      "outputs": [
        {
          "internalType": "uint256",
          "name": "",
          "type": "uint256"
        }
      ],
      "stateMutability": "view",
      "type": "function",
      "constant": true
    },
    {
      "inputs": [
        {
          "internalType": "uint256",
          "name": "orgID",
          "type": "uint256"
        }
      ],
      "name": "getOrganizationName",
      "outputs": [
        {
          "internalType": "string",
          "name": "",
          "type": "string"
        }
      ],
      "stateMutability": "view",
      "type": "function",
      "constant": true
    },
    {
      "inputs": [
        {
          "internalType": "uint256",
          "name": "_start",
          "type": "uint256"
        },
        {
          "internalType": "uint256",
          "name": "_end",
          "type": "uint256"
        }
      ],
      "name": "getOrganizationsList",
      "outputs": [
        {
          "components": [
            {
              "internalType": "string",
              "name": "name",
              "type": "string"
            },
            {
              "internalType": "string",
              "name": "description",
              "type": "string"
            },
            {
              "internalType": "string",
              "name": "logoURI",
              "type": "string"
            }
          ],
          "internalType": "struct OrganizerHandler.organizationDesc[]",
          "name": "",
          "type": "tuple[]"
        }
      ],
      "stateMutability": "view",
      "type": "function",
      "constant": true
    },
    {
      "inputs": [
        {
          "internalType": "uint256",
          "name": "id",
          "type": "uint256"
        }
      ],
      "name": "getOrganizerAddressById",
      "outputs": [
        {
          "internalType": "address",
          "name": "",
          "type": "address"
        }
      ],
      "stateMutability": "view",
      "type": "function",
      "constant": true
    },
    {
      "inputs": [
        {
          "internalType": "address",
          "name": "_user",
          "type": "address"
        }
      ],
      "name": "getOrganizerOrganisationList",
      "outputs": [
        {
          "internalType": "uint256[]",
          "name": "",
          "type": "uint256[]"
        }
      ],
      "stateMutability": "view",
      "type": "function",
      "constant": true
    },
    {
      "inputs": [
        {
          "internalType": "address",
          "name": "sportsmanId",
          "type": "address"
        }
      ],
      "name": "getSportsManEventsNumber",
      "outputs": [
        {
          "internalType": "uint256",
          "name": "",
          "type": "uint256"
        }
      ],
      "stateMutability": "view",
      "type": "function",
      "constant": true
    },
    {
      "inputs": [
        {
          "internalType": "address",
          "name": "sportsmanId",
          "type": "address"
        }
      ],
      "name": "getSportsmanEventsSubscriptions",
      "outputs": [
        {
          "internalType": "uint256[]",
          "name": "",
          "type": "uint256[]"
        }
      ],
      "stateMutability": "view",
      "type": "function",
      "constant": true
    },
    {
      "inputs": [
        {
          "internalType": "uint256",
          "name": "_start",
          "type": "uint256"
        },
        {
          "internalType": "uint256",
          "name": "_end",
          "type": "uint256"
        }
      ],
      "name": "getSportsmanList",
      "outputs": [
        {
          "components": [
            {
              "internalType": "address",
              "name": "userAddress",
              "type": "address"
            },
            {
              "internalType": "uint256",
              "name": "nbActivSubscriptions",
              "type": "uint256"
            }
          ],
          "internalType": "struct SportsmanHandler.SportsmanDesc[]",
          "name": "",
          "type": "tuple[]"
        }
      ],
      "stateMutability": "view",
      "type": "function",
      "constant": true
    },
    {
      "inputs": [
        {
          "internalType": "address",
          "name": "sportsmanId",
          "type": "address"
        },
        {
          "internalType": "uint256",
          "name": "indx",
          "type": "uint256"
        }
      ],
      "name": "getSportsmanMedal",
      "outputs": [
        {
          "internalType": "uint256",
          "name": "",
          "type": "uint256"
        }
      ],
      "stateMutability": "view",
      "type": "function",
      "constant": true
    },
    {
      "inputs": [
        {
          "internalType": "address",
          "name": "sportsmanId",
          "type": "address"
        }
      ],
      "name": "getSportsmanMedalCount",
      "outputs": [
        {
          "internalType": "uint256",
          "name": "",
          "type": "uint256"
        }
      ],
      "stateMutability": "view",
      "type": "function",
      "constant": true
    },
    {
      "inputs": [
        {
          "internalType": "address",
          "name": "sportsmanId",
          "type": "address"
        }
      ],
      "name": "getSportsmanMedalList",
      "outputs": [
        {
          "internalType": "uint256[]",
          "name": "",
          "type": "uint256[]"
        }
      ],
      "stateMutability": "view",
      "type": "function",
      "constant": true
    },
    {
      "inputs": [],
      "name": "getUserCount",
      "outputs": [
        {
          "internalType": "uint256",
          "name": "",
          "type": "uint256"
        }
      ],
      "stateMutability": "view",
      "type": "function",
      "constant": true
    },
    {
      "inputs": [
        {
          "internalType": "address",
          "name": "_userAdr",
          "type": "address"
        }
      ],
      "name": "getUserDetails",
      "outputs": [
        {
          "components": [
            {
              "internalType": "uint256",
              "name": "role",
              "type": "uint256"
            },
            {
              "internalType": "string",
              "name": "iconURI",
              "type": "string"
            },
            {
              "internalType": "string",
              "name": "userName",
              "type": "string"
            },
            {
              "internalType": "string",
              "name": "email",
              "type": "string"
            },
            {
              "internalType": "bool",
              "name": "activ",
              "type": "bool"
            }
          ],
          "internalType": "struct User",
          "name": "",
          "type": "tuple"
        }
      ],
      "stateMutability": "view",
      "type": "function",
      "constant": true
    },
    {
      "inputs": [
        {
          "internalType": "uint256",
          "name": "eventId",
          "type": "uint256"
        }
      ],
      "name": "getWinner",
      "outputs": [
        {
          "internalType": "address",
          "name": "",
          "type": "address"
        }
      ],
      "stateMutability": "view",
      "type": "function",
      "constant": true
    },
    {
      "inputs": [
        {
          "internalType": "uint256",
          "name": "orgId",
          "type": "uint256"
        },
        {
          "internalType": "address",
          "name": "_user",
          "type": "address"
        }
      ],
      "name": "organizationAddAdmin",
      "outputs": [],
      "stateMutability": "nonpayable",
      "type": "function"
    },
    {
      "inputs": [],
      "name": "owner",
      "outputs": [
        {
          "internalType": "address",
          "name": "",
          "type": "address"
        }
      ],
      "stateMutability": "view",
      "type": "function",
      "constant": true
    },
    {
      "inputs": [
        {
          "internalType": "uint256",
          "name": "",
          "type": "uint256"
        }
      ],
      "name": "registeredAuthors",
      "outputs": [
        {
          "internalType": "address",
          "name": "",
          "type": "address"
        }
      ],
      "stateMutability": "view",
      "type": "function",
      "constant": true
    },
    {
      "inputs": [
        {
          "internalType": "uint256",
          "name": "",
          "type": "uint256"
        }
      ],
      "name": "registeredSportsman",
      "outputs": [
        {
          "internalType": "address",
          "name": "",
          "type": "address"
        }
      ],
      "stateMutability": "view",
      "type": "function",
      "constant": true
    },
    {
      "inputs": [
        {
          "internalType": "uint256",
          "name": "",
          "type": "uint256"
        }
      ],
      "name": "registeredUsers",
      "outputs": [
        {
          "internalType": "address",
          "name": "",
          "type": "address"
        }
      ],
      "stateMutability": "view",
      "type": "function",
      "constant": true
    },
    {
      "inputs": [],
      "name": "renounceOwnership",
      "outputs": [],
      "stateMutability": "nonpayable",
      "type": "function"
    },
    {
      "inputs": [
        {
          "internalType": "address",
          "name": "newOwner",
          "type": "address"
        }
      ],
      "name": "transferOwnership",
      "outputs": [],
      "stateMutability": "nonpayable",
      "type": "function"
    },
    {
      "inputs": [
        {
          "internalType": "address",
          "name": "_userAddress",
          "type": "address"
        },
        {
          "internalType": "string",
          "name": "_iconURI",
          "type": "string"
        },
        {
          "internalType": "string",
          "name": "_userName",
          "type": "string"
        },
        {
          "internalType": "string",
          "name": "_email",
          "type": "string"
        },
        {
          "internalType": "uint256",
          "name": "_role",
          "type": "uint256"
        }
      ],
      "name": "addNewUser",
      "outputs": [],
      "stateMutability": "nonpayable",
      "type": "function"
    },
    {
      "inputs": [
        {
          "internalType": "address",
          "name": "_userAddress",
          "type": "address"
        },
        {
          "internalType": "uint256",
          "name": "eventid",
          "type": "uint256"
        }
      ],
      "name": "LinkUserAndEvent",
      "outputs": [],
      "stateMutability": "nonpayable",
      "type": "function"
    },
    {
      "inputs": [
        {
          "internalType": "uint256",
          "name": "organizationId",
          "type": "uint256"
        },
        {
          "internalType": "uint128",
          "name": "startDate",
          "type": "uint128"
        },
        {
          "internalType": "uint128",
          "name": "endDate",
          "type": "uint128"
        },
        {
          "internalType": "string",
          "name": "eventDesc",
          "type": "string"
        }
      ],
      "name": "newEvent",
      "outputs": [],
      "stateMutability": "nonpayable",
      "type": "function"
    },
    {
      "inputs": [
        {
          "internalType": "uint256",
          "name": "eventID",
          "type": "uint256"
        }
      ],
      "name": "adminStartEvent",
      "outputs": [],
      "stateMutability": "nonpayable",
      "type": "function"
    },
    {
      "inputs": [
        {
          "internalType": "uint256",
          "name": "eventID",
          "type": "uint256"
        }
      ],
      "name": "adminEndEvent",
      "outputs": [],
      "stateMutability": "nonpayable",
      "type": "function"
    },
    {
      "inputs": [
        {
          "internalType": "uint256",
          "name": "eventID",
          "type": "uint256"
        },
        {
          "internalType": "address",
          "name": "winner",
          "type": "address"
        }
      ],
      "name": "adminSetWinner",
      "outputs": [],
      "stateMutability": "nonpayable",
      "type": "function"
    },
    {
      "inputs": [
        {
          "internalType": "uint256",
          "name": "eventID",
          "type": "uint256"
        },
        {
          "internalType": "address",
          "name": "_nft",
          "type": "address"
        }
      ],
      "name": "adminAddMedal",
      "outputs": [],
      "stateMutability": "nonpayable",
      "type": "function"
    },
    {
      "inputs": [
        {
          "internalType": "uint256",
          "name": "eventID",
          "type": "uint256"
        }
      ],
      "name": "adminGiveMedalToWinner",
      "outputs": [],
      "stateMutability": "nonpayable",
      "type": "function"
    },
    {
      "inputs": [
        {
          "internalType": "uint256",
          "name": "medalIndx",
          "type": "uint256"
        },
        {
          "internalType": "bool",
          "name": "status",
          "type": "bool"
        }
      ],
      "name": "publishMedal",
      "outputs": [],
      "stateMutability": "nonpayable",
      "type": "function"
    },
    {
      "inputs": [
        {
          "internalType": "uint256",
          "name": "eventID",
          "type": "uint256"
        },
        {
          "internalType": "string",
          "name": "posX",
          "type": "string"
        },
        {
          "internalType": "string",
          "name": "posY",
          "type": "string"
        }
      ],
      "name": "adminSetEventPosition",
      "outputs": [],
      "stateMutability": "nonpayable",
      "type": "function"
    },
    {
      "inputs": [],
      "name": "withdraw",
      "outputs": [],
      "stateMutability": "nonpayable",
      "type": "function"
    },
    {
      "inputs": [],
      "name": "getBalance",
      "outputs": [
        {
          "internalType": "uint256",
          "name": "",
          "type": "uint256"
        }
      ],
      "stateMutability": "view",
      "type": "function",
      "constant": true
    }
  ],
  "bytecode": "0x60806040523480156200001157600080fd5b5060405162005cad38038062005cad8339810160408190526200003491620000c2565b62000048620000426200006e565b62000072565b600e80546001600160a01b0319166001600160a01b0392909216919091179055620000f2565b3390565b600080546001600160a01b038381166001600160a01b0319831681178455604051919092169283917f8be0079c531659141344cd1fd0a4f28419497f9722a3daafe3b4186f6b6457e09190a35050565b600060208284031215620000d4578081fd5b81516001600160a01b0381168114620000eb578182fd5b9392505050565b615bab80620001026000396000f3fe608060405234801561001057600080fd5b50600436106102815760003560e01c80638da5cb5b116101585780638da5cb5b146104f85780638ed1891d146105005780639107e8791461051357806391850ab3146105265780639847587a14610539578063ade03dbf1461054c578063b5cb15f71461055f578063b700389f14610567578063c46f05b914610587578063c88872491461059a578063cc3d967b146105ba578063cd284f65146105da578063ce7c5d9d146105ed578063d4a0e8ad146105f5578063d7bc151a14610608578063d9e48f5c1461061b578063e56afc7514610623578063eebd127414610636578063f022f35514610649578063f2fde38b1461065c578063f82b84401461066f578063fb87aa4214610682578063fbcbd06714610695578063fbf5f199146106a8578063fd395fc5146106bb578063fd7f1b54146106db578063fe4363a3146106ee57610281565b80622176f3146102865780630ab300931461029b5780630d4f284a146102c457806312065fe0146102d757806320ad6864146102ec57806323708737146102ff5780632605d9a7146103125780632bd0e1cc1461033257806335d3339e1461035257806338caac65146103725780633a6526fb146103855780633ccfd60b146103985780633da21e3a146103a05780634129b2c9146103b35780634dbc196c146103d35780635336abb5146103e657806354abd15f1461040b57806355d97b3f1461041e5780635a473e251461043e5780635b4c4b20146104515780635e2fc6bf146104645780636ccf16b0146104775780636d1884e01461048a578063715018a6146104aa5780637259e0f8146104b25780637990b367146104c5578063826226bf146104d8575b600080fd5b610299610294366004614f5f565b61070e565b005b6102ae6102a9366004614eb1565b6107d1565b6040516102bb919061591a565b60405180910390f35b6102996102d2366004614ffb565b61089c565b6102df6108dc565b6040516102bb9190615a33565b6102996102fa366004615080565b610962565b61029961030d36600461510a565b610a0d565b610325610320366004615080565b610a52565b6040516102bb91906156c6565b610345610340366004614eb1565b610a81565b6040516102bb9190615693565b6103656103603660046151cc565b610af0565b6040516102bb919061548e565b6102df610380366004615080565b610fa8565b6102df610393366004614eb1565b611017565b610299611035565b6102df6103ae366004614ffb565b6111d3565b6103c66103c1366004615080565b61125c565b6040516102bb9190615408565b6103c66103e1366004615080565b6112b3565b6103f96103f4366004615080565b6112dd565b6040516102bb9695949392919061541c565b6102996104193660046150b0565b611444565b61043161042c366004615080565b611535565b6040516102bb91906156d4565b6103c661044c366004615080565b61162c565b61043161045f366004615080565b6116a2565b610299610472366004615024565b61177e565b610345610485366004615080565b611976565b61049d610498366004615080565b611a03565b6040516102bb9190615960565b610299611d66565b6103c66104c0366004615080565b611db1565b6103c66104d3366004615080565b611dc1565b6104eb6104e6366004615080565b611dd1565b6040516102bb91906156a6565b6103c6611e0f565b61029961050e366004615080565b611e1e565b610345610521366004614eb1565b611e5a565b610345610534366004614eb1565b611f2b565b6102df610547366004614eb1565b61214b565b61029961055a3660046150db565b612194565b6102df6121ac565b61057a610575366004615080565b6121b2565b6040516102bb9190615973565b610345610595366004615080565b612262565b6105ad6105a83660046151cc565b61241e565b6040516102bb91906154ee565b6105cd6105c8366004614eb1565b6127e1565b6040516102bb91906159b8565b6102996105e83660046150b0565b612a09565b6102df612acb565b610299610603366004615080565b612ad1565b6102996106163660046150b0565b612b0d565b6102df612baa565b6102996106313660046150b0565b612bb0565b610345610644366004614eb1565b612d11565b6104eb610657366004615080565b612e72565b61029961066a366004614eb1565b612ee5565b61029961067d366004615173565b612f56565b6103c6610690366004615080565b613057565b6102996106a3366004614ecb565b6130ae565b6104eb6106b63660046151cc565b6131e7565b6106ce6106c93660046151cc565b6132f6565b6040516102bb91906155ab565b6104316106e9366004615080565b613497565b6107016106fc3660046151cc565b613506565b6040516102bb9190615603565b610716613885565b6001600160a01b0316610727611e0f565b6001600160a01b0316146107565760405162461bcd60e51b815260040161074d906158a7565b60405180910390fd5b846001600160a01b03811661077d5760405162461bcd60e51b815260040161074d906158fb565b61078a8686868686613889565b816002166002141561079f5761079f86613a3d565b81600416600414156107b4576107b486613b5e565b81600816600814156107c9576107c986613cad565b505050505050565b6107d9614bf1565b816001600160a01b0381166108005760405162461bcd60e51b815260040161074d906158fb565b6001600160a01b0380841660009081526003602090815260409182902082516060810184528154909416845260018101805484518185028101850190955280855291938584019390929083018282801561087957602002820191906000526020600020905b815481526020019060010190808311610865575b50505091835250506002919091015460ff16151560209091015291505b50919050565b816001600160a01b0381166108c35760405162461bcd60e51b815260040161074d906158fb565b6108cd8284613db3565b6108d78383613e85565b505050565b600e546040516370a0823160e01b81526000916001600160a01b0316906370a082319061090d903090600401615408565b60206040518083038186803b15801561092557600080fd5b505afa158015610939573d6000803e3d6000fd5b505050506040513d601f19601f8201168201806040525081019061095d9190615098565b905090565b80600061096e82613fc4565b905061097981611dd1565b6109955760405162461bcd60e51b815260040161074d906156e7565b60006109a08461125c565b90506001600160a01b0381166109c85760405162461bcd60e51b815260040161074d9061584a565b6109d184612e72565b6109da57600080fd5b6109ec6109e685610fa8565b82614033565b6109f5846140b2565b610a0781610a0286610fa8565b614212565b50505050565b826000610a1982613fc4565b9050610a2481611dd1565b610a405760405162461bcd60e51b815260040161074d906156e7565b610a4b858585614273565b5050505050565b6000600981610a62600185615a9d565b815260208101919091526040016000206005015460ff1690505b919050565b6001600160a01b038116600090815260066020908152604091829020600501805483518184028101840190945280845260609392830182828015610ae457602002820191906000526020600020905b815481526020019060010190808311610ad0575b50505050509050919050565b60606008548060001415610b165760405162461bcd60e51b815260040161074d906158fb565b8380610b345760405162461bcd60e51b815260040161074d906158fb565b84610b3e81615ab4565b9550508380610b4c90615ab4565b94505083851115610b5c57600080fd5b6008548510610b7d5760405162461bcd60e51b815260040161074d906158dc565b6008548410610b98576001600854610b959190615a9d565b93505b6000610ba48686615a9d565b610baf906001615a85565b6001600160401b03811115610bd457634e487b7160e01b600052604160045260246000fd5b604051908082528060200260200182016040528015610c0d57816020015b610bfa614c1d565b815260200190600190039081610bf25790505b509050855b858111610f9e5760008181526009602090815260409182902082516101c08101845281546001600160a01b03168152600182015492810192909252600281015492820192909252600380830154606083015260048301546001600160801b038082166080850152600160801b9091041660a0830152600583015491929160c084019160ff90911690811115610cb757634e487b7160e01b600052602160045260246000fd5b6003811115610cd657634e487b7160e01b600052602160045260246000fd5b8152602001600682018054610cea90615acb565b80601f0160208091040260200160405190810160405280929190818152602001828054610d1690615acb565b8015610d635780601f10610d3857610100808354040283529160200191610d63565b820191906000526020600020905b815481529060010190602001808311610d4657829003601f168201915b50505050508152602001600782018054610d7c90615acb565b80601f0160208091040260200160405190810160405280929190818152602001828054610da890615acb565b8015610df55780601f10610dca57610100808354040283529160200191610df5565b820191906000526020600020905b815481529060010190602001808311610dd857829003601f168201915b50505050508152602001600882018054610e0e90615acb565b80601f0160208091040260200160405190810160405280929190818152602001828054610e3a90615acb565b8015610e875780601f10610e5c57610100808354040283529160200191610e87565b820191906000526020600020905b815481529060010190602001808311610e6a57829003601f168201915b5050505050815260200160098201805480602002602001604051908101604052809291908181526020018280548015610ee957602002820191906000526020600020905b81546001600160a01b03168152600190910190602001808311610ecb575b5050509183525050600a919091015460ff808216151560208401526101008204811615156040840152620100009091041615156060909101528251839083908110610f4457634e487b7160e01b600052603260045260246000fd5b60200260200101819052506001828281518110610f7157634e487b7160e01b600052603260045260246000fd5b6020026020010151602001818151610f899190615a85565b90525080610f9681615b00565b915050610c12565b5095945050505050565b60008160085480821115610fce5760405162461bcd60e51b815260040161074d906158dc565b8380610fec5760405162461bcd60e51b815260040161074d906158fb565b60096000610ffb600188615a9d565b8152602001908152602001600020600301549350505050919050565b6001600160a01b031660009081526006602052604090206005015490565b61103d613885565b6001600160a01b031661104e611e0f565b6001600160a01b0316146110745760405162461bcd60e51b815260040161074d906158a7565b600e546040516370a0823160e01b81526000916001600160a01b0316906370a08231906110a5903090600401615408565b60206040518083038186803b1580156110bd57600080fd5b505afa1580156110d1573d6000803e3d6000fd5b505050506040513d601f19601f820116820180604052508101906110f59190615098565b9050806111145760405162461bcd60e51b815260040161074d90615789565b7f12d11f6915341411cb4438bf1d1e3d9cc3fd623f66608618948a131d3cd0bf88336040516111439190615408565b60405180910390a1600e5460405163a9059cbb60e01b81526001600160a01b039091169063a9059cbb9061117d9033908590600401615475565b602060405180830381600087803b15801561119757600080fd5b505af11580156111ab573d6000803e3d6000fd5b505050506040513d601f19601f820116820180604052508101906111cf9190615064565b5050565b6001600160a01b038216600090815260066020526040812060050154821061120d5760405162461bcd60e51b815260040161074d906158dc565b6001600160a01b038316600090815260066020526040902060050180548390811061124857634e487b7160e01b600052603260045260246000fd5b906000526020600020015490505b92915050565b600081600854808211156112825760405162461bcd60e51b815260040161074d906158dc565b60096000611291600187615a9d565b81526020810191909152604001600020546001600160a01b0316949350505050565b600781815481106112c357600080fd5b6000918252602090912001546001600160a01b0316905081565b600581815481106112ed57600080fd5b6000918252602090912060069091020180546001820154600283015460038401546004850180546001600160a01b03958616975093909416949193909261133390615acb565b80601f016020809104026020016040519081016040528092919081815260200182805461135f90615acb565b80156113ac5780601f10611381576101008083540402835291602001916113ac565b820191906000526020600020905b81548152906001019060200180831161138f57829003601f168201915b5050505050908060050180546113c190615acb565b80601f01602080910402602001604051908101604052809291908181526020018280546113ed90615acb565b801561143a5780601f1061140f5761010080835404028352916020019161143a565b820191906000526020600020905b81548152906001019060200180831161141d57829003601f168201915b5050505050905086565b81600061145082613fc4565b905061145b81611dd1565b6114775760405162461bcd60e51b815260040161074d906156e7565b6040516301ffc9a760e01b81526001600160a01b038416906301ffc9a7906114aa906380ac58cd60e01b906004016156b1565b60206040518083038186803b1580156114c257600080fd5b505afa1580156114d6573d6000803e3d6000fd5b505050506040513d601f19601f820116820180604052508101906114fa9190615064565b50600061150685613fc4565b9050611513848287614327565b6000600161151f612acb565b6115299190615a9d565b90506107c9868261449a565b6060816008548082111561155b5760405162461bcd60e51b815260040161074d906158dc565b83806115795760405162461bcd60e51b815260040161074d906158fb565b60096000611588600188615a9d565b815260200190815260200160002060080180546115a490615acb565b80601f01602080910402602001604051908101604052809291908181526020018280546115d090615acb565b801561161d5780601f106115f25761010080835404028352916020019161161d565b820191906000526020600020905b81548152906001019060200180831161160057829003601f168201915b50505050509350505050919050565b600081600854808211156116525760405162461bcd60e51b815260040161074d906158dc565b83806116705760405162461bcd60e51b815260040161074d906158fb565b6009600061167f600188615a9d565b81526020810191909152604001600020546001600160a01b031695945050505050565b600c5460609082106116c65760405162461bcd60e51b815260040161074d906158dc565b600c82815481106116e757634e487b7160e01b600052603260045260246000fd5b9060005260206000209060050201600201805461170390615acb565b80601f016020809104026020016040519081016040528092919081815260200182805461172f90615acb565b8015610ae45780601f1061175157610100808354040283529160200191610ae4565b820191906000526020600020905b81548152906001019060200180831161175f5750939695505050505050565b611786613885565b6001600160a01b0316611797611e0f565b6001600160a01b0316146117bd5760405162461bcd60e51b815260040161074d906158a7565b836001600160a01b0381166117e45760405162461bcd60e51b815260040161074d906158fb565b6001600160a01b0385166000908152600360205260409020600281015460ff166118205760405162461bcd60e51b815260040161074d9061574c565b600580546001810180835560008381526040805160c0810182526001600160a01b038c16815260208101929092528101899052606081018390526080810188905260a081018790529192908390811061188957634e487b7160e01b600052603260045260246000fd5b6000918252602091829020835160069092020180546001600160a01b039283166001600160a01b0319918216178255848401516001830180549190941691161790915560408301516002820155606083015160038201556080830151805191926118fb92600485019290910190614c8b565b5060a08201518051611917916005840191602090910190614c8b565b505050600180830180549182018155600090815260209020018190556040517f6ebd5b45b68b36b036925496b54a9c90f49bdc2a23cf8fb9d7f92e13eb113c15906119659089908490615475565b60405180910390a150505050505050565b60606000600c838154811061199b57634e487b7160e01b600052603260045260246000fd5b90600052602060002090600502016001018054806020026020016040519081016040528092919081815260200182805480156119f657602002820191906000526020600020905b8154815260200190600101908083116119e2575b5093979650505050505050565b611a0b614c1d565b8180611a295760405162461bcd60e51b815260040161074d906158fb565b6000600981611a39600187615a9d565b8152602080820192909252604090810160002081516101c08101835281546001600160a01b03168152600182015493810193909352600281015491830191909152600380820154606084015260048201546001600160801b038082166080860152600160801b9091041660a0840152600582015460c084019160ff90911690811115611ad557634e487b7160e01b600052602160045260246000fd5b6003811115611af457634e487b7160e01b600052602160045260246000fd5b8152602001600682018054611b0890615acb565b80601f0160208091040260200160405190810160405280929190818152602001828054611b3490615acb565b8015611b815780601f10611b5657610100808354040283529160200191611b81565b820191906000526020600020905b815481529060010190602001808311611b6457829003601f168201915b50505050508152602001600782018054611b9a90615acb565b80601f0160208091040260200160405190810160405280929190818152602001828054611bc690615acb565b8015611c135780601f10611be857610100808354040283529160200191611c13565b820191906000526020600020905b815481529060010190602001808311611bf657829003601f168201915b50505050508152602001600882018054611c2c90615acb565b80601f0160208091040260200160405190810160405280929190818152602001828054611c5890615acb565b8015611ca55780601f10611c7a57610100808354040283529160200191611ca5565b820191906000526020600020905b815481529060010190602001808311611c8857829003601f168201915b5050505050815260200160098201805480602002602001604051908101604052809291908181526020018280548015611d0757602002820191906000526020600020905b81546001600160a01b03168152600190910190602001808311611ce9575b5050509183525050600a919091015460ff808216151560208085019190915261010083048216151560408501526201000090920416151560609092019190915281018051919250600191611d5c908390615a85565b9052509392505050565b611d6e613885565b6001600160a01b0316611d7f611e0f565b6001600160a01b031614611da55760405162461bcd60e51b815260040161074d906158a7565b611daf6000614511565b565b600281815481106112c357600080fd5b600481815481106112c357600080fd5b336000908152600b602052604081205480611dfe5760405162461bcd60e51b815260040161074d9061580c565b611e0881846131e7565b9392505050565b6000546001600160a01b031690565b806000611e2a82613fc4565b9050611e3581611dd1565b611e515760405162461bcd60e51b815260040161074d906156e7565b6108d783614561565b6060816001600160a01b038116611e835760405162461bcd60e51b815260040161074d906158fb565b6001600160a01b03831660009081526003602052604090206001015480611ebc5760405162461bcd60e51b815260040161074d906158fb565b6001600160a01b03841660009081526003602090815260409182902060010180548351818402810184019094528084529091830182828015611f1d57602002820191906000526020600020905b815481526020019060010190808311611f09575b505050505092505050919050565b6001600160a01b0381166000908152600b602052604090205460609080611f645760405162461bcd60e51b815260040161074d9061580c565b80611f6e81615ab4565b9150506000600a8281548110611f9457634e487b7160e01b600052603260045260246000fd5b906000526020600020906004020160020154905060008111611fc85760405162461bcd60e51b815260040161074d9061582b565b6000816001600160401b03811115611ff057634e487b7160e01b600052604160045260246000fd5b604051908082528060200260200182016040528015612019578160200160208202803683370190505b5090506000805b600c54811015612140576000600a868154811061204d57634e487b7160e01b600052603260045260246000fd5b9060005260206000209060040201600101828154811061207d57634e487b7160e01b600052603260045260246000fd5b9060005260206000200154111561212e576001600a86815481106120b157634e487b7160e01b600052603260045260246000fd5b906000526020600020906004020160010182815481106120e157634e487b7160e01b600052603260045260246000fd5b90600052602060002001546120f69190615a9d565b838361210181615b00565b94508151811061212157634e487b7160e01b600052603260045260246000fd5b6020026020010181815250505b8061213881615b00565b915050612020565b509095945050505050565b6000816001600160a01b0381166121745760405162461bcd60e51b815260040161074d906158fb565b50506001600160a01b031660009081526006602052604090206002015490565b60006121a033846111d3565b90506108d781836146b2565b60025490565b6121ba614d0f565b600d54829081106121dd5760405162461bcd60e51b815260040161074d906158dc565b600d83815481106121fe57634e487b7160e01b600052603260045260246000fd5b60009182526020918290206040805160a081018252600590930290910180546001600160a01b039081168452600182015416938301939093526002830154908201526003820154606082015260049091015460ff1615156080820152915050919050565b600c54606090829080821061227657600080fd5b600061228185614750565b90506000816001600160401b038111156122ab57634e487b7160e01b600052604160045260246000fd5b6040519080825280602002602001820160405280156122d4578160200160208202803683370190505b50905060005b600c87815481106122fb57634e487b7160e01b600052603260045260246000fd5b6000918252602090912060059091020154811015610f9e576000600c888154811061233657634e487b7160e01b600052603260045260246000fd5b9060005260206000209060050201600001828154811061236657634e487b7160e01b600052603260045260246000fd5b9060005260206000200154111561240c576001600c888154811061239a57634e487b7160e01b600052603260045260246000fd5b906000526020600020906005020160000182815481106123ca57634e487b7160e01b600052603260045260246000fd5b90600052602060002001546123df9190615a9d565b8282815181106123ff57634e487b7160e01b600052603260045260246000fd5b6020026020010181815250505b8061241681615b00565b9150506122da565b600554606090806124415760405162461bcd60e51b815260040161074d906158fb565b8284111561244e57600080fd5b600554841061246f5760405162461bcd60e51b815260040161074d906158dc565b600554831061248a5760055461248790600190615a9d565b92505b60006124968585615a9d565b6124a1906001615a85565b6001600160401b038111156124c657634e487b7160e01b600052604160045260246000fd5b6040519080825280602002602001820160405280156124ff57816020015b6124ec614d3d565b8152602001906001900390816124e45790505b509050845b8481116127d8576040518060c001604052806005838154811061253757634e487b7160e01b600052603260045260246000fd5b6000918252602091829020600690910201546001600160a01b031682526005805492909101918490811061257b57634e487b7160e01b600052603260045260246000fd5b6000918252602091829020600160069092020101546001600160a01b03168252600580549290910191849081106125c257634e487b7160e01b600052603260045260246000fd5b9060005260206000209060060201600201548152602001600583815481106125fa57634e487b7160e01b600052603260045260246000fd5b90600052602060002090600602016003015481526020016005838154811061263257634e487b7160e01b600052603260045260246000fd5b9060005260206000209060060201600401805461264e90615acb565b80601f016020809104026020016040519081016040528092919081815260200182805461267a90615acb565b80156126c75780601f1061269c576101008083540402835291602001916126c7565b820191906000526020600020905b8154815290600101906020018083116126aa57829003601f168201915b50505050508152602001600583815481106126f257634e487b7160e01b600052603260045260246000fd5b9060005260206000209060060201600501805461270e90615acb565b80601f016020809104026020016040519081016040528092919081815260200182805461273a90615acb565b80156127875780601f1061275c57610100808354040283529160200191612787565b820191906000526020600020905b81548152906001019060200180831161276a57829003601f168201915b505050505081525082878361279c9190615a9d565b815181106127ba57634e487b7160e01b600052603260045260246000fd5b602002602001018190525080806127d090615b00565b915050612504565b50949350505050565b6127e9614d85565b816001600160a01b0381166128105760405162461bcd60e51b815260040161074d906158fb565b6001600160a01b038316600090815260016020818152604092839020835160a081019094528054845291820180549184019161284b90615acb565b80601f016020809104026020016040519081016040528092919081815260200182805461287790615acb565b80156128c45780601f10612899576101008083540402835291602001916128c4565b820191906000526020600020905b8154815290600101906020018083116128a757829003601f168201915b505050505081526020016002820180546128dd90615acb565b80601f016020809104026020016040519081016040528092919081815260200182805461290990615acb565b80156129565780601f1061292b57610100808354040283529160200191612956565b820191906000526020600020905b81548152906001019060200180831161293957829003601f168201915b5050505050815260200160038201805461296f90615acb565b80601f016020809104026020016040519081016040528092919081815260200182805461299b90615acb565b80156129e85780601f106129bd576101008083540402835291602001916129e8565b820191906000526020600020905b8154815290600101906020018083116129cb57829003601f168201915b50505091835250506004919091015460ff1615156020909101529392505050565b612a11613885565b6001600160a01b0316612a22611e0f565b6001600160a01b031614612a485760405162461bcd60e51b815260040161074d906158a7565b806001600160a01b038116612a6f5760405162461bcd60e51b815260040161074d906158fb565b8160058481548110612a9157634e487b7160e01b600052603260045260246000fd5b906000526020600020906006020160010160006101000a8154816001600160a01b0302191690836001600160a01b03160217905550505050565b600d5490565b806000612add82613fc4565b9050612ae881611dd1565b612b045760405162461bcd60e51b815260040161074d906156e7565b6108d783614818565b816000612b1982613fc4565b9050612b2481611dd1565b612b405760405162461bcd60e51b815260040161074d906156e7565b826001600160a01b038116612b675760405162461bcd60e51b815260040161074d906158fb565b6001612b7286610a52565b6003811115612b9157634e487b7160e01b600052602160045260246000fd5b1415612ba057612ba085614561565b610a4b8585614968565b60085490565b612bb8613885565b6001600160a01b0316612bc9611e0f565b6001600160a01b031614612bef5760405162461bcd60e51b815260040161074d906158a7565b806001600160a01b038116612c165760405162461bcd60e51b815260040161074d906158fb565b6000600c8481548110612c3957634e487b7160e01b600052603260045260246000fd5b600091825260208083206001600160a01b0387168452600b9091526040909220546005909102909101915080612c7f57634e487b7160e01b600052600160045260246000fd5b6000600a612c8e600184615a9d565b81548110612cac57634e487b7160e01b600052603260045260246000fd5b9060005260206000209060040201905080600101866001612ccd9190615a85565b8154600181018355600092835260208320015560028201805491612cf083615b00565b90915550508254600181018455600093845260209093209092015550505050565b6001600160a01b038116600090815260066020526040902060020154606090612d4a57634e487b7160e01b600052600160045260246000fd5b6001600160a01b0382166000908152600660205260408120600201546001600160401b03811115612d8b57634e487b7160e01b600052604160045260246000fd5b604051908082528060200260200182016040528015612db4578160200160208202803683370190505b5090506000805b6001600160a01b038516600090815260066020526040902060010154811015612e69576001600160a01b03851660009081526006602090815260408083208484526003810183528184205480855260049091019092529091205460ff1615612e5657808484612e2981615b00565b955081518110612e4957634e487b7160e01b600052603260045260246000fd5b6020026020010181815250505b5080612e6181615b00565b915050612dbb565b50909392505050565b60008160085480821115612e985760405162461bcd60e51b815260040161074d906158dc565b8380612eb65760405162461bcd60e51b815260040161074d906158fb565b60096000612ec5600188615a9d565b81526020810191909152604001600020600a015460ff1695945050505050565b612eed613885565b6001600160a01b0316612efe611e0f565b6001600160a01b031614612f245760405162461bcd60e51b815260040161074d906158a7565b6001600160a01b038116612f4a5760405162461bcd60e51b815260040161074d90615706565b612f5381614511565b50565b6001600160801b03831680612f7d5760405162461bcd60e51b815260040161074d906158fb565b6001600160801b03831680612fa45760405162461bcd60e51b815260040161074d906158fb565b846001600160801b0316846001600160801b031611612fd55760405162461bcd60e51b815260040161074d906157a8565b336000908152600b6020526040902054806130025760405162461bcd60e51b815260040161074d9061576b565b61300c81886131e7565b6130285760405162461bcd60e51b815260040161074d906157cf565b600061303688888888614a86565b905061304d8289613048846001615a85565b614b5f565b5050505050505050565b600a54600090829080821061306b57600080fd5b600a848154811061308c57634e487b7160e01b600052603260045260246000fd5b60009182526020909120600490910201546001600160a01b0316949350505050565b836001600160a01b0381166130d55760405162461bcd60e51b815260040161074d906158fb565b6130dd613885565b6001600160a01b03166130ee611e0f565b6001600160a01b0316146131145760405162461bcd60e51b815260040161074d906158a7565b600c80546001810182556000919091528451600582027fdf6966c971051c3d54ec59162606531493a51404a002842f56009d7e5cf4a8c781019161317f917fdf6966c971051c3d54ec59162606531493a51404a002842f56009d7e5cf4a8c901906020890190614c8b565b5084516131959060038301906020880190614c8b565b5083516131ab9060048301906020870190614c8b565b506131b68288612bb0565b7fcbbf31cd62dff8d3e3fd3ff1549adbbd47b39c0682301e54af8f3a0ffaade4a38783604051611965929190615475565b600c54600090821061320b5760405162461bcd60e51b815260040161074d906157ed565b600a5483111561322d5760405162461bcd60e51b815260040161074d906158dc565b6000600c838154811061325057634e487b7160e01b600052603260045260246000fd5b6000918252602082206005909102015491505b818110156132eb5784600c858154811061328d57634e487b7160e01b600052603260045260246000fd5b906000526020600020906005020160000182815481106132bd57634e487b7160e01b600052603260045260246000fd5b906000526020600020015414156132d957600192505050611256565b806132e381615b00565b915050613263565b506000949350505050565b600754606090806133195760405162461bcd60e51b815260040161074d906158fb565b8284111561332657600080fd5b60075484106133475760405162461bcd60e51b815260040161074d906158dc565b60075483106133625760075461335f90600190615a9d565b92505b600061336e8585615a9d565b613379906001615a85565b6001600160401b0381111561339e57634e487b7160e01b600052604160045260246000fd5b6040519080825280602002602001820160405280156133d757816020015b6133c4614db6565b8152602001906001900390816133bc5790505b509050845b8481116127d8576000600660006007848154811061340a57634e487b7160e01b600052603260045260246000fd5b60009182526020808320909101546001600160a01b0390811684528382019490945260409283019091208251808401909352805490931682526002830154908201529091508361345a8985615a9d565b8151811061347857634e487b7160e01b600052603260045260246000fd5b6020026020010181905250818061348e90615b00565b925050506133dc565b606081600854808211156134bd5760405162461bcd60e51b815260040161074d906158dc565b83806134db5760405162461bcd60e51b815260040161074d906158fb565b600960006134ea600188615a9d565b815260200190815260200160002060070180546115a490615acb565b600c54606090806135295760405162461bcd60e51b815260040161074d906158fb565b8284111561353657600080fd5b600c5484106135575760405162461bcd60e51b815260040161074d906158dc565b600c54831061357257600c5461356f90600190615a9d565b92505b600061357e8585615a9d565b613589906001615a85565b6001600160401b038111156135ae57634e487b7160e01b600052604160045260246000fd5b6040519080825280602002602001820160405280156135e757816020015b6135d4614dcd565b8152602001906001900390816135cc5790505b509050845b8481116127d8576040518060600160405280600c838154811061361f57634e487b7160e01b600052603260045260246000fd5b9060005260206000209060050201600201805461363b90615acb565b80601f016020809104026020016040519081016040528092919081815260200182805461366790615acb565b80156136b45780601f10613689576101008083540402835291602001916136b4565b820191906000526020600020905b81548152906001019060200180831161369757829003601f168201915b50505050508152602001600c83815481106136df57634e487b7160e01b600052603260045260246000fd5b906000526020600020906005020160030180546136fb90615acb565b80601f016020809104026020016040519081016040528092919081815260200182805461372790615acb565b80156137745780601f1061374957610100808354040283529160200191613774565b820191906000526020600020905b81548152906001019060200180831161375757829003601f168201915b50505050508152602001600c838154811061379f57634e487b7160e01b600052603260045260246000fd5b906000526020600020906005020160040180546137bb90615acb565b80601f01602080910402602001604051908101604052809291908181526020018280546137e790615acb565b80156138345780601f1061380957610100808354040283529160200191613834565b820191906000526020600020905b81548152906001019060200180831161381757829003601f168201915b50505050508152508287836138499190615a9d565b8151811061386757634e487b7160e01b600052603260045260246000fd5b6020026020010181905250808061387d90615b00565b9150506135ec565b3390565b613891613885565b6001600160a01b03166138a2611e0f565b6001600160a01b0316146138c85760405162461bcd60e51b815260040161074d906158a7565b846001600160a01b0381166138ef5760405162461bcd60e51b815260040161074d906158fb565b6040805160a0810182528381526020808201888152828401889052606083018790526001608084018190526001600160a01b038b1660009081528184529490942083518155905180519394919361394e93928501929190910190614c8b565b506040820151805161396a916002840191602090910190614c8b565b5060608201518051613986916003840191602090910190614c8b565b50608091909101516004909101805460ff1916911515919091179055600280546001818101835560008390527f405787fa12a823e0f2b7631cc41b3ba8828b3321ca811111fa75cd3aa3bb5ace90910180546001600160a01b0319166001600160a01b038a1617905590547f25ddd06f7eaeb83bb3fbcaa231d4b89e2d7bcd781043983661920061e755a7f0918891613a1f9190615a9d565b604051613a2d929190615475565b60405180910390a1505050505050565b613a45613885565b6001600160a01b0316613a56611e0f565b6001600160a01b031614613a7c5760405162461bcd60e51b815260040161074d906158a7565b806001600160a01b038116613aa35760405162461bcd60e51b815260040161074d906158fb565b60048054600181810183557f8a35acfbc15ff81a39ae7d344fd709f28e8600b4aa8c65c6b64bfe7fe36bd19b90910180546001600160a01b0386166001600160a01b03199182168117909255600082815260036020526040902080549091169091178155600201805460ff19168217905590547fb33697d74ba91a225da88048bf57b244fc8aa1a7b8f90aeb4788b8a4ef65d1cf918491613b449190615a9d565b604051613b52929190615475565b60405180910390a15050565b613b66613885565b6001600160a01b0316613b77611e0f565b6001600160a01b031614613b9d5760405162461bcd60e51b815260040161074d906158a7565b806001600160a01b038116613bc45760405162461bcd60e51b815260040161074d906158fb565b600a8054600180820183556000929092527fc65a7bb8d6351c1cf70c95a316cc6a92839c986682d98bc35f958f4883f9d2a86004820290810180546001600160a01b0319166001600160a01b0387161781557fc65a7bb8d6351c1cf70c95a316cc6a92839c986682d98bc35f958f4883f9d2ab909101805460ff1916841790559091613c51908390615a85565b6001600160a01b0385166000908152600b60205260409081902091909155517fecc5d9929809b3db05d64ac37958ea2e6d0676af617f0d6ebec74a40e43382b790613c9f9086908590615475565b60405180910390a150505050565b613cb5613885565b6001600160a01b0316613cc6611e0f565b6001600160a01b031614613cec5760405162461bcd60e51b815260040161074d906158a7565b806001600160a01b038116613d135760405162461bcd60e51b815260040161074d906158fb565b60078054600181019091557fa66cc928b5edb82af9bd49922954155ab7b0942694bea4ce44661d9a8736c6880180546001600160a01b0384166001600160a01b03199182168117909255600082815260066020526040908190208054909216909217815590517fa448e5e847c6d262439050f776e09d4734f840b963b23fcfb5cd33cd233518e690613da6908590615408565b60405180910390a1505050565b8160085480821115613dd75760405162461bcd60e51b815260040161074d906158dc565b8380613df55760405162461bcd60e51b815260040161074d906158fb565b60096000613e04600188615a9d565b815260208082019290925260409081016000908120600901805460018101825590825292902090910180546001600160a01b0319166001600160a01b038716179055517fc307fc17fe83556f9fb433b29e4b3c62d9ff95510c7bd3215592c16041d8148890613e769087908790615a3c565b60405180910390a15050505050565b613e8d613885565b6001600160a01b0316613e9e611e0f565b6001600160a01b031614613ec45760405162461bcd60e51b815260040161074d906158a7565b816001600160a01b038116613eeb5760405162461bcd60e51b815260040161074d906158fb565b8180613f095760405162461bcd60e51b815260040161074d906158fb565b6001600160a01b038416600090815260066020526040812060010180549082613f3183615b00565b909155506001600160a01b03861660008181526006602081815260408084208685526003810183528185208b90558a8552600481018352908420805460ff19166001179055938352526002909101805492935090613f8e83615b00565b91905055507fcd13c9c12305e70e268e3608aad04ff3a1e9c696deeacaff175d26eada2ec62a8585604051613e76929190615475565b60008180613fe45760405162461bcd60e51b815260040161074d906158fb565b82600854808211156140085760405162461bcd60e51b815260040161074d906158dc565b60096000614017600188615a9d565b8152602001908152602001600020600201549350505050919050565b600d54829081106140565760405162461bcd60e51b815260040161074d906158dc565b81600d848154811061407857634e487b7160e01b600052603260045260246000fd5b906000526020600020906005020160010160006101000a8154816001600160a01b0302191690836001600160a01b03160217905550505050565b80600854808211156140d65760405162461bcd60e51b815260040161074d906158dc565b82806140f45760405162461bcd60e51b815260040161074d906158fb565b8360028060096000614107600186615a9d565b815260208101919091526040016000206005015460ff16600381111561413d57634e487b7160e01b600052602160045260246000fd5b1461415a5760405162461bcd60e51b815260040161074d90615888565b60096000614169600189615a9d565b81526020810191909152604001600020600a015460ff1615156001146141a15760405162461bcd60e51b815260040161074d90615869565b6003600960006141b260018a615a9d565b81526020810191909152604001600020600501805460ff191660018360038111156141ed57634e487b7160e01b600052602160045260246000fd5b0217905550600080516020615b56833981519152866003604051613a2d929190615a63565b6001600160a01b038216600090815260066020908152604080832060050180546001810182559084529190922001829055517fa64a320168fc7af2fa4bb2a506ae4dbf56b81b4d25b5e88e668c13f8df90c85290613b529084908490615475565b82600854808211156142975760405162461bcd60e51b815260040161074d906158dc565b84806142b55760405162461bcd60e51b815260040161074d906158fb565b84600960006142c560018a615a9d565b815260200190815260200160002060070190805190602001906142e9929190614c8b565b5083600960006142fa60018a615a9d565b8152602001908152602001600020600801908051906020019061431e929190614c8b565b50505050505050565b6040805160a0810182526001600160a01b0380861682526000602083018181529383018681526060840186815260808501838152600d80546001818101835595829052965160059097027fd7b6990105719101dabeb77144f2a3385c8033acd3af97e9423a695e81ad1eb5810180549888166001600160a01b0319998a1617905597517fd7b6990105719101dabeb77144f2a3385c8033acd3af97e9423a695e81ad1eb6890180549190971697169690961790945590517fd7b6990105719101dabeb77144f2a3385c8033acd3af97e9423a695e81ad1eb7860155517fd7b6990105719101dabeb77144f2a3385c8033acd3af97e9423a695e81ad1eb885015590517fd7b6990105719101dabeb77144f2a3385c8033acd3af97e9423a695e81ad1eb9909301805493151560ff1990941693909317909255547f92e1244fb0ae9fa971febd084422b4d2fabe644650512a440ede7884706fb9669161448b91615a9d565b82604051613da6929190615a77565b81600854808211156144be5760405162461bcd60e51b815260040161074d906158dc565b83806144dc5760405162461bcd60e51b815260040161074d906158fb565b846144e681615ab4565b6000908152600960205260409020600a8101805460ff19166001179055600301949094555050505050565b600080546001600160a01b038381166001600160a01b0319831681178455604051919092169283917f8be0079c531659141344cd1fd0a4f28419497f9722a3daafe3b4186f6b6457e09190a35050565b80600854808211156145855760405162461bcd60e51b815260040161074d906158dc565b82806145a35760405162461bcd60e51b815260040161074d906158fb565b83600180600960006145b6600186615a9d565b815260208101919091526040016000206005015460ff1660038111156145ec57634e487b7160e01b600052602160045260246000fd5b146146095760405162461bcd60e51b815260040161074d90615888565b60026009600061461a60018a615a9d565b81526020810191909152604001600020600501805460ff1916600183600381111561465557634e487b7160e01b600052602160045260246000fd5b021790555060016009600061466a838a615a9d565b8152602001908152602001600020600a0160016101000a81548160ff021916908315150217905550600080516020615b56833981519152866002604051613a2d929190615a63565b600d54829081106146d55760405162461bcd60e51b815260040161074d906158dc565b81600d84815481106146f757634e487b7160e01b600052603260045260246000fd5b906000526020600020906005020160040160006101000a81548160ff0219169083151502179055507ffcb26dc90dfd82e49a0a4e7f743fe0fb37d1d882ffa6701d73b98eadbef11d918383604051613da6929190615a53565b600080805b600c848154811061477657634e487b7160e01b600052603260045260246000fd5b600091825260209091206005909102015481101561481157600c84815481106147af57634e487b7160e01b600052603260045260246000fd5b906000526020600020906005020160000181815481106147df57634e487b7160e01b600052603260045260246000fd5b90600052602060002001546000146147ff57816147fb81615b00565b9250505b8061480981615b00565b915050614755565b5092915050565b80806148365760405162461bcd60e51b815260040161074d906158fb565b816008548082111561485a5760405162461bcd60e51b815260040161074d906158dc565b836000806009600061486d600186615a9d565b815260208101919091526040016000206005015460ff1660038111156148a357634e487b7160e01b600052602160045260246000fd5b146148c05760405162461bcd60e51b815260040161074d90615888565b6001600960006148d0838a615a9d565b81526020810191909152604001600020600501805460ff1916600183600381111561490b57634e487b7160e01b600052602160045260246000fd5b0217905550600160096000614920838a615a9d565b8152602001908152602001600020600a0160026101000a81548160ff021916908315150217905550600080516020615b56833981519152866001604051613a2d929190615a63565b81806149865760405162461bcd60e51b815260040161074d906158fb565b82600854808211156149aa5760405162461bcd60e51b815260040161074d906158dc565b84600280600960006149bd600186615a9d565b815260208101919091526040016000206005015460ff1660038111156149f357634e487b7160e01b600052602160045260246000fd5b14614a105760405162461bcd60e51b815260040161074d90615888565b8560096000614a2060018b615a9d565b815260200190815260200160002060000160006101000a8154816001600160a01b0302191690836001600160a01b031602179055507f9c6da09a3bc72442fbff4d94dcfcd2e442e75b368ce8471d8fa9042102621e098787604051611965929190615a3c565b600854600081815260096020908152604082206001810193909355600283018790556004830180546001600160801b03878116600160801b02818a166001600160801b0319909316929092171617905582546001600160a01b03191683558351919291614afb91600684019190860190614c8b565b5060058101805460ff191690556008546040517fb74b81e22ed2c551cf1d61041f3314bcb4dc74e133a311f76c5de475735b026491614b3991615a33565b60405180910390a160088054906000614b5183615b00565b909155509695505050505050565b600a54831115614b815760405162461bcd60e51b815260040161074d906158dc565b600c8281548110614ba257634e487b7160e01b600052603260045260246000fd5b60009182526020808320600160059093020182018054928301815583528220018290556040517f1380c2e36e31808e9facd9dd593019045cd2e559c30ef1f87343b7a30bf4d1539190a1505050565b604051806060016040528060006001600160a01b03168152602001606081526020016000151581525090565b604080516101c081018252600080825260208201819052918101829052606081018290526080810182905260a081018290529060c08201908152606060208201819052604082018190528082018190526080820152600060a0820181905260c0820181905260e09091015290565b828054614c9790615acb565b90600052602060002090601f016020900481019282614cb95760008555614cff565b82601f10614cd257805160ff1916838001178555614cff565b82800160010185558215614cff579182015b82811115614cff578251825591602001919060010190614ce4565b50614d0b929150614dee565b5090565b6040805160a08101825260008082526020820181905291810182905260608101829052608081019190915290565b6040518060c0016040528060006001600160a01b0316815260200160006001600160a01b03168152602001600081526020016000815260200160608152602001606081525090565b6040518060a00160405280600081526020016060815260200160608152602001606081526020016000151581525090565b604080518082019091526000808252602082015290565b60405180606001604052806060815260200160608152602001606081525090565b5b80821115614d0b5760008155600101614def565b80356001600160a01b0381168114610a7c57600080fd5b600082601f830112614e2a578081fd5b81356001600160401b0380821115614e4457614e44615b31565b604051601f8301601f191681016020018281118282101715614e6857614e68615b31565b604052828152848301602001861015614e7f578384fd5b82602086016020830137918201602001929092529392505050565b80356001600160801b0381168114610a7c57600080fd5b600060208284031215614ec2578081fd5b611e0882614e03565b60008060008060808587031215614ee0578283fd5b614ee985614e03565b935060208501356001600160401b0380821115614f04578485fd5b614f1088838901614e1a565b94506040870135915080821115614f25578384fd5b614f3188838901614e1a565b93506060870135915080821115614f46578283fd5b50614f5387828801614e1a565b91505092959194509250565b600080600080600060a08688031215614f76578081fd5b614f7f86614e03565b945060208601356001600160401b0380821115614f9a578283fd5b614fa689838a01614e1a565b95506040880135915080821115614fbb578283fd5b614fc789838a01614e1a565b94506060880135915080821115614fdc578283fd5b50614fe988828901614e1a565b95989497509295608001359392505050565b6000806040838503121561500d578182fd5b61501683614e03565b946020939093013593505050565b60008060008060808587031215615039578384fd5b61504285614e03565b93506020850135925060408501356001600160401b0380821115614f25578384fd5b600060208284031215615075578081fd5b8151611e0881615b47565b600060208284031215615091578081fd5b5035919050565b6000602082840312156150a9578081fd5b5051919050565b600080604083850312156150c2578182fd5b823591506150d260208401614e03565b90509250929050565b600080604083850312156150ed578182fd5b8235915060208301356150ff81615b47565b809150509250929050565b60008060006060848603121561511e578283fd5b8335925060208401356001600160401b038082111561513b578384fd5b61514787838801614e1a565b9350604086013591508082111561515c578283fd5b5061516986828701614e1a565b9150509250925092565b60008060008060808587031215615188578384fd5b8435935061519860208601614e9a565b92506151a660408601614e9a565b915060608501356001600160401b038111156151c0578182fd5b614f5387828801614e1a565b600080604083850312156151de578182fd5b50508035926020909101359150565b6001600160a01b03169052565b6000815180845260208085019450808401835b838110156152325781516001600160a01b03168752958201959082019060010161520d565b509495945050505050565b6000815180845260208085019450808401835b8381101561523257815187529582019590820190600101615250565b15159052565b6004811061529057634e487b7160e01b600052602160045260246000fd5b9052565b60008151808452815b818110156152b95760208185018101518683018201520161529d565b818111156152ca5782602083870101525b50601f01601f19169290920160200192915050565b60006101c06152ef8484516151ed565b602083015160208501526040830151604085015260608301516060850152608083015161531f60808601826153fb565b5060a083015161533260a08601826153fb565b5060c083015161534560c0860182615272565b5060e08301518160e086015261535d82860182615294565b91505061010080840151858303828701526153788382615294565b9250505061012080840151858303828701526153948382615294565b9250505061014080840151858303828701526153b083826151fa565b92505050610160808401516153c78287018261526c565b5050610180808401516153dc8287018261526c565b50506101a0808401516153f18287018261526c565b5090949350505050565b6001600160801b03169052565b6001600160a01b0391909116815260200190565b6001600160a01b03878116825286166020820152604081018590526060810184905260c06080820181905260009061545690830185615294565b82810360a08401526154688185615294565b9998505050505050505050565b6001600160a01b03929092168252602082015260400190565b6000602080830181845280855180835260408601915060408482028701019250838701855b828110156154e157603f198886030184526154cf8583516152df565b945092850192908501906001016154b3565b5092979650505050505050565b60208082528251828201819052600091906040908185019080840286018301878501865b8381101561559d57888303603f19018552815180516001600160a01b03908116855288820151168885015286810151878501526060808201519085015260808082015160c0828701819052919061556b83880182615294565b9250505060a080830151925085820381870152506155898183615294565b968901969450505090860190600101615512565b509098975050505050505050565b602080825282518282018190526000919060409081850190868401855b828110156155f657815180516001600160a01b031685528601518685015292840192908501906001016155c8565b5091979650505050505050565b60208082528251828201819052600091906040908185019080840286018301878501865b8381101561559d57603f1989840301855281516060815181865261564d82870182615294565b915050888201518582038a8701526156658282615294565b9150508782015191508481038886015261567f8183615294565b968901969450505090860190600101615627565b600060208252611e08602083018461523d565b901515815260200190565b6001600160e01b031991909116815260200190565b602081016112568284615272565b600060208252611e086020830184615294565b60208082526005908201526422a9292fa560d91b604082015260600190565b60208082526026908201527f4f776e61626c653a206e6577206f776e657220697320746865207a65726f206160408201526564647265737360d01b606082015260800190565b60208082526005908201526404552525f360dc1b604082015260600190565b60208082526004908201526322a9291b60e11b604082015260600190565b60208082526005908201526408aa4a4be960db1b604082015260600190565b6020808252600d908201526c696e76616c696420646174657360981b604082015260600190565b6020808252600490820152634552523760e01b604082015260600190565b6020808252600590820152644552525f3560d81b604082015260600190565b60208082526005908201526422a9292f9b60d91b604082015260600190565b6020808252600590820152644552525f3760d81b604082015260600190565b6020808252600590820152644552525f4960d81b604082015260600190565b60208082526005908201526411549497cd60da1b604082015260600190565b6020808252600590820152644552525f3360d81b604082015260600190565b6020808252818101527f4f776e61626c653a2063616c6c6572206973206e6f7420746865206f776e6572604082015260600190565b6020808252600590820152644552525f3160d81b604082015260600190565b6020808252600590820152644552525f4b60d81b604082015260600190565b602080825282516001600160a01b03168282015282015160606040830152600090615948608084018261523d565b90506040840151151560608401528091505092915050565b600060208252611e0860208301846152df565b81516001600160a01b03908116825260208084015190911690820152604080830151908201526060808301519082015260809182015115159181019190915260a00190565b60006020825282516020830152602083015160a060408401526159de60c0840182615294565b90506040840151601f19808584030160608601526159fc8383615294565b9250606086015191508085840301608086015250615a1a8282615294565b9150506080840151151560a08401528091505092915050565b90815260200190565b9182526001600160a01b0316602082015260400190565b9182521515602082015260400190565b82815260408101611e086020830184615272565b918252602082015260400190565b60008219821115615a9857615a98615b1b565b500190565b600082821015615aaf57615aaf615b1b565b500390565b600081615ac357615ac3615b1b565b506000190190565b600281046001821680615adf57607f821691505b6020821081141561089657634e487b7160e01b600052602260045260246000fd5b6000600019821415615b1457615b14615b1b565b5060010190565b634e487b7160e01b600052601160045260246000fd5b634e487b7160e01b600052604160045260246000fd5b8015158114612f5357600080fdfeaab6e46db3cf8733c355f44f3e9eaff83e3113187a9fa63d7159a320f750bd86a2646970667358221220816639c8b0d9762079b83862516c31f381415ee91a1b61af72b3c35a60ccc13564736f6c63430008000033",
  "immutableReferences": {},
  "source": "// SPDX-License-Identifier: MIT\npragma solidity ^0.8;\nimport \"@openzeppelin/contracts/access/Ownable.sol\";\nimport \"./Dapp Internal Struct/UserHandler.sol\";\nimport \"./Dapp Internal Struct/AuthorHandler.sol\";\nimport \"./Dapp Internal Struct/SportsmanHandler.sol\";\nimport \"./Dapp Internal Struct/EventHandler.sol\";\nimport \"./Dapp Internal Struct/OrganizerHandler.sol\";\nimport \"./Dapp Internal Struct/MedalHandler.sol\";\nimport \"@openzeppelin/contracts/token/ERC721/IERC721.sol\";\n\nimport \"@openzeppelin/contracts/token/ERC20/IERC20.sol\";\n\ncontract MedalVerse is\n\tOwnable,\n\tUserHandler,\n\tAuthorHandler,\n\tSportsmanHandler,\n\tEventHandler,\n\tOrganizerHandler,\n\tMedalHandler\n{\n\tIERC20 private Token;\n\n\t// Modifiers ----------------------------\n\tmodifier isNotNull(address a)\n\t\tvirtual\n\t\toverride(\n\t\t\tUserHandler,\n\t\t\tAuthorHandler,\n\t\t\tSportsmanHandler,\n\t\t\tEventHandler,\n\t\t\tOrganizerHandler\n\t\t) {\n\t\trequire(a != address(0), \"ERR_K\");\n\t\t_;\n\t}\n\tmodifier isNotNullUint256(uint256 a)\n\t\tvirtual\n\t\toverride(\n\t\t\tOrganizerHandler,\n\t\t\tSportsmanHandler,\n\t\t\tEventHandler,\n\t\t\tAuthorHandler\n\t\t) {\n\t\trequire(a != 0, \"ERR_K\");\n\t\t_;\n\t}\n\n\tmodifier isAdminOfEvent(uint256 eventID) {\n\t\tuint256 organizationId = getEventOrganizer(eventID);\n\n\t\trequire(checkorganizerisAdminOf(organizationId), \"ERR_J\");\n\t\t_;\n\t}\n\n\t// Event -------------------------------\n\n\tevent MedalVerseWithdraw(address owner);\n\n\t// Methods -------------------------------\n\n\tconstructor(address addressToken) {\n\t\tToken = IERC20(addressToken);\n\t}\n\n\t///@dev Add a new user to the DB, using parent classes\n\t///@param _userAddress userAddr\n\t///@param _iconURI Image for the UI\n\t///@param _userName FName + LName\n\t///@param _email email address\n\t///@param _role Author / Organizer / sportsman\n\tfunction addNewUser(\n\t\taddress _userAddress,\n\t\tstring memory _iconURI,\n\t\tstring memory _userName,\n\t\tstring memory _email,\n\t\tuint256 _role\n\t) external onlyOwner isNotNull(_userAddress) {\n\t\taddUser(_userAddress, _iconURI, _userName, _email, _role);\n\t\tif ((_role & 2) == 2) addAuthor(_userAddress);\n\t\tif ((_role & 4) == 4) addOrganizer(_userAddress);\n\t\tif ((_role & 8) == 8) addSportsman(_userAddress);\n\t}\n\n\t///@dev register a user to an event and event to user\n\t///@param _userAddress address of the user\n\t///@param eventid id of the event\n\tfunction LinkUserAndEvent(address _userAddress, uint256 eventid)\n\t\texternal\n\t\tisNotNull(_userAddress)\n\t{\n\t\tEventRegisterSportsman(eventid, _userAddress); // checks both values\n\t\tregisterSportsmanToEvent(_userAddress, eventid); // no check required, already don above\n\t}\n\n\t///@dev creates a new event, associated to an organization\n\t///@param organizationId Id Of the Organization\n\t///@param startDate starting Date\n\t///@param endDate ending Date\n\t///@param eventDesc Description for the event\n\tfunction newEvent(\n\t\tuint256 organizationId,\n\t\tuint128 startDate,\n\t\tuint128 endDate,\n\t\tstring memory eventDesc\n\t) external isNotNullUint256(startDate) isNotNullUint256(endDate) {\n\t\trequire(endDate > startDate, \"invalid dates\");\n\t\t// We first neet to check that the sender corresponds to an organizer\n\t\tuint256 organizerId = organizerByAddress[msg.sender];\n\t\trequire(organizerId > 0, \"ERR6\");\n\t\trequire(checkorganizerisAdminOf(organizerId, organizationId), \"ERR7\");\n\n\t\tuint256 eventID = addEvent(\n\t\t\torganizationId,\n\t\t\tstartDate,\n\t\t\tendDate,\n\t\t\teventDesc\n\t\t);\n\t\torganizerAddEvent(organizerId, organizationId, eventID + 1);\n\t}\n\n\t///@dev The event starts now, checks we are an admin for the event\n\t///@param eventID id of the event\n\tfunction adminStartEvent(uint256 eventID) external isAdminOfEvent(eventID) {\n\t\tstartEvent(eventID);\n\t}\n\n\t///@dev The event ends now,checks we are an admin for the event\n\t///@param eventID id of the event\n\tfunction adminEndEvent(uint256 eventID) external isAdminOfEvent(eventID) {\n\t\tendEvent(eventID);\n\t}\n\n\t///@dev The event gets a winner and closes,checks we are an admin for the event\n\t///@param eventID id of the event\n\tfunction adminSetWinner(uint256 eventID, address winner)\n\t\texternal\n\t\tisAdminOfEvent(eventID)\n\t\tisNotNull(winner)\n\t{\n\t\tif (\n\t\t\tgetEventCurrentState(eventID) ==\n\t\t\tstateOfCompetition.CompetitionInProgress\n\t\t) endEvent(eventID);\n\t\tsetEventWinner(eventID, winner);\n\t}\n\n\t///@dev A medal is associated to an event, whatever its status\n\t///@param eventID id of the event\n\t///@param _nft address of medal nft associated to the prize\n\tfunction adminAddMedal(uint256 eventID, address _nft)\n\t\texternal\n\t\tisAdminOfEvent(eventID)\n\t{\n\t\t// Check we have a IERC21 contract\n\t\tIERC721(_nft).supportsInterface(type(IERC721).interfaceId);\n\n\t\t// Find the organizer corresponding to the event\n\t\tuint256 orgId = getEventOrganizer(eventID);\n\t\taddMedal(_nft, orgId, eventID);\n\t\tuint256 medalID = getMedalCount() - 1;\n\t\t// registers medal to the event structure\n\t\teventSetMedal(eventID, medalID);\n\t}\n\n\t///@dev Affect the medal owned by the event to the winner of the competition\n\t///@param eventID id of the event\n\tfunction adminGiveMedalToWinner(uint256 eventID)\n\t\texternal\n\t\tisAdminOfEvent(eventID)\n\t{\n\t\t// Gets the id og the winner to associate the medal\n\t\taddress winner = getWinner(eventID);\n\t\trequire(winner != address(0), \"ERR_I\");\n\t\trequire(eventHasMedal(eventID));\n\n\t\tsetMedalWinner(eventGetMedal(eventID), winner);\n\t\teventDistributeMedal(eventID);\n\t\tsportsmanAddMedal(winner, eventGetMedal(eventID));\n\t}\n\n\t///@dev add / remove the medal from user gallery. Nota: checks are done in getSportsmanMedal\n\t///@param medalIndx id of the event\n\tfunction publishMedal(uint256 medalIndx, bool status) public {\n\t\tuint256 mdID = getSportsmanMedal(msg.sender, medalIndx); // converts sportsMan->medalIndx => medalID\n\t\tmedalPublish(mdID, status);\n\t}\n\n\t///@dev Set the geographic position of the Event\n\t///@param eventID id of the event\n\tfunction adminSetEventPosition(\n\t\tuint256 eventID,\n\t\tstring memory posX,\n\t\tstring memory posY\n\t) external isAdminOfEvent(eventID) {\n\t\teventSetPosition(eventID, posX, posY);\n\t}\n\n\t///@dev Withdraw token placed in the contract\n\tfunction withdraw() external onlyOwner {\n\t\tuint256 balance = Token.balanceOf(address(this)); // check balance of contract MedalVerse\n\t\trequire(balance != 0, \"ERR_H\");\n\t\temit MedalVerseWithdraw(msg.sender);\n\t\tToken.transfer(msg.sender, balance); // transfer balance to owner\n\t}\n\n\t///@dev Check balance contract\n\t///@return returns balance contract\n\tfunction getBalance() external view returns (uint256) {\n\t\treturn Token.balanceOf(address(this));\n\t}\n}\n",
  "sourcePath": "/home/pec/Projets/MedalVerse/MedalVerse-Front/contracts/MedalVerse.sol",
  "compiler": {
    "name": "solc",
    "version": "0.8.0+commit.c7dfd78e.Emscripten.clang"
  },
  "schemaVersion": "3.4.4",
  "updatedAt": "2022-01-17T07:07:09.794Z",
  "networkType": "ethereum",
  "devdoc": {
    "kind": "dev",
    "methods": {
      "LinkUserAndEvent(address,uint256)": {
        "details": "register a user to an event and event to user",
        "params": {
          "_userAddress": "address of the user",
          "eventid": "id of the event"
        }
      },
      "addCreation(address,uint256,string,string)": {
        "details": "Register a creation for a given author",
        "params": {
          "_URI": "Address of the image, used before minting the NFT",
          "_description": "may be null",
          "_price": "Price of the NFT",
          "_user": "Address of the user to register as author"
        }
      },
      "addNewUser(address,string,string,string,uint256)": {
        "details": "Add a new user to the DB, using parent classes",
        "params": {
          "_email": "email address",
          "_iconURI": "Image for the UI",
          "_role": "Author / Organizer / sportsman",
          "_userAddress": "userAddr",
          "_userName": "FName + LName"
        }
      },
      "addOrganization(address,string,string,string)": {
        "details": "add an organization to the list of orgs",
        "params": {
          "_description": "UI description text",
          "_logoURI": "Link to the icon lo\t\tuser.organizationState[orgId] = true;",
          "_name": "UI dislay name",
          "_user": "admin of the organization"
        }
      },
      "adminAddMedal(uint256,address)": {
        "details": "A medal is associated to an event, whatever its status",
        "params": {
          "_nft": "address of medal nft associated to the prize",
          "eventID": "id of the event"
        }
      },
      "adminEndEvent(uint256)": {
        "details": "The event ends now,checks we are an admin for the event",
        "params": {
          "eventID": "id of the event"
        }
      },
      "adminGiveMedalToWinner(uint256)": {
        "details": "Affect the medal owned by the event to the winner of the competition",
        "params": {
          "eventID": "id of the event"
        }
      },
      "adminSetEventPosition(uint256,string,string)": {
        "details": "Set the geographic position of the Event",
        "params": {
          "eventID": "id of the event"
        }
      },
      "adminSetWinner(uint256,address)": {
        "details": "The event gets a winner and closes,checks we are an admin for the event",
        "params": {
          "eventID": "id of the event"
        }
      },
      "adminStartEvent(uint256)": {
        "details": "The event starts now, checks we are an admin for the event",
        "params": {
          "eventID": "id of the event"
        }
      },
      "affectNFTtoCreation(uint256,address)": {
        "details": "Register a creation for a given author TESTED",
        "params": {
          "_NFT": "Address of the minted NFT",
          "_creationId": "index of the creation as registered in allCreations"
        }
      },
      "checkorganizerisAdminOf(uint256)": {
        "details": "returns true if the user is admin of the organization",
        "params": {
          "orgIndx": "index amoung organizations"
        }
      },
      "checkorganizerisAdminOf(uint256,uint256)": {
        "details": "returns true if the user is admin of the organization",
        "params": {
          "orgIndx": "index amoung organizations",
          "organizer": "index amoung organizers"
        }
      },
      "eventGetMedal(uint256)": {
        "details": "returns the id of the medal associated to the event",
        "params": {
          "eventID": "id of the event"
        }
      },
      "eventGetPositionX(uint256)": {
        "details": "returns X coordinate of an event",
        "params": {
          "eventID": "id of the event"
        }
      },
      "eventGetPositionY(uint256)": {
        "details": "returns Y coordinate of an event",
        "params": {
          "eventID": "id of the event"
        }
      },
      "eventGetWinner(uint256)": {
        "details": "returns the id of the winner associated to the event",
        "params": {
          "eventID": "id of the event"
        }
      },
      "eventHasMedal(uint256)": {
        "details": "checks if event has a medal",
        "params": {
          "eventID": "id of the event"
        }
      },
      "getAdminList(uint256)": {
        "details": "returns the list activ admin of an organisation",
        "params": {
          "orgIndx": "index amoung organizations"
        }
      },
      "getAuthor(address)": {
        "details": "returns the Author struc corresponding to the user TESTED",
        "params": {
          "_user": "user address"
        }
      },
      "getAuthorCreationsList(address)": {
        "details": "returns the list of creations for user _author TESTED",
        "params": {
          "_author": "address of the user"
        }
      },
      "getBalance()": {
        "details": "Check balance contract",
        "returns": {
          "_0": "returns balance contract"
        }
      },
      "getCreationList(uint256,uint256)": {
        "details": "returns the list of creations",
        "params": {
          "_end": "ending index - paging",
          "_start": "start index  - paging"
        }
      },
      "getEvent(uint256)": {
        "details": "returns the details of a specific event",
        "params": {
          "eventId": "id of the event"
        }
      },
      "getEventCount()": {
        "details": "returns the number of Events"
      },
      "getEventCurrentState(uint256)": {
        "details": "returns the current state of the event",
        "params": {
          "evntID": "index of the event"
        }
      },
      "getEventList(uint256)": {
        "details": "return the list of events associated to an organization",
        "params": {
          "orgId": "id of the org"
        }
      },
      "getEventList(uint256,uint256)": {
        "details": "returns the list of Events",
        "params": {
          "_end": "ending index - paging",
          "_start": "start index  - paging"
        }
      },
      "getMedal(uint256)": {
        "details": "Returns the nmedal for a specific id",
        "params": {
          "medalID": "id of the Medal to get"
        }
      },
      "getMedalCount()": {
        "details": "Returns the number of medal in the contract"
      },
      "getOrganizationsList(uint256,uint256)": {
        "details": "returns the list of organization : they may be inactive, must test activ value",
        "params": {
          "_end": "ending index amoung ogranizations",
          "_start": "starting index amoung organizations"
        }
      },
      "getOrganizerAddressById(uint256)": {
        "details": "returns the address of an admin, given an id organizer",
        "params": {
          "id": "id (=index) of the organizer"
        }
      },
      "getOrganizerOrganisationList(address)": {
        "details": "returns the list of organization the organizer subscribed to",
        "params": {
          "_user": "address of the user"
        }
      },
      "getSportsManEventsNumber(address)": {
        "details": "returns the nb of activ events the sportsman registered to",
        "params": {
          "sportsmanId": "address of the sportsman"
        }
      },
      "getSportsmanEventsSubscriptions(address)": {
        "details": "returns the list of activ events the sportsman registered to",
        "params": {
          "sportsmanId": "address of the sportsman"
        }
      },
      "getSportsmanList(uint256,uint256)": {
        "details": "returns the list of organization : they may be inactif, must test activ value",
        "params": {
          "_end": "ending index amoung ogranizations",
          "_start": "starting index amoung organizations"
        }
      },
      "getSportsmanMedal(address,uint256)": {
        "details": "Returns a specific medal of a sportsman",
        "params": {
          "indx": "indx of a sportsman",
          "sportsmanId": "id of the sportsman"
        }
      },
      "getSportsmanMedalCount(address)": {
        "details": "Gets the number of medal owned by the Sportsman",
        "params": {
          "sportsmanId": "id of the sportsman"
        }
      },
      "getSportsmanMedalList(address)": {
        "details": "Returns the medals of a sportsman",
        "params": {
          "sportsmanId": "id of the sportsman"
        }
      },
      "getUserCount()": {
        "details": "Returns the number of users"
      },
      "getUserDetails(address)": {
        "details": "Returns details about a user, given an address (for UI=)",
        "params": {
          "_userAdr": "of the user"
        }
      },
      "getWinner(uint256)": {
        "details": "returns the winner of the event",
        "params": {
          "eventId": "id of the event"
        }
      },
      "newEvent(uint256,uint128,uint128,string)": {
        "details": "creates a new event, associated to an organization",
        "params": {
          "endDate": "ending Date",
          "eventDesc": "Description for the event",
          "organizationId": "Id Of the Organization",
          "startDate": "starting Date"
        }
      },
      "organizationAddAdmin(uint256,address)": {
        "details": "add an admin to an org.",
        "params": {
          "_user": "admin of the organizatio",
          "orgId": "id of the organization"
        }
      },
      "owner()": {
        "details": "Returns the address of the current owner."
      },
      "publishMedal(uint256,bool)": {
        "details": "add / remove the medal from user gallery. Nota: checks are done in getSportsmanMedal",
        "params": {
          "medalIndx": "id of the event"
        }
      },
      "renounceOwnership()": {
        "details": "Leaves the contract without owner. It will not be possible to call `onlyOwner` functions anymore. Can only be called by the current owner. NOTE: Renouncing ownership will leave the contract without an owner, thereby removing any functionality that is only available to the owner."
      },
      "transferOwnership(address)": {
        "details": "Transfers ownership of the contract to a new account (`newOwner`). Can only be called by the current owner."
      },
      "withdraw()": {
        "details": "Withdraw token placed in the contract"
      }
    },
    "version": 1
  },
  "userdoc": {
    "kind": "user",
    "methods": {},
    "version": 1
  }
}