{
  "contractName": "MedalVerse",
  "abi": [
    {
      "anonymous": false,
      "inputs": [
        {
          "indexed": false,
          "internalType": "address",
          "name": "usrAddr",
          "type": "address"
        },
        {
          "indexed": false,
          "internalType": "uint256",
          "name": "indx",
          "type": "uint256"
        }
      ],
      "name": "AuthorAdded",
      "type": "event"
    },
    {
      "anonymous": false,
      "inputs": [
        {
          "indexed": false,
          "internalType": "address",
          "name": "usrAddr",
          "type": "address"
        },
        {
          "indexed": false,
          "internalType": "uint256",
          "name": "indx",
          "type": "uint256"
        }
      ],
      "name": "CreationAdded",
      "type": "event"
    },
    {
      "anonymous": false,
      "inputs": [
        {
          "indexed": false,
          "internalType": "address",
          "name": "_user",
          "type": "address"
        },
        {
          "indexed": false,
          "internalType": "uint256",
          "name": "indx",
          "type": "uint256"
        }
      ],
      "name": "OganizationAdded",
      "type": "event"
    },
    {
      "anonymous": false,
      "inputs": [
        {
          "indexed": false,
          "internalType": "address",
          "name": "_user",
          "type": "address"
        },
        {
          "indexed": false,
          "internalType": "uint256",
          "name": "indx",
          "type": "uint256"
        }
      ],
      "name": "OrganizerAdded",
      "type": "event"
    },
    {
      "anonymous": false,
      "inputs": [
        {
          "indexed": true,
          "internalType": "address",
          "name": "previousOwner",
          "type": "address"
        },
        {
          "indexed": true,
          "internalType": "address",
          "name": "newOwner",
          "type": "address"
        }
      ],
      "name": "OwnershipTransferred",
      "type": "event"
    },
    {
      "anonymous": false,
      "inputs": [
        {
          "indexed": false,
          "internalType": "address",
          "name": "usrAddr",
          "type": "address"
        },
        {
          "indexed": false,
          "internalType": "uint256",
          "name": "indx",
          "type": "uint256"
        }
      ],
      "name": "UserAdded",
      "type": "event"
    },
    {
      "anonymous": false,
      "inputs": [
        {
          "indexed": false,
          "internalType": "uint256",
          "name": "eventId",
          "type": "uint256"
        }
      ],
      "name": "eventAdded",
      "type": "event"
    },
    {
      "anonymous": false,
      "inputs": [
        {
          "indexed": false,
          "internalType": "uint256",
          "name": "eventId",
          "type": "uint256"
        }
      ],
      "name": "eventRemoved",
      "type": "event"
    },
    {
      "anonymous": false,
      "inputs": [
        {
          "indexed": false,
          "internalType": "address",
          "name": "usrAddr",
          "type": "address"
        }
      ],
      "name": "sportsmanAdded",
      "type": "event"
    },
    {
      "anonymous": false,
      "inputs": [
        {
          "indexed": false,
          "internalType": "address",
          "name": "usrAddr",
          "type": "address"
        },
        {
          "indexed": false,
          "internalType": "uint256",
          "name": "eventID",
          "type": "uint256"
        }
      ],
      "name": "sportsmanRegisterdEvent",
      "type": "event"
    },
    {
      "anonymous": false,
      "inputs": [
        {
          "indexed": false,
          "internalType": "address",
          "name": "usrAddr",
          "type": "address"
        },
        {
          "indexed": false,
          "internalType": "uint256",
          "name": "eventID",
          "type": "uint256"
        }
      ],
      "name": "sportsmanUnregisterdEvent",
      "type": "event"
    },
    {
      "inputs": [
        {
          "internalType": "address",
          "name": "_user",
          "type": "address"
        },
        {
          "internalType": "uint256",
          "name": "_price",
          "type": "uint256"
        },
        {
          "internalType": "uint256",
          "name": "_sportCategory",
          "type": "uint256"
        },
        {
          "internalType": "string",
          "name": "_description",
          "type": "string"
        },
        {
          "internalType": "string",
          "name": "_URI",
          "type": "string"
        }
      ],
      "name": "addCreation",
      "outputs": [],
      "stateMutability": "nonpayable",
      "type": "function"
    },
    {
      "inputs": [
        {
          "internalType": "uint256",
          "name": "_organizedBy",
          "type": "uint256"
        },
        {
          "internalType": "uint8",
          "name": "_startDate",
          "type": "uint8"
        },
        {
          "internalType": "uint8",
          "name": "_endDate",
          "type": "uint8"
        },
        {
          "internalType": "uint256",
          "name": "_sportCategory",
          "type": "uint256"
        }
      ],
      "name": "addEvent",
      "outputs": [],
      "stateMutability": "nonpayable",
      "type": "function"
    },
    {
      "inputs": [
        {
          "internalType": "address",
          "name": "_user",
          "type": "address"
        },
        {
          "internalType": "string",
          "name": "_name",
          "type": "string"
        },
        {
          "internalType": "string",
          "name": "_description",
          "type": "string"
        },
        {
          "internalType": "string",
          "name": "_logoURI",
          "type": "string"
        }
      ],
      "name": "addOrganization",
      "outputs": [],
      "stateMutability": "nonpayable",
      "type": "function"
    },
    {
      "inputs": [
        {
          "internalType": "address",
          "name": "_user",
          "type": "address"
        }
      ],
      "name": "addOrganizer",
      "outputs": [],
      "stateMutability": "nonpayable",
      "type": "function"
    },
    {
      "inputs": [
        {
          "internalType": "address",
          "name": "_userAddress",
          "type": "address"
        },
        {
          "internalType": "string",
          "name": "_iconURI",
          "type": "string"
        },
        {
          "internalType": "string",
          "name": "_userName",
          "type": "string"
        },
        {
          "internalType": "string",
          "name": "_email",
          "type": "string"
        },
        {
          "internalType": "uint8",
          "name": "_role",
          "type": "uint8"
        }
      ],
      "name": "addUser",
      "outputs": [],
      "stateMutability": "nonpayable",
      "type": "function"
    },
    {
      "inputs": [
        {
          "internalType": "uint256",
          "name": "_creationId",
          "type": "uint256"
        },
        {
          "internalType": "address",
          "name": "_NFT",
          "type": "address"
        }
      ],
      "name": "affectNFTtoCreation",
      "outputs": [],
      "stateMutability": "nonpayable",
      "type": "function"
    },
    {
      "inputs": [
        {
          "internalType": "uint256",
          "name": "",
          "type": "uint256"
        }
      ],
      "name": "allCreations",
      "outputs": [
        {
          "internalType": "uint256",
          "name": "price",
          "type": "uint256"
        },
        {
          "internalType": "uint256",
          "name": "creationId",
          "type": "uint256"
        },
        {
          "internalType": "uint256",
          "name": "sportCategory",
          "type": "uint256"
        },
        {
          "internalType": "address",
          "name": "author",
          "type": "address"
        },
        {
          "internalType": "address",
          "name": "NFT_Bkg_Adr",
          "type": "address"
        },
        {
          "internalType": "string",
          "name": "description",
          "type": "string"
        },
        {
          "internalType": "string",
          "name": "URI",
          "type": "string"
        },
        {
          "internalType": "bool",
          "name": "activ",
          "type": "bool"
        }
      ],
      "stateMutability": "view",
      "type": "function",
      "constant": true
    },
    {
      "inputs": [
        {
          "internalType": "uint256",
          "name": "eventId",
          "type": "uint256"
        }
      ],
      "name": "getEvent",
      "outputs": [
        {
          "components": [
            {
              "internalType": "uint256",
              "name": "eventId",
              "type": "uint256"
            },
            {
              "internalType": "uint256",
              "name": "sportCategory",
              "type": "uint256"
            },
            {
              "internalType": "uint256",
              "name": "organizedBy",
              "type": "uint256"
            },
            {
              "internalType": "address[]",
              "name": "registeredSportsMan",
              "type": "address[]"
            },
            {
              "internalType": "uint8",
              "name": "startDate",
              "type": "uint8"
            },
            {
              "internalType": "uint8",
              "name": "endDate",
              "type": "uint8"
            },
            {
              "internalType": "bool",
              "name": "activ",
              "type": "bool"
            }
          ],
          "internalType": "struct EventHandler.EventDesc",
          "name": "",
          "type": "tuple"
        }
      ],
      "stateMutability": "view",
      "type": "function",
      "constant": true
    },
    {
      "inputs": [
        {
          "internalType": "address",
          "name": "_userAdr",
          "type": "address"
        }
      ],
      "name": "getUserDetails",
      "outputs": [
        {
          "components": [
            {
              "internalType": "string",
              "name": "iconURI",
              "type": "string"
            },
            {
              "internalType": "string",
              "name": "userName",
              "type": "string"
            },
            {
              "internalType": "string",
              "name": "email",
              "type": "string"
            },
            {
              "internalType": "uint8",
              "name": "role",
              "type": "uint8"
            },
            {
              "internalType": "bool",
              "name": "activ",
              "type": "bool"
            }
          ],
          "internalType": "struct User",
          "name": "",
          "type": "tuple"
        }
      ],
      "stateMutability": "view",
      "type": "function",
      "constant": true
    },
    {
      "inputs": [],
      "name": "owner",
      "outputs": [
        {
          "internalType": "address",
          "name": "",
          "type": "address"
        }
      ],
      "stateMutability": "view",
      "type": "function",
      "constant": true
    },
    {
      "inputs": [
        {
          "internalType": "uint256",
          "name": "",
          "type": "uint256"
        }
      ],
      "name": "registeredAuthors",
      "outputs": [
        {
          "internalType": "address",
          "name": "",
          "type": "address"
        }
      ],
      "stateMutability": "view",
      "type": "function",
      "constant": true
    },
    {
      "inputs": [
        {
          "internalType": "uint256",
          "name": "",
          "type": "uint256"
        }
      ],
      "name": "registeredSportsman",
      "outputs": [
        {
          "internalType": "address",
          "name": "",
          "type": "address"
        }
      ],
      "stateMutability": "view",
      "type": "function",
      "constant": true
    },
    {
      "inputs": [
        {
          "internalType": "uint256",
          "name": "",
          "type": "uint256"
        }
      ],
      "name": "registeredUsers",
      "outputs": [
        {
          "internalType": "address",
          "name": "",
          "type": "address"
        }
      ],
      "stateMutability": "view",
      "type": "function",
      "constant": true
    },
    {
      "inputs": [],
      "name": "renounceOwnership",
      "outputs": [],
      "stateMutability": "nonpayable",
      "type": "function"
    },
    {
      "inputs": [
        {
          "internalType": "address",
          "name": "newOwner",
          "type": "address"
        }
      ],
      "name": "transferOwnership",
      "outputs": [],
      "stateMutability": "nonpayable",
      "type": "function"
    },
    {
      "inputs": [
        {
          "internalType": "address",
          "name": "_userAddress",
          "type": "address"
        },
        {
          "internalType": "string",
          "name": "_iconURI",
          "type": "string"
        },
        {
          "internalType": "string",
          "name": "_userName",
          "type": "string"
        },
        {
          "internalType": "string",
          "name": "_email",
          "type": "string"
        }
      ],
      "name": "addNewUser",
      "outputs": [],
      "stateMutability": "nonpayable",
      "type": "function"
    },
    {
      "inputs": [
        {
          "internalType": "address",
          "name": "_userAddress",
          "type": "address"
        },
        {
          "internalType": "string",
          "name": "_iconURI",
          "type": "string"
        },
        {
          "internalType": "string",
          "name": "_userName",
          "type": "string"
        },
        {
          "internalType": "string",
          "name": "_email",
          "type": "string"
        }
      ],
      "name": "addNewAuthor",
      "outputs": [],
      "stateMutability": "nonpayable",
      "type": "function"
    }
  ],
  "bytecode": "0x608060405234801561001057600080fd5b5061002161001c610026565b61002a565b61007a565b3390565b600080546001600160a01b038381166001600160a01b0319831681178455604051919092169283917f8be0079c531659141344cd1fd0a4f28419497f9722a3daafe3b4186f6b6457e09190a35050565b6119fb806100896000396000f3fe608060405234801561001057600080fd5b506004361061010b5760003560e01c80637990b367116100a2578063cc3d967b11610071578063cc3d967b14610217578063cd284f6514610237578063e4725f021461024a578063f2fde38b1461025d578063fbcbd067146102705761010b565b80637990b367146101d65780638da5cb5b146101e9578063ad970463146101f1578063c20f16bd146102045761010b565b80636d1884e0116100de5780636d1884e0146101885780636e39f630146101a8578063715018a6146101bb5780637259e0f8146101c35761010b565b80634dbc196c146101105780635336abb5146101395780635c733f5a1461016057806366590a6014610175575b600080fd5b61012361011e3660046115bd565b610283565b604051610130919061169b565b60405180910390f35b61014c6101473660046115bd565b6102ad565b6040516101309897969594939291906118c5565b61017361016e3660046113fd565b610425565b005b610173610183366004611492565b61049f565b61019b6101963660046115bd565b610652565b6040516101309190611787565b6101736101b6366004611600565b610720565b61017361080c565b6101236101d13660046115bd565b610857565b6101236101e43660046115bd565b610867565b610123610877565b6101736101ff366004611538565b610886565b6101736102123660046113fd565b610abb565b61022a6102253660046113dc565b610b1c565b604051610130919061183e565b6101736102453660046115d5565b610d38565b6101736102583660046113dc565b610de7565b61017361026b3660046113dc565b610f0d565b61017361027e3660046113fd565b610f7e565b6007818154811061029357600080fd5b6000918252602090912001546001600160a01b0316905081565b600581815481106102bd57600080fd5b6000918252602090912060089091020180546001820154600283015460038401546004850154600586018054959750939592946001600160a01b039283169491909216929161030b90611949565b80601f016020809104026020016040519081016040528092919081815260200182805461033790611949565b80156103845780601f1061035957610100808354040283529160200191610384565b820191906000526020600020905b81548152906001019060200180831161036757829003601f168201915b50505050509080600601805461039990611949565b80601f01602080910402602001604051908101604052809291908181526020018280546103c590611949565b80156104125780601f106103e757610100808354040283529160200191610412565b820191906000526020600020905b8154815290600101906020018083116103f557829003601f168201915b5050506007909301549192505060ff1688565b61042d6110bb565b6001600160a01b031661043e610877565b6001600160a01b03161461046d5760405162461bcd60e51b81526004016104649061170e565b60405180910390fd5b836001600160a01b03811661048157600080fd5b61048f85858585600261049f565b610498856110bf565b5050505050565b6104a76110bb565b6001600160a01b03166104b8610877565b6001600160a01b0316146104de5760405162461bcd60e51b81526004016104649061170e565b846001600160a01b0381166104f257600080fd5b6040805160a081018252868152602080820187905281830186905260ff851660608301526001608083018190526001600160a01b038a16600090815290825292909220815180519293919261054a9284920190611221565b5060208281015180516105639260018501920190611221565b506040820151805161057f916002840191602090910190611221565b5060608201516003909101805460809093015115156101000261ff001960ff90931660ff199094169390931791909116919091179055600280546001818101835560008390527f405787fa12a823e0f2b7631cc41b3ba8828b3321ca811111fa75cd3aa3bb5ace90910180546001600160a01b038a166001600160a01b031990911617905590547f25ddd06f7eaeb83bb3fbcaa231d4b89e2d7bcd781043983661920061e755a7f09188916106349190611932565b6040516106429291906116af565b60405180910390a1505050505050565b61065a6112a5565b600082815260086020908152604091829020825160e0810184528154815260018201548184015260028201548185015260038201805485518186028101860190965280865291949293606086019392908301828280156106e357602002820191906000526020600020905b81546001600160a01b031681526001909101906020018083116106c5575b50505091835250506004919091015460ff80821660208401526101008204811660408401526201000090910416151560609091015290505b919050565b6107286110bb565b6001600160a01b0316610739610877565b6001600160a01b03161461075f5760405162461bcd60e51b81526004016104649061170e565b6009805460008181526008602052604090819020918255600282018790556004820180546001840186905562ff00001960ff8881166101000261ff0019918b1660ff1990941693909317169190911716620100001790559154915190917fb74b81e22ed2c551cf1d61041f3314bcb4dc74e133a311f76c5de475735b0264916107e891906118bc565b60405180910390a1600980549060006108008361197e565b91905055505050505050565b6108146110bb565b6001600160a01b0316610825610877565b6001600160a01b03161461084b5760405162461bcd60e51b81526004016104649061170e565b61085560006111d1565b565b6002818154811061029357600080fd5b6004818154811061029357600080fd5b6000546001600160a01b031690565b61088e6110bb565b6001600160a01b031661089f610877565b6001600160a01b0316146108c55760405162461bcd60e51b81526004016104649061170e565b846001600160a01b0381166108d957600080fd5b6001600160a01b03861660009081526003602081905260409091209081015460ff166109175760405162461bcd60e51b815260040161046490611743565b600580546001808201808455600084815260408051610100810182528c8152602081018690529081018b90526001600160a01b038d166060820152608081019190915260a0810189905260c0810188905260e0810192909252919290918390811061099257634e487b7160e01b600052603260045260246000fd5b600091825260209182902083516008909202019081558282015160018201556040830151600282015560608301516003820180546001600160a01b039283166001600160a01b031991821617909155608085015160048401805491909316911617905560a083015180519192610a1092600585019290910190611221565b5060c08201518051610a2c916006840191602090910190611221565b5060e091909101516007909101805460ff19169115159190911790556002820180548291600185019160009182610a628361197e565b919050558152602001908152602001600020819055507f6ebd5b45b68b36b036925496b54a9c90f49bdc2a23cf8fb9d7f92e13eb113c158882604051610aa99291906116af565b60405180910390a15050505050505050565b610ac36110bb565b6001600160a01b0316610ad4610877565b6001600160a01b031614610afa5760405162461bcd60e51b81526004016104649061170e565b836001600160a01b038116610b0e57600080fd5b61049885858585600061049f565b610b246112ea565b816001600160a01b038116610b3857600080fd5b6001600160a01b03831660009081526001602052604090819020815160a08101909252805482908290610b6a90611949565b80601f0160208091040260200160405190810160405280929190818152602001828054610b9690611949565b8015610be35780601f10610bb857610100808354040283529160200191610be3565b820191906000526020600020905b815481529060010190602001808311610bc657829003601f168201915b50505050508152602001600182018054610bfc90611949565b80601f0160208091040260200160405190810160405280929190818152602001828054610c2890611949565b8015610c755780601f10610c4a57610100808354040283529160200191610c75565b820191906000526020600020905b815481529060010190602001808311610c5857829003601f168201915b50505050508152602001600282018054610c8e90611949565b80601f0160208091040260200160405190810160405280929190818152602001828054610cba90611949565b8015610d075780601f10610cdc57610100808354040283529160200191610d07565b820191906000526020600020905b815481529060010190602001808311610cea57829003601f168201915b50505091835250506003919091015460ff808216602084015261010090910416151560409091015291505b50919050565b610d406110bb565b6001600160a01b0316610d51610877565b6001600160a01b031614610d775760405162461bcd60e51b81526004016104649061170e565b806001600160a01b038116610d8b57600080fd5b8160058481548110610dad57634e487b7160e01b600052603260045260246000fd5b906000526020600020906008020160040160006101000a8154816001600160a01b0302191690836001600160a01b03160217905550505050565b610def6110bb565b6001600160a01b0316610e00610877565b6001600160a01b031614610e265760405162461bcd60e51b81526004016104649061170e565b806001600160a01b038116610e3a57600080fd5b600a80546001808201909255600481027fc65a7bb8d6351c1cf70c95a316cc6a92839c986682d98bc35f958f4883f9d2a8810180546001600160a01b0387166001600160a01b0319909116811782557fc65a7bb8d6351c1cf70c95a316cc6a92839c986682d98bc35f958f4883f9d2ab909201805460ff19169094179093556000908152600b602052604090819020829055519091907fecc5d9929809b3db05d64ac37958ea2e6d0676af617f0d6ebec74a40e43382b790610eff90869085906116af565b60405180910390a150505050565b610f156110bb565b6001600160a01b0316610f26610877565b6001600160a01b031614610f4c5760405162461bcd60e51b81526004016104649061170e565b6001600160a01b038116610f725760405162461bcd60e51b8152600401610464906116c8565b610f7b816111d1565b50565b610f866110bb565b6001600160a01b0316610f97610877565b6001600160a01b031614610fbd5760405162461bcd60e51b81526004016104649061170e565b836001600160a01b038116610fd157600080fd5b600c80546001810182556000919091528451600682027fdf6966c971051c3d54ec59162606531493a51404a002842f56009d7e5cf4a8c781019161103c917fdf6966c971051c3d54ec59162606531493a51404a002842f56009d7e5cf4a8c901906020890190611221565b5084516110529060038301906020880190611221565b5083516110689060048301906020870190611221565b5060058101805460ff191660011790556040517fcbbf31cd62dff8d3e3fd3ff1549adbbd47b39c0682301e54af8f3a0ffaade4a3906110aa90899085906116af565b60405180910390a150505050505050565b3390565b6110c76110bb565b6001600160a01b03166110d8610877565b6001600160a01b0316146110fe5760405162461bcd60e51b81526004016104649061170e565b806001600160a01b03811661111257600080fd5b60048054600181810183557f8a35acfbc15ff81a39ae7d344fd709f28e8600b4aa8c65c6b64bfe7fe36bd19b90910180546001600160a01b0386166001600160a01b03199182168117909255600082815260036020819052604090912080549092169092178155908101805460ff19168317905591547fb33697d74ba91a225da88048bf57b244fc8aa1a7b8f90aeb4788b8a4ef65d1cf9185916111b69190611932565b6040516111c49291906116af565b60405180910390a1505050565b600080546001600160a01b038381166001600160a01b0319831681178455604051919092169283917f8be0079c531659141344cd1fd0a4f28419497f9722a3daafe3b4186f6b6457e09190a35050565b82805461122d90611949565b90600052602060002090601f01602090048101928261124f5760008555611295565b82601f1061126857805160ff1916838001178555611295565b82800160010185558215611295579182015b8281111561129557825182559160200191906001019061127a565b506112a192915061131e565b5090565b6040518060e0016040528060008152602001600081526020016000815260200160608152602001600060ff168152602001600060ff1681526020016000151581525090565b6040518060a00160405280606081526020016060815260200160608152602001600060ff1681526020016000151581525090565b5b808211156112a1576000815560010161131f565b80356001600160a01b038116811461071b57600080fd5b600082601f83011261135a578081fd5b813567ffffffffffffffff80821115611375576113756119af565b604051601f8301601f191681016020018281118282101715611399576113996119af565b6040528281528483016020018610156113b0578384fd5b82602086016020830137918201602001929092529392505050565b803560ff8116811461071b57600080fd5b6000602082840312156113ed578081fd5b6113f682611333565b9392505050565b60008060008060808587031215611412578283fd5b61141b85611333565b9350602085013567ffffffffffffffff80821115611437578485fd5b6114438883890161134a565b94506040870135915080821115611458578384fd5b6114648883890161134a565b93506060870135915080821115611479578283fd5b506114868782880161134a565b91505092959194509250565b600080600080600060a086880312156114a9578081fd5b6114b286611333565b9450602086013567ffffffffffffffff808211156114ce578283fd5b6114da89838a0161134a565b955060408801359150808211156114ef578283fd5b6114fb89838a0161134a565b94506060880135915080821115611510578283fd5b5061151d8882890161134a565b92505061152c608087016113cb565b90509295509295909350565b600080600080600060a0868803121561154f578081fd5b61155886611333565b94506020860135935060408601359250606086013567ffffffffffffffff80821115611582578283fd5b61158e89838a0161134a565b935060808801359150808211156115a3578283fd5b506115b08882890161134a565b9150509295509295909350565b6000602082840312156115ce578081fd5b5035919050565b600080604083850312156115e7578182fd5b823591506115f760208401611333565b90509250929050565b60008060008060808587031215611615578384fd5b84359350611625602086016113cb565b9250611633604086016113cb565b9396929550929360600135925050565b15159052565b60008151808452815b8181101561166e57602081850181015186830182015201611652565b8181111561167f5782602083870101525b50601f01601f19169290920160200192915050565b60ff169052565b6001600160a01b0391909116815260200190565b6001600160a01b03929092168252602082015260400190565b60208082526026908201527f4f776e61626c653a206e6577206f776e657220697320746865207a65726f206160408201526564647265737360d01b606082015260800190565b6020808252818101527f4f776e61626c653a2063616c6c6572206973206e6f7420746865206f776e6572604082015260600190565b60208082526024908201527f417574686f72206d75737420626520616374697620746f2061646420437265616040820152633a34b7b760e11b606082015260800190565b60006020808352610100830184518285015281850151604085015260408501516060850152606085015160e060808601528181518084526101208701915084830193508592505b808310156117f75783516001600160a01b031682529284019260019290920191908401906117ce565b506080870151935061180c60a0870185611694565b60a0870151935061182060c0870185611694565b60c0870151935061183460e0870185611643565b9695505050505050565b600060208252825160a0602084015261185a60c0840182611649565b90506020840151601f19808584030160408601526118788383611649565b92506040860151915080858403016060860152506118968282611649565b91505060ff60608501511660808401526080840151151560a08401528091505092915050565b90815260200190565b88815260208101889052604081018790526001600160a01b0386811660608301528516608082015261010060a0820181905260009061190683820187611649565b905082810360c084015261191a8186611649565b91505082151560e08301529998505050505050505050565b60008282101561194457611944611999565b500390565b60028104600182168061195d57607f821691505b60208210811415610d3257634e487b7160e01b600052602260045260246000fd5b600060001982141561199257611992611999565b5060010190565b634e487b7160e01b600052601160045260246000fd5b634e487b7160e01b600052604160045260246000fdfea264697066735822122059c3bf5fc04307164d7258160393132adc1319cc8d4aa1a3d8842b4dabc1744e64736f6c63430008000033",
  "immutableReferences": {},
  "source": "// SPDX-License-Identifier: MIT\npragma solidity ^0.8;\nimport \"@openzeppelin/contracts/access/Ownable.sol\";\nimport \"./Dapp Internal Struct/UserHandler.sol\";\nimport \"./Dapp Internal Struct/AuthorHandler.sol\";\nimport \"./Dapp Internal Struct/SportsmanHandler.sol\";\nimport \"./Dapp Internal Struct/EventHandler.sol\";\nimport \"./Dapp Internal Struct/OrganizerHandler.sol\";\n\ncontract MedalVerse is\n\tOwnable,\n\tUserHandler,\n\tAuthorHandler,\n\tSportsmanHandler,\n\tEventHandler,\n\tOrganizerHandler\n{\n\t// Modifiers ----------------------------\n\tmodifier isNotNull(address a)\n\t\tvirtual\n\t\toverride(\n\t\t\tUserHandler,\n\t\t\tAuthorHandler,\n\t\t\tSportsmanHandler,\n\t\t\tEventHandler,\n\t\t\tOrganizerHandler\n\t\t) {\n\t\trequire(a != address(0));\n\t\t_;\n\t}\n\n\tfunction addNewUser(\n\t\taddress _userAddress,\n\t\tstring memory _iconURI,\n\t\tstring memory _userName,\n\t\tstring memory _email\n\t) public onlyOwner isNotNull(_userAddress) {\n\t\taddUser(_userAddress, _iconURI, _userName, _email, 0);\n\t}\n\n\tfunction addNewAuthor(\n\t\taddress _userAddress,\n\t\tstring memory _iconURI,\n\t\tstring memory _userName,\n\t\tstring memory _email\n\t) public onlyOwner isNotNull(_userAddress) {\n\t\taddUser(_userAddress, _iconURI, _userName, _email, 2);\n\t\taddAuthor(_userAddress);\n\t}\n}\n",
  "sourcePath": "/home/pec/Projets/MedalVerse/MedalVerse-Front/contracts/MedalVerse.sol",
  "compiler": {
    "name": "solc",
    "version": "0.8.0+commit.c7dfd78e.Emscripten.clang"
  },
  "schemaVersion": "3.4.3",
  "updatedAt": "2021-12-19T16:42:29.804Z",
  "networkType": "ethereum",
  "devdoc": {
    "kind": "dev",
    "methods": {
      "addCreation(address,uint256,uint256,string,string)": {
        "details": "Register a creation for a given author",
        "params": {
          "_URI": "Address of the image, used before minting the NFT",
          "_description": "may be null",
          "_price": "Price of the NFT",
          "_sportCategory": "Category for UI",
          "_user": "Address of the user to register as author"
        }
      },
      "addEvent(uint256,uint8,uint8,uint256)": {
        "details": "add an event to the list of events",
        "params": {
          "_endDate": "Date for the event to finish",
          "_organizedBy": "id of the organizer",
          "_sportCategory": "Type of event",
          "_startDate": "Date for the event to start"
        }
      },
      "affectNFTtoCreation(uint256,address)": {
        "details": "Register a creation for a given author",
        "params": {
          "_NFT": "Address of the minted NFT",
          "_creationId": "index of the creation as registered in allCreations"
        }
      },
      "getEvent(uint256)": {
        "details": "returns the details of a specific event",
        "params": {
          "eventId": "id of the event"
        }
      },
      "owner()": {
        "details": "Returns the address of the current owner."
      },
      "renounceOwnership()": {
        "details": "Leaves the contract without owner. It will not be possible to call `onlyOwner` functions anymore. Can only be called by the current owner. NOTE: Renouncing ownership will leave the contract without an owner, thereby removing any functionality that is only available to the owner."
      },
      "transferOwnership(address)": {
        "details": "Transfers ownership of the contract to a new account (`newOwner`). Can only be called by the current owner."
      }
    },
    "version": 1
  },
  "userdoc": {
    "kind": "user",
    "methods": {},
    "version": 1
  }
}