{
  "contractName": "MedalHandler",
  "abi": [
    {
      "anonymous": false,
      "inputs": [
        {
          "indexed": false,
          "internalType": "uint256",
          "name": "medalID",
          "type": "uint256"
        },
        {
          "indexed": false,
          "internalType": "uint256",
          "name": "eventID",
          "type": "uint256"
        }
      ],
      "name": "MedalAdded",
      "type": "event"
    },
    {
      "anonymous": false,
      "inputs": [
        {
          "indexed": true,
          "internalType": "address",
          "name": "previousOwner",
          "type": "address"
        },
        {
          "indexed": true,
          "internalType": "address",
          "name": "newOwner",
          "type": "address"
        }
      ],
      "name": "OwnershipTransferred",
      "type": "event"
    },
    {
      "inputs": [],
      "name": "owner",
      "outputs": [
        {
          "internalType": "address",
          "name": "",
          "type": "address"
        }
      ],
      "stateMutability": "view",
      "type": "function"
    },
    {
      "inputs": [],
      "name": "renounceOwnership",
      "outputs": [],
      "stateMutability": "nonpayable",
      "type": "function"
    },
    {
      "inputs": [
        {
          "internalType": "address",
          "name": "newOwner",
          "type": "address"
        }
      ],
      "name": "transferOwnership",
      "outputs": [],
      "stateMutability": "nonpayable",
      "type": "function"
    },
    {
      "inputs": [],
      "name": "getMedalCount",
      "outputs": [
        {
          "internalType": "uint256",
          "name": "",
          "type": "uint256"
        }
      ],
      "stateMutability": "view",
      "type": "function"
    },
    {
      "inputs": [
        {
          "internalType": "uint256",
          "name": "medalID",
          "type": "uint256"
        }
      ],
      "name": "getMedal",
      "outputs": [
        {
          "components": [
            {
              "internalType": "address",
              "name": "throwIn",
              "type": "address"
            },
            {
              "internalType": "address",
              "name": "winner",
              "type": "address"
            },
            {
              "internalType": "uint256",
              "name": "organizationID",
              "type": "uint256"
            },
            {
              "internalType": "uint256",
              "name": "eventID",
              "type": "uint256"
            },
            {
              "internalType": "bool",
              "name": "isInWinnerGallery",
              "type": "bool"
            }
          ],
          "internalType": "struct Medal",
          "name": "",
          "type": "tuple"
        }
      ],
      "stateMutability": "view",
      "type": "function"
    }
  ],
  "bytecode": "0x608060405234801561001057600080fd5b5061002161001c610026565b61002a565b61007a565b3390565b600080546001600160a01b038381166001600160a01b0319831681178455604051919092169283917f8be0079c531659141344cd1fd0a4f28419497f9722a3daafe3b4186f6b6457e09190a35050565b61045f806100896000396000f3fe608060405234801561001057600080fd5b50600436106100575760003560e01c8063715018a61461005c5780638da5cb5b14610066578063b700389f14610084578063ce7c5d9d146100a4578063f2fde38b146100b9575b600080fd5b6100646100cc565b005b61006e610120565b60405161007b919061031e565b60405180910390f35b610097610092366004610306565b61012f565b60405161007b91906103db565b6100ac6101df565b60405161007b9190610420565b6100646100c73660046102d8565b6101e5565b6100d4610256565b6001600160a01b03166100e5610120565b6001600160a01b0316146101145760405162461bcd60e51b815260040161010b90610378565b60405180910390fd5b61011e600061025a565b565b6000546001600160a01b031690565b6101376102aa565b6001548290811061015a5760405162461bcd60e51b815260040161010b906103ad565b6001838154811061017b57634e487b7160e01b600052603260045260246000fd5b60009182526020918290206040805160a081018252600590930290910180546001600160a01b039081168452600182015416938301939093526002830154908201526003820154606082015260049091015460ff1615156080820152915050919050565b60015490565b6101ed610256565b6001600160a01b03166101fe610120565b6001600160a01b0316146102245760405162461bcd60e51b815260040161010b90610378565b6001600160a01b03811661024a5760405162461bcd60e51b815260040161010b90610332565b6102538161025a565b50565b3390565b600080546001600160a01b038381166001600160a01b0319831681178455604051919092169283917f8be0079c531659141344cd1fd0a4f28419497f9722a3daafe3b4186f6b6457e09190a35050565b6040805160a08101825260008082526020820181905291810182905260608101829052608081019190915290565b6000602082840312156102e9578081fd5b81356001600160a01b03811681146102ff578182fd5b9392505050565b600060208284031215610317578081fd5b5035919050565b6001600160a01b0391909116815260200190565b60208082526026908201527f4f776e61626c653a206e6577206f776e657220697320746865207a65726f206160408201526564647265737360d01b606082015260800190565b6020808252818101527f4f776e61626c653a2063616c6c6572206973206e6f7420746865206f776e6572604082015260600190565b6020808252601490820152734d6564616c4944206f7574206f662072616e676560601b604082015260600190565b81516001600160a01b03908116825260208084015190911690820152604080830151908201526060808301519082015260809182015115159181019190915260a00190565b9081526020019056fea26469706673582212207d99ba0244b33db78b81fe22403e26e246ffc3630b3527dfe2e7155a1fb55a1d64736f6c63430008000033",
  "immutableReferences": {},
  "source": "// SPDX-License-Identifier: MIT\npragma solidity ^0.8;\nimport \"@openzeppelin/contracts/access/Ownable.sol\";\n\nstruct Medal {\n\taddress throwIn; // Address of the NFT\n\taddress winner; // Address of the Winner\n\tuint256 organizationID; // Id of the org\n\tuint256 eventID; // Id of Event\n\tbool isInWinnerGallery; // sportsman wants to publish the medal in his gallery\n}\n\ncontract MedalHandler is Ownable {\n\tMedal[] medalList; // Global List of Medals\n\n\t// Modifiers -------------------------------\n\tmodifier indexInRange(uint256 medalID) {\n\t\trequire(medalID < medalList.length, \"MedalID out of range\");\n\t\t_;\n\t}\n\t// Events -------------------------------\n\tevent MedalAdded(uint256 medalID, uint256 eventID);\n\n\t// Methods -------------------------------\n\n\tfunction addMedal(\n\t\taddress _nft,\n\t\tuint256 oID,\n\t\tuint256 eID\n\t) internal {\n\t\tmedalList.push(\n\t\t\tMedal({\n\t\t\t\tthrowIn: _nft,\n\t\t\t\twinner: address(0),\n\t\t\t\torganizationID: oID,\n\t\t\t\teventID: eID,\n\t\t\t\tisInWinnerGallery: false\n\t\t\t})\n\t\t);\n\n\t\temit MedalAdded(medalList.length - 1, eID);\n\t}\n\n\tfunction getMedalCount() public view returns (uint256) {\n\t\treturn medalList.length;\n\t}\n\n\tfunction getMedal(uint256 medalID)\n\t\tpublic\n\t\tview\n\t\tindexInRange(medalID)\n\t\treturns (Medal memory)\n\t{\n\t\treturn medalList[medalID];\n\t}\n\n\tfunction setMedalWinner(uint256 medalID, address _winner)\n\t\tinternal\n\t\tindexInRange(medalID)\n\t{\n\t\tmedalList[medalID].winner = _winner;\n\t}\n\n\tfunction medalPublish(uint256 medalID, bool status)\n\t\tinternal\n\t\tindexInRange(medalID)\n\t{\n\t\tmedalList[medalID].isInWinnerGallery = status;\n\t}\n}\n",
  "sourcePath": "/home/pec/Projets/MedalVerse/MedalVerse-Front/contracts/Dapp Internal Struct/MedalHandler.sol",
  "compiler": {
    "name": "solc",
    "version": "0.8.0+commit.c7dfd78e.Emscripten.clang"
  },
  "schemaVersion": "3.4.3",
  "updatedAt": "2022-01-03T09:54:13.553Z",
  "devdoc": {
    "kind": "dev",
    "methods": {
      "owner()": {
        "details": "Returns the address of the current owner."
      },
      "renounceOwnership()": {
        "details": "Leaves the contract without owner. It will not be possible to call `onlyOwner` functions anymore. Can only be called by the current owner. NOTE: Renouncing ownership will leave the contract without an owner, thereby removing any functionality that is only available to the owner."
      },
      "transferOwnership(address)": {
        "details": "Transfers ownership of the contract to a new account (`newOwner`). Can only be called by the current owner."
      }
    },
    "version": 1
  },
  "userdoc": {
    "kind": "user",
    "methods": {},
    "version": 1
  }
}