{
  "contractName": "MedalVerse",
  "abi": [
    {
      "anonymous": false,
      "inputs": [
        {
          "indexed": false,
          "internalType": "address",
          "name": "usrAddr",
          "type": "address"
        },
        {
          "indexed": false,
          "internalType": "uint256",
          "name": "indx",
          "type": "uint256"
        }
      ],
      "name": "AuthorAdded",
      "type": "event"
    },
    {
      "anonymous": false,
      "inputs": [
        {
          "indexed": false,
          "internalType": "address",
          "name": "usrAddr",
          "type": "address"
        },
        {
          "indexed": false,
          "internalType": "uint256",
          "name": "indx",
          "type": "uint256"
        }
      ],
      "name": "CreationAdded",
      "type": "event"
    },
    {
      "anonymous": false,
      "inputs": [
        {
          "indexed": false,
          "internalType": "address",
          "name": "_user",
          "type": "address"
        },
        {
          "indexed": false,
          "internalType": "uint256",
          "name": "indx",
          "type": "uint256"
        }
      ],
      "name": "OganizationAdded",
      "type": "event"
    },
    {
      "anonymous": false,
      "inputs": [
        {
          "indexed": false,
          "internalType": "address",
          "name": "_user",
          "type": "address"
        },
        {
          "indexed": false,
          "internalType": "uint256",
          "name": "indx",
          "type": "uint256"
        }
      ],
      "name": "OrganizerAdded",
      "type": "event"
    },
    {
      "anonymous": false,
      "inputs": [
        {
          "indexed": true,
          "internalType": "address",
          "name": "previousOwner",
          "type": "address"
        },
        {
          "indexed": true,
          "internalType": "address",
          "name": "newOwner",
          "type": "address"
        }
      ],
      "name": "OwnershipTransferred",
      "type": "event"
    },
    {
      "anonymous": false,
      "inputs": [
        {
          "indexed": false,
          "internalType": "address",
          "name": "usrAddr",
          "type": "address"
        },
        {
          "indexed": false,
          "internalType": "uint256",
          "name": "indx",
          "type": "uint256"
        }
      ],
      "name": "UserAdded",
      "type": "event"
    },
    {
      "anonymous": false,
      "inputs": [
        {
          "indexed": false,
          "internalType": "uint256",
          "name": "eventId",
          "type": "uint256"
        }
      ],
      "name": "eventAdded",
      "type": "event"
    },
    {
      "anonymous": false,
      "inputs": [
        {
          "indexed": false,
          "internalType": "uint256",
          "name": "eventId",
          "type": "uint256"
        }
      ],
      "name": "eventRemoved",
      "type": "event"
    },
    {
      "anonymous": false,
      "inputs": [
        {
          "indexed": false,
          "internalType": "address",
          "name": "usrAddr",
          "type": "address"
        }
      ],
      "name": "sportsmanAdded",
      "type": "event"
    },
    {
      "anonymous": false,
      "inputs": [
        {
          "indexed": false,
          "internalType": "address",
          "name": "usrAddr",
          "type": "address"
        },
        {
          "indexed": false,
          "internalType": "uint256",
          "name": "eventID",
          "type": "uint256"
        }
      ],
      "name": "sportsmanRegisterdEvent",
      "type": "event"
    },
    {
      "anonymous": false,
      "inputs": [
        {
          "indexed": false,
          "internalType": "address",
          "name": "usrAddr",
          "type": "address"
        },
        {
          "indexed": false,
          "internalType": "uint256",
          "name": "eventID",
          "type": "uint256"
        }
      ],
      "name": "sportsmanUnregisterdEvent",
      "type": "event"
    },
    {
      "inputs": [
        {
          "internalType": "address",
          "name": "_user",
          "type": "address"
        },
        {
          "internalType": "uint256",
          "name": "_price",
          "type": "uint256"
        },
        {
          "internalType": "uint256",
          "name": "_sportCategory",
          "type": "uint256"
        },
        {
          "internalType": "string",
          "name": "_description",
          "type": "string"
        },
        {
          "internalType": "string",
          "name": "_URI",
          "type": "string"
        }
      ],
      "name": "addCreation",
      "outputs": [],
      "stateMutability": "nonpayable",
      "type": "function"
    },
    {
      "inputs": [
        {
          "internalType": "uint256",
          "name": "_organizedBy",
          "type": "uint256"
        },
        {
          "internalType": "uint8",
          "name": "_startDate",
          "type": "uint8"
        },
        {
          "internalType": "uint8",
          "name": "_endDate",
          "type": "uint8"
        },
        {
          "internalType": "uint256",
          "name": "_sportCategory",
          "type": "uint256"
        }
      ],
      "name": "addEvent",
      "outputs": [],
      "stateMutability": "nonpayable",
      "type": "function"
    },
    {
      "inputs": [
        {
          "internalType": "address",
          "name": "_user",
          "type": "address"
        },
        {
          "internalType": "string",
          "name": "_name",
          "type": "string"
        },
        {
          "internalType": "string",
          "name": "_description",
          "type": "string"
        },
        {
          "internalType": "string",
          "name": "_logoURI",
          "type": "string"
        }
      ],
      "name": "addOrganization",
      "outputs": [],
      "stateMutability": "nonpayable",
      "type": "function"
    },
    {
      "inputs": [
        {
          "internalType": "uint256",
          "name": "_creationId",
          "type": "uint256"
        },
        {
          "internalType": "address",
          "name": "_NFT",
          "type": "address"
        }
      ],
      "name": "affectNFTtoCreation",
      "outputs": [],
      "stateMutability": "nonpayable",
      "type": "function"
    },
    {
      "inputs": [
        {
          "internalType": "uint256",
          "name": "",
          "type": "uint256"
        }
      ],
      "name": "allCreations",
      "outputs": [
        {
          "internalType": "uint256",
          "name": "price",
          "type": "uint256"
        },
        {
          "internalType": "uint256",
          "name": "creationId",
          "type": "uint256"
        },
        {
          "internalType": "uint256",
          "name": "sportCategory",
          "type": "uint256"
        },
        {
          "internalType": "address",
          "name": "author",
          "type": "address"
        },
        {
          "internalType": "address",
          "name": "NFT_Bkg_Adr",
          "type": "address"
        },
        {
          "internalType": "string",
          "name": "description",
          "type": "string"
        },
        {
          "internalType": "string",
          "name": "URI",
          "type": "string"
        },
        {
          "internalType": "bool",
          "name": "activ",
          "type": "bool"
        }
      ],
      "stateMutability": "view",
      "type": "function",
      "constant": true
    },
    {
      "inputs": [
        {
          "internalType": "uint256",
          "name": "orgIndx",
          "type": "uint256"
        }
      ],
      "name": "getAdminList",
      "outputs": [
        {
          "internalType": "uint256[]",
          "name": "",
          "type": "uint256[]"
        }
      ],
      "stateMutability": "view",
      "type": "function",
      "constant": true
    },
    {
      "inputs": [
        {
          "internalType": "address",
          "name": "_user",
          "type": "address"
        }
      ],
      "name": "getAuthor",
      "outputs": [
        {
          "components": [
            {
              "internalType": "address",
              "name": "userAddress",
              "type": "address"
            },
            {
              "internalType": "uint256[]",
              "name": "creations",
              "type": "uint256[]"
            },
            {
              "internalType": "bool",
              "name": "activ",
              "type": "bool"
            }
          ],
          "internalType": "struct Author",
          "name": "",
          "type": "tuple"
        }
      ],
      "stateMutability": "view",
      "type": "function",
      "constant": true
    },
    {
      "inputs": [
        {
          "internalType": "address",
          "name": "_author",
          "type": "address"
        }
      ],
      "name": "getAuthorCreationsList",
      "outputs": [
        {
          "internalType": "uint256[]",
          "name": "",
          "type": "uint256[]"
        }
      ],
      "stateMutability": "view",
      "type": "function",
      "constant": true
    },
    {
      "inputs": [
        {
          "internalType": "uint256",
          "name": "_start",
          "type": "uint256"
        },
        {
          "internalType": "uint256",
          "name": "_end",
          "type": "uint256"
        }
      ],
      "name": "getCreationList",
      "outputs": [
        {
          "components": [
            {
              "internalType": "uint256",
              "name": "price",
              "type": "uint256"
            },
            {
              "internalType": "uint256",
              "name": "creationId",
              "type": "uint256"
            },
            {
              "internalType": "uint256",
              "name": "sportCategory",
              "type": "uint256"
            },
            {
              "internalType": "address",
              "name": "author",
              "type": "address"
            },
            {
              "internalType": "address",
              "name": "NFT_Bkg_Adr",
              "type": "address"
            },
            {
              "internalType": "string",
              "name": "description",
              "type": "string"
            },
            {
              "internalType": "string",
              "name": "URI",
              "type": "string"
            },
            {
              "internalType": "bool",
              "name": "activ",
              "type": "bool"
            }
          ],
          "internalType": "struct NFT_Medal_Bkg_Desc[]",
          "name": "",
          "type": "tuple[]"
        }
      ],
      "stateMutability": "view",
      "type": "function",
      "constant": true
    },
    {
      "inputs": [
        {
          "internalType": "uint256",
          "name": "eventId",
          "type": "uint256"
        }
      ],
      "name": "getEvent",
      "outputs": [
        {
          "components": [
            {
              "internalType": "uint256",
              "name": "eventId",
              "type": "uint256"
            },
            {
              "internalType": "uint256",
              "name": "sportCategory",
              "type": "uint256"
            },
            {
              "internalType": "uint256",
              "name": "organizedBy",
              "type": "uint256"
            },
            {
              "internalType": "address[]",
              "name": "registeredSportsMan",
              "type": "address[]"
            },
            {
              "internalType": "uint8",
              "name": "startDate",
              "type": "uint8"
            },
            {
              "internalType": "uint8",
              "name": "endDate",
              "type": "uint8"
            },
            {
              "internalType": "bool",
              "name": "activ",
              "type": "bool"
            }
          ],
          "internalType": "struct EventHandler.EventDesc",
          "name": "",
          "type": "tuple"
        }
      ],
      "stateMutability": "view",
      "type": "function",
      "constant": true
    },
    {
      "inputs": [],
      "name": "getEventCount",
      "outputs": [
        {
          "internalType": "uint256",
          "name": "",
          "type": "uint256"
        }
      ],
      "stateMutability": "view",
      "type": "function",
      "constant": true
    },
    {
      "inputs": [
        {
          "internalType": "uint256",
          "name": "_start",
          "type": "uint256"
        },
        {
          "internalType": "uint256",
          "name": "_end",
          "type": "uint256"
        }
      ],
      "name": "getEventList",
      "outputs": [
        {
          "components": [
            {
              "internalType": "uint256",
              "name": "eventId",
              "type": "uint256"
            },
            {
              "internalType": "uint256",
              "name": "sportCategory",
              "type": "uint256"
            },
            {
              "internalType": "uint256",
              "name": "organizedBy",
              "type": "uint256"
            },
            {
              "internalType": "address[]",
              "name": "registeredSportsMan",
              "type": "address[]"
            },
            {
              "internalType": "uint8",
              "name": "startDate",
              "type": "uint8"
            },
            {
              "internalType": "uint8",
              "name": "endDate",
              "type": "uint8"
            },
            {
              "internalType": "bool",
              "name": "activ",
              "type": "bool"
            }
          ],
          "internalType": "struct EventHandler.EventDesc[]",
          "name": "",
          "type": "tuple[]"
        }
      ],
      "stateMutability": "view",
      "type": "function",
      "constant": true
    },
    {
      "inputs": [],
      "name": "getNumberOfSportsman",
      "outputs": [
        {
          "internalType": "uint256",
          "name": "",
          "type": "uint256"
        }
      ],
      "stateMutability": "view",
      "type": "function",
      "constant": true
    },
    {
      "inputs": [],
      "name": "getOragnisationCount",
      "outputs": [
        {
          "internalType": "uint256",
          "name": "",
          "type": "uint256"
        }
      ],
      "stateMutability": "view",
      "type": "function",
      "constant": true
    },
    {
      "inputs": [
        {
          "internalType": "uint256",
          "name": "_start",
          "type": "uint256"
        },
        {
          "internalType": "uint256",
          "name": "_end",
          "type": "uint256"
        }
      ],
      "name": "getOrganizationsList",
      "outputs": [
        {
          "components": [
            {
              "internalType": "string",
              "name": "name",
              "type": "string"
            },
            {
              "internalType": "string",
              "name": "description",
              "type": "string"
            },
            {
              "internalType": "string",
              "name": "logoURI",
              "type": "string"
            },
            {
              "internalType": "bool",
              "name": "activ",
              "type": "bool"
            }
          ],
          "internalType": "struct OrganizerHandler.organizationDesc[]",
          "name": "",
          "type": "tuple[]"
        }
      ],
      "stateMutability": "view",
      "type": "function",
      "constant": true
    },
    {
      "inputs": [
        {
          "internalType": "uint256",
          "name": "id",
          "type": "uint256"
        }
      ],
      "name": "getOrganizerAddressById",
      "outputs": [
        {
          "internalType": "address",
          "name": "",
          "type": "address"
        }
      ],
      "stateMutability": "view",
      "type": "function",
      "constant": true
    },
    {
      "inputs": [
        {
          "internalType": "address",
          "name": "_user",
          "type": "address"
        }
      ],
      "name": "getOrganizerOrganisationList",
      "outputs": [
        {
          "internalType": "uint256[]",
          "name": "",
          "type": "uint256[]"
        }
      ],
      "stateMutability": "view",
      "type": "function",
      "constant": true
    },
    {
      "inputs": [
        {
          "internalType": "address",
          "name": "sportsmanId",
          "type": "address"
        }
      ],
      "name": "getSportsmanEventsSubscriptions",
      "outputs": [
        {
          "internalType": "uint256[]",
          "name": "",
          "type": "uint256[]"
        }
      ],
      "stateMutability": "view",
      "type": "function",
      "constant": true
    },
    {
      "inputs": [
        {
          "internalType": "uint256",
          "name": "_start",
          "type": "uint256"
        },
        {
          "internalType": "uint256",
          "name": "_end",
          "type": "uint256"
        }
      ],
      "name": "getSportsmanList",
      "outputs": [
        {
          "components": [
            {
              "internalType": "address",
              "name": "userAddress",
              "type": "address"
            },
            {
              "internalType": "uint256",
              "name": "sportCategory",
              "type": "uint256"
            },
            {
              "internalType": "uint256",
              "name": "nbActivSubscriptions",
              "type": "uint256"
            },
            {
              "internalType": "bool",
              "name": "activ",
              "type": "bool"
            }
          ],
          "internalType": "struct SportsmanHandler.SportsmanDesc[]",
          "name": "",
          "type": "tuple[]"
        }
      ],
      "stateMutability": "view",
      "type": "function",
      "constant": true
    },
    {
      "inputs": [
        {
          "internalType": "address",
          "name": "_userAdr",
          "type": "address"
        }
      ],
      "name": "getUserDetails",
      "outputs": [
        {
          "components": [
            {
              "internalType": "string",
              "name": "iconURI",
              "type": "string"
            },
            {
              "internalType": "string",
              "name": "userName",
              "type": "string"
            },
            {
              "internalType": "string",
              "name": "email",
              "type": "string"
            },
            {
              "internalType": "uint8",
              "name": "role",
              "type": "uint8"
            },
            {
              "internalType": "bool",
              "name": "activ",
              "type": "bool"
            }
          ],
          "internalType": "struct User",
          "name": "",
          "type": "tuple"
        }
      ],
      "stateMutability": "view",
      "type": "function",
      "constant": true
    },
    {
      "inputs": [
        {
          "internalType": "uint256",
          "name": "orgId",
          "type": "uint256"
        },
        {
          "internalType": "address",
          "name": "_user",
          "type": "address"
        }
      ],
      "name": "organizationAddAdmin",
      "outputs": [],
      "stateMutability": "nonpayable",
      "type": "function"
    },
    {
      "inputs": [],
      "name": "owner",
      "outputs": [
        {
          "internalType": "address",
          "name": "",
          "type": "address"
        }
      ],
      "stateMutability": "view",
      "type": "function",
      "constant": true
    },
    {
      "inputs": [
        {
          "internalType": "uint256",
          "name": "",
          "type": "uint256"
        }
      ],
      "name": "registeredAuthors",
      "outputs": [
        {
          "internalType": "address",
          "name": "",
          "type": "address"
        }
      ],
      "stateMutability": "view",
      "type": "function",
      "constant": true
    },
    {
      "inputs": [
        {
          "internalType": "uint256",
          "name": "",
          "type": "uint256"
        }
      ],
      "name": "registeredSportsman",
      "outputs": [
        {
          "internalType": "address",
          "name": "",
          "type": "address"
        }
      ],
      "stateMutability": "view",
      "type": "function",
      "constant": true
    },
    {
      "inputs": [
        {
          "internalType": "uint256",
          "name": "",
          "type": "uint256"
        }
      ],
      "name": "registeredUsers",
      "outputs": [
        {
          "internalType": "address",
          "name": "",
          "type": "address"
        }
      ],
      "stateMutability": "view",
      "type": "function",
      "constant": true
    },
    {
      "inputs": [],
      "name": "renounceOwnership",
      "outputs": [],
      "stateMutability": "nonpayable",
      "type": "function"
    },
    {
      "inputs": [
        {
          "internalType": "address",
          "name": "newOwner",
          "type": "address"
        }
      ],
      "name": "transferOwnership",
      "outputs": [],
      "stateMutability": "nonpayable",
      "type": "function"
    },
    {
      "inputs": [
        {
          "internalType": "address",
          "name": "_userAddress",
          "type": "address"
        },
        {
          "internalType": "string",
          "name": "_iconURI",
          "type": "string"
        },
        {
          "internalType": "string",
          "name": "_userName",
          "type": "string"
        },
        {
          "internalType": "string",
          "name": "_email",
          "type": "string"
        },
        {
          "internalType": "uint8",
          "name": "_role",
          "type": "uint8"
        },
        {
          "internalType": "uint256",
          "name": "_sportsCategory",
          "type": "uint256"
        }
      ],
      "name": "addNewUser",
      "outputs": [],
      "stateMutability": "nonpayable",
      "type": "function"
    }
  ],
  "bytecode": "0x60806040523480156200001157600080fd5b5062000026620000206200002c565b62000030565b62000080565b3390565b600080546001600160a01b038381166001600160a01b0319831681178455604051919092169283917f8be0079c531659141344cd1fd0a4f28419497f9722a3daafe3b4186f6b6457e09190a35050565b6135fa80620000906000396000f3fe608060405234801561001057600080fd5b50600436106101c45760003560e01c8063c46f05b9116100f9578063eebd127411610097578063fb87aa4211610071578063fb87aa42146103e1578063fbcbd067146103f4578063fd395fc514610407578063fe4363a314610427576101c4565b8063eebd1274146103a8578063f2fde38b146103bb578063f5ad8cda146103ce576101c4565b8063cc3d967b116100d3578063cc3d967b1461035a578063cd284f651461037a578063d9e48f5c1461038d578063e56afc7514610395576101c4565b8063c46f05b91461031f578063c888724914610332578063cb06cce614610352576101c4565b80637259e0f8116101665780638da5cb5b116101405780638da5cb5b146102d15780639107e879146102d957806391850ab3146102f9578063ad9704631461030c576101c4565b80637259e0f81461029657806375bb7174146102a95780637990b367146102be576101c4565b80635336abb5116101a25780635336abb5146102325780636d1884e0146102595780636e39f63014610279578063715018a61461028e576101c4565b80630ab30093146101c957806335d3339e146101f25780634dbc196c14610212575b600080fd5b6101dc6101d7366004612bf1565b610447565b6040516101e991906133b5565b60405180910390f35b610205610200366004612e1d565b6104ff565b6040516101e99190612ffd565b610225610220366004612dda565b6106ed565b6040516101e99190612fd0565b610245610240366004612dda565b610717565b6040516101e9989796959493929190613495565b61026c610267366004612dda565b61088f565b6040516101e991906133fb565b61028c610287366004612e3e565b61095d565b005b61028c610a49565b6102256102a4366004612dda565b610a94565b6102b1610aa4565b6040516101e9919061348c565b6102256102cc366004612dda565b610aaa565b610225610aba565b6102ec6102e7366004612bf1565b610ac9565b6040516101e9919061324c565b6102ec610307366004612bf1565b610b74565b61028c61031a366004612d55565b610d95565b6102ec61032d366004612dda565b610fb2565b610345610340366004612e1d565b611179565b6040516101e9919061305d565b6102b1611599565b61036d610368366004612bf1565b61159f565b6040516101e9919061340e565b61028c610388366004612df2565b6117b9565b6102b1611868565b61028c6103a3366004612df2565b61186e565b6102ec6103b6366004612bf1565b6119bc565b61028c6103c9366004612bf1565b611b33565b61028c6103dc366004612ca7565b611ba4565b6102256103ef366004612dda565b611c4a565b61028c610402366004612c12565b611ca1565b61041a610415366004612e1d565b611de7565b6040516101e99190613140565b61043a610435366004612e1d565b611f93565b6040516101e991906131af565b61044f612954565b816001600160a01b03811661046357600080fd5b6001600160a01b038084166000908152600360209081526040918290208251606081018452815490941684526001810180548451818502810185019095528085529193858401939092908301828280156104dc57602002820191906000526020600020905b8154815260200190600101908083116104c8575b50505091835250506002919091015460ff16151560209091015291505b50919050565b6060600954806000141561051257600080fd5b8284111561051f57600080fd5b60095484106105495760405162461bcd60e51b81526004016105409061333a565b60405180910390fd5b6009548310610564576001600954610561919061351a565b92505b6000610570858561351a565b61057b906001613502565b67ffffffffffffffff8111156105a157634e487b7160e01b600052604160045260246000fd5b6040519080825280602002602001820160405280156105da57816020015b6105c7612980565b8152602001906001900390816105bf5790505b509050845b8481116106e457600081815260086020908152604091829020825160e08101845281548152600182015481840152600282015481850152600382018054855181860281018601909652808652919492936060860193929083018282801561066f57602002820191906000526020600020905b81546001600160a01b03168152600190910190602001808311610651575b50505091835250506004919091015460ff80821660208401526101008204811660408401526201000090910416151560609091015282518390839081106106c657634e487b7160e01b600052603260045260246000fd5b602002602001018190525080806106dc9061357d565b9150506105df565b50949350505050565b600781815481106106fd57600080fd5b6000918252602090912001546001600160a01b0316905081565b6005818154811061072757600080fd5b6000918252602090912060089091020180546001820154600283015460038401546004850154600586018054959750939592946001600160a01b039283169491909216929161077590613548565b80601f01602080910402602001604051908101604052809291908181526020018280546107a190613548565b80156107ee5780601f106107c3576101008083540402835291602001916107ee565b820191906000526020600020905b8154815290600101906020018083116107d157829003601f168201915b50505050509080600601805461080390613548565b80601f016020809104026020016040519081016040528092919081815260200182805461082f90613548565b801561087c5780601f106108515761010080835404028352916020019161087c565b820191906000526020600020905b81548152906001019060200180831161085f57829003601f168201915b5050506007909301549192505060ff1688565b610897612980565b600082815260086020908152604091829020825160e08101845281548152600182015481840152600282015481850152600382018054855181860281018601909652808652919492936060860193929083018282801561092057602002820191906000526020600020905b81546001600160a01b03168152600190910190602001808311610902575b50505091835250506004919091015460ff80821660208401526101008204811660408401526201000090910416151560609091015290505b919050565b61096561233c565b6001600160a01b0316610976610aba565b6001600160a01b03161461099c5760405162461bcd60e51b815260040161054090613305565b6009805460008181526008602052604090819020918255600282018790556004820180546001840186905562ff00001960ff8881166101000261ff0019918b1660ff1990941693909317169190911716620100001790559154915190917fb74b81e22ed2c551cf1d61041f3314bcb4dc74e133a311f76c5de475735b026491610a25919061348c565b60405180910390a160098054906000610a3d8361357d565b91905055505050505050565b610a5161233c565b6001600160a01b0316610a62610aba565b6001600160a01b031614610a885760405162461bcd60e51b815260040161054090613305565b610a926000612340565b565b600281815481106106fd57600080fd5b60075490565b600481815481106106fd57600080fd5b6000546001600160a01b031690565b6060816001600160a01b038116610adf57600080fd5b6001600160a01b03831660009081526003602052604090206001015480610b0557600080fd5b6001600160a01b03841660009081526003602090815260409182902060010180548351818402810184019094528084529091830182828015610b6657602002820191906000526020600020905b815481526020019060010190808311610b52575b505050505092505050919050565b6001600160a01b0381166000908152600b602052604090205460609080610bad5760405162461bcd60e51b8152600401610540906132a5565b80610bb781613531565b9150506000600a8281548110610bdd57634e487b7160e01b600052603260045260246000fd5b906000526020600020906004020160020154905060008111610c115760405162461bcd60e51b8152600401610540906132dc565b60008167ffffffffffffffff811115610c3a57634e487b7160e01b600052604160045260246000fd5b604051908082528060200260200182016040528015610c63578160200160208202803683370190505b5090506000805b600c54811015610d8a576000600a8681548110610c9757634e487b7160e01b600052603260045260246000fd5b90600052602060002090600402016001018281548110610cc757634e487b7160e01b600052603260045260246000fd5b90600052602060002001541115610d78576001600a8681548110610cfb57634e487b7160e01b600052603260045260246000fd5b90600052602060002090600402016001018281548110610d2b57634e487b7160e01b600052603260045260246000fd5b9060005260206000200154610d40919061351a565b8383610d4b8161357d565b945081518110610d6b57634e487b7160e01b600052603260045260246000fd5b6020026020010181815250505b80610d828161357d565b915050610c6a565b509095945050505050565b610d9d61233c565b6001600160a01b0316610dae610aba565b6001600160a01b031614610dd45760405162461bcd60e51b815260040161054090613305565b846001600160a01b038116610de857600080fd5b6001600160a01b0386166000908152600360205260409020600281015460ff16610e245760405162461bcd60e51b815260040161054090613371565b600580546001808201808455600084815260408051610100810182528c8152602081018690529081018b90526001600160a01b038d166060820152608081019190915260a0810189905260c0810188905260e08101929092529192909183908110610e9f57634e487b7160e01b600052603260045260246000fd5b600091825260209182902083516008909202019081558282015160018201556040830151600282015560608301516003820180546001600160a01b039283166001600160a01b031991821617909155608085015160048401805491909316911617905560a083015180519192610f1d926005850192909101906129c5565b5060c08201518051610f399160068401916020909101906129c5565b5060e091909101516007909101805460ff1916911515919091179055600182810180549182018155600090815260209020018190556040517f6ebd5b45b68b36b036925496b54a9c90f49bdc2a23cf8fb9d7f92e13eb113c1590610fa0908a908490612fe4565b60405180910390a15050505050505050565b600c546060908290808210610fc657600080fd5b6000610fd185612390565b905060008167ffffffffffffffff811115610ffc57634e487b7160e01b600052604160045260246000fd5b604051908082528060200260200182016040528015611025578160200160208202803683370190505b50905060005b600c878154811061104c57634e487b7160e01b600052603260045260246000fd5b600091825260209091206005909102015481101561116f576000600c888154811061108757634e487b7160e01b600052603260045260246000fd5b906000526020600020906005020160000182815481106110b757634e487b7160e01b600052603260045260246000fd5b9060005260206000200154111561115d576001600c88815481106110eb57634e487b7160e01b600052603260045260246000fd5b9060005260206000209060050201600001828154811061111b57634e487b7160e01b600052603260045260246000fd5b9060005260206000200154611130919061351a565b82828151811061115057634e487b7160e01b600052603260045260246000fd5b6020026020010181815250505b806111678161357d565b91505061102b565b5095945050505050565b6005546060908061118957600080fd5b8284111561119657600080fd5b60055484106111b75760405162461bcd60e51b81526004016105409061333a565b60055483106111d2576005546111cf9060019061351a565b92505b60006111de858561351a565b6111e9906001613502565b67ffffffffffffffff81111561120f57634e487b7160e01b600052604160045260246000fd5b60405190808252806020026020018201604052801561124857816020015b611235612a49565b81526020019060019003908161122d5790505b509050845b8481116106e4576040518061010001604052806005838154811061128157634e487b7160e01b600052603260045260246000fd5b9060005260206000209060080201600001548152602001600583815481106112b957634e487b7160e01b600052603260045260246000fd5b9060005260206000209060080201600101548152602001600583815481106112f157634e487b7160e01b600052603260045260246000fd5b90600052602060002090600802016002015481526020016005838154811061132957634e487b7160e01b600052603260045260246000fd5b6000918252602091829020600360089092020101546001600160a01b031682526005805492909101918490811061137057634e487b7160e01b600052603260045260246000fd5b6000918252602091829020600460089092020101546001600160a01b03168252600580549290910191849081106113b757634e487b7160e01b600052603260045260246000fd5b906000526020600020906008020160050180546113d390613548565b80601f01602080910402602001604051908101604052809291908181526020018280546113ff90613548565b801561144c5780601f106114215761010080835404028352916020019161144c565b820191906000526020600020905b81548152906001019060200180831161142f57829003601f168201915b505050505081526020016005838154811061147757634e487b7160e01b600052603260045260246000fd5b9060005260206000209060080201600601805461149390613548565b80601f01602080910402602001604051908101604052809291908181526020018280546114bf90613548565b801561150c5780601f106114e15761010080835404028352916020019161150c565b820191906000526020600020905b8154815290600101906020018083116114ef57829003601f168201915b505050505081526020016005838154811061153757634e487b7160e01b600052603260045260246000fd5b600091825260209091206007600890920201015460ff16151590528261155d888461351a565b8151811061157b57634e487b7160e01b600052603260045260246000fd5b602002602001018190525080806115919061357d565b91505061124d565b600c5490565b6115a7612aa2565b816001600160a01b0381166115bb57600080fd5b6001600160a01b03831660009081526001602052604090819020815160a081019092528054829082906115ed90613548565b80601f016020809104026020016040519081016040528092919081815260200182805461161990613548565b80156116665780601f1061163b57610100808354040283529160200191611666565b820191906000526020600020905b81548152906001019060200180831161164957829003601f168201915b5050505050815260200160018201805461167f90613548565b80601f01602080910402602001604051908101604052809291908181526020018280546116ab90613548565b80156116f85780601f106116cd576101008083540402835291602001916116f8565b820191906000526020600020905b8154815290600101906020018083116116db57829003601f168201915b5050505050815260200160028201805461171190613548565b80601f016020809104026020016040519081016040528092919081815260200182805461173d90613548565b801561178a5780601f1061175f5761010080835404028352916020019161178a565b820191906000526020600020905b81548152906001019060200180831161176d57829003601f168201915b50505091835250506003919091015460ff80821660208401526101009091041615156040909101529392505050565b6117c161233c565b6001600160a01b03166117d2610aba565b6001600160a01b0316146117f85760405162461bcd60e51b815260040161054090613305565b806001600160a01b03811661180c57600080fd5b816005848154811061182e57634e487b7160e01b600052603260045260246000fd5b906000526020600020906008020160040160006101000a8154816001600160a01b0302191690836001600160a01b03160217905550505050565b60095490565b61187661233c565b6001600160a01b0316611887610aba565b6001600160a01b0316146118ad5760405162461bcd60e51b815260040161054090613305565b806001600160a01b0381166118c157600080fd5b6000600c84815481106118e457634e487b7160e01b600052603260045260246000fd5b600091825260208083206001600160a01b0387168452600b909152604090922054600590910290910191508061192a57634e487b7160e01b600052600160045260246000fd5b6000600a61193960018461351a565b8154811061195757634e487b7160e01b600052603260045260246000fd5b90600052602060002090600402019050806001018660016119789190613502565b815460018101835560009283526020832001556002820180549161199b8361357d565b90915550508254600181018455600093845260209093209092015550505050565b6001600160a01b0381166000908152600660205260409020600501546060906119f557634e487b7160e01b600052600160045260246000fd5b6001600160a01b03821660009081526006602052604081206005015467ffffffffffffffff811115611a3757634e487b7160e01b600052604160045260246000fd5b604051908082528060200260200182016040528015611a60578160200160208202803683370190505b5090506000805b6001600160a01b038516600090815260066020526040902060040154811015611b2a576001600160a01b038516600090815260066020908152604080832084845260030190915290205460ff1615611b18576001600160a01b03851660009081526006602090815260408083208484526002019091529020548383611aeb8161357d565b945081518110611b0b57634e487b7160e01b600052603260045260246000fd5b6020026020010181815250505b80611b228161357d565b915050611a67565b50909392505050565b611b3b61233c565b6001600160a01b0316611b4c610aba565b6001600160a01b031614611b725760405162461bcd60e51b815260040161054090613305565b6001600160a01b038116611b985760405162461bcd60e51b81526004016105409061325f565b611ba181612340565b50565b611bac61233c565b6001600160a01b0316611bbd610aba565b6001600160a01b031614611be35760405162461bcd60e51b815260040161054090613305565b856001600160a01b038116611bf757600080fd5b611c048787878787612458565b60028084161415611c1857611c188761260b565b60048084161415611c2c57611c2c8761271b565b60088084161415611c4157611c418783612857565b50505050505050565b600a546000908290808210611c5e57600080fd5b600a8481548110611c7f57634e487b7160e01b600052603260045260246000fd5b60009182526020909120600490910201546001600160a01b0316949350505050565b611ca961233c565b6001600160a01b0316611cba610aba565b6001600160a01b031614611ce05760405162461bcd60e51b815260040161054090613305565b836001600160a01b038116611cf457600080fd5b600c80546001810182556000919091528451600582027fdf6966c971051c3d54ec59162606531493a51404a002842f56009d7e5cf4a8c7810191611d5f917fdf6966c971051c3d54ec59162606531493a51404a002842f56009d7e5cf4a8c8019060208901906129c5565b508451611d7590600283019060208801906129c5565b508351611d8b90600383019060208701906129c5565b5060048101805460ff19166001179055611da5828861186e565b7fcbbf31cd62dff8d3e3fd3ff1549adbbd47b39c0682301e54af8f3a0ffaade4a38783604051611dd6929190612fe4565b60405180910390a150505050505050565b60075460609080611df757600080fd5b82841115611e0457600080fd5b6007548410611e255760405162461bcd60e51b81526004016105409061333a565b6007548310611e4057600754611e3d9060019061351a565b92505b6000611e4c858561351a565b611e57906001613502565b67ffffffffffffffff811115611e7d57634e487b7160e01b600052604160045260246000fd5b604051908082528060200260200182016040528015611eb657816020015b611ea3612ad6565b815260200190600190039081611e9b5790505b509050845b8481116106e45760006006600060078481548110611ee957634e487b7160e01b600052603260045260246000fd5b60009182526020808320909101546001600160a01b039081168452838201949094526040928301909120825160808101845281549094168452600181015491840191909152600581015491830191909152600681015460ff1615156060830152915083611f56898561351a565b81518110611f7457634e487b7160e01b600052603260045260246000fd5b60200260200101819052508180611f8a9061357d565b92505050611ebb565b600c5460609080611fa357600080fd5b82841115611fb057600080fd5b600c548410611fd15760405162461bcd60e51b81526004016105409061333a565b600c548310611fec57600c54611fe99060019061351a565b92505b6000611ff8858561351a565b612003906001613502565b67ffffffffffffffff81111561202957634e487b7160e01b600052604160045260246000fd5b60405190808252806020026020018201604052801561206257816020015b61204f612b09565b8152602001906001900390816120475790505b509050845b8481116106e4576040518060800160405280600c838154811061209a57634e487b7160e01b600052603260045260246000fd5b906000526020600020906005020160010180546120b690613548565b80601f01602080910402602001604051908101604052809291908181526020018280546120e290613548565b801561212f5780601f106121045761010080835404028352916020019161212f565b820191906000526020600020905b81548152906001019060200180831161211257829003601f168201915b50505050508152602001600c838154811061215a57634e487b7160e01b600052603260045260246000fd5b9060005260206000209060050201600201805461217690613548565b80601f01602080910402602001604051908101604052809291908181526020018280546121a290613548565b80156121ef5780601f106121c4576101008083540402835291602001916121ef565b820191906000526020600020905b8154815290600101906020018083116121d257829003601f168201915b50505050508152602001600c838154811061221a57634e487b7160e01b600052603260045260246000fd5b9060005260206000209060050201600301805461223690613548565b80601f016020809104026020016040519081016040528092919081815260200182805461226290613548565b80156122af5780601f10612284576101008083540402835291602001916122af565b820191906000526020600020905b81548152906001019060200180831161229257829003601f168201915b50505050508152602001600c83815481106122da57634e487b7160e01b600052603260045260246000fd5b600091825260209091206004600590920201015460ff161515905282612300888461351a565b8151811061231e57634e487b7160e01b600052603260045260246000fd5b602002602001018190525080806123349061357d565b915050612067565b3390565b600080546001600160a01b038381166001600160a01b0319831681178455604051919092169283917f8be0079c531659141344cd1fd0a4f28419497f9722a3daafe3b4186f6b6457e09190a35050565b600080805b600c84815481106123b657634e487b7160e01b600052603260045260246000fd5b600091825260209091206005909102015481101561245157600c84815481106123ef57634e487b7160e01b600052603260045260246000fd5b9060005260206000209060050201600001818154811061241f57634e487b7160e01b600052603260045260246000fd5b906000526020600020015460001461243f578161243b8161357d565b9250505b806124498161357d565b915050612395565b5092915050565b61246061233c565b6001600160a01b0316612471610aba565b6001600160a01b0316146124975760405162461bcd60e51b815260040161054090613305565b846001600160a01b0381166124ab57600080fd5b6040805160a081018252868152602080820187905281830186905260ff851660608301526001608083018190526001600160a01b038a16600090815290825292909220815180519293919261250392849201906129c5565b50602082810151805161251c92600185019201906129c5565b50604082015180516125389160028401916020909101906129c5565b5060608201516003909101805460809093015115156101000261ff001960ff90931660ff199094169390931791909116919091179055600280546001818101835560008390527f405787fa12a823e0f2b7631cc41b3ba8828b3321ca811111fa75cd3aa3bb5ace90910180546001600160a01b038a166001600160a01b031990911617905590547f25ddd06f7eaeb83bb3fbcaa231d4b89e2d7bcd781043983661920061e755a7f09188916125ed919061351a565b6040516125fb929190612fe4565b60405180910390a1505050505050565b61261361233c565b6001600160a01b0316612624610aba565b6001600160a01b03161461264a5760405162461bcd60e51b815260040161054090613305565b806001600160a01b03811661265e57600080fd5b60048054600181810183557f8a35acfbc15ff81a39ae7d344fd709f28e8600b4aa8c65c6b64bfe7fe36bd19b90910180546001600160a01b0386166001600160a01b0319918216811790925560008281526003602052604090208054909116909117815560028101805460ff19168317905591547fb33697d74ba91a225da88048bf57b244fc8aa1a7b8f90aeb4788b8a4ef65d1cf918591612700919061351a565b60405161270e929190612fe4565b60405180910390a1505050565b61272361233c565b6001600160a01b0316612734610aba565b6001600160a01b03161461275a5760405162461bcd60e51b815260040161054090613305565b806001600160a01b03811661276e57600080fd5b600a8054600180820183556000929092527fc65a7bb8d6351c1cf70c95a316cc6a92839c986682d98bc35f958f4883f9d2a86004820290810180546001600160a01b0319166001600160a01b0387161781557fc65a7bb8d6351c1cf70c95a316cc6a92839c986682d98bc35f958f4883f9d2ab909101805460ff19168417905590916127fb908390613502565b6001600160a01b0385166000908152600b60205260409081902091909155517fecc5d9929809b3db05d64ac37958ea2e6d0676af617f0d6ebec74a40e43382b7906128499086908590612fe4565b60405180910390a150505050565b61285f61233c565b6001600160a01b0316612870610aba565b6001600160a01b0316146128965760405162461bcd60e51b815260040161054090613305565b816001600160a01b0381166128aa57600080fd5b6007805460018181019092557fa66cc928b5edb82af9bd49922954155ab7b0942694bea4ce44661d9a8736c6880180546001600160a01b0386166001600160a01b0319918216811790925560008281526006602081905260409182902080549093169093178255818401869055918101805460ff1916909317909255517fa448e5e847c6d262439050f776e09d4734f840b963b23fcfb5cd33cd233518e690612849908690612fd0565b604051806060016040528060006001600160a01b03168152602001606081526020016000151581525090565b6040518060e0016040528060008152602001600081526020016000815260200160608152602001600060ff168152602001600060ff1681526020016000151581525090565b8280546129d190613548565b90600052602060002090601f0160209004810192826129f35760008555612a39565b82601f10612a0c57805160ff1916838001178555612a39565b82800160010185558215612a39579182015b82811115612a39578251825591602001919060010190612a1e565b50612a45929150612b33565b5090565b60405180610100016040528060008152602001600081526020016000815260200160006001600160a01b0316815260200160006001600160a01b0316815260200160608152602001606081526020016000151581525090565b6040518060a00160405280606081526020016060815260200160608152602001600060ff1681526020016000151581525090565b604051806080016040528060006001600160a01b0316815260200160008152602001600081526020016000151581525090565b60405180608001604052806060815260200160608152602001606081526020016000151581525090565b5b80821115612a455760008155600101612b34565b80356001600160a01b038116811461095857600080fd5b600082601f830112612b6f578081fd5b813567ffffffffffffffff80821115612b8a57612b8a6135ae565b604051601f8301601f191681016020018281118282101715612bae57612bae6135ae565b604052828152848301602001861015612bc5578384fd5b82602086016020830137918201602001929092529392505050565b803560ff8116811461095857600080fd5b600060208284031215612c02578081fd5b612c0b82612b48565b9392505050565b60008060008060808587031215612c27578283fd5b612c3085612b48565b9350602085013567ffffffffffffffff80821115612c4c578485fd5b612c5888838901612b5f565b94506040870135915080821115612c6d578384fd5b612c7988838901612b5f565b93506060870135915080821115612c8e578283fd5b50612c9b87828801612b5f565b91505092959194509250565b60008060008060008060c08789031215612cbf578182fd5b612cc887612b48565b9550602087013567ffffffffffffffff80821115612ce4578384fd5b612cf08a838b01612b5f565b96506040890135915080821115612d05578384fd5b612d118a838b01612b5f565b95506060890135915080821115612d26578384fd5b50612d3389828a01612b5f565b935050612d4260808801612be0565b915060a087013590509295509295509295565b600080600080600060a08688031215612d6c578081fd5b612d7586612b48565b94506020860135935060408601359250606086013567ffffffffffffffff80821115612d9f578283fd5b612dab89838a01612b5f565b93506080880135915080821115612dc0578283fd5b50612dcd88828901612b5f565b9150509295509295909350565b600060208284031215612deb578081fd5b5035919050565b60008060408385031215612e04578182fd5b82359150612e1460208401612b48565b90509250929050565b60008060408385031215612e2f578182fd5b50508035926020909101359150565b60008060008060808587031215612e53578384fd5b84359350612e6360208601612be0565b9250612e7160408601612be0565b9396929550929360600135925050565b6001600160a01b03169052565b6000815180845260208085019450808401835b83811015612ebd57815187529582019590820190600101612ea1565b509495945050505050565b15159052565b60008151808452815b81811015612ef357602081850181015186830182015201612ed7565b81811115612f045782602083870101525b50601f01601f19169290920160200192915050565b600060e08301825184526020808401518186015260408401516040860152606084015160e060608701528281518085526101008801915083830194508592505b80831015612f825784516001600160a01b03168252938301936001929092019190830190612f59565b5060808601519350612f976080880185612fc9565b60a08601519350612fab60a0880185612fc9565b60c08601519350612fbf60c0880185612ec8565b9695505050505050565b60ff169052565b6001600160a01b0391909116815260200190565b6001600160a01b03929092168252602082015260400190565b6000602080830181845280855180835260408601915060408482028701019250838701855b8281101561305057603f1988860301845261303e858351612f19565b94509285019290850190600101613022565b5092979650505050505050565b60208082528251828201819052600091906040908185019080840286018301878501865b8381101561313257888303603f19018552815180518452878101518885015286810151878501526060808201516001600160a01b03169085015260808082015161010091906130d282880182612e81565b505060a08083015182828801526130eb83880182612ece565b9250505060c080830151868303828801526131068382612ece565b9250505060e080830151925061311e81870184612ec8565b509588019593505090860190600101613081565b509098975050505050505050565b602080825282518282018190526000919060409081850190868401855b828110156131a257815180516001600160a01b03168552868101518786015285810151868601526060908101511515908501526080909301929085019060010161315d565b5091979650505050505050565b60208082528251828201819052600091906040908185019080840286018301878501865b8381101561313257603f198984030185528151608081518186526131f982870182612ece565b915050888201518582038a8701526132118282612ece565b91505087820151858203898701526132298282612ece565b6060938401511515969093019590955250948701949250908601906001016131d3565b600060208252612c0b6020830184612e8e565b60208082526026908201527f4f776e61626c653a206e6577206f776e657220697320746865207a65726f206160408201526564647265737360d01b606082015260800190565b60208082526018908201527f75736572206973206e6f7420616e206f7267616e697a65720000000000000000604082015260600190565b6020808252600f908201526e37379039bab139b1b934b83a34b7b760891b604082015260600190565b6020808252818101527f4f776e61626c653a2063616c6c6572206973206e6f7420746865206f776e6572604082015260600190565b60208082526017908201527f5374617274496e646578206f7574206f662072616e6765000000000000000000604082015260600190565b60208082526024908201527f417574686f72206d75737420626520616374697620746f2061646420437265616040820152633a34b7b760e11b606082015260800190565b602080825282516001600160a01b031682820152820151606060408301526000906133e36080840182612e8e565b90506040840151151560608401528091505092915050565b600060208252612c0b6020830184612f19565b600060208252825160a0602084015261342a60c0840182612ece565b90506020840151601f19808584030160408601526134488383612ece565b92506040860151915080858403016060860152506134668282612ece565b91505060ff60608501511660808401526080840151151560a08401528091505092915050565b90815260200190565b88815260208101889052604081018790526001600160a01b0386811660608301528516608082015261010060a082018190526000906134d683820187612ece565b905082810360c08401526134ea8186612ece565b91505082151560e08301529998505050505050505050565b6000821982111561351557613515613598565b500190565b60008282101561352c5761352c613598565b500390565b60008161354057613540613598565b506000190190565b60028104600182168061355c57607f821691505b602082108114156104f957634e487b7160e01b600052602260045260246000fd5b600060001982141561359157613591613598565b5060010190565b634e487b7160e01b600052601160045260246000fd5b634e487b7160e01b600052604160045260246000fdfea2646970667358221220ce6f4d452a94c897af9fee4abdea02aa777346beb9243d6a5057f75ca916ac5064736f6c63430008000033",
  "immutableReferences": {},
  "source": "// SPDX-License-Identifier: MIT\r\npragma solidity ^0.8;\r\nimport \"@openzeppelin/contracts/access/Ownable.sol\";\r\nimport \"./Dapp Internal Struct/UserHandler.sol\";\r\nimport \"./Dapp Internal Struct/AuthorHandler.sol\";\r\nimport \"./Dapp Internal Struct/SportsmanHandler.sol\";\r\nimport \"./Dapp Internal Struct/EventHandler.sol\";\r\nimport \"./Dapp Internal Struct/OrganizerHandler.sol\";\r\n\r\ncontract MedalVerse is\r\n\tOwnable,\r\n\tUserHandler,\r\n\tAuthorHandler,\r\n\tSportsmanHandler,\r\n\tEventHandler,\r\n\tOrganizerHandler\r\n{\r\n\t// Modifiers ----------------------------\r\n\tmodifier isNotNull(address a)\r\n\t\tvirtual\r\n\t\toverride(\r\n\t\t\tUserHandler,\r\n\t\t\tAuthorHandler,\r\n\t\t\tSportsmanHandler,\r\n\t\t\tEventHandler,\r\n\t\t\tOrganizerHandler\r\n\t\t) {\r\n\t\trequire(a != address(0));\r\n\t\t_;\r\n\t}\r\n\tmodifier isNotNullUint256(uint256 a)\r\n\t\tvirtual\r\n\t\toverride(\r\n\t\t\tOrganizerHandler,\r\n\t\t\tSportsmanHandler,\r\n\t\t\tEventHandler,\r\n\t\t\tAuthorHandler\r\n\t\t) {\r\n\t\trequire(a != 0);\r\n\t\t_;\r\n\t}\r\n\r\n\t// Methods -------------------------------\r\n\tfunction addNewUser(\r\n\t\taddress _userAddress,\r\n\t\tstring memory _iconURI,\r\n\t\tstring memory _userName,\r\n\t\tstring memory _email,\r\n\t\tuint8 _role,\r\n\t\tuint256 _sportsCategory\r\n\t) public onlyOwner isNotNull(_userAddress) {\r\n\t\taddUser(_userAddress, _iconURI, _userName, _email, _role);\r\n\r\n\t\tif ((_role & 2) == 2) addAuthor(_userAddress);\r\n\t\tif ((_role & 4) == 4) addOrganizer(_userAddress);\r\n\t\tif ((_role & 8) == 8) addSportsman(_userAddress, _sportsCategory);\r\n\t}\r\n}\r\n",
  "sourcePath": "C:\\DEV\\ETH\\Alyra\\MedalVerse\\MedalVerse-Front\\contracts\\MedalVerse.sol",
  "compiler": {
    "name": "solc",
    "version": "0.8.0+commit.c7dfd78e.Emscripten.clang"
  },
  "schemaVersion": "3.4.4",
  "updatedAt": "2021-12-22T11:50:21.586Z",
  "networkType": "ethereum",
  "devdoc": {
    "kind": "dev",
    "methods": {
      "addCreation(address,uint256,uint256,string,string)": {
        "details": "Register a creation for a given author",
        "params": {
          "_URI": "Address of the image, used before minting the NFT",
          "_description": "may be null",
          "_price": "Price of the NFT",
          "_sportCategory": "Category for UI",
          "_user": "Address of the user to register as author"
        }
      },
      "addEvent(uint256,uint8,uint8,uint256)": {
        "details": "add an event to the list of events",
        "params": {
          "_endDate": "Date for the event to finish",
          "_organizedBy": "id of the organizer",
          "_sportCategory": "Type of event",
          "_startDate": "Date for the event to start"
        }
      },
      "addOrganization(address,string,string,string)": {
        "details": "add an organization to the list of orgs",
        "params": {
          "_description": "UI description text",
          "_logoURI": "Link to the icon lo\t\tuser.organizationState[orgId] = true;",
          "_name": "UI dislay name",
          "_user": "admin of the organization"
        }
      },
      "affectNFTtoCreation(uint256,address)": {
        "details": "Register a creation for a given author TESTED",
        "params": {
          "_NFT": "Address of the minted NFT",
          "_creationId": "index of the creation as registered in allCreations"
        }
      },
      "getAdminList(uint256)": {
        "details": "returns the list activ admin of an organisation",
        "params": {
          "orgIndx": "index amoung organizations"
        }
      },
      "getAuthor(address)": {
        "details": "returns the Author struc corresponding to the user TESTED",
        "params": {
          "_user": "user address"
        }
      },
      "getAuthorCreationsList(address)": {
        "details": "returns the list of creations for user _author TESTED",
        "params": {
          "_author": "address of the user"
        }
      },
      "getCreationList(uint256,uint256)": {
        "details": "returns the list of creations: they may be inactive, must test activ value TESTED",
        "params": {
          "_end": "ending index - paging",
          "_start": "start index  - paging"
        }
      },
      "getEvent(uint256)": {
        "details": "returns the details of a specific event",
        "params": {
          "eventId": "id of the event"
        }
      },
      "getEventCount()": {
        "details": "returns the number of Events"
      },
      "getEventList(uint256,uint256)": {
        "details": "returns the list of Events",
        "params": {
          "_end": "ending index - paging",
          "_start": "start index  - paging"
        }
      },
      "getNumberOfSportsman()": {
        "details": "returns the number of Sportsman"
      },
      "getOragnisationCount()": {
        "details": "returns the number of Organizations"
      },
      "getOrganizationsList(uint256,uint256)": {
        "details": "returns the list of organization : they may be inactive, must test activ value",
        "params": {
          "_end": "ending index amoung ogranizations",
          "_start": "starting index amoung organizations"
        }
      },
      "getOrganizerAddressById(uint256)": {
        "details": "returns the address of an admin, given an id organizer",
        "params": {
          "id": "id (=index) of the organizer"
        }
      },
      "getOrganizerOrganisationList(address)": {
        "details": "returns the list of organization the organizer subscribed to",
        "params": {
          "_user": "address of the user"
        }
      },
      "getSportsmanList(uint256,uint256)": {
        "details": "returns the list of organization : they may be inactif, must test activ value",
        "params": {
          "_end": "ending index amoung ogranizations",
          "_start": "starting index amoung organizations"
        }
      },
      "getUserDetails(address)": {
        "details": "Returns details about a user, given an address (for UI=)",
        "params": {
          "_userAdr": "of the user"
        }
      },
      "organizationAddAdmin(uint256,address)": {
        "details": "add an admin to an org.",
        "params": {
          "_user": "admin of the organizatio",
          "orgId": "id of the organization"
        }
      },
      "owner()": {
        "details": "Returns the address of the current owner."
      },
      "renounceOwnership()": {
        "details": "Leaves the contract without owner. It will not be possible to call `onlyOwner` functions anymore. Can only be called by the current owner. NOTE: Renouncing ownership will leave the contract without an owner, thereby removing any functionality that is only available to the owner."
      },
      "transferOwnership(address)": {
        "details": "Transfers ownership of the contract to a new account (`newOwner`). Can only be called by the current owner."
      }
    },
    "version": 1
  },
  "userdoc": {
    "kind": "user",
    "methods": {},
    "version": 1
  }
}