{
  "contractName": "Medal",
  "abi": [
    {
      "inputs": [],
      "stateMutability": "nonpayable",
      "type": "constructor"
    },
    {
      "anonymous": false,
      "inputs": [
        {
          "indexed": false,
          "internalType": "address",
          "name": "owner",
          "type": "address"
        },
        {
          "indexed": false,
          "internalType": "uint256",
          "name": "amount",
          "type": "uint256"
        }
      ],
      "name": "$MedalBurned",
      "type": "event"
    },
    {
      "anonymous": false,
      "inputs": [
        {
          "indexed": true,
          "internalType": "address",
          "name": "owner",
          "type": "address"
        },
        {
          "indexed": true,
          "internalType": "address",
          "name": "spender",
          "type": "address"
        },
        {
          "indexed": false,
          "internalType": "uint256",
          "name": "value",
          "type": "uint256"
        }
      ],
      "name": "Approval",
      "type": "event"
    },
    {
      "anonymous": false,
      "inputs": [
        {
          "indexed": true,
          "internalType": "address",
          "name": "previousOwner",
          "type": "address"
        },
        {
          "indexed": true,
          "internalType": "address",
          "name": "newOwner",
          "type": "address"
        }
      ],
      "name": "OwnershipTransferred",
      "type": "event"
    },
    {
      "anonymous": false,
      "inputs": [
        {
          "indexed": true,
          "internalType": "address",
          "name": "from",
          "type": "address"
        },
        {
          "indexed": true,
          "internalType": "address",
          "name": "to",
          "type": "address"
        },
        {
          "indexed": false,
          "internalType": "uint256",
          "name": "value",
          "type": "uint256"
        }
      ],
      "name": "Transfer",
      "type": "event"
    },
    {
      "inputs": [
        {
          "internalType": "address",
          "name": "owner",
          "type": "address"
        },
        {
          "internalType": "address",
          "name": "spender",
          "type": "address"
        }
      ],
      "name": "allowance",
      "outputs": [
        {
          "internalType": "uint256",
          "name": "",
          "type": "uint256"
        }
      ],
      "stateMutability": "view",
      "type": "function",
      "constant": true
    },
    {
      "inputs": [
        {
          "internalType": "address",
          "name": "spender",
          "type": "address"
        },
        {
          "internalType": "uint256",
          "name": "amount",
          "type": "uint256"
        }
      ],
      "name": "approve",
      "outputs": [
        {
          "internalType": "bool",
          "name": "",
          "type": "bool"
        }
      ],
      "stateMutability": "nonpayable",
      "type": "function"
    },
    {
      "inputs": [
        {
          "internalType": "address",
          "name": "account",
          "type": "address"
        }
      ],
      "name": "balanceOf",
      "outputs": [
        {
          "internalType": "uint256",
          "name": "",
          "type": "uint256"
        }
      ],
      "stateMutability": "view",
      "type": "function",
      "constant": true
    },
    {
      "inputs": [],
      "name": "decimals",
      "outputs": [
        {
          "internalType": "uint8",
          "name": "",
          "type": "uint8"
        }
      ],
      "stateMutability": "view",
      "type": "function",
      "constant": true
    },
    {
      "inputs": [
        {
          "internalType": "address",
          "name": "spender",
          "type": "address"
        },
        {
          "internalType": "uint256",
          "name": "subtractedValue",
          "type": "uint256"
        }
      ],
      "name": "decreaseAllowance",
      "outputs": [
        {
          "internalType": "bool",
          "name": "",
          "type": "bool"
        }
      ],
      "stateMutability": "nonpayable",
      "type": "function"
    },
    {
      "inputs": [
        {
          "internalType": "address",
          "name": "spender",
          "type": "address"
        },
        {
          "internalType": "uint256",
          "name": "addedValue",
          "type": "uint256"
        }
      ],
      "name": "increaseAllowance",
      "outputs": [
        {
          "internalType": "bool",
          "name": "",
          "type": "bool"
        }
      ],
      "stateMutability": "nonpayable",
      "type": "function"
    },
    {
      "inputs": [],
      "name": "name",
      "outputs": [
        {
          "internalType": "string",
          "name": "",
          "type": "string"
        }
      ],
      "stateMutability": "view",
      "type": "function",
      "constant": true
    },
    {
      "inputs": [],
      "name": "owner",
      "outputs": [
        {
          "internalType": "address",
          "name": "",
          "type": "address"
        }
      ],
      "stateMutability": "view",
      "type": "function",
      "constant": true
    },
    {
      "inputs": [],
      "name": "renounceOwnership",
      "outputs": [],
      "stateMutability": "nonpayable",
      "type": "function"
    },
    {
      "inputs": [],
      "name": "symbol",
      "outputs": [
        {
          "internalType": "string",
          "name": "",
          "type": "string"
        }
      ],
      "stateMutability": "view",
      "type": "function",
      "constant": true
    },
    {
      "inputs": [],
      "name": "totalSupply",
      "outputs": [
        {
          "internalType": "uint256",
          "name": "",
          "type": "uint256"
        }
      ],
      "stateMutability": "view",
      "type": "function",
      "constant": true
    },
    {
      "inputs": [
        {
          "internalType": "address",
          "name": "recipient",
          "type": "address"
        },
        {
          "internalType": "uint256",
          "name": "amount",
          "type": "uint256"
        }
      ],
      "name": "transfer",
      "outputs": [
        {
          "internalType": "bool",
          "name": "",
          "type": "bool"
        }
      ],
      "stateMutability": "nonpayable",
      "type": "function"
    },
    {
      "inputs": [
        {
          "internalType": "address",
          "name": "sender",
          "type": "address"
        },
        {
          "internalType": "address",
          "name": "recipient",
          "type": "address"
        },
        {
          "internalType": "uint256",
          "name": "amount",
          "type": "uint256"
        }
      ],
      "name": "transferFrom",
      "outputs": [
        {
          "internalType": "bool",
          "name": "",
          "type": "bool"
        }
      ],
      "stateMutability": "nonpayable",
      "type": "function"
    },
    {
      "inputs": [
        {
          "internalType": "address",
          "name": "newOwner",
          "type": "address"
        }
      ],
      "name": "transferOwnership",
      "outputs": [],
      "stateMutability": "nonpayable",
      "type": "function"
    },
    {
      "inputs": [],
      "name": "getTokenBurned",
      "outputs": [
        {
          "internalType": "uint256",
          "name": "",
          "type": "uint256"
        }
      ],
      "stateMutability": "view",
      "type": "function",
      "constant": true
    },
    {
      "inputs": [
        {
          "internalType": "uint256",
          "name": "amount",
          "type": "uint256"
        }
      ],
      "name": "burn",
      "outputs": [],
      "stateMutability": "nonpayable",
      "type": "function"
    }
  ],
  "bytecode": "0x60806040526aa56fa5b99019a5c80000006006556a52b7d2dcc80cd2e40000006007553480156200002f57600080fd5b50604080518082018252600681526509135959185b60d21b6020808301918252835180850190945260048452630913511360e21b9084015281519192916200007a9160039162000204565b5080516200009090600490602084019062000204565b505050620000ad620000a7620000c760201b60201c565b620000cb565b620000c1336006546200011d60201b60201c565b6200034c565b3390565b600580546001600160a01b038381166001600160a01b0319831681179093556040519116919082907f8be0079c531659141344cd1fd0a4f28419497f9722a3daafe3b4186f6b6457e090600090a35050565b6001600160a01b0382166200014f5760405162461bcd60e51b81526004016200014690620002aa565b60405180910390fd5b6200015d60008383620001ff565b8060026000828254620001719190620002ea565b90915550506001600160a01b03821660009081526020819052604081208054839290620001a0908490620002ea565b90915550506040516001600160a01b038316906000907fddf252ad1be2c89b69c2b068fc378daa952ba7f163c4a11628f55a4df523b3ef90620001e5908590620002e1565b60405180910390a3620001fb60008383620001ff565b5050565b505050565b82805462000212906200030f565b90600052602060002090601f01602090048101928262000236576000855562000281565b82601f106200025157805160ff191683800117855562000281565b8280016001018555821562000281579182015b828111156200028157825182559160200191906001019062000264565b506200028f92915062000293565b5090565b5b808211156200028f576000815560010162000294565b6020808252601f908201527f45524332303a206d696e7420746f20746865207a65726f206164647265737300604082015260600190565b90815260200190565b600082198211156200030a57634e487b7160e01b81526011600452602481fd5b500190565b6002810460018216806200032457607f821691505b602082108114156200034657634e487b7160e01b600052602260045260246000fd5b50919050565b610e90806200035c6000396000f3fe608060405234801561001057600080fd5b50600436106100d05760003560e01c806306fdde03146100d5578063095ea7b3146100f357806318160ddd14610113578063189ecc0e1461012857806323b872dd14610130578063313ce56714610143578063395093511461015857806342966c681461016b57806370a0823114610180578063715018a6146101935780638da5cb5b1461019b57806395d89b41146101b0578063a457c2d7146101b8578063a9059cbb146101cb578063dd62ed3e146101de578063f2fde38b146101f1575b600080fd5b6100dd610204565b6040516100ea9190610a72565b60405180910390f35b6101066101013660046109f9565b610296565b6040516100ea9190610a67565b61011b6102b3565b6040516100ea9190610dc3565b61011b6102b9565b61010661013e3660046109be565b6102bf565b61014b610358565b6040516100ea9190610dcc565b6101066101663660046109f9565b61035d565b61017e610179366004610a22565b6103b1565b005b61011b61018e36600461096b565b61047d565b61017e61049c565b6101a36104e7565b6040516100ea9190610a3a565b6100dd6104f6565b6101066101c63660046109f9565b610505565b6101066101d93660046109f9565b61057e565b61011b6101ec36600461098c565b610592565b61017e6101ff36600461096b565b6105bd565b60606003805461021390610e09565b80601f016020809104026020016040519081016040528092919081815260200182805461023f90610e09565b801561028c5780601f106102615761010080835404028352916020019161028c565b820191906000526020600020905b81548152906001019060200180831161026f57829003601f168201915b5050505050905090565b60006102aa6102a361062e565b8484610632565b50600192915050565b60025490565b60085490565b60006102cc8484846106e6565b6001600160a01b0384166000908152600160205260408120816102ed61062e565b6001600160a01b03166001600160a01b03168152602001908152602001600020549050828110156103395760405162461bcd60e51b815260040161033090610c18565b60405180910390fd5b61034d8561034561062e565b858403610632565b506001949350505050565b601290565b60006102aa61036a61062e565b84846001600061037861062e565b6001600160a01b03908116825260208083019390935260409182016000908120918b16815292529020546103ac9190610dda565b610632565b6103b961062e565b6001600160a01b03166103ca6104e7565b6001600160a01b0316146103f05760405162461bcd60e51b815260040161033090610c60565b600754816008546104019190610dda565b111561041f5760405162461bcd60e51b815260040161033090610d5f565b6104293382610810565b806008600082825461043b9190610dda565b90915550506040517f446d9bcbec7d9313babc48713bd8152be1409d93db7cd54ce16651a7d3fbb4c5906104729033908490610a4e565b60405180910390a150565b6001600160a01b0381166000908152602081905260409020545b919050565b6104a461062e565b6001600160a01b03166104b56104e7565b6001600160a01b0316146104db5760405162461bcd60e51b815260040161033090610c60565b6104e56000610902565b565b6005546001600160a01b031690565b60606004805461021390610e09565b6000806001600061051461062e565b6001600160a01b03908116825260208083019390935260409182016000908120918816815292529020549050828110156105605760405162461bcd60e51b815260040161033090610d7e565b61057461056b61062e565b85858403610632565b5060019392505050565b60006102aa61058b61062e565b84846106e6565b6001600160a01b03918216600090815260016020908152604080832093909416825291909152205490565b6105c561062e565b6001600160a01b03166105d66104e7565b6001600160a01b0316146105fc5760405162461bcd60e51b815260040161033090610c60565b6001600160a01b0381166106225760405162461bcd60e51b815260040161033090610b4a565b61062b81610902565b50565b3390565b6001600160a01b0383166106585760405162461bcd60e51b815260040161033090610d1b565b6001600160a01b03821661067e5760405162461bcd60e51b815260040161033090610b90565b6001600160a01b0380841660008181526001602090815260408083209487168084529490915290819020849055517f8c5be1e5ebec7d5bd14f71427d1e84f3dd0314c0f7b2291e5b200ac8c7c3b925906106d9908590610dc3565b60405180910390a3505050565b6001600160a01b03831661070c5760405162461bcd60e51b815260040161033090610cd6565b6001600160a01b0382166107325760405162461bcd60e51b815260040161033090610ac5565b61073d8383836108fd565b6001600160a01b038316600090815260208190526040902054818110156107765760405162461bcd60e51b815260040161033090610bd2565b6001600160a01b038085166000908152602081905260408082208585039055918516815290812080548492906107ad908490610dda565b92505081905550826001600160a01b0316846001600160a01b03167fddf252ad1be2c89b69c2b068fc378daa952ba7f163c4a11628f55a4df523b3ef846040516107f79190610dc3565b60405180910390a361080a8484846108fd565b50505050565b6001600160a01b0382166108365760405162461bcd60e51b815260040161033090610c95565b610842826000836108fd565b6001600160a01b0382166000908152602081905260409020548181101561087b5760405162461bcd60e51b815260040161033090610b08565b6001600160a01b03831660009081526020819052604081208383039055600280548492906108aa908490610df2565b90915550506040516000906001600160a01b038516907fddf252ad1be2c89b69c2b068fc378daa952ba7f163c4a11628f55a4df523b3ef906108ed908690610dc3565b60405180910390a36108fd836000845b505050565b600580546001600160a01b038381166001600160a01b0319831681179093556040519116919082907f8be0079c531659141344cd1fd0a4f28419497f9722a3daafe3b4186f6b6457e090600090a35050565b80356001600160a01b038116811461049757600080fd5b60006020828403121561097c578081fd5b61098582610954565b9392505050565b6000806040838503121561099e578081fd5b6109a783610954565b91506109b560208401610954565b90509250929050565b6000806000606084860312156109d2578081fd5b6109db84610954565b92506109e960208501610954565b9150604084013590509250925092565b60008060408385031215610a0b578182fd5b610a1483610954565b946020939093013593505050565b600060208284031215610a33578081fd5b5035919050565b6001600160a01b0391909116815260200190565b6001600160a01b03929092168252602082015260400190565b901515815260200190565b6000602080835283518082850152825b81811015610a9e57858101830151858201604001528201610a82565b81811115610aaf5783604083870101525b50601f01601f1916929092016040019392505050565b60208082526023908201527f45524332303a207472616e7366657220746f20746865207a65726f206164647260408201526265737360e81b606082015260800190565b60208082526022908201527f45524332303a206275726e20616d6f756e7420657863656564732062616c616e604082015261636560f01b606082015260800190565b60208082526026908201527f4f776e61626c653a206e6577206f776e657220697320746865207a65726f206160408201526564647265737360d01b606082015260800190565b60208082526022908201527f45524332303a20617070726f766520746f20746865207a65726f206164647265604082015261737360f01b606082015260800190565b60208082526026908201527f45524332303a207472616e7366657220616d6f756e7420657863656564732062604082015265616c616e636560d01b606082015260800190565b60208082526028908201527f45524332303a207472616e7366657220616d6f756e74206578636565647320616040820152676c6c6f77616e636560c01b606082015260800190565b6020808252818101527f4f776e61626c653a2063616c6c6572206973206e6f7420746865206f776e6572604082015260600190565b60208082526021908201527f45524332303a206275726e2066726f6d20746865207a65726f206164647265736040820152607360f81b606082015260800190565b60208082526025908201527f45524332303a207472616e736665722066726f6d20746865207a65726f206164604082015264647265737360d81b606082015260800190565b60208082526024908201527f45524332303a20617070726f76652066726f6d20746865207a65726f206164646040820152637265737360e01b606082015260800190565b60208082526005908201526422a9292fa360d91b604082015260600190565b60208082526025908201527f45524332303a2064656372656173656420616c6c6f77616e63652062656c6f77604082015264207a65726f60d81b606082015260800190565b90815260200190565b60ff91909116815260200190565b60008219821115610ded57610ded610e44565b500190565b600082821015610e0457610e04610e44565b500390565b600281046001821680610e1d57607f821691505b60208210811415610e3e57634e487b7160e01b600052602260045260246000fd5b50919050565b634e487b7160e01b600052601160045260246000fdfea26469706673582212200917de2a1205bd1740f101089cce80a552ebff8cd5e831bda4bba35fadc954ce64736f6c63430008000033",
  "immutableReferences": {},
  "source": "// SPDX-License-Identifier: MIT\r\npragma solidity ^0.8;\r\n\r\nimport \"@openzeppelin/contracts/access/Ownable.sol\";\r\nimport \"@openzeppelin/contracts/token/ERC20/ERC20.sol\";\r\n\r\ncontract Medal is ERC20, Ownable {\r\n\tuint256 supplyMax = 20 * (10**25); // Supply max\r\n\tuint256 maxBurned = 10 * (10**25); // Max token burn\r\n\tuint256 tokenBurned; // Number token burn\r\n\r\n\tevent $MedalBurned(address owner, uint256 amount);\r\n\r\n\tconstructor() ERC20(\"$Medal\", \"$MDL\") {\r\n\t\t_mint(msg.sender, supplyMax); //\r\n\t}\r\n\r\n\t///@dev indicated the already burn token number\r\n\t///@return Burn token Number\r\n\tfunction getTokenBurned() external view returns (uint256) {\r\n\t\treturn tokenBurned;\r\n\t}\r\n\r\n\t///@dev Burn the indicated amount of token\r\n\t///@param amount Amount to burn\r\n\tfunction burn(uint256 amount) external onlyOwner {\r\n\t\trequire(tokenBurned + amount <= maxBurned, \"ERR_F\"); // Check that the amount + the number already burned does not exceed the maximum amount to burn\r\n\t\t_burn(msg.sender, amount);\r\n\r\n\t\ttokenBurned += amount;\r\n\r\n\t\temit $MedalBurned(msg.sender, amount);\r\n\t}\r\n}\r\n\r\n\r\n",
  "sourcePath": "C:\\DEV\\ETH\\Alyra\\MedalVerse\\MedalVerse-Front\\contracts\\Medal.sol",
  "compiler": {
    "name": "solc",
    "version": "0.8.0+commit.c7dfd78e.Emscripten.clang"
  },
  "schemaVersion": "3.4.4",
  "updatedAt": "2022-01-14T21:04:31.046Z",
  "networkType": "ethereum",
  "devdoc": {
    "kind": "dev",
    "methods": {
      "allowance(address,address)": {
        "details": "See {IERC20-allowance}."
      },
      "approve(address,uint256)": {
        "details": "See {IERC20-approve}. Requirements: - `spender` cannot be the zero address."
      },
      "balanceOf(address)": {
        "details": "See {IERC20-balanceOf}."
      },
      "burn(uint256)": {
        "details": "Burn the indicated amount of token",
        "params": {
          "amount": "Amount to burn"
        }
      },
      "decimals()": {
        "details": "Returns the number of decimals used to get its user representation. For example, if `decimals` equals `2`, a balance of `505` tokens should be displayed to a user as `5.05` (`505 / 10 ** 2`). Tokens usually opt for a value of 18, imitating the relationship between Ether and Wei. This is the value {ERC20} uses, unless this function is overridden; NOTE: This information is only used for _display_ purposes: it in no way affects any of the arithmetic of the contract, including {IERC20-balanceOf} and {IERC20-transfer}."
      },
      "decreaseAllowance(address,uint256)": {
        "details": "Atomically decreases the allowance granted to `spender` by the caller. This is an alternative to {approve} that can be used as a mitigation for problems described in {IERC20-approve}. Emits an {Approval} event indicating the updated allowance. Requirements: - `spender` cannot be the zero address. - `spender` must have allowance for the caller of at least `subtractedValue`."
      },
      "getTokenBurned()": {
        "details": "indicated the already burn token number",
        "returns": {
          "_0": "Burn token Number"
        }
      },
      "increaseAllowance(address,uint256)": {
        "details": "Atomically increases the allowance granted to `spender` by the caller. This is an alternative to {approve} that can be used as a mitigation for problems described in {IERC20-approve}. Emits an {Approval} event indicating the updated allowance. Requirements: - `spender` cannot be the zero address."
      },
      "name()": {
        "details": "Returns the name of the token."
      },
      "owner()": {
        "details": "Returns the address of the current owner."
      },
      "renounceOwnership()": {
        "details": "Leaves the contract without owner. It will not be possible to call `onlyOwner` functions anymore. Can only be called by the current owner. NOTE: Renouncing ownership will leave the contract without an owner, thereby removing any functionality that is only available to the owner."
      },
      "symbol()": {
        "details": "Returns the symbol of the token, usually a shorter version of the name."
      },
      "totalSupply()": {
        "details": "See {IERC20-totalSupply}."
      },
      "transfer(address,uint256)": {
        "details": "See {IERC20-transfer}. Requirements: - `recipient` cannot be the zero address. - the caller must have a balance of at least `amount`."
      },
      "transferFrom(address,address,uint256)": {
        "details": "See {IERC20-transferFrom}. Emits an {Approval} event indicating the updated allowance. This is not required by the EIP. See the note at the beginning of {ERC20}. Requirements: - `sender` and `recipient` cannot be the zero address. - `sender` must have a balance of at least `amount`. - the caller must have allowance for ``sender``'s tokens of at least `amount`."
      },
      "transferOwnership(address)": {
        "details": "Transfers ownership of the contract to a new account (`newOwner`). Can only be called by the current owner."
      }
    },
    "version": 1
  },
  "userdoc": {
    "kind": "user",
    "methods": {},
    "version": 1
  }
}