{
  "contractName": "MedalVerse",
  "abi": [
    {
      "anonymous": false,
      "inputs": [
        {
          "indexed": false,
          "internalType": "address",
          "name": "usrAddr",
          "type": "address"
        },
        {
          "indexed": false,
          "internalType": "uint256",
          "name": "indx",
          "type": "uint256"
        }
      ],
      "name": "AuthorAdded",
      "type": "event"
    },
    {
      "anonymous": false,
      "inputs": [
        {
          "indexed": false,
          "internalType": "address",
          "name": "usrAddr",
          "type": "address"
        },
        {
          "indexed": false,
          "internalType": "uint256",
          "name": "indx",
          "type": "uint256"
        }
      ],
      "name": "CreationAdded",
      "type": "event"
    },
    {
      "anonymous": false,
      "inputs": [
        {
          "indexed": false,
          "internalType": "uint256",
          "name": "medalID",
          "type": "uint256"
        },
        {
          "indexed": false,
          "internalType": "uint256",
          "name": "eventID",
          "type": "uint256"
        }
      ],
      "name": "MedalAdded",
      "type": "event"
    },
    {
      "anonymous": false,
      "inputs": [
        {
          "indexed": false,
          "internalType": "address",
          "name": "_user",
          "type": "address"
        },
        {
          "indexed": false,
          "internalType": "uint256",
          "name": "indx",
          "type": "uint256"
        }
      ],
      "name": "OganizationAdded",
      "type": "event"
    },
    {
      "anonymous": false,
      "inputs": [
        {
          "indexed": false,
          "internalType": "address",
          "name": "_user",
          "type": "address"
        },
        {
          "indexed": false,
          "internalType": "uint256",
          "name": "indx",
          "type": "uint256"
        }
      ],
      "name": "OrganizerAdded",
      "type": "event"
    },
    {
      "anonymous": false,
      "inputs": [
        {
          "indexed": true,
          "internalType": "address",
          "name": "previousOwner",
          "type": "address"
        },
        {
          "indexed": true,
          "internalType": "address",
          "name": "newOwner",
          "type": "address"
        }
      ],
      "name": "OwnershipTransferred",
      "type": "event"
    },
    {
      "anonymous": false,
      "inputs": [
        {
          "indexed": false,
          "internalType": "address",
          "name": "usrAddr",
          "type": "address"
        },
        {
          "indexed": false,
          "internalType": "uint256",
          "name": "indx",
          "type": "uint256"
        }
      ],
      "name": "UserAdded",
      "type": "event"
    },
    {
      "anonymous": false,
      "inputs": [
        {
          "indexed": false,
          "internalType": "uint256",
          "name": "eventId",
          "type": "uint256"
        }
      ],
      "name": "eventAdded",
      "type": "event"
    },
    {
      "anonymous": false,
      "inputs": [
        {
          "indexed": false,
          "internalType": "uint256",
          "name": "eventId",
          "type": "uint256"
        },
        {
          "indexed": false,
          "internalType": "address",
          "name": "sportsmanId",
          "type": "address"
        }
      ],
      "name": "eventRegisterSportsman",
      "type": "event"
    },
    {
      "anonymous": false,
      "inputs": [
        {
          "indexed": false,
          "internalType": "uint256",
          "name": "eventId",
          "type": "uint256"
        }
      ],
      "name": "eventRemoved",
      "type": "event"
    },
    {
      "anonymous": false,
      "inputs": [
        {
          "indexed": false,
          "internalType": "address",
          "name": "usrAddr",
          "type": "address"
        }
      ],
      "name": "sportsmanAdded",
      "type": "event"
    },
    {
      "anonymous": false,
      "inputs": [
        {
          "indexed": false,
          "internalType": "address",
          "name": "sportsmanId",
          "type": "address"
        },
        {
          "indexed": false,
          "internalType": "uint256",
          "name": "medalID",
          "type": "uint256"
        }
      ],
      "name": "sportsmanMedalAdded",
      "type": "event"
    },
    {
      "anonymous": false,
      "inputs": [
        {
          "indexed": false,
          "internalType": "address",
          "name": "usrAddr",
          "type": "address"
        },
        {
          "indexed": false,
          "internalType": "uint256",
          "name": "eventID",
          "type": "uint256"
        }
      ],
      "name": "sportsmanRegisterdEvent",
      "type": "event"
    },
    {
      "anonymous": false,
      "inputs": [
        {
          "indexed": false,
          "internalType": "address",
          "name": "usrAddr",
          "type": "address"
        },
        {
          "indexed": false,
          "internalType": "uint256",
          "name": "eventID",
          "type": "uint256"
        }
      ],
      "name": "sportsmanUnregisterdEvent",
      "type": "event"
    },
    {
      "inputs": [
        {
          "internalType": "address",
          "name": "_user",
          "type": "address"
        },
        {
          "internalType": "uint256",
          "name": "_price",
          "type": "uint256"
        },
        {
          "internalType": "uint256",
          "name": "_sportCategory",
          "type": "uint256"
        },
        {
          "internalType": "string",
          "name": "_description",
          "type": "string"
        },
        {
          "internalType": "string",
          "name": "_URI",
          "type": "string"
        }
      ],
      "name": "addCreation",
      "outputs": [],
      "stateMutability": "nonpayable",
      "type": "function"
    },
    {
      "inputs": [
        {
          "internalType": "uint256",
          "name": "_organizedBy",
          "type": "uint256"
        },
        {
          "internalType": "uint256",
          "name": "_startDate",
          "type": "uint256"
        },
        {
          "internalType": "uint256",
          "name": "_endDate",
          "type": "uint256"
        },
        {
          "internalType": "uint256",
          "name": "_sportCategory",
          "type": "uint256"
        }
      ],
      "name": "addEvent",
      "outputs": [
        {
          "internalType": "uint256",
          "name": "",
          "type": "uint256"
        }
      ],
      "stateMutability": "nonpayable",
      "type": "function"
    },
    {
      "inputs": [
        {
          "internalType": "address",
          "name": "_user",
          "type": "address"
        },
        {
          "internalType": "string",
          "name": "_name",
          "type": "string"
        },
        {
          "internalType": "string",
          "name": "_description",
          "type": "string"
        },
        {
          "internalType": "string",
          "name": "_logoURI",
          "type": "string"
        }
      ],
      "name": "addOrganization",
      "outputs": [],
      "stateMutability": "nonpayable",
      "type": "function"
    },
    {
      "inputs": [
        {
          "internalType": "uint256",
          "name": "_creationId",
          "type": "uint256"
        },
        {
          "internalType": "address",
          "name": "_NFT",
          "type": "address"
        }
      ],
      "name": "affectNFTtoCreation",
      "outputs": [],
      "stateMutability": "nonpayable",
      "type": "function"
    },
    {
      "inputs": [
        {
          "internalType": "uint256",
          "name": "",
          "type": "uint256"
        }
      ],
      "name": "allCreations",
      "outputs": [
        {
          "internalType": "uint256",
          "name": "price",
          "type": "uint256"
        },
        {
          "internalType": "uint256",
          "name": "creationId",
          "type": "uint256"
        },
        {
          "internalType": "uint256",
          "name": "sportCategory",
          "type": "uint256"
        },
        {
          "internalType": "address",
          "name": "author",
          "type": "address"
        },
        {
          "internalType": "address",
          "name": "NFT_Bkg_Adr",
          "type": "address"
        },
        {
          "internalType": "string",
          "name": "description",
          "type": "string"
        },
        {
          "internalType": "string",
          "name": "URI",
          "type": "string"
        },
        {
          "internalType": "bool",
          "name": "activ",
          "type": "bool"
        }
      ],
      "stateMutability": "view",
      "type": "function",
      "constant": true
    },
    {
      "inputs": [
        {
          "internalType": "uint256",
          "name": "orgIndx",
          "type": "uint256"
        }
      ],
      "name": "checkorganizerisAdminOf",
      "outputs": [
        {
          "internalType": "bool",
          "name": "",
          "type": "bool"
        }
      ],
      "stateMutability": "view",
      "type": "function",
      "constant": true
    },
    {
      "inputs": [
        {
          "internalType": "uint256",
          "name": "organizer",
          "type": "uint256"
        },
        {
          "internalType": "uint256",
          "name": "orgIndx",
          "type": "uint256"
        }
      ],
      "name": "checkorganizerisAdminOf",
      "outputs": [
        {
          "internalType": "bool",
          "name": "",
          "type": "bool"
        }
      ],
      "stateMutability": "view",
      "type": "function",
      "constant": true
    },
    {
      "inputs": [
        {
          "internalType": "uint256",
          "name": "eventID",
          "type": "uint256"
        }
      ],
      "name": "eventGetMedal",
      "outputs": [
        {
          "internalType": "uint256",
          "name": "",
          "type": "uint256"
        }
      ],
      "stateMutability": "view",
      "type": "function",
      "constant": true
    },
    {
      "inputs": [
        {
          "internalType": "uint256",
          "name": "eventID",
          "type": "uint256"
        }
      ],
      "name": "eventHasMedal",
      "outputs": [
        {
          "internalType": "bool",
          "name": "",
          "type": "bool"
        }
      ],
      "stateMutability": "view",
      "type": "function",
      "constant": true
    },
    {
      "inputs": [
        {
          "internalType": "uint256",
          "name": "orgIndx",
          "type": "uint256"
        }
      ],
      "name": "getAdminList",
      "outputs": [
        {
          "internalType": "uint256[]",
          "name": "",
          "type": "uint256[]"
        }
      ],
      "stateMutability": "view",
      "type": "function",
      "constant": true
    },
    {
      "inputs": [
        {
          "internalType": "address",
          "name": "_user",
          "type": "address"
        }
      ],
      "name": "getAuthor",
      "outputs": [
        {
          "components": [
            {
              "internalType": "address",
              "name": "userAddress",
              "type": "address"
            },
            {
              "internalType": "uint256[]",
              "name": "creations",
              "type": "uint256[]"
            },
            {
              "internalType": "bool",
              "name": "activ",
              "type": "bool"
            }
          ],
          "internalType": "struct Author",
          "name": "",
          "type": "tuple"
        }
      ],
      "stateMutability": "view",
      "type": "function",
      "constant": true
    },
    {
      "inputs": [
        {
          "internalType": "address",
          "name": "_author",
          "type": "address"
        }
      ],
      "name": "getAuthorCreationsList",
      "outputs": [
        {
          "internalType": "uint256[]",
          "name": "",
          "type": "uint256[]"
        }
      ],
      "stateMutability": "view",
      "type": "function",
      "constant": true
    },
    {
      "inputs": [
        {
          "internalType": "uint256",
          "name": "_start",
          "type": "uint256"
        },
        {
          "internalType": "uint256",
          "name": "_end",
          "type": "uint256"
        }
      ],
      "name": "getCreationList",
      "outputs": [
        {
          "components": [
            {
              "internalType": "uint256",
              "name": "price",
              "type": "uint256"
            },
            {
              "internalType": "uint256",
              "name": "creationId",
              "type": "uint256"
            },
            {
              "internalType": "uint256",
              "name": "sportCategory",
              "type": "uint256"
            },
            {
              "internalType": "address",
              "name": "author",
              "type": "address"
            },
            {
              "internalType": "address",
              "name": "NFT_Bkg_Adr",
              "type": "address"
            },
            {
              "internalType": "string",
              "name": "description",
              "type": "string"
            },
            {
              "internalType": "string",
              "name": "URI",
              "type": "string"
            },
            {
              "internalType": "bool",
              "name": "activ",
              "type": "bool"
            }
          ],
          "internalType": "struct NFT_Medal_Bkg_Desc[]",
          "name": "",
          "type": "tuple[]"
        }
      ],
      "stateMutability": "view",
      "type": "function",
      "constant": true
    },
    {
      "inputs": [
        {
          "internalType": "uint256",
          "name": "eventId",
          "type": "uint256"
        }
      ],
      "name": "getEvent",
      "outputs": [
        {
          "components": [
            {
              "internalType": "uint256",
              "name": "eventId",
              "type": "uint256"
            },
            {
              "internalType": "uint256",
              "name": "sportCategory",
              "type": "uint256"
            },
            {
              "internalType": "uint256",
              "name": "organizedBy",
              "type": "uint256"
            },
            {
              "internalType": "address[]",
              "name": "registeredSportsMan",
              "type": "address[]"
            },
            {
              "internalType": "address",
              "name": "winner",
              "type": "address"
            },
            {
              "internalType": "uint256",
              "name": "startDate",
              "type": "uint256"
            },
            {
              "internalType": "uint256",
              "name": "endDate",
              "type": "uint256"
            },
            {
              "internalType": "uint256",
              "name": "medalID",
              "type": "uint256"
            },
            {
              "internalType": "bool",
              "name": "hasMedal",
              "type": "bool"
            },
            {
              "internalType": "bool",
              "name": "activ",
              "type": "bool"
            },
            {
              "internalType": "bool",
              "name": "ended",
              "type": "bool"
            },
            {
              "internalType": "bool",
              "name": "started",
              "type": "bool"
            }
          ],
          "internalType": "struct EventHandler.EventDesc",
          "name": "",
          "type": "tuple"
        }
      ],
      "stateMutability": "view",
      "type": "function",
      "constant": true
    },
    {
      "inputs": [],
      "name": "getEventCount",
      "outputs": [
        {
          "internalType": "uint256",
          "name": "",
          "type": "uint256"
        }
      ],
      "stateMutability": "view",
      "type": "function",
      "constant": true
    },
    {
      "inputs": [
        {
          "internalType": "uint256",
          "name": "_start",
          "type": "uint256"
        },
        {
          "internalType": "uint256",
          "name": "_end",
          "type": "uint256"
        }
      ],
      "name": "getEventList",
      "outputs": [
        {
          "components": [
            {
              "internalType": "uint256",
              "name": "eventId",
              "type": "uint256"
            },
            {
              "internalType": "uint256",
              "name": "sportCategory",
              "type": "uint256"
            },
            {
              "internalType": "uint256",
              "name": "organizedBy",
              "type": "uint256"
            },
            {
              "internalType": "address[]",
              "name": "registeredSportsMan",
              "type": "address[]"
            },
            {
              "internalType": "address",
              "name": "winner",
              "type": "address"
            },
            {
              "internalType": "uint256",
              "name": "startDate",
              "type": "uint256"
            },
            {
              "internalType": "uint256",
              "name": "endDate",
              "type": "uint256"
            },
            {
              "internalType": "uint256",
              "name": "medalID",
              "type": "uint256"
            },
            {
              "internalType": "bool",
              "name": "hasMedal",
              "type": "bool"
            },
            {
              "internalType": "bool",
              "name": "activ",
              "type": "bool"
            },
            {
              "internalType": "bool",
              "name": "ended",
              "type": "bool"
            },
            {
              "internalType": "bool",
              "name": "started",
              "type": "bool"
            }
          ],
          "internalType": "struct EventHandler.EventDesc[]",
          "name": "",
          "type": "tuple[]"
        }
      ],
      "stateMutability": "view",
      "type": "function",
      "constant": true
    },
    {
      "inputs": [
        {
          "internalType": "uint256",
          "name": "orgId",
          "type": "uint256"
        }
      ],
      "name": "getEventList",
      "outputs": [
        {
          "internalType": "uint256[]",
          "name": "",
          "type": "uint256[]"
        }
      ],
      "stateMutability": "view",
      "type": "function",
      "constant": true
    },
    {
      "inputs": [
        {
          "internalType": "uint256",
          "name": "medalID",
          "type": "uint256"
        }
      ],
      "name": "getMedal",
      "outputs": [
        {
          "components": [
            {
              "internalType": "address",
              "name": "throwIn",
              "type": "address"
            },
            {
              "internalType": "address",
              "name": "winner",
              "type": "address"
            },
            {
              "internalType": "uint256",
              "name": "organizationID",
              "type": "uint256"
            },
            {
              "internalType": "uint256",
              "name": "eventID",
              "type": "uint256"
            },
            {
              "internalType": "bool",
              "name": "isInWinnerGallery",
              "type": "bool"
            }
          ],
          "internalType": "struct Medal",
          "name": "",
          "type": "tuple"
        }
      ],
      "stateMutability": "view",
      "type": "function",
      "constant": true
    },
    {
      "inputs": [],
      "name": "getMedalCount",
      "outputs": [
        {
          "internalType": "uint256",
          "name": "",
          "type": "uint256"
        }
      ],
      "stateMutability": "view",
      "type": "function",
      "constant": true
    },
    {
      "inputs": [],
      "name": "getNumberOfSportsman",
      "outputs": [
        {
          "internalType": "uint256",
          "name": "",
          "type": "uint256"
        }
      ],
      "stateMutability": "view",
      "type": "function",
      "constant": true
    },
    {
      "inputs": [],
      "name": "getOrganisationCount",
      "outputs": [
        {
          "internalType": "uint256",
          "name": "",
          "type": "uint256"
        }
      ],
      "stateMutability": "view",
      "type": "function",
      "constant": true
    },
    {
      "inputs": [
        {
          "internalType": "uint256",
          "name": "orgID",
          "type": "uint256"
        }
      ],
      "name": "getOrganizationName",
      "outputs": [
        {
          "internalType": "string",
          "name": "",
          "type": "string"
        }
      ],
      "stateMutability": "view",
      "type": "function",
      "constant": true
    },
    {
      "inputs": [
        {
          "internalType": "uint256",
          "name": "_start",
          "type": "uint256"
        },
        {
          "internalType": "uint256",
          "name": "_end",
          "type": "uint256"
        }
      ],
      "name": "getOrganizationsList",
      "outputs": [
        {
          "components": [
            {
              "internalType": "string",
              "name": "name",
              "type": "string"
            },
            {
              "internalType": "string",
              "name": "description",
              "type": "string"
            },
            {
              "internalType": "string",
              "name": "logoURI",
              "type": "string"
            },
            {
              "internalType": "bool",
              "name": "activ",
              "type": "bool"
            }
          ],
          "internalType": "struct OrganizerHandler.organizationDesc[]",
          "name": "",
          "type": "tuple[]"
        }
      ],
      "stateMutability": "view",
      "type": "function",
      "constant": true
    },
    {
      "inputs": [
        {
          "internalType": "uint256",
          "name": "id",
          "type": "uint256"
        }
      ],
      "name": "getOrganizerAddressById",
      "outputs": [
        {
          "internalType": "address",
          "name": "",
          "type": "address"
        }
      ],
      "stateMutability": "view",
      "type": "function",
      "constant": true
    },
    {
      "inputs": [
        {
          "internalType": "address",
          "name": "_user",
          "type": "address"
        }
      ],
      "name": "getOrganizerOrganisationList",
      "outputs": [
        {
          "internalType": "uint256[]",
          "name": "",
          "type": "uint256[]"
        }
      ],
      "stateMutability": "view",
      "type": "function",
      "constant": true
    },
    {
      "inputs": [
        {
          "internalType": "address",
          "name": "sportsmanId",
          "type": "address"
        }
      ],
      "name": "getSportsManEventsNumber",
      "outputs": [
        {
          "internalType": "uint256",
          "name": "",
          "type": "uint256"
        }
      ],
      "stateMutability": "view",
      "type": "function",
      "constant": true
    },
    {
      "inputs": [
        {
          "internalType": "address",
          "name": "sportsmanId",
          "type": "address"
        }
      ],
      "name": "getSportsmanEventsSubscriptions",
      "outputs": [
        {
          "internalType": "uint256[]",
          "name": "",
          "type": "uint256[]"
        }
      ],
      "stateMutability": "view",
      "type": "function",
      "constant": true
    },
    {
      "inputs": [
        {
          "internalType": "uint256",
          "name": "_start",
          "type": "uint256"
        },
        {
          "internalType": "uint256",
          "name": "_end",
          "type": "uint256"
        }
      ],
      "name": "getSportsmanList",
      "outputs": [
        {
          "components": [
            {
              "internalType": "address",
              "name": "userAddress",
              "type": "address"
            },
            {
              "internalType": "uint256",
              "name": "sportCategory",
              "type": "uint256"
            },
            {
              "internalType": "uint256",
              "name": "nbActivSubscriptions",
              "type": "uint256"
            },
            {
              "internalType": "bool",
              "name": "activ",
              "type": "bool"
            }
          ],
          "internalType": "struct SportsmanHandler.SportsmanDesc[]",
          "name": "",
          "type": "tuple[]"
        }
      ],
      "stateMutability": "view",
      "type": "function",
      "constant": true
    },
    {
      "inputs": [
        {
          "internalType": "address",
          "name": "sportsmanId",
          "type": "address"
        },
        {
          "internalType": "uint256",
          "name": "indx",
          "type": "uint256"
        }
      ],
      "name": "getSportsmanMedal",
      "outputs": [
        {
          "internalType": "uint256",
          "name": "",
          "type": "uint256"
        }
      ],
      "stateMutability": "view",
      "type": "function",
      "constant": true
    },
    {
      "inputs": [
        {
          "internalType": "address",
          "name": "sportsmanId",
          "type": "address"
        }
      ],
      "name": "getSportsmanMedalCount",
      "outputs": [
        {
          "internalType": "uint256",
          "name": "",
          "type": "uint256"
        }
      ],
      "stateMutability": "view",
      "type": "function",
      "constant": true
    },
    {
      "inputs": [
        {
          "internalType": "address",
          "name": "sportsmanId",
          "type": "address"
        }
      ],
      "name": "getSportsmanMedalList",
      "outputs": [
        {
          "internalType": "uint256[]",
          "name": "",
          "type": "uint256[]"
        }
      ],
      "stateMutability": "view",
      "type": "function",
      "constant": true
    },
    {
      "inputs": [],
      "name": "getUserCount",
      "outputs": [
        {
          "internalType": "uint256",
          "name": "",
          "type": "uint256"
        }
      ],
      "stateMutability": "view",
      "type": "function",
      "constant": true
    },
    {
      "inputs": [
        {
          "internalType": "address",
          "name": "_userAdr",
          "type": "address"
        }
      ],
      "name": "getUserDetails",
      "outputs": [
        {
          "components": [
            {
              "internalType": "string",
              "name": "iconURI",
              "type": "string"
            },
            {
              "internalType": "string",
              "name": "userName",
              "type": "string"
            },
            {
              "internalType": "string",
              "name": "email",
              "type": "string"
            },
            {
              "internalType": "uint8",
              "name": "role",
              "type": "uint8"
            },
            {
              "internalType": "bool",
              "name": "activ",
              "type": "bool"
            }
          ],
          "internalType": "struct User",
          "name": "",
          "type": "tuple"
        }
      ],
      "stateMutability": "view",
      "type": "function",
      "constant": true
    },
    {
      "inputs": [
        {
          "internalType": "uint256",
          "name": "eventId",
          "type": "uint256"
        }
      ],
      "name": "getWinner",
      "outputs": [
        {
          "internalType": "address",
          "name": "",
          "type": "address"
        }
      ],
      "stateMutability": "view",
      "type": "function",
      "constant": true
    },
    {
      "inputs": [
        {
          "internalType": "uint256",
          "name": "orgId",
          "type": "uint256"
        },
        {
          "internalType": "address",
          "name": "_user",
          "type": "address"
        }
      ],
      "name": "organizationAddAdmin",
      "outputs": [],
      "stateMutability": "nonpayable",
      "type": "function"
    },
    {
      "inputs": [],
      "name": "owner",
      "outputs": [
        {
          "internalType": "address",
          "name": "",
          "type": "address"
        }
      ],
      "stateMutability": "view",
      "type": "function",
      "constant": true
    },
    {
      "inputs": [
        {
          "internalType": "uint256",
          "name": "",
          "type": "uint256"
        }
      ],
      "name": "registeredAuthors",
      "outputs": [
        {
          "internalType": "address",
          "name": "",
          "type": "address"
        }
      ],
      "stateMutability": "view",
      "type": "function",
      "constant": true
    },
    {
      "inputs": [
        {
          "internalType": "uint256",
          "name": "",
          "type": "uint256"
        }
      ],
      "name": "registeredSportsman",
      "outputs": [
        {
          "internalType": "address",
          "name": "",
          "type": "address"
        }
      ],
      "stateMutability": "view",
      "type": "function",
      "constant": true
    },
    {
      "inputs": [
        {
          "internalType": "uint256",
          "name": "",
          "type": "uint256"
        }
      ],
      "name": "registeredUsers",
      "outputs": [
        {
          "internalType": "address",
          "name": "",
          "type": "address"
        }
      ],
      "stateMutability": "view",
      "type": "function",
      "constant": true
    },
    {
      "inputs": [],
      "name": "renounceOwnership",
      "outputs": [],
      "stateMutability": "nonpayable",
      "type": "function"
    },
    {
      "inputs": [
        {
          "internalType": "address",
          "name": "sportsmanId",
          "type": "address"
        },
        {
          "internalType": "uint256",
          "name": "medalID",
          "type": "uint256"
        }
      ],
      "name": "sportsmanAddMedal",
      "outputs": [],
      "stateMutability": "nonpayable",
      "type": "function"
    },
    {
      "inputs": [
        {
          "internalType": "address",
          "name": "newOwner",
          "type": "address"
        }
      ],
      "name": "transferOwnership",
      "outputs": [],
      "stateMutability": "nonpayable",
      "type": "function"
    },
    {
      "inputs": [
        {
          "internalType": "address",
          "name": "_userAddress",
          "type": "address"
        },
        {
          "internalType": "string",
          "name": "_iconURI",
          "type": "string"
        },
        {
          "internalType": "string",
          "name": "_userName",
          "type": "string"
        },
        {
          "internalType": "string",
          "name": "_email",
          "type": "string"
        },
        {
          "internalType": "uint8",
          "name": "_role",
          "type": "uint8"
        },
        {
          "internalType": "uint256",
          "name": "_sportsCategory",
          "type": "uint256"
        }
      ],
      "name": "addNewUser",
      "outputs": [],
      "stateMutability": "nonpayable",
      "type": "function"
    },
    {
      "inputs": [
        {
          "internalType": "address",
          "name": "_userAddress",
          "type": "address"
        },
        {
          "internalType": "uint256",
          "name": "eventid",
          "type": "uint256"
        }
      ],
      "name": "LinkUserAndEvent",
      "outputs": [],
      "stateMutability": "nonpayable",
      "type": "function"
    },
    {
      "inputs": [
        {
          "internalType": "uint256",
          "name": "organizationId",
          "type": "uint256"
        },
        {
          "internalType": "uint256",
          "name": "startDate",
          "type": "uint256"
        },
        {
          "internalType": "uint256",
          "name": "endDate",
          "type": "uint256"
        },
        {
          "internalType": "uint256",
          "name": "sportsCategory",
          "type": "uint256"
        }
      ],
      "name": "newEvent",
      "outputs": [],
      "stateMutability": "nonpayable",
      "type": "function"
    },
    {
      "inputs": [
        {
          "internalType": "uint256",
          "name": "eventID",
          "type": "uint256"
        }
      ],
      "name": "adminStartEvent",
      "outputs": [],
      "stateMutability": "nonpayable",
      "type": "function"
    },
    {
      "inputs": [
        {
          "internalType": "uint256",
          "name": "eventID",
          "type": "uint256"
        }
      ],
      "name": "adminEndEvent",
      "outputs": [],
      "stateMutability": "nonpayable",
      "type": "function"
    },
    {
      "inputs": [
        {
          "internalType": "uint256",
          "name": "eventID",
          "type": "uint256"
        },
        {
          "internalType": "address",
          "name": "winner",
          "type": "address"
        }
      ],
      "name": "adminSetWinner",
      "outputs": [],
      "stateMutability": "nonpayable",
      "type": "function"
    },
    {
      "inputs": [
        {
          "internalType": "uint256",
          "name": "eventID",
          "type": "uint256"
        },
        {
          "internalType": "address",
          "name": "_nft",
          "type": "address"
        }
      ],
      "name": "adminAddMedal",
      "outputs": [],
      "stateMutability": "nonpayable",
      "type": "function"
    },
    {
      "inputs": [
        {
          "internalType": "uint256",
          "name": "medalIndx",
          "type": "uint256"
        },
        {
          "internalType": "bool",
          "name": "status",
          "type": "bool"
        }
      ],
      "name": "publishMedal",
      "outputs": [],
      "stateMutability": "nonpayable",
      "type": "function"
    }
  ],
  "bytecode": "0x60806040523480156200001157600080fd5b5062000026620000206200002c565b62000030565b62000080565b3390565b600080546001600160a01b038381166001600160a01b0319831681178455604051919092169283917f8be0079c531659141344cd1fd0a4f28419497f9722a3daafe3b4186f6b6457e09190a35050565b614b0480620000906000396000f3fe608060405234801561001057600080fd5b50600436106102d65760003560e01c80639847587a11610182578063d7bc151a116100e9578063f2fde38b116100a2578063fbcbd0671161007c578063fbcbd067146106a6578063fbf5f199146106b9578063fd395fc5146106cc578063fe4363a3146106ec576102d6565b8063f2fde38b1461066d578063f5ad8cda14610680578063fb87aa4214610693576102d6565b8063d7bc151a14610606578063d9e48f5c14610619578063e1c2831614610621578063e56afc7514610634578063eebd127414610647578063f022f3551461065a576102d6565b8063c46f05b91161013b578063c46f05b914610585578063c888724914610598578063cc3d967b146105b8578063cd284f65146105d8578063ce7c5d9d146105eb578063d4a0e8ad146105f3576102d6565b80639847587a1461051c578063ad9704631461052f578063ade03dbf14610542578063b082b9c714610555578063b5cb15f71461055d578063b700389f14610565576102d6565b80636ccf16b011610241578063826226bf116101fa5780638da5cb5b116101d45780638da5cb5b146104db5780638ed1891d146104e35780639107e879146104f657806391850ab314610509576102d6565b8063826226bf1461049557806384506a06146104b557806388c3f26f146104c8576102d6565b80636ccf16b01461042c5780636d1884e01461043f578063715018a61461045f5780637259e0f81461046757806375bb71741461047a5780637990b36714610482576102d6565b80633da21e3a116102935780633da21e3a1461038c5780634129b2c91461039f5780634dbc196c146103bf5780635336abb5146103d257806354abd15f146103f95780635b4c4b201461040c576102d6565b80630ab30093146102db5780630d4f284a146103045780632bd0e1cc1461031957806335d3339e1461033957806338caac65146103595780633a6526fb14610379575b600080fd5b6102ee6102e9366004613e72565b61070c565b6040516102fb9190614855565b60405180910390f35b610317610312366004613fd8565b6107c4565b005b61032c610327366004613e72565b6107f1565b6040516102fb919061455e565b61034c6103473660046140fc565b610861565b6040516102fb919061430f565b61036c610367366004614086565b610ab9565b6040516102fb9190614971565b61036c610387366004613e72565b610b02565b61036c61039a366004613fd8565b610b21565b6103b26103ad366004614086565b610bab565b6040516102fb91906142e2565b6103b26103cd366004614086565b610bf2565b6103e56103e0366004614086565b610c1c565b6040516102fb98979695949392919061499f565b61031761040736600461409e565b610d94565b61041f61041a366004614086565b610e51565b6040516102fb919061457c565b61032c61043a366004614086565b610f2d565b61045261044d366004614086565b610fba565b6040516102fb919061489b565b6103176110eb565b6103b2610475366004614086565b611136565b61036c611146565b6103b2610490366004614086565b61114c565b6104a86104a3366004614086565b61115c565b6040516102fb9190614571565b61036c6104c336600461411d565b61119a565b6103176104d6366004613fd8565b611251565b6103b26112be565b6103176104f1366004614086565b6112cd565b61032c610504366004613e72565b611309565b61032c610517366004613e72565b6113b4565b61036c61052a366004613e72565b6115d5565b61031761053d366004614001565b61160b565b6103176105503660046140c9565b611828565b61036c611840565b61036c611846565b610578610573366004614086565b61184c565b6040516102fb91906148ae565b61032c610593366004614086565b6118fc565b6105ab6105a63660046140fc565b611ab9565b6040516102fb919061436f565b6105cb6105c6366004613e72565b611ee2565b6040516102fb91906148f3565b6103176105e636600461409e565b6120fc565b61036c6121ab565b610317610601366004614086565b6121b1565b61031761061436600461409e565b6121ed565b61036c61224e565b61031761062f36600461411d565b612254565b61031761064236600461409e565b6122ca565b61032c610655366004613e72565b612418565b6104a8610668366004614086565b61257a565b61031761067b366004613e72565b6125c7565b61031761068e366004613f21565b612638565b6103b26106a1366004614086565b6126d5565b6103176106b4366004613e8c565b61272c565b6104a86106c73660046140fc565b612869565b6106df6106da3660046140fc565b612977565b6040516102fb9190614452565b6106ff6106fa3660046140fc565b612b23565b6040516102fb91906144c1565b610714613b8b565b816001600160a01b03811661072857600080fd5b6001600160a01b038084166000908152600360209081526040918290208251606081018452815490941684526001810180548451818502810185019095528085529193858401939092908301828280156107a157602002820191906000526020600020905b81548152602001906001019080831161078d575b50505091835250506002919091015460ff16151560209091015291505b50919050565b816001600160a01b0381166107d857600080fd5b6107e28284612ecc565b6107ec8383612f78565b505050565b6001600160a01b03811660009081526006602081815260409283902090910180548351818402810184019094528084526060939283018282801561085457602002820191906000526020600020905b815481526020019060010190808311610840575b505050505090505b919050565b6060600954806000141561087457600080fd5b838061087f57600080fd5b8461088981614a3b565b955050838061089790614a3b565b945050838511156108a757600080fd5b60095485106108d15760405162461bcd60e51b81526004016108c890614725565b60405180910390fd5b60095484106108ec5760016009546108e99190614a24565b93505b60006108f88686614a24565b610903906001614a0c565b67ffffffffffffffff81111561092957634e487b7160e01b600052604160045260246000fd5b60405190808252806020026020018201604052801561096257816020015b61094f613bb7565b8152602001906001900390816109475790505b509050855b858111610aaf576000818152600860209081526040918290208251610180810184528154815260018201548184015260028201548185015260038201805485518186028101860190965280865291949293606086019392908301828280156109f857602002820191906000526020600020905b81546001600160a01b031681526001909101906020018083116109da575b505050918352505060048201546001600160a01b0316602082015260058201546040820152600682015460608201526007820154608082015260089091015460ff808216151560a08401526101008083048216151560c08501526201000083048216151560e085015263010000009092041615159101528251839083908110610a9157634e487b7160e01b600052603260045260246000fd5b60200260200101819052508080610aa790614a87565b915050610967565b5095945050505050565b60008160095480821115610acc57600080fd5b8380610ad757600080fd5b60086000610ae6600188614a24565b8152602001908152602001600020600701549350505050919050565b6001600160a01b03166000908152600660208190526040909120015490565b6001600160a01b0382166000908152600660208190526040822001548210610b5b5760405162461bcd60e51b81526004016108c890614643565b6001600160a01b038316600090815260066020819052604090912001805483908110610b9757634e487b7160e01b600052603260045260246000fd5b906000526020600020015490505b92915050565b60008160095480821115610bbe57600080fd5b60086000610bcd600187614a24565b81526020810191909152604001600020600401546001600160a01b0316949350505050565b60078181548110610c0257600080fd5b6000918252602090912001546001600160a01b0316905081565b60058181548110610c2c57600080fd5b6000918252602090912060089091020180546001820154600283015460038401546004850154600586018054959750939592946001600160a01b0392831694919092169291610c7a90614a52565b80601f0160208091040260200160405190810160405280929190818152602001828054610ca690614a52565b8015610cf35780601f10610cc857610100808354040283529160200191610cf3565b820191906000526020600020905b815481529060010190602001808311610cd657829003601f168201915b505050505090806006018054610d0890614a52565b80601f0160208091040260200160405190810160405280929190818152602001828054610d3490614a52565b8015610d815780601f10610d5657610100808354040283529160200191610d81565b820191906000526020600020905b815481529060010190602001808311610d6457829003601f168201915b5050506007909301549192505060ff1688565b816000610da0826130ca565b9050610dab8161115c565b610dc75760405162461bcd60e51b81526004016108c8906147ba565b6000610dd285610bab565b90506001600160a01b038116610dfa5760405162461bcd60e51b81526004016108c8906146c4565b6000610e05866130ca565b9050610e12858288613113565b60006001610e1e6121ab565b610e289190614a24565b9050610e348184613293565b610e3e8782613312565b610e488382611251565b50505050505050565b600c546060908210610e755760405162461bcd60e51b81526004016108c8906147e5565b600c8281548110610e9657634e487b7160e01b600052603260045260246000fd5b90600052602060002090600602016002018054610eb290614a52565b80601f0160208091040260200160405190810160405280929190818152602001828054610ede90614a52565b80156108545780601f10610f0057610100808354040283529160200191610854565b820191906000526020600020905b815481529060010190602001808311610f0e5750939695505050505050565b60606000600c8381548110610f5257634e487b7160e01b600052603260045260246000fd5b9060005260206000209060060201600101805480602002602001604051908101604052809291908181526020018280548015610fad57602002820191906000526020600020905b815481526020019060010190808311610f99575b5093979650505050505050565b610fc2613bb7565b8180610fcd57600080fd5b60086000610fdc600186614a24565b8152602001908152602001600020604051806101800160405290816000820154815260200160018201548152602001600282015481526020016003820180548060200260200160405190810160405280929190818152602001828054801561106d57602002820191906000526020600020905b81546001600160a01b0316815260019091019060200180831161104f575b505050918352505060048201546001600160a01b0316602082015260058201546040820152600682015460608201526007820154608082015260089091015460ff808216151560a08401526101008083048216151560c08501526201000083048216151560e085015263010000009092041615159101529392505050565b6110f3613393565b6001600160a01b03166111046112be565b6001600160a01b03161461112a5760405162461bcd60e51b81526004016108c8906146f0565b6111346000613397565b565b60028181548110610c0257600080fd5b60075490565b60048181548110610c0257600080fd5b336000908152600b6020526040812054806111895760405162461bcd60e51b81526004016108c89061458f565b6111938184612869565b9392505050565b60098054600081815260086020819052604080832093845560028401899055600584018890556006840187905560018401869055908301805463ffff00001961ff0019909116610100171690556004830180546001600160a01b03191690559254925190927fb74b81e22ed2c551cf1d61041f3314bcb4dc74e133a311f76c5de475735b02649161122b9190614971565b60405180910390a16009805490600061124383614a87565b909155509695505050505050565b6001600160a01b038216600090815260066020818152604080842090920180546001810182559084529220909101829055517fa64a320168fc7af2fa4bb2a506ae4dbf56b81b4d25b5e88e668c13f8df90c852906112b290849084906142f6565b60405180910390a15050565b6000546001600160a01b031690565b8060006112d9826130ca565b90506112e48161115c565b6113005760405162461bcd60e51b81526004016108c8906147ba565b6107ec836133e7565b6060816001600160a01b03811661131f57600080fd5b6001600160a01b0383166000908152600360205260409020600101548061134557600080fd5b6001600160a01b038416600090815260036020908152604091829020600101805483518184028101840190945280845290918301828280156113a657602002820191906000526020600020905b815481526020019060010190808311611392575b505050505092505050919050565b6001600160a01b0381166000908152600b6020526040902054606090806113ed5760405162461bcd60e51b81526004016108c89061460c565b806113f781614a3b565b9150506000600a828154811061141d57634e487b7160e01b600052603260045260246000fd5b9060005260206000209060040201600201549050600081116114515760405162461bcd60e51b81526004016108c89061469b565b60008167ffffffffffffffff81111561147a57634e487b7160e01b600052604160045260246000fd5b6040519080825280602002602001820160405280156114a3578160200160208202803683370190505b5090506000805b600c548110156115ca576000600a86815481106114d757634e487b7160e01b600052603260045260246000fd5b9060005260206000209060040201600101828154811061150757634e487b7160e01b600052603260045260246000fd5b906000526020600020015411156115b8576001600a868154811061153b57634e487b7160e01b600052603260045260246000fd5b9060005260206000209060040201600101828154811061156b57634e487b7160e01b600052603260045260246000fd5b90600052602060002001546115809190614a24565b838361158b81614a87565b9450815181106115ab57634e487b7160e01b600052603260045260246000fd5b6020026020010181815250505b806115c281614a87565b9150506114aa565b509095945050505050565b6000816001600160a01b0381166115eb57600080fd5b50506001600160a01b031660009081526006602052604090206005015490565b611613613393565b6001600160a01b03166116246112be565b6001600160a01b03161461164a5760405162461bcd60e51b81526004016108c8906146f0565b846001600160a01b03811661165e57600080fd5b6001600160a01b0386166000908152600360205260409020600281015460ff1661169a5760405162461bcd60e51b81526004016108c890614811565b600580546001808201808455600084815260408051610100810182528c8152602081018690529081018b90526001600160a01b038d166060820152608081019190915260a0810189905260c0810188905260e0810192909252919290918390811061171557634e487b7160e01b600052603260045260246000fd5b600091825260209182902083516008909202019081558282015160018201556040830151600282015560608301516003820180546001600160a01b039283166001600160a01b031991821617909155608085015160048401805491909316911617905560a08301518051919261179392600585019290910190613c29565b5060c082015180516117af916006840191602090910190613c29565b5060e091909101516007909101805460ff1916911515919091179055600182810180549182018155600090815260209020018190556040517f6ebd5b45b68b36b036925496b54a9c90f49bdc2a23cf8fb9d7f92e13eb113c1590611816908a9084906142f6565b60405180910390a15050505050505050565b60006118343384610b21565b90506107ec8183613441565b600c5490565b60025490565b611854613cad565b600d54829081106118775760405162461bcd60e51b81526004016108c89061478c565b600d838154811061189857634e487b7160e01b600052603260045260246000fd5b60009182526020918290206040805160a081018252600590930290910180546001600160a01b039081168452600182015416938301939093526002830154908201526003820154606082015260049091015460ff1615156080820152915050919050565b600c54606090829080821061191057600080fd5b600061191b856134ad565b905060008167ffffffffffffffff81111561194657634e487b7160e01b600052604160045260246000fd5b60405190808252806020026020018201604052801561196f578160200160208202803683370190505b50905060005b600c878154811061199657634e487b7160e01b600052603260045260246000fd5b6000918252602090912060069091020154811015610aaf576000600c88815481106119d157634e487b7160e01b600052603260045260246000fd5b90600052602060002090600602016000018281548110611a0157634e487b7160e01b600052603260045260246000fd5b90600052602060002001541115611aa7576001600c8881548110611a3557634e487b7160e01b600052603260045260246000fd5b90600052602060002090600602016000018281548110611a6557634e487b7160e01b600052603260045260246000fd5b9060005260206000200154611a7a9190614a24565b828281518110611a9a57634e487b7160e01b600052603260045260246000fd5b6020026020010181815250505b80611ab181614a87565b915050611975565b60055460609080611ac957600080fd5b82841115611ad657600080fd5b6005548410611af75760405162461bcd60e51b81526004016108c890614725565b6005548310611b1257600554611b0f90600190614a24565b92505b6000611b1e8585614a24565b611b29906001614a0c565b67ffffffffffffffff811115611b4f57634e487b7160e01b600052604160045260246000fd5b604051908082528060200260200182016040528015611b8857816020015b611b75613cdb565b815260200190600190039081611b6d5790505b509050845b848111611ed95760405180610100016040528060058381548110611bc157634e487b7160e01b600052603260045260246000fd5b906000526020600020906008020160000154815260200160058381548110611bf957634e487b7160e01b600052603260045260246000fd5b906000526020600020906008020160010154815260200160058381548110611c3157634e487b7160e01b600052603260045260246000fd5b906000526020600020906008020160020154815260200160058381548110611c6957634e487b7160e01b600052603260045260246000fd5b6000918252602091829020600360089092020101546001600160a01b0316825260058054929091019184908110611cb057634e487b7160e01b600052603260045260246000fd5b6000918252602091829020600460089092020101546001600160a01b0316825260058054929091019184908110611cf757634e487b7160e01b600052603260045260246000fd5b90600052602060002090600802016005018054611d1390614a52565b80601f0160208091040260200160405190810160405280929190818152602001828054611d3f90614a52565b8015611d8c5780601f10611d6157610100808354040283529160200191611d8c565b820191906000526020600020905b815481529060010190602001808311611d6f57829003601f168201915b5050505050815260200160058381548110611db757634e487b7160e01b600052603260045260246000fd5b90600052602060002090600802016006018054611dd390614a52565b80601f0160208091040260200160405190810160405280929190818152602001828054611dff90614a52565b8015611e4c5780601f10611e2157610100808354040283529160200191611e4c565b820191906000526020600020905b815481529060010190602001808311611e2f57829003601f168201915b5050505050815260200160058381548110611e7757634e487b7160e01b600052603260045260246000fd5b600091825260209091206007600890920201015460ff161515905282611e9d8884614a24565b81518110611ebb57634e487b7160e01b600052603260045260246000fd5b60200260200101819052508080611ed190614a87565b915050611b8d565b50949350505050565b611eea613d34565b816001600160a01b038116611efe57600080fd5b6001600160a01b03831660009081526001602052604090819020815160a08101909252805482908290611f3090614a52565b80601f0160208091040260200160405190810160405280929190818152602001828054611f5c90614a52565b8015611fa95780601f10611f7e57610100808354040283529160200191611fa9565b820191906000526020600020905b815481529060010190602001808311611f8c57829003601f168201915b50505050508152602001600182018054611fc290614a52565b80601f0160208091040260200160405190810160405280929190818152602001828054611fee90614a52565b801561203b5780601f106120105761010080835404028352916020019161203b565b820191906000526020600020905b81548152906001019060200180831161201e57829003601f168201915b5050505050815260200160028201805461205490614a52565b80601f016020809104026020016040519081016040528092919081815260200182805461208090614a52565b80156120cd5780601f106120a2576101008083540402835291602001916120cd565b820191906000526020600020905b8154815290600101906020018083116120b057829003601f168201915b50505091835250506003919091015460ff80821660208401526101009091041615156040909101529392505050565b612104613393565b6001600160a01b03166121156112be565b6001600160a01b03161461213b5760405162461bcd60e51b81526004016108c8906146f0565b806001600160a01b03811661214f57600080fd5b816005848154811061217157634e487b7160e01b600052603260045260246000fd5b906000526020600020906008020160040160006101000a8154816001600160a01b0302191690836001600160a01b03160217905550505050565b600d5490565b8060006121bd826130ca565b90506121c88161115c565b6121e45760405162461bcd60e51b81526004016108c8906147ba565b6107ec83613575565b8160006121f9826130ca565b90506122048161115c565b6122205760405162461bcd60e51b81526004016108c8906147ba565b826001600160a01b03811661223457600080fd5b61223e85856135cd565b612247856133e7565b5050505050565b60095490565b336000908152600b6020526040902054806122815760405162461bcd60e51b81526004016108c89061458f565b61228b8186612869565b6122a75760405162461bcd60e51b81526004016108c8906147ba565b60006122b58686868661119a565b90506122c2828783613635565b505050505050565b6122d2613393565b6001600160a01b03166122e36112be565b6001600160a01b0316146123095760405162461bcd60e51b81526004016108c8906146f0565b806001600160a01b03811661231d57600080fd5b6000600c848154811061234057634e487b7160e01b600052603260045260246000fd5b600091825260208083206001600160a01b0387168452600b909152604090922054600690910290910191508061238657634e487b7160e01b600052600160045260246000fd5b6000600a612395600184614a24565b815481106123b357634e487b7160e01b600052603260045260246000fd5b90600052602060002090600402019050806001018660016123d49190614a0c565b81546001810183556000928352602083200155600282018054916123f783614a87565b90915550508254600181018455600093845260209093209092015550505050565b6001600160a01b03811660009081526006602052604090206005015460609061245157634e487b7160e01b600052600160045260246000fd5b6001600160a01b03821660009081526006602052604081206005015467ffffffffffffffff81111561249357634e487b7160e01b600052604160045260246000fd5b6040519080825280602002602001820160405280156124bc578160200160208202803683370190505b5090506000805b6001600160a01b038516600090815260066020526040902060040154811015612571576001600160a01b03851660009081526006602090815260408083208484526002810183528184205480855260039091019092529091205460ff161561255e5780848461253181614a87565b95508151811061255157634e487b7160e01b600052603260045260246000fd5b6020026020010181815250505b508061256981614a87565b9150506124c3565b50909392505050565b6000816009548082111561258d57600080fd5b838061259857600080fd5b600860006125a7600188614a24565b815260208101919091526040016000206008015460ff1695945050505050565b6125cf613393565b6001600160a01b03166125e06112be565b6001600160a01b0316146126065760405162461bcd60e51b81526004016108c8906146f0565b6001600160a01b03811661262c5760405162461bcd60e51b81526004016108c8906145c6565b61263581613397565b50565b612640613393565b6001600160a01b03166126516112be565b6001600160a01b0316146126775760405162461bcd60e51b81526004016108c8906146f0565b856001600160a01b03811661268b57600080fd5b612698878787878761369d565b600280841614156126ac576126ac87613850565b600480841614156126c0576126c087613953565b60088084161415610e4857610e488783613a8f565b600a5460009082908082106126e957600080fd5b600a848154811061270a57634e487b7160e01b600052603260045260246000fd5b60009182526020909120600490910201546001600160a01b0316949350505050565b836001600160a01b03811661274057600080fd5b612748613393565b6001600160a01b03166127596112be565b6001600160a01b03161461277f5760405162461bcd60e51b81526004016108c8906146f0565b600c80546001810182556000919091528451600682027fdf6966c971051c3d54ec59162606531493a51404a002842f56009d7e5cf4a8c78101916127ea917fdf6966c971051c3d54ec59162606531493a51404a002842f56009d7e5cf4a8c901906020890190613c29565b5084516128009060038301906020880190613c29565b5083516128169060048301906020870190613c29565b5060058101805460ff191660011790556040517fcbbf31cd62dff8d3e3fd3ff1549adbbd47b39c0682301e54af8f3a0ffaade4a39061285890899085906142f6565b60405180910390a150505050505050565b600c54600090821061288d5760405162461bcd60e51b81526004016108c89061475c565b600a5483106128ae5760405162461bcd60e51b81526004016108c89061466e565b6000600c83815481106128d157634e487b7160e01b600052603260045260246000fd5b6000918252602082206006909102015491505b8181101561296c5784600c858154811061290e57634e487b7160e01b600052603260045260246000fd5b9060005260206000209060060201600001828154811061293e57634e487b7160e01b600052603260045260246000fd5b9060005260206000200154141561295a57600192505050610ba5565b8061296481614a87565b9150506128e4565b506000949350505050565b6007546060908061298757600080fd5b8284111561299457600080fd5b60075484106129b55760405162461bcd60e51b81526004016108c890614725565b60075483106129d0576007546129cd90600190614a24565b92505b60006129dc8585614a24565b6129e7906001614a0c565b67ffffffffffffffff811115612a0d57634e487b7160e01b600052604160045260246000fd5b604051908082528060200260200182016040528015612a4657816020015b612a33613d68565b815260200190600190039081612a2b5790505b509050845b848111611ed95760006006600060078481548110612a7957634e487b7160e01b600052603260045260246000fd5b60009182526020808320909101546001600160a01b039081168452838201949094526040928301909120825160808101845281549094168452600181015491840191909152600581015491830191909152600781015460ff1615156060830152915083612ae68985614a24565b81518110612b0457634e487b7160e01b600052603260045260246000fd5b60200260200101819052508180612b1a90614a87565b92505050612a4b565b600c5460609080612b3357600080fd5b82841115612b4057600080fd5b600c548410612b615760405162461bcd60e51b81526004016108c890614725565b600c548310612b7c57600c54612b7990600190614a24565b92505b6000612b888585614a24565b612b93906001614a0c565b67ffffffffffffffff811115612bb957634e487b7160e01b600052604160045260246000fd5b604051908082528060200260200182016040528015612bf257816020015b612bdf613d9b565b815260200190600190039081612bd75790505b509050845b848111611ed9576040518060800160405280600c8381548110612c2a57634e487b7160e01b600052603260045260246000fd5b90600052602060002090600602016002018054612c4690614a52565b80601f0160208091040260200160405190810160405280929190818152602001828054612c7290614a52565b8015612cbf5780601f10612c9457610100808354040283529160200191612cbf565b820191906000526020600020905b815481529060010190602001808311612ca257829003601f168201915b50505050508152602001600c8381548110612cea57634e487b7160e01b600052603260045260246000fd5b90600052602060002090600602016003018054612d0690614a52565b80601f0160208091040260200160405190810160405280929190818152602001828054612d3290614a52565b8015612d7f5780601f10612d5457610100808354040283529160200191612d7f565b820191906000526020600020905b815481529060010190602001808311612d6257829003601f168201915b50505050508152602001600c8381548110612daa57634e487b7160e01b600052603260045260246000fd5b90600052602060002090600602016004018054612dc690614a52565b80601f0160208091040260200160405190810160405280929190818152602001828054612df290614a52565b8015612e3f5780601f10612e1457610100808354040283529160200191612e3f565b820191906000526020600020905b815481529060010190602001808311612e2257829003601f168201915b50505050508152602001600c8381548110612e6a57634e487b7160e01b600052603260045260246000fd5b600091825260209091206005600690920201015460ff161515905282612e908884614a24565b81518110612eae57634e487b7160e01b600052603260045260246000fd5b60200260200101819052508080612ec490614a87565b915050612bf7565b8160095480821115612edd57600080fd5b8380612ee857600080fd5b60086000612ef7600188614a24565b815260208082019290925260409081016000908120600301805460018101825590825292902090910180546001600160a01b0319166001600160a01b038716179055517fc307fc17fe83556f9fb433b29e4b3c62d9ff95510c7bd3215592c16041d8148890612f69908790879061497a565b60405180910390a15050505050565b612f80613393565b6001600160a01b0316612f916112be565b6001600160a01b031614612fb75760405162461bcd60e51b81526004016108c8906146f0565b816001600160a01b038116612fcb57600080fd5b8180612fd657600080fd5b6001600160a01b03841660009081526006602052604090206007015460ff1661300f57634e487b7160e01b600052600160045260246000fd5b6001600160a01b03841660009081526006602052604081206004018054908261303783614a87565b909155506001600160a01b03861660008181526006602081815260408084208685526002810183528185208b90558a8552600381018352908420805460ff1916600117905593835252600590910180549293509061309483614a87565b91905055507fcd13c9c12305e70e268e3608aad04ff3a1e9c696deeacaff175d26eada2ec62a8585604051612f699291906142f6565b600081806130d757600080fd5b82600954808211156130e857600080fd5b600860006130f7600188614a24565b8152602001908152602001600020600201549350505050919050565b6040805160a0810182526001600160a01b0380861682526000602083018181529383018681526060840186815260808501838152600d80546001818101835595829052965160059097027fd7b6990105719101dabeb77144f2a3385c8033acd3af97e9423a695e81ad1eb5810180549888166001600160a01b0319998a1617905597517fd7b6990105719101dabeb77144f2a3385c8033acd3af97e9423a695e81ad1eb6890180549190971697169690961790945590517fd7b6990105719101dabeb77144f2a3385c8033acd3af97e9423a695e81ad1eb7860155517fd7b6990105719101dabeb77144f2a3385c8033acd3af97e9423a695e81ad1eb885015590517fd7b6990105719101dabeb77144f2a3385c8033acd3af97e9423a695e81ad1eb9909301805493151560ff1990941693909317909255547f92e1244fb0ae9fa971febd084422b4d2fabe644650512a440ede7884706fb9669161327791614a24565b82604051613286929190614991565b60405180910390a1505050565b600d54829081106132b65760405162461bcd60e51b81526004016108c89061478c565b81600d84815481106132d857634e487b7160e01b600052603260045260246000fd5b906000526020600020906005020160010160006101000a8154816001600160a01b0302191690836001600160a01b03160217905550505050565b816009548082111561332357600080fd5b838061332e57600080fd5b60016008600061333e8389614a24565b815260200190815260200160002060080160006101000a81548160ff02191690831515021790555083600860006001886133789190614a24565b81526020810191909152604001600020600701555050505050565b3390565b600080546001600160a01b038381166001600160a01b0319831681178455604051919092169283917f8be0079c531659141344cd1fd0a4f28419497f9722a3daafe3b4186f6b6457e09190a35050565b80600954808211156133f857600080fd5b828061340357600080fd5b6001600860006134138388614a24565b815260200190815260200160002060080160026101000a81548160ff02191690831515021790555050505050565b600d54829081106134645760405162461bcd60e51b81526004016108c89061478c565b81600d848154811061348657634e487b7160e01b600052603260045260246000fd5b60009182526020909120600590910201600401805460ff1916911515919091179055505050565b600080805b600c84815481106134d357634e487b7160e01b600052603260045260246000fd5b600091825260209091206006909102015481101561356e57600c848154811061350c57634e487b7160e01b600052603260045260246000fd5b9060005260206000209060060201600001818154811061353c57634e487b7160e01b600052603260045260246000fd5b906000526020600020015460001461355c578161355881614a87565b9250505b8061356681614a87565b9150506134b2565b5092915050565b808061358057600080fd5b816009548082111561359157600080fd5b8361359b81614a3b565b600090815260086020819052604090912001805462ff00001963ff000000199091166301000000171690555050505050565b81806135d857600080fd5b82600954808211156135e957600080fd5b83600860006135f9600189614a24565b815260200190815260200160002060040160006101000a8154816001600160a01b0302191690836001600160a01b031602179055505050505050565b600a54831061364357600080fd5b600c828154811061366457634e487b7160e01b600052603260045260246000fd5b90600052602060002090600602016001018160016136829190614a0c565b81546001810183556000928352602090922090910155505050565b6136a5613393565b6001600160a01b03166136b66112be565b6001600160a01b0316146136dc5760405162461bcd60e51b81526004016108c8906146f0565b846001600160a01b0381166136f057600080fd5b6040805160a081018252868152602080820187905281830186905260ff851660608301526001608083018190526001600160a01b038a1660009081529082529290922081518051929391926137489284920190613c29565b5060208281015180516137619260018501920190613c29565b506040820151805161377d916002840191602090910190613c29565b5060608201516003909101805460809093015115156101000261ff001960ff90931660ff199094169390931791909116919091179055600280546001818101835560008390527f405787fa12a823e0f2b7631cc41b3ba8828b3321ca811111fa75cd3aa3bb5ace90910180546001600160a01b038a166001600160a01b031990911617905590547f25ddd06f7eaeb83bb3fbcaa231d4b89e2d7bcd781043983661920061e755a7f09188916138329190614a24565b6040516138409291906142f6565b60405180910390a1505050505050565b613858613393565b6001600160a01b03166138696112be565b6001600160a01b03161461388f5760405162461bcd60e51b81526004016108c8906146f0565b806001600160a01b0381166138a357600080fd5b60048054600181810183557f8a35acfbc15ff81a39ae7d344fd709f28e8600b4aa8c65c6b64bfe7fe36bd19b90910180546001600160a01b0386166001600160a01b0319918216811790925560008281526003602052604090208054909116909117815560028101805460ff19168317905591547fb33697d74ba91a225da88048bf57b244fc8aa1a7b8f90aeb4788b8a4ef65d1cf9185916139459190614a24565b6040516132869291906142f6565b61395b613393565b6001600160a01b031661396c6112be565b6001600160a01b0316146139925760405162461bcd60e51b81526004016108c8906146f0565b806001600160a01b0381166139a657600080fd5b600a8054600180820183556000929092527fc65a7bb8d6351c1cf70c95a316cc6a92839c986682d98bc35f958f4883f9d2a86004820290810180546001600160a01b0319166001600160a01b0387161781557fc65a7bb8d6351c1cf70c95a316cc6a92839c986682d98bc35f958f4883f9d2ab909101805460ff1916841790559091613a33908390614a0c565b6001600160a01b0385166000908152600b60205260409081902091909155517fecc5d9929809b3db05d64ac37958ea2e6d0676af617f0d6ebec74a40e43382b790613a8190869085906142f6565b60405180910390a150505050565b613a97613393565b6001600160a01b0316613aa86112be565b6001600160a01b031614613ace5760405162461bcd60e51b81526004016108c8906146f0565b816001600160a01b038116613ae257600080fd5b60078054600181810183557fa66cc928b5edb82af9bd49922954155ab7b0942694bea4ce44661d9a8736c68890910180546001600160a01b0387166001600160a01b031991821681179092556000828152600660205260409081902080549092169092178155808301869055928301805460ff1916909217909155517fa448e5e847c6d262439050f776e09d4734f840b963b23fcfb5cd33cd233518e690613a819086906142e2565b604051806060016040528060006001600160a01b03168152602001606081526020016000151581525090565b6040518061018001604052806000815260200160008152602001600081526020016060815260200160006001600160a01b031681526020016000815260200160008152602001600081526020016000151581526020016000151581526020016000151581526020016000151581525090565b828054613c3590614a52565b90600052602060002090601f016020900481019282613c575760008555613c9d565b82601f10613c7057805160ff1916838001178555613c9d565b82800160010185558215613c9d579182015b82811115613c9d578251825591602001919060010190613c82565b50613ca9929150613dc5565b5090565b6040805160a08101825260008082526020820181905291810182905260608101829052608081019190915290565b60405180610100016040528060008152602001600081526020016000815260200160006001600160a01b0316815260200160006001600160a01b0316815260200160608152602001606081526020016000151581525090565b6040518060a00160405280606081526020016060815260200160608152602001600060ff1681526020016000151581525090565b604051806080016040528060006001600160a01b0316815260200160008152602001600081526020016000151581525090565b60405180608001604052806060815260200160608152602001606081526020016000151581525090565b5b80821115613ca95760008155600101613dc6565b80356001600160a01b038116811461085c57600080fd5b600082601f830112613e01578081fd5b813567ffffffffffffffff80821115613e1c57613e1c614ab8565b604051601f8301601f191681016020018281118282101715613e4057613e40614ab8565b604052828152848301602001861015613e57578384fd5b82602086016020830137918201602001929092529392505050565b600060208284031215613e83578081fd5b61119382613dda565b60008060008060808587031215613ea1578283fd5b613eaa85613dda565b9350602085013567ffffffffffffffff80821115613ec6578485fd5b613ed288838901613df1565b94506040870135915080821115613ee7578384fd5b613ef388838901613df1565b93506060870135915080821115613f08578283fd5b50613f1587828801613df1565b91505092959194509250565b60008060008060008060c08789031215613f39578182fd5b613f4287613dda565b9550602087013567ffffffffffffffff80821115613f5e578384fd5b613f6a8a838b01613df1565b96506040890135915080821115613f7f578384fd5b613f8b8a838b01613df1565b95506060890135915080821115613fa0578384fd5b50613fad89828a01613df1565b935050608087013560ff81168114613fc3578283fd5b8092505060a087013590509295509295509295565b60008060408385031215613fea578182fd5b613ff383613dda565b946020939093013593505050565b600080600080600060a08688031215614018578081fd5b61402186613dda565b94506020860135935060408601359250606086013567ffffffffffffffff8082111561404b578283fd5b61405789838a01613df1565b9350608088013591508082111561406c578283fd5b5061407988828901613df1565b9150509295509295909350565b600060208284031215614097578081fd5b5035919050565b600080604083850312156140b0578182fd5b823591506140c060208401613dda565b90509250929050565b600080604083850312156140db578182fd5b82359150602083013580151581146140f1578182fd5b809150509250929050565b6000806040838503121561410e578182fd5b50508035926020909101359150565b60008060008060808587031215614132578384fd5b5050823594602084013594506040840135936060013592509050565b6001600160a01b03169052565b6000815180845260208085019450808401835b838110156141935781516001600160a01b03168752958201959082019060010161416e565b509495945050505050565b6000815180845260208085019450808401835b83811015614193578151875295820195908201906001016141b1565b15159052565b60008151808452815b818110156141f8576020818501810151868301820152016141dc565b818111156142095782602083870101525b50601f01601f19169290920160200192915050565b600061018082518452602083015160208501526040830151604085015260608301518160608601526142528286018261415b565b9150506080830151614267608086018261414e565b5060a083015160a085015260c083015160c085015260e083015160e085015261010080840151614299828701826141cd565b5050610120808401516142ae828701826141cd565b5050610140808401516142c3828701826141cd565b5050610160808401516142d8828701826141cd565b5090949350505050565b6001600160a01b0391909116815260200190565b6001600160a01b03929092168252602082015260400190565b6000602080830181845280855180835260408601915060408482028701019250838701855b8281101561436257603f1988860301845261435085835161421e565b94509285019290850190600101614334565b5092979650505050505050565b60208082528251828201819052600091906040908185019080840286018301878501865b8381101561444457888303603f19018552815180518452878101518885015286810151878501526060808201516001600160a01b03169085015260808082015161010091906143e48288018261414e565b505060a08083015182828801526143fd838801826141d3565b9250505060c0808301518683038288015261441883826141d3565b9250505060e0808301519250614430818701846141cd565b509588019593505090860190600101614393565b509098975050505050505050565b602080825282518282018190526000919060409081850190868401855b828110156144b457815180516001600160a01b03168552868101518786015285810151868601526060908101511515908501526080909301929085019060010161446f565b5091979650505050505050565b60208082528251828201819052600091906040908185019080840286018301878501865b8381101561444457603f1989840301855281516080815181865261450b828701826141d3565b915050888201518582038a87015261452382826141d3565b915050878201518582038987015261453b82826141d3565b6060938401511515969093019590955250948701949250908601906001016144e5565b600060208252611193602083018461419e565b901515815260200190565b60006020825261119360208301846141d3565b60208082526018908201527f796f75206d75737420626520616e206f7267616e697a65720000000000000000604082015260600190565b60208082526026908201527f4f776e61626c653a206e6577206f776e657220697320746865207a65726f206160408201526564647265737360d01b606082015260800190565b60208082526018908201527f75736572206973206e6f7420616e206f7267616e697a65720000000000000000604082015260600190565b602080825260119082015270696e6478206f7574206f662072616e676560781b604082015260600190565b60208082526013908201527213dc99d85b9a5e995c881b9bdd08199bdd5b99606a1b604082015260600190565b6020808252600f908201526e37379039bab139b1b934b83a34b7b760891b604082015260600190565b60208082526012908201527114d95d08184815da5b9b995c88119a5c9cdd60721b604082015260600190565b6020808252818101527f4f776e61626c653a2063616c6c6572206973206e6f7420746865206f776e6572604082015260600190565b60208082526017908201527f5374617274496e646578206f7574206f662072616e6765000000000000000000604082015260600190565b60208082526016908201527513dc99d85b9a5e985d1a5bdb881b9bdd08199bdd5b9960521b604082015260600190565b6020808252601490820152734d6564616c4944206f7574206f662072616e676560601b604082015260600190565b6020808252601190820152703cb7ba9036bab9ba1031329030b236b4b760791b604082015260600190565b6020808252601290820152716f72674944206f7574206f662072616e676560701b604082015260600190565b60208082526024908201527f417574686f72206d75737420626520616374697620746f2061646420437265616040820152633a34b7b760e11b606082015260800190565b602080825282516001600160a01b03168282015282015160606040830152600090614883608084018261419e565b90506040840151151560608401528091505092915050565b600060208252611193602083018461421e565b81516001600160a01b03908116825260208084015190911690820152604080830151908201526060808301519082015260809182015115159181019190915260a00190565b600060208252825160a0602084015261490f60c08401826141d3565b90506020840151601f198085840301604086015261492d83836141d3565b925060408601519150808584030160608601525061494b82826141d3565b91505060ff60608501511660808401526080840151151560a08401528091505092915050565b90815260200190565b9182526001600160a01b0316602082015260400190565b918252602082015260400190565b88815260208101889052604081018790526001600160a01b0386811660608301528516608082015261010060a082018190526000906149e0838201876141d3565b905082810360c08401526149f481866141d3565b91505082151560e08301529998505050505050505050565b60008219821115614a1f57614a1f614aa2565b500190565b600082821015614a3657614a36614aa2565b500390565b600081614a4a57614a4a614aa2565b506000190190565b600281046001821680614a6657607f821691505b602082108114156107be57634e487b7160e01b600052602260045260246000fd5b6000600019821415614a9b57614a9b614aa2565b5060010190565b634e487b7160e01b600052601160045260246000fd5b634e487b7160e01b600052604160045260246000fdfea26469706673582212206c6ef91ce8bd65ad89a5fff86178efea52a1c832e8f2142f1732bcae0aa05aa864736f6c63430008000033",
  "immutableReferences": {},
  "source": "// SPDX-License-Identifier: MIT\r\npragma solidity ^0.8;\r\nimport \"@openzeppelin/contracts/access/Ownable.sol\";\r\nimport \"./Dapp Internal Struct/UserHandler.sol\";\r\nimport \"./Dapp Internal Struct/AuthorHandler.sol\";\r\nimport \"./Dapp Internal Struct/SportsmanHandler.sol\";\r\nimport \"./Dapp Internal Struct/EventHandler.sol\";\r\nimport \"./Dapp Internal Struct/OrganizerHandler.sol\";\r\nimport \"./Dapp Internal Struct/MedalHandler.sol\";\r\n\r\ncontract MedalVerse is\r\n\tOwnable,\r\n\tUserHandler,\r\n\tAuthorHandler,\r\n\tSportsmanHandler,\r\n\tEventHandler,\r\n\tOrganizerHandler,\r\n\tMedalHandler\r\n{\r\n\t// Modifiers ----------------------------\r\n\tmodifier isNotNull(address a)\r\n\t\tvirtual\r\n\t\toverride(\r\n\t\t\tUserHandler,\r\n\t\t\tAuthorHandler,\r\n\t\t\tSportsmanHandler,\r\n\t\t\tEventHandler,\r\n\t\t\tOrganizerHandler\r\n\t\t) {\r\n\t\trequire(a != address(0));\r\n\t\t_;\r\n\t}\r\n\tmodifier isNotNullUint256(uint256 a)\r\n\t\tvirtual\r\n\t\toverride(\r\n\t\t\tOrganizerHandler,\r\n\t\t\tSportsmanHandler,\r\n\t\t\tEventHandler,\r\n\t\t\tAuthorHandler\r\n\t\t) {\r\n\t\trequire(a != 0);\r\n\t\t_;\r\n\t}\r\n\r\n\tmodifier isAdminOfEvent(uint256 eventID) {\r\n\t\tuint256 organizationId = getEventOrganizer(eventID);\r\n\r\n\t\trequire(checkorganizerisAdminOf(organizationId), \"you must be admin\");\r\n\t\t_;\r\n\t}\r\n\r\n\t// Methods -------------------------------\r\n\r\n\t///@dev Add a new user to the DB, using parent classes\r\n\t///@param _userAddress userAddr\r\n\t///@param _iconURI Image for the UI\r\n\t///@param _userName FName + LName\r\n\t///@param _email email address\r\n\t///@param _role Author / Organizer / sportsman\r\n\t///@param _sportsCategory id of the event\r\n\tfunction addNewUser(\r\n\t\taddress _userAddress,\r\n\t\tstring memory _iconURI,\r\n\t\tstring memory _userName,\r\n\t\tstring memory _email,\r\n\t\tuint8 _role,\r\n\t\tuint256 _sportsCategory\r\n\t) public onlyOwner isNotNull(_userAddress) {\r\n\t\taddUser(_userAddress, _iconURI, _userName, _email, _role);\r\n\r\n\t\tif ((_role & 2) == 2) addAuthor(_userAddress);\r\n\t\tif ((_role & 4) == 4) addOrganizer(_userAddress);\r\n\t\tif ((_role & 8) == 8) addSportsman(_userAddress, _sportsCategory);\r\n\t}\r\n\r\n\t///@dev register a user to an event and event to user\r\n\t///@param _userAddress address of the user\r\n\t///@param eventid id of the event\r\n\tfunction LinkUserAndEvent(address _userAddress, uint256 eventid)\r\n\t\tpublic\r\n\t\tisNotNull(_userAddress)\r\n\t{\r\n\t\tEventRegisterSportsman(eventid, _userAddress); // checks both values\r\n\t\tregisterSportsmanToEvent(_userAddress, eventid); // no check required, already don above\r\n\t}\r\n\r\n\t///@dev creates a new event, associated to an organization\r\n\t///@param organizationId Id Of the Organization\r\n\t///@param startDate starting Date\r\n\t///@param endDate ending Date\r\n\t///@param sportsCategory Category of sport for the event\r\n\tfunction newEvent(\r\n\t\tuint256 organizationId,\r\n\t\tuint256 startDate,\r\n\t\tuint256 endDate,\r\n\t\tuint256 sportsCategory\r\n\t) public {\r\n\t\t// We first neet to check that the sender corresponds to an organizer\r\n\t\tuint256 organizerId = organizerByAddress[msg.sender];\r\n\t\trequire(organizerId > 0, \"you must be an organizer\");\r\n\r\n\t\trequire(\r\n\t\t\tcheckorganizerisAdminOf(organizerId, organizationId),\r\n\t\t\t\"you must be admin\"\r\n\t\t);\r\n\t\tuint256 eventID = addEvent(\r\n\t\t\torganizationId,\r\n\t\t\tstartDate,\r\n\t\t\tendDate,\r\n\t\t\tsportsCategory\r\n\t\t);\r\n\t\torganizerAddEvent(organizerId, organizationId, eventID);\r\n\t}\r\n\r\n\t///@dev The event starts now\r\n\t///@param eventID id of the event\r\n\tfunction adminStartEvent(uint256 eventID) external isAdminOfEvent(eventID) {\r\n\t\tstartEvent(eventID);\r\n\t}\r\n\r\n\t///@dev The event ends now\r\n\t///@param eventID id of the event\r\n\tfunction adminEndEvent(uint256 eventID) external isAdminOfEvent(eventID) {\r\n\t\tendEvent(eventID);\r\n\t}\r\n\r\n\t///@dev The event gets a winner and closes\r\n\t///@param eventID id of the event\r\n\tfunction adminSetWinner(uint256 eventID, address winner)\r\n\t\texternal\r\n\t\tisAdminOfEvent(eventID)\r\n\t\tisNotNull(winner)\r\n\t{\r\n\t\tsetEventWinner(eventID, winner);\r\n\t\tendEvent(eventID);\r\n\t}\r\n\r\n\tfunction adminAddMedal(uint256 eventID, address _nft)\r\n\t\texternal\r\n\t\tisAdminOfEvent(eventID)\r\n\t{\r\n\t\taddress winner = getWinner(eventID);\r\n\t\trequire(winner != address(0), \"Set a Winner First\");\r\n\t\tuint256 orgId = getEventOrganizer(eventID);\r\n\t\taddMedal(_nft, orgId, eventID);\r\n\t\tuint256 medalID = getMedalCount() - 1;\r\n\t\t// If the winner is already set, then we need to affect it to the medal\r\n\t\tsetMedalWinner(medalID, winner);\r\n\t\t// registers medal to the event and sportsman structure\r\n\t\teventSetMedal(eventID, medalID);\r\n\t\tsportsmanAddMedal(winner, medalID);\r\n\t}\r\n\r\n\tfunction publishMedal(uint256 medalIndx, bool status) public {\r\n\t\tuint256 mdID = getSportsmanMedal(msg.sender, medalIndx); // converts sportsMan->medalIndx => medalID\r\n\t\tmedalPublish(mdID, status);\r\n\t}\r\n}\r\n",
  "sourcePath": "C:\\DEV\\ETH\\Alyra\\MedalVerse\\MedalVerse-Front\\contracts\\MedalVerse.sol",
  "compiler": {
    "name": "solc",
    "version": "0.8.0+commit.c7dfd78e.Emscripten.clang"
  },
  "schemaVersion": "3.4.4",
  "updatedAt": "2021-12-31T22:44:42.758Z",
  "networkType": "ethereum",
  "devdoc": {
    "kind": "dev",
    "methods": {
      "LinkUserAndEvent(address,uint256)": {
        "details": "register a user to an event and event to user",
        "params": {
          "_userAddress": "address of the user",
          "eventid": "id of the event"
        }
      },
      "addCreation(address,uint256,uint256,string,string)": {
        "details": "Register a creation for a given author",
        "params": {
          "_URI": "Address of the image, used before minting the NFT",
          "_description": "may be null",
          "_price": "Price of the NFT",
          "_sportCategory": "Category for UI",
          "_user": "Address of the user to register as author"
        }
      },
      "addEvent(uint256,uint256,uint256,uint256)": {
        "details": "add an event to the list of events",
        "params": {
          "_endDate": "Date for the event to finish",
          "_organizedBy": "id of the oganization",
          "_sportCategory": "Type of event",
          "_startDate": "Date for the event to start"
        }
      },
      "addNewUser(address,string,string,string,uint8,uint256)": {
        "details": "Add a new user to the DB, using parent classes",
        "params": {
          "_email": "email address",
          "_iconURI": "Image for the UI",
          "_role": "Author / Organizer / sportsman",
          "_sportsCategory": "id of the event",
          "_userAddress": "userAddr",
          "_userName": "FName + LName"
        }
      },
      "addOrganization(address,string,string,string)": {
        "details": "add an organization to the list of orgs",
        "params": {
          "_description": "UI description text",
          "_logoURI": "Link to the icon lo\t\tuser.organizationState[orgId] = true;",
          "_name": "UI dislay name",
          "_user": "admin of the organization"
        }
      },
      "adminEndEvent(uint256)": {
        "details": "The event ends now",
        "params": {
          "eventID": "id of the event"
        }
      },
      "adminSetWinner(uint256,address)": {
        "details": "The event gets a winner and closes",
        "params": {
          "eventID": "id of the event"
        }
      },
      "adminStartEvent(uint256)": {
        "details": "The event starts now",
        "params": {
          "eventID": "id of the event"
        }
      },
      "affectNFTtoCreation(uint256,address)": {
        "details": "Register a creation for a given author TESTED",
        "params": {
          "_NFT": "Address of the minted NFT",
          "_creationId": "index of the creation as registered in allCreations"
        }
      },
      "checkorganizerisAdminOf(uint256)": {
        "details": "returns true if the user is admin of the organization",
        "params": {
          "orgIndx": "index amoung organizations"
        }
      },
      "checkorganizerisAdminOf(uint256,uint256)": {
        "details": "returns true if the user is admin of the organization",
        "params": {
          "orgIndx": "index amoung organizations",
          "organizer": "index amoung organizers"
        }
      },
      "getAdminList(uint256)": {
        "details": "returns the list activ admin of an organisation",
        "params": {
          "orgIndx": "index amoung organizations"
        }
      },
      "getAuthor(address)": {
        "details": "returns the Author struc corresponding to the user TESTED",
        "params": {
          "_user": "user address"
        }
      },
      "getAuthorCreationsList(address)": {
        "details": "returns the list of creations for user _author TESTED",
        "params": {
          "_author": "address of the user"
        }
      },
      "getCreationList(uint256,uint256)": {
        "details": "returns the list of creations: they may be inactive, must test activ value TESTED",
        "params": {
          "_end": "ending index - paging",
          "_start": "start index  - paging"
        }
      },
      "getEvent(uint256)": {
        "details": "returns the details of a specific event",
        "params": {
          "eventId": "id of the event"
        }
      },
      "getEventCount()": {
        "details": "returns the number of Events"
      },
      "getEventList(uint256,uint256)": {
        "details": "returns the list of Events",
        "params": {
          "_end": "ending index - paging",
          "_start": "start index  - paging"
        }
      },
      "getNumberOfSportsman()": {
        "details": "returns the number of Sportsman"
      },
      "getOrganisationCount()": {
        "details": "returns the number of Organizations"
      },
      "getOrganizationsList(uint256,uint256)": {
        "details": "returns the list of organization : they may be inactive, must test activ value",
        "params": {
          "_end": "ending index amoung ogranizations",
          "_start": "starting index amoung organizations"
        }
      },
      "getOrganizerAddressById(uint256)": {
        "details": "returns the address of an admin, given an id organizer",
        "params": {
          "id": "id (=index) of the organizer"
        }
      },
      "getOrganizerOrganisationList(address)": {
        "details": "returns the list of organization the organizer subscribed to",
        "params": {
          "_user": "address of the user"
        }
      },
      "getSportsManEventsNumber(address)": {
        "details": "returns the nb of activ events the sportsman registered to",
        "params": {
          "sportsmanId": "address of the sportsman"
        }
      },
      "getSportsmanEventsSubscriptions(address)": {
        "details": "returns the list of activ events the sportsman registered to",
        "params": {
          "sportsmanId": "address of the sportsman"
        }
      },
      "getSportsmanList(uint256,uint256)": {
        "details": "returns the list of organization : they may be inactif, must test activ value",
        "params": {
          "_end": "ending index amoung ogranizations",
          "_start": "starting index amoung organizations"
        }
      },
      "getUserDetails(address)": {
        "details": "Returns details about a user, given an address (for UI=)",
        "params": {
          "_userAdr": "of the user"
        }
      },
      "getWinner(uint256)": {
        "details": "returns the winner of the event",
        "params": {
          "eventId": "id of the event"
        }
      },
      "newEvent(uint256,uint256,uint256,uint256)": {
        "details": "creates a new event, associated to an organization",
        "params": {
          "endDate": "ending Date",
          "organizationId": "Id Of the Organization",
          "sportsCategory": "Category of sport for the event",
          "startDate": "starting Date"
        }
      },
      "organizationAddAdmin(uint256,address)": {
        "details": "add an admin to an org.",
        "params": {
          "_user": "admin of the organizatio",
          "orgId": "id of the organization"
        }
      },
      "owner()": {
        "details": "Returns the address of the current owner."
      },
      "renounceOwnership()": {
        "details": "Leaves the contract without owner. It will not be possible to call `onlyOwner` functions anymore. Can only be called by the current owner. NOTE: Renouncing ownership will leave the contract without an owner, thereby removing any functionality that is only available to the owner."
      },
      "transferOwnership(address)": {
        "details": "Transfers ownership of the contract to a new account (`newOwner`). Can only be called by the current owner."
      }
    },
    "version": 1
  },
  "userdoc": {
    "kind": "user",
    "methods": {},
    "version": 1
  }
}