{
  "contractName": "MedalVerse",
  "abi": [
    {
      "anonymous": false,
      "inputs": [
        {
          "indexed": false,
          "internalType": "address",
          "name": "usrAddr",
          "type": "address"
        },
        {
          "indexed": false,
          "internalType": "uint256",
          "name": "indx",
          "type": "uint256"
        }
      ],
      "name": "AuthorAdded",
      "type": "event"
    },
    {
      "anonymous": false,
      "inputs": [
        {
          "indexed": false,
          "internalType": "address",
          "name": "usrAddr",
          "type": "address"
        },
        {
          "indexed": false,
          "internalType": "uint256",
          "name": "indx",
          "type": "uint256"
        }
      ],
      "name": "CreationAdded",
      "type": "event"
    },
    {
      "anonymous": false,
      "inputs": [
        {
          "indexed": false,
          "internalType": "uint256",
          "name": "medalID",
          "type": "uint256"
        },
        {
          "indexed": false,
          "internalType": "uint256",
          "name": "eventID",
          "type": "uint256"
        }
      ],
      "name": "MedalAdded",
      "type": "event"
    },
    {
      "anonymous": false,
      "inputs": [
        {
          "indexed": false,
          "internalType": "address",
          "name": "_user",
          "type": "address"
        },
        {
          "indexed": false,
          "internalType": "uint256",
          "name": "indx",
          "type": "uint256"
        }
      ],
      "name": "OganizationAdded",
      "type": "event"
    },
    {
      "anonymous": false,
      "inputs": [
        {
          "indexed": false,
          "internalType": "address",
          "name": "_user",
          "type": "address"
        },
        {
          "indexed": false,
          "internalType": "uint256",
          "name": "indx",
          "type": "uint256"
        }
      ],
      "name": "OrganizerAdded",
      "type": "event"
    },
    {
      "anonymous": false,
      "inputs": [
        {
          "indexed": true,
          "internalType": "address",
          "name": "previousOwner",
          "type": "address"
        },
        {
          "indexed": true,
          "internalType": "address",
          "name": "newOwner",
          "type": "address"
        }
      ],
      "name": "OwnershipTransferred",
      "type": "event"
    },
    {
      "anonymous": false,
      "inputs": [
        {
          "indexed": false,
          "internalType": "address",
          "name": "usrAddr",
          "type": "address"
        },
        {
          "indexed": false,
          "internalType": "uint256",
          "name": "indx",
          "type": "uint256"
        }
      ],
      "name": "UserAdded",
      "type": "event"
    },
    {
      "anonymous": false,
      "inputs": [
        {
          "indexed": false,
          "internalType": "uint256",
          "name": "eventId",
          "type": "uint256"
        }
      ],
      "name": "eventAdded",
      "type": "event"
    },
    {
      "anonymous": false,
      "inputs": [
        {
          "indexed": false,
          "internalType": "uint256",
          "name": "eventId",
          "type": "uint256"
        },
        {
          "indexed": false,
          "internalType": "address",
          "name": "sportsmanId",
          "type": "address"
        }
      ],
      "name": "eventRegisterSportsman",
      "type": "event"
    },
    {
      "anonymous": false,
      "inputs": [
        {
          "indexed": false,
          "internalType": "uint256",
          "name": "eventId",
          "type": "uint256"
        }
      ],
      "name": "eventRemoved",
      "type": "event"
    },
    {
      "anonymous": false,
      "inputs": [
        {
          "indexed": false,
          "internalType": "address",
          "name": "usrAddr",
          "type": "address"
        }
      ],
      "name": "sportsmanAdded",
      "type": "event"
    },
    {
      "anonymous": false,
      "inputs": [
        {
          "indexed": false,
          "internalType": "address",
          "name": "sportsmanId",
          "type": "address"
        },
        {
          "indexed": false,
          "internalType": "uint256",
          "name": "medalID",
          "type": "uint256"
        }
      ],
      "name": "sportsmanMedalAdded",
      "type": "event"
    },
    {
      "anonymous": false,
      "inputs": [
        {
          "indexed": false,
          "internalType": "address",
          "name": "usrAddr",
          "type": "address"
        },
        {
          "indexed": false,
          "internalType": "uint256",
          "name": "eventID",
          "type": "uint256"
        }
      ],
      "name": "sportsmanRegisterdEvent",
      "type": "event"
    },
    {
      "anonymous": false,
      "inputs": [
        {
          "indexed": false,
          "internalType": "address",
          "name": "usrAddr",
          "type": "address"
        },
        {
          "indexed": false,
          "internalType": "uint256",
          "name": "eventID",
          "type": "uint256"
        }
      ],
      "name": "sportsmanUnregisterdEvent",
      "type": "event"
    },
    {
      "inputs": [
        {
          "internalType": "address",
          "name": "_user",
          "type": "address"
        },
        {
          "internalType": "uint256",
          "name": "_price",
          "type": "uint256"
        },
        {
          "internalType": "uint256",
          "name": "_sportCategory",
          "type": "uint256"
        },
        {
          "internalType": "string",
          "name": "_description",
          "type": "string"
        },
        {
          "internalType": "string",
          "name": "_URI",
          "type": "string"
        }
      ],
      "name": "addCreation",
      "outputs": [],
      "stateMutability": "nonpayable",
      "type": "function"
    },
    {
      "inputs": [
        {
          "internalType": "uint256",
          "name": "_organizedBy",
          "type": "uint256"
        },
        {
          "internalType": "uint256",
          "name": "_startDate",
          "type": "uint256"
        },
        {
          "internalType": "uint256",
          "name": "_endDate",
          "type": "uint256"
        },
        {
          "internalType": "uint256",
          "name": "_sportCategory",
          "type": "uint256"
        },
        {
          "internalType": "string",
          "name": "_eventDescription",
          "type": "string"
        }
      ],
      "name": "addEvent",
      "outputs": [
        {
          "internalType": "uint256",
          "name": "",
          "type": "uint256"
        }
      ],
      "stateMutability": "nonpayable",
      "type": "function"
    },
    {
      "inputs": [
        {
          "internalType": "address",
          "name": "_user",
          "type": "address"
        },
        {
          "internalType": "string",
          "name": "_name",
          "type": "string"
        },
        {
          "internalType": "string",
          "name": "_description",
          "type": "string"
        },
        {
          "internalType": "string",
          "name": "_logoURI",
          "type": "string"
        }
      ],
      "name": "addOrganization",
      "outputs": [],
      "stateMutability": "nonpayable",
      "type": "function"
    },
    {
      "inputs": [
        {
          "internalType": "uint256",
          "name": "_creationId",
          "type": "uint256"
        },
        {
          "internalType": "address",
          "name": "_NFT",
          "type": "address"
        }
      ],
      "name": "affectNFTtoCreation",
      "outputs": [],
      "stateMutability": "nonpayable",
      "type": "function"
    },
    {
      "inputs": [
        {
          "internalType": "uint256",
          "name": "",
          "type": "uint256"
        }
      ],
      "name": "allCreations",
      "outputs": [
        {
          "internalType": "uint256",
          "name": "price",
          "type": "uint256"
        },
        {
          "internalType": "uint256",
          "name": "creationId",
          "type": "uint256"
        },
        {
          "internalType": "uint256",
          "name": "sportCategory",
          "type": "uint256"
        },
        {
          "internalType": "address",
          "name": "author",
          "type": "address"
        },
        {
          "internalType": "address",
          "name": "NFT_Bkg_Adr",
          "type": "address"
        },
        {
          "internalType": "string",
          "name": "description",
          "type": "string"
        },
        {
          "internalType": "string",
          "name": "URI",
          "type": "string"
        },
        {
          "internalType": "bool",
          "name": "activ",
          "type": "bool"
        }
      ],
      "stateMutability": "view",
      "type": "function",
      "constant": true
    },
    {
      "inputs": [
        {
          "internalType": "uint256",
          "name": "orgIndx",
          "type": "uint256"
        }
      ],
      "name": "checkorganizerisAdminOf",
      "outputs": [
        {
          "internalType": "bool",
          "name": "",
          "type": "bool"
        }
      ],
      "stateMutability": "view",
      "type": "function",
      "constant": true
    },
    {
      "inputs": [
        {
          "internalType": "uint256",
          "name": "organizer",
          "type": "uint256"
        },
        {
          "internalType": "uint256",
          "name": "orgIndx",
          "type": "uint256"
        }
      ],
      "name": "checkorganizerisAdminOf",
      "outputs": [
        {
          "internalType": "bool",
          "name": "",
          "type": "bool"
        }
      ],
      "stateMutability": "view",
      "type": "function",
      "constant": true
    },
    {
      "inputs": [
        {
          "internalType": "uint256",
          "name": "eventID",
          "type": "uint256"
        }
      ],
      "name": "eventGetMedal",
      "outputs": [
        {
          "internalType": "uint256",
          "name": "",
          "type": "uint256"
        }
      ],
      "stateMutability": "view",
      "type": "function",
      "constant": true
    },
    {
      "inputs": [
        {
          "internalType": "uint256",
          "name": "eventID",
          "type": "uint256"
        }
      ],
      "name": "eventHasMedal",
      "outputs": [
        {
          "internalType": "bool",
          "name": "",
          "type": "bool"
        }
      ],
      "stateMutability": "view",
      "type": "function",
      "constant": true
    },
    {
      "inputs": [
        {
          "internalType": "uint256",
          "name": "orgIndx",
          "type": "uint256"
        }
      ],
      "name": "getAdminList",
      "outputs": [
        {
          "internalType": "uint256[]",
          "name": "",
          "type": "uint256[]"
        }
      ],
      "stateMutability": "view",
      "type": "function",
      "constant": true
    },
    {
      "inputs": [
        {
          "internalType": "address",
          "name": "_user",
          "type": "address"
        }
      ],
      "name": "getAuthor",
      "outputs": [
        {
          "components": [
            {
              "internalType": "address",
              "name": "userAddress",
              "type": "address"
            },
            {
              "internalType": "uint256[]",
              "name": "creations",
              "type": "uint256[]"
            },
            {
              "internalType": "bool",
              "name": "activ",
              "type": "bool"
            }
          ],
          "internalType": "struct Author",
          "name": "",
          "type": "tuple"
        }
      ],
      "stateMutability": "view",
      "type": "function",
      "constant": true
    },
    {
      "inputs": [
        {
          "internalType": "address",
          "name": "_author",
          "type": "address"
        }
      ],
      "name": "getAuthorCreationsList",
      "outputs": [
        {
          "internalType": "uint256[]",
          "name": "",
          "type": "uint256[]"
        }
      ],
      "stateMutability": "view",
      "type": "function",
      "constant": true
    },
    {
      "inputs": [
        {
          "internalType": "uint256",
          "name": "_start",
          "type": "uint256"
        },
        {
          "internalType": "uint256",
          "name": "_end",
          "type": "uint256"
        }
      ],
      "name": "getCreationList",
      "outputs": [
        {
          "components": [
            {
              "internalType": "uint256",
              "name": "price",
              "type": "uint256"
            },
            {
              "internalType": "uint256",
              "name": "creationId",
              "type": "uint256"
            },
            {
              "internalType": "uint256",
              "name": "sportCategory",
              "type": "uint256"
            },
            {
              "internalType": "address",
              "name": "author",
              "type": "address"
            },
            {
              "internalType": "address",
              "name": "NFT_Bkg_Adr",
              "type": "address"
            },
            {
              "internalType": "string",
              "name": "description",
              "type": "string"
            },
            {
              "internalType": "string",
              "name": "URI",
              "type": "string"
            },
            {
              "internalType": "bool",
              "name": "activ",
              "type": "bool"
            }
          ],
          "internalType": "struct NFT_Medal_Bkg_Desc[]",
          "name": "",
          "type": "tuple[]"
        }
      ],
      "stateMutability": "view",
      "type": "function",
      "constant": true
    },
    {
      "inputs": [
        {
          "internalType": "uint256",
          "name": "eventId",
          "type": "uint256"
        }
      ],
      "name": "getEvent",
      "outputs": [
        {
          "components": [
            {
              "internalType": "uint256",
              "name": "eventId",
              "type": "uint256"
            },
            {
              "internalType": "uint256",
              "name": "sportCategory",
              "type": "uint256"
            },
            {
              "internalType": "uint256",
              "name": "organizedBy",
              "type": "uint256"
            },
            {
              "internalType": "address[]",
              "name": "registeredSportsMan",
              "type": "address[]"
            },
            {
              "internalType": "address",
              "name": "winner",
              "type": "address"
            },
            {
              "internalType": "uint256",
              "name": "startDate",
              "type": "uint256"
            },
            {
              "internalType": "uint256",
              "name": "endDate",
              "type": "uint256"
            },
            {
              "internalType": "uint256",
              "name": "medalID",
              "type": "uint256"
            },
            {
              "internalType": "string",
              "name": "eventDescription",
              "type": "string"
            },
            {
              "internalType": "bool",
              "name": "hasMedal",
              "type": "bool"
            },
            {
              "internalType": "bool",
              "name": "activ",
              "type": "bool"
            },
            {
              "internalType": "bool",
              "name": "ended",
              "type": "bool"
            },
            {
              "internalType": "bool",
              "name": "started",
              "type": "bool"
            }
          ],
          "internalType": "struct EventHandler.EventDesc",
          "name": "",
          "type": "tuple"
        }
      ],
      "stateMutability": "view",
      "type": "function",
      "constant": true
    },
    {
      "inputs": [],
      "name": "getEventCount",
      "outputs": [
        {
          "internalType": "uint256",
          "name": "",
          "type": "uint256"
        }
      ],
      "stateMutability": "view",
      "type": "function",
      "constant": true
    },
    {
      "inputs": [
        {
          "internalType": "uint256",
          "name": "_start",
          "type": "uint256"
        },
        {
          "internalType": "uint256",
          "name": "_end",
          "type": "uint256"
        }
      ],
      "name": "getEventList",
      "outputs": [
        {
          "components": [
            {
              "internalType": "uint256",
              "name": "eventId",
              "type": "uint256"
            },
            {
              "internalType": "uint256",
              "name": "sportCategory",
              "type": "uint256"
            },
            {
              "internalType": "uint256",
              "name": "organizedBy",
              "type": "uint256"
            },
            {
              "internalType": "address[]",
              "name": "registeredSportsMan",
              "type": "address[]"
            },
            {
              "internalType": "address",
              "name": "winner",
              "type": "address"
            },
            {
              "internalType": "uint256",
              "name": "startDate",
              "type": "uint256"
            },
            {
              "internalType": "uint256",
              "name": "endDate",
              "type": "uint256"
            },
            {
              "internalType": "uint256",
              "name": "medalID",
              "type": "uint256"
            },
            {
              "internalType": "string",
              "name": "eventDescription",
              "type": "string"
            },
            {
              "internalType": "bool",
              "name": "hasMedal",
              "type": "bool"
            },
            {
              "internalType": "bool",
              "name": "activ",
              "type": "bool"
            },
            {
              "internalType": "bool",
              "name": "ended",
              "type": "bool"
            },
            {
              "internalType": "bool",
              "name": "started",
              "type": "bool"
            }
          ],
          "internalType": "struct EventHandler.EventDesc[]",
          "name": "",
          "type": "tuple[]"
        }
      ],
      "stateMutability": "view",
      "type": "function",
      "constant": true
    },
    {
      "inputs": [
        {
          "internalType": "uint256",
          "name": "orgId",
          "type": "uint256"
        }
      ],
      "name": "getEventList",
      "outputs": [
        {
          "internalType": "uint256[]",
          "name": "",
          "type": "uint256[]"
        }
      ],
      "stateMutability": "view",
      "type": "function",
      "constant": true
    },
    {
      "inputs": [
        {
          "internalType": "uint256",
          "name": "medalID",
          "type": "uint256"
        }
      ],
      "name": "getMedal",
      "outputs": [
        {
          "components": [
            {
              "internalType": "address",
              "name": "throwIn",
              "type": "address"
            },
            {
              "internalType": "address",
              "name": "winner",
              "type": "address"
            },
            {
              "internalType": "uint256",
              "name": "organizationID",
              "type": "uint256"
            },
            {
              "internalType": "uint256",
              "name": "eventID",
              "type": "uint256"
            },
            {
              "internalType": "bool",
              "name": "isInWinnerGallery",
              "type": "bool"
            }
          ],
          "internalType": "struct Medal",
          "name": "",
          "type": "tuple"
        }
      ],
      "stateMutability": "view",
      "type": "function",
      "constant": true
    },
    {
      "inputs": [],
      "name": "getMedalCount",
      "outputs": [
        {
          "internalType": "uint256",
          "name": "",
          "type": "uint256"
        }
      ],
      "stateMutability": "view",
      "type": "function",
      "constant": true
    },
    {
      "inputs": [],
      "name": "getNumberOfSportsman",
      "outputs": [
        {
          "internalType": "uint256",
          "name": "",
          "type": "uint256"
        }
      ],
      "stateMutability": "view",
      "type": "function",
      "constant": true
    },
    {
      "inputs": [],
      "name": "getOrganisationCount",
      "outputs": [
        {
          "internalType": "uint256",
          "name": "",
          "type": "uint256"
        }
      ],
      "stateMutability": "view",
      "type": "function",
      "constant": true
    },
    {
      "inputs": [
        {
          "internalType": "uint256",
          "name": "orgID",
          "type": "uint256"
        }
      ],
      "name": "getOrganizationName",
      "outputs": [
        {
          "internalType": "string",
          "name": "",
          "type": "string"
        }
      ],
      "stateMutability": "view",
      "type": "function",
      "constant": true
    },
    {
      "inputs": [
        {
          "internalType": "uint256",
          "name": "_start",
          "type": "uint256"
        },
        {
          "internalType": "uint256",
          "name": "_end",
          "type": "uint256"
        }
      ],
      "name": "getOrganizationsList",
      "outputs": [
        {
          "components": [
            {
              "internalType": "string",
              "name": "name",
              "type": "string"
            },
            {
              "internalType": "string",
              "name": "description",
              "type": "string"
            },
            {
              "internalType": "string",
              "name": "logoURI",
              "type": "string"
            },
            {
              "internalType": "bool",
              "name": "activ",
              "type": "bool"
            }
          ],
          "internalType": "struct OrganizerHandler.organizationDesc[]",
          "name": "",
          "type": "tuple[]"
        }
      ],
      "stateMutability": "view",
      "type": "function",
      "constant": true
    },
    {
      "inputs": [
        {
          "internalType": "uint256",
          "name": "id",
          "type": "uint256"
        }
      ],
      "name": "getOrganizerAddressById",
      "outputs": [
        {
          "internalType": "address",
          "name": "",
          "type": "address"
        }
      ],
      "stateMutability": "view",
      "type": "function",
      "constant": true
    },
    {
      "inputs": [
        {
          "internalType": "address",
          "name": "_user",
          "type": "address"
        }
      ],
      "name": "getOrganizerOrganisationList",
      "outputs": [
        {
          "internalType": "uint256[]",
          "name": "",
          "type": "uint256[]"
        }
      ],
      "stateMutability": "view",
      "type": "function",
      "constant": true
    },
    {
      "inputs": [
        {
          "internalType": "address",
          "name": "sportsmanId",
          "type": "address"
        }
      ],
      "name": "getSportsManEventsNumber",
      "outputs": [
        {
          "internalType": "uint256",
          "name": "",
          "type": "uint256"
        }
      ],
      "stateMutability": "view",
      "type": "function",
      "constant": true
    },
    {
      "inputs": [
        {
          "internalType": "address",
          "name": "sportsmanId",
          "type": "address"
        }
      ],
      "name": "getSportsmanEventsSubscriptions",
      "outputs": [
        {
          "internalType": "uint256[]",
          "name": "",
          "type": "uint256[]"
        }
      ],
      "stateMutability": "view",
      "type": "function",
      "constant": true
    },
    {
      "inputs": [
        {
          "internalType": "uint256",
          "name": "_start",
          "type": "uint256"
        },
        {
          "internalType": "uint256",
          "name": "_end",
          "type": "uint256"
        }
      ],
      "name": "getSportsmanList",
      "outputs": [
        {
          "components": [
            {
              "internalType": "address",
              "name": "userAddress",
              "type": "address"
            },
            {
              "internalType": "uint256",
              "name": "sportCategory",
              "type": "uint256"
            },
            {
              "internalType": "uint256",
              "name": "nbActivSubscriptions",
              "type": "uint256"
            },
            {
              "internalType": "bool",
              "name": "activ",
              "type": "bool"
            }
          ],
          "internalType": "struct SportsmanHandler.SportsmanDesc[]",
          "name": "",
          "type": "tuple[]"
        }
      ],
      "stateMutability": "view",
      "type": "function",
      "constant": true
    },
    {
      "inputs": [
        {
          "internalType": "address",
          "name": "sportsmanId",
          "type": "address"
        },
        {
          "internalType": "uint256",
          "name": "indx",
          "type": "uint256"
        }
      ],
      "name": "getSportsmanMedal",
      "outputs": [
        {
          "internalType": "uint256",
          "name": "",
          "type": "uint256"
        }
      ],
      "stateMutability": "view",
      "type": "function",
      "constant": true
    },
    {
      "inputs": [
        {
          "internalType": "address",
          "name": "sportsmanId",
          "type": "address"
        }
      ],
      "name": "getSportsmanMedalCount",
      "outputs": [
        {
          "internalType": "uint256",
          "name": "",
          "type": "uint256"
        }
      ],
      "stateMutability": "view",
      "type": "function",
      "constant": true
    },
    {
      "inputs": [
        {
          "internalType": "address",
          "name": "sportsmanId",
          "type": "address"
        }
      ],
      "name": "getSportsmanMedalList",
      "outputs": [
        {
          "internalType": "uint256[]",
          "name": "",
          "type": "uint256[]"
        }
      ],
      "stateMutability": "view",
      "type": "function",
      "constant": true
    },
    {
      "inputs": [],
      "name": "getUserCount",
      "outputs": [
        {
          "internalType": "uint256",
          "name": "",
          "type": "uint256"
        }
      ],
      "stateMutability": "view",
      "type": "function",
      "constant": true
    },
    {
      "inputs": [
        {
          "internalType": "address",
          "name": "_userAdr",
          "type": "address"
        }
      ],
      "name": "getUserDetails",
      "outputs": [
        {
          "components": [
            {
              "internalType": "string",
              "name": "iconURI",
              "type": "string"
            },
            {
              "internalType": "string",
              "name": "userName",
              "type": "string"
            },
            {
              "internalType": "string",
              "name": "email",
              "type": "string"
            },
            {
              "internalType": "uint8",
              "name": "role",
              "type": "uint8"
            },
            {
              "internalType": "bool",
              "name": "activ",
              "type": "bool"
            }
          ],
          "internalType": "struct User",
          "name": "",
          "type": "tuple"
        }
      ],
      "stateMutability": "view",
      "type": "function",
      "constant": true
    },
    {
      "inputs": [
        {
          "internalType": "uint256",
          "name": "eventId",
          "type": "uint256"
        }
      ],
      "name": "getWinner",
      "outputs": [
        {
          "internalType": "address",
          "name": "",
          "type": "address"
        }
      ],
      "stateMutability": "view",
      "type": "function",
      "constant": true
    },
    {
      "inputs": [
        {
          "internalType": "uint256",
          "name": "orgId",
          "type": "uint256"
        },
        {
          "internalType": "address",
          "name": "_user",
          "type": "address"
        }
      ],
      "name": "organizationAddAdmin",
      "outputs": [],
      "stateMutability": "nonpayable",
      "type": "function"
    },
    {
      "inputs": [],
      "name": "owner",
      "outputs": [
        {
          "internalType": "address",
          "name": "",
          "type": "address"
        }
      ],
      "stateMutability": "view",
      "type": "function",
      "constant": true
    },
    {
      "inputs": [
        {
          "internalType": "uint256",
          "name": "",
          "type": "uint256"
        }
      ],
      "name": "registeredAuthors",
      "outputs": [
        {
          "internalType": "address",
          "name": "",
          "type": "address"
        }
      ],
      "stateMutability": "view",
      "type": "function",
      "constant": true
    },
    {
      "inputs": [
        {
          "internalType": "uint256",
          "name": "",
          "type": "uint256"
        }
      ],
      "name": "registeredSportsman",
      "outputs": [
        {
          "internalType": "address",
          "name": "",
          "type": "address"
        }
      ],
      "stateMutability": "view",
      "type": "function",
      "constant": true
    },
    {
      "inputs": [
        {
          "internalType": "uint256",
          "name": "",
          "type": "uint256"
        }
      ],
      "name": "registeredUsers",
      "outputs": [
        {
          "internalType": "address",
          "name": "",
          "type": "address"
        }
      ],
      "stateMutability": "view",
      "type": "function",
      "constant": true
    },
    {
      "inputs": [],
      "name": "renounceOwnership",
      "outputs": [],
      "stateMutability": "nonpayable",
      "type": "function"
    },
    {
      "inputs": [
        {
          "internalType": "address",
          "name": "sportsmanId",
          "type": "address"
        },
        {
          "internalType": "uint256",
          "name": "medalID",
          "type": "uint256"
        }
      ],
      "name": "sportsmanAddMedal",
      "outputs": [],
      "stateMutability": "nonpayable",
      "type": "function"
    },
    {
      "inputs": [
        {
          "internalType": "address",
          "name": "newOwner",
          "type": "address"
        }
      ],
      "name": "transferOwnership",
      "outputs": [],
      "stateMutability": "nonpayable",
      "type": "function"
    },
    {
      "inputs": [
        {
          "internalType": "address",
          "name": "_userAddress",
          "type": "address"
        },
        {
          "internalType": "string",
          "name": "_iconURI",
          "type": "string"
        },
        {
          "internalType": "string",
          "name": "_userName",
          "type": "string"
        },
        {
          "internalType": "string",
          "name": "_email",
          "type": "string"
        },
        {
          "internalType": "uint8",
          "name": "_role",
          "type": "uint8"
        },
        {
          "internalType": "uint256",
          "name": "_sportsCategory",
          "type": "uint256"
        }
      ],
      "name": "addNewUser",
      "outputs": [],
      "stateMutability": "nonpayable",
      "type": "function"
    },
    {
      "inputs": [
        {
          "internalType": "address",
          "name": "_userAddress",
          "type": "address"
        },
        {
          "internalType": "uint256",
          "name": "eventid",
          "type": "uint256"
        }
      ],
      "name": "LinkUserAndEvent",
      "outputs": [],
      "stateMutability": "nonpayable",
      "type": "function"
    },
    {
      "inputs": [
        {
          "internalType": "uint256",
          "name": "organizationId",
          "type": "uint256"
        },
        {
          "internalType": "uint256",
          "name": "startDate",
          "type": "uint256"
        },
        {
          "internalType": "uint256",
          "name": "endDate",
          "type": "uint256"
        },
        {
          "internalType": "uint256",
          "name": "sportsCategory",
          "type": "uint256"
        },
        {
          "internalType": "string",
          "name": "eventDesc",
          "type": "string"
        }
      ],
      "name": "newEvent",
      "outputs": [],
      "stateMutability": "nonpayable",
      "type": "function"
    },
    {
      "inputs": [
        {
          "internalType": "uint256",
          "name": "eventID",
          "type": "uint256"
        }
      ],
      "name": "adminStartEvent",
      "outputs": [],
      "stateMutability": "nonpayable",
      "type": "function"
    },
    {
      "inputs": [
        {
          "internalType": "uint256",
          "name": "eventID",
          "type": "uint256"
        }
      ],
      "name": "adminEndEvent",
      "outputs": [],
      "stateMutability": "nonpayable",
      "type": "function"
    },
    {
      "inputs": [
        {
          "internalType": "uint256",
          "name": "eventID",
          "type": "uint256"
        },
        {
          "internalType": "address",
          "name": "winner",
          "type": "address"
        }
      ],
      "name": "adminSetWinner",
      "outputs": [],
      "stateMutability": "nonpayable",
      "type": "function"
    },
    {
      "inputs": [
        {
          "internalType": "uint256",
          "name": "eventID",
          "type": "uint256"
        },
        {
          "internalType": "address",
          "name": "_nft",
          "type": "address"
        }
      ],
      "name": "adminAddMedal",
      "outputs": [],
      "stateMutability": "nonpayable",
      "type": "function"
    },
    {
      "inputs": [
        {
          "internalType": "uint256",
          "name": "medalIndx",
          "type": "uint256"
        },
        {
          "internalType": "bool",
          "name": "status",
          "type": "bool"
        }
      ],
      "name": "publishMedal",
      "outputs": [],
      "stateMutability": "nonpayable",
      "type": "function"
    }
  ],
  "bytecode": "0x60806040523480156200001157600080fd5b5062000026620000206200002c565b62000030565b62000080565b3390565b600080546001600160a01b038381166001600160a01b0319831681178455604051919092169283917f8be0079c531659141344cd1fd0a4f28419497f9722a3daafe3b4186f6b6457e09190a35050565b614c8a80620000906000396000f3fe608060405234801561001057600080fd5b50600436106102d65760003560e01c806391850ab311610182578063d4a0e8ad116100e9578063f2fde38b116100a2578063fbcbd0671161007c578063fbcbd067146106a6578063fbf5f199146106b9578063fd395fc5146106cc578063fe4363a3146106ec576102d6565b8063f2fde38b1461066d578063f5ad8cda14610680578063fb87aa4214610693576102d6565b8063d4a0e8ad14610606578063d7bc151a14610619578063d9e48f5c1461062c578063e56afc7514610634578063eebd127414610647578063f022f3551461065a576102d6565b8063b700389f1161013b578063b700389f14610578578063c46f05b914610598578063c8887249146105ab578063cc3d967b146105cb578063cd284f65146105eb578063ce7c5d9d146105fe576102d6565b806391850ab31461051c5780639847587a1461052f578063ad97046314610542578063ade03dbf14610555578063b082b9c714610568578063b5cb15f714610570576102d6565b806354abd15f1161024157806375bb7174116101fa57806388c3f26f116101d457806388c3f26f146104db5780638da5cb5b146104ee5780638ed1891d146104f65780639107e87914610509576102d6565b806375bb7174146104a05780637990b367146104a8578063826226bf146104bb576102d6565b806354abd15f1461041f5780635b4c4b20146104325780636ccf16b0146104525780636d1884e014610465578063715018a6146104855780637259e0f81461048d576102d6565b806338caac651161029357806338caac651461038c5780633a6526fb1461039f5780633da21e3a146103b25780634129b2c9146103c55780634dbc196c146103e55780635336abb5146103f8576102d6565b80630ab30093146102db5780630d4f284a146103045780631b4a439714610319578063292e20ee146103395780632bd0e1cc1461034c57806335d3339e1461036c575b600080fd5b6102ee6102e9366004613fb8565b61070c565b6040516102fb91906149db565b60405180910390f35b61031761031236600461411e565b6107c4565b005b61032c610327366004614263565b6107f1565b6040516102fb9190614af7565b610317610347366004614263565b6108bd565b61035f61035a366004613fb8565b61093e565b6040516102fb91906146e4565b61037f61037a366004614242565b6109ae565b6040516102fb9190614495565b61032c61039a3660046141cc565b610c96565b61032c6103ad366004613fb8565b610cdf565b61032c6103c036600461411e565b610cfe565b6103d86103d33660046141cc565b610d88565b6040516102fb9190614468565b6103d86103f33660046141cc565b610dcf565b61040b6104063660046141cc565b610df9565b6040516102fb989796959493929190614b25565b61031761042d3660046141e4565b610f71565b6104456104403660046141cc565b611025565b6040516102fb9190614702565b61035f6104603660046141cc565b611101565b6104786104733660046141cc565b61118e565b6040516102fb9190614a21565b610317611358565b6103d861049b3660046141cc565b6113a3565b61032c6113b3565b6103d86104b63660046141cc565b6113b9565b6104ce6104c93660046141cc565b6113c9565b6040516102fb91906146f7565b6103176104e936600461411e565b611407565b6103d8611474565b6103176105043660046141cc565b611483565b61035f610517366004613fb8565b6114bf565b61035f61052a366004613fb8565b61156a565b61032c61053d366004613fb8565b61178b565b610317610550366004614147565b6117c1565b61031761056336600461420f565b6119de565b61032c6119f6565b61032c6119fc565b61058b6105863660046141cc565b611a02565b6040516102fb9190614a34565b61035f6105a63660046141cc565b611ab2565b6105be6105b9366004614242565b611c6f565b6040516102fb91906144f5565b6105de6105d9366004613fb8565b612098565b6040516102fb9190614a79565b6103176105f93660046141e4565b6122b2565b61032c612361565b6103176106143660046141cc565b612367565b6103176106273660046141e4565b6123a3565b61032c612404565b6103176106423660046141e4565b61240a565b61035f610655366004613fb8565b612558565b6104ce6106683660046141cc565b6126ba565b61031761067b366004613fb8565b612707565b61031761068e366004614067565b612778565b6103d86106a13660046141cc565b612815565b6103176106b4366004613fd2565b61286c565b6104ce6106c7366004614242565b6129a9565b6106df6106da366004614242565b612ab7565b6040516102fb91906145d8565b6106ff6106fa366004614242565b612c63565b6040516102fb9190614647565b610714613cca565b816001600160a01b03811661072857600080fd5b6001600160a01b038084166000908152600360209081526040918290208251606081018452815490941684526001810180548451818502810185019095528085529193858401939092908301828280156107a157602002820191906000526020600020905b81548152602001906001019080831161078d575b50505091835250506002919091015460ff16151560209091015291505b50919050565b816001600160a01b0381166107d857600080fd5b6107e2828461300c565b6107ec83836130b8565b505050565b6009805460008181526008602081815260408320938455600284018a9055600584018990556006840188905560018401879055938301805463ffff00001961ff0019909116610100171690556004830180546001600160a01b031916905584519193610864929184019190860190613cf6565b507fb74b81e22ed2c551cf1d61041f3314bcb4dc74e133a311f76c5de475735b02646009546040516108969190614af7565b60405180910390a1600980549060006108ae83614c0d565b90915550979650505050505050565b336000908152600b6020526040902054806108f35760405162461bcd60e51b81526004016108ea90614715565b60405180910390fd5b6108fd81876129a9565b6109195760405162461bcd60e51b81526004016108ea90614940565b600061092887878787876107f1565b905061093582888361320a565b50505050505050565b6001600160a01b0381166000908152600660208181526040928390209091018054835181840281018401909452808452606093928301828280156109a157602002820191906000526020600020905b81548152602001906001019080831161098d575b505050505090505b919050565b606060095480600014156109c157600080fd5b83806109cc57600080fd5b846109d681614bc1565b95505083806109e490614bc1565b945050838511156109f457600080fd5b6009548510610a155760405162461bcd60e51b81526004016108ea906148ab565b6009548410610a30576001600954610a2d9190614baa565b93505b6000610a3c8686614baa565b610a47906001614b92565b67ffffffffffffffff811115610a6d57634e487b7160e01b600052604160045260246000fd5b604051908082528060200260200182016040528015610aa657816020015b610a93613d7a565b815260200190600190039081610a8b5790505b509050855b858111610c8c5760008181526008602090815260409182902082516101a081018452815481526001820154818401526002820154818501526003820180548551818602810186019096528086529194929360608601939290830182828015610b3c57602002820191906000526020600020905b81546001600160a01b03168152600190910190602001808311610b1e575b505050918352505060048201546001600160a01b0316602082015260058201546040820152600682015460608201526007820154608082015260088201805460a090920191610b8a90614bd8565b80601f0160208091040260200160405190810160405280929190818152602001828054610bb690614bd8565b8015610c035780601f10610bd857610100808354040283529160200191610c03565b820191906000526020600020905b815481529060010190602001808311610be657829003601f168201915b50505091835250506009919091015460ff80821615156020840152610100820481161515604084015262010000820481161515606084015263010000009091041615156080909101528251839083908110610c6e57634e487b7160e01b600052603260045260246000fd5b60200260200101819052508080610c8490614c0d565b915050610aab565b5095945050505050565b60008160095480821115610ca957600080fd5b8380610cb457600080fd5b60086000610cc3600188614baa565b8152602001908152602001600020600701549350505050919050565b6001600160a01b03166000908152600660208190526040909120015490565b6001600160a01b0382166000908152600660208190526040822001548210610d385760405162461bcd60e51b81526004016108ea906147c9565b6001600160a01b038316600090815260066020819052604090912001805483908110610d7457634e487b7160e01b600052603260045260246000fd5b906000526020600020015490505b92915050565b60008160095480821115610d9b57600080fd5b60086000610daa600187614baa565b81526020810191909152604001600020600401546001600160a01b0316949350505050565b60078181548110610ddf57600080fd5b6000918252602090912001546001600160a01b0316905081565b60058181548110610e0957600080fd5b6000918252602090912060089091020180546001820154600283015460038401546004850154600586018054959750939592946001600160a01b0392831694919092169291610e5790614bd8565b80601f0160208091040260200160405190810160405280929190818152602001828054610e8390614bd8565b8015610ed05780601f10610ea557610100808354040283529160200191610ed0565b820191906000526020600020905b815481529060010190602001808311610eb357829003601f168201915b505050505090806006018054610ee590614bd8565b80601f0160208091040260200160405190810160405280929190818152602001828054610f1190614bd8565b8015610f5e5780601f10610f3357610100808354040283529160200191610f5e565b820191906000526020600020905b815481529060010190602001808311610f4157829003601f168201915b5050506007909301549192505060ff1688565b816000610f7d82613272565b9050610f88816113c9565b610fa45760405162461bcd60e51b81526004016108ea90614940565b6000610faf85610d88565b90506001600160a01b038116610fd75760405162461bcd60e51b81526004016108ea9061484a565b6000610fe286613272565b9050610fef8582886132bb565b60006001610ffb612361565b6110059190614baa565b9050611011818461343b565b61101b87826134ba565b6109358382611407565b600c5460609082106110495760405162461bcd60e51b81526004016108ea9061496b565b600c828154811061106a57634e487b7160e01b600052603260045260246000fd5b9060005260206000209060060201600201805461108690614bd8565b80601f01602080910402602001604051908101604052809291908181526020018280546110b290614bd8565b80156109a15780601f106110d4576101008083540402835291602001916109a1565b820191906000526020600020905b8154815290600101906020018083116110e25750939695505050505050565b60606000600c838154811061112657634e487b7160e01b600052603260045260246000fd5b906000526020600020906006020160010180548060200260200160405190810160405280929190818152602001828054801561118157602002820191906000526020600020905b81548152602001906001019080831161116d575b5093979650505050505050565b611196613d7a565b81806111a157600080fd5b600860006111b0600186614baa565b8152602001908152602001600020604051806101a00160405290816000820154815260200160018201548152602001600282015481526020016003820180548060200260200160405190810160405280929190818152602001828054801561124157602002820191906000526020600020905b81546001600160a01b03168152600190910190602001808311611223575b505050918352505060048201546001600160a01b0316602082015260058201546040820152600682015460608201526007820154608082015260088201805460a09092019161128f90614bd8565b80601f01602080910402602001604051908101604052809291908181526020018280546112bb90614bd8565b80156113085780601f106112dd57610100808354040283529160200191611308565b820191906000526020600020905b8154815290600101906020018083116112eb57829003601f168201915b50505091835250506009919091015460ff80821615156020840152610100820481161515604084015262010000820481161515606084015263010000009091041615156080909101529392505050565b61136061353b565b6001600160a01b0316611371611474565b6001600160a01b0316146113975760405162461bcd60e51b81526004016108ea90614876565b6113a1600061353f565b565b60028181548110610ddf57600080fd5b60075490565b60048181548110610ddf57600080fd5b336000908152600b6020526040812054806113f65760405162461bcd60e51b81526004016108ea90614715565b61140081846129a9565b9392505050565b6001600160a01b038216600090815260066020818152604080842090920180546001810182559084529220909101829055517fa64a320168fc7af2fa4bb2a506ae4dbf56b81b4d25b5e88e668c13f8df90c85290611468908490849061447c565b60405180910390a15050565b6000546001600160a01b031690565b80600061148f82613272565b905061149a816113c9565b6114b65760405162461bcd60e51b81526004016108ea90614940565b6107ec8361358f565b6060816001600160a01b0381166114d557600080fd5b6001600160a01b038316600090815260036020526040902060010154806114fb57600080fd5b6001600160a01b0384166000908152600360209081526040918290206001018054835181840281018401909452808452909183018282801561155c57602002820191906000526020600020905b815481526020019060010190808311611548575b505050505092505050919050565b6001600160a01b0381166000908152600b6020526040902054606090806115a35760405162461bcd60e51b81526004016108ea90614792565b806115ad81614bc1565b9150506000600a82815481106115d357634e487b7160e01b600052603260045260246000fd5b9060005260206000209060040201600201549050600081116116075760405162461bcd60e51b81526004016108ea90614821565b60008167ffffffffffffffff81111561163057634e487b7160e01b600052604160045260246000fd5b604051908082528060200260200182016040528015611659578160200160208202803683370190505b5090506000805b600c54811015611780576000600a868154811061168d57634e487b7160e01b600052603260045260246000fd5b906000526020600020906004020160010182815481106116bd57634e487b7160e01b600052603260045260246000fd5b9060005260206000200154111561176e576001600a86815481106116f157634e487b7160e01b600052603260045260246000fd5b9060005260206000209060040201600101828154811061172157634e487b7160e01b600052603260045260246000fd5b90600052602060002001546117369190614baa565b838361174181614c0d565b94508151811061176157634e487b7160e01b600052603260045260246000fd5b6020026020010181815250505b8061177881614c0d565b915050611660565b509095945050505050565b6000816001600160a01b0381166117a157600080fd5b50506001600160a01b031660009081526006602052604090206005015490565b6117c961353b565b6001600160a01b03166117da611474565b6001600160a01b0316146118005760405162461bcd60e51b81526004016108ea90614876565b846001600160a01b03811661181457600080fd5b6001600160a01b0386166000908152600360205260409020600281015460ff166118505760405162461bcd60e51b81526004016108ea90614997565b600580546001808201808455600084815260408051610100810182528c8152602081018690529081018b90526001600160a01b038d166060820152608081019190915260a0810189905260c0810188905260e081019290925291929091839081106118cb57634e487b7160e01b600052603260045260246000fd5b600091825260209182902083516008909202019081558282015160018201556040830151600282015560608301516003820180546001600160a01b039283166001600160a01b031991821617909155608085015160048401805491909316911617905560a08301518051919261194992600585019290910190613cf6565b5060c08201518051611965916006840191602090910190613cf6565b5060e091909101516007909101805460ff1916911515919091179055600182810180549182018155600090815260209020018190556040517f6ebd5b45b68b36b036925496b54a9c90f49bdc2a23cf8fb9d7f92e13eb113c15906119cc908a90849061447c565b60405180910390a15050505050505050565b60006119ea3384610cfe565b90506107ec81836135e9565b600c5490565b60025490565b611a0a613df3565b600d5482908110611a2d5760405162461bcd60e51b81526004016108ea90614912565b600d8381548110611a4e57634e487b7160e01b600052603260045260246000fd5b60009182526020918290206040805160a081018252600590930290910180546001600160a01b039081168452600182015416938301939093526002830154908201526003820154606082015260049091015460ff1615156080820152915050919050565b600c546060908290808210611ac657600080fd5b6000611ad185613655565b905060008167ffffffffffffffff811115611afc57634e487b7160e01b600052604160045260246000fd5b604051908082528060200260200182016040528015611b25578160200160208202803683370190505b50905060005b600c8781548110611b4c57634e487b7160e01b600052603260045260246000fd5b6000918252602090912060069091020154811015610c8c576000600c8881548110611b8757634e487b7160e01b600052603260045260246000fd5b90600052602060002090600602016000018281548110611bb757634e487b7160e01b600052603260045260246000fd5b90600052602060002001541115611c5d576001600c8881548110611beb57634e487b7160e01b600052603260045260246000fd5b90600052602060002090600602016000018281548110611c1b57634e487b7160e01b600052603260045260246000fd5b9060005260206000200154611c309190614baa565b828281518110611c5057634e487b7160e01b600052603260045260246000fd5b6020026020010181815250505b80611c6781614c0d565b915050611b2b565b60055460609080611c7f57600080fd5b82841115611c8c57600080fd5b6005548410611cad5760405162461bcd60e51b81526004016108ea906148ab565b6005548310611cc857600554611cc590600190614baa565b92505b6000611cd48585614baa565b611cdf906001614b92565b67ffffffffffffffff811115611d0557634e487b7160e01b600052604160045260246000fd5b604051908082528060200260200182016040528015611d3e57816020015b611d2b613e21565b815260200190600190039081611d235790505b509050845b84811161208f5760405180610100016040528060058381548110611d7757634e487b7160e01b600052603260045260246000fd5b906000526020600020906008020160000154815260200160058381548110611daf57634e487b7160e01b600052603260045260246000fd5b906000526020600020906008020160010154815260200160058381548110611de757634e487b7160e01b600052603260045260246000fd5b906000526020600020906008020160020154815260200160058381548110611e1f57634e487b7160e01b600052603260045260246000fd5b6000918252602091829020600360089092020101546001600160a01b0316825260058054929091019184908110611e6657634e487b7160e01b600052603260045260246000fd5b6000918252602091829020600460089092020101546001600160a01b0316825260058054929091019184908110611ead57634e487b7160e01b600052603260045260246000fd5b90600052602060002090600802016005018054611ec990614bd8565b80601f0160208091040260200160405190810160405280929190818152602001828054611ef590614bd8565b8015611f425780601f10611f1757610100808354040283529160200191611f42565b820191906000526020600020905b815481529060010190602001808311611f2557829003601f168201915b5050505050815260200160058381548110611f6d57634e487b7160e01b600052603260045260246000fd5b90600052602060002090600802016006018054611f8990614bd8565b80601f0160208091040260200160405190810160405280929190818152602001828054611fb590614bd8565b80156120025780601f10611fd757610100808354040283529160200191612002565b820191906000526020600020905b815481529060010190602001808311611fe557829003601f168201915b505050505081526020016005838154811061202d57634e487b7160e01b600052603260045260246000fd5b600091825260209091206007600890920201015460ff1615159052826120538884614baa565b8151811061207157634e487b7160e01b600052603260045260246000fd5b6020026020010181905250808061208790614c0d565b915050611d43565b50949350505050565b6120a0613e7a565b816001600160a01b0381166120b457600080fd5b6001600160a01b03831660009081526001602052604090819020815160a081019092528054829082906120e690614bd8565b80601f016020809104026020016040519081016040528092919081815260200182805461211290614bd8565b801561215f5780601f106121345761010080835404028352916020019161215f565b820191906000526020600020905b81548152906001019060200180831161214257829003601f168201915b5050505050815260200160018201805461217890614bd8565b80601f01602080910402602001604051908101604052809291908181526020018280546121a490614bd8565b80156121f15780601f106121c6576101008083540402835291602001916121f1565b820191906000526020600020905b8154815290600101906020018083116121d457829003601f168201915b5050505050815260200160028201805461220a90614bd8565b80601f016020809104026020016040519081016040528092919081815260200182805461223690614bd8565b80156122835780601f1061225857610100808354040283529160200191612283565b820191906000526020600020905b81548152906001019060200180831161226657829003601f168201915b50505091835250506003919091015460ff80821660208401526101009091041615156040909101529392505050565b6122ba61353b565b6001600160a01b03166122cb611474565b6001600160a01b0316146122f15760405162461bcd60e51b81526004016108ea90614876565b806001600160a01b03811661230557600080fd5b816005848154811061232757634e487b7160e01b600052603260045260246000fd5b906000526020600020906008020160040160006101000a8154816001600160a01b0302191690836001600160a01b03160217905550505050565b600d5490565b80600061237382613272565b905061237e816113c9565b61239a5760405162461bcd60e51b81526004016108ea90614940565b6107ec8361371d565b8160006123af82613272565b90506123ba816113c9565b6123d65760405162461bcd60e51b81526004016108ea90614940565b826001600160a01b0381166123ea57600080fd5b6123f48585613774565b6123fd8561358f565b5050505050565b60095490565b61241261353b565b6001600160a01b0316612423611474565b6001600160a01b0316146124495760405162461bcd60e51b81526004016108ea90614876565b806001600160a01b03811661245d57600080fd5b6000600c848154811061248057634e487b7160e01b600052603260045260246000fd5b600091825260208083206001600160a01b0387168452600b90915260409092205460069091029091019150806124c657634e487b7160e01b600052600160045260246000fd5b6000600a6124d5600184614baa565b815481106124f357634e487b7160e01b600052603260045260246000fd5b90600052602060002090600402019050806001018660016125149190614b92565b815460018101835560009283526020832001556002820180549161253783614c0d565b90915550508254600181018455600093845260209093209092015550505050565b6001600160a01b03811660009081526006602052604090206005015460609061259157634e487b7160e01b600052600160045260246000fd5b6001600160a01b03821660009081526006602052604081206005015467ffffffffffffffff8111156125d357634e487b7160e01b600052604160045260246000fd5b6040519080825280602002602001820160405280156125fc578160200160208202803683370190505b5090506000805b6001600160a01b0385166000908152600660205260409020600401548110156126b1576001600160a01b03851660009081526006602090815260408083208484526002810183528184205480855260039091019092529091205460ff161561269e5780848461267181614c0d565b95508151811061269157634e487b7160e01b600052603260045260246000fd5b6020026020010181815250505b50806126a981614c0d565b915050612603565b50909392505050565b600081600954808211156126cd57600080fd5b83806126d857600080fd5b600860006126e7600188614baa565b815260208101919091526040016000206009015460ff1695945050505050565b61270f61353b565b6001600160a01b0316612720611474565b6001600160a01b0316146127465760405162461bcd60e51b81526004016108ea90614876565b6001600160a01b03811661276c5760405162461bcd60e51b81526004016108ea9061474c565b6127758161353f565b50565b61278061353b565b6001600160a01b0316612791611474565b6001600160a01b0316146127b75760405162461bcd60e51b81526004016108ea90614876565b856001600160a01b0381166127cb57600080fd5b6127d887878787876137dc565b600280841614156127ec576127ec8761398f565b600480841614156128005761280087613a92565b60088084161415610935576109358783613bce565b600a54600090829080821061282957600080fd5b600a848154811061284a57634e487b7160e01b600052603260045260246000fd5b60009182526020909120600490910201546001600160a01b0316949350505050565b836001600160a01b03811661288057600080fd5b61288861353b565b6001600160a01b0316612899611474565b6001600160a01b0316146128bf5760405162461bcd60e51b81526004016108ea90614876565b600c80546001810182556000919091528451600682027fdf6966c971051c3d54ec59162606531493a51404a002842f56009d7e5cf4a8c781019161292a917fdf6966c971051c3d54ec59162606531493a51404a002842f56009d7e5cf4a8c901906020890190613cf6565b5084516129409060038301906020880190613cf6565b5083516129569060048301906020870190613cf6565b5060058101805460ff191660011790556040517fcbbf31cd62dff8d3e3fd3ff1549adbbd47b39c0682301e54af8f3a0ffaade4a390612998908990859061447c565b60405180910390a150505050505050565b600c5460009082106129cd5760405162461bcd60e51b81526004016108ea906148e2565b600a5483106129ee5760405162461bcd60e51b81526004016108ea906147f4565b6000600c8381548110612a1157634e487b7160e01b600052603260045260246000fd5b6000918252602082206006909102015491505b81811015612aac5784600c8581548110612a4e57634e487b7160e01b600052603260045260246000fd5b90600052602060002090600602016000018281548110612a7e57634e487b7160e01b600052603260045260246000fd5b90600052602060002001541415612a9a57600192505050610d82565b80612aa481614c0d565b915050612a24565b506000949350505050565b60075460609080612ac757600080fd5b82841115612ad457600080fd5b6007548410612af55760405162461bcd60e51b81526004016108ea906148ab565b6007548310612b1057600754612b0d90600190614baa565b92505b6000612b1c8585614baa565b612b27906001614b92565b67ffffffffffffffff811115612b4d57634e487b7160e01b600052604160045260246000fd5b604051908082528060200260200182016040528015612b8657816020015b612b73613eae565b815260200190600190039081612b6b5790505b509050845b84811161208f5760006006600060078481548110612bb957634e487b7160e01b600052603260045260246000fd5b60009182526020808320909101546001600160a01b039081168452838201949094526040928301909120825160808101845281549094168452600181015491840191909152600581015491830191909152600781015460ff1615156060830152915083612c268985614baa565b81518110612c4457634e487b7160e01b600052603260045260246000fd5b60200260200101819052508180612c5a90614c0d565b92505050612b8b565b600c5460609080612c7357600080fd5b82841115612c8057600080fd5b600c548410612ca15760405162461bcd60e51b81526004016108ea906148ab565b600c548310612cbc57600c54612cb990600190614baa565b92505b6000612cc88585614baa565b612cd3906001614b92565b67ffffffffffffffff811115612cf957634e487b7160e01b600052604160045260246000fd5b604051908082528060200260200182016040528015612d3257816020015b612d1f613ee1565b815260200190600190039081612d175790505b509050845b84811161208f576040518060800160405280600c8381548110612d6a57634e487b7160e01b600052603260045260246000fd5b90600052602060002090600602016002018054612d8690614bd8565b80601f0160208091040260200160405190810160405280929190818152602001828054612db290614bd8565b8015612dff5780601f10612dd457610100808354040283529160200191612dff565b820191906000526020600020905b815481529060010190602001808311612de257829003601f168201915b50505050508152602001600c8381548110612e2a57634e487b7160e01b600052603260045260246000fd5b90600052602060002090600602016003018054612e4690614bd8565b80601f0160208091040260200160405190810160405280929190818152602001828054612e7290614bd8565b8015612ebf5780601f10612e9457610100808354040283529160200191612ebf565b820191906000526020600020905b815481529060010190602001808311612ea257829003601f168201915b50505050508152602001600c8381548110612eea57634e487b7160e01b600052603260045260246000fd5b90600052602060002090600602016004018054612f0690614bd8565b80601f0160208091040260200160405190810160405280929190818152602001828054612f3290614bd8565b8015612f7f5780601f10612f5457610100808354040283529160200191612f7f565b820191906000526020600020905b815481529060010190602001808311612f6257829003601f168201915b50505050508152602001600c8381548110612faa57634e487b7160e01b600052603260045260246000fd5b600091825260209091206005600690920201015460ff161515905282612fd08884614baa565b81518110612fee57634e487b7160e01b600052603260045260246000fd5b6020026020010181905250808061300490614c0d565b915050612d37565b816009548082111561301d57600080fd5b838061302857600080fd5b60086000613037600188614baa565b815260208082019290925260409081016000908120600301805460018101825590825292902090910180546001600160a01b0319166001600160a01b038716179055517fc307fc17fe83556f9fb433b29e4b3c62d9ff95510c7bd3215592c16041d81488906130a99087908790614b00565b60405180910390a15050505050565b6130c061353b565b6001600160a01b03166130d1611474565b6001600160a01b0316146130f75760405162461bcd60e51b81526004016108ea90614876565b816001600160a01b03811661310b57600080fd5b818061311657600080fd5b6001600160a01b03841660009081526006602052604090206007015460ff1661314f57634e487b7160e01b600052600160045260246000fd5b6001600160a01b03841660009081526006602052604081206004018054908261317783614c0d565b909155506001600160a01b03861660008181526006602081815260408084208685526002810183528185208b90558a8552600381018352908420805460ff191660011790559383525260059091018054929350906131d483614c0d565b91905055507fcd13c9c12305e70e268e3608aad04ff3a1e9c696deeacaff175d26eada2ec62a85856040516130a992919061447c565b600a54831061321857600080fd5b600c828154811061323957634e487b7160e01b600052603260045260246000fd5b90600052602060002090600602016001018160016132579190614b92565b81546001810183556000928352602090922090910155505050565b6000818061327f57600080fd5b826009548082111561329057600080fd5b6008600061329f600188614baa565b8152602001908152602001600020600201549350505050919050565b6040805160a0810182526001600160a01b0380861682526000602083018181529383018681526060840186815260808501838152600d80546001818101835595829052965160059097027fd7b6990105719101dabeb77144f2a3385c8033acd3af97e9423a695e81ad1eb5810180549888166001600160a01b0319998a1617905597517fd7b6990105719101dabeb77144f2a3385c8033acd3af97e9423a695e81ad1eb6890180549190971697169690961790945590517fd7b6990105719101dabeb77144f2a3385c8033acd3af97e9423a695e81ad1eb7860155517fd7b6990105719101dabeb77144f2a3385c8033acd3af97e9423a695e81ad1eb885015590517fd7b6990105719101dabeb77144f2a3385c8033acd3af97e9423a695e81ad1eb9909301805493151560ff1990941693909317909255547f92e1244fb0ae9fa971febd084422b4d2fabe644650512a440ede7884706fb9669161341f91614baa565b8260405161342e929190614b17565b60405180910390a1505050565b600d548290811061345e5760405162461bcd60e51b81526004016108ea90614912565b81600d848154811061348057634e487b7160e01b600052603260045260246000fd5b906000526020600020906005020160010160006101000a8154816001600160a01b0302191690836001600160a01b03160217905550505050565b81600954808211156134cb57600080fd5b83806134d657600080fd5b6001600860006134e68389614baa565b815260200190815260200160002060090160006101000a81548160ff02191690831515021790555083600860006001886135209190614baa565b81526020810191909152604001600020600701555050505050565b3390565b600080546001600160a01b038381166001600160a01b0319831681178455604051919092169283917f8be0079c531659141344cd1fd0a4f28419497f9722a3daafe3b4186f6b6457e09190a35050565b80600954808211156135a057600080fd5b82806135ab57600080fd5b6001600860006135bb8388614baa565b815260200190815260200160002060090160026101000a81548160ff02191690831515021790555050505050565b600d548290811061360c5760405162461bcd60e51b81526004016108ea90614912565b81600d848154811061362e57634e487b7160e01b600052603260045260246000fd5b60009182526020909120600590910201600401805460ff1916911515919091179055505050565b600080805b600c848154811061367b57634e487b7160e01b600052603260045260246000fd5b600091825260209091206006909102015481101561371657600c84815481106136b457634e487b7160e01b600052603260045260246000fd5b906000526020600020906006020160000181815481106136e457634e487b7160e01b600052603260045260246000fd5b9060005260206000200154600014613704578161370081614c0d565b9250505b8061370e81614c0d565b91505061365a565b5092915050565b808061372857600080fd5b816009548082111561373957600080fd5b8361374381614bc1565b6000908152600860205260409020600901805462ff00001963ff000000199091166301000000171690555050505050565b818061377f57600080fd5b826009548082111561379057600080fd5b83600860006137a0600189614baa565b815260200190815260200160002060040160006101000a8154816001600160a01b0302191690836001600160a01b031602179055505050505050565b6137e461353b565b6001600160a01b03166137f5611474565b6001600160a01b03161461381b5760405162461bcd60e51b81526004016108ea90614876565b846001600160a01b03811661382f57600080fd5b6040805160a081018252868152602080820187905281830186905260ff851660608301526001608083018190526001600160a01b038a1660009081529082529290922081518051929391926138879284920190613cf6565b5060208281015180516138a09260018501920190613cf6565b50604082015180516138bc916002840191602090910190613cf6565b5060608201516003909101805460809093015115156101000261ff001960ff90931660ff199094169390931791909116919091179055600280546001818101835560008390527f405787fa12a823e0f2b7631cc41b3ba8828b3321ca811111fa75cd3aa3bb5ace90910180546001600160a01b038a166001600160a01b031990911617905590547f25ddd06f7eaeb83bb3fbcaa231d4b89e2d7bcd781043983661920061e755a7f09188916139719190614baa565b60405161397f92919061447c565b60405180910390a1505050505050565b61399761353b565b6001600160a01b03166139a8611474565b6001600160a01b0316146139ce5760405162461bcd60e51b81526004016108ea90614876565b806001600160a01b0381166139e257600080fd5b60048054600181810183557f8a35acfbc15ff81a39ae7d344fd709f28e8600b4aa8c65c6b64bfe7fe36bd19b90910180546001600160a01b0386166001600160a01b0319918216811790925560008281526003602052604090208054909116909117815560028101805460ff19168317905591547fb33697d74ba91a225da88048bf57b244fc8aa1a7b8f90aeb4788b8a4ef65d1cf918591613a849190614baa565b60405161342e92919061447c565b613a9a61353b565b6001600160a01b0316613aab611474565b6001600160a01b031614613ad15760405162461bcd60e51b81526004016108ea90614876565b806001600160a01b038116613ae557600080fd5b600a8054600180820183556000929092527fc65a7bb8d6351c1cf70c95a316cc6a92839c986682d98bc35f958f4883f9d2a86004820290810180546001600160a01b0319166001600160a01b0387161781557fc65a7bb8d6351c1cf70c95a316cc6a92839c986682d98bc35f958f4883f9d2ab909101805460ff1916841790559091613b72908390614b92565b6001600160a01b0385166000908152600b60205260409081902091909155517fecc5d9929809b3db05d64ac37958ea2e6d0676af617f0d6ebec74a40e43382b790613bc0908690859061447c565b60405180910390a150505050565b613bd661353b565b6001600160a01b0316613be7611474565b6001600160a01b031614613c0d5760405162461bcd60e51b81526004016108ea90614876565b816001600160a01b038116613c2157600080fd5b60078054600181810183557fa66cc928b5edb82af9bd49922954155ab7b0942694bea4ce44661d9a8736c68890910180546001600160a01b0387166001600160a01b031991821681179092556000828152600660205260409081902080549092169092178155808301869055928301805460ff1916909217909155517fa448e5e847c6d262439050f776e09d4734f840b963b23fcfb5cd33cd233518e690613bc0908690614468565b604051806060016040528060006001600160a01b03168152602001606081526020016000151581525090565b828054613d0290614bd8565b90600052602060002090601f016020900481019282613d245760008555613d6a565b82601f10613d3d57805160ff1916838001178555613d6a565b82800160010185558215613d6a579182015b82811115613d6a578251825591602001919060010190613d4f565b50613d76929150613f0b565b5090565b604051806101a001604052806000815260200160008152602001600081526020016060815260200160006001600160a01b03168152602001600081526020016000815260200160008152602001606081526020016000151581526020016000151581526020016000151581526020016000151581525090565b6040805160a08101825260008082526020820181905291810182905260608101829052608081019190915290565b60405180610100016040528060008152602001600081526020016000815260200160006001600160a01b0316815260200160006001600160a01b0316815260200160608152602001606081526020016000151581525090565b6040518060a00160405280606081526020016060815260200160608152602001600060ff1681526020016000151581525090565b604051806080016040528060006001600160a01b0316815260200160008152602001600081526020016000151581525090565b60405180608001604052806060815260200160608152602001606081526020016000151581525090565b5b80821115613d765760008155600101613f0c565b80356001600160a01b03811681146109a957600080fd5b600082601f830112613f47578081fd5b813567ffffffffffffffff80821115613f6257613f62614c3e565b604051601f8301601f191681016020018281118282101715613f8657613f86614c3e565b604052828152848301602001861015613f9d578384fd5b82602086016020830137918201602001929092529392505050565b600060208284031215613fc9578081fd5b61140082613f20565b60008060008060808587031215613fe7578283fd5b613ff085613f20565b9350602085013567ffffffffffffffff8082111561400c578485fd5b61401888838901613f37565b9450604087013591508082111561402d578384fd5b61403988838901613f37565b9350606087013591508082111561404e578283fd5b5061405b87828801613f37565b91505092959194509250565b60008060008060008060c0878903121561407f578182fd5b61408887613f20565b9550602087013567ffffffffffffffff808211156140a4578384fd5b6140b08a838b01613f37565b965060408901359150808211156140c5578384fd5b6140d18a838b01613f37565b955060608901359150808211156140e6578384fd5b506140f389828a01613f37565b935050608087013560ff81168114614109578283fd5b8092505060a087013590509295509295509295565b60008060408385031215614130578182fd5b61413983613f20565b946020939093013593505050565b600080600080600060a0868803121561415e578081fd5b61416786613f20565b94506020860135935060408601359250606086013567ffffffffffffffff80821115614191578283fd5b61419d89838a01613f37565b935060808801359150808211156141b2578283fd5b506141bf88828901613f37565b9150509295509295909350565b6000602082840312156141dd578081fd5b5035919050565b600080604083850312156141f6578182fd5b8235915061420660208401613f20565b90509250929050565b60008060408385031215614221578182fd5b8235915060208301358015158114614237578182fd5b809150509250929050565b60008060408385031215614254578182fd5b50508035926020909101359150565b600080600080600060a0868803121561427a578081fd5b85359450602086013593506040860135925060608601359150608086013567ffffffffffffffff8111156142ac578182fd5b6141bf88828901613f37565b6001600160a01b03169052565b6000815180845260208085019450808401835b838110156142fd5781516001600160a01b0316875295820195908201906001016142d8565b509495945050505050565b6000815180845260208085019450808401835b838110156142fd5781518752958201959082019060010161431b565b15159052565b60008151808452815b8181101561436257602081850181015186830182015201614346565b818111156143735782602083870101525b50601f01601f19169290920160200192915050565b60006101a082518452602083015160208501526040830151604085015260608301518160608601526143bc828601826142c5565b91505060808301516143d160808601826142b8565b5060a083015160a085015260c083015160c085015260e083015160e08501526101008084015185830382870152614408838261433d565b925050506101208084015161441f82870182614337565b50506101408084015161443482870182614337565b50506101608084015161444982870182614337565b50506101808084015161445e82870182614337565b5090949350505050565b6001600160a01b0391909116815260200190565b6001600160a01b03929092168252602082015260400190565b6000602080830181845280855180835260408601915060408482028701019250838701855b828110156144e857603f198886030184526144d6858351614388565b945092850192908501906001016144ba565b5092979650505050505050565b60208082528251828201819052600091906040908185019080840286018301878501865b838110156145ca57888303603f19018552815180518452878101518885015286810151878501526060808201516001600160a01b031690850152608080820151610100919061456a828801826142b8565b505060a08083015182828801526145838388018261433d565b9250505060c0808301518683038288015261459e838261433d565b9250505060e08083015192506145b681870184614337565b509588019593505090860190600101614519565b509098975050505050505050565b602080825282518282018190526000919060409081850190868401855b8281101561463a57815180516001600160a01b0316855286810151878601528581015186860152606090810151151590850152608090930192908501906001016145f5565b5091979650505050505050565b60208082528251828201819052600091906040908185019080840286018301878501865b838110156145ca57603f198984030185528151608081518186526146918287018261433d565b915050888201518582038a8701526146a9828261433d565b91505087820151858203898701526146c1828261433d565b60609384015115159690930195909552509487019492509086019060010161466b565b6000602082526114006020830184614308565b901515815260200190565b600060208252611400602083018461433d565b60208082526018908201527f796f75206d75737420626520616e206f7267616e697a65720000000000000000604082015260600190565b60208082526026908201527f4f776e61626c653a206e6577206f776e657220697320746865207a65726f206160408201526564647265737360d01b606082015260800190565b60208082526018908201527f75736572206973206e6f7420616e206f7267616e697a65720000000000000000604082015260600190565b602080825260119082015270696e6478206f7574206f662072616e676560781b604082015260600190565b60208082526013908201527213dc99d85b9a5e995c881b9bdd08199bdd5b99606a1b604082015260600190565b6020808252600f908201526e37379039bab139b1b934b83a34b7b760891b604082015260600190565b60208082526012908201527114d95d08184815da5b9b995c88119a5c9cdd60721b604082015260600190565b6020808252818101527f4f776e61626c653a2063616c6c6572206973206e6f7420746865206f776e6572604082015260600190565b60208082526017908201527f5374617274496e646578206f7574206f662072616e6765000000000000000000604082015260600190565b60208082526016908201527513dc99d85b9a5e985d1a5bdb881b9bdd08199bdd5b9960521b604082015260600190565b6020808252601490820152734d6564616c4944206f7574206f662072616e676560601b604082015260600190565b6020808252601190820152703cb7ba9036bab9ba1031329030b236b4b760791b604082015260600190565b6020808252601290820152716f72674944206f7574206f662072616e676560701b604082015260600190565b60208082526024908201527f417574686f72206d75737420626520616374697620746f2061646420437265616040820152633a34b7b760e11b606082015260800190565b602080825282516001600160a01b03168282015282015160606040830152600090614a096080840182614308565b90506040840151151560608401528091505092915050565b6000602082526114006020830184614388565b81516001600160a01b03908116825260208084015190911690820152604080830151908201526060808301519082015260809182015115159181019190915260a00190565b600060208252825160a06020840152614a9560c084018261433d565b90506020840151601f1980858403016040860152614ab3838361433d565b9250604086015191508085840301606086015250614ad1828261433d565b91505060ff60608501511660808401526080840151151560a08401528091505092915050565b90815260200190565b9182526001600160a01b0316602082015260400190565b918252602082015260400190565b88815260208101889052604081018790526001600160a01b0386811660608301528516608082015261010060a08201819052600090614b668382018761433d565b905082810360c0840152614b7a818661433d565b91505082151560e08301529998505050505050505050565b60008219821115614ba557614ba5614c28565b500190565b600082821015614bbc57614bbc614c28565b500390565b600081614bd057614bd0614c28565b506000190190565b600281046001821680614bec57607f821691505b602082108114156107be57634e487b7160e01b600052602260045260246000fd5b6000600019821415614c2157614c21614c28565b5060010190565b634e487b7160e01b600052601160045260246000fd5b634e487b7160e01b600052604160045260246000fdfea2646970667358221220d59c97ba02fa81ddbb2d43e776e8c26c56a807e31fb19fdb64c21f3818c1f88b64736f6c63430008000033",
  "immutableReferences": {},
  "source": "// SPDX-License-Identifier: MIT\r\npragma solidity ^0.8;\r\nimport \"@openzeppelin/contracts/access/Ownable.sol\";\r\nimport \"./Dapp Internal Struct/UserHandler.sol\";\r\nimport \"./Dapp Internal Struct/AuthorHandler.sol\";\r\nimport \"./Dapp Internal Struct/SportsmanHandler.sol\";\r\nimport \"./Dapp Internal Struct/EventHandler.sol\";\r\nimport \"./Dapp Internal Struct/OrganizerHandler.sol\";\r\nimport \"./Dapp Internal Struct/MedalHandler.sol\";\r\n\r\ncontract MedalVerse is\r\n\tOwnable,\r\n\tUserHandler,\r\n\tAuthorHandler,\r\n\tSportsmanHandler,\r\n\tEventHandler,\r\n\tOrganizerHandler,\r\n\tMedalHandler\r\n{\r\n\t// Modifiers ----------------------------\r\n\tmodifier isNotNull(address a)\r\n\t\tvirtual\r\n\t\toverride(\r\n\t\t\tUserHandler,\r\n\t\t\tAuthorHandler,\r\n\t\t\tSportsmanHandler,\r\n\t\t\tEventHandler,\r\n\t\t\tOrganizerHandler\r\n\t\t) {\r\n\t\trequire(a != address(0));\r\n\t\t_;\r\n\t}\r\n\tmodifier isNotNullUint256(uint256 a)\r\n\t\tvirtual\r\n\t\toverride(\r\n\t\t\tOrganizerHandler,\r\n\t\t\tSportsmanHandler,\r\n\t\t\tEventHandler,\r\n\t\t\tAuthorHandler\r\n\t\t) {\r\n\t\trequire(a != 0);\r\n\t\t_;\r\n\t}\r\n\r\n\tmodifier isAdminOfEvent(uint256 eventID) {\r\n\t\tuint256 organizationId = getEventOrganizer(eventID);\r\n\r\n\t\trequire(checkorganizerisAdminOf(organizationId), \"you must be admin\");\r\n\t\t_;\r\n\t}\r\n\r\n\t// Methods -------------------------------\r\n\r\n\t///@dev Add a new user to the DB, using parent classes\r\n\t///@param _userAddress userAddr\r\n\t///@param _iconURI Image for the UI\r\n\t///@param _userName FName + LName\r\n\t///@param _email email address\r\n\t///@param _role Author / Organizer / sportsman\r\n\t///@param _sportsCategory id of the event\r\n\tfunction addNewUser(\r\n\t\taddress _userAddress,\r\n\t\tstring memory _iconURI,\r\n\t\tstring memory _userName,\r\n\t\tstring memory _email,\r\n\t\tuint8 _role,\r\n\t\tuint256 _sportsCategory\r\n\t) public onlyOwner isNotNull(_userAddress) {\r\n\t\taddUser(_userAddress, _iconURI, _userName, _email, _role);\r\n\r\n\t\tif ((_role & 2) == 2) addAuthor(_userAddress);\r\n\t\tif ((_role & 4) == 4) addOrganizer(_userAddress);\r\n\t\tif ((_role & 8) == 8) addSportsman(_userAddress, _sportsCategory);\r\n\t}\r\n\r\n\t///@dev register a user to an event and event to user\r\n\t///@param _userAddress address of the user\r\n\t///@param eventid id of the event\r\n\tfunction LinkUserAndEvent(address _userAddress, uint256 eventid)\r\n\t\tpublic\r\n\t\tisNotNull(_userAddress)\r\n\t{\r\n\t\tEventRegisterSportsman(eventid, _userAddress); // checks both values\r\n\t\tregisterSportsmanToEvent(_userAddress, eventid); // no check required, already don above\r\n\t}\r\n\r\n\t///@dev creates a new event, associated to an organization\r\n\t///@param organizationId Id Of the Organization\r\n\t///@param startDate starting Date\r\n\t///@param endDate ending Date\r\n\t///@param sportsCategory Category of sport for the event\r\n\t///@param eventDesc Description for the event\r\n\tfunction newEvent(\r\n\t\tuint256 organizationId,\r\n\t\tuint256 startDate,\r\n\t\tuint256 endDate,\r\n\t\tuint256 sportsCategory,\r\n\t\tstring memory eventDesc\r\n\t) public {\r\n\t\t// We first neet to check that the sender corresponds to an organizer\r\n\t\tuint256 organizerId = organizerByAddress[msg.sender];\r\n\t\trequire(organizerId > 0, \"you must be an organizer\");\r\n\r\n\t\trequire(\r\n\t\t\tcheckorganizerisAdminOf(organizerId, organizationId),\r\n\t\t\t\"you must be admin\"\r\n\t\t);\r\n\t\tuint256 eventID = addEvent(\r\n\t\t\torganizationId,\r\n\t\t\tstartDate,\r\n\t\t\tendDate,\r\n\t\t\tsportsCategory,\r\n\t\t\teventDesc\r\n\t\t);\r\n\t\torganizerAddEvent(organizerId, organizationId, eventID);\r\n\t}\r\n\r\n\t///@dev The event starts now\r\n\t///@param eventID id of the event\r\n\tfunction adminStartEvent(uint256 eventID) external isAdminOfEvent(eventID) {\r\n\t\tstartEvent(eventID);\r\n\t}\r\n\r\n\t///@dev The event ends now\r\n\t///@param eventID id of the event\r\n\tfunction adminEndEvent(uint256 eventID) external isAdminOfEvent(eventID) {\r\n\t\tendEvent(eventID);\r\n\t}\r\n\r\n\t///@dev The event gets a winner and closes\r\n\t///@param eventID id of the event\r\n\tfunction adminSetWinner(uint256 eventID, address winner)\r\n\t\texternal\r\n\t\tisAdminOfEvent(eventID)\r\n\t\tisNotNull(winner)\r\n\t{\r\n\t\tsetEventWinner(eventID, winner);\r\n\t\tendEvent(eventID);\r\n\t}\r\n\r\n\tfunction adminAddMedal(uint256 eventID, address _nft)\r\n\t\texternal\r\n\t\tisAdminOfEvent(eventID)\r\n\t{\r\n\t\taddress winner = getWinner(eventID);\r\n\t\trequire(winner != address(0), \"Set a Winner First\");\r\n\t\tuint256 orgId = getEventOrganizer(eventID);\r\n\t\taddMedal(_nft, orgId, eventID);\r\n\t\tuint256 medalID = getMedalCount() - 1;\r\n\t\t// If the winner is already set, then we need to affect it to the medal\r\n\t\tsetMedalWinner(medalID, winner);\r\n\t\t// registers medal to the event and sportsman structure\r\n\t\teventSetMedal(eventID, medalID);\r\n\t\tsportsmanAddMedal(winner, medalID);\r\n\t}\r\n\r\n\tfunction publishMedal(uint256 medalIndx, bool status) public {\r\n\t\tuint256 mdID = getSportsmanMedal(msg.sender, medalIndx); // converts sportsMan->medalIndx => medalID\r\n\t\tmedalPublish(mdID, status);\r\n\t}\r\n}\r\n",
  "sourcePath": "C:\\DEV\\ETH\\Alyra\\MedalVerse\\MedalVerse-Front\\contracts\\MedalVerse.sol",
  "compiler": {
    "name": "solc",
    "version": "0.8.0+commit.c7dfd78e.Emscripten.clang"
  },
  "schemaVersion": "3.4.4",
  "updatedAt": "2022-01-03T09:52:04.937Z",
  "networkType": "ethereum",
  "devdoc": {
    "kind": "dev",
    "methods": {
      "LinkUserAndEvent(address,uint256)": {
        "details": "register a user to an event and event to user",
        "params": {
          "_userAddress": "address of the user",
          "eventid": "id of the event"
        }
      },
      "addCreation(address,uint256,uint256,string,string)": {
        "details": "Register a creation for a given author",
        "params": {
          "_URI": "Address of the image, used before minting the NFT",
          "_description": "may be null",
          "_price": "Price of the NFT",
          "_sportCategory": "Category for UI",
          "_user": "Address of the user to register as author"
        }
      },
      "addEvent(uint256,uint256,uint256,uint256,string)": {
        "details": "add an event to the list of events",
        "params": {
          "_endDate": "Date for the event to finish",
          "_eventDescription": "Desc of the evnt",
          "_organizedBy": "id of the oganization",
          "_sportCategory": "Type of event",
          "_startDate": "Date for the event to start"
        }
      },
      "addNewUser(address,string,string,string,uint8,uint256)": {
        "details": "Add a new user to the DB, using parent classes",
        "params": {
          "_email": "email address",
          "_iconURI": "Image for the UI",
          "_role": "Author / Organizer / sportsman",
          "_sportsCategory": "id of the event",
          "_userAddress": "userAddr",
          "_userName": "FName + LName"
        }
      },
      "addOrganization(address,string,string,string)": {
        "details": "add an organization to the list of orgs",
        "params": {
          "_description": "UI description text",
          "_logoURI": "Link to the icon lo\t\tuser.organizationState[orgId] = true;",
          "_name": "UI dislay name",
          "_user": "admin of the organization"
        }
      },
      "adminEndEvent(uint256)": {
        "details": "The event ends now",
        "params": {
          "eventID": "id of the event"
        }
      },
      "adminSetWinner(uint256,address)": {
        "details": "The event gets a winner and closes",
        "params": {
          "eventID": "id of the event"
        }
      },
      "adminStartEvent(uint256)": {
        "details": "The event starts now",
        "params": {
          "eventID": "id of the event"
        }
      },
      "affectNFTtoCreation(uint256,address)": {
        "details": "Register a creation for a given author TESTED",
        "params": {
          "_NFT": "Address of the minted NFT",
          "_creationId": "index of the creation as registered in allCreations"
        }
      },
      "checkorganizerisAdminOf(uint256)": {
        "details": "returns true if the user is admin of the organization",
        "params": {
          "orgIndx": "index amoung organizations"
        }
      },
      "checkorganizerisAdminOf(uint256,uint256)": {
        "details": "returns true if the user is admin of the organization",
        "params": {
          "orgIndx": "index amoung organizations",
          "organizer": "index amoung organizers"
        }
      },
      "getAdminList(uint256)": {
        "details": "returns the list activ admin of an organisation",
        "params": {
          "orgIndx": "index amoung organizations"
        }
      },
      "getAuthor(address)": {
        "details": "returns the Author struc corresponding to the user TESTED",
        "params": {
          "_user": "user address"
        }
      },
      "getAuthorCreationsList(address)": {
        "details": "returns the list of creations for user _author TESTED",
        "params": {
          "_author": "address of the user"
        }
      },
      "getCreationList(uint256,uint256)": {
        "details": "returns the list of creations: they may be inactive, must test activ value TESTED",
        "params": {
          "_end": "ending index - paging",
          "_start": "start index  - paging"
        }
      },
      "getEvent(uint256)": {
        "details": "returns the details of a specific event",
        "params": {
          "eventId": "id of the event"
        }
      },
      "getEventCount()": {
        "details": "returns the number of Events"
      },
      "getEventList(uint256,uint256)": {
        "details": "returns the list of Events",
        "params": {
          "_end": "ending index - paging",
          "_start": "start index  - paging"
        }
      },
      "getNumberOfSportsman()": {
        "details": "returns the number of Sportsman"
      },
      "getOrganisationCount()": {
        "details": "returns the number of Organizations"
      },
      "getOrganizationsList(uint256,uint256)": {
        "details": "returns the list of organization : they may be inactive, must test activ value",
        "params": {
          "_end": "ending index amoung ogranizations",
          "_start": "starting index amoung organizations"
        }
      },
      "getOrganizerAddressById(uint256)": {
        "details": "returns the address of an admin, given an id organizer",
        "params": {
          "id": "id (=index) of the organizer"
        }
      },
      "getOrganizerOrganisationList(address)": {
        "details": "returns the list of organization the organizer subscribed to",
        "params": {
          "_user": "address of the user"
        }
      },
      "getSportsManEventsNumber(address)": {
        "details": "returns the nb of activ events the sportsman registered to",
        "params": {
          "sportsmanId": "address of the sportsman"
        }
      },
      "getSportsmanEventsSubscriptions(address)": {
        "details": "returns the list of activ events the sportsman registered to",
        "params": {
          "sportsmanId": "address of the sportsman"
        }
      },
      "getSportsmanList(uint256,uint256)": {
        "details": "returns the list of organization : they may be inactif, must test activ value",
        "params": {
          "_end": "ending index amoung ogranizations",
          "_start": "starting index amoung organizations"
        }
      },
      "getUserDetails(address)": {
        "details": "Returns details about a user, given an address (for UI=)",
        "params": {
          "_userAdr": "of the user"
        }
      },
      "getWinner(uint256)": {
        "details": "returns the winner of the event",
        "params": {
          "eventId": "id of the event"
        }
      },
      "newEvent(uint256,uint256,uint256,uint256,string)": {
        "details": "creates a new event, associated to an organization",
        "params": {
          "endDate": "ending Date",
          "eventDesc": "Description for the event",
          "organizationId": "Id Of the Organization",
          "sportsCategory": "Category of sport for the event",
          "startDate": "starting Date"
        }
      },
      "organizationAddAdmin(uint256,address)": {
        "details": "add an admin to an org.",
        "params": {
          "_user": "admin of the organizatio",
          "orgId": "id of the organization"
        }
      },
      "owner()": {
        "details": "Returns the address of the current owner."
      },
      "renounceOwnership()": {
        "details": "Leaves the contract without owner. It will not be possible to call `onlyOwner` functions anymore. Can only be called by the current owner. NOTE: Renouncing ownership will leave the contract without an owner, thereby removing any functionality that is only available to the owner."
      },
      "transferOwnership(address)": {
        "details": "Transfers ownership of the contract to a new account (`newOwner`). Can only be called by the current owner."
      }
    },
    "version": 1
  },
  "userdoc": {
    "kind": "user",
    "methods": {},
    "version": 1
  }
}