{
  "contractName": "MedalVerse",
  "abi": [
    {
      "inputs": [
        {
          "internalType": "address",
          "name": "addressToken",
          "type": "address"
        }
      ],
      "stateMutability": "nonpayable",
      "type": "constructor"
    },
    {
      "anonymous": false,
      "inputs": [
        {
          "indexed": false,
          "internalType": "address",
          "name": "usrAddr",
          "type": "address"
        },
        {
          "indexed": false,
          "internalType": "uint256",
          "name": "indx",
          "type": "uint256"
        }
      ],
      "name": "AuthorAdded",
      "type": "event"
    },
    {
      "anonymous": false,
      "inputs": [
        {
          "indexed": false,
          "internalType": "address",
          "name": "usrAddr",
          "type": "address"
        },
        {
          "indexed": false,
          "internalType": "uint256",
          "name": "indx",
          "type": "uint256"
        }
      ],
      "name": "CreationAdded",
      "type": "event"
    },
    {
      "anonymous": false,
      "inputs": [
        {
          "indexed": false,
          "internalType": "uint256",
          "name": "medalID",
          "type": "uint256"
        },
        {
          "indexed": false,
          "internalType": "uint256",
          "name": "eventID",
          "type": "uint256"
        }
      ],
      "name": "MedalAdded",
      "type": "event"
    },
    {
      "anonymous": false,
      "inputs": [
        {
          "indexed": false,
          "internalType": "address",
          "name": "_user",
          "type": "address"
        },
        {
          "indexed": false,
          "internalType": "uint256",
          "name": "indx",
          "type": "uint256"
        }
      ],
      "name": "OganizationAdded",
      "type": "event"
    },
    {
      "anonymous": false,
      "inputs": [
        {
          "indexed": false,
          "internalType": "address",
          "name": "_user",
          "type": "address"
        },
        {
          "indexed": false,
          "internalType": "uint256",
          "name": "indx",
          "type": "uint256"
        }
      ],
      "name": "OrganizerAdded",
      "type": "event"
    },
    {
      "anonymous": false,
      "inputs": [
        {
          "indexed": true,
          "internalType": "address",
          "name": "previousOwner",
          "type": "address"
        },
        {
          "indexed": true,
          "internalType": "address",
          "name": "newOwner",
          "type": "address"
        }
      ],
      "name": "OwnershipTransferred",
      "type": "event"
    },
    {
      "anonymous": false,
      "inputs": [
        {
          "indexed": false,
          "internalType": "address",
          "name": "usrAddr",
          "type": "address"
        },
        {
          "indexed": false,
          "internalType": "uint256",
          "name": "indx",
          "type": "uint256"
        }
      ],
      "name": "UserAdded",
      "type": "event"
    },
    {
      "anonymous": false,
      "inputs": [
        {
          "indexed": false,
          "internalType": "uint256",
          "name": "eventId",
          "type": "uint256"
        }
      ],
      "name": "eventAdded",
      "type": "event"
    },
    {
      "anonymous": false,
      "inputs": [
        {
          "indexed": false,
          "internalType": "uint256",
          "name": "eventId",
          "type": "uint256"
        },
        {
          "indexed": false,
          "internalType": "address",
          "name": "sportsmanId",
          "type": "address"
        }
      ],
      "name": "eventRegisterSportsman",
      "type": "event"
    },
    {
      "anonymous": false,
      "inputs": [
        {
          "indexed": false,
          "internalType": "uint256",
          "name": "eventId",
          "type": "uint256"
        }
      ],
      "name": "eventRemoved",
      "type": "event"
    },
    {
      "anonymous": false,
      "inputs": [
        {
          "indexed": false,
          "internalType": "uint256",
          "name": "eventID",
          "type": "uint256"
        },
        {
          "indexed": false,
          "internalType": "enum stateOfCompetition",
          "name": "newStatus",
          "type": "uint8"
        }
      ],
      "name": "eventStatusChanged",
      "type": "event"
    },
    {
      "anonymous": false,
      "inputs": [
        {
          "indexed": false,
          "internalType": "uint256",
          "name": "eventId",
          "type": "uint256"
        },
        {
          "indexed": false,
          "internalType": "address",
          "name": "winner",
          "type": "address"
        }
      ],
      "name": "eventWinnerSet",
      "type": "event"
    },
    {
      "anonymous": false,
      "inputs": [],
      "name": "organizerAddedEvent",
      "type": "event"
    },
    {
      "anonymous": false,
      "inputs": [
        {
          "indexed": false,
          "internalType": "address",
          "name": "usrAddr",
          "type": "address"
        }
      ],
      "name": "sportsmanAdded",
      "type": "event"
    },
    {
      "anonymous": false,
      "inputs": [
        {
          "indexed": false,
          "internalType": "address",
          "name": "sportsmanId",
          "type": "address"
        },
        {
          "indexed": false,
          "internalType": "uint256",
          "name": "medalID",
          "type": "uint256"
        }
      ],
      "name": "sportsmanMedalAdded",
      "type": "event"
    },
    {
      "anonymous": false,
      "inputs": [
        {
          "indexed": false,
          "internalType": "address",
          "name": "usrAddr",
          "type": "address"
        },
        {
          "indexed": false,
          "internalType": "uint256",
          "name": "eventID",
          "type": "uint256"
        }
      ],
      "name": "sportsmanRegisterdEvent",
      "type": "event"
    },
    {
      "anonymous": false,
      "inputs": [
        {
          "indexed": false,
          "internalType": "address",
          "name": "usrAddr",
          "type": "address"
        },
        {
          "indexed": false,
          "internalType": "uint256",
          "name": "eventID",
          "type": "uint256"
        }
      ],
      "name": "sportsmanUnregisterdEvent",
      "type": "event"
    },
    {
      "inputs": [
        {
          "internalType": "address",
          "name": "_user",
          "type": "address"
        },
        {
          "internalType": "uint256",
          "name": "_price",
          "type": "uint256"
        },
        {
          "internalType": "uint256",
          "name": "_sportCategory",
          "type": "uint256"
        },
        {
          "internalType": "string",
          "name": "_description",
          "type": "string"
        },
        {
          "internalType": "string",
          "name": "_URI",
          "type": "string"
        }
      ],
      "name": "addCreation",
      "outputs": [],
      "stateMutability": "nonpayable",
      "type": "function"
    },
    {
      "inputs": [
        {
          "internalType": "uint256",
          "name": "_organizedBy",
          "type": "uint256"
        },
        {
          "internalType": "uint256",
          "name": "_startDate",
          "type": "uint256"
        },
        {
          "internalType": "uint256",
          "name": "_endDate",
          "type": "uint256"
        },
        {
          "internalType": "uint256",
          "name": "_sportCategory",
          "type": "uint256"
        },
        {
          "internalType": "string",
          "name": "_eventDescription",
          "type": "string"
        }
      ],
      "name": "addEvent",
      "outputs": [
        {
          "internalType": "uint256",
          "name": "",
          "type": "uint256"
        }
      ],
      "stateMutability": "nonpayable",
      "type": "function"
    },
    {
      "inputs": [
        {
          "internalType": "address",
          "name": "_user",
          "type": "address"
        },
        {
          "internalType": "string",
          "name": "_name",
          "type": "string"
        },
        {
          "internalType": "string",
          "name": "_description",
          "type": "string"
        },
        {
          "internalType": "string",
          "name": "_logoURI",
          "type": "string"
        }
      ],
      "name": "addOrganization",
      "outputs": [],
      "stateMutability": "nonpayable",
      "type": "function"
    },
    {
      "inputs": [
        {
          "internalType": "uint256",
          "name": "_creationId",
          "type": "uint256"
        },
        {
          "internalType": "address",
          "name": "_NFT",
          "type": "address"
        }
      ],
      "name": "affectNFTtoCreation",
      "outputs": [],
      "stateMutability": "nonpayable",
      "type": "function"
    },
    {
      "inputs": [
        {
          "internalType": "uint256",
          "name": "",
          "type": "uint256"
        }
      ],
      "name": "allCreations",
      "outputs": [
        {
          "internalType": "uint256",
          "name": "price",
          "type": "uint256"
        },
        {
          "internalType": "uint256",
          "name": "creationId",
          "type": "uint256"
        },
        {
          "internalType": "uint256",
          "name": "sportCategory",
          "type": "uint256"
        },
        {
          "internalType": "address",
          "name": "author",
          "type": "address"
        },
        {
          "internalType": "address",
          "name": "NFT_Bkg_Adr",
          "type": "address"
        },
        {
          "internalType": "string",
          "name": "description",
          "type": "string"
        },
        {
          "internalType": "string",
          "name": "URI",
          "type": "string"
        },
        {
          "internalType": "bool",
          "name": "activ",
          "type": "bool"
        }
      ],
      "stateMutability": "view",
      "type": "function",
      "constant": true
    },
    {
      "inputs": [
        {
          "internalType": "uint256",
          "name": "orgIndx",
          "type": "uint256"
        }
      ],
      "name": "checkorganizerisAdminOf",
      "outputs": [
        {
          "internalType": "bool",
          "name": "",
          "type": "bool"
        }
      ],
      "stateMutability": "view",
      "type": "function",
      "constant": true
    },
    {
      "inputs": [
        {
          "internalType": "uint256",
          "name": "organizer",
          "type": "uint256"
        },
        {
          "internalType": "uint256",
          "name": "orgIndx",
          "type": "uint256"
        }
      ],
      "name": "checkorganizerisAdminOf",
      "outputs": [
        {
          "internalType": "bool",
          "name": "",
          "type": "bool"
        }
      ],
      "stateMutability": "view",
      "type": "function",
      "constant": true
    },
    {
      "inputs": [
        {
          "internalType": "uint256",
          "name": "eventID",
          "type": "uint256"
        }
      ],
      "name": "eventGetMedal",
      "outputs": [
        {
          "internalType": "uint256",
          "name": "",
          "type": "uint256"
        }
      ],
      "stateMutability": "view",
      "type": "function",
      "constant": true
    },
    {
      "inputs": [
        {
          "internalType": "uint256",
          "name": "eventID",
          "type": "uint256"
        }
      ],
      "name": "eventGetPositionX",
      "outputs": [
        {
          "internalType": "string",
          "name": "",
          "type": "string"
        }
      ],
      "stateMutability": "view",
      "type": "function",
      "constant": true
    },
    {
      "inputs": [
        {
          "internalType": "uint256",
          "name": "eventID",
          "type": "uint256"
        }
      ],
      "name": "eventGetPositionY",
      "outputs": [
        {
          "internalType": "string",
          "name": "",
          "type": "string"
        }
      ],
      "stateMutability": "view",
      "type": "function",
      "constant": true
    },
    {
      "inputs": [
        {
          "internalType": "uint256",
          "name": "eventID",
          "type": "uint256"
        }
      ],
      "name": "eventGetWinner",
      "outputs": [
        {
          "internalType": "address",
          "name": "",
          "type": "address"
        }
      ],
      "stateMutability": "view",
      "type": "function",
      "constant": true
    },
    {
      "inputs": [
        {
          "internalType": "uint256",
          "name": "eventID",
          "type": "uint256"
        }
      ],
      "name": "eventHasMedal",
      "outputs": [
        {
          "internalType": "bool",
          "name": "",
          "type": "bool"
        }
      ],
      "stateMutability": "view",
      "type": "function",
      "constant": true
    },
    {
      "inputs": [
        {
          "internalType": "uint256",
          "name": "orgIndx",
          "type": "uint256"
        }
      ],
      "name": "getAdminList",
      "outputs": [
        {
          "internalType": "uint256[]",
          "name": "",
          "type": "uint256[]"
        }
      ],
      "stateMutability": "view",
      "type": "function",
      "constant": true
    },
    {
      "inputs": [
        {
          "internalType": "address",
          "name": "_user",
          "type": "address"
        }
      ],
      "name": "getAuthor",
      "outputs": [
        {
          "components": [
            {
              "internalType": "address",
              "name": "userAddress",
              "type": "address"
            },
            {
              "internalType": "uint256[]",
              "name": "creations",
              "type": "uint256[]"
            },
            {
              "internalType": "bool",
              "name": "activ",
              "type": "bool"
            }
          ],
          "internalType": "struct Author",
          "name": "",
          "type": "tuple"
        }
      ],
      "stateMutability": "view",
      "type": "function",
      "constant": true
    },
    {
      "inputs": [
        {
          "internalType": "address",
          "name": "_author",
          "type": "address"
        }
      ],
      "name": "getAuthorCreationsList",
      "outputs": [
        {
          "internalType": "uint256[]",
          "name": "",
          "type": "uint256[]"
        }
      ],
      "stateMutability": "view",
      "type": "function",
      "constant": true
    },
    {
      "inputs": [
        {
          "internalType": "uint256",
          "name": "_start",
          "type": "uint256"
        },
        {
          "internalType": "uint256",
          "name": "_end",
          "type": "uint256"
        }
      ],
      "name": "getCreationList",
      "outputs": [
        {
          "components": [
            {
              "internalType": "uint256",
              "name": "price",
              "type": "uint256"
            },
            {
              "internalType": "uint256",
              "name": "creationId",
              "type": "uint256"
            },
            {
              "internalType": "uint256",
              "name": "sportCategory",
              "type": "uint256"
            },
            {
              "internalType": "address",
              "name": "author",
              "type": "address"
            },
            {
              "internalType": "address",
              "name": "NFT_Bkg_Adr",
              "type": "address"
            },
            {
              "internalType": "string",
              "name": "description",
              "type": "string"
            },
            {
              "internalType": "string",
              "name": "URI",
              "type": "string"
            },
            {
              "internalType": "bool",
              "name": "activ",
              "type": "bool"
            }
          ],
          "internalType": "struct NFT_Medal_Bkg_Desc[]",
          "name": "",
          "type": "tuple[]"
        }
      ],
      "stateMutability": "view",
      "type": "function",
      "constant": true
    },
    {
      "inputs": [
        {
          "internalType": "uint256",
          "name": "eventId",
          "type": "uint256"
        }
      ],
      "name": "getEvent",
      "outputs": [
        {
          "components": [
            {
              "internalType": "uint256",
              "name": "eventId",
              "type": "uint256"
            },
            {
              "internalType": "uint256",
              "name": "sportCategory",
              "type": "uint256"
            },
            {
              "internalType": "uint256",
              "name": "organizedBy",
              "type": "uint256"
            },
            {
              "internalType": "address[]",
              "name": "registeredSportsMan",
              "type": "address[]"
            },
            {
              "internalType": "address",
              "name": "winner",
              "type": "address"
            },
            {
              "internalType": "uint256",
              "name": "startDate",
              "type": "uint256"
            },
            {
              "internalType": "uint256",
              "name": "endDate",
              "type": "uint256"
            },
            {
              "internalType": "uint256",
              "name": "medalID",
              "type": "uint256"
            },
            {
              "internalType": "string",
              "name": "eventDescription",
              "type": "string"
            },
            {
              "internalType": "string",
              "name": "positionX",
              "type": "string"
            },
            {
              "internalType": "string",
              "name": "positionY",
              "type": "string"
            },
            {
              "internalType": "bool",
              "name": "hasMedal",
              "type": "bool"
            },
            {
              "internalType": "bool",
              "name": "activ",
              "type": "bool"
            },
            {
              "internalType": "bool",
              "name": "ended",
              "type": "bool"
            },
            {
              "internalType": "bool",
              "name": "started",
              "type": "bool"
            },
            {
              "internalType": "enum stateOfCompetition",
              "name": "eventState",
              "type": "uint8"
            }
          ],
          "internalType": "struct EventHandler.EventDesc",
          "name": "",
          "type": "tuple"
        }
      ],
      "stateMutability": "view",
      "type": "function",
      "constant": true
    },
    {
      "inputs": [],
      "name": "getEventCount",
      "outputs": [
        {
          "internalType": "uint256",
          "name": "",
          "type": "uint256"
        }
      ],
      "stateMutability": "view",
      "type": "function",
      "constant": true
    },
    {
      "inputs": [
        {
          "internalType": "uint256",
          "name": "evntID",
          "type": "uint256"
        }
      ],
      "name": "getEventCurrentState",
      "outputs": [
        {
          "internalType": "enum stateOfCompetition",
          "name": "",
          "type": "uint8"
        }
      ],
      "stateMutability": "view",
      "type": "function",
      "constant": true
    },
    {
      "inputs": [
        {
          "internalType": "uint256",
          "name": "_start",
          "type": "uint256"
        },
        {
          "internalType": "uint256",
          "name": "_end",
          "type": "uint256"
        }
      ],
      "name": "getEventList",
      "outputs": [
        {
          "components": [
            {
              "internalType": "uint256",
              "name": "eventId",
              "type": "uint256"
            },
            {
              "internalType": "uint256",
              "name": "sportCategory",
              "type": "uint256"
            },
            {
              "internalType": "uint256",
              "name": "organizedBy",
              "type": "uint256"
            },
            {
              "internalType": "address[]",
              "name": "registeredSportsMan",
              "type": "address[]"
            },
            {
              "internalType": "address",
              "name": "winner",
              "type": "address"
            },
            {
              "internalType": "uint256",
              "name": "startDate",
              "type": "uint256"
            },
            {
              "internalType": "uint256",
              "name": "endDate",
              "type": "uint256"
            },
            {
              "internalType": "uint256",
              "name": "medalID",
              "type": "uint256"
            },
            {
              "internalType": "string",
              "name": "eventDescription",
              "type": "string"
            },
            {
              "internalType": "string",
              "name": "positionX",
              "type": "string"
            },
            {
              "internalType": "string",
              "name": "positionY",
              "type": "string"
            },
            {
              "internalType": "bool",
              "name": "hasMedal",
              "type": "bool"
            },
            {
              "internalType": "bool",
              "name": "activ",
              "type": "bool"
            },
            {
              "internalType": "bool",
              "name": "ended",
              "type": "bool"
            },
            {
              "internalType": "bool",
              "name": "started",
              "type": "bool"
            },
            {
              "internalType": "enum stateOfCompetition",
              "name": "eventState",
              "type": "uint8"
            }
          ],
          "internalType": "struct EventHandler.EventDesc[]",
          "name": "",
          "type": "tuple[]"
        }
      ],
      "stateMutability": "view",
      "type": "function",
      "constant": true
    },
    {
      "inputs": [
        {
          "internalType": "uint256",
          "name": "orgId",
          "type": "uint256"
        }
      ],
      "name": "getEventList",
      "outputs": [
        {
          "internalType": "uint256[]",
          "name": "",
          "type": "uint256[]"
        }
      ],
      "stateMutability": "view",
      "type": "function",
      "constant": true
    },
    {
      "inputs": [
        {
          "internalType": "uint256",
          "name": "medalID",
          "type": "uint256"
        }
      ],
      "name": "getMedal",
      "outputs": [
        {
          "components": [
            {
              "internalType": "address",
              "name": "throwIn",
              "type": "address"
            },
            {
              "internalType": "address",
              "name": "winner",
              "type": "address"
            },
            {
              "internalType": "uint256",
              "name": "organizationID",
              "type": "uint256"
            },
            {
              "internalType": "uint256",
              "name": "eventID",
              "type": "uint256"
            },
            {
              "internalType": "bool",
              "name": "isInWinnerGallery",
              "type": "bool"
            }
          ],
          "internalType": "struct Medal",
          "name": "",
          "type": "tuple"
        }
      ],
      "stateMutability": "view",
      "type": "function",
      "constant": true
    },
    {
      "inputs": [],
      "name": "getMedalCount",
      "outputs": [
        {
          "internalType": "uint256",
          "name": "",
          "type": "uint256"
        }
      ],
      "stateMutability": "view",
      "type": "function",
      "constant": true
    },
    {
      "inputs": [],
      "name": "getNumberOfSportsman",
      "outputs": [
        {
          "internalType": "uint256",
          "name": "",
          "type": "uint256"
        }
      ],
      "stateMutability": "view",
      "type": "function",
      "constant": true
    },
    {
      "inputs": [],
      "name": "getOrganisationCount",
      "outputs": [
        {
          "internalType": "uint256",
          "name": "",
          "type": "uint256"
        }
      ],
      "stateMutability": "view",
      "type": "function",
      "constant": true
    },
    {
      "inputs": [
        {
          "internalType": "uint256",
          "name": "orgID",
          "type": "uint256"
        }
      ],
      "name": "getOrganizationName",
      "outputs": [
        {
          "internalType": "string",
          "name": "",
          "type": "string"
        }
      ],
      "stateMutability": "view",
      "type": "function",
      "constant": true
    },
    {
      "inputs": [
        {
          "internalType": "uint256",
          "name": "_start",
          "type": "uint256"
        },
        {
          "internalType": "uint256",
          "name": "_end",
          "type": "uint256"
        }
      ],
      "name": "getOrganizationsList",
      "outputs": [
        {
          "components": [
            {
              "internalType": "string",
              "name": "name",
              "type": "string"
            },
            {
              "internalType": "string",
              "name": "description",
              "type": "string"
            },
            {
              "internalType": "string",
              "name": "logoURI",
              "type": "string"
            },
            {
              "internalType": "bool",
              "name": "activ",
              "type": "bool"
            }
          ],
          "internalType": "struct OrganizerHandler.organizationDesc[]",
          "name": "",
          "type": "tuple[]"
        }
      ],
      "stateMutability": "view",
      "type": "function",
      "constant": true
    },
    {
      "inputs": [
        {
          "internalType": "uint256",
          "name": "id",
          "type": "uint256"
        }
      ],
      "name": "getOrganizerAddressById",
      "outputs": [
        {
          "internalType": "address",
          "name": "",
          "type": "address"
        }
      ],
      "stateMutability": "view",
      "type": "function",
      "constant": true
    },
    {
      "inputs": [
        {
          "internalType": "address",
          "name": "_user",
          "type": "address"
        }
      ],
      "name": "getOrganizerOrganisationList",
      "outputs": [
        {
          "internalType": "uint256[]",
          "name": "",
          "type": "uint256[]"
        }
      ],
      "stateMutability": "view",
      "type": "function",
      "constant": true
    },
    {
      "inputs": [
        {
          "internalType": "address",
          "name": "sportsmanId",
          "type": "address"
        }
      ],
      "name": "getSportsManEventsNumber",
      "outputs": [
        {
          "internalType": "uint256",
          "name": "",
          "type": "uint256"
        }
      ],
      "stateMutability": "view",
      "type": "function",
      "constant": true
    },
    {
      "inputs": [
        {
          "internalType": "address",
          "name": "sportsmanId",
          "type": "address"
        }
      ],
      "name": "getSportsmanEventsSubscriptions",
      "outputs": [
        {
          "internalType": "uint256[]",
          "name": "",
          "type": "uint256[]"
        }
      ],
      "stateMutability": "view",
      "type": "function",
      "constant": true
    },
    {
      "inputs": [
        {
          "internalType": "uint256",
          "name": "_start",
          "type": "uint256"
        },
        {
          "internalType": "uint256",
          "name": "_end",
          "type": "uint256"
        }
      ],
      "name": "getSportsmanList",
      "outputs": [
        {
          "components": [
            {
              "internalType": "address",
              "name": "userAddress",
              "type": "address"
            },
            {
              "internalType": "uint256",
              "name": "sportCategory",
              "type": "uint256"
            },
            {
              "internalType": "uint256",
              "name": "nbActivSubscriptions",
              "type": "uint256"
            },
            {
              "internalType": "bool",
              "name": "activ",
              "type": "bool"
            }
          ],
          "internalType": "struct SportsmanHandler.SportsmanDesc[]",
          "name": "",
          "type": "tuple[]"
        }
      ],
      "stateMutability": "view",
      "type": "function",
      "constant": true
    },
    {
      "inputs": [
        {
          "internalType": "address",
          "name": "sportsmanId",
          "type": "address"
        },
        {
          "internalType": "uint256",
          "name": "indx",
          "type": "uint256"
        }
      ],
      "name": "getSportsmanMedal",
      "outputs": [
        {
          "internalType": "uint256",
          "name": "",
          "type": "uint256"
        }
      ],
      "stateMutability": "view",
      "type": "function",
      "constant": true
    },
    {
      "inputs": [
        {
          "internalType": "address",
          "name": "sportsmanId",
          "type": "address"
        }
      ],
      "name": "getSportsmanMedalCount",
      "outputs": [
        {
          "internalType": "uint256",
          "name": "",
          "type": "uint256"
        }
      ],
      "stateMutability": "view",
      "type": "function",
      "constant": true
    },
    {
      "inputs": [
        {
          "internalType": "address",
          "name": "sportsmanId",
          "type": "address"
        }
      ],
      "name": "getSportsmanMedalList",
      "outputs": [
        {
          "internalType": "uint256[]",
          "name": "",
          "type": "uint256[]"
        }
      ],
      "stateMutability": "view",
      "type": "function",
      "constant": true
    },
    {
      "inputs": [],
      "name": "getUserCount",
      "outputs": [
        {
          "internalType": "uint256",
          "name": "",
          "type": "uint256"
        }
      ],
      "stateMutability": "view",
      "type": "function",
      "constant": true
    },
    {
      "inputs": [
        {
          "internalType": "address",
          "name": "_userAdr",
          "type": "address"
        }
      ],
      "name": "getUserDetails",
      "outputs": [
        {
          "components": [
            {
              "internalType": "string",
              "name": "iconURI",
              "type": "string"
            },
            {
              "internalType": "string",
              "name": "userName",
              "type": "string"
            },
            {
              "internalType": "string",
              "name": "email",
              "type": "string"
            },
            {
              "internalType": "uint8",
              "name": "role",
              "type": "uint8"
            },
            {
              "internalType": "bool",
              "name": "activ",
              "type": "bool"
            }
          ],
          "internalType": "struct User",
          "name": "",
          "type": "tuple"
        }
      ],
      "stateMutability": "view",
      "type": "function",
      "constant": true
    },
    {
      "inputs": [
        {
          "internalType": "uint256",
          "name": "eventId",
          "type": "uint256"
        }
      ],
      "name": "getWinner",
      "outputs": [
        {
          "internalType": "address",
          "name": "",
          "type": "address"
        }
      ],
      "stateMutability": "view",
      "type": "function",
      "constant": true
    },
    {
      "inputs": [
        {
          "internalType": "uint256",
          "name": "orgId",
          "type": "uint256"
        },
        {
          "internalType": "address",
          "name": "_user",
          "type": "address"
        }
      ],
      "name": "organizationAddAdmin",
      "outputs": [],
      "stateMutability": "nonpayable",
      "type": "function"
    },
    {
      "inputs": [],
      "name": "owner",
      "outputs": [
        {
          "internalType": "address",
          "name": "",
          "type": "address"
        }
      ],
      "stateMutability": "view",
      "type": "function",
      "constant": true
    },
    {
      "inputs": [
        {
          "internalType": "uint256",
          "name": "",
          "type": "uint256"
        }
      ],
      "name": "registeredAuthors",
      "outputs": [
        {
          "internalType": "address",
          "name": "",
          "type": "address"
        }
      ],
      "stateMutability": "view",
      "type": "function",
      "constant": true
    },
    {
      "inputs": [
        {
          "internalType": "uint256",
          "name": "",
          "type": "uint256"
        }
      ],
      "name": "registeredSportsman",
      "outputs": [
        {
          "internalType": "address",
          "name": "",
          "type": "address"
        }
      ],
      "stateMutability": "view",
      "type": "function",
      "constant": true
    },
    {
      "inputs": [
        {
          "internalType": "uint256",
          "name": "",
          "type": "uint256"
        }
      ],
      "name": "registeredUsers",
      "outputs": [
        {
          "internalType": "address",
          "name": "",
          "type": "address"
        }
      ],
      "stateMutability": "view",
      "type": "function",
      "constant": true
    },
    {
      "inputs": [],
      "name": "renounceOwnership",
      "outputs": [],
      "stateMutability": "nonpayable",
      "type": "function"
    },
    {
      "inputs": [
        {
          "internalType": "address",
          "name": "newOwner",
          "type": "address"
        }
      ],
      "name": "transferOwnership",
      "outputs": [],
      "stateMutability": "nonpayable",
      "type": "function"
    },
    {
      "inputs": [
        {
          "internalType": "address",
          "name": "_userAddress",
          "type": "address"
        },
        {
          "internalType": "string",
          "name": "_iconURI",
          "type": "string"
        },
        {
          "internalType": "string",
          "name": "_userName",
          "type": "string"
        },
        {
          "internalType": "string",
          "name": "_email",
          "type": "string"
        },
        {
          "internalType": "uint8",
          "name": "_role",
          "type": "uint8"
        },
        {
          "internalType": "uint256",
          "name": "_sportsCategory",
          "type": "uint256"
        }
      ],
      "name": "addNewUser",
      "outputs": [],
      "stateMutability": "nonpayable",
      "type": "function"
    },
    {
      "inputs": [
        {
          "internalType": "address",
          "name": "_userAddress",
          "type": "address"
        },
        {
          "internalType": "uint256",
          "name": "eventid",
          "type": "uint256"
        }
      ],
      "name": "LinkUserAndEvent",
      "outputs": [],
      "stateMutability": "nonpayable",
      "type": "function"
    },
    {
      "inputs": [
        {
          "internalType": "uint256",
          "name": "organizationId",
          "type": "uint256"
        },
        {
          "internalType": "uint256",
          "name": "startDate",
          "type": "uint256"
        },
        {
          "internalType": "uint256",
          "name": "endDate",
          "type": "uint256"
        },
        {
          "internalType": "uint256",
          "name": "sportsCategory",
          "type": "uint256"
        },
        {
          "internalType": "string",
          "name": "eventDesc",
          "type": "string"
        }
      ],
      "name": "newEvent",
      "outputs": [],
      "stateMutability": "nonpayable",
      "type": "function"
    },
    {
      "inputs": [
        {
          "internalType": "uint256",
          "name": "eventID",
          "type": "uint256"
        }
      ],
      "name": "adminStartEvent",
      "outputs": [],
      "stateMutability": "nonpayable",
      "type": "function"
    },
    {
      "inputs": [
        {
          "internalType": "uint256",
          "name": "eventID",
          "type": "uint256"
        }
      ],
      "name": "adminEndEvent",
      "outputs": [],
      "stateMutability": "nonpayable",
      "type": "function"
    },
    {
      "inputs": [
        {
          "internalType": "uint256",
          "name": "eventID",
          "type": "uint256"
        },
        {
          "internalType": "address",
          "name": "winner",
          "type": "address"
        }
      ],
      "name": "adminSetWinner",
      "outputs": [],
      "stateMutability": "nonpayable",
      "type": "function"
    },
    {
      "inputs": [
        {
          "internalType": "uint256",
          "name": "eventID",
          "type": "uint256"
        },
        {
          "internalType": "address",
          "name": "_nft",
          "type": "address"
        }
      ],
      "name": "adminAddMedal",
      "outputs": [],
      "stateMutability": "nonpayable",
      "type": "function"
    },
    {
      "inputs": [
        {
          "internalType": "uint256",
          "name": "eventID",
          "type": "uint256"
        }
      ],
      "name": "adminGiveMedalToWinner",
      "outputs": [],
      "stateMutability": "nonpayable",
      "type": "function"
    },
    {
      "inputs": [
        {
          "internalType": "uint256",
          "name": "medalIndx",
          "type": "uint256"
        },
        {
          "internalType": "bool",
          "name": "status",
          "type": "bool"
        }
      ],
      "name": "publishMedal",
      "outputs": [],
      "stateMutability": "nonpayable",
      "type": "function"
    },
    {
      "inputs": [
        {
          "internalType": "uint256",
          "name": "eventID",
          "type": "uint256"
        },
        {
          "internalType": "string",
          "name": "posX",
          "type": "string"
        },
        {
          "internalType": "string",
          "name": "posY",
          "type": "string"
        }
      ],
      "name": "adminSetEventPosition",
      "outputs": [],
      "stateMutability": "nonpayable",
      "type": "function"
    },
    {
      "inputs": [],
      "name": "withdraw",
      "outputs": [],
      "stateMutability": "nonpayable",
      "type": "function"
    }
  ],
  "bytecode": "0x60806040523480156200001157600080fd5b5060405162006067380380620060678339810160408190526200003491620000c2565b62000048620000426200006e565b62000072565b600e80546001600160a01b0319166001600160a01b0392909216919091179055620000f2565b3390565b600080546001600160a01b038381166001600160a01b0319831681178455604051919092169283917f8be0079c531659141344cd1fd0a4f28419497f9722a3daafe3b4186f6b6457e09190a35050565b600060208284031215620000d4578081fd5b81516001600160a01b0381168114620000eb578182fd5b9392505050565b615f6580620001026000396000f3fe608060405234801561001057600080fd5b50600436106102985760003560e01c80638ed1891d116101635780638ed1891d146105195780639107e8791461052c57806391850ab31461053f5780639847587a14610552578063ad97046314610565578063ade03dbf14610578578063b082b9c71461058b578063b5cb15f714610593578063b700389f1461059b578063c46f05b9146105bb578063c8887249146105ce578063cc3d967b146105ee578063cd284f651461060e578063ce7c5d9d14610621578063d4a0e8ad14610629578063d7bc151a1461063c578063d9e48f5c1461064f578063e56afc7514610657578063eebd12741461066a578063f022f3551461067d578063f2fde38b14610690578063f5ad8cda146106a3578063fb87aa42146106b6578063fbcbd067146106c9578063fbf5f199146106dc578063fd395fc5146106ef578063fd7f1b541461070f578063fe4363a31461072257610298565b80630ab300931461029d5780630d4f284a146102c65780631b4a4397146102db57806320ad6864146102fb578063237087371461030e5780632605d9a714610321578063292e20ee146103415780632bd0e1cc1461035457806335d3339e1461037457806338caac65146103945780633a6526fb146103a75780633ccfd60b146103ba5780633da21e3a146103c25780634129b2c9146103d55780634dbc196c146103f55780635336abb51461040857806354abd15f1461042f57806355d97b3f146104425780635a473e25146104625780635b4c4b20146104755780636ccf16b0146104885780636d1884e01461049b578063715018a6146104bb5780637259e0f8146104c357806375bb7174146104d65780637990b367146104de578063826226bf146104f15780638da5cb5b14610511575b600080fd5b6102b06102ab36600461500b565b610742565b6040516102bd9190615c74565b60405180910390f35b6102d96102d436600461516f565b610816565b005b6102ee6102e936600461534c565b610856565b6040516102bd9190615d90565b6102d9610309366004615238565b610927565b6102d961031c3660046152c2565b6109d2565b61033461032f366004615238565b610a17565b6040516102bd919061586e565b6102d961034f36600461534c565b610a4d565b61036761036236600461500b565b610b2c565b6040516102bd919061583b565b61038761038236600461532b565b610b9b565b6040516102bd91906155ec565b6102ee6103a2366004615238565b611054565b6102ee6103b536600461500b565b6110c3565b6102d96110e2565b6102ee6103d036600461516f565b61122b565b6103e86103e3366004615238565b6112b5565b6040516102bd91906155bf565b6103e8610403366004615238565b61130f565b61041b610416366004615238565b611339565b6040516102bd989796959493929190615dd2565b6102d961043d366004615268565b6114b1565b610455610450366004615238565b6115aa565b6040516102bd919061587c565b6103e8610470366004615238565b6116a1565b610455610483366004615238565b61171a565b610367610496366004615238565b6117f6565b6104ae6104a9366004615238565b611883565b6040516102bd9190615cba565b6102d9611beb565b6103e86104d1366004615238565b611c36565b6102ee611c46565b6103e86104ec366004615238565b611c4c565b6105046104ff366004615238565b611c5c565b6040516102bd919061584e565b6103e8611c9a565b6102d9610527366004615238565b611ca9565b61036761053a36600461500b565b611ce5565b61036761054d36600461500b565b611db6565b6102ee61056036600461500b565b611fd6565b6102d9610573366004615198565b61201f565b6102d9610586366004615293565b61224f565b6102ee612267565b6102ee61226d565b6105ae6105a9366004615238565b612273565b6040516102bd9190615ccd565b6103676105c9366004615238565b612323565b6105e16105dc36600461532b565b6124df565b6040516102bd919061564c565b6106016105fc36600461500b565b61291a565b6040516102bd9190615d12565b6102d961061c366004615268565b612b47565b6102ee612c09565b6102d9610637366004615238565b612c0f565b6102d961064a366004615268565b612c4b565b6102ee612ce8565b6102d9610665366004615268565b612cee565b61036761067836600461500b565b612e4f565b61050461068b366004615238565b612fb0565b6102d961069e36600461500b565b613023565b6102d96106b13660046150b9565b613094565b6103e86106c4366004615238565b61314d565b6102d96106d7366004615025565b6131a4565b6105046106ea36600461532b565b6132fd565b6107026106fd36600461532b565b61340c565b6040516102bd919061572f565b61045561071d366004615238565b6135ca565b61073561073036600461532b565b613639565b6040516102bd919061579e565b61074a614ceb565b816001600160a01b03811661077a5760405162461bcd60e51b815260040161077190615c48565b60405180910390fd5b6001600160a01b038084166000908152600360209081526040918290208251606081018452815490941684526001810180548451818502810185019095528085529193858401939092908301828280156107f357602002820191906000526020600020905b8154815260200190600101908083116107df575b50505091835250506002919091015460ff16151560209091015291505b50919050565b816001600160a01b03811661083d5760405162461bcd60e51b815260040161077190615c48565b61084782846139f4565b6108518383613ac6565b505050565b6009546000818152600860208181526040832093845560028401899055600584018890556006840187905560018401869055600b8401805461ff0019166101001790556004840180546001600160a01b031916905584519293926108bf92840191860190614d17565b50600b8101805460ff60201b191690556009546040517fb74b81e22ed2c551cf1d61041f3314bcb4dc74e133a311f76c5de475735b02649161090091615d90565b60405180910390a16009805490600061091883615eba565b90915550979650505050505050565b80600061093382613c3e565b905061093e81611c5c565b61095a5760405162461bcd60e51b815260040161077190615bf1565b6000610965846112b5565b90506001600160a01b03811661098d5760405162461bcd60e51b815260040161077190615aa3565b61099684612fb0565b61099f57600080fd5b6109b16109ab85611054565b82613cad565b6109ba84613d2c565b6109cc816109c786611054565b613ea9565b50505050565b8260006109de82613c3e565b90506109e981611c5c565b610a055760405162461bcd60e51b815260040161077190615bf1565b610a10858585613f16565b5050505050565b6000600881610a27600185615e57565b81526020810191909152604001600020600b0154600160201b900460ff1690505b919050565b8380610a6b5760405162461bcd60e51b815260040161077190615acf565b8380610a895760405162461bcd60e51b815260040161077190615acf565b858511610aa85760405162461bcd60e51b81526004016107719061598a565b336000908152600b602052604090205480610ad55760405162461bcd60e51b81526004016107719061588f565b610adf81896132fd565b610afb5760405162461bcd60e51b815260040161077190615bf1565b6000610b0a8989898989610856565b9050610b21828a610b1c846001615e3f565b613fc1565b505050505050505050565b6001600160a01b038116600090815260066020818152604092839020909101805483518184028101840190945280845260609392830182828015610b8f57602002820191906000526020600020905b815481526020019060010190808311610b7b575b50505050509050919050565b60606009548060001415610bc15760405162461bcd60e51b815260040161077190615acf565b8380610bdf5760405162461bcd60e51b815260040161077190615acf565b84610be981615e6e565b9550508380610bf790615e6e565b94505083851115610c0757600080fd5b6009548510610c285760405162461bcd60e51b815260040161077190615b62565b6009548410610c43576001600954610c409190615e57565b93505b6000610c4f8686615e57565b610c5a906001615e3f565b6001600160401b03811115610c7f57634e487b7160e01b600052604160045260246000fd5b604051908082528060200260200182016040528015610cb857816020015b610ca5614d9b565b815260200190600190039081610c9d5790505b509050855b85811161104a57600081815260086020908152604091829020825161020081018452815481526001820154818401526002820154818501526003820180548551818602810186019096528086529194929360608601939290830182828015610d4e57602002820191906000526020600020905b81546001600160a01b03168152600190910190602001808311610d30575b505050918352505060048201546001600160a01b0316602082015260058201546040820152600682015460608201526007820154608082015260088201805460a090920191610d9c90615e85565b80601f0160208091040260200160405190810160405280929190818152602001828054610dc890615e85565b8015610e155780601f10610dea57610100808354040283529160200191610e15565b820191906000526020600020905b815481529060010190602001808311610df857829003601f168201915b50505050508152602001600982018054610e2e90615e85565b80601f0160208091040260200160405190810160405280929190818152602001828054610e5a90615e85565b8015610ea75780601f10610e7c57610100808354040283529160200191610ea7565b820191906000526020600020905b815481529060010190602001808311610e8a57829003601f168201915b50505050508152602001600a82018054610ec090615e85565b80601f0160208091040260200160405190810160405280929190818152602001828054610eec90615e85565b8015610f395780601f10610f0e57610100808354040283529160200191610f39565b820191906000526020600020905b815481529060010190602001808311610f1c57829003601f168201915b5050509183525050600b82015460ff8082161515602084015261010082048116151560408401526201000082048116151560608401526301000000820481161515608084015260a090920191600160201b909104166003811115610fad57634e487b7160e01b600052602160045260246000fd5b6003811115610fcc57634e487b7160e01b600052602160045260246000fd5b81525050828281518110610ff057634e487b7160e01b600052603260045260246000fd5b6020026020010181905250600182828151811061101d57634e487b7160e01b600052603260045260246000fd5b60200260200101516000018181516110359190615e3f565b9052508061104281615eba565b915050610cbd565b5095945050505050565b6000816009548082111561107a5760405162461bcd60e51b8152600401610771906158c1565b83806110985760405162461bcd60e51b815260040161077190615acf565b600860006110a7600188615e57565b8152602001908152602001600020600701549350505050919050565b6001600160a01b03166000908152600660208190526040909120015490565b6110ea614053565b6001600160a01b03166110fb611c9a565b6001600160a01b0316146111215760405162461bcd60e51b815260040161077190615b2d565b600e546040516370a0823160e01b81526000916001600160a01b0316906370a08231906111529030906004016155bf565b60206040518083038186803b15801561116a57600080fd5b505afa15801561117e573d6000803e3d6000fd5b505050506040513d601f19601f820116820180604052508101906111a29190615250565b600e5460405163a9059cbb60e01b81529192506001600160a01b03169063a9059cbb906111d590339085906004016155d3565b602060405180830381600087803b1580156111ef57600080fd5b505af1158015611203573d6000803e3d6000fd5b505050506040513d601f19601f82011682018060405250810190611227919061521c565b5050565b6001600160a01b03821660009081526006602081905260408220015482106112655760405162461bcd60e51b81526004016107719061595f565b6001600160a01b0383166000908152600660208190526040909120018054839081106112a157634e487b7160e01b600052603260045260246000fd5b906000526020600020015490505b92915050565b600081600954808211156112db5760405162461bcd60e51b8152600401610771906158c1565b600860006112ea600187615e57565b81526020810191909152604001600020600401546001600160a01b0316949350505050565b6007818154811061131f57600080fd5b6000918252602090912001546001600160a01b0316905081565b6005818154811061134957600080fd5b6000918252602090912060089091020180546001820154600283015460038401546004850154600586018054959750939592946001600160a01b039283169491909216929161139790615e85565b80601f01602080910402602001604051908101604052809291908181526020018280546113c390615e85565b80156114105780601f106113e557610100808354040283529160200191611410565b820191906000526020600020905b8154815290600101906020018083116113f357829003601f168201915b50505050509080600601805461142590615e85565b80601f016020809104026020016040519081016040528092919081815260200182805461145190615e85565b801561149e5780601f106114735761010080835404028352916020019161149e565b820191906000526020600020905b81548152906001019060200180831161148157829003601f168201915b5050506007909301549192505060ff1688565b8160006114bd82613c3e565b90506114c881611c5c565b6114e45760405162461bcd60e51b815260040161077190615bf1565b6040516301ffc9a760e01b81526001600160a01b038416906301ffc9a790611517906380ac58cd60e01b90600401615859565b60206040518083038186803b15801561152f57600080fd5b505afa158015611543573d6000803e3d6000fd5b505050506040513d601f19601f82011682018060405250810190611567919061521c565b50600061157385613c3e565b9050611580848287614057565b6000600161158c612c09565b6115969190615e57565b90506115a286826141d7565b505050505050565b606081600954808211156115d05760405162461bcd60e51b8152600401610771906158c1565b83806115ee5760405162461bcd60e51b815260040161077190615acf565b600860006115fd600188615e57565b8152602001908152602001600020600a01805461161990615e85565b80601f016020809104026020016040519081016040528092919081815260200182805461164590615e85565b80156116925780601f1061166757610100808354040283529160200191611692565b820191906000526020600020905b81548152906001019060200180831161167557829003601f168201915b50505050509350505050919050565b600081600954808211156116c75760405162461bcd60e51b8152600401610771906158c1565b83806116e55760405162461bcd60e51b815260040161077190615acf565b600860006116f4600188615e57565b81526020810191909152604001600020600401546001600160a01b031695945050505050565b600c54606090821061173e5760405162461bcd60e51b815260040161077190615c1c565b600c828154811061175f57634e487b7160e01b600052603260045260246000fd5b9060005260206000209060060201600201805461177b90615e85565b80601f01602080910402602001604051908101604052809291908181526020018280546117a790615e85565b8015610b8f5780601f106117c957610100808354040283529160200191610b8f565b820191906000526020600020905b8154815290600101906020018083116117d75750939695505050505050565b60606000600c838154811061181b57634e487b7160e01b600052603260045260246000fd5b906000526020600020906006020160010180548060200260200160405190810160405280929190818152602001828054801561187657602002820191906000526020600020905b815481526020019060010190808311611862575b5093979650505050505050565b61188b614d9b565b81806118a95760405162461bcd60e51b815260040161077190615acf565b60006008816118b9600187615e57565b8152602001908152602001600020604051806102000160405290816000820154815260200160018201548152602001600282015481526020016003820180548060200260200160405190810160405280929190818152602001828054801561194a57602002820191906000526020600020905b81546001600160a01b0316815260019091019060200180831161192c575b505050918352505060048201546001600160a01b0316602082015260058201546040820152600682015460608201526007820154608082015260088201805460a09092019161199890615e85565b80601f01602080910402602001604051908101604052809291908181526020018280546119c490615e85565b8015611a115780601f106119e657610100808354040283529160200191611a11565b820191906000526020600020905b8154815290600101906020018083116119f457829003601f168201915b50505050508152602001600982018054611a2a90615e85565b80601f0160208091040260200160405190810160405280929190818152602001828054611a5690615e85565b8015611aa35780601f10611a7857610100808354040283529160200191611aa3565b820191906000526020600020905b815481529060010190602001808311611a8657829003601f168201915b50505050508152602001600a82018054611abc90615e85565b80601f0160208091040260200160405190810160405280929190818152602001828054611ae890615e85565b8015611b355780601f10611b0a57610100808354040283529160200191611b35565b820191906000526020600020905b815481529060010190602001808311611b1857829003601f168201915b5050509183525050600b82015460ff8082161515602084015261010082048116151560408401526201000082048116151560608401526301000000820481161515608084015260a090920191600160201b909104166003811115611ba957634e487b7160e01b600052602160045260246000fd5b6003811115611bc857634e487b7160e01b600052602160045260246000fd5b815250509050600181600001818151611be19190615e3f565b9052509392505050565b611bf3614053565b6001600160a01b0316611c04611c9a565b6001600160a01b031614611c2a5760405162461bcd60e51b815260040161077190615b2d565b611c34600061424e565b565b6002818154811061131f57600080fd5b60075490565b6004818154811061131f57600080fd5b336000908152600b602052604081205480611c895760405162461bcd60e51b81526004016107719061588f565b611c9381846132fd565b9392505050565b6000546001600160a01b031690565b806000611cb582613c3e565b9050611cc081611c5c565b611cdc5760405162461bcd60e51b815260040161077190615bf1565b6108518361429e565b6060816001600160a01b038116611d0e5760405162461bcd60e51b815260040161077190615c48565b6001600160a01b03831660009081526003602052604090206001015480611d475760405162461bcd60e51b815260040161077190615acf565b6001600160a01b03841660009081526003602090815260409182902060010180548351818402810184019094528084529091830182828015611da857602002820191906000526020600020905b815481526020019060010190808311611d94575b505050505092505050919050565b6001600160a01b0381166000908152600b602052604090205460609080611def5760405162461bcd60e51b81526004016107719061592d565b80611df981615e6e565b9150506000600a8281548110611e1f57634e487b7160e01b600052603260045260246000fd5b906000526020600020906004020160020154905060008111611e535760405162461bcd60e51b815260040161077190615a58565b6000816001600160401b03811115611e7b57634e487b7160e01b600052604160045260246000fd5b604051908082528060200260200182016040528015611ea4578160200160208202803683370190505b5090506000805b600c54811015611fcb576000600a8681548110611ed857634e487b7160e01b600052603260045260246000fd5b90600052602060002090600402016001018281548110611f0857634e487b7160e01b600052603260045260246000fd5b90600052602060002001541115611fb9576001600a8681548110611f3c57634e487b7160e01b600052603260045260246000fd5b90600052602060002090600402016001018281548110611f6c57634e487b7160e01b600052603260045260246000fd5b9060005260206000200154611f819190615e57565b8383611f8c81615eba565b945081518110611fac57634e487b7160e01b600052603260045260246000fd5b6020026020010181815250505b80611fc381615eba565b915050611eab565b509095945050505050565b6000816001600160a01b038116611fff5760405162461bcd60e51b815260040161077190615c48565b50506001600160a01b031660009081526006602052604090206005015490565b612027614053565b6001600160a01b0316612038611c9a565b6001600160a01b03161461205e5760405162461bcd60e51b815260040161077190615b2d565b846001600160a01b0381166120855760405162461bcd60e51b815260040161077190615c48565b6001600160a01b0386166000908152600360205260409020600281015460ff166120c15760405162461bcd60e51b815260040161077190615a32565b600580546001808201808455600084815260408051610100810182528c8152602081018690529081018b90526001600160a01b038d166060820152608081019190915260a0810189905260c0810188905260e0810192909252919290918390811061213c57634e487b7160e01b600052603260045260246000fd5b600091825260209182902083516008909202019081558282015160018201556040830151600282015560608301516003820180546001600160a01b039283166001600160a01b031991821617909155608085015160048401805491909316911617905560a0830151805191926121ba92600585019290910190614d17565b5060c082015180516121d6916006840191602090910190614d17565b5060e091909101516007909101805460ff1916911515919091179055600182810180549182018155600090815260209020018190556040517f6ebd5b45b68b36b036925496b54a9c90f49bdc2a23cf8fb9d7f92e13eb113c159061223d908a9084906155d3565b60405180910390a15050505050505050565b600061225b338461122b565b905061085181836143fc565b600c5490565b60025490565b61227b614e47565b600d548290811061229e5760405162461bcd60e51b815260040161077190615bc3565b600d83815481106122bf57634e487b7160e01b600052603260045260246000fd5b60009182526020918290206040805160a081018252600590930290910180546001600160a01b039081168452600182015416938301939093526002830154908201526003820154606082015260049091015460ff1615156080820152915050919050565b600c54606090829080821061233757600080fd5b600061234285614468565b90506000816001600160401b0381111561236c57634e487b7160e01b600052604160045260246000fd5b604051908082528060200260200182016040528015612395578160200160208202803683370190505b50905060005b600c87815481106123bc57634e487b7160e01b600052603260045260246000fd5b600091825260209091206006909102015481101561104a576000600c88815481106123f757634e487b7160e01b600052603260045260246000fd5b9060005260206000209060060201600001828154811061242757634e487b7160e01b600052603260045260246000fd5b906000526020600020015411156124cd576001600c888154811061245b57634e487b7160e01b600052603260045260246000fd5b9060005260206000209060060201600001828154811061248b57634e487b7160e01b600052603260045260246000fd5b90600052602060002001546124a09190615e57565b8282815181106124c057634e487b7160e01b600052603260045260246000fd5b6020026020010181815250505b806124d781615eba565b91505061239b565b600554606090806125025760405162461bcd60e51b815260040161077190615acf565b8284111561250f57600080fd5b60055484106125305760405162461bcd60e51b815260040161077190615b62565b600554831061254b5760055461254890600190615e57565b92505b60006125578585615e57565b612562906001615e3f565b6001600160401b0381111561258757634e487b7160e01b600052604160045260246000fd5b6040519080825280602002602001820160405280156125c057816020015b6125ad614e75565b8152602001906001900390816125a55790505b509050845b84811161291157604051806101000160405280600583815481106125f957634e487b7160e01b600052603260045260246000fd5b90600052602060002090600802016000015481526020016005838154811061263157634e487b7160e01b600052603260045260246000fd5b90600052602060002090600802016001015481526020016005838154811061266957634e487b7160e01b600052603260045260246000fd5b9060005260206000209060080201600201548152602001600583815481106126a157634e487b7160e01b600052603260045260246000fd5b6000918252602091829020600360089092020101546001600160a01b03168252600580549290910191849081106126e857634e487b7160e01b600052603260045260246000fd5b6000918252602091829020600460089092020101546001600160a01b031682526005805492909101918490811061272f57634e487b7160e01b600052603260045260246000fd5b9060005260206000209060080201600501805461274b90615e85565b80601f016020809104026020016040519081016040528092919081815260200182805461277790615e85565b80156127c45780601f10612799576101008083540402835291602001916127c4565b820191906000526020600020905b8154815290600101906020018083116127a757829003601f168201915b50505050508152602001600583815481106127ef57634e487b7160e01b600052603260045260246000fd5b9060005260206000209060080201600601805461280b90615e85565b80601f016020809104026020016040519081016040528092919081815260200182805461283790615e85565b80156128845780601f1061285957610100808354040283529160200191612884565b820191906000526020600020905b81548152906001019060200180831161286757829003601f168201915b50505050508152602001600583815481106128af57634e487b7160e01b600052603260045260246000fd5b600091825260209091206007600890920201015460ff1615159052826128d58884615e57565b815181106128f357634e487b7160e01b600052603260045260246000fd5b6020026020010181905250808061290990615eba565b9150506125c5565b50949350505050565b612922614ece565b816001600160a01b0381166129495760405162461bcd60e51b815260040161077190615c48565b6001600160a01b03831660009081526001602052604090819020815160a0810190925280548290829061297b90615e85565b80601f01602080910402602001604051908101604052809291908181526020018280546129a790615e85565b80156129f45780601f106129c9576101008083540402835291602001916129f4565b820191906000526020600020905b8154815290600101906020018083116129d757829003601f168201915b50505050508152602001600182018054612a0d90615e85565b80601f0160208091040260200160405190810160405280929190818152602001828054612a3990615e85565b8015612a865780601f10612a5b57610100808354040283529160200191612a86565b820191906000526020600020905b815481529060010190602001808311612a6957829003601f168201915b50505050508152602001600282018054612a9f90615e85565b80601f0160208091040260200160405190810160405280929190818152602001828054612acb90615e85565b8015612b185780601f10612aed57610100808354040283529160200191612b18565b820191906000526020600020905b815481529060010190602001808311612afb57829003601f168201915b50505091835250506003919091015460ff80821660208401526101009091041615156040909101529392505050565b612b4f614053565b6001600160a01b0316612b60611c9a565b6001600160a01b031614612b865760405162461bcd60e51b815260040161077190615b2d565b806001600160a01b038116612bad5760405162461bcd60e51b815260040161077190615c48565b8160058481548110612bcf57634e487b7160e01b600052603260045260246000fd5b906000526020600020906008020160040160006101000a8154816001600160a01b0302191690836001600160a01b03160217905550505050565b600d5490565b806000612c1b82613c3e565b9050612c2681611c5c565b612c425760405162461bcd60e51b815260040161077190615bf1565b61085183614530565b816000612c5782613c3e565b9050612c6281611c5c565b612c7e5760405162461bcd60e51b815260040161077190615bf1565b826001600160a01b038116612ca55760405162461bcd60e51b815260040161077190615c48565b6001612cb086610a17565b6003811115612ccf57634e487b7160e01b600052602160045260246000fd5b1415612cde57612cde8561429e565b610a10858561469c565b60095490565b612cf6614053565b6001600160a01b0316612d07611c9a565b6001600160a01b031614612d2d5760405162461bcd60e51b815260040161077190615b2d565b806001600160a01b038116612d545760405162461bcd60e51b815260040161077190615c48565b6000600c8481548110612d7757634e487b7160e01b600052603260045260246000fd5b600091825260208083206001600160a01b0387168452600b9091526040909220546006909102909101915080612dbd57634e487b7160e01b600052600160045260246000fd5b6000600a612dcc600184615e57565b81548110612dea57634e487b7160e01b600052603260045260246000fd5b9060005260206000209060040201905080600101866001612e0b9190615e3f565b8154600181018355600092835260208320015560028201805491612e2e83615eba565b90915550508254600181018455600093845260209093209092015550505050565b6001600160a01b038116600090815260066020526040902060050154606090612e8857634e487b7160e01b600052600160045260246000fd5b6001600160a01b0382166000908152600660205260408120600501546001600160401b03811115612ec957634e487b7160e01b600052604160045260246000fd5b604051908082528060200260200182016040528015612ef2578160200160208202803683370190505b5090506000805b6001600160a01b038516600090815260066020526040902060040154811015612fa7576001600160a01b03851660009081526006602090815260408083208484526002810183528184205480855260039091019092529091205460ff1615612f9457808484612f6781615eba565b955081518110612f8757634e487b7160e01b600052603260045260246000fd5b6020026020010181815250505b5080612f9f81615eba565b915050612ef9565b50909392505050565b60008160095480821115612fd65760405162461bcd60e51b8152600401610771906158c1565b8380612ff45760405162461bcd60e51b815260040161077190615acf565b60086000613003600188615e57565b81526020810191909152604001600020600b015460ff1695945050505050565b61302b614053565b6001600160a01b031661303c611c9a565b6001600160a01b0316146130625760405162461bcd60e51b815260040161077190615b2d565b6001600160a01b0381166130885760405162461bcd60e51b8152600401610771906158e7565b6130918161424e565b50565b61309c614053565b6001600160a01b03166130ad611c9a565b6001600160a01b0316146130d35760405162461bcd60e51b815260040161077190615b2d565b856001600160a01b0381166130fa5760405162461bcd60e51b815260040161077190615c48565b61310787878787876147c1565b6002808416141561311b5761311b87614977565b6004808416141561312f5761312f87614a8d565b60088084161415613144576131448783614bdc565b50505050505050565b600a54600090829080821061316157600080fd5b600a848154811061318257634e487b7160e01b600052603260045260246000fd5b60009182526020909120600490910201546001600160a01b0316949350505050565b836001600160a01b0381166131cb5760405162461bcd60e51b815260040161077190615c48565b6131d3614053565b6001600160a01b03166131e4611c9a565b6001600160a01b03161461320a5760405162461bcd60e51b815260040161077190615b2d565b600c80546001810182556000919091528451600682027fdf6966c971051c3d54ec59162606531493a51404a002842f56009d7e5cf4a8c7810191613275917fdf6966c971051c3d54ec59162606531493a51404a002842f56009d7e5cf4a8c901906020890190614d17565b50845161328b9060038301906020880190614d17565b5083516132a19060048301906020870190614d17565b5060058101805460ff191660011790556132bb8288612cee565b7fcbbf31cd62dff8d3e3fd3ff1549adbbd47b39c0682301e54af8f3a0ffaade4a387836040516132ec9291906155d3565b60405180910390a150505050505050565b600c5460009082106133215760405162461bcd60e51b815260040161077190615b93565b600a548311156133435760405162461bcd60e51b815260040161077190615aff565b6000600c838154811061336657634e487b7160e01b600052603260045260246000fd5b6000918252602082206006909102015491505b818110156134015784600c85815481106133a357634e487b7160e01b600052603260045260246000fd5b906000526020600020906006020160000182815481106133d357634e487b7160e01b600052603260045260246000fd5b906000526020600020015414156133ef576001925050506112af565b806133f981615eba565b915050613379565b506000949350505050565b6007546060908061342f5760405162461bcd60e51b815260040161077190615acf565b8284111561343c57600080fd5b600754841061345d5760405162461bcd60e51b815260040161077190615b62565b60075483106134785760075461347590600190615e57565b92505b60006134848585615e57565b61348f906001615e3f565b6001600160401b038111156134b457634e487b7160e01b600052604160045260246000fd5b6040519080825280602002602001820160405280156134ed57816020015b6134da614f02565b8152602001906001900390816134d25790505b509050845b848111612911576000600660006007848154811061352057634e487b7160e01b600052603260045260246000fd5b60009182526020808320909101546001600160a01b039081168452838201949094526040928301909120825160808101845281549094168452600181015491840191909152600581015491830191909152600781015460ff161515606083015291508361358d8985615e57565b815181106135ab57634e487b7160e01b600052603260045260246000fd5b602002602001018190525081806135c190615eba565b925050506134f2565b606081600954808211156135f05760405162461bcd60e51b8152600401610771906158c1565b838061360e5760405162461bcd60e51b815260040161077190615acf565b6008600061361d600188615e57565b8152602001908152602001600020600901805461161990615e85565b600c546060908061365c5760405162461bcd60e51b815260040161077190615acf565b8284111561366957600080fd5b600c54841061368a5760405162461bcd60e51b815260040161077190615b62565b600c5483106136a557600c546136a290600190615e57565b92505b60006136b18585615e57565b6136bc906001615e3f565b6001600160401b038111156136e157634e487b7160e01b600052604160045260246000fd5b60405190808252806020026020018201604052801561371a57816020015b613707614f35565b8152602001906001900390816136ff5790505b509050845b848111612911576040518060800160405280600c838154811061375257634e487b7160e01b600052603260045260246000fd5b9060005260206000209060060201600201805461376e90615e85565b80601f016020809104026020016040519081016040528092919081815260200182805461379a90615e85565b80156137e75780601f106137bc576101008083540402835291602001916137e7565b820191906000526020600020905b8154815290600101906020018083116137ca57829003601f168201915b50505050508152602001600c838154811061381257634e487b7160e01b600052603260045260246000fd5b9060005260206000209060060201600301805461382e90615e85565b80601f016020809104026020016040519081016040528092919081815260200182805461385a90615e85565b80156138a75780601f1061387c576101008083540402835291602001916138a7565b820191906000526020600020905b81548152906001019060200180831161388a57829003601f168201915b50505050508152602001600c83815481106138d257634e487b7160e01b600052603260045260246000fd5b906000526020600020906006020160040180546138ee90615e85565b80601f016020809104026020016040519081016040528092919081815260200182805461391a90615e85565b80156139675780601f1061393c57610100808354040283529160200191613967565b820191906000526020600020905b81548152906001019060200180831161394a57829003601f168201915b50505050508152602001600c838154811061399257634e487b7160e01b600052603260045260246000fd5b600091825260209091206005600690920201015460ff1615159052826139b88884615e57565b815181106139d657634e487b7160e01b600052603260045260246000fd5b602002602001018190525080806139ec90615eba565b91505061371f565b8160095480821115613a185760405162461bcd60e51b8152600401610771906158c1565b8380613a365760405162461bcd60e51b815260040161077190615acf565b60086000613a45600188615e57565b815260208082019290925260409081016000908120600301805460018101825590825292902090910180546001600160a01b0319166001600160a01b038716179055517fc307fc17fe83556f9fb433b29e4b3c62d9ff95510c7bd3215592c16041d8148890613ab79087908790615d99565b60405180910390a15050505050565b613ace614053565b6001600160a01b0316613adf611c9a565b6001600160a01b031614613b055760405162461bcd60e51b815260040161077190615b2d565b816001600160a01b038116613b2c5760405162461bcd60e51b815260040161077190615c48565b8180613b4a5760405162461bcd60e51b815260040161077190615acf565b6001600160a01b03841660009081526006602052604090206007015460ff16613b8357634e487b7160e01b600052600160045260246000fd5b6001600160a01b038416600090815260066020526040812060040180549082613bab83615eba565b909155506001600160a01b03861660008181526006602081815260408084208685526002810183528185208b90558a8552600381018352908420805460ff19166001179055938352526005909101805492935090613c0883615eba565b91905055507fcd13c9c12305e70e268e3608aad04ff3a1e9c696deeacaff175d26eada2ec62a8585604051613ab79291906155d3565b60008180613c5e5760405162461bcd60e51b815260040161077190615acf565b8260095480821115613c825760405162461bcd60e51b8152600401610771906158c1565b60086000613c91600188615e57565b8152602001908152602001600020600201549350505050919050565b600d5482908110613cd05760405162461bcd60e51b815260040161077190615bc3565b81600d8481548110613cf257634e487b7160e01b600052603260045260246000fd5b906000526020600020906005020160010160006101000a8154816001600160a01b0302191690836001600160a01b03160217905550505050565b8060095480821115613d505760405162461bcd60e51b8152600401610771906158c1565b8280613d6e5760405162461bcd60e51b815260040161077190615acf565b8360028060086000613d81600186615e57565b81526020810191909152604001600020600b0154600160201b900460ff166003811115613dbe57634e487b7160e01b600052602160045260246000fd5b14613ddb5760405162461bcd60e51b8152600401610771906159b1565b60086000613dea600189615e57565b81526020810191909152604001600020600b015460ff161515600114613e225760405162461bcd60e51b8152600401610771906159fb565b600360086000613e3360018a615e57565b81526020810191909152604001600020600b01805460ff60201b1916600160201b836003811115613e7457634e487b7160e01b600052602160045260246000fd5b0217905550600080516020615f10833981519152866003604051613e99929190615db0565b60405180910390a1505050505050565b6001600160a01b038216600090815260066020818152604080842090920180546001810182559084529220909101829055517fa64a320168fc7af2fa4bb2a506ae4dbf56b81b4d25b5e88e668c13f8df90c85290613f0a90849084906155d3565b60405180910390a15050565b8260095480821115613f3a5760405162461bcd60e51b8152600401610771906158c1565b8480613f585760405162461bcd60e51b815260040161077190615acf565b8460086000613f6860018a615e57565b81526020019081526020016000206009019080519060200190613f8c929190614d17565b508360086000613f9d60018a615e57565b8152602001908152602001600020600a019080519060200190613144929190614d17565b600a54831115613fe35760405162461bcd60e51b815260040161077190615a81565b600c828154811061400457634e487b7160e01b600052603260045260246000fd5b60009182526020808320600160069093020182018054928301815583528220018290556040517f1380c2e36e31808e9facd9dd593019045cd2e559c30ef1f87343b7a30bf4d1539190a1505050565b3390565b6040805160a0810182526001600160a01b0380861682526000602083018181529383018681526060840186815260808501838152600d80546001818101835595829052965160059097027fd7b6990105719101dabeb77144f2a3385c8033acd3af97e9423a695e81ad1eb5810180549888166001600160a01b0319998a1617905597517fd7b6990105719101dabeb77144f2a3385c8033acd3af97e9423a695e81ad1eb6890180549190971697169690961790945590517fd7b6990105719101dabeb77144f2a3385c8033acd3af97e9423a695e81ad1eb7860155517fd7b6990105719101dabeb77144f2a3385c8033acd3af97e9423a695e81ad1eb885015590517fd7b6990105719101dabeb77144f2a3385c8033acd3af97e9423a695e81ad1eb9909301805493151560ff1990941693909317909255547f92e1244fb0ae9fa971febd084422b4d2fabe644650512a440ede7884706fb966916141bb91615e57565b826040516141ca929190615dc4565b60405180910390a1505050565b81600954808211156141fb5760405162461bcd60e51b8152600401610771906158c1565b83806142195760405162461bcd60e51b815260040161077190615acf565b8461422381615e6e565b6000908152600860205260409020600b8101805460ff19166001179055600701949094555050505050565b600080546001600160a01b038381166001600160a01b0319831681178455604051919092169283917f8be0079c531659141344cd1fd0a4f28419497f9722a3daafe3b4186f6b6457e09190a35050565b80600954808211156142c25760405162461bcd60e51b8152600401610771906158c1565b82806142e05760405162461bcd60e51b815260040161077190615acf565b83600180600860006142f3600186615e57565b81526020810191909152604001600020600b0154600160201b900460ff16600381111561433057634e487b7160e01b600052602160045260246000fd5b1461434d5760405162461bcd60e51b8152600401610771906159b1565b60026008600061435e60018a615e57565b81526020810191909152604001600020600b01805460ff60201b1916600160201b83600381111561439f57634e487b7160e01b600052602160045260246000fd5b02179055506001600860006143b4838a615e57565b8152602001908152602001600020600b0160026101000a81548160ff021916908315150217905550600080516020615f10833981519152866002604051613e99929190615db0565b600d548290811061441f5760405162461bcd60e51b815260040161077190615bc3565b81600d848154811061444157634e487b7160e01b600052603260045260246000fd5b60009182526020909120600590910201600401805460ff1916911515919091179055505050565b600080805b600c848154811061448e57634e487b7160e01b600052603260045260246000fd5b600091825260209091206006909102015481101561452957600c84815481106144c757634e487b7160e01b600052603260045260246000fd5b906000526020600020906006020160000181815481106144f757634e487b7160e01b600052603260045260246000fd5b9060005260206000200154600014614517578161451381615eba565b9250505b8061452181615eba565b91505061446d565b5092915050565b808061454e5760405162461bcd60e51b815260040161077190615acf565b81600954808211156145725760405162461bcd60e51b8152600401610771906158c1565b8360008060086000614585600186615e57565b81526020810191909152604001600020600b0154600160201b900460ff1660038111156145c257634e487b7160e01b600052602160045260246000fd5b146145df5760405162461bcd60e51b8152600401610771906159b1565b6001600860006145ef838a615e57565b81526020810191909152604001600020600b01805460ff60201b1916600160201b83600381111561463057634e487b7160e01b600052602160045260246000fd5b0217905550600160086000614645838a615e57565b81526020810191909152604001600020600b01805491151563010000000263ff00000019909216919091179055600080516020615f1083398151915261468c876001615e3f565b6001604051613e99929190615db0565b81806146ba5760405162461bcd60e51b815260040161077190615acf565b82600954808211156146de5760405162461bcd60e51b8152600401610771906158c1565b84600280600860006146f1600186615e57565b81526020810191909152604001600020600b0154600160201b900460ff16600381111561472e57634e487b7160e01b600052602160045260246000fd5b1461474b5760405162461bcd60e51b8152600401610771906159b1565b856008600061475b60018b615e57565b815260200190815260200160002060040160006101000a8154816001600160a01b0302191690836001600160a01b031602179055507f9c6da09a3bc72442fbff4d94dcfcd2e442e75b368ce8471d8fa9042102621e0987876040516132ec929190615d99565b6147c9614053565b6001600160a01b03166147da611c9a565b6001600160a01b0316146148005760405162461bcd60e51b815260040161077190615b2d565b846001600160a01b0381166148275760405162461bcd60e51b815260040161077190615c48565b6040805160a081018252868152602080820187905281830186905260ff851660608301526001608083018190526001600160a01b038a16600090815290825292909220815180519293919261487f9284920190614d17565b5060208281015180516148989260018501920190614d17565b50604082015180516148b4916002840191602090910190614d17565b5060608201516003909101805460809093015115156101000261ff001960ff90931660ff199094169390931791909116919091179055600280546001818101835560008390527f405787fa12a823e0f2b7631cc41b3ba8828b3321ca811111fa75cd3aa3bb5ace90910180546001600160a01b038a166001600160a01b031990911617905590547f25ddd06f7eaeb83bb3fbcaa231d4b89e2d7bcd781043983661920061e755a7f09188916149699190615e57565b604051613e999291906155d3565b61497f614053565b6001600160a01b0316614990611c9a565b6001600160a01b0316146149b65760405162461bcd60e51b815260040161077190615b2d565b806001600160a01b0381166149dd5760405162461bcd60e51b815260040161077190615c48565b60048054600181810183557f8a35acfbc15ff81a39ae7d344fd709f28e8600b4aa8c65c6b64bfe7fe36bd19b90910180546001600160a01b0386166001600160a01b0319918216811790925560008281526003602052604090208054909116909117815560028101805460ff19168317905591547fb33697d74ba91a225da88048bf57b244fc8aa1a7b8f90aeb4788b8a4ef65d1cf918591614a7f9190615e57565b6040516141ca9291906155d3565b614a95614053565b6001600160a01b0316614aa6611c9a565b6001600160a01b031614614acc5760405162461bcd60e51b815260040161077190615b2d565b806001600160a01b038116614af35760405162461bcd60e51b815260040161077190615c48565b600a8054600180820183556000929092527fc65a7bb8d6351c1cf70c95a316cc6a92839c986682d98bc35f958f4883f9d2a86004820290810180546001600160a01b0319166001600160a01b0387161781557fc65a7bb8d6351c1cf70c95a316cc6a92839c986682d98bc35f958f4883f9d2ab909101805460ff1916841790559091614b80908390615e3f565b6001600160a01b0385166000908152600b60205260409081902091909155517fecc5d9929809b3db05d64ac37958ea2e6d0676af617f0d6ebec74a40e43382b790614bce90869085906155d3565b60405180910390a150505050565b614be4614053565b6001600160a01b0316614bf5611c9a565b6001600160a01b031614614c1b5760405162461bcd60e51b815260040161077190615b2d565b816001600160a01b038116614c425760405162461bcd60e51b815260040161077190615c48565b60078054600181810183557fa66cc928b5edb82af9bd49922954155ab7b0942694bea4ce44661d9a8736c68890910180546001600160a01b0387166001600160a01b031991821681179092556000828152600660205260409081902080549092169092178155808301869055928301805460ff1916909217909155517fa448e5e847c6d262439050f776e09d4734f840b963b23fcfb5cd33cd233518e690614bce9086906155bf565b604051806060016040528060006001600160a01b03168152602001606081526020016000151581525090565b828054614d2390615e85565b90600052602060002090601f016020900481019282614d455760008555614d8b565b82601f10614d5e57805160ff1916838001178555614d8b565b82800160010185558215614d8b579182015b82811115614d8b578251825591602001919060010190614d70565b50614d97929150614f5f565b5090565b6040518061020001604052806000815260200160008152602001600081526020016060815260200160006001600160a01b0316815260200160008152602001600081526020016000815260200160608152602001606081526020016060815260200160001515815260200160001515815260200160001515815260200160001515815260200160006003811115614e4257634e487b7160e01b600052602160045260246000fd5b905290565b6040805160a08101825260008082526020820181905291810182905260608101829052608081019190915290565b60405180610100016040528060008152602001600081526020016000815260200160006001600160a01b0316815260200160006001600160a01b0316815260200160608152602001606081526020016000151581525090565b6040518060a00160405280606081526020016060815260200160608152602001600060ff1681526020016000151581525090565b604051806080016040528060006001600160a01b0316815260200160008152602001600081526020016000151581525090565b60405180608001604052806060815260200160608152602001606081526020016000151581525090565b5b80821115614d975760008155600101614f60565b80356001600160a01b0381168114610a4857600080fd5b600082601f830112614f9b578081fd5b81356001600160401b0380821115614fb557614fb5615eeb565b604051601f8301601f191681016020018281118282101715614fd957614fd9615eeb565b604052828152848301602001861015614ff0578384fd5b82602086016020830137918201602001929092529392505050565b60006020828403121561501c578081fd5b611c9382614f74565b6000806000806080858703121561503a578283fd5b61504385614f74565b935060208501356001600160401b038082111561505e578485fd5b61506a88838901614f8b565b9450604087013591508082111561507f578384fd5b61508b88838901614f8b565b935060608701359150808211156150a0578283fd5b506150ad87828801614f8b565b91505092959194509250565b60008060008060008060c087890312156150d1578182fd5b6150da87614f74565b955060208701356001600160401b03808211156150f5578384fd5b6151018a838b01614f8b565b96506040890135915080821115615116578384fd5b6151228a838b01614f8b565b95506060890135915080821115615137578384fd5b5061514489828a01614f8b565b935050608087013560ff8116811461515a578283fd5b8092505060a087013590509295509295509295565b60008060408385031215615181578182fd5b61518a83614f74565b946020939093013593505050565b600080600080600060a086880312156151af578081fd5b6151b886614f74565b9450602086013593506040860135925060608601356001600160401b03808211156151e1578283fd5b6151ed89838a01614f8b565b93506080880135915080821115615202578283fd5b5061520f88828901614f8b565b9150509295509295909350565b60006020828403121561522d578081fd5b8151611c9381615f01565b600060208284031215615249578081fd5b5035919050565b600060208284031215615261578081fd5b5051919050565b6000806040838503121561527a578182fd5b8235915061528a60208401614f74565b90509250929050565b600080604083850312156152a5578182fd5b8235915060208301356152b781615f01565b809150509250929050565b6000806000606084860312156152d6578283fd5b8335925060208401356001600160401b03808211156152f3578384fd5b6152ff87838801614f8b565b93506040860135915080821115615314578283fd5b5061532186828701614f8b565b9150509250925092565b6000806040838503121561533d578182fd5b50508035926020909101359150565b600080600080600060a08688031215615363578283fd5b8535945060208601359350604086013592506060860135915060808601356001600160401b03811115615394578182fd5b61520f88828901614f8b565b6001600160a01b03169052565b6000815180845260208085019450808401835b838110156153e55781516001600160a01b0316875295820195908201906001016153c0565b509495945050505050565b6000815180845260208085019450808401835b838110156153e557815187529582019590820190600101615403565b15159052565b6004811061544357634e487b7160e01b600052602160045260246000fd5b9052565b60008151808452815b8181101561546c57602081850181015186830182015201615450565b8181111561547d5782602083870101525b50601f01601f19169290920160200192915050565b600061020082518452602083015160208501526040830151604085015260608301518160608601526154c6828601826153ad565b91505060808301516154db60808601826153a0565b5060a083015160a085015260c083015160c085015260e083015160e085015261010080840151858303828701526155128382615447565b92505050610120808401518583038287015261552e8382615447565b92505050610140808401518583038287015261554a8382615447565b92505050610160808401516155618287018261541f565b5050610180808401516155768287018261541f565b50506101a08084015161558b8287018261541f565b50506101c0808401516155a08287018261541f565b50506101e0808401516155b582870182615425565b5090949350505050565b6001600160a01b0391909116815260200190565b6001600160a01b03929092168252602082015260400190565b6000602080830181845280855180835260408601915060408482028701019250838701855b8281101561563f57603f1988860301845261562d858351615492565b94509285019290850190600101615611565b5092979650505050505050565b60208082528251828201819052600091906040908185019080840286018301878501865b8381101561572157888303603f19018552815180518452878101518885015286810151878501526060808201516001600160a01b03169085015260808082015161010091906156c1828801826153a0565b505060a08083015182828801526156da83880182615447565b9250505060c080830151868303828801526156f58382615447565b9250505060e080830151925061570d8187018461541f565b509588019593505090860190600101615670565b509098975050505050505050565b602080825282518282018190526000919060409081850190868401855b8281101561579157815180516001600160a01b03168552868101518786015285810151868601526060908101511515908501526080909301929085019060010161574c565b5091979650505050505050565b60208082528251828201819052600091906040908185019080840286018301878501865b8381101561572157603f198984030185528151608081518186526157e882870182615447565b915050888201518582038a8701526158008282615447565b91505087820151858203898701526158188282615447565b6060938401511515969093019590955250948701949250908601906001016157c2565b600060208252611c9360208301846153f0565b901515815260200190565b6001600160e01b031991909116815260200190565b602081016112af8284615425565b600060208252611c936020830184615447565b6020808252601890820152773cb7ba9036bab9ba1031329030b71037b933b0b734bd32b960411b604082015260600190565b6020808252600c908201526b6e6f7420696e2072616e676560a01b604082015260600190565b60208082526026908201527f4f776e61626c653a206e6577206f776e657220697320746865207a65726f206160408201526564647265737360d01b606082015260800190565b6020808252601890820152773ab9b2b91034b9903737ba1030b71037b933b0b734bd32b960411b604082015260600190565b602080825260119082015270696e6478206f7574206f662072616e676560781b604082015260600190565b6020808252600d908201526c696e76616c696420646174657360981b604082015260600190565b6020808252602a908201527f4e6f7420706f737369626c6520696e2063757272656e74207374617465206f66604082015269081d1a1948115d995b9d60b21b606082015260800190565b6020808252601e908201527f6e6f206d6564616c20616666656374656420746f20746865206576656e740000604082015260600190565b6020808252600c908201526b24b73b30b634b2102ab9b2b960a11b604082015260600190565b6020808252600f908201526e37379039bab139b1b934b83a34b7b760891b604082015260600190565b6020808252600890820152671ddc9bdb99c8125960c21b604082015260600190565b60208082526012908201527114d95d08184815da5b9b995c88119a5c9cdd60721b604082015260600190565b6020808252601690820152751d985b1d59481b5d5cdd081b9bdd081899481b9d5b1b60521b604082015260600190565b60208082526014908201527313dc99d85b9a5e995c88125b9d985b1a5908125960621b604082015260600190565b6020808252818101527f4f776e61626c653a2063616c6c6572206973206e6f7420746865206f776e6572604082015260600190565b6020808252601790820152765374617274496e646578206f7574206f662072616e676560481b604082015260600190565b60208082526016908201527513dc99d85b9a5e985d1a5bdb881b9bdd08199bdd5b9960521b604082015260600190565b6020808252601490820152734d6564616c4944206f7574206f662072616e676560601b604082015260600190565b6020808252601190820152703cb7ba9036bab9ba1031329030b236b4b760791b604082015260600190565b6020808252601290820152716f72674944206f7574206f662072616e676560701b604082015260600190565b6020808252601290820152711cda1bdd5b19081b9bdd081899481b9d5b1b60721b604082015260600190565b602080825282516001600160a01b03168282015282015160606040830152600090615ca260808401826153f0565b90506040840151151560608401528091505092915050565b600060208252611c936020830184615492565b81516001600160a01b03908116825260208084015190911690820152604080830151908201526060808301519082015260809182015115159181019190915260a00190565b600060208252825160a06020840152615d2e60c0840182615447565b90506020840151601f1980858403016040860152615d4c8383615447565b9250604086015191508085840301606086015250615d6a8282615447565b91505060ff60608501511660808401526080840151151560a08401528091505092915050565b90815260200190565b9182526001600160a01b0316602082015260400190565b82815260408101611c936020830184615425565b918252602082015260400190565b88815260208101889052604081018790526001600160a01b0386811660608301528516608082015261010060a08201819052600090615e1383820187615447565b905082810360c0840152615e278186615447565b91505082151560e08301529998505050505050505050565b60008219821115615e5257615e52615ed5565b500190565b600082821015615e6957615e69615ed5565b500390565b600081615e7d57615e7d615ed5565b506000190190565b600281046001821680615e9957607f821691505b6020821081141561081057634e487b7160e01b600052602260045260246000fd5b6000600019821415615ece57615ece615ed5565b5060010190565b634e487b7160e01b600052601160045260246000fd5b634e487b7160e01b600052604160045260246000fd5b801515811461309157600080fdfeaab6e46db3cf8733c355f44f3e9eaff83e3113187a9fa63d7159a320f750bd86a2646970667358221220aa6d29ca2ed703f11c9441a2e20064058eb513274efc76bf21e440c1b2a630c664736f6c63430008000033",
  "immutableReferences": {},
  "source": "// SPDX-License-Identifier: MIT\r\npragma solidity ^0.8;\r\nimport \"@openzeppelin/contracts/access/Ownable.sol\";\r\nimport \"./Dapp Internal Struct/UserHandler.sol\";\r\nimport \"./Dapp Internal Struct/AuthorHandler.sol\";\r\nimport \"./Dapp Internal Struct/SportsmanHandler.sol\";\r\nimport \"./Dapp Internal Struct/EventHandler.sol\";\r\nimport \"./Dapp Internal Struct/OrganizerHandler.sol\";\r\nimport \"./Dapp Internal Struct/MedalHandler.sol\";\r\nimport \"@openzeppelin/contracts/token/ERC721/ERC721.sol\";\r\nimport \"@openzeppelin/contracts/token/ERC20/IERC20.sol\";\r\n\r\ncontract MedalVerse is\r\n\tOwnable,\r\n\tUserHandler,\r\n\tAuthorHandler,\r\n\tSportsmanHandler,\r\n\tEventHandler,\r\n\tOrganizerHandler,\r\n\tMedalHandler\r\n{\r\n\r\n\tIERC20 internal Token;\r\n\t\r\n\tconstructor(address addressToken)  {\r\n\t\tToken = IERC20(addressToken);\r\n\t}\r\n\t\t\r\n\t// Modifiers ----------------------------\r\n\tmodifier isNotNull(address a)\r\n\t\tvirtual\r\n\t\toverride(\r\n\t\t\tUserHandler,\r\n\t\t\tAuthorHandler,\r\n\t\t\tSportsmanHandler,\r\n\t\t\tEventHandler,\r\n\t\t\tOrganizerHandler\r\n\t\t) {\r\n\t\trequire(a != address(0), \"should not be null\");\r\n\t\t_;\r\n\t}\r\n\tmodifier isNotNullUint256(uint256 a)\r\n\t\tvirtual\r\n\t\toverride(\r\n\t\t\tOrganizerHandler,\r\n\t\t\tSportsmanHandler,\r\n\t\t\tEventHandler,\r\n\t\t\tAuthorHandler\r\n\t\t) {\r\n\t\trequire(a != 0, \"value must not be null\");\r\n\t\t_;\r\n\t}\r\n\r\n\tmodifier isAdminOfEvent(uint256 eventID) {\r\n\t\tuint256 organizationId = getEventOrganizer(eventID);\r\n\r\n\t\trequire(checkorganizerisAdminOf(organizationId), \"you must be admin\");\r\n\t\t_;\r\n\t}\r\n\r\n\t// Methods -------------------------------\r\n\r\n\t///@dev Add a new user to the DB, using parent classes\r\n\t///@param _userAddress userAddr\r\n\t///@param _iconURI Image for the UI\r\n\t///@param _userName FName + LName\r\n\t///@param _email email address\r\n\t///@param _role Author / Organizer / sportsman\r\n\t///@param _sportsCategory id of the event\r\n\tfunction addNewUser(\r\n\t\taddress _userAddress,\r\n\t\tstring memory _iconURI,\r\n\t\tstring memory _userName,\r\n\t\tstring memory _email,\r\n\t\tuint8 _role,\r\n\t\tuint256 _sportsCategory\r\n\t) public onlyOwner isNotNull(_userAddress) {\r\n\t\taddUser(_userAddress, _iconURI, _userName, _email, _role);\r\n\t\tif ((_role & 2) == 2) addAuthor(_userAddress);\r\n\t\tif ((_role & 4) == 4) addOrganizer(_userAddress);\r\n\t\tif ((_role & 8) == 8) addSportsman(_userAddress, _sportsCategory);\r\n\t}\r\n\r\n\t///@dev register a user to an event and event to user\r\n\t///@param _userAddress address of the user\r\n\t///@param eventid id of the event\r\n\tfunction LinkUserAndEvent(address _userAddress, uint256 eventid)\r\n\t\tpublic\r\n\t\tisNotNull(_userAddress)\r\n\t{\r\n\t\tEventRegisterSportsman(eventid, _userAddress); // checks both values\r\n\t\tregisterSportsmanToEvent(_userAddress, eventid); // no check required, already don above\r\n\t}\r\n\r\n\t///@dev creates a new event, associated to an organization\r\n\t///@param organizationId Id Of the Organization\r\n\t///@param startDate starting Date\r\n\t///@param endDate ending Date\r\n\t///@param sportsCategory Category of sport for the event\r\n\t///@param eventDesc Description for the event\r\n\tfunction newEvent(\r\n\t\tuint256 organizationId,\r\n\t\tuint256 startDate,\r\n\t\tuint256 endDate,\r\n\t\tuint256 sportsCategory,\r\n\t\tstring memory eventDesc\r\n\t) public isNotNullUint256(startDate) isNotNullUint256(endDate) {\r\n\t\trequire(endDate > startDate, \"invalid dates\");\r\n\t\t// We first neet to check that the sender corresponds to an organizer\r\n\t\tuint256 organizerId = organizerByAddress[msg.sender];\r\n\t\trequire(organizerId > 0, \"you must be an organizer\");\r\n\t\trequire(\r\n\t\t\tcheckorganizerisAdminOf(organizerId, organizationId),\r\n\t\t\t\"you must be admin\"\r\n\t\t);\r\n\r\n\t\tuint256 eventID = addEvent(\r\n\t\t\torganizationId,\r\n\t\t\tstartDate,\r\n\t\t\tendDate,\r\n\t\t\tsportsCategory,\r\n\t\t\teventDesc\r\n\t\t);\r\n\t\torganizerAddEvent(organizerId, organizationId, eventID + 1);\r\n\t}\r\n\r\n\t///@dev The event starts now, checks we are an admin for the event\r\n\t///@param eventID id of the event\r\n\tfunction adminStartEvent(uint256 eventID) external isAdminOfEvent(eventID) {\r\n\t\tstartEvent(eventID);\r\n\t}\r\n\r\n\t///@dev The event ends now,checks we are an admin for the event\r\n\t///@param eventID id of the event\r\n\tfunction adminEndEvent(uint256 eventID) external isAdminOfEvent(eventID) {\r\n\t\tendEvent(eventID);\r\n\t}\r\n\r\n\t///@dev The event gets a winner and closes,checks we are an admin for the event\r\n\t///@param eventID id of the event\r\n\tfunction adminSetWinner(uint256 eventID, address winner)\r\n\t\texternal\r\n\t\tisAdminOfEvent(eventID)\r\n\t\tisNotNull(winner)\r\n\t{\r\n\t\tif (\r\n\t\t\tgetEventCurrentState(eventID) ==\r\n\t\t\tstateOfCompetition.CompetitionInProgress\r\n\t\t) endEvent(eventID);\r\n\t\tsetEventWinner(eventID, winner);\r\n\t}\r\n\r\n\t///@dev A medal is associated to an event, whatever its status\r\n\t///@param eventID id of the event\r\n\t///@param _nft address of medal nft associated to the prize\r\n\tfunction adminAddMedal(uint256 eventID, address _nft)\r\n\t\texternal\r\n\t\tisAdminOfEvent(eventID)\r\n\t{\r\n\t\t// Check we have a IERC21 contract\r\n\t\tIERC721(_nft).supportsInterface(type(IERC721).interfaceId);\r\n\r\n\t\t// Find the organizer corresponding to the event\r\n\t\tuint256 orgId = getEventOrganizer(eventID);\r\n\t\taddMedal(_nft, orgId, eventID);\r\n\t\tuint256 medalID = getMedalCount() - 1;\r\n\t\t// registers medal to the event structure\r\n\t\teventSetMedal(eventID, medalID);\r\n\t}\r\n\r\n\t///@dev Affect the medal owned by the event to the winner of the competition\r\n\t///@param eventID id of the event\r\n\tfunction adminGiveMedalToWinner(uint256 eventID)\r\n\t\texternal\r\n\t\tisAdminOfEvent(eventID)\r\n\t{\r\n\t\t// Gets the id og the winner to associate the medal\r\n\t\taddress winner = getWinner(eventID);\r\n\t\trequire(winner != address(0), \"Set a Winner First\");\r\n\t\trequire(eventHasMedal(eventID));\r\n\r\n\t\tsetMedalWinner(eventGetMedal(eventID), winner);\r\n\t\teventDistributeMedal(eventID);\r\n\t\tsportsmanAddMedal(winner, eventGetMedal(eventID));\r\n\t}\r\n\r\n\t///@dev add / remove the medal from user gallery. Nota: checks are done in getSportsmanMedal\r\n\t///@param medalIndx id of the event\r\n\tfunction publishMedal(uint256 medalIndx, bool status) public {\r\n\t\tuint256 mdID = getSportsmanMedal(msg.sender, medalIndx); // converts sportsMan->medalIndx => medalID\r\n\t\tmedalPublish(mdID, status);\r\n\t}\r\n\r\n\t///@dev Set the geographic position of the Event\r\n\t///@param eventID id of the event\r\n\tfunction adminSetEventPosition(\r\n\t\tuint256 eventID,\r\n\t\tstring memory posX,\r\n\t\tstring memory posY\r\n\t) external isAdminOfEvent(eventID) {\r\n\t\teventSetPosition(eventID, posX, posY);\r\n\t}\r\n\r\n\tfunction withdraw() public onlyOwner {\r\n\t\tuint balance = Token.balanceOf(address(this));\r\n\t\tToken.transfer(msg.sender, balance);\r\n\t}\r\n\t\r\n}\r\n\r\n\r\n",
  "sourcePath": "C:\\DEV\\ETH\\Alyra\\MedalVerse\\MedalVerse-Front\\contracts\\MedalVerse.sol",
  "compiler": {
    "name": "solc",
    "version": "0.8.0+commit.c7dfd78e.Emscripten.clang"
  },
  "schemaVersion": "3.4.4",
  "updatedAt": "2022-01-12T09:50:09.377Z",
  "networkType": "ethereum",
  "devdoc": {
    "kind": "dev",
    "methods": {
      "LinkUserAndEvent(address,uint256)": {
        "details": "register a user to an event and event to user",
        "params": {
          "_userAddress": "address of the user",
          "eventid": "id of the event"
        }
      },
      "addCreation(address,uint256,uint256,string,string)": {
        "details": "Register a creation for a given author",
        "params": {
          "_URI": "Address of the image, used before minting the NFT",
          "_description": "may be null",
          "_price": "Price of the NFT",
          "_sportCategory": "Category for UI",
          "_user": "Address of the user to register as author"
        }
      },
      "addEvent(uint256,uint256,uint256,uint256,string)": {
        "details": "add an event to the list of events",
        "params": {
          "_endDate": "Date for the event to finish",
          "_eventDescription": "Desc of the evnt",
          "_organizedBy": "id of the oganization",
          "_sportCategory": "Type of event",
          "_startDate": "Date for the event to start"
        }
      },
      "addNewUser(address,string,string,string,uint8,uint256)": {
        "details": "Add a new user to the DB, using parent classes",
        "params": {
          "_email": "email address",
          "_iconURI": "Image for the UI",
          "_role": "Author / Organizer / sportsman",
          "_sportsCategory": "id of the event",
          "_userAddress": "userAddr",
          "_userName": "FName + LName"
        }
      },
      "addOrganization(address,string,string,string)": {
        "details": "add an organization to the list of orgs",
        "params": {
          "_description": "UI description text",
          "_logoURI": "Link to the icon lo\t\tuser.organizationState[orgId] = true;",
          "_name": "UI dislay name",
          "_user": "admin of the organization"
        }
      },
      "adminAddMedal(uint256,address)": {
        "details": "A medal is associated to an event, whatever its status",
        "params": {
          "_nft": "address of medal nft associated to the prize",
          "eventID": "id of the event"
        }
      },
      "adminEndEvent(uint256)": {
        "details": "The event ends now,checks we are an admin for the event",
        "params": {
          "eventID": "id of the event"
        }
      },
      "adminGiveMedalToWinner(uint256)": {
        "details": "Affect the medal owned by the event to the winner of the competition",
        "params": {
          "eventID": "id of the event"
        }
      },
      "adminSetEventPosition(uint256,string,string)": {
        "details": "Set the geographic position of the Event",
        "params": {
          "eventID": "id of the event"
        }
      },
      "adminSetWinner(uint256,address)": {
        "details": "The event gets a winner and closes,checks we are an admin for the event",
        "params": {
          "eventID": "id of the event"
        }
      },
      "adminStartEvent(uint256)": {
        "details": "The event starts now, checks we are an admin for the event",
        "params": {
          "eventID": "id of the event"
        }
      },
      "affectNFTtoCreation(uint256,address)": {
        "details": "Register a creation for a given author TESTED",
        "params": {
          "_NFT": "Address of the minted NFT",
          "_creationId": "index of the creation as registered in allCreations"
        }
      },
      "checkorganizerisAdminOf(uint256)": {
        "details": "returns true if the user is admin of the organization",
        "params": {
          "orgIndx": "index amoung organizations"
        }
      },
      "checkorganizerisAdminOf(uint256,uint256)": {
        "details": "returns true if the user is admin of the organization",
        "params": {
          "orgIndx": "index amoung organizations",
          "organizer": "index amoung organizers"
        }
      },
      "eventGetMedal(uint256)": {
        "details": "returns the id of the medal associated to the event",
        "params": {
          "eventID": "id of the event"
        }
      },
      "eventGetPositionX(uint256)": {
        "details": "returns X coordinate of an event",
        "params": {
          "eventID": "id of the event"
        }
      },
      "eventGetPositionY(uint256)": {
        "details": "returns Y coordinate of an event",
        "params": {
          "eventID": "id of the event"
        }
      },
      "eventGetWinner(uint256)": {
        "details": "returns the id of the winner associated to the event",
        "params": {
          "eventID": "id of the event"
        }
      },
      "eventHasMedal(uint256)": {
        "details": "checks if event has a medal",
        "params": {
          "eventID": "id of the event"
        }
      },
      "getAdminList(uint256)": {
        "details": "returns the list activ admin of an organisation",
        "params": {
          "orgIndx": "index amoung organizations"
        }
      },
      "getAuthor(address)": {
        "details": "returns the Author struc corresponding to the user TESTED",
        "params": {
          "_user": "user address"
        }
      },
      "getAuthorCreationsList(address)": {
        "details": "returns the list of creations for user _author TESTED",
        "params": {
          "_author": "address of the user"
        }
      },
      "getCreationList(uint256,uint256)": {
        "details": "returns the list of creations: they may be inactive, must test activ value TESTED",
        "params": {
          "_end": "ending index - paging",
          "_start": "start index  - paging"
        }
      },
      "getEvent(uint256)": {
        "details": "returns the details of a specific event",
        "params": {
          "eventId": "id of the event"
        }
      },
      "getEventCount()": {
        "details": "returns the number of Events"
      },
      "getEventCurrentState(uint256)": {
        "details": "returns the current state of the event",
        "params": {
          "evntID": "index of the event"
        }
      },
      "getEventList(uint256)": {
        "details": "return the list of events associated to an organization",
        "params": {
          "orgId": "id of the org"
        }
      },
      "getEventList(uint256,uint256)": {
        "details": "returns the list of Events",
        "params": {
          "_end": "ending index - paging",
          "_start": "start index  - paging"
        }
      },
      "getNumberOfSportsman()": {
        "details": "returns the number of Sportsman"
      },
      "getOrganisationCount()": {
        "details": "returns the number of Organizations"
      },
      "getOrganizationsList(uint256,uint256)": {
        "details": "returns the list of organization : they may be inactive, must test activ value",
        "params": {
          "_end": "ending index amoung ogranizations",
          "_start": "starting index amoung organizations"
        }
      },
      "getOrganizerAddressById(uint256)": {
        "details": "returns the address of an admin, given an id organizer",
        "params": {
          "id": "id (=index) of the organizer"
        }
      },
      "getOrganizerOrganisationList(address)": {
        "details": "returns the list of organization the organizer subscribed to",
        "params": {
          "_user": "address of the user"
        }
      },
      "getSportsManEventsNumber(address)": {
        "details": "returns the nb of activ events the sportsman registered to",
        "params": {
          "sportsmanId": "address of the sportsman"
        }
      },
      "getSportsmanEventsSubscriptions(address)": {
        "details": "returns the list of activ events the sportsman registered to",
        "params": {
          "sportsmanId": "address of the sportsman"
        }
      },
      "getSportsmanList(uint256,uint256)": {
        "details": "returns the list of organization : they may be inactif, must test activ value",
        "params": {
          "_end": "ending index amoung ogranizations",
          "_start": "starting index amoung organizations"
        }
      },
      "getUserDetails(address)": {
        "details": "Returns details about a user, given an address (for UI=)",
        "params": {
          "_userAdr": "of the user"
        }
      },
      "getWinner(uint256)": {
        "details": "returns the winner of the event",
        "params": {
          "eventId": "id of the event"
        }
      },
      "newEvent(uint256,uint256,uint256,uint256,string)": {
        "details": "creates a new event, associated to an organization",
        "params": {
          "endDate": "ending Date",
          "eventDesc": "Description for the event",
          "organizationId": "Id Of the Organization",
          "sportsCategory": "Category of sport for the event",
          "startDate": "starting Date"
        }
      },
      "organizationAddAdmin(uint256,address)": {
        "details": "add an admin to an org.",
        "params": {
          "_user": "admin of the organizatio",
          "orgId": "id of the organization"
        }
      },
      "owner()": {
        "details": "Returns the address of the current owner."
      },
      "publishMedal(uint256,bool)": {
        "details": "add / remove the medal from user gallery. Nota: checks are done in getSportsmanMedal",
        "params": {
          "medalIndx": "id of the event"
        }
      },
      "renounceOwnership()": {
        "details": "Leaves the contract without owner. It will not be possible to call `onlyOwner` functions anymore. Can only be called by the current owner. NOTE: Renouncing ownership will leave the contract without an owner, thereby removing any functionality that is only available to the owner."
      },
      "transferOwnership(address)": {
        "details": "Transfers ownership of the contract to a new account (`newOwner`). Can only be called by the current owner."
      }
    },
    "version": 1
  },
  "userdoc": {
    "kind": "user",
    "methods": {},
    "version": 1
  }
}