{
  "contractName": "NFTArtist",
  "abi": [
    {
      "inputs": [
        {
          "internalType": "address",
          "name": "addressMedal",
          "type": "address"
        },
        {
          "internalType": "address",
          "name": "addressMedalVerse",
          "type": "address"
        }
      ],
      "stateMutability": "nonpayable",
      "type": "constructor"
    },
    {
      "anonymous": false,
      "inputs": [
        {
          "indexed": true,
          "internalType": "address",
          "name": "owner",
          "type": "address"
        },
        {
          "indexed": true,
          "internalType": "address",
          "name": "approved",
          "type": "address"
        },
        {
          "indexed": true,
          "internalType": "uint256",
          "name": "tokenId",
          "type": "uint256"
        }
      ],
      "name": "Approval",
      "type": "event"
    },
    {
      "anonymous": false,
      "inputs": [
        {
          "indexed": true,
          "internalType": "address",
          "name": "owner",
          "type": "address"
        },
        {
          "indexed": true,
          "internalType": "address",
          "name": "operator",
          "type": "address"
        },
        {
          "indexed": false,
          "internalType": "bool",
          "name": "approved",
          "type": "bool"
        }
      ],
      "name": "ApprovalForAll",
      "type": "event"
    },
    {
      "anonymous": false,
      "inputs": [
        {
          "indexed": true,
          "internalType": "address",
          "name": "previousOwner",
          "type": "address"
        },
        {
          "indexed": true,
          "internalType": "address",
          "name": "newOwner",
          "type": "address"
        }
      ],
      "name": "OwnershipTransferred",
      "type": "event"
    },
    {
      "anonymous": false,
      "inputs": [
        {
          "indexed": true,
          "internalType": "address",
          "name": "from",
          "type": "address"
        },
        {
          "indexed": true,
          "internalType": "address",
          "name": "to",
          "type": "address"
        },
        {
          "indexed": true,
          "internalType": "uint256",
          "name": "tokenId",
          "type": "uint256"
        }
      ],
      "name": "Transfer",
      "type": "event"
    },
    {
      "anonymous": false,
      "inputs": [
        {
          "indexed": false,
          "internalType": "address",
          "name": "owner",
          "type": "address"
        },
        {
          "indexed": false,
          "internalType": "string",
          "name": "name",
          "type": "string"
        },
        {
          "indexed": false,
          "internalType": "uint256",
          "name": "tokenId",
          "type": "uint256"
        }
      ],
      "name": "nftMint",
      "type": "event"
    },
    {
      "inputs": [
        {
          "internalType": "uint256",
          "name": "",
          "type": "uint256"
        }
      ],
      "name": "NFTs",
      "outputs": [
        {
          "internalType": "string",
          "name": "name",
          "type": "string"
        },
        {
          "internalType": "uint256",
          "name": "tokenId",
          "type": "uint256"
        },
        {
          "internalType": "address",
          "name": "creator",
          "type": "address"
        },
        {
          "internalType": "string",
          "name": "imgPath",
          "type": "string"
        }
      ],
      "stateMutability": "view",
      "type": "function",
      "constant": true
    },
    {
      "inputs": [
        {
          "internalType": "address",
          "name": "to",
          "type": "address"
        },
        {
          "internalType": "uint256",
          "name": "tokenId",
          "type": "uint256"
        }
      ],
      "name": "approve",
      "outputs": [],
      "stateMutability": "nonpayable",
      "type": "function"
    },
    {
      "inputs": [
        {
          "internalType": "address",
          "name": "owner",
          "type": "address"
        }
      ],
      "name": "balanceOf",
      "outputs": [
        {
          "internalType": "uint256",
          "name": "",
          "type": "uint256"
        }
      ],
      "stateMutability": "view",
      "type": "function",
      "constant": true
    },
    {
      "inputs": [
        {
          "internalType": "uint256",
          "name": "tokenId",
          "type": "uint256"
        }
      ],
      "name": "getApproved",
      "outputs": [
        {
          "internalType": "address",
          "name": "",
          "type": "address"
        }
      ],
      "stateMutability": "view",
      "type": "function",
      "constant": true
    },
    {
      "inputs": [
        {
          "internalType": "address",
          "name": "owner",
          "type": "address"
        },
        {
          "internalType": "address",
          "name": "operator",
          "type": "address"
        }
      ],
      "name": "isApprovedForAll",
      "outputs": [
        {
          "internalType": "bool",
          "name": "",
          "type": "bool"
        }
      ],
      "stateMutability": "view",
      "type": "function",
      "constant": true
    },
    {
      "inputs": [],
      "name": "name",
      "outputs": [
        {
          "internalType": "string",
          "name": "",
          "type": "string"
        }
      ],
      "stateMutability": "view",
      "type": "function",
      "constant": true
    },
    {
      "inputs": [],
      "name": "owner",
      "outputs": [
        {
          "internalType": "address",
          "name": "",
          "type": "address"
        }
      ],
      "stateMutability": "view",
      "type": "function",
      "constant": true
    },
    {
      "inputs": [
        {
          "internalType": "uint256",
          "name": "tokenId",
          "type": "uint256"
        }
      ],
      "name": "ownerOf",
      "outputs": [
        {
          "internalType": "address",
          "name": "",
          "type": "address"
        }
      ],
      "stateMutability": "view",
      "type": "function",
      "constant": true
    },
    {
      "inputs": [],
      "name": "renounceOwnership",
      "outputs": [],
      "stateMutability": "nonpayable",
      "type": "function"
    },
    {
      "inputs": [
        {
          "internalType": "address",
          "name": "from",
          "type": "address"
        },
        {
          "internalType": "address",
          "name": "to",
          "type": "address"
        },
        {
          "internalType": "uint256",
          "name": "tokenId",
          "type": "uint256"
        }
      ],
      "name": "safeTransferFrom",
      "outputs": [],
      "stateMutability": "nonpayable",
      "type": "function"
    },
    {
      "inputs": [
        {
          "internalType": "address",
          "name": "from",
          "type": "address"
        },
        {
          "internalType": "address",
          "name": "to",
          "type": "address"
        },
        {
          "internalType": "uint256",
          "name": "tokenId",
          "type": "uint256"
        },
        {
          "internalType": "bytes",
          "name": "_data",
          "type": "bytes"
        }
      ],
      "name": "safeTransferFrom",
      "outputs": [],
      "stateMutability": "nonpayable",
      "type": "function"
    },
    {
      "inputs": [
        {
          "internalType": "address",
          "name": "operator",
          "type": "address"
        },
        {
          "internalType": "bool",
          "name": "approved",
          "type": "bool"
        }
      ],
      "name": "setApprovalForAll",
      "outputs": [],
      "stateMutability": "nonpayable",
      "type": "function"
    },
    {
      "inputs": [],
      "name": "symbol",
      "outputs": [
        {
          "internalType": "string",
          "name": "",
          "type": "string"
        }
      ],
      "stateMutability": "view",
      "type": "function",
      "constant": true
    },
    {
      "inputs": [
        {
          "internalType": "uint256",
          "name": "index",
          "type": "uint256"
        }
      ],
      "name": "tokenByIndex",
      "outputs": [
        {
          "internalType": "uint256",
          "name": "",
          "type": "uint256"
        }
      ],
      "stateMutability": "view",
      "type": "function",
      "constant": true
    },
    {
      "inputs": [
        {
          "internalType": "address",
          "name": "owner",
          "type": "address"
        },
        {
          "internalType": "uint256",
          "name": "index",
          "type": "uint256"
        }
      ],
      "name": "tokenOfOwnerByIndex",
      "outputs": [
        {
          "internalType": "uint256",
          "name": "",
          "type": "uint256"
        }
      ],
      "stateMutability": "view",
      "type": "function",
      "constant": true
    },
    {
      "inputs": [],
      "name": "totalSupply",
      "outputs": [
        {
          "internalType": "uint256",
          "name": "",
          "type": "uint256"
        }
      ],
      "stateMutability": "view",
      "type": "function",
      "constant": true
    },
    {
      "inputs": [
        {
          "internalType": "address",
          "name": "from",
          "type": "address"
        },
        {
          "internalType": "address",
          "name": "to",
          "type": "address"
        },
        {
          "internalType": "uint256",
          "name": "tokenId",
          "type": "uint256"
        }
      ],
      "name": "transferFrom",
      "outputs": [],
      "stateMutability": "nonpayable",
      "type": "function"
    },
    {
      "inputs": [
        {
          "internalType": "address",
          "name": "newOwner",
          "type": "address"
        }
      ],
      "name": "transferOwnership",
      "outputs": [],
      "stateMutability": "nonpayable",
      "type": "function"
    },
    {
      "inputs": [
        {
          "internalType": "string",
          "name": "name",
          "type": "string"
        },
        {
          "internalType": "string",
          "name": "Uri",
          "type": "string"
        }
      ],
      "name": "mintNFTArtist",
      "outputs": [],
      "stateMutability": "nonpayable",
      "type": "function"
    },
    {
      "inputs": [
        {
          "internalType": "uint256",
          "name": "tokenId",
          "type": "uint256"
        }
      ],
      "name": "tokenURI",
      "outputs": [
        {
          "internalType": "string",
          "name": "",
          "type": "string"
        }
      ],
      "stateMutability": "view",
      "type": "function",
      "constant": true
    },
    {
      "inputs": [
        {
          "internalType": "bytes4",
          "name": "interfaceId",
          "type": "bytes4"
        }
      ],
      "name": "supportsInterface",
      "outputs": [
        {
          "internalType": "bool",
          "name": "",
          "type": "bool"
        }
      ],
      "stateMutability": "view",
      "type": "function",
      "constant": true
    },
    {
      "inputs": [
        {
          "internalType": "uint256",
          "name": "newPrice",
          "type": "uint256"
        }
      ],
      "name": "changePrice",
      "outputs": [],
      "stateMutability": "nonpayable",
      "type": "function"
    },
    {
      "inputs": [],
      "name": "checkPrice",
      "outputs": [
        {
          "internalType": "uint256",
          "name": "",
          "type": "uint256"
        }
      ],
      "stateMutability": "view",
      "type": "function",
      "constant": true
    },
    {
      "inputs": [
        {
          "internalType": "address",
          "name": "addressMedalVerse",
          "type": "address"
        }
      ],
      "name": "setAddressMedalVerse",
      "outputs": [],
      "stateMutability": "nonpayable",
      "type": "function"
    }
  ],
  "bytecode": "0x608060405268056bc75e2d63100000600f553480156200001e57600080fd5b506040516200257e3803806200257e83398101604081905262000041916200020c565b604080518082018252600a8152694d6564616c566572736560b01b60208083019182528351808501909452600384526226a22b60e91b9084015281519192916200008e9160009162000149565b508051620000a490600190602084019062000149565b505050620000c1620000bb620000f360201b60201c565b620000f7565b600d80546001600160a01b039384166001600160a01b0319918216179091556010805492909316911617905562000280565b3390565b600b80546001600160a01b038381166001600160a01b0319831681179093556040519116919082907f8be0079c531659141344cd1fd0a4f28419497f9722a3daafe3b4186f6b6457e090600090a35050565b828054620001579062000243565b90600052602060002090601f0160209004810192826200017b5760008555620001c6565b82601f106200019657805160ff1916838001178555620001c6565b82800160010185558215620001c6579182015b82811115620001c6578251825591602001919060010190620001a9565b50620001d4929150620001d8565b5090565b5b80821115620001d45760008155600101620001d9565b80516001600160a01b03811681146200020757600080fd5b919050565b600080604083850312156200021f578182fd5b6200022a83620001ef565b91506200023a60208401620001ef565b90509250929050565b6002810460018216806200025857607f821691505b602082108114156200027a57634e487b7160e01b600052602260045260246000fd5b50919050565b6122ee80620002906000396000f3fe608060405234801561001057600080fd5b50600436106101285760003560e01c806301ffc9a71461012d57806306fdde0314610156578063081812fc1461016b578063089712ed1461018b578063095ea7b3146101a057806318160ddd146101b357806323b872dd146101c85780632f745c59146101db57806342842e0e146101ee5780634f6ccce7146102015780636352211e14610214578063703f67331461022757806370a082311461023a578063715018a61461024d5780638da5cb5b146102555780638fc3047d1461025d57806395d89b4114610265578063a22cb4651461026d578063a2b40d1914610280578063a3c0b95b14610293578063b88d4fde146102b6578063c87b56dd146102c9578063e985e9c5146102dc578063f2fde38b146102ef575b600080fd5b61014061013b3660046119ae565b610302565b60405161014d9190611b7a565b60405180910390f35b61015e610315565b60405161014d9190611b85565b61017e610179366004611a46565b6103a7565b60405161014d9190611ad1565b61019e610199366004611834565b6103f3565b005b61019e6101ae366004611969565b610454565b6101bb6104ec565b60405161014d9190612170565b61019e6101d6366004611880565b6104f2565b6101bb6101e9366004611969565b61052a565b61019e6101fc366004611880565b61057c565b6101bb61020f366004611a46565b610597565b61017e610222366004611a46565b6105f2565b61019e6102353660046119e6565b610627565b6101bb610248366004611834565b610814565b61019e610858565b61017e6108a3565b6101bb6108b2565b61015e6108b8565b61019e61027b366004611933565b6108c7565b61019e61028e366004611a46565b6108dd565b6102a66102a1366004611a46565b610921565b60405161014d9493929190611b98565b61019e6102c43660046118bb565b610a67565b61015e6102d7366004611a46565b610aa6565b6101406102ea36600461184e565b610ab1565b61019e6102fd366004611834565b610adf565b600061030d82610b50565b90505b919050565b606060008054610324906121e8565b80601f0160208091040260200160405190810160405280929190818152602001828054610350906121e8565b801561039d5780601f106103725761010080835404028352916020019161039d565b820191906000526020600020905b81548152906001019060200180831161038057829003601f168201915b5050505050905090565b60006103b282610b75565b6103d75760405162461bcd60e51b81526004016103ce90611f79565b60405180910390fd5b506000908152600460205260409020546001600160a01b031690565b6103fb610b92565b6001600160a01b031661040c6108a3565b6001600160a01b0316146104325760405162461bcd60e51b81526004016103ce90611fc5565b601080546001600160a01b0319166001600160a01b0392909216919091179055565b600061045f826105f2565b9050806001600160a01b0316836001600160a01b031614156104935760405162461bcd60e51b81526004016103ce90612092565b806001600160a01b03166104a5610b92565b6001600160a01b031614806104c157506104c1816102ea610b92565b6104dd5760405162461bcd60e51b81526004016103ce90611dba565b6104e78383610b96565b505050565b60095490565b6105036104fd610b92565b82610c04565b61051f5760405162461bcd60e51b81526004016103ce906120d3565b6104e7838383610c89565b600061053583610814565b82106105535760405162461bcd60e51b81526004016103ce90611bde565b506001600160a01b03919091166000908152600760209081526040808320938352929052205490565b6104e783838360405180602001604052806000815250610a67565b60006105a16104ec565b82106105bf5760405162461bcd60e51b81526004016103ce90612124565b600982815481106105e057634e487b7160e01b600052603260045260246000fd5b90600052602060002001549050919050565b6000818152600260205260408120546001600160a01b03168061030d5760405162461bcd60e51b81526004016103ce90611e5c565b600d546040516370a0823160e01b81526000916001600160a01b0316906370a0823190610658903390600401611ad1565b60206040518083038186803b15801561067057600080fd5b505afa158015610684573d6000803e3d6000fd5b505050506040513d601f19601f820116820180604052508101906106a89190611a5e565b9050600f5481116106b857600080fd5b600d54601054600f546040516323b872dd60e01b81526001600160a01b03938416936323b872dd936106f39333939290911691600401611ae5565b602060405180830381600087803b15801561070d57600080fd5b505af1158015610721573d6000803e3d6000fd5b505050506040513d601f19601f820116820180604052508101906107459190611992565b50610750600c610db6565b600061075c600c610dbf565b90506107683382610dc3565b6107728184610ea2565b6000818152600e602090815260409091208551610791928701906116f6565b506000818152600e60209081526040909120600181018390556002810180546001600160a01b0319163317905584516107d2926003909201918601906116f6565b507f48d75103c890e8eb6eabe30bc87d0ef1abfc3b28293b5fb069dd461eab63a42833858360405161080693929190611b46565b60405180910390a150505050565b60006001600160a01b03821661083c5760405162461bcd60e51b81526004016103ce90611e12565b506001600160a01b031660009081526003602052604090205490565b610860610b92565b6001600160a01b03166108716108a3565b6001600160a01b0316146108975760405162461bcd60e51b81526004016103ce90611fc5565b6108a16000610ee6565b565b600b546001600160a01b031690565b600f5490565b606060018054610324906121e8565b6108d96108d2610b92565b8383610f38565b5050565b6108e5610b92565b6001600160a01b03166108f66108a3565b6001600160a01b03161461091c5760405162461bcd60e51b81526004016103ce90611fc5565b600f55565b600e6020526000908152604090208054819061093c906121e8565b80601f0160208091040260200160405190810160405280929190818152602001828054610968906121e8565b80156109b55780601f1061098a576101008083540402835291602001916109b5565b820191906000526020600020905b81548152906001019060200180831161099857829003601f168201915b5050505060018301546002840154600385018054949592946001600160a01b039092169350906109e4906121e8565b80601f0160208091040260200160405190810160405280929190818152602001828054610a10906121e8565b8015610a5d5780601f10610a3257610100808354040283529160200191610a5d565b820191906000526020600020905b815481529060010190602001808311610a4057829003601f168201915b5050505050905084565b610a78610a72610b92565b83610c04565b610a945760405162461bcd60e51b81526004016103ce906120d3565b610aa084848484610fdb565b50505050565b606061030d8261100e565b6001600160a01b03918216600090815260056020908152604080832093909416825291909152205460ff1690565b610ae7610b92565b6001600160a01b0316610af86108a3565b6001600160a01b031614610b1e5760405162461bcd60e51b81526004016103ce90611fc5565b6001600160a01b038116610b445760405162461bcd60e51b81526004016103ce90611c7b565b610b4d81610ee6565b50565b60006001600160e01b0319821663780e9d6360e01b148061030d575061030d82611127565b6000908152600260205260409020546001600160a01b0316151590565b3390565b600081815260046020526040902080546001600160a01b0319166001600160a01b0384169081179091558190610bcb826105f2565b6001600160a01b03167f8c5be1e5ebec7d5bd14f71427d1e84f3dd0314c0f7b2291e5b200ac8c7c3b92560405160405180910390a45050565b6000610c0f82610b75565b610c2b5760405162461bcd60e51b81526004016103ce90611d6e565b6000610c36836105f2565b9050806001600160a01b0316846001600160a01b03161480610c715750836001600160a01b0316610c66846103a7565b6001600160a01b0316145b80610c815750610c818185610ab1565b949350505050565b826001600160a01b0316610c9c826105f2565b6001600160a01b031614610cc25760405162461bcd60e51b81526004016103ce90611ffa565b6001600160a01b038216610ce85760405162461bcd60e51b81526004016103ce90611cf7565b610cf3838383611167565b610cfe600082610b96565b6001600160a01b0383166000908152600360205260408120805460019290610d279084906121a5565b90915550506001600160a01b0382166000908152600360205260408120805460019290610d55908490612179565b909155505060008181526002602052604080822080546001600160a01b0319166001600160a01b0386811691821790925591518493918716917fddf252ad1be2c89b69c2b068fc378daa952ba7f163c4a11628f55a4df523b3ef91a4505050565b80546001019055565b5490565b6001600160a01b038216610de95760405162461bcd60e51b81526004016103ce90611ef3565b610df281610b75565b15610e0f5760405162461bcd60e51b81526004016103ce90611cc1565b610e1b60008383611167565b6001600160a01b0382166000908152600360205260408120805460019290610e44908490612179565b909155505060008181526002602052604080822080546001600160a01b0319166001600160a01b03861690811790915590518392907fddf252ad1be2c89b69c2b068fc378daa952ba7f163c4a11628f55a4df523b3ef908290a45050565b610eab82610b75565b610ec75760405162461bcd60e51b81526004016103ce90611ea5565b600082815260066020908152604090912082516104e7928401906116f6565b600b80546001600160a01b038381166001600160a01b0319831681179093556040519116919082907f8be0079c531659141344cd1fd0a4f28419497f9722a3daafe3b4186f6b6457e090600090a35050565b816001600160a01b0316836001600160a01b03161415610f6a5760405162461bcd60e51b81526004016103ce90611d3b565b6001600160a01b0383811660008181526005602090815260408083209487168084529490915290819020805460ff1916851515179055517f17307eab39ab6107e8899845ad3d59bd9653f200f220920489ca2b5937696c3190610fce908590611b7a565b60405180910390a3505050565b610fe6848484610c89565b610ff284848484611186565b610aa05760405162461bcd60e51b81526004016103ce90611c29565b606061101982610b75565b6110355760405162461bcd60e51b81526004016103ce90611f28565b6000828152600660205260408120805461104e906121e8565b80601f016020809104026020016040519081016040528092919081815260200182805461107a906121e8565b80156110c75780601f1061109c576101008083540402835291602001916110c7565b820191906000526020600020905b8154815290600101906020018083116110aa57829003601f168201915b5050505050905060006110d86112a1565b90508051600014156110ec57509050610310565b81511561111e578082604051602001611106929190611aa2565b60405160208183030381529060405292505050610310565b610c81846112b3565b60006001600160e01b031982166380ac58cd60e01b148061115857506001600160e01b03198216635b5e139f60e01b145b8061030d575061030d82611336565b816001600160a01b03811661117b57600080fd5b610aa084848461134f565b600061119a846001600160a01b03166113d8565b1561129657836001600160a01b031663150b7a026111b6610b92565b8786866040518563ffffffff1660e01b81526004016111d89493929190611b09565b602060405180830381600087803b1580156111f257600080fd5b505af1925050508015611222575060408051601f3d908101601f1916820190925261121f918101906119ca565b60015b61127c573d808015611250576040519150601f19603f3d011682016040523d82523d6000602084013e611255565b606091505b5080516112745760405162461bcd60e51b81526004016103ce90611c29565b805181602001fd5b6001600160e01b031916630a85bd0160e11b149050610c81565b506001949350505050565b60408051602081019091526000815290565b60606112be82610b75565b6112da5760405162461bcd60e51b81526004016103ce90612043565b60006112e46112a1565b90506000815111611304576040518060200160405280600081525061132f565b8061130e846113de565b60405160200161131f929190611aa2565b6040516020818303038152906040525b9392505050565b6001600160e01b031981166301ffc9a760e01b14919050565b61135a8383836104e7565b6001600160a01b03831661137657611371816114f8565b611399565b816001600160a01b0316836001600160a01b03161461139957611399838261153c565b6001600160a01b0382166113b5576113b0816115d9565b6104e7565b826001600160a01b0316826001600160a01b0316146104e7576104e782826116b2565b3b151590565b60608161140357506040805180820190915260018152600360fc1b6020820152610310565b8160005b811561142d578061141781612223565b91506114269050600a83612191565b9150611407565b6000816001600160401b0381111561145557634e487b7160e01b600052604160045260246000fd5b6040519080825280601f01601f19166020018201604052801561147f576020820181803683370190505b5090505b8415610c81576114946001836121a5565b91506114a1600a8661223e565b6114ac906030612179565b60f81b8183815181106114cf57634e487b7160e01b600052603260045260246000fd5b60200101906001600160f81b031916908160001a9053506114f1600a86612191565b9450611483565b600980546000838152600a60205260408120829055600182018355919091527f6e1540171b6c0c960b71a7020d9f60077f6af931a8bbf590da0223dacf75c7af0155565b6000600161154984610814565b61155391906121a5565b6000838152600860205260409020549091508082146115a6576001600160a01b03841660009081526007602090815260408083208584528252808320548484528184208190558352600890915290208190555b5060009182526008602090815260408084208490556001600160a01b039094168352600781528383209183525290812055565b6009546000906115eb906001906121a5565b6000838152600a60205260408120546009805493945090928490811061162157634e487b7160e01b600052603260045260246000fd5b90600052602060002001549050806009838154811061165057634e487b7160e01b600052603260045260246000fd5b6000918252602080832090910192909255828152600a9091526040808220849055858252812055600980548061169657634e487b7160e01b600052603160045260246000fd5b6001900381819060005260206000200160009055905550505050565b60006116bd83610814565b6001600160a01b039093166000908152600760209081526040808320868452825280832085905593825260089052919091209190915550565b828054611702906121e8565b90600052602060002090601f016020900481019282611724576000855561176a565b82601f1061173d57805160ff191683800117855561176a565b8280016001018555821561176a579182015b8281111561176a57825182559160200191906001019061174f565b5061177692915061177a565b5090565b5b80821115611776576000815560010161177b565b60006001600160401b03808411156117a9576117a961227e565b604051601f8501601f1916810160200182811182821017156117cd576117cd61227e565b6040528481529150818385018610156117e557600080fd5b8484602083013760006020868301015250509392505050565b80356001600160a01b038116811461031057600080fd5b600082601f830112611825578081fd5b61132f8383356020850161178f565b600060208284031215611845578081fd5b61132f826117fe565b60008060408385031215611860578081fd5b611869836117fe565b9150611877602084016117fe565b90509250929050565b600080600060608486031215611894578081fd5b61189d846117fe565b92506118ab602085016117fe565b9150604084013590509250925092565b600080600080608085870312156118d0578081fd5b6118d9856117fe565b93506118e7602086016117fe565b92506040850135915060608501356001600160401b03811115611908578182fd5b8501601f81018713611918578182fd5b6119278782356020840161178f565b91505092959194509250565b60008060408385031215611945578182fd5b61194e836117fe565b9150602083013561195e81612294565b809150509250929050565b6000806040838503121561197b578182fd5b611984836117fe565b946020939093013593505050565b6000602082840312156119a3578081fd5b815161132f81612294565b6000602082840312156119bf578081fd5b813561132f816122a2565b6000602082840312156119db578081fd5b815161132f816122a2565b600080604083850312156119f8578182fd5b82356001600160401b0380821115611a0e578384fd5b611a1a86838701611815565b93506020850135915080821115611a2f578283fd5b50611a3c85828601611815565b9150509250929050565b600060208284031215611a57578081fd5b5035919050565b600060208284031215611a6f578081fd5b5051919050565b60008151808452611a8e8160208601602086016121bc565b601f01601f19169290920160200192915050565b60008351611ab48184602088016121bc565b835190830190611ac88183602088016121bc565b01949350505050565b6001600160a01b0391909116815260200190565b6001600160a01b039384168152919092166020820152604081019190915260600190565b6001600160a01b0385811682528416602082015260408101839052608060608201819052600090611b3c90830184611a76565b9695505050505050565b6001600160a01b0384168152606060208201819052600090611b6a90830185611a76565b9050826040830152949350505050565b901515815260200190565b60006020825261132f6020830184611a76565b600060808252611bab6080830187611a76565b602083018690526001600160a01b03851660408401528281036060840152611bd38185611a76565b979650505050505050565b6020808252602b908201527f455243373231456e756d657261626c653a206f776e657220696e646578206f7560408201526a74206f6620626f756e647360a81b606082015260800190565b60208082526032908201527f4552433732313a207472616e7366657220746f206e6f6e20455243373231526560408201527131b2b4bb32b91034b6b83632b6b2b73a32b960711b606082015260800190565b60208082526026908201527f4f776e61626c653a206e6577206f776e657220697320746865207a65726f206160408201526564647265737360d01b606082015260800190565b6020808252601c908201527b115490cdcc8c4e881d1bdad95b88185b1c9958591e481b5a5b9d195960221b604082015260600190565b60208082526024908201527f4552433732313a207472616e7366657220746f20746865207a65726f206164646040820152637265737360e01b606082015260800190565b60208082526019908201527822a9219b99189d1030b8383937bb32903a379031b0b63632b960391b604082015260600190565b6020808252602c908201527f4552433732313a206f70657261746f7220717565727920666f72206e6f6e657860408201526b34b9ba32b73a103a37b5b2b760a11b606082015260800190565b60208082526038908201527f4552433732313a20617070726f76652063616c6c6572206973206e6f74206f776040820152771b995c881b9bdc88185c1c1c9bdd995908199bdc88185b1b60421b606082015260800190565b6020808252602a908201527f4552433732313a2062616c616e636520717565727920666f7220746865207a65604082015269726f206164647265737360b01b606082015260800190565b60208082526029908201527f4552433732313a206f776e657220717565727920666f72206e6f6e657869737460408201526832b73a103a37b5b2b760b91b606082015260800190565b6020808252602e908201527f45524337323155524953746f726167653a2055524920736574206f66206e6f6e60408201526d32bc34b9ba32b73a103a37b5b2b760911b606082015260800190565b6020808252818101527f4552433732313a206d696e7420746f20746865207a65726f2061646472657373604082015260600190565b60208082526031908201527f45524337323155524953746f726167653a2055524920717565727920666f72206040820152703737b732bc34b9ba32b73a103a37b5b2b760791b606082015260800190565b6020808252602c908201527f4552433732313a20617070726f76656420717565727920666f72206e6f6e657860408201526b34b9ba32b73a103a37b5b2b760a11b606082015260800190565b6020808252818101527f4f776e61626c653a2063616c6c6572206973206e6f7420746865206f776e6572604082015260600190565b60208082526029908201527f4552433732313a207472616e73666572206f6620746f6b656e2074686174206960408201526839903737ba1037bbb760b91b606082015260800190565b6020808252602f908201527f4552433732314d657461646174613a2055524920717565727920666f72206e6f60408201526e3732bc34b9ba32b73a103a37b5b2b760891b606082015260800190565b60208082526021908201527f4552433732313a20617070726f76616c20746f2063757272656e74206f776e656040820152603960f91b606082015260800190565b60208082526031908201527f4552433732313a207472616e736665722063616c6c6572206973206e6f74206f6040820152701ddb995c881b9bdc88185c1c1c9bdd9959607a1b606082015260800190565b6020808252602c908201527f455243373231456e756d657261626c653a20676c6f62616c20696e646578206f60408201526b7574206f6620626f756e647360a01b606082015260800190565b90815260200190565b6000821982111561218c5761218c612252565b500190565b6000826121a0576121a0612268565b500490565b6000828210156121b7576121b7612252565b500390565b60005b838110156121d75781810151838201526020016121bf565b83811115610aa05750506000910152565b6002810460018216806121fc57607f821691505b6020821081141561221d57634e487b7160e01b600052602260045260246000fd5b50919050565b600060001982141561223757612237612252565b5060010190565b60008261224d5761224d612268565b500690565b634e487b7160e01b600052601160045260246000fd5b634e487b7160e01b600052601260045260246000fd5b634e487b7160e01b600052604160045260246000fd5b8015158114610b4d57600080fd5b6001600160e01b031981168114610b4d57600080fdfea2646970667358221220c7130ff6b17a31d3822d3471c94c48beac5a66f04c309bbf78e843453f9581f664736f6c63430008000033",
  "immutableReferences": {},
  "source": "// SPDX-License-Identifier: MIT\r\npragma solidity ^0.8;\r\n\r\nimport \"@openzeppelin/contracts/access/Ownable.sol\";\r\nimport \"@openzeppelin/contracts/utils/Counters.sol\";\r\nimport \"@openzeppelin/contracts/token/ERC721/extensions/ERC721Enumerable.sol\";\r\nimport \"@openzeppelin/contracts/token/ERC721/extensions/ERC721URIStorage.sol\";\r\nimport \"@openzeppelin/contracts/token/ERC20/ERC20.sol\";\r\n\r\ncontract NFTArtist is  ERC721URIStorage, ERC721Enumerable, Ownable {\r\n\tusing Counters for Counters.Counter;\r\n\tCounters.Counter private _tokenIds;\r\n    IERC20 internal Token;\r\n    \r\n    \r\n\r\n    constructor(address addressMedal, address addressMedalVerse) ERC721(\"MedalVerse\", \"MDV\") {\r\n        Token = IERC20(addressMedal);\r\n        medalVerse = addressMedalVerse;\r\n\t}\r\n\r\n\tstruct NFT {\r\n\t\tstring name; // Name of NFT\r\n\t\tuint tokenId; // TokenID of NFT\r\n\t\taddress creator; // Creator of NFT\r\n\t\tstring imgPath; // Image path for nft\r\n\t}\r\n\r\n    // Data --------------------------------\r\n\tmapping(uint=>NFT) public NFTs;\r\n    // mapping(address=>mapping(uint=>NFT)) public NFTByOwner; // Associate the owner address with the token id associated with the NFT structure\r\n    \r\n    uint price = 100 * (10 ** 18);\r\n    address medalVerse;\r\n\r\n    // Events ---------------------------------\r\n    event nftMint(address owner, string name, uint tokenId );\r\n\r\n    // Modifiers ----------------------------\r\n    ///@dev Check that the address is not zero\r\n    modifier isNotNull(address a) virtual {\r\n\t\trequire(a != address(0));\r\n\t\t_;\r\n\t}\r\n\t\r\n    // Methods -------------------------------\r\n\t///@dev Mint NFTArtist\r\n\t///@param name Name of the structure NFT \r\n    ///@param Uri Path to Image\r\n\tfunction mintNFTArtist(string memory name, string memory Uri) public {\r\n            uint balance = Token.balanceOf(msg.sender);\r\n            require(balance > price);\r\n\r\n            Token.transferFrom(msg.sender, medalVerse, price);\r\n\t\t\r\n\t\t\t_tokenIds.increment(); // Define the TokenId\r\n\t\t\tuint256 NFTArtistId = _tokenIds.current(); // Define the id of the NFTArtist in relation to this variable TokenIds\r\n\t\t\t_mint(msg.sender, NFTArtistId); // Mint the NFT \r\n\t\t\t_setTokenURI(NFTArtistId, Uri); // Set URI for this id\r\n\r\n            // Defined the structure of the NFT by are id associated with the owner address\r\n\t\t\t// NFTByOwner[msg.sender][NFTArtistId].name = name;\r\n\t\t\t// NFTByOwner[msg.sender][NFTArtistId].tokenId = NFTArtistId;\r\n\t\t\t// NFTByOwner[msg.sender][NFTArtistId].creator = msg.sender;\r\n\t\t\t// NFTByOwner[msg.sender][NFTArtistId].imgPath = Uri;\r\n\t\t\tNFTs[NFTArtistId].name = name;\r\n            NFTs[NFTArtistId].tokenId = NFTArtistId;\r\n            NFTs[NFTArtistId].creator = msg.sender;\r\n            NFTs[NFTArtistId].imgPath = Uri;\r\n\r\n            emit nftMint(msg.sender, name, NFTArtistId);\r\n\t\t\r\n\t}\r\n\r\n    ///@dev Modifies the structure and the mapping after a transfer\r\n    ///@param from NFT owner address\r\n    ///@param to address receiving the NFT\r\n    ///@param tokenId Token ID to transfer\r\n\tfunction _beforeTokenTransfer(address from, address to, uint256 tokenId)\r\n        internal\r\n        override(ERC721, ERC721Enumerable) isNotNull(to)\r\n    {\r\n        super._beforeTokenTransfer(from, to, tokenId);\r\n\r\n        // Modify the mapping\r\n        // NFTByOwner[to][tokenId].name = NFTByOwner[from][tokenId].name;\r\n        // NFTByOwner[to][tokenId].tokenId = NFTByOwner[from][tokenId].tokenId;\r\n        // NFTByOwner[to][tokenId].creator =  NFTByOwner[from][tokenId].creator;\r\n        // NFTByOwner[to][tokenId].imgPath = NFTByOwner[from][tokenId].imgPath;\r\n\r\n        // remove the old mapping\r\n        // delete  NFTByOwner[from][tokenId].name;\r\n        // delete  NFTByOwner[from][tokenId].tokenId;\r\n        // delete  NFTByOwner[from][tokenId].creator;\r\n        // delete  NFTByOwner[from][tokenId].imgPath;\r\n        \r\n\r\n        \r\n    }\r\n\r\n    function _burn(uint256 tokenId) internal override(ERC721, ERC721URIStorage) {\r\n        \r\n        // delete  NFTByOwner[msg.sender][tokenId].name;\r\n        // delete  NFTByOwner[msg.sender][tokenId].tokenId;\r\n        // delete  NFTByOwner[msg.sender][tokenId].creator;\r\n        // delete  NFTByOwner[msg.sender][tokenId].imgPath;\r\n        delete NFTs[tokenId];\r\n        \r\n        super._burn(tokenId);\r\n    }\r\n\r\n    ///@return Returns the URI of the NFT associated with its ID\r\n    ///@param tokenId Token ID to view\r\n    function tokenURI(uint256 tokenId)\r\n        public\r\n        view\r\n        override(ERC721, ERC721URIStorage)\r\n        returns (string memory)\r\n    {\r\n        return super.tokenURI(tokenId);\r\n    }\r\n\r\n    function supportsInterface(bytes4 interfaceId)\r\n        public\r\n        view\r\n        override(ERC721, ERC721Enumerable)\r\n        returns (bool)\r\n    {\r\n        return super.supportsInterface(interfaceId);\r\n    }\r\n\r\n    function changePrice(uint newPrice) public onlyOwner {\r\n        price = newPrice;\r\n    }\r\n\r\n    function checkPrice() public view returns(uint){\r\n        return price;\r\n    }\r\n\r\n    function setAddressMedalVerse(address addressMedalVerse) public onlyOwner {\r\n        medalVerse = addressMedalVerse;\r\n    }\r\n\r\n}\r\n",
  "sourcePath": "C:\\DEV\\ETH\\Alyra\\MedalVerse\\MedalVerse-Front\\contracts\\NFT\\NFTArtist.sol",
  "compiler": {
    "name": "solc",
    "version": "0.8.0+commit.c7dfd78e.Emscripten.clang"
  },
  "schemaVersion": "3.4.4",
  "updatedAt": "2022-01-12T09:50:09.429Z",
  "networkType": "ethereum",
  "devdoc": {
    "kind": "dev",
    "methods": {
      "approve(address,uint256)": {
        "details": "See {IERC721-approve}."
      },
      "balanceOf(address)": {
        "details": "See {IERC721-balanceOf}."
      },
      "getApproved(uint256)": {
        "details": "See {IERC721-getApproved}."
      },
      "isApprovedForAll(address,address)": {
        "details": "See {IERC721-isApprovedForAll}."
      },
      "mintNFTArtist(string,string)": {
        "details": "Mint NFTArtist",
        "params": {
          "Uri": "Path to Image",
          "name": "Name of the structure NFT "
        }
      },
      "name()": {
        "details": "See {IERC721Metadata-name}."
      },
      "owner()": {
        "details": "Returns the address of the current owner."
      },
      "ownerOf(uint256)": {
        "details": "See {IERC721-ownerOf}."
      },
      "renounceOwnership()": {
        "details": "Leaves the contract without owner. It will not be possible to call `onlyOwner` functions anymore. Can only be called by the current owner. NOTE: Renouncing ownership will leave the contract without an owner, thereby removing any functionality that is only available to the owner."
      },
      "safeTransferFrom(address,address,uint256)": {
        "details": "See {IERC721-safeTransferFrom}."
      },
      "safeTransferFrom(address,address,uint256,bytes)": {
        "details": "See {IERC721-safeTransferFrom}."
      },
      "setApprovalForAll(address,bool)": {
        "details": "See {IERC721-setApprovalForAll}."
      },
      "symbol()": {
        "details": "See {IERC721Metadata-symbol}."
      },
      "tokenByIndex(uint256)": {
        "details": "See {IERC721Enumerable-tokenByIndex}."
      },
      "tokenOfOwnerByIndex(address,uint256)": {
        "details": "See {IERC721Enumerable-tokenOfOwnerByIndex}."
      },
      "tokenURI(uint256)": {
        "params": {
          "tokenId": "Token ID to view"
        },
        "returns": {
          "_0": "Returns the URI of the NFT associated with its ID"
        }
      },
      "totalSupply()": {
        "details": "See {IERC721Enumerable-totalSupply}."
      },
      "transferFrom(address,address,uint256)": {
        "details": "See {IERC721-transferFrom}."
      },
      "transferOwnership(address)": {
        "details": "Transfers ownership of the contract to a new account (`newOwner`). Can only be called by the current owner."
      }
    },
    "version": 1
  },
  "userdoc": {
    "kind": "user",
    "methods": {},
    "version": 1
  }
}