{
  "contractName": "NFTArtist",
  "abi": [
    {
      "inputs": [],
      "stateMutability": "nonpayable",
      "type": "constructor"
    },
    {
      "anonymous": false,
      "inputs": [
        {
          "indexed": true,
          "internalType": "address",
          "name": "owner",
          "type": "address"
        },
        {
          "indexed": true,
          "internalType": "address",
          "name": "approved",
          "type": "address"
        },
        {
          "indexed": true,
          "internalType": "uint256",
          "name": "tokenId",
          "type": "uint256"
        }
      ],
      "name": "Approval",
      "type": "event"
    },
    {
      "anonymous": false,
      "inputs": [
        {
          "indexed": true,
          "internalType": "address",
          "name": "owner",
          "type": "address"
        },
        {
          "indexed": true,
          "internalType": "address",
          "name": "operator",
          "type": "address"
        },
        {
          "indexed": false,
          "internalType": "bool",
          "name": "approved",
          "type": "bool"
        }
      ],
      "name": "ApprovalForAll",
      "type": "event"
    },
    {
      "anonymous": false,
      "inputs": [
        {
          "indexed": true,
          "internalType": "address",
          "name": "previousOwner",
          "type": "address"
        },
        {
          "indexed": true,
          "internalType": "address",
          "name": "newOwner",
          "type": "address"
        }
      ],
      "name": "OwnershipTransferred",
      "type": "event"
    },
    {
      "anonymous": false,
      "inputs": [
        {
          "indexed": true,
          "internalType": "address",
          "name": "from",
          "type": "address"
        },
        {
          "indexed": true,
          "internalType": "address",
          "name": "to",
          "type": "address"
        },
        {
          "indexed": true,
          "internalType": "uint256",
          "name": "tokenId",
          "type": "uint256"
        }
      ],
      "name": "Transfer",
      "type": "event"
    },
    {
      "anonymous": false,
      "inputs": [
        {
          "indexed": false,
          "internalType": "address",
          "name": "owner",
          "type": "address"
        },
        {
          "indexed": false,
          "internalType": "string",
          "name": "name",
          "type": "string"
        },
        {
          "indexed": false,
          "internalType": "uint256",
          "name": "tokenId",
          "type": "uint256"
        }
      ],
      "name": "nftMint",
      "type": "event"
    },
    {
      "inputs": [
        {
          "internalType": "uint256",
          "name": "",
          "type": "uint256"
        }
      ],
      "name": "NFTs",
      "outputs": [
        {
          "internalType": "string",
          "name": "name",
          "type": "string"
        },
        {
          "internalType": "uint256",
          "name": "tokenId",
          "type": "uint256"
        },
        {
          "internalType": "address",
          "name": "creator",
          "type": "address"
        },
        {
          "internalType": "string",
          "name": "imgPath",
          "type": "string"
        }
      ],
      "stateMutability": "view",
      "type": "function",
      "constant": true
    },
    {
      "inputs": [
        {
          "internalType": "address",
          "name": "to",
          "type": "address"
        },
        {
          "internalType": "uint256",
          "name": "tokenId",
          "type": "uint256"
        }
      ],
      "name": "approve",
      "outputs": [],
      "stateMutability": "nonpayable",
      "type": "function"
    },
    {
      "inputs": [
        {
          "internalType": "address",
          "name": "owner",
          "type": "address"
        }
      ],
      "name": "balanceOf",
      "outputs": [
        {
          "internalType": "uint256",
          "name": "",
          "type": "uint256"
        }
      ],
      "stateMutability": "view",
      "type": "function",
      "constant": true
    },
    {
      "inputs": [
        {
          "internalType": "uint256",
          "name": "tokenId",
          "type": "uint256"
        }
      ],
      "name": "getApproved",
      "outputs": [
        {
          "internalType": "address",
          "name": "",
          "type": "address"
        }
      ],
      "stateMutability": "view",
      "type": "function",
      "constant": true
    },
    {
      "inputs": [
        {
          "internalType": "address",
          "name": "owner",
          "type": "address"
        },
        {
          "internalType": "address",
          "name": "operator",
          "type": "address"
        }
      ],
      "name": "isApprovedForAll",
      "outputs": [
        {
          "internalType": "bool",
          "name": "",
          "type": "bool"
        }
      ],
      "stateMutability": "view",
      "type": "function",
      "constant": true
    },
    {
      "inputs": [],
      "name": "name",
      "outputs": [
        {
          "internalType": "string",
          "name": "",
          "type": "string"
        }
      ],
      "stateMutability": "view",
      "type": "function",
      "constant": true
    },
    {
      "inputs": [],
      "name": "owner",
      "outputs": [
        {
          "internalType": "address",
          "name": "",
          "type": "address"
        }
      ],
      "stateMutability": "view",
      "type": "function",
      "constant": true
    },
    {
      "inputs": [
        {
          "internalType": "uint256",
          "name": "tokenId",
          "type": "uint256"
        }
      ],
      "name": "ownerOf",
      "outputs": [
        {
          "internalType": "address",
          "name": "",
          "type": "address"
        }
      ],
      "stateMutability": "view",
      "type": "function",
      "constant": true
    },
    {
      "inputs": [],
      "name": "renounceOwnership",
      "outputs": [],
      "stateMutability": "nonpayable",
      "type": "function"
    },
    {
      "inputs": [
        {
          "internalType": "address",
          "name": "from",
          "type": "address"
        },
        {
          "internalType": "address",
          "name": "to",
          "type": "address"
        },
        {
          "internalType": "uint256",
          "name": "tokenId",
          "type": "uint256"
        }
      ],
      "name": "safeTransferFrom",
      "outputs": [],
      "stateMutability": "nonpayable",
      "type": "function"
    },
    {
      "inputs": [
        {
          "internalType": "address",
          "name": "from",
          "type": "address"
        },
        {
          "internalType": "address",
          "name": "to",
          "type": "address"
        },
        {
          "internalType": "uint256",
          "name": "tokenId",
          "type": "uint256"
        },
        {
          "internalType": "bytes",
          "name": "_data",
          "type": "bytes"
        }
      ],
      "name": "safeTransferFrom",
      "outputs": [],
      "stateMutability": "nonpayable",
      "type": "function"
    },
    {
      "inputs": [
        {
          "internalType": "address",
          "name": "operator",
          "type": "address"
        },
        {
          "internalType": "bool",
          "name": "approved",
          "type": "bool"
        }
      ],
      "name": "setApprovalForAll",
      "outputs": [],
      "stateMutability": "nonpayable",
      "type": "function"
    },
    {
      "inputs": [],
      "name": "symbol",
      "outputs": [
        {
          "internalType": "string",
          "name": "",
          "type": "string"
        }
      ],
      "stateMutability": "view",
      "type": "function",
      "constant": true
    },
    {
      "inputs": [
        {
          "internalType": "uint256",
          "name": "index",
          "type": "uint256"
        }
      ],
      "name": "tokenByIndex",
      "outputs": [
        {
          "internalType": "uint256",
          "name": "",
          "type": "uint256"
        }
      ],
      "stateMutability": "view",
      "type": "function",
      "constant": true
    },
    {
      "inputs": [
        {
          "internalType": "address",
          "name": "owner",
          "type": "address"
        },
        {
          "internalType": "uint256",
          "name": "index",
          "type": "uint256"
        }
      ],
      "name": "tokenOfOwnerByIndex",
      "outputs": [
        {
          "internalType": "uint256",
          "name": "",
          "type": "uint256"
        }
      ],
      "stateMutability": "view",
      "type": "function",
      "constant": true
    },
    {
      "inputs": [],
      "name": "totalSupply",
      "outputs": [
        {
          "internalType": "uint256",
          "name": "",
          "type": "uint256"
        }
      ],
      "stateMutability": "view",
      "type": "function",
      "constant": true
    },
    {
      "inputs": [
        {
          "internalType": "address",
          "name": "from",
          "type": "address"
        },
        {
          "internalType": "address",
          "name": "to",
          "type": "address"
        },
        {
          "internalType": "uint256",
          "name": "tokenId",
          "type": "uint256"
        }
      ],
      "name": "transferFrom",
      "outputs": [],
      "stateMutability": "nonpayable",
      "type": "function"
    },
    {
      "inputs": [
        {
          "internalType": "address",
          "name": "newOwner",
          "type": "address"
        }
      ],
      "name": "transferOwnership",
      "outputs": [],
      "stateMutability": "nonpayable",
      "type": "function"
    },
    {
      "inputs": [
        {
          "internalType": "string",
          "name": "name",
          "type": "string"
        },
        {
          "internalType": "string",
          "name": "Uri",
          "type": "string"
        }
      ],
      "name": "mintNFTArtist",
      "outputs": [],
      "stateMutability": "nonpayable",
      "type": "function"
    },
    {
      "inputs": [
        {
          "internalType": "uint256",
          "name": "tokenId",
          "type": "uint256"
        }
      ],
      "name": "tokenURI",
      "outputs": [
        {
          "internalType": "string",
          "name": "",
          "type": "string"
        }
      ],
      "stateMutability": "view",
      "type": "function",
      "constant": true
    },
    {
      "inputs": [
        {
          "internalType": "bytes4",
          "name": "interfaceId",
          "type": "bytes4"
        }
      ],
      "name": "supportsInterface",
      "outputs": [
        {
          "internalType": "bool",
          "name": "",
          "type": "bool"
        }
      ],
      "stateMutability": "view",
      "type": "function",
      "constant": true
    }
  ],
  "bytecode": "0x60806040523480156200001157600080fd5b50604080518082018252600a8152694d6564616c566572736560b01b60208083019182528351808501909452600384526226a22b60e91b9084015281519192916200005f91600091620000ee565b50805162000075906001906020840190620000ee565b505050620000926200008c6200009860201b60201c565b6200009c565b620001d1565b3390565b600b80546001600160a01b038381166001600160a01b0319831681179093556040519116919082907f8be0079c531659141344cd1fd0a4f28419497f9722a3daafe3b4186f6b6457e090600090a35050565b828054620000fc9062000194565b90600052602060002090601f0160209004810192826200012057600085556200016b565b82601f106200013b57805160ff19168380011785556200016b565b828001600101855582156200016b579182015b828111156200016b5782518255916020019190600101906200014e565b50620001799291506200017d565b5090565b5b808211156200017957600081556001016200017e565b600281046001821680620001a957607f821691505b60208210811415620001cb57634e487b7160e01b600052602260045260246000fd5b50919050565b6120b080620001e16000396000f3fe608060405234801561001057600080fd5b50600436106101375760003560e01c8063703f6733116100b8578063a22cb4651161007c578063a22cb46514610261578063a3c0b95b14610274578063b88d4fde14610297578063c87b56dd146102aa578063e985e9c5146102bd578063f2fde38b146102d057610137565b8063703f67331461022357806370a0823114610236578063715018a6146102495780638da5cb5b1461025157806395d89b411461025957610137565b806323b872dd116100ff57806323b872dd146101c45780632f745c59146101d757806342842e0e146101ea5780634f6ccce7146101fd5780636352211e1461021057610137565b806301ffc9a71461013c57806306fdde0314610165578063081812fc1461017a578063095ea7b31461019a57806318160ddd146101af575b600080fd5b61014f61014a3660046117af565b6102e3565b60405161015c9190611940565b60405180910390f35b61016d6102f6565b60405161015c919061194b565b61018d610188366004611848565b610388565b60405161015c91906118bb565b6101ad6101a8366004611786565b6103d4565b005b6101b761046c565b60405161015c9190611f40565b6101ad6101d2366004611698565b610472565b6101b76101e5366004611786565b6104aa565b6101ad6101f8366004611698565b6104fc565b6101b761020b366004611848565b610517565b61018d61021e366004611848565b610572565b6101ad6102313660046117e7565b6105a7565b6101b761024436600461164c565b610674565b6101ad6106b8565b61018d610703565b61016d610712565b6101ad61026f36600461174c565b610721565b610287610282366004611848565b610737565b60405161015c949392919061195e565b6101ad6102a53660046116d3565b61087d565b61016d6102b8366004611848565b6108bc565b61014f6102cb366004611666565b6108c7565b6101ad6102de36600461164c565b6108f5565b60006102ee82610966565b90505b919050565b60606000805461030590611fb8565b80601f016020809104026020016040519081016040528092919081815260200182805461033190611fb8565b801561037e5780601f106103535761010080835404028352916020019161037e565b820191906000526020600020905b81548152906001019060200180831161036157829003601f168201915b5050505050905090565b60006103938261098b565b6103b85760405162461bcd60e51b81526004016103af90611d49565b60405180910390fd5b506000908152600460205260409020546001600160a01b031690565b60006103df82610572565b9050806001600160a01b0316836001600160a01b031614156104135760405162461bcd60e51b81526004016103af90611e62565b806001600160a01b03166104256109a8565b6001600160a01b031614806104415750610441816102cb6109a8565b61045d5760405162461bcd60e51b81526004016103af90611b85565b61046783836109ac565b505050565b60095490565b61048361047d6109a8565b82610a1a565b61049f5760405162461bcd60e51b81526004016103af90611ea3565b610467838383610a9f565b60006104b583610674565b82106104d35760405162461bcd60e51b81526004016103af906119a4565b506001600160a01b03919091166000908152600760209081526040808320938352929052205490565b6104678383836040518060200160405280600081525061087d565b600061052161046c565b821061053f5760405162461bcd60e51b81526004016103af90611ef4565b6009828154811061056057634e487b7160e01b600052603260045260246000fd5b90600052602060002001549050919050565b6000818152600260205260408120546001600160a01b0316806102ee5760405162461bcd60e51b81526004016103af90611c2c565b6105b1600c610bcc565b60006105bd600c610bd5565b90506105c93382610bd9565b6105d38183610cb8565b6000818152600d6020908152604090912084516105f29286019061150d565b506000818152600d60209081526040909120600181018390556002810180546001600160a01b0319163317905583516106339260039092019185019061150d565b507f48d75103c890e8eb6eabe30bc87d0ef1abfc3b28293b5fb069dd461eab63a4283384836040516106679392919061190c565b60405180910390a1505050565b60006001600160a01b03821661069c5760405162461bcd60e51b81526004016103af90611be2565b506001600160a01b031660009081526003602052604090205490565b6106c06109a8565b6001600160a01b03166106d1610703565b6001600160a01b0316146106f75760405162461bcd60e51b81526004016103af90611d95565b6107016000610cfc565b565b600b546001600160a01b031690565b60606001805461030590611fb8565b61073361072c6109a8565b8383610d4e565b5050565b600d6020526000908152604090208054819061075290611fb8565b80601f016020809104026020016040519081016040528092919081815260200182805461077e90611fb8565b80156107cb5780601f106107a0576101008083540402835291602001916107cb565b820191906000526020600020905b8154815290600101906020018083116107ae57829003601f168201915b5050505060018301546002840154600385018054949592946001600160a01b039092169350906107fa90611fb8565b80601f016020809104026020016040519081016040528092919081815260200182805461082690611fb8565b80156108735780601f1061084857610100808354040283529160200191610873565b820191906000526020600020905b81548152906001019060200180831161085657829003601f168201915b5050505050905084565b61088e6108886109a8565b83610a1a565b6108aa5760405162461bcd60e51b81526004016103af90611ea3565b6108b684848484610df1565b50505050565b60606102ee82610e24565b6001600160a01b03918216600090815260056020908152604080832093909416825291909152205460ff1690565b6108fd6109a8565b6001600160a01b031661090e610703565b6001600160a01b0316146109345760405162461bcd60e51b81526004016103af90611d95565b6001600160a01b03811661095a5760405162461bcd60e51b81526004016103af90611a41565b61096381610cfc565b50565b60006001600160e01b0319821663780e9d6360e01b14806102ee57506102ee82610f3d565b6000908152600260205260409020546001600160a01b0316151590565b3390565b600081815260046020526040902080546001600160a01b0319166001600160a01b03841690811790915581906109e182610572565b6001600160a01b03167f8c5be1e5ebec7d5bd14f71427d1e84f3dd0314c0f7b2291e5b200ac8c7c3b92560405160405180910390a45050565b6000610a258261098b565b610a415760405162461bcd60e51b81526004016103af90611b39565b6000610a4c83610572565b9050806001600160a01b0316846001600160a01b03161480610a875750836001600160a01b0316610a7c84610388565b6001600160a01b0316145b80610a975750610a9781856108c7565b949350505050565b826001600160a01b0316610ab282610572565b6001600160a01b031614610ad85760405162461bcd60e51b81526004016103af90611dca565b6001600160a01b038216610afe5760405162461bcd60e51b81526004016103af90611abe565b610b09838383610f7d565b610b146000826109ac565b6001600160a01b0383166000908152600360205260408120805460019290610b3d908490611f75565b90915550506001600160a01b0382166000908152600360205260408120805460019290610b6b908490611f49565b909155505060008181526002602052604080822080546001600160a01b0319166001600160a01b0386811691821790925591518493918716917fddf252ad1be2c89b69c2b068fc378daa952ba7f163c4a11628f55a4df523b3ef91a4505050565b80546001019055565b5490565b6001600160a01b038216610bff5760405162461bcd60e51b81526004016103af90611cc3565b610c088161098b565b15610c255760405162461bcd60e51b81526004016103af90611a87565b610c3160008383610f7d565b6001600160a01b0382166000908152600360205260408120805460019290610c5a908490611f49565b909155505060008181526002602052604080822080546001600160a01b0319166001600160a01b03861690811790915590518392907fddf252ad1be2c89b69c2b068fc378daa952ba7f163c4a11628f55a4df523b3ef908290a45050565b610cc18261098b565b610cdd5760405162461bcd60e51b81526004016103af90611c75565b600082815260066020908152604090912082516104679284019061150d565b600b80546001600160a01b038381166001600160a01b0319831681179093556040519116919082907f8be0079c531659141344cd1fd0a4f28419497f9722a3daafe3b4186f6b6457e090600090a35050565b816001600160a01b0316836001600160a01b03161415610d805760405162461bcd60e51b81526004016103af90611b02565b6001600160a01b0383811660008181526005602090815260408083209487168084529490915290819020805460ff1916851515179055517f17307eab39ab6107e8899845ad3d59bd9653f200f220920489ca2b5937696c3190610de4908590611940565b60405180910390a3505050565b610dfc848484610a9f565b610e0884848484610f9c565b6108b65760405162461bcd60e51b81526004016103af906119ef565b6060610e2f8261098b565b610e4b5760405162461bcd60e51b81526004016103af90611cf8565b60008281526006602052604081208054610e6490611fb8565b80601f0160208091040260200160405190810160405280929190818152602001828054610e9090611fb8565b8015610edd5780601f10610eb257610100808354040283529160200191610edd565b820191906000526020600020905b815481529060010190602001808311610ec057829003601f168201915b505050505090506000610eee6110b7565b9050805160001415610f02575090506102f1565b815115610f34578082604051602001610f1c92919061188c565b604051602081830303815290604052925050506102f1565b610a97846110c9565b60006001600160e01b031982166380ac58cd60e01b1480610f6e57506001600160e01b03198216635b5e139f60e01b145b806102ee57506102ee8261114c565b816001600160a01b038116610f9157600080fd5b6108b6848484611165565b6000610fb0846001600160a01b03166111ee565b156110ac57836001600160a01b031663150b7a02610fcc6109a8565b8786866040518563ffffffff1660e01b8152600401610fee94939291906118cf565b602060405180830381600087803b15801561100857600080fd5b505af1925050508015611038575060408051601f3d908101601f19168201909252611035918101906117cb565b60015b611092573d808015611066576040519150601f19603f3d011682016040523d82523d6000602084013e61106b565b606091505b50805161108a5760405162461bcd60e51b81526004016103af906119ef565b805181602001fd5b6001600160e01b031916630a85bd0160e11b149050610a97565b506001949350505050565b60408051602081019091526000815290565b60606110d48261098b565b6110f05760405162461bcd60e51b81526004016103af90611e13565b60006110fa6110b7565b9050600081511161111a5760405180602001604052806000815250611145565b80611124846111f4565b60405160200161113592919061188c565b6040516020818303038152906040525b9392505050565b6001600160e01b031981166301ffc9a760e01b14919050565b611170838383610467565b6001600160a01b03831661118c576111878161130f565b6111af565b816001600160a01b0316836001600160a01b0316146111af576111af8382611353565b6001600160a01b0382166111cb576111c6816113f0565b610467565b826001600160a01b0316826001600160a01b0316146104675761046782826114c9565b3b151590565b60608161121957506040805180820190915260018152600360fc1b60208201526102f1565b8160005b8115611243578061122d81611ff3565b915061123c9050600a83611f61565b915061121d565b60008167ffffffffffffffff81111561126c57634e487b7160e01b600052604160045260246000fd5b6040519080825280601f01601f191660200182016040528015611296576020820181803683370190505b5090505b8415610a97576112ab600183611f75565b91506112b8600a8661200e565b6112c3906030611f49565b60f81b8183815181106112e657634e487b7160e01b600052603260045260246000fd5b60200101906001600160f81b031916908160001a905350611308600a86611f61565b945061129a565b600980546000838152600a60205260408120829055600182018355919091527f6e1540171b6c0c960b71a7020d9f60077f6af931a8bbf590da0223dacf75c7af0155565b6000600161136084610674565b61136a9190611f75565b6000838152600860205260409020549091508082146113bd576001600160a01b03841660009081526007602090815260408083208584528252808320548484528184208190558352600890915290208190555b5060009182526008602090815260408084208490556001600160a01b039094168352600781528383209183525290812055565b60095460009061140290600190611f75565b6000838152600a60205260408120546009805493945090928490811061143857634e487b7160e01b600052603260045260246000fd5b90600052602060002001549050806009838154811061146757634e487b7160e01b600052603260045260246000fd5b6000918252602080832090910192909255828152600a909152604080822084905585825281205560098054806114ad57634e487b7160e01b600052603160045260246000fd5b6001900381819060005260206000200160009055905550505050565b60006114d483610674565b6001600160a01b039093166000908152600760209081526040808320868452825280832085905593825260089052919091209190915550565b82805461151990611fb8565b90600052602060002090601f01602090048101928261153b5760008555611581565b82601f1061155457805160ff1916838001178555611581565b82800160010185558215611581579182015b82811115611581578251825591602001919060010190611566565b5061158d929150611591565b5090565b5b8082111561158d5760008155600101611592565b600067ffffffffffffffff808411156115c1576115c161204e565b604051601f8501601f1916810160200182811182821017156115e5576115e561204e565b6040528481529150818385018610156115fd57600080fd5b8484602083013760006020868301015250509392505050565b80356001600160a01b03811681146102f157600080fd5b600082601f83011261163d578081fd5b611145838335602085016115a6565b60006020828403121561165d578081fd5b61114582611616565b60008060408385031215611678578081fd5b61168183611616565b915061168f60208401611616565b90509250929050565b6000806000606084860312156116ac578081fd5b6116b584611616565b92506116c360208501611616565b9150604084013590509250925092565b600080600080608085870312156116e8578081fd5b6116f185611616565b93506116ff60208601611616565b925060408501359150606085013567ffffffffffffffff811115611721578182fd5b8501601f81018713611731578182fd5b611740878235602084016115a6565b91505092959194509250565b6000806040838503121561175e578182fd5b61176783611616565b91506020830135801515811461177b578182fd5b809150509250929050565b60008060408385031215611798578182fd5b6117a183611616565b946020939093013593505050565b6000602082840312156117c0578081fd5b813561114581612064565b6000602082840312156117dc578081fd5b815161114581612064565b600080604083850312156117f9578182fd5b823567ffffffffffffffff80821115611810578384fd5b61181c8683870161162d565b93506020850135915080821115611831578283fd5b5061183e8582860161162d565b9150509250929050565b600060208284031215611859578081fd5b5035919050565b60008151808452611878816020860160208601611f8c565b601f01601f19169290920160200192915050565b6000835161189e818460208801611f8c565b8351908301906118b2818360208801611f8c565b01949350505050565b6001600160a01b0391909116815260200190565b6001600160a01b038581168252841660208201526040810183905260806060820181905260009061190290830184611860565b9695505050505050565b6001600160a01b038416815260606020820181905260009061193090830185611860565b9050826040830152949350505050565b901515815260200190565b6000602082526111456020830184611860565b6000608082526119716080830187611860565b602083018690526001600160a01b038516604084015282810360608401526119998185611860565b979650505050505050565b6020808252602b908201527f455243373231456e756d657261626c653a206f776e657220696e646578206f7560408201526a74206f6620626f756e647360a81b606082015260800190565b60208082526032908201527f4552433732313a207472616e7366657220746f206e6f6e20455243373231526560408201527131b2b4bb32b91034b6b83632b6b2b73a32b960711b606082015260800190565b60208082526026908201527f4f776e61626c653a206e6577206f776e657220697320746865207a65726f206160408201526564647265737360d01b606082015260800190565b6020808252601c908201527f4552433732313a20746f6b656e20616c7265616479206d696e74656400000000604082015260600190565b60208082526024908201527f4552433732313a207472616e7366657220746f20746865207a65726f206164646040820152637265737360e01b606082015260800190565b60208082526019908201527f4552433732313a20617070726f766520746f2063616c6c657200000000000000604082015260600190565b6020808252602c908201527f4552433732313a206f70657261746f7220717565727920666f72206e6f6e657860408201526b34b9ba32b73a103a37b5b2b760a11b606082015260800190565b60208082526038908201527f4552433732313a20617070726f76652063616c6c6572206973206e6f74206f7760408201527f6e6572206e6f7220617070726f76656420666f7220616c6c0000000000000000606082015260800190565b6020808252602a908201527f4552433732313a2062616c616e636520717565727920666f7220746865207a65604082015269726f206164647265737360b01b606082015260800190565b60208082526029908201527f4552433732313a206f776e657220717565727920666f72206e6f6e657869737460408201526832b73a103a37b5b2b760b91b606082015260800190565b6020808252602e908201527f45524337323155524953746f726167653a2055524920736574206f66206e6f6e60408201526d32bc34b9ba32b73a103a37b5b2b760911b606082015260800190565b6020808252818101527f4552433732313a206d696e7420746f20746865207a65726f2061646472657373604082015260600190565b60208082526031908201527f45524337323155524953746f726167653a2055524920717565727920666f72206040820152703737b732bc34b9ba32b73a103a37b5b2b760791b606082015260800190565b6020808252602c908201527f4552433732313a20617070726f76656420717565727920666f72206e6f6e657860408201526b34b9ba32b73a103a37b5b2b760a11b606082015260800190565b6020808252818101527f4f776e61626c653a2063616c6c6572206973206e6f7420746865206f776e6572604082015260600190565b60208082526029908201527f4552433732313a207472616e73666572206f6620746f6b656e2074686174206960408201526839903737ba1037bbb760b91b606082015260800190565b6020808252602f908201527f4552433732314d657461646174613a2055524920717565727920666f72206e6f60408201526e3732bc34b9ba32b73a103a37b5b2b760891b606082015260800190565b60208082526021908201527f4552433732313a20617070726f76616c20746f2063757272656e74206f776e656040820152603960f91b606082015260800190565b60208082526031908201527f4552433732313a207472616e736665722063616c6c6572206973206e6f74206f6040820152701ddb995c881b9bdc88185c1c1c9bdd9959607a1b606082015260800190565b6020808252602c908201527f455243373231456e756d657261626c653a20676c6f62616c20696e646578206f60408201526b7574206f6620626f756e647360a01b606082015260800190565b90815260200190565b60008219821115611f5c57611f5c612022565b500190565b600082611f7057611f70612038565b500490565b600082821015611f8757611f87612022565b500390565b60005b83811015611fa7578181015183820152602001611f8f565b838111156108b65750506000910152565b600281046001821680611fcc57607f821691505b60208210811415611fed57634e487b7160e01b600052602260045260246000fd5b50919050565b600060001982141561200757612007612022565b5060010190565b60008261201d5761201d612038565b500690565b634e487b7160e01b600052601160045260246000fd5b634e487b7160e01b600052601260045260246000fd5b634e487b7160e01b600052604160045260246000fd5b6001600160e01b03198116811461096357600080fdfea26469706673582212203a1da7165d849301117702f2c233bf5f1df4a87995b8910f8eb4320c8d557e5664736f6c63430008000033",
  "immutableReferences": {},
  "source": "// SPDX-License-Identifier: MIT\r\npragma solidity ^0.8;\r\n\r\nimport \"@openzeppelin/contracts/access/Ownable.sol\";\r\nimport \"@openzeppelin/contracts/utils/Counters.sol\";\r\nimport \"@openzeppelin/contracts/token/ERC721/ERC721.sol\";\r\nimport \"@openzeppelin/contracts/token/ERC721/extensions/ERC721Enumerable.sol\";\r\nimport \"@openzeppelin/contracts/token/ERC721/extensions/ERC721URIStorage.sol\";\r\n\r\ncontract NFTArtist is ERC721, ERC721URIStorage, ERC721Enumerable, Ownable {\r\n\tusing Counters for Counters.Counter;\r\n\tCounters.Counter private _tokenIds;\r\n\r\n    constructor() ERC721(\"MedalVerse\", \"MDV\") {\r\n\t}\r\n\r\n\tstruct NFT {\r\n\t\tstring name; // Name of NFT\r\n\t\tuint tokenId; // TokenID of NFT\r\n\t\taddress creator; // Creator of NFT\r\n\t\tstring imgPath; // Image path for nft\r\n\t}\r\n\r\n    // Data --------------------------------\r\n\tmapping(uint=>NFT) public NFTs;\r\n    // mapping(address=>mapping(uint=>NFT)) public NFTByOwner; // Associate the owner address with the token id associated with the NFT structure\r\n\r\n    // Events ---------------------------------\r\n    event nftMint(address owner, string name, uint tokenId );\r\n\r\n    // Modifiers ----------------------------\r\n    ///@dev Check that the address is not zero\r\n    modifier isNotNull(address a) virtual {\r\n\t\trequire(a != address(0));\r\n\t\t_;\r\n\t}\r\n\t\r\n    // Methods -------------------------------\r\n\t///@dev Mint NFTArtist\r\n\t///@param name Name of the structure NFT \r\n    ///@param Uri Path to Image\r\n\tfunction mintNFTArtist(string memory name, string memory Uri) public {\r\n\t\t\r\n\t\t\t_tokenIds.increment(); // Define the TokenId\r\n\t\t\tuint256 NFTArtistId = _tokenIds.current(); // Define the id of the NFTArtist in relation to this variable TokenIds\r\n\t\t\t_mint(msg.sender, NFTArtistId); // Mint the NFT \r\n\t\t\t_setTokenURI(NFTArtistId, Uri); // Set URI for this id\r\n\r\n            // Defined the structure of the NFT by are id associated with the owner address\r\n\t\t\t// NFTByOwner[msg.sender][NFTArtistId].name = name;\r\n\t\t\t// NFTByOwner[msg.sender][NFTArtistId].tokenId = NFTArtistId;\r\n\t\t\t// NFTByOwner[msg.sender][NFTArtistId].creator = msg.sender;\r\n\t\t\t// NFTByOwner[msg.sender][NFTArtistId].imgPath = Uri;\r\n\t\t\tNFTs[NFTArtistId].name = name;\r\n            NFTs[NFTArtistId].tokenId = NFTArtistId;\r\n            NFTs[NFTArtistId].creator = msg.sender;\r\n            NFTs[NFTArtistId].imgPath = Uri;\r\n\r\n            emit nftMint(msg.sender, name, NFTArtistId);\r\n\t\t\r\n\t}\r\n\r\n    ///@dev Modifies the structure and the mapping after a transfer\r\n    ///@param from NFT owner address\r\n    ///@param to address receiving the NFT\r\n    ///@param tokenId Token ID to transfer\r\n\tfunction _beforeTokenTransfer(address from, address to, uint256 tokenId)\r\n        internal\r\n        override(ERC721, ERC721Enumerable) isNotNull(to)\r\n    {\r\n        super._beforeTokenTransfer(from, to, tokenId);\r\n\r\n        // Modify the mapping\r\n        // NFTByOwner[to][tokenId].name = NFTByOwner[from][tokenId].name;\r\n        // NFTByOwner[to][tokenId].tokenId = NFTByOwner[from][tokenId].tokenId;\r\n        // NFTByOwner[to][tokenId].creator =  NFTByOwner[from][tokenId].creator;\r\n        // NFTByOwner[to][tokenId].imgPath = NFTByOwner[from][tokenId].imgPath;\r\n\r\n        // remove the old mapping\r\n        // delete  NFTByOwner[from][tokenId].name;\r\n        // delete  NFTByOwner[from][tokenId].tokenId;\r\n        // delete  NFTByOwner[from][tokenId].creator;\r\n        // delete  NFTByOwner[from][tokenId].imgPath;\r\n        \r\n\r\n        \r\n    }\r\n\r\n    function _burn(uint256 tokenId) internal override(ERC721, ERC721URIStorage) {\r\n        \r\n        // delete  NFTByOwner[msg.sender][tokenId].name;\r\n        // delete  NFTByOwner[msg.sender][tokenId].tokenId;\r\n        // delete  NFTByOwner[msg.sender][tokenId].creator;\r\n        // delete  NFTByOwner[msg.sender][tokenId].imgPath;\r\n        delete NFTs[tokenId].name;\r\n        delete NFTs[tokenId].tokenId;\r\n        delete NFTs[tokenId].creator;\r\n        delete NFTs[tokenId].imgPath;\r\n        super._burn(tokenId);\r\n    }\r\n\r\n    ///@return Returns the URI of the NFT associated with its ID\r\n    ///@param tokenId Token ID to view\r\n    function tokenURI(uint256 tokenId)\r\n        public\r\n        view\r\n        override(ERC721, ERC721URIStorage)\r\n        returns (string memory)\r\n    {\r\n        return super.tokenURI(tokenId);\r\n    }\r\n\r\n    function supportsInterface(bytes4 interfaceId)\r\n        public\r\n        view\r\n        override(ERC721, ERC721Enumerable)\r\n        returns (bool)\r\n    {\r\n        return super.supportsInterface(interfaceId);\r\n    }\r\n\r\n}\r\n",
  "sourcePath": "C:\\DEV\\ETH\\Alyra\\MedalVerse\\MedalVerse-Front\\contracts\\NFT\\NFTArtist.sol",
  "compiler": {
    "name": "solc",
    "version": "0.8.0+commit.c7dfd78e.Emscripten.clang"
  },
  "schemaVersion": "3.4.4",
  "updatedAt": "2022-01-03T09:52:04.972Z",
  "networkType": "ethereum",
  "devdoc": {
    "kind": "dev",
    "methods": {
      "approve(address,uint256)": {
        "details": "See {IERC721-approve}."
      },
      "balanceOf(address)": {
        "details": "See {IERC721-balanceOf}."
      },
      "getApproved(uint256)": {
        "details": "See {IERC721-getApproved}."
      },
      "isApprovedForAll(address,address)": {
        "details": "See {IERC721-isApprovedForAll}."
      },
      "mintNFTArtist(string,string)": {
        "details": "Mint NFTArtist",
        "params": {
          "Uri": "Path to Image",
          "name": "Name of the structure NFT "
        }
      },
      "name()": {
        "details": "See {IERC721Metadata-name}."
      },
      "owner()": {
        "details": "Returns the address of the current owner."
      },
      "ownerOf(uint256)": {
        "details": "See {IERC721-ownerOf}."
      },
      "renounceOwnership()": {
        "details": "Leaves the contract without owner. It will not be possible to call `onlyOwner` functions anymore. Can only be called by the current owner. NOTE: Renouncing ownership will leave the contract without an owner, thereby removing any functionality that is only available to the owner."
      },
      "safeTransferFrom(address,address,uint256)": {
        "details": "See {IERC721-safeTransferFrom}."
      },
      "safeTransferFrom(address,address,uint256,bytes)": {
        "details": "See {IERC721-safeTransferFrom}."
      },
      "setApprovalForAll(address,bool)": {
        "details": "See {IERC721-setApprovalForAll}."
      },
      "symbol()": {
        "details": "See {IERC721Metadata-symbol}."
      },
      "tokenByIndex(uint256)": {
        "details": "See {IERC721Enumerable-tokenByIndex}."
      },
      "tokenOfOwnerByIndex(address,uint256)": {
        "details": "See {IERC721Enumerable-tokenOfOwnerByIndex}."
      },
      "tokenURI(uint256)": {
        "params": {
          "tokenId": "Token ID to view"
        },
        "returns": {
          "_0": "Returns the URI of the NFT associated with its ID"
        }
      },
      "totalSupply()": {
        "details": "See {IERC721Enumerable-totalSupply}."
      },
      "transferFrom(address,address,uint256)": {
        "details": "See {IERC721-transferFrom}."
      },
      "transferOwnership(address)": {
        "details": "Transfers ownership of the contract to a new account (`newOwner`). Can only be called by the current owner."
      }
    },
    "version": 1
  },
  "userdoc": {
    "kind": "user",
    "methods": {},
    "version": 1
  }
}