{
  "contractName": "NFTArtist",
  "abi": [
    {
      "inputs": [
        {
          "internalType": "address",
          "name": "addressMedal",
          "type": "address"
        },
        {
          "internalType": "address",
          "name": "addressMedalVerse",
          "type": "address"
        }
      ],
      "stateMutability": "nonpayable",
      "type": "constructor"
    },
    {
      "anonymous": false,
      "inputs": [
        {
          "indexed": true,
          "internalType": "address",
          "name": "owner",
          "type": "address"
        },
        {
          "indexed": true,
          "internalType": "address",
          "name": "approved",
          "type": "address"
        },
        {
          "indexed": true,
          "internalType": "uint256",
          "name": "tokenId",
          "type": "uint256"
        }
      ],
      "name": "Approval",
      "type": "event"
    },
    {
      "anonymous": false,
      "inputs": [
        {
          "indexed": true,
          "internalType": "address",
          "name": "owner",
          "type": "address"
        },
        {
          "indexed": true,
          "internalType": "address",
          "name": "operator",
          "type": "address"
        },
        {
          "indexed": false,
          "internalType": "bool",
          "name": "approved",
          "type": "bool"
        }
      ],
      "name": "ApprovalForAll",
      "type": "event"
    },
    {
      "anonymous": false,
      "inputs": [
        {
          "indexed": true,
          "internalType": "address",
          "name": "previousOwner",
          "type": "address"
        },
        {
          "indexed": true,
          "internalType": "address",
          "name": "newOwner",
          "type": "address"
        }
      ],
      "name": "OwnershipTransferred",
      "type": "event"
    },
    {
      "anonymous": false,
      "inputs": [
        {
          "indexed": true,
          "internalType": "address",
          "name": "from",
          "type": "address"
        },
        {
          "indexed": true,
          "internalType": "address",
          "name": "to",
          "type": "address"
        },
        {
          "indexed": true,
          "internalType": "uint256",
          "name": "tokenId",
          "type": "uint256"
        }
      ],
      "name": "Transfer",
      "type": "event"
    },
    {
      "anonymous": false,
      "inputs": [
        {
          "indexed": false,
          "internalType": "address",
          "name": "newAddress",
          "type": "address"
        }
      ],
      "name": "nftArtistAddressMedalVerseChanged",
      "type": "event"
    },
    {
      "anonymous": false,
      "inputs": [
        {
          "indexed": false,
          "internalType": "address",
          "name": "owner",
          "type": "address"
        },
        {
          "indexed": false,
          "internalType": "string",
          "name": "name",
          "type": "string"
        },
        {
          "indexed": false,
          "internalType": "uint256",
          "name": "tokenId",
          "type": "uint256"
        }
      ],
      "name": "nftArtistMint",
      "type": "event"
    },
    {
      "anonymous": false,
      "inputs": [
        {
          "indexed": false,
          "internalType": "uint256",
          "name": "newPrice",
          "type": "uint256"
        }
      ],
      "name": "nftArtistPriceChanged",
      "type": "event"
    },
    {
      "inputs": [
        {
          "internalType": "uint256",
          "name": "",
          "type": "uint256"
        }
      ],
      "name": "NFTs",
      "outputs": [
        {
          "internalType": "uint256",
          "name": "tokenId",
          "type": "uint256"
        },
        {
          "internalType": "address",
          "name": "creator",
          "type": "address"
        },
        {
          "internalType": "string",
          "name": "imgPath",
          "type": "string"
        },
        {
          "internalType": "string",
          "name": "name",
          "type": "string"
        }
      ],
      "stateMutability": "view",
      "type": "function",
      "constant": true
    },
    {
      "inputs": [
        {
          "internalType": "address",
          "name": "to",
          "type": "address"
        },
        {
          "internalType": "uint256",
          "name": "tokenId",
          "type": "uint256"
        }
      ],
      "name": "approve",
      "outputs": [],
      "stateMutability": "nonpayable",
      "type": "function"
    },
    {
      "inputs": [
        {
          "internalType": "address",
          "name": "owner",
          "type": "address"
        }
      ],
      "name": "balanceOf",
      "outputs": [
        {
          "internalType": "uint256",
          "name": "",
          "type": "uint256"
        }
      ],
      "stateMutability": "view",
      "type": "function",
      "constant": true
    },
    {
      "inputs": [
        {
          "internalType": "uint256",
          "name": "tokenId",
          "type": "uint256"
        }
      ],
      "name": "getApproved",
      "outputs": [
        {
          "internalType": "address",
          "name": "",
          "type": "address"
        }
      ],
      "stateMutability": "view",
      "type": "function",
      "constant": true
    },
    {
      "inputs": [
        {
          "internalType": "address",
          "name": "owner",
          "type": "address"
        },
        {
          "internalType": "address",
          "name": "operator",
          "type": "address"
        }
      ],
      "name": "isApprovedForAll",
      "outputs": [
        {
          "internalType": "bool",
          "name": "",
          "type": "bool"
        }
      ],
      "stateMutability": "view",
      "type": "function",
      "constant": true
    },
    {
      "inputs": [],
      "name": "name",
      "outputs": [
        {
          "internalType": "string",
          "name": "",
          "type": "string"
        }
      ],
      "stateMutability": "view",
      "type": "function",
      "constant": true
    },
    {
      "inputs": [],
      "name": "owner",
      "outputs": [
        {
          "internalType": "address",
          "name": "",
          "type": "address"
        }
      ],
      "stateMutability": "view",
      "type": "function",
      "constant": true
    },
    {
      "inputs": [
        {
          "internalType": "uint256",
          "name": "tokenId",
          "type": "uint256"
        }
      ],
      "name": "ownerOf",
      "outputs": [
        {
          "internalType": "address",
          "name": "",
          "type": "address"
        }
      ],
      "stateMutability": "view",
      "type": "function",
      "constant": true
    },
    {
      "inputs": [],
      "name": "renounceOwnership",
      "outputs": [],
      "stateMutability": "nonpayable",
      "type": "function"
    },
    {
      "inputs": [
        {
          "internalType": "address",
          "name": "from",
          "type": "address"
        },
        {
          "internalType": "address",
          "name": "to",
          "type": "address"
        },
        {
          "internalType": "uint256",
          "name": "tokenId",
          "type": "uint256"
        }
      ],
      "name": "safeTransferFrom",
      "outputs": [],
      "stateMutability": "nonpayable",
      "type": "function"
    },
    {
      "inputs": [
        {
          "internalType": "address",
          "name": "from",
          "type": "address"
        },
        {
          "internalType": "address",
          "name": "to",
          "type": "address"
        },
        {
          "internalType": "uint256",
          "name": "tokenId",
          "type": "uint256"
        },
        {
          "internalType": "bytes",
          "name": "_data",
          "type": "bytes"
        }
      ],
      "name": "safeTransferFrom",
      "outputs": [],
      "stateMutability": "nonpayable",
      "type": "function"
    },
    {
      "inputs": [
        {
          "internalType": "address",
          "name": "operator",
          "type": "address"
        },
        {
          "internalType": "bool",
          "name": "approved",
          "type": "bool"
        }
      ],
      "name": "setApprovalForAll",
      "outputs": [],
      "stateMutability": "nonpayable",
      "type": "function"
    },
    {
      "inputs": [],
      "name": "symbol",
      "outputs": [
        {
          "internalType": "string",
          "name": "",
          "type": "string"
        }
      ],
      "stateMutability": "view",
      "type": "function",
      "constant": true
    },
    {
      "inputs": [
        {
          "internalType": "uint256",
          "name": "index",
          "type": "uint256"
        }
      ],
      "name": "tokenByIndex",
      "outputs": [
        {
          "internalType": "uint256",
          "name": "",
          "type": "uint256"
        }
      ],
      "stateMutability": "view",
      "type": "function",
      "constant": true
    },
    {
      "inputs": [
        {
          "internalType": "address",
          "name": "owner",
          "type": "address"
        },
        {
          "internalType": "uint256",
          "name": "index",
          "type": "uint256"
        }
      ],
      "name": "tokenOfOwnerByIndex",
      "outputs": [
        {
          "internalType": "uint256",
          "name": "",
          "type": "uint256"
        }
      ],
      "stateMutability": "view",
      "type": "function",
      "constant": true
    },
    {
      "inputs": [],
      "name": "totalSupply",
      "outputs": [
        {
          "internalType": "uint256",
          "name": "",
          "type": "uint256"
        }
      ],
      "stateMutability": "view",
      "type": "function",
      "constant": true
    },
    {
      "inputs": [
        {
          "internalType": "address",
          "name": "from",
          "type": "address"
        },
        {
          "internalType": "address",
          "name": "to",
          "type": "address"
        },
        {
          "internalType": "uint256",
          "name": "tokenId",
          "type": "uint256"
        }
      ],
      "name": "transferFrom",
      "outputs": [],
      "stateMutability": "nonpayable",
      "type": "function"
    },
    {
      "inputs": [
        {
          "internalType": "address",
          "name": "newOwner",
          "type": "address"
        }
      ],
      "name": "transferOwnership",
      "outputs": [],
      "stateMutability": "nonpayable",
      "type": "function"
    },
    {
      "inputs": [
        {
          "internalType": "string",
          "name": "name",
          "type": "string"
        },
        {
          "internalType": "string",
          "name": "Uri",
          "type": "string"
        }
      ],
      "name": "mintNFTArtist",
      "outputs": [],
      "stateMutability": "nonpayable",
      "type": "function"
    },
    {
      "inputs": [
        {
          "internalType": "uint256",
          "name": "tokenId",
          "type": "uint256"
        }
      ],
      "name": "tokenURI",
      "outputs": [
        {
          "internalType": "string",
          "name": "",
          "type": "string"
        }
      ],
      "stateMutability": "view",
      "type": "function",
      "constant": true
    },
    {
      "inputs": [
        {
          "internalType": "bytes4",
          "name": "interfaceId",
          "type": "bytes4"
        }
      ],
      "name": "supportsInterface",
      "outputs": [
        {
          "internalType": "bool",
          "name": "",
          "type": "bool"
        }
      ],
      "stateMutability": "view",
      "type": "function",
      "constant": true
    },
    {
      "inputs": [
        {
          "internalType": "uint256",
          "name": "newPrice",
          "type": "uint256"
        }
      ],
      "name": "changePrice",
      "outputs": [],
      "stateMutability": "nonpayable",
      "type": "function"
    },
    {
      "inputs": [
        {
          "internalType": "address",
          "name": "addressMedalVerse",
          "type": "address"
        }
      ],
      "name": "setAddressMedalVerse",
      "outputs": [],
      "stateMutability": "nonpayable",
      "type": "function"
    },
    {
      "inputs": [],
      "name": "checkPrice",
      "outputs": [
        {
          "internalType": "uint256",
          "name": "",
          "type": "uint256"
        }
      ],
      "stateMutability": "view",
      "type": "function",
      "constant": true
    },
    {
      "inputs": [],
      "name": "checkAddressMedalVerse",
      "outputs": [
        {
          "internalType": "address",
          "name": "",
          "type": "address"
        }
      ],
      "stateMutability": "view",
      "type": "function",
      "constant": true
    }
  ],
  "bytecode": "0x608060405268056bc75e2d63100000600f553480156200001e57600080fd5b50604051620026043803806200260483398101604081905262000041916200020c565b604080518082018252600a8152694d6564616c566572736560b01b60208083019182528351808501909452600384526226a22b60e91b9084015281519192916200008e9160009162000149565b508051620000a490600190602084019062000149565b505050620000c1620000bb620000f360201b60201c565b620000f7565b600d80546001600160a01b039384166001600160a01b0319918216179091556010805492909316911617905562000280565b3390565b600b80546001600160a01b038381166001600160a01b0319831681179093556040519116919082907f8be0079c531659141344cd1fd0a4f28419497f9722a3daafe3b4186f6b6457e090600090a35050565b828054620001579062000243565b90600052602060002090601f0160209004810192826200017b5760008555620001c6565b82601f106200019657805160ff1916838001178555620001c6565b82800160010185558215620001c6579182015b82811115620001c6578251825591602001919060010190620001a9565b50620001d4929150620001d8565b5090565b5b80821115620001d45760008155600101620001d9565b80516001600160a01b03811681146200020757600080fd5b919050565b600080604083850312156200021f578182fd5b6200022a83620001ef565b91506200023a60208401620001ef565b90509250929050565b6002810460018216806200025857607f821691505b602082108114156200027a57634e487b7160e01b600052602260045260246000fd5b50919050565b61237480620002906000396000f3fe608060405234801561001057600080fd5b50600436106101335760003560e01c806301ffc9a71461013857806303f0d8f41461016157806306fdde0314610176578063081812fc1461018b578063089712ed1461019e578063095ea7b3146101b357806318160ddd146101c657806323b872dd146101db5780632f745c59146101ee57806342842e0e146102015780634f6ccce7146102145780636352211e14610227578063703f67331461023a57806370a082311461024d578063715018a6146102605780638da5cb5b146102685780638fc3047d1461027057806395d89b4114610278578063a22cb46514610280578063a2b40d1914610293578063a3c0b95b146102a6578063b88d4fde146102c9578063c87b56dd146102dc578063e985e9c5146102ef578063f2fde38b14610302575b600080fd5b61014b610146366004611a33565b610315565b6040516101589190611bff565b60405180910390f35b610169610328565b6040516101589190611b56565b61017e610337565b6040516101589190611c0a565b610169610199366004611acb565b6103c9565b6101b16101ac3660046118b9565b610415565b005b6101b16101c13660046119ee565b6104aa565b6101ce610542565b60405161015891906121af565b6101b16101e9366004611905565b610548565b6101ce6101fc3660046119ee565b610580565b6101b161020f366004611905565b6105d2565b6101ce610222366004611acb565b6105ed565b610169610235366004611acb565b610648565b6101b1610248366004611a6b565b61067d565b6101ce61025b3660046118b9565b61086c565b6101b16108b0565b6101696108fb565b6101ce61090a565b61017e610910565b6101b161028e3660046119b8565b61091f565b6101b16102a1366004611acb565b610935565b6102b96102b4366004611acb565b6109a9565b60405161015894939291906121b8565b6101b16102d7366004611940565b610aec565b61017e6102ea366004611acb565b610b2b565b61014b6102fd3660046118d3565b610b36565b6101b16103103660046118b9565b610b64565b600061032082610bd5565b90505b919050565b6010546001600160a01b031690565b6060600080546103469061226e565b80601f01602080910402602001604051908101604052809291908181526020018280546103729061226e565b80156103bf5780601f10610394576101008083540402835291602001916103bf565b820191906000526020600020905b8154815290600101906020018083116103a257829003601f168201915b5050505050905090565b60006103d482610bfa565b6103f95760405162461bcd60e51b81526004016103f090611fb8565b60405180910390fd5b506000908152600460205260409020546001600160a01b031690565b61041d610c17565b6001600160a01b031661042e6108fb565b6001600160a01b0316146104545760405162461bcd60e51b81526004016103f090612004565b601080546001600160a01b0319166001600160a01b0383161790556040517f6b17cf4c943b929444bc58c297137d3938ab68158260af8afa271ccef57516f59061049f908390611b56565b60405180910390a150565b60006104b582610648565b9050806001600160a01b0316836001600160a01b031614156104e95760405162461bcd60e51b81526004016103f0906120d1565b806001600160a01b03166104fb610c17565b6001600160a01b031614806105175750610517816102fd610c17565b6105335760405162461bcd60e51b81526004016103f090611df9565b61053d8383610c1b565b505050565b60095490565b610559610553610c17565b82610c89565b6105755760405162461bcd60e51b81526004016103f090612112565b61053d838383610d0e565b600061058b8361086c565b82106105a95760405162461bcd60e51b81526004016103f090611c1d565b506001600160a01b03919091166000908152600760209081526040808320938352929052205490565b61053d83838360405180602001604052806000815250610aec565b60006105f7610542565b82106106155760405162461bcd60e51b81526004016103f090612163565b6009828154811061063657634e487b7160e01b600052603260045260246000fd5b90600052602060002001549050919050565b6000818152600260205260408120546001600160a01b0316806103205760405162461bcd60e51b81526004016103f090611e9b565b600d546040516370a0823160e01b81526000916001600160a01b0316906370a08231906106ae903390600401611b56565b60206040518083038186803b1580156106c657600080fd5b505afa1580156106da573d6000803e3d6000fd5b505050506040513d601f19601f820116820180604052508101906106fe9190611ae3565b9050600f54811161070e57600080fd5b600d54601054600f546040516323b872dd60e01b81526001600160a01b03938416936323b872dd936107499333939290911691600401611b6a565b602060405180830381600087803b15801561076357600080fd5b505af1158015610777573d6000803e3d6000fd5b505050506040513d601f19601f8201168201806040525081019061079b9190611a17565b506107a6600c610e3b565b60006107b2600c610e44565b90506107be3382610e48565b6107c88184610f27565b6000818152600e6020908152604090912085516107ed9260039092019187019061177b565b506000818152600e602090815260409091208281556001810180546001600160a01b03191633179055845161082a9260029092019186019061177b565b507f5934faaca0ece8af6b9fa653f835c88dd1c348b1d902eadc7e3ed779f36a5a1733858360405161085e93929190611bcb565b60405180910390a150505050565b60006001600160a01b0382166108945760405162461bcd60e51b81526004016103f090611e51565b506001600160a01b031660009081526003602052604090205490565b6108b8610c17565b6001600160a01b03166108c96108fb565b6001600160a01b0316146108ef5760405162461bcd60e51b81526004016103f090612004565b6108f96000610f6b565b565b600b546001600160a01b031690565b600f5490565b6060600180546103469061226e565b61093161092a610c17565b8383610fbd565b5050565b61093d610c17565b6001600160a01b031661094e6108fb565b6001600160a01b0316146109745760405162461bcd60e51b81526004016103f090612004565b600f8190556040517f2a009907bd5515264d7619a89fa9d4f1bd34e1539492fa7a1f81ec1bea9a326b9061049f9083906121af565b600e6020526000908152604090208054600182015460028301805492936001600160a01b03909216926109db9061226e565b80601f0160208091040260200160405190810160405280929190818152602001828054610a079061226e565b8015610a545780601f10610a2957610100808354040283529160200191610a54565b820191906000526020600020905b815481529060010190602001808311610a3757829003601f168201915b505050505090806003018054610a699061226e565b80601f0160208091040260200160405190810160405280929190818152602001828054610a959061226e565b8015610ae25780601f10610ab757610100808354040283529160200191610ae2565b820191906000526020600020905b815481529060010190602001808311610ac557829003601f168201915b5050505050905084565b610afd610af7610c17565b83610c89565b610b195760405162461bcd60e51b81526004016103f090612112565b610b2584848484611060565b50505050565b606061032082611093565b6001600160a01b03918216600090815260056020908152604080832093909416825291909152205460ff1690565b610b6c610c17565b6001600160a01b0316610b7d6108fb565b6001600160a01b031614610ba35760405162461bcd60e51b81526004016103f090612004565b6001600160a01b038116610bc95760405162461bcd60e51b81526004016103f090611cba565b610bd281610f6b565b50565b60006001600160e01b0319821663780e9d6360e01b14806103205750610320826111ac565b6000908152600260205260409020546001600160a01b0316151590565b3390565b600081815260046020526040902080546001600160a01b0319166001600160a01b0384169081179091558190610c5082610648565b6001600160a01b03167f8c5be1e5ebec7d5bd14f71427d1e84f3dd0314c0f7b2291e5b200ac8c7c3b92560405160405180910390a45050565b6000610c9482610bfa565b610cb05760405162461bcd60e51b81526004016103f090611dad565b6000610cbb83610648565b9050806001600160a01b0316846001600160a01b03161480610cf65750836001600160a01b0316610ceb846103c9565b6001600160a01b0316145b80610d065750610d068185610b36565b949350505050565b826001600160a01b0316610d2182610648565b6001600160a01b031614610d475760405162461bcd60e51b81526004016103f090612039565b6001600160a01b038216610d6d5760405162461bcd60e51b81526004016103f090611d36565b610d788383836111ec565b610d83600082610c1b565b6001600160a01b0383166000908152600360205260408120805460019290610dac90849061222b565b90915550506001600160a01b0382166000908152600360205260408120805460019290610dda9084906121ff565b909155505060008181526002602052604080822080546001600160a01b0319166001600160a01b0386811691821790925591518493918716917fddf252ad1be2c89b69c2b068fc378daa952ba7f163c4a11628f55a4df523b3ef91a4505050565b80546001019055565b5490565b6001600160a01b038216610e6e5760405162461bcd60e51b81526004016103f090611f32565b610e7781610bfa565b15610e945760405162461bcd60e51b81526004016103f090611d00565b610ea0600083836111ec565b6001600160a01b0382166000908152600360205260408120805460019290610ec99084906121ff565b909155505060008181526002602052604080822080546001600160a01b0319166001600160a01b03861690811790915590518392907fddf252ad1be2c89b69c2b068fc378daa952ba7f163c4a11628f55a4df523b3ef908290a45050565b610f3082610bfa565b610f4c5760405162461bcd60e51b81526004016103f090611ee4565b6000828152600660209081526040909120825161053d9284019061177b565b600b80546001600160a01b038381166001600160a01b0319831681179093556040519116919082907f8be0079c531659141344cd1fd0a4f28419497f9722a3daafe3b4186f6b6457e090600090a35050565b816001600160a01b0316836001600160a01b03161415610fef5760405162461bcd60e51b81526004016103f090611d7a565b6001600160a01b0383811660008181526005602090815260408083209487168084529490915290819020805460ff1916851515179055517f17307eab39ab6107e8899845ad3d59bd9653f200f220920489ca2b5937696c3190611053908590611bff565b60405180910390a3505050565b61106b848484610d0e565b6110778484848461120b565b610b255760405162461bcd60e51b81526004016103f090611c68565b606061109e82610bfa565b6110ba5760405162461bcd60e51b81526004016103f090611f67565b600082815260066020526040812080546110d39061226e565b80601f01602080910402602001604051908101604052809291908181526020018280546110ff9061226e565b801561114c5780601f106111215761010080835404028352916020019161114c565b820191906000526020600020905b81548152906001019060200180831161112f57829003601f168201915b50505050509050600061115d611326565b905080516000141561117157509050610323565b8151156111a357808260405160200161118b929190611b27565b60405160208183030381529060405292505050610323565b610d0684611338565b60006001600160e01b031982166380ac58cd60e01b14806111dd57506001600160e01b03198216635b5e139f60e01b145b806103205750610320826113bb565b816001600160a01b03811661120057600080fd5b610b258484846113d4565b600061121f846001600160a01b031661145d565b1561131b57836001600160a01b031663150b7a0261123b610c17565b8786866040518563ffffffff1660e01b815260040161125d9493929190611b8e565b602060405180830381600087803b15801561127757600080fd5b505af19250505080156112a7575060408051601f3d908101601f191682019092526112a491810190611a4f565b60015b611301573d8080156112d5576040519150601f19603f3d011682016040523d82523d6000602084013e6112da565b606091505b5080516112f95760405162461bcd60e51b81526004016103f090611c68565b805181602001fd5b6001600160e01b031916630a85bd0160e11b149050610d06565b506001949350505050565b60408051602081019091526000815290565b606061134382610bfa565b61135f5760405162461bcd60e51b81526004016103f090612082565b6000611369611326565b9050600081511161138957604051806020016040528060008152506113b4565b8061139384611463565b6040516020016113a4929190611b27565b6040516020818303038152906040525b9392505050565b6001600160e01b031981166301ffc9a760e01b14919050565b6113df83838361053d565b6001600160a01b0383166113fb576113f68161157d565b61141e565b816001600160a01b0316836001600160a01b03161461141e5761141e83826115c1565b6001600160a01b03821661143a576114358161165e565b61053d565b826001600160a01b0316826001600160a01b03161461053d5761053d8282611737565b3b151590565b60608161148857506040805180820190915260018152600360fc1b6020820152610323565b8160005b81156114b2578061149c816122a9565b91506114ab9050600a83612217565b915061148c565b6000816001600160401b038111156114da57634e487b7160e01b600052604160045260246000fd5b6040519080825280601f01601f191660200182016040528015611504576020820181803683370190505b5090505b8415610d065761151960018361222b565b9150611526600a866122c4565b6115319060306121ff565b60f81b81838151811061155457634e487b7160e01b600052603260045260246000fd5b60200101906001600160f81b031916908160001a905350611576600a86612217565b9450611508565b600980546000838152600a60205260408120829055600182018355919091527f6e1540171b6c0c960b71a7020d9f60077f6af931a8bbf590da0223dacf75c7af0155565b600060016115ce8461086c565b6115d8919061222b565b60008381526008602052604090205490915080821461162b576001600160a01b03841660009081526007602090815260408083208584528252808320548484528184208190558352600890915290208190555b5060009182526008602090815260408084208490556001600160a01b039094168352600781528383209183525290812055565b6009546000906116709060019061222b565b6000838152600a6020526040812054600980549394509092849081106116a657634e487b7160e01b600052603260045260246000fd5b9060005260206000200154905080600983815481106116d557634e487b7160e01b600052603260045260246000fd5b6000918252602080832090910192909255828152600a9091526040808220849055858252812055600980548061171b57634e487b7160e01b600052603160045260246000fd5b6001900381819060005260206000200160009055905550505050565b60006117428361086c565b6001600160a01b039093166000908152600760209081526040808320868452825280832085905593825260089052919091209190915550565b8280546117879061226e565b90600052602060002090601f0160209004810192826117a957600085556117ef565b82601f106117c257805160ff19168380011785556117ef565b828001600101855582156117ef579182015b828111156117ef5782518255916020019190600101906117d4565b506117fb9291506117ff565b5090565b5b808211156117fb5760008155600101611800565b60006001600160401b038084111561182e5761182e612304565b604051601f8501601f19168101602001828111828210171561185257611852612304565b60405284815291508183850186101561186a57600080fd5b8484602083013760006020868301015250509392505050565b80356001600160a01b038116811461032357600080fd5b600082601f8301126118aa578081fd5b6113b483833560208501611814565b6000602082840312156118ca578081fd5b6113b482611883565b600080604083850312156118e5578081fd5b6118ee83611883565b91506118fc60208401611883565b90509250929050565b600080600060608486031215611919578081fd5b61192284611883565b925061193060208501611883565b9150604084013590509250925092565b60008060008060808587031215611955578081fd5b61195e85611883565b935061196c60208601611883565b92506040850135915060608501356001600160401b0381111561198d578182fd5b8501601f8101871361199d578182fd5b6119ac87823560208401611814565b91505092959194509250565b600080604083850312156119ca578182fd5b6119d383611883565b915060208301356119e38161231a565b809150509250929050565b60008060408385031215611a00578182fd5b611a0983611883565b946020939093013593505050565b600060208284031215611a28578081fd5b81516113b48161231a565b600060208284031215611a44578081fd5b81356113b481612328565b600060208284031215611a60578081fd5b81516113b481612328565b60008060408385031215611a7d578182fd5b82356001600160401b0380821115611a93578384fd5b611a9f8683870161189a565b93506020850135915080821115611ab4578283fd5b50611ac18582860161189a565b9150509250929050565b600060208284031215611adc578081fd5b5035919050565b600060208284031215611af4578081fd5b5051919050565b60008151808452611b13816020860160208601612242565b601f01601f19169290920160200192915050565b60008351611b39818460208801612242565b835190830190611b4d818360208801612242565b01949350505050565b6001600160a01b0391909116815260200190565b6001600160a01b039384168152919092166020820152604081019190915260600190565b6001600160a01b0385811682528416602082015260408101839052608060608201819052600090611bc190830184611afb565b9695505050505050565b6001600160a01b0384168152606060208201819052600090611bef90830185611afb565b9050826040830152949350505050565b901515815260200190565b6000602082526113b46020830184611afb565b6020808252602b908201527f455243373231456e756d657261626c653a206f776e657220696e646578206f7560408201526a74206f6620626f756e647360a81b606082015260800190565b60208082526032908201527f4552433732313a207472616e7366657220746f206e6f6e20455243373231526560408201527131b2b4bb32b91034b6b83632b6b2b73a32b960711b606082015260800190565b60208082526026908201527f4f776e61626c653a206e6577206f776e657220697320746865207a65726f206160408201526564647265737360d01b606082015260800190565b6020808252601c908201527b115490cdcc8c4e881d1bdad95b88185b1c9958591e481b5a5b9d195960221b604082015260600190565b60208082526024908201527f4552433732313a207472616e7366657220746f20746865207a65726f206164646040820152637265737360e01b606082015260800190565b60208082526019908201527822a9219b99189d1030b8383937bb32903a379031b0b63632b960391b604082015260600190565b6020808252602c908201527f4552433732313a206f70657261746f7220717565727920666f72206e6f6e657860408201526b34b9ba32b73a103a37b5b2b760a11b606082015260800190565b60208082526038908201527f4552433732313a20617070726f76652063616c6c6572206973206e6f74206f776040820152771b995c881b9bdc88185c1c1c9bdd995908199bdc88185b1b60421b606082015260800190565b6020808252602a908201527f4552433732313a2062616c616e636520717565727920666f7220746865207a65604082015269726f206164647265737360b01b606082015260800190565b60208082526029908201527f4552433732313a206f776e657220717565727920666f72206e6f6e657869737460408201526832b73a103a37b5b2b760b91b606082015260800190565b6020808252602e908201527f45524337323155524953746f726167653a2055524920736574206f66206e6f6e60408201526d32bc34b9ba32b73a103a37b5b2b760911b606082015260800190565b6020808252818101527f4552433732313a206d696e7420746f20746865207a65726f2061646472657373604082015260600190565b60208082526031908201527f45524337323155524953746f726167653a2055524920717565727920666f72206040820152703737b732bc34b9ba32b73a103a37b5b2b760791b606082015260800190565b6020808252602c908201527f4552433732313a20617070726f76656420717565727920666f72206e6f6e657860408201526b34b9ba32b73a103a37b5b2b760a11b606082015260800190565b6020808252818101527f4f776e61626c653a2063616c6c6572206973206e6f7420746865206f776e6572604082015260600190565b60208082526029908201527f4552433732313a207472616e73666572206f6620746f6b656e2074686174206960408201526839903737ba1037bbb760b91b606082015260800190565b6020808252602f908201527f4552433732314d657461646174613a2055524920717565727920666f72206e6f60408201526e3732bc34b9ba32b73a103a37b5b2b760891b606082015260800190565b60208082526021908201527f4552433732313a20617070726f76616c20746f2063757272656e74206f776e656040820152603960f91b606082015260800190565b60208082526031908201527f4552433732313a207472616e736665722063616c6c6572206973206e6f74206f6040820152701ddb995c881b9bdc88185c1c1c9bdd9959607a1b606082015260800190565b6020808252602c908201527f455243373231456e756d657261626c653a20676c6f62616c20696e646578206f60408201526b7574206f6620626f756e647360a01b606082015260800190565b90815260200190565b8481526001600160a01b03841660208201526080604082018190526000906121e290830185611afb565b82810360608401526121f48185611afb565b979650505050505050565b60008219821115612212576122126122d8565b500190565b600082612226576122266122ee565b500490565b60008282101561223d5761223d6122d8565b500390565b60005b8381101561225d578181015183820152602001612245565b83811115610b255750506000910152565b60028104600182168061228257607f821691505b602082108114156122a357634e487b7160e01b600052602260045260246000fd5b50919050565b60006000198214156122bd576122bd6122d8565b5060010190565b6000826122d3576122d36122ee565b500690565b634e487b7160e01b600052601160045260246000fd5b634e487b7160e01b600052601260045260246000fd5b634e487b7160e01b600052604160045260246000fd5b8015158114610bd257600080fd5b6001600160e01b031981168114610bd257600080fdfea26469706673582212206c8b3934751aeb5ecbc60727e6c41bcc4a98f0970cdbf0e574a48d78e7867d6664736f6c63430008000033",
  "immutableReferences": {},
  "source": "// SPDX-License-Identifier: MIT\npragma solidity ^0.8;\n\nimport \"@openzeppelin/contracts/access/Ownable.sol\";\nimport \"@openzeppelin/contracts/utils/Counters.sol\";\nimport \"@openzeppelin/contracts/token/ERC721/extensions/ERC721Enumerable.sol\";\nimport \"@openzeppelin/contracts/token/ERC721/extensions/ERC721URIStorage.sol\";\nimport \"@openzeppelin/contracts/token/ERC20/ERC20.sol\";\n\ncontract NFTArtist is ERC721URIStorage, ERC721Enumerable, Ownable {\n\tusing Counters for Counters.Counter;\n\tCounters.Counter private _tokenIds; // Manage the incrementation of the tokenId\n\tIERC20 private Token; // Recovering an ERC20 interface\n\n\tconstructor(address addressMedal, address addressMedalVerse)\n\t\tERC721(\"MedalVerse\", \"MDV\")\n\t{\n\t\tToken = IERC20(addressMedal);\n\t\tmedalVerse = addressMedalVerse;\n\t}\n\n\t///@dev Structure to describe the NFT\n\tstruct NFT {\n\t\tuint256 tokenId; // TokenID of NFT\n\t\taddress creator; // Creator of NFT\n\t\tstring imgPath; // Image path for nft\n\t\tstring name; // Name of NFT\n\t}\n\n\t// Data --------------------------------\n\tmapping(uint256 => NFT) public NFTs;\n\n\tuint256 MDL_Mint_Royalties = 100 * (10**18);\n\taddress medalVerse;\n\n\t// Events ---------------------------------\n\tevent nftArtistMint(address owner, string name, uint256 tokenId);\n\tevent nftArtistPriceChanged(uint256 newPrice);\n\tevent nftArtistAddressMedalVerseChanged(address newAddress);\n\n\t// Modifiers ----------------------------\n\t///@dev Check that the address is not zero\n\tmodifier isNotNull(address a) virtual {\n\t\trequire(a != address(0));\n\t\t_;\n\t}\n\n\t// Methods -------------------------------\n\t///@dev Mint NFTArtist\n\t///@param name Name of the structure NFT\n\t///@param Uri Path to Image\n\tfunction mintNFTArtist(string memory name, string memory Uri) external {\n\t\tuint256 balance = Token.balanceOf(msg.sender);\n\t\trequire(balance > MDL_Mint_Royalties);\n\n\t\tToken.transferFrom(msg.sender, medalVerse, MDL_Mint_Royalties);\n\n\t\t_tokenIds.increment(); // Define the TokenId\n\t\tuint256 NFTArtistId = _tokenIds.current(); // Define the id of the NFTArtist in relation to this variable TokenIds\n\t\t_mint(msg.sender, NFTArtistId); // Mint the NFT\n\t\t_setTokenURI(NFTArtistId, Uri); // Set URI for this id\n\n\t\tNFTs[NFTArtistId].name = name;\n\t\tNFTs[NFTArtistId].tokenId = NFTArtistId;\n\t\tNFTs[NFTArtistId].creator = msg.sender;\n\t\tNFTs[NFTArtistId].imgPath = Uri;\n\n\t\temit nftArtistMint(msg.sender, name, NFTArtistId);\n\t}\n\n\t///@dev Modifies the structure and the mapping after a transfer\n\t///@param from NFT owner address\n\t///@param to address receiving the NFT\n\t///@param tokenId Token ID to transfer\n\tfunction _beforeTokenTransfer(\n\t\taddress from,\n\t\taddress to,\n\t\tuint256 tokenId\n\t) internal override(ERC721, ERC721Enumerable) isNotNull(to) {\n\t\tsuper._beforeTokenTransfer(from, to, tokenId);\n\t}\n\n\t///@dev delete the NFT with tokenId\n\t///@param tokenId tokenId nft deleted\n\tfunction _burn(uint256 tokenId)\n\t\tinternal\n\t\toverride(ERC721, ERC721URIStorage)\n\t{\n\t\tdelete NFTs[tokenId];\n\n\t\tsuper._burn(tokenId);\n\t}\n\n\t///@return Returns the URI of the NFT associated with its ID\n\t///@param tokenId Token ID to view\n\tfunction tokenURI(uint256 tokenId)\n\t\tpublic\n\t\tview\n\t\toverride(ERC721, ERC721URIStorage)\n\t\treturns (string memory)\n\t{\n\t\treturn super.tokenURI(tokenId);\n\t}\n\n\tfunction supportsInterface(bytes4 interfaceId)\n\t\tpublic\n\t\tview\n\t\toverride(ERC721, ERC721Enumerable)\n\t\treturns (bool)\n\t{\n\t\treturn super.supportsInterface(interfaceId);\n\t}\n\n\t///@dev change price of NFT\n\t///@param newPrice NewPrice to be defined\n\tfunction changePrice(uint256 newPrice) external onlyOwner {\n\t\tMDL_Mint_Royalties = newPrice;\n\n\t\temit nftArtistPriceChanged(newPrice);\n\t}\n\n\t///@dev Change address MedalVerse contract\n\t///@param addressMedalVerse new address of MedalVerse contract\n\tfunction setAddressMedalVerse(address addressMedalVerse)\n\t\texternal\n\t\tonlyOwner\n\t{\n\t\tmedalVerse = addressMedalVerse;\n\n\t\temit nftArtistAddressMedalVerseChanged(addressMedalVerse);\n\t}\n\n\t// view ------------------------\n\t///@dev View price\n\t///@return price of nft\n\tfunction checkPrice() external view returns (uint256) {\n\t\treturn MDL_Mint_Royalties;\n\t}\n\n\t///@dev view address to MedalVerse contract\n\t///@return Address MedalVerse contract\n\tfunction checkAddressMedalVerse() external view returns (address) {\n\t\treturn medalVerse;\n\t}\n}\n",
  "sourcePath": "/home/pec/Projets/MedalVerse/MedalVerse-Front/contracts/NFT/NFTArtist.sol",
  "compiler": {
    "name": "solc",
    "version": "0.8.0+commit.c7dfd78e.Emscripten.clang"
  },
  "schemaVersion": "3.4.4",
  "updatedAt": "2022-01-17T07:07:09.814Z",
  "networkType": "ethereum",
  "devdoc": {
    "kind": "dev",
    "methods": {
      "approve(address,uint256)": {
        "details": "See {IERC721-approve}."
      },
      "balanceOf(address)": {
        "details": "See {IERC721-balanceOf}."
      },
      "changePrice(uint256)": {
        "details": "change price of NFT",
        "params": {
          "newPrice": "NewPrice to be defined"
        }
      },
      "checkAddressMedalVerse()": {
        "details": "view address to MedalVerse contract",
        "returns": {
          "_0": "Address MedalVerse contract"
        }
      },
      "checkPrice()": {
        "details": "View price",
        "returns": {
          "_0": "price of nft"
        }
      },
      "getApproved(uint256)": {
        "details": "See {IERC721-getApproved}."
      },
      "isApprovedForAll(address,address)": {
        "details": "See {IERC721-isApprovedForAll}."
      },
      "mintNFTArtist(string,string)": {
        "details": "Mint NFTArtist",
        "params": {
          "Uri": "Path to Image",
          "name": "Name of the structure NFT"
        }
      },
      "name()": {
        "details": "See {IERC721Metadata-name}."
      },
      "owner()": {
        "details": "Returns the address of the current owner."
      },
      "ownerOf(uint256)": {
        "details": "See {IERC721-ownerOf}."
      },
      "renounceOwnership()": {
        "details": "Leaves the contract without owner. It will not be possible to call `onlyOwner` functions anymore. Can only be called by the current owner. NOTE: Renouncing ownership will leave the contract without an owner, thereby removing any functionality that is only available to the owner."
      },
      "safeTransferFrom(address,address,uint256)": {
        "details": "See {IERC721-safeTransferFrom}."
      },
      "safeTransferFrom(address,address,uint256,bytes)": {
        "details": "See {IERC721-safeTransferFrom}."
      },
      "setAddressMedalVerse(address)": {
        "details": "Change address MedalVerse contract",
        "params": {
          "addressMedalVerse": "new address of MedalVerse contract"
        }
      },
      "setApprovalForAll(address,bool)": {
        "details": "See {IERC721-setApprovalForAll}."
      },
      "symbol()": {
        "details": "See {IERC721Metadata-symbol}."
      },
      "tokenByIndex(uint256)": {
        "details": "See {IERC721Enumerable-tokenByIndex}."
      },
      "tokenOfOwnerByIndex(address,uint256)": {
        "details": "See {IERC721Enumerable-tokenOfOwnerByIndex}."
      },
      "tokenURI(uint256)": {
        "params": {
          "tokenId": "Token ID to view"
        },
        "returns": {
          "_0": "Returns the URI of the NFT associated with its ID"
        }
      },
      "totalSupply()": {
        "details": "See {IERC721Enumerable-totalSupply}."
      },
      "transferFrom(address,address,uint256)": {
        "details": "See {IERC721-transferFrom}."
      },
      "transferOwnership(address)": {
        "details": "Transfers ownership of the contract to a new account (`newOwner`). Can only be called by the current owner."
      }
    },
    "version": 1
  },
  "userdoc": {
    "kind": "user",
    "methods": {},
    "version": 1
  }
}