{
  "contractName": "NFTMedaille",
  "abi": [
    {
      "inputs": [],
      "stateMutability": "nonpayable",
      "type": "constructor"
    },
    {
      "anonymous": false,
      "inputs": [
        {
          "indexed": true,
          "internalType": "address",
          "name": "owner",
          "type": "address"
        },
        {
          "indexed": true,
          "internalType": "address",
          "name": "approved",
          "type": "address"
        },
        {
          "indexed": true,
          "internalType": "uint256",
          "name": "tokenId",
          "type": "uint256"
        }
      ],
      "name": "Approval",
      "type": "event"
    },
    {
      "anonymous": false,
      "inputs": [
        {
          "indexed": true,
          "internalType": "address",
          "name": "owner",
          "type": "address"
        },
        {
          "indexed": true,
          "internalType": "address",
          "name": "operator",
          "type": "address"
        },
        {
          "indexed": false,
          "internalType": "bool",
          "name": "approved",
          "type": "bool"
        }
      ],
      "name": "ApprovalForAll",
      "type": "event"
    },
    {
      "anonymous": false,
      "inputs": [
        {
          "indexed": true,
          "internalType": "address",
          "name": "previousOwner",
          "type": "address"
        },
        {
          "indexed": true,
          "internalType": "address",
          "name": "newOwner",
          "type": "address"
        }
      ],
      "name": "OwnershipTransferred",
      "type": "event"
    },
    {
      "anonymous": false,
      "inputs": [
        {
          "indexed": true,
          "internalType": "address",
          "name": "from",
          "type": "address"
        },
        {
          "indexed": true,
          "internalType": "address",
          "name": "to",
          "type": "address"
        },
        {
          "indexed": true,
          "internalType": "uint256",
          "name": "tokenId",
          "type": "uint256"
        }
      ],
      "name": "Transfer",
      "type": "event"
    },
    {
      "inputs": [
        {
          "internalType": "uint256",
          "name": "",
          "type": "uint256"
        }
      ],
      "name": "NFTs",
      "outputs": [
        {
          "internalType": "string",
          "name": "name",
          "type": "string"
        },
        {
          "internalType": "uint256",
          "name": "tokenId",
          "type": "uint256"
        },
        {
          "internalType": "address",
          "name": "creator",
          "type": "address"
        },
        {
          "internalType": "string",
          "name": "imgPath",
          "type": "string"
        }
      ],
      "stateMutability": "view",
      "type": "function"
    },
    {
      "inputs": [
        {
          "internalType": "address",
          "name": "to",
          "type": "address"
        },
        {
          "internalType": "uint256",
          "name": "tokenId",
          "type": "uint256"
        }
      ],
      "name": "approve",
      "outputs": [],
      "stateMutability": "nonpayable",
      "type": "function"
    },
    {
      "inputs": [
        {
          "internalType": "address",
          "name": "owner",
          "type": "address"
        }
      ],
      "name": "balanceOf",
      "outputs": [
        {
          "internalType": "uint256",
          "name": "",
          "type": "uint256"
        }
      ],
      "stateMutability": "view",
      "type": "function"
    },
    {
      "inputs": [
        {
          "internalType": "uint256",
          "name": "tokenId",
          "type": "uint256"
        }
      ],
      "name": "getApproved",
      "outputs": [
        {
          "internalType": "address",
          "name": "",
          "type": "address"
        }
      ],
      "stateMutability": "view",
      "type": "function"
    },
    {
      "inputs": [
        {
          "internalType": "address",
          "name": "owner",
          "type": "address"
        },
        {
          "internalType": "address",
          "name": "operator",
          "type": "address"
        }
      ],
      "name": "isApprovedForAll",
      "outputs": [
        {
          "internalType": "bool",
          "name": "",
          "type": "bool"
        }
      ],
      "stateMutability": "view",
      "type": "function"
    },
    {
      "inputs": [],
      "name": "name",
      "outputs": [
        {
          "internalType": "string",
          "name": "",
          "type": "string"
        }
      ],
      "stateMutability": "view",
      "type": "function"
    },
    {
      "inputs": [],
      "name": "owner",
      "outputs": [
        {
          "internalType": "address",
          "name": "",
          "type": "address"
        }
      ],
      "stateMutability": "view",
      "type": "function"
    },
    {
      "inputs": [
        {
          "internalType": "uint256",
          "name": "tokenId",
          "type": "uint256"
        }
      ],
      "name": "ownerOf",
      "outputs": [
        {
          "internalType": "address",
          "name": "",
          "type": "address"
        }
      ],
      "stateMutability": "view",
      "type": "function"
    },
    {
      "inputs": [],
      "name": "renounceOwnership",
      "outputs": [],
      "stateMutability": "nonpayable",
      "type": "function"
    },
    {
      "inputs": [
        {
          "internalType": "address",
          "name": "from",
          "type": "address"
        },
        {
          "internalType": "address",
          "name": "to",
          "type": "address"
        },
        {
          "internalType": "uint256",
          "name": "tokenId",
          "type": "uint256"
        }
      ],
      "name": "safeTransferFrom",
      "outputs": [],
      "stateMutability": "nonpayable",
      "type": "function"
    },
    {
      "inputs": [
        {
          "internalType": "address",
          "name": "from",
          "type": "address"
        },
        {
          "internalType": "address",
          "name": "to",
          "type": "address"
        },
        {
          "internalType": "uint256",
          "name": "tokenId",
          "type": "uint256"
        },
        {
          "internalType": "bytes",
          "name": "_data",
          "type": "bytes"
        }
      ],
      "name": "safeTransferFrom",
      "outputs": [],
      "stateMutability": "nonpayable",
      "type": "function"
    },
    {
      "inputs": [
        {
          "internalType": "address",
          "name": "operator",
          "type": "address"
        },
        {
          "internalType": "bool",
          "name": "approved",
          "type": "bool"
        }
      ],
      "name": "setApprovalForAll",
      "outputs": [],
      "stateMutability": "nonpayable",
      "type": "function"
    },
    {
      "inputs": [],
      "name": "symbol",
      "outputs": [
        {
          "internalType": "string",
          "name": "",
          "type": "string"
        }
      ],
      "stateMutability": "view",
      "type": "function"
    },
    {
      "inputs": [
        {
          "internalType": "uint256",
          "name": "index",
          "type": "uint256"
        }
      ],
      "name": "tokenByIndex",
      "outputs": [
        {
          "internalType": "uint256",
          "name": "",
          "type": "uint256"
        }
      ],
      "stateMutability": "view",
      "type": "function"
    },
    {
      "inputs": [
        {
          "internalType": "address",
          "name": "owner",
          "type": "address"
        },
        {
          "internalType": "uint256",
          "name": "index",
          "type": "uint256"
        }
      ],
      "name": "tokenOfOwnerByIndex",
      "outputs": [
        {
          "internalType": "uint256",
          "name": "",
          "type": "uint256"
        }
      ],
      "stateMutability": "view",
      "type": "function"
    },
    {
      "inputs": [],
      "name": "totalSupply",
      "outputs": [
        {
          "internalType": "uint256",
          "name": "",
          "type": "uint256"
        }
      ],
      "stateMutability": "view",
      "type": "function"
    },
    {
      "inputs": [
        {
          "internalType": "address",
          "name": "from",
          "type": "address"
        },
        {
          "internalType": "address",
          "name": "to",
          "type": "address"
        },
        {
          "internalType": "uint256",
          "name": "tokenId",
          "type": "uint256"
        }
      ],
      "name": "transferFrom",
      "outputs": [],
      "stateMutability": "nonpayable",
      "type": "function"
    },
    {
      "inputs": [
        {
          "internalType": "address",
          "name": "newOwner",
          "type": "address"
        }
      ],
      "name": "transferOwnership",
      "outputs": [],
      "stateMutability": "nonpayable",
      "type": "function"
    },
    {
      "inputs": [
        {
          "internalType": "string",
          "name": "name",
          "type": "string"
        },
        {
          "internalType": "string",
          "name": "Uri",
          "type": "string"
        }
      ],
      "name": "mintNFTMedaille",
      "outputs": [],
      "stateMutability": "nonpayable",
      "type": "function"
    },
    {
      "inputs": [
        {
          "internalType": "uint256",
          "name": "tokenId",
          "type": "uint256"
        }
      ],
      "name": "tokenURI",
      "outputs": [
        {
          "internalType": "string",
          "name": "",
          "type": "string"
        }
      ],
      "stateMutability": "view",
      "type": "function"
    },
    {
      "inputs": [
        {
          "internalType": "bytes4",
          "name": "interfaceId",
          "type": "bytes4"
        }
      ],
      "name": "supportsInterface",
      "outputs": [
        {
          "internalType": "bool",
          "name": "",
          "type": "bool"
        }
      ],
      "stateMutability": "view",
      "type": "function"
    }
  ],
  "bytecode": "0x60806040523480156200001157600080fd5b50604080518082018252600a8152694d6564616c566572736560b01b60208083019182528351808501909452600384526226a22b60e91b9084015281519192916200005f91600091620000ee565b50805162000075906001906020840190620000ee565b505050620000926200008c6200009860201b60201c565b6200009c565b620001d1565b3390565b600b80546001600160a01b038381166001600160a01b0319831681179093556040519116919082907f8be0079c531659141344cd1fd0a4f28419497f9722a3daafe3b4186f6b6457e090600090a35050565b828054620000fc9062000194565b90600052602060002090601f0160209004810192826200012057600085556200016b565b82601f106200013b57805160ff19168380011785556200016b565b828001600101855582156200016b579182015b828111156200016b5782518255916020019190600101906200014e565b50620001799291506200017d565b5090565b5b808211156200017957600081556001016200017e565b600281046001821680620001a957607f821691505b60208210811415620001cb57634e487b7160e01b600052602260045260246000fd5b50919050565b61206680620001e16000396000f3fe608060405234801561001057600080fd5b50600436106101375760003560e01c806370a08231116100b8578063a22cb4651161007c578063a22cb46514610261578063a3c0b95b14610274578063b88d4fde14610297578063c87b56dd146102aa578063e985e9c5146102bd578063f2fde38b146102d057610137565b806370a0823114610223578063715018a61461023657806378252fa31461023e5780638da5cb5b1461025157806395d89b411461025957610137565b806323b872dd116100ff57806323b872dd146101c45780632f745c59146101d757806342842e0e146101ea5780634f6ccce7146101fd5780636352211e1461021057610137565b806301ffc9a71461013c57806306fdde0314610165578063081812fc1461017a578063095ea7b31461019a57806318160ddd146101af575b600080fd5b61014f61014a366004611799565b6102e3565b60405161015c91906118f6565b60405180910390f35b61016d6102f6565b60405161015c9190611901565b61018d610188366004611832565b610388565b60405161015c91906118a5565b6101ad6101a8366004611770565b6103d4565b005b6101b761046c565b60405161015c9190611ef6565b6101ad6101d2366004611682565b610472565b6101b76101e5366004611770565b6104aa565b6101ad6101f8366004611682565b6104fc565b6101b761020b366004611832565b610517565b61018d61021e366004611832565b610572565b6101b7610231366004611636565b6105a7565b6101ad6105eb565b6101ad61024c3660046117d1565b610636565b61018d610707565b61016d610716565b6101ad61026f366004611736565b610725565b610287610282366004611832565b61073b565b60405161015c9493929190611914565b6101ad6102a53660046116bd565b610881565b61016d6102b8366004611832565b6108ba565b61014f6102cb366004611650565b6108c5565b6101ad6102de366004611636565b6108f3565b60006102ee82610964565b90505b919050565b60606000805461030590611f6e565b80601f016020809104026020016040519081016040528092919081815260200182805461033190611f6e565b801561037e5780601f106103535761010080835404028352916020019161037e565b820191906000526020600020905b81548152906001019060200180831161036157829003601f168201915b5050505050905090565b600061039382610989565b6103b85760405162461bcd60e51b81526004016103af90611cff565b60405180910390fd5b506000908152600460205260409020546001600160a01b031690565b60006103df82610572565b9050806001600160a01b0316836001600160a01b031614156104135760405162461bcd60e51b81526004016103af90611e18565b806001600160a01b03166104256109a6565b6001600160a01b031614806104415750610441816102cb6109a6565b61045d5760405162461bcd60e51b81526004016103af90611b3b565b61046783836109aa565b505050565b60095490565b61048361047d6109a6565b82610a18565b61049f5760405162461bcd60e51b81526004016103af90611e59565b610467838383610a9d565b60006104b5836105a7565b82106104d35760405162461bcd60e51b81526004016103af9061195a565b506001600160a01b03919091166000908152600760209081526040808320938352929052205490565b61046783838360405180602001604052806000815250610881565b600061052161046c565b821061053f5760405162461bcd60e51b81526004016103af90611eaa565b6009828154811061056057634e487b7160e01b600052603260045260246000fd5b90600052602060002001549050919050565b6000818152600260205260408120546001600160a01b0316806102ee5760405162461bcd60e51b81526004016103af90611be2565b60006001600160a01b0382166105cf5760405162461bcd60e51b81526004016103af90611b98565b506001600160a01b031660009081526003602052604090205490565b6105f36109a6565b6001600160a01b0316610604610707565b6001600160a01b03161461062a5760405162461bcd60e51b81526004016103af90611d4b565b6106346000610bca565b565b61063e6109a6565b6001600160a01b031661064f610707565b6001600160a01b0316146106755760405162461bcd60e51b81526004016103af90611d4b565b61067f600c610c1c565b600061068b600c610c25565b90506106973382610c29565b6106a18183610d08565b6000818152600d6020908152604090912084516106c0928601906114f7565b506000818152600d60209081526040909120600181018390556002810180546001600160a01b031916331790558351610701926003909201918501906114f7565b50505050565b600b546001600160a01b031690565b60606001805461030590611f6e565b6107376107306109a6565b8383610d4c565b5050565b600d6020526000908152604090208054819061075690611f6e565b80601f016020809104026020016040519081016040528092919081815260200182805461078290611f6e565b80156107cf5780601f106107a4576101008083540402835291602001916107cf565b820191906000526020600020905b8154815290600101906020018083116107b257829003601f168201915b5050505060018301546002840154600385018054949592946001600160a01b039092169350906107fe90611f6e565b80601f016020809104026020016040519081016040528092919081815260200182805461082a90611f6e565b80156108775780601f1061084c57610100808354040283529160200191610877565b820191906000526020600020905b81548152906001019060200180831161085a57829003601f168201915b5050505050905084565b61089261088c6109a6565b83610a18565b6108ae5760405162461bcd60e51b81526004016103af90611e59565b61070184848484610def565b60606102ee82610e22565b6001600160a01b03918216600090815260056020908152604080832093909416825291909152205460ff1690565b6108fb6109a6565b6001600160a01b031661090c610707565b6001600160a01b0316146109325760405162461bcd60e51b81526004016103af90611d4b565b6001600160a01b0381166109585760405162461bcd60e51b81526004016103af906119f7565b61096181610bca565b50565b60006001600160e01b0319821663780e9d6360e01b14806102ee57506102ee82610f3b565b6000908152600260205260409020546001600160a01b0316151590565b3390565b600081815260046020526040902080546001600160a01b0319166001600160a01b03841690811790915581906109df82610572565b6001600160a01b03167f8c5be1e5ebec7d5bd14f71427d1e84f3dd0314c0f7b2291e5b200ac8c7c3b92560405160405180910390a45050565b6000610a2382610989565b610a3f5760405162461bcd60e51b81526004016103af90611aef565b6000610a4a83610572565b9050806001600160a01b0316846001600160a01b03161480610a855750836001600160a01b0316610a7a84610388565b6001600160a01b0316145b80610a955750610a9581856108c5565b949350505050565b826001600160a01b0316610ab082610572565b6001600160a01b031614610ad65760405162461bcd60e51b81526004016103af90611d80565b6001600160a01b038216610afc5760405162461bcd60e51b81526004016103af90611a74565b610b07838383610f7b565b610b126000826109aa565b6001600160a01b0383166000908152600360205260408120805460019290610b3b908490611f2b565b90915550506001600160a01b0382166000908152600360205260408120805460019290610b69908490611eff565b909155505060008181526002602052604080822080546001600160a01b0319166001600160a01b0386811691821790925591518493918716917fddf252ad1be2c89b69c2b068fc378daa952ba7f163c4a11628f55a4df523b3ef91a4505050565b600b80546001600160a01b038381166001600160a01b0319831681179093556040519116919082907f8be0079c531659141344cd1fd0a4f28419497f9722a3daafe3b4186f6b6457e090600090a35050565b80546001019055565b5490565b6001600160a01b038216610c4f5760405162461bcd60e51b81526004016103af90611c79565b610c5881610989565b15610c755760405162461bcd60e51b81526004016103af90611a3d565b610c8160008383610f7b565b6001600160a01b0382166000908152600360205260408120805460019290610caa908490611eff565b909155505060008181526002602052604080822080546001600160a01b0319166001600160a01b03861690811790915590518392907fddf252ad1be2c89b69c2b068fc378daa952ba7f163c4a11628f55a4df523b3ef908290a45050565b610d1182610989565b610d2d5760405162461bcd60e51b81526004016103af90611c2b565b60008281526006602090815260409091208251610467928401906114f7565b816001600160a01b0316836001600160a01b03161415610d7e5760405162461bcd60e51b81526004016103af90611ab8565b6001600160a01b0383811660008181526005602090815260408083209487168084529490915290819020805460ff1916851515179055517f17307eab39ab6107e8899845ad3d59bd9653f200f220920489ca2b5937696c3190610de29085906118f6565b60405180910390a3505050565b610dfa848484610a9d565b610e0684848484610f86565b6107015760405162461bcd60e51b81526004016103af906119a5565b6060610e2d82610989565b610e495760405162461bcd60e51b81526004016103af90611cae565b60008281526006602052604081208054610e6290611f6e565b80601f0160208091040260200160405190810160405280929190818152602001828054610e8e90611f6e565b8015610edb5780601f10610eb057610100808354040283529160200191610edb565b820191906000526020600020905b815481529060010190602001808311610ebe57829003601f168201915b505050505090506000610eec6110a1565b9050805160001415610f00575090506102f1565b815115610f32578082604051602001610f1a929190611876565b604051602081830303815290604052925050506102f1565b610a95846110b3565b60006001600160e01b031982166380ac58cd60e01b1480610f6c57506001600160e01b03198216635b5e139f60e01b145b806102ee57506102ee82611136565b61046783838361114f565b6000610f9a846001600160a01b03166111d8565b1561109657836001600160a01b031663150b7a02610fb66109a6565b8786866040518563ffffffff1660e01b8152600401610fd894939291906118b9565b602060405180830381600087803b158015610ff257600080fd5b505af1925050508015611022575060408051601f3d908101601f1916820190925261101f918101906117b5565b60015b61107c573d808015611050576040519150601f19603f3d011682016040523d82523d6000602084013e611055565b606091505b5080516110745760405162461bcd60e51b81526004016103af906119a5565b805181602001fd5b6001600160e01b031916630a85bd0160e11b149050610a95565b506001949350505050565b60408051602081019091526000815290565b60606110be82610989565b6110da5760405162461bcd60e51b81526004016103af90611dc9565b60006110e46110a1565b90506000815111611104576040518060200160405280600081525061112f565b8061110e846111de565b60405160200161111f929190611876565b6040516020818303038152906040525b9392505050565b6001600160e01b031981166301ffc9a760e01b14919050565b61115a838383610467565b6001600160a01b03831661117657611171816112f9565b611199565b816001600160a01b0316836001600160a01b03161461119957611199838261133d565b6001600160a01b0382166111b5576111b0816113da565b610467565b826001600160a01b0316826001600160a01b0316146104675761046782826114b3565b3b151590565b60608161120357506040805180820190915260018152600360fc1b60208201526102f1565b8160005b811561122d578061121781611fa9565b91506112269050600a83611f17565b9150611207565b60008167ffffffffffffffff81111561125657634e487b7160e01b600052604160045260246000fd5b6040519080825280601f01601f191660200182016040528015611280576020820181803683370190505b5090505b8415610a9557611295600183611f2b565b91506112a2600a86611fc4565b6112ad906030611eff565b60f81b8183815181106112d057634e487b7160e01b600052603260045260246000fd5b60200101906001600160f81b031916908160001a9053506112f2600a86611f17565b9450611284565b600980546000838152600a60205260408120829055600182018355919091527f6e1540171b6c0c960b71a7020d9f60077f6af931a8bbf590da0223dacf75c7af0155565b6000600161134a846105a7565b6113549190611f2b565b6000838152600860205260409020549091508082146113a7576001600160a01b03841660009081526007602090815260408083208584528252808320548484528184208190558352600890915290208190555b5060009182526008602090815260408084208490556001600160a01b039094168352600781528383209183525290812055565b6009546000906113ec90600190611f2b565b6000838152600a60205260408120546009805493945090928490811061142257634e487b7160e01b600052603260045260246000fd5b90600052602060002001549050806009838154811061145157634e487b7160e01b600052603260045260246000fd5b6000918252602080832090910192909255828152600a9091526040808220849055858252812055600980548061149757634e487b7160e01b600052603160045260246000fd5b6001900381819060005260206000200160009055905550505050565b60006114be836105a7565b6001600160a01b039093166000908152600760209081526040808320868452825280832085905593825260089052919091209190915550565b82805461150390611f6e565b90600052602060002090601f016020900481019282611525576000855561156b565b82601f1061153e57805160ff191683800117855561156b565b8280016001018555821561156b579182015b8281111561156b578251825591602001919060010190611550565b5061157792915061157b565b5090565b5b80821115611577576000815560010161157c565b600067ffffffffffffffff808411156115ab576115ab612004565b604051601f8501601f1916810160200182811182821017156115cf576115cf612004565b6040528481529150818385018610156115e757600080fd5b8484602083013760006020868301015250509392505050565b80356001600160a01b03811681146102f157600080fd5b600082601f830112611627578081fd5b61112f83833560208501611590565b600060208284031215611647578081fd5b61112f82611600565b60008060408385031215611662578081fd5b61166b83611600565b915061167960208401611600565b90509250929050565b600080600060608486031215611696578081fd5b61169f84611600565b92506116ad60208501611600565b9150604084013590509250925092565b600080600080608085870312156116d2578081fd5b6116db85611600565b93506116e960208601611600565b925060408501359150606085013567ffffffffffffffff81111561170b578182fd5b8501601f8101871361171b578182fd5b61172a87823560208401611590565b91505092959194509250565b60008060408385031215611748578182fd5b61175183611600565b915060208301358015158114611765578182fd5b809150509250929050565b60008060408385031215611782578182fd5b61178b83611600565b946020939093013593505050565b6000602082840312156117aa578081fd5b813561112f8161201a565b6000602082840312156117c6578081fd5b815161112f8161201a565b600080604083850312156117e3578182fd5b823567ffffffffffffffff808211156117fa578384fd5b61180686838701611617565b9350602085013591508082111561181b578283fd5b5061182885828601611617565b9150509250929050565b600060208284031215611843578081fd5b5035919050565b60008151808452611862816020860160208601611f42565b601f01601f19169290920160200192915050565b60008351611888818460208801611f42565b83519083019061189c818360208801611f42565b01949350505050565b6001600160a01b0391909116815260200190565b6001600160a01b03858116825284166020820152604081018390526080606082018190526000906118ec9083018461184a565b9695505050505050565b901515815260200190565b60006020825261112f602083018461184a565b600060808252611927608083018761184a565b602083018690526001600160a01b0385166040840152828103606084015261194f818561184a565b979650505050505050565b6020808252602b908201527f455243373231456e756d657261626c653a206f776e657220696e646578206f7560408201526a74206f6620626f756e647360a81b606082015260800190565b60208082526032908201527f4552433732313a207472616e7366657220746f206e6f6e20455243373231526560408201527131b2b4bb32b91034b6b83632b6b2b73a32b960711b606082015260800190565b60208082526026908201527f4f776e61626c653a206e6577206f776e657220697320746865207a65726f206160408201526564647265737360d01b606082015260800190565b6020808252601c908201527f4552433732313a20746f6b656e20616c7265616479206d696e74656400000000604082015260600190565b60208082526024908201527f4552433732313a207472616e7366657220746f20746865207a65726f206164646040820152637265737360e01b606082015260800190565b60208082526019908201527f4552433732313a20617070726f766520746f2063616c6c657200000000000000604082015260600190565b6020808252602c908201527f4552433732313a206f70657261746f7220717565727920666f72206e6f6e657860408201526b34b9ba32b73a103a37b5b2b760a11b606082015260800190565b60208082526038908201527f4552433732313a20617070726f76652063616c6c6572206973206e6f74206f7760408201527f6e6572206e6f7220617070726f76656420666f7220616c6c0000000000000000606082015260800190565b6020808252602a908201527f4552433732313a2062616c616e636520717565727920666f7220746865207a65604082015269726f206164647265737360b01b606082015260800190565b60208082526029908201527f4552433732313a206f776e657220717565727920666f72206e6f6e657869737460408201526832b73a103a37b5b2b760b91b606082015260800190565b6020808252602e908201527f45524337323155524953746f726167653a2055524920736574206f66206e6f6e60408201526d32bc34b9ba32b73a103a37b5b2b760911b606082015260800190565b6020808252818101527f4552433732313a206d696e7420746f20746865207a65726f2061646472657373604082015260600190565b60208082526031908201527f45524337323155524953746f726167653a2055524920717565727920666f72206040820152703737b732bc34b9ba32b73a103a37b5b2b760791b606082015260800190565b6020808252602c908201527f4552433732313a20617070726f76656420717565727920666f72206e6f6e657860408201526b34b9ba32b73a103a37b5b2b760a11b606082015260800190565b6020808252818101527f4f776e61626c653a2063616c6c6572206973206e6f7420746865206f776e6572604082015260600190565b60208082526029908201527f4552433732313a207472616e73666572206f6620746f6b656e2074686174206960408201526839903737ba1037bbb760b91b606082015260800190565b6020808252602f908201527f4552433732314d657461646174613a2055524920717565727920666f72206e6f60408201526e3732bc34b9ba32b73a103a37b5b2b760891b606082015260800190565b60208082526021908201527f4552433732313a20617070726f76616c20746f2063757272656e74206f776e656040820152603960f91b606082015260800190565b60208082526031908201527f4552433732313a207472616e736665722063616c6c6572206973206e6f74206f6040820152701ddb995c881b9bdc88185c1c1c9bdd9959607a1b606082015260800190565b6020808252602c908201527f455243373231456e756d657261626c653a20676c6f62616c20696e646578206f60408201526b7574206f6620626f756e647360a01b606082015260800190565b90815260200190565b60008219821115611f1257611f12611fd8565b500190565b600082611f2657611f26611fee565b500490565b600082821015611f3d57611f3d611fd8565b500390565b60005b83811015611f5d578181015183820152602001611f45565b838111156107015750506000910152565b600281046001821680611f8257607f821691505b60208210811415611fa357634e487b7160e01b600052602260045260246000fd5b50919050565b6000600019821415611fbd57611fbd611fd8565b5060010190565b600082611fd357611fd3611fee565b500690565b634e487b7160e01b600052601160045260246000fd5b634e487b7160e01b600052601260045260246000fd5b634e487b7160e01b600052604160045260246000fd5b6001600160e01b03198116811461096157600080fdfea2646970667358221220f45c9f7d6f222c89f2f6b480c595d2837fe0488ee2ff110f5212e4485b991bdc64736f6c63430008000033",
  "immutableReferences": {},
  "source": "// SPDX-License-Identifier: MIT\r\npragma solidity 0.8.0;\r\n\r\nimport \"@openzeppelin/contracts/access/Ownable.sol\";\r\nimport \"@openzeppelin/contracts/utils/Counters.sol\";\r\nimport \"@openzeppelin/contracts/token/ERC721/ERC721.sol\";\r\nimport \"@openzeppelin/contracts/token/ERC721/extensions/ERC721Enumerable.sol\";\r\nimport \"@openzeppelin/contracts/token/ERC721/extensions/ERC721URIStorage.sol\";\r\n\r\ncontract NFTMedaille is ERC721, ERC721URIStorage, ERC721Enumerable, Ownable {\r\n\tusing Counters for Counters.Counter;\r\n\tCounters.Counter private _tokenIds;\r\n\r\n\tstruct NFT {\r\n\t\tstring name;\r\n\t\tuint tokenId;\r\n\t\taddress creator;\r\n\t\tstring imgPath;\r\n\t}\r\n\r\n\tmapping(uint=>NFT) public NFTs;\r\n\r\n\tconstructor() ERC721(\"MedalVerse\", \"MDV\") {\r\n\t}\r\n\r\n\t//@dev Mint the selected number of NFT Medaille\r\n\t//@param numberMint number to mint\r\n\tfunction mintNFTMedaille(string memory name, string memory Uri) public onlyOwner {\r\n\t\t\r\n\t\t\t_tokenIds.increment();\r\n\t\t\tuint256 newItemId = _tokenIds.current();\r\n\t\t\t_mint(msg.sender, newItemId);\r\n\t\t\t_setTokenURI(newItemId, Uri);\r\n\t\t\tNFTs[newItemId].name = name;\r\n\t\t\tNFTs[newItemId].tokenId = newItemId;\r\n\t\t\tNFTs[newItemId].creator = msg.sender;\r\n\t\t\tNFTs[newItemId].imgPath = Uri;\r\n\t\t\t\r\n\r\n\t\t\r\n\t}\r\n\r\n\tfunction _beforeTokenTransfer(address from, address to, uint256 tokenId)\r\n        internal\r\n        override(ERC721, ERC721Enumerable)\r\n    {\r\n        super._beforeTokenTransfer(from, to, tokenId);\r\n    }\r\n\r\n    function _burn(uint256 tokenId) internal override(ERC721, ERC721URIStorage) {\r\n        super._burn(tokenId);\r\n    }\r\n\r\n    function tokenURI(uint256 tokenId)\r\n        public\r\n        view\r\n        override(ERC721, ERC721URIStorage)\r\n        returns (string memory)\r\n    {\r\n        return super.tokenURI(tokenId);\r\n    }\r\n\r\n    function supportsInterface(bytes4 interfaceId)\r\n        public\r\n        view\r\n        override(ERC721, ERC721Enumerable)\r\n        returns (bool)\r\n    {\r\n        return super.supportsInterface(interfaceId);\r\n    }\r\n\r\n}\r\n",
  "sourcePath": "C:\\DEV\\ETH\\Alyra\\MedalVerse\\MedalVerse-Front\\contracts\\NFT\\NFTMedaille.sol",
  "compiler": {
    "name": "solc",
    "version": "0.8.0+commit.c7dfd78e.Emscripten.clang"
  },
  "schemaVersion": "3.4.4",
  "updatedAt": "2021-12-31T13:46:07.112Z",
  "devdoc": {
    "kind": "dev",
    "methods": {
      "approve(address,uint256)": {
        "details": "See {IERC721-approve}."
      },
      "balanceOf(address)": {
        "details": "See {IERC721-balanceOf}."
      },
      "getApproved(uint256)": {
        "details": "See {IERC721-getApproved}."
      },
      "isApprovedForAll(address,address)": {
        "details": "See {IERC721-isApprovedForAll}."
      },
      "name()": {
        "details": "See {IERC721Metadata-name}."
      },
      "owner()": {
        "details": "Returns the address of the current owner."
      },
      "ownerOf(uint256)": {
        "details": "See {IERC721-ownerOf}."
      },
      "renounceOwnership()": {
        "details": "Leaves the contract without owner. It will not be possible to call `onlyOwner` functions anymore. Can only be called by the current owner. NOTE: Renouncing ownership will leave the contract without an owner, thereby removing any functionality that is only available to the owner."
      },
      "safeTransferFrom(address,address,uint256)": {
        "details": "See {IERC721-safeTransferFrom}."
      },
      "safeTransferFrom(address,address,uint256,bytes)": {
        "details": "See {IERC721-safeTransferFrom}."
      },
      "setApprovalForAll(address,bool)": {
        "details": "See {IERC721-setApprovalForAll}."
      },
      "symbol()": {
        "details": "See {IERC721Metadata-symbol}."
      },
      "tokenByIndex(uint256)": {
        "details": "See {IERC721Enumerable-tokenByIndex}."
      },
      "tokenOfOwnerByIndex(address,uint256)": {
        "details": "See {IERC721Enumerable-tokenOfOwnerByIndex}."
      },
      "totalSupply()": {
        "details": "See {IERC721Enumerable-totalSupply}."
      },
      "transferFrom(address,address,uint256)": {
        "details": "See {IERC721-transferFrom}."
      },
      "transferOwnership(address)": {
        "details": "Transfers ownership of the contract to a new account (`newOwner`). Can only be called by the current owner."
      }
    },
    "version": 1
  },
  "userdoc": {
    "kind": "user",
    "methods": {},
    "version": 1
  }
}