{
  "contractName": "OrganizerHandler",
  "abi": [
    {
      "anonymous": false,
      "inputs": [
        {
          "indexed": false,
          "internalType": "address",
          "name": "_user",
          "type": "address"
        },
        {
          "indexed": false,
          "internalType": "uint256",
          "name": "indx",
          "type": "uint256"
        }
      ],
      "name": "OganizationAdded",
      "type": "event"
    },
    {
      "anonymous": false,
      "inputs": [
        {
          "indexed": false,
          "internalType": "address",
          "name": "_user",
          "type": "address"
        },
        {
          "indexed": false,
          "internalType": "uint256",
          "name": "indx",
          "type": "uint256"
        }
      ],
      "name": "OrganizerAdded",
      "type": "event"
    },
    {
      "anonymous": false,
      "inputs": [
        {
          "indexed": true,
          "internalType": "address",
          "name": "previousOwner",
          "type": "address"
        },
        {
          "indexed": true,
          "internalType": "address",
          "name": "newOwner",
          "type": "address"
        }
      ],
      "name": "OwnershipTransferred",
      "type": "event"
    },
    {
      "inputs": [],
      "name": "owner",
      "outputs": [
        {
          "internalType": "address",
          "name": "",
          "type": "address"
        }
      ],
      "stateMutability": "view",
      "type": "function"
    },
    {
      "inputs": [],
      "name": "renounceOwnership",
      "outputs": [],
      "stateMutability": "nonpayable",
      "type": "function"
    },
    {
      "inputs": [
        {
          "internalType": "address",
          "name": "newOwner",
          "type": "address"
        }
      ],
      "name": "transferOwnership",
      "outputs": [],
      "stateMutability": "nonpayable",
      "type": "function"
    },
    {
      "inputs": [
        {
          "internalType": "address",
          "name": "_user",
          "type": "address"
        },
        {
          "internalType": "string",
          "name": "_name",
          "type": "string"
        },
        {
          "internalType": "string",
          "name": "_description",
          "type": "string"
        },
        {
          "internalType": "string",
          "name": "_logoURI",
          "type": "string"
        }
      ],
      "name": "addOrganization",
      "outputs": [],
      "stateMutability": "nonpayable",
      "type": "function"
    },
    {
      "inputs": [
        {
          "internalType": "uint256",
          "name": "orgId",
          "type": "uint256"
        },
        {
          "internalType": "address",
          "name": "_user",
          "type": "address"
        }
      ],
      "name": "organizationAddAdmin",
      "outputs": [],
      "stateMutability": "nonpayable",
      "type": "function"
    },
    {
      "inputs": [
        {
          "internalType": "uint256",
          "name": "orgID",
          "type": "uint256"
        }
      ],
      "name": "getOrganizationName",
      "outputs": [
        {
          "internalType": "string",
          "name": "",
          "type": "string"
        }
      ],
      "stateMutability": "view",
      "type": "function"
    },
    {
      "inputs": [
        {
          "internalType": "uint256",
          "name": "_start",
          "type": "uint256"
        },
        {
          "internalType": "uint256",
          "name": "_end",
          "type": "uint256"
        }
      ],
      "name": "getOrganizationsList",
      "outputs": [
        {
          "components": [
            {
              "internalType": "string",
              "name": "name",
              "type": "string"
            },
            {
              "internalType": "string",
              "name": "description",
              "type": "string"
            },
            {
              "internalType": "string",
              "name": "logoURI",
              "type": "string"
            },
            {
              "internalType": "bool",
              "name": "activ",
              "type": "bool"
            }
          ],
          "internalType": "struct OrganizerHandler.organizationDesc[]",
          "name": "",
          "type": "tuple[]"
        }
      ],
      "stateMutability": "view",
      "type": "function"
    },
    {
      "inputs": [],
      "name": "getOrganisationCount",
      "outputs": [
        {
          "internalType": "uint256",
          "name": "",
          "type": "uint256"
        }
      ],
      "stateMutability": "view",
      "type": "function"
    },
    {
      "inputs": [
        {
          "internalType": "uint256",
          "name": "orgIndx",
          "type": "uint256"
        }
      ],
      "name": "getAdminList",
      "outputs": [
        {
          "internalType": "uint256[]",
          "name": "",
          "type": "uint256[]"
        }
      ],
      "stateMutability": "view",
      "type": "function"
    },
    {
      "inputs": [
        {
          "internalType": "uint256",
          "name": "orgIndx",
          "type": "uint256"
        }
      ],
      "name": "checkorganizerisAdminOf",
      "outputs": [
        {
          "internalType": "bool",
          "name": "",
          "type": "bool"
        }
      ],
      "stateMutability": "view",
      "type": "function"
    },
    {
      "inputs": [
        {
          "internalType": "uint256",
          "name": "organizer",
          "type": "uint256"
        },
        {
          "internalType": "uint256",
          "name": "orgIndx",
          "type": "uint256"
        }
      ],
      "name": "checkorganizerisAdminOf",
      "outputs": [
        {
          "internalType": "bool",
          "name": "",
          "type": "bool"
        }
      ],
      "stateMutability": "view",
      "type": "function"
    },
    {
      "inputs": [
        {
          "internalType": "uint256",
          "name": "id",
          "type": "uint256"
        }
      ],
      "name": "getOrganizerAddressById",
      "outputs": [
        {
          "internalType": "address",
          "name": "",
          "type": "address"
        }
      ],
      "stateMutability": "view",
      "type": "function"
    },
    {
      "inputs": [
        {
          "internalType": "address",
          "name": "_user",
          "type": "address"
        }
      ],
      "name": "getOrganizerOrganisationList",
      "outputs": [
        {
          "internalType": "uint256[]",
          "name": "",
          "type": "uint256[]"
        }
      ],
      "stateMutability": "view",
      "type": "function"
    },
    {
      "inputs": [
        {
          "internalType": "uint256",
          "name": "orgId",
          "type": "uint256"
        }
      ],
      "name": "getEventList",
      "outputs": [
        {
          "internalType": "uint256[]",
          "name": "",
          "type": "uint256[]"
        }
      ],
      "stateMutability": "view",
      "type": "function"
    }
  ],
  "bytecode": "0x608060405234801561001057600080fd5b5061002161001c610026565b61002a565b61007a565b3390565b600080546001600160a01b038381166001600160a01b0319831681178455604051919092169283917f8be0079c531659141344cd1fd0a4f28419497f9722a3daafe3b4186f6b6457e09190a35050565b61182f806100896000396000f3fe608060405234801561001057600080fd5b50600436106100ea5760003560e01c8063c46f05b91161008c578063fb87aa4211610066578063fb87aa42146101d8578063fbcbd067146101eb578063fbf5f199146101fe578063fe4363a314610211576100ea565b8063c46f05b91461019f578063e56afc75146101b2578063f2fde38b146101c5576100ea565b8063826226bf116100c8578063826226bf146101425780638da5cb5b1461016257806391850ab314610177578063b082b9c71461018a576100ea565b80635b4c4b20146100ef5780636ccf16b014610118578063715018a614610138575b600080fd5b6101026100fd36600461136d565b610231565b60405161010f9190611543565b60405180910390f35b61012b61012636600461136d565b610321565b60405161010f91906114f4565b6101406103ae565b005b61015561015036600461136d565b6103f9565b60405161010f9190611538565b61016a610437565b60405161010f919061141c565b61012b6101853660046112be565b610446565b610192610666565b60405161010f9190611728565b61012b6101ad36600461136d565b61066c565b6101406101c0366004611385565b610833565b6101406101d33660046112be565b610980565b61016a6101e636600461136d565b6109f1565b6101406101f93660046112d8565b610a48565b61015561020c3660046113b0565b610b85565b61022461021f3660046113b0565b610c95565b60405161010f9190611449565b600354606090821061025e5760405162461bcd60e51b8152600401610255906116fc565b60405180910390fd5b6003828154811061027f57634e487b7160e01b600052603260045260246000fd5b9060005260206000209060060201600201805461029b90611777565b80601f01602080910402602001604051908101604052809291908181526020018280546102c790611777565b80156103145780601f106102e957610100808354040283529160200191610314565b820191906000526020600020905b8154815290600101906020018083116102f757829003601f168201915b505050505090505b919050565b606060006003838154811061034657634e487b7160e01b600052603260045260246000fd5b90600052602060002090600602016001018054806020026020016040519081016040528092919081815260200182805480156103a157602002820191906000526020600020905b81548152602001906001019080831161038d575b5093979650505050505050565b6103b6611047565b6001600160a01b03166103c7610437565b6001600160a01b0316146103ed5760405162461bcd60e51b815260040161025590611660565b6103f7600061104b565b565b33600090815260026020526040812054806104265760405162461bcd60e51b815260040161025590611556565b6104308184610b85565b9392505050565b6000546001600160a01b031690565b6001600160a01b0381166000908152600260205260409020546060908061047f5760405162461bcd60e51b8152600401610255906115d3565b8061048981611760565b9150506000600182815481106104af57634e487b7160e01b600052603260045260246000fd5b9060005260206000209060040201600201549050600081116104e35760405162461bcd60e51b815260040161025590611637565b60008167ffffffffffffffff81111561050c57634e487b7160e01b600052604160045260246000fd5b604051908082528060200260200182016040528015610535578160200160208202803683370190505b5090506000805b60035481101561065b5760006001868154811061056957634e487b7160e01b600052603260045260246000fd5b9060005260206000209060040201600101828154811061059957634e487b7160e01b600052603260045260246000fd5b906000526020600020015411156106495760018086815481106105cc57634e487b7160e01b600052603260045260246000fd5b906000526020600020906004020160010182815481106105fc57634e487b7160e01b600052603260045260246000fd5b90600052602060002001546106119190611749565b838361061c816117b2565b94508151811061063c57634e487b7160e01b600052603260045260246000fd5b6020026020010181815250505b80610653816117b2565b91505061053c565b509095945050505050565b60035490565b600354606090829080821061068057600080fd5b600061068b8561109b565b905060008167ffffffffffffffff8111156106b657634e487b7160e01b600052604160045260246000fd5b6040519080825280602002602001820160405280156106df578160200160208202803683370190505b50905060005b6003878154811061070657634e487b7160e01b600052603260045260246000fd5b60009182526020909120600690910201548110156108295760006003888154811061074157634e487b7160e01b600052603260045260246000fd5b9060005260206000209060060201600001828154811061077157634e487b7160e01b600052603260045260246000fd5b90600052602060002001541115610817576001600388815481106107a557634e487b7160e01b600052603260045260246000fd5b906000526020600020906006020160000182815481106107d557634e487b7160e01b600052603260045260246000fd5b90600052602060002001546107ea9190611749565b82828151811061080a57634e487b7160e01b600052603260045260246000fd5b6020026020010181815250505b80610821816117b2565b9150506106e5565b5095945050505050565b61083b611047565b6001600160a01b031661084c610437565b6001600160a01b0316146108725760405162461bcd60e51b815260040161025590611660565b806001600160a01b03811661088657600080fd5b6000600384815481106108a957634e487b7160e01b600052603260045260246000fd5b600091825260208083206001600160a01b0387168452600290915260409092205460069091029091019150806108ef57634e487b7160e01b600052600160045260246000fd5b600060016108fd8184611749565b8154811061091b57634e487b7160e01b600052603260045260246000fd5b906000526020600020906004020190508060010186600161093c9190611731565b815460018101835560009283526020832001556002820180549161095f836117b2565b90915550508254600181018455600093845260209093209092015550505050565b610988611047565b6001600160a01b0316610999610437565b6001600160a01b0316146109bf5760405162461bcd60e51b815260040161025590611660565b6001600160a01b0381166109e55760405162461bcd60e51b81526004016102559061158d565b6109ee8161104b565b50565b6001546000908290808210610a0557600080fd5b60018481548110610a2657634e487b7160e01b600052603260045260246000fd5b60009182526020909120600490910201546001600160a01b0316949350505050565b836001600160a01b038116610a5c57600080fd5b610a64611047565b6001600160a01b0316610a75610437565b6001600160a01b031614610a9b5760405162461bcd60e51b815260040161025590611660565b600380546001810182556000919091528451600682027fc2575a0e9e593c00f959f8c92f12db2869c3395a3b0502d05e2516446f71f85b810191610b06917fc2575a0e9e593c00f959f8c92f12db2869c3395a3b0502d05e2516446f71f85d01906020890190611163565b508451610b1c9060038301906020880190611163565b508351610b329060048301906020870190611163565b5060058101805460ff191660011790556040517fcbbf31cd62dff8d3e3fd3ff1549adbbd47b39c0682301e54af8f3a0ffaade4a390610b749089908590611430565b60405180910390a150505050505050565b6003546000908210610ba95760405162461bcd60e51b8152600401610255906116cc565b6001548310610bca5760405162461bcd60e51b81526004016102559061160a565b600060038381548110610bed57634e487b7160e01b600052603260045260246000fd5b6000918252602082206006909102015491505b81811015610c88578460038581548110610c2a57634e487b7160e01b600052603260045260246000fd5b90600052602060002090600602016000018281548110610c5a57634e487b7160e01b600052603260045260246000fd5b90600052602060002001541415610c7657600192505050610c8f565b80610c80816117b2565b915050610c00565b5060009150505b92915050565b60035460609080610ca557600080fd5b82841115610cb257600080fd5b6003548410610cd35760405162461bcd60e51b815260040161025590611695565b6003548310610cee57600354610ceb90600190611749565b92505b6000610cfa8585611749565b610d05906001611731565b67ffffffffffffffff811115610d2b57634e487b7160e01b600052604160045260246000fd5b604051908082528060200260200182016040528015610d6457816020015b610d516111e7565b815260200190600190039081610d495790505b509050845b84811161103e57604051806080016040528060038381548110610d9c57634e487b7160e01b600052603260045260246000fd5b90600052602060002090600602016002018054610db890611777565b80601f0160208091040260200160405190810160405280929190818152602001828054610de490611777565b8015610e315780601f10610e0657610100808354040283529160200191610e31565b820191906000526020600020905b815481529060010190602001808311610e1457829003601f168201915b5050505050815260200160038381548110610e5c57634e487b7160e01b600052603260045260246000fd5b90600052602060002090600602016003018054610e7890611777565b80601f0160208091040260200160405190810160405280929190818152602001828054610ea490611777565b8015610ef15780601f10610ec657610100808354040283529160200191610ef1565b820191906000526020600020905b815481529060010190602001808311610ed457829003601f168201915b5050505050815260200160038381548110610f1c57634e487b7160e01b600052603260045260246000fd5b90600052602060002090600602016004018054610f3890611777565b80601f0160208091040260200160405190810160405280929190818152602001828054610f6490611777565b8015610fb15780601f10610f8657610100808354040283529160200191610fb1565b820191906000526020600020905b815481529060010190602001808311610f9457829003601f168201915b5050505050815260200160038381548110610fdc57634e487b7160e01b600052603260045260246000fd5b600091825260209091206005600690920201015460ff1615159052826110028884611749565b8151811061102057634e487b7160e01b600052603260045260246000fd5b60200260200101819052508080611036906117b2565b915050610d69565b50949350505050565b3390565b600080546001600160a01b038381166001600160a01b0319831681178455604051919092169283917f8be0079c531659141344cd1fd0a4f28419497f9722a3daafe3b4186f6b6457e09190a35050565b600080805b600384815481106110c157634e487b7160e01b600052603260045260246000fd5b600091825260209091206006909102015481101561115c57600384815481106110fa57634e487b7160e01b600052603260045260246000fd5b9060005260206000209060060201600001818154811061112a57634e487b7160e01b600052603260045260246000fd5b906000526020600020015460001461114a5781611146816117b2565b9250505b80611154816117b2565b9150506110a0565b5092915050565b82805461116f90611777565b90600052602060002090601f01602090048101928261119157600085556111d7565b82601f106111aa57805160ff19168380011785556111d7565b828001600101855582156111d7579182015b828111156111d75782518255916020019190600101906111bc565b506111e3929150611211565b5090565b60405180608001604052806060815260200160608152602001606081526020016000151581525090565b5b808211156111e35760008155600101611212565b80356001600160a01b038116811461031c57600080fd5b600082601f83011261124d578081fd5b813567ffffffffffffffff80821115611268576112686117e3565b604051601f8301601f19168101602001828111828210171561128c5761128c6117e3565b6040528281528483016020018610156112a3578384fd5b82602086016020830137918201602001929092529392505050565b6000602082840312156112cf578081fd5b61043082611226565b600080600080608085870312156112ed578283fd5b6112f685611226565b9350602085013567ffffffffffffffff80821115611312578485fd5b61131e8883890161123d565b94506040870135915080821115611333578384fd5b61133f8883890161123d565b93506060870135915080821115611354578283fd5b506113618782880161123d565b91505092959194509250565b60006020828403121561137e578081fd5b5035919050565b60008060408385031215611397578182fd5b823591506113a760208401611226565b90509250929050565b600080604083850312156113c2578182fd5b50508035926020909101359150565b60008151808452815b818110156113f6576020818501810151868301820152016113da565b818111156114075782602083870101525b50601f01601f19169290920160200192915050565b6001600160a01b0391909116815260200190565b6001600160a01b03929092168252602082015260400190565b60208082528251828201819052600091906040908185019080840286018301878501865b838110156114e657603f19898403018552815160808151818652611493828701826113d1565b915050888201518582038a8701526114ab82826113d1565b91505087820151858203898701526114c382826113d1565b60609384015115159690930195909552509487019492509086019060010161146d565b509098975050505050505050565b6020808252825182820181905260009190848201906040850190845b8181101561152c57835183529284019291840191600101611510565b50909695505050505050565b901515815260200190565b60006020825261043060208301846113d1565b60208082526018908201527f796f75206d75737420626520616e206f7267616e697a65720000000000000000604082015260600190565b60208082526026908201527f4f776e61626c653a206e6577206f776e657220697320746865207a65726f206160408201526564647265737360d01b606082015260800190565b60208082526018908201527f75736572206973206e6f7420616e206f7267616e697a65720000000000000000604082015260600190565b60208082526013908201527213dc99d85b9a5e995c881b9bdd08199bdd5b99606a1b604082015260600190565b6020808252600f908201526e37379039bab139b1b934b83a34b7b760891b604082015260600190565b6020808252818101527f4f776e61626c653a2063616c6c6572206973206e6f7420746865206f776e6572604082015260600190565b60208082526017908201527f5374617274496e646578206f7574206f662072616e6765000000000000000000604082015260600190565b60208082526016908201527513dc99d85b9a5e985d1a5bdb881b9bdd08199bdd5b9960521b604082015260600190565b6020808252601290820152716f72674944206f7574206f662072616e676560701b604082015260600190565b90815260200190565b60008219821115611744576117446117cd565b500190565b60008282101561175b5761175b6117cd565b500390565b60008161176f5761176f6117cd565b506000190190565b60028104600182168061178b57607f821691505b602082108114156117ac57634e487b7160e01b600052602260045260246000fd5b50919050565b60006000198214156117c6576117c66117cd565b5060010190565b634e487b7160e01b600052601160045260246000fd5b634e487b7160e01b600052604160045260246000fdfea2646970667358221220b14db67e7f79a782cc69fa95a3d8045f00392d332a6b16de3fb9573cc2eac2f364736f6c63430008000033",
  "immutableReferences": {},
  "source": "// SPDX-License-Identifier: MIT\r\npragma solidity ^0.8;\r\nimport \"@openzeppelin/contracts/access/Ownable.sol\";\r\n\r\ncontract OrganizerHandler is Ownable {\r\n\tstruct Organizer {\r\n\t\taddress _user;\r\n\t\tuint256[] organizationList; // id of orgs users subscribed to (id+1)\r\n\t\tuint256 nbActivOganization; // number of orgsid != 0\r\n\t\tbool activ;\r\n\t}\r\n\r\n\tstruct Organization {\r\n\t\tuint256[] adminList;\r\n\t\tuint256[] EventList;\r\n\t\tstring name;\r\n\t\tstring description;\r\n\t\tstring logoURI;\r\n\t\tbool activ;\r\n\t}\r\n\r\n\tOrganizer[] organizerList; // List of organizers\r\n\tmapping(address => uint256) organizerByAddress;\r\n\r\n\tOrganization[] organizationList; // List of organization\r\n\r\n\t// Modifiers ----------------------------\r\n\tmodifier isNotNull(address a) virtual {\r\n\t\trequire(a != address(0));\r\n\t\t_;\r\n\t}\r\n\tmodifier isNotNullUint256(uint256 a) virtual {\r\n\t\trequire(a != 0);\r\n\t\t_;\r\n\t}\r\n\tmodifier isLowerThanUint256(uint256 a, uint256 b) virtual {\r\n\t\trequire(a < b);\r\n\t\t_;\r\n\t}\r\n\r\n\t// Events --------------------------------\r\n\r\n\tevent OrganizerAdded(address _user, uint256 indx);\r\n\tevent OganizationAdded(address _user, uint256 indx);\r\n\r\n\t// Methods -------------------------------\r\n\t// Methods -------------------------------\r\n\t///@dev add an organizer to the list of organizers\r\n\t///@param _user address of the organizer\r\n\tfunction addOrganizer(address _user) internal onlyOwner isNotNull(_user) {\r\n\t\tuint256 indx = organizerList.length;\r\n\t\tOrganizer storage _organizer = organizerList.push();\r\n\t\t_organizer._user = _user;\r\n\t\t_organizer.activ = true;\r\n\t\torganizerByAddress[_user] = indx + 1;\r\n\r\n\t\temit OrganizerAdded(_user, indx);\r\n\t}\r\n\r\n\t// Methods -------------------------------\r\n\t///@dev add an organization to the list of orgs\r\n\t///@param _user admin of the organization\r\n\t///@param _name UI dislay name\r\n\t///@param _description UI description text\r\n\t///@param _logoURI Link to the icon lo\t\tuser.organizationState[orgId] = true;\r\n\r\n\tfunction addOrganization(\r\n\t\taddress _user,\r\n\t\tstring memory _name,\r\n\t\tstring memory _description,\r\n\t\tstring memory _logoURI\r\n\t) public isNotNull(_user) onlyOwner {\r\n\t\tuint256 indx = organizationList.length;\r\n\t\tOrganization storage _org = organizationList.push();\r\n\t\t_org.name = _name;\r\n\t\t_org.description = _description;\r\n\t\t_org.logoURI = _logoURI;\r\n\t\t_org.activ = true;\r\n\r\n\t\temit OganizationAdded(_user, indx);\r\n\t}\r\n\r\n\t///@dev add an admin to an org.\r\n\t///@param _user admin of the organizatio\r\n\t///@param orgId id of the organization\r\n\tfunction organizationAddAdmin(uint256 orgId, address _user)\r\n\t\tpublic\r\n\t\tonlyOwner\r\n\t\tisNotNull(_user)\r\n\t{\r\n\t\tOrganization storage org = organizationList[orgId];\r\n\t\tuint256 usrIndex = organizerByAddress[_user];\r\n\t\tassert(usrIndex != 0);\r\n\t\tOrganizer storage user = organizerList[usrIndex - 1];\r\n\r\n\t\t// register in the Organizer struct\r\n\t\tuser.organizationList.push(orgId + 1);\r\n\t\tuser.nbActivOganization++;\r\n\r\n\t\t// register in the Organization struct index 0 is used to remove a user from a list\r\n\t\torg.adminList.push(usrIndex);\r\n\t}\r\n\r\n\t// Exposing data to the outside ---\r\n\r\n\tfunction getOrganizationName(uint256 orgID)\r\n\t\tpublic\r\n\t\tview\r\n\t\treturns (string memory)\r\n\t{\r\n\t\trequire(orgID < organizationList.length, \"orgID out of range\");\r\n\t\treturn organizationList[orgID].name;\r\n\t}\r\n\r\n\t// Simplified struct used for viewing the internal states\r\n\tstruct organizationDesc {\r\n\t\tstring name;\r\n\t\tstring description;\r\n\t\tstring logoURI;\r\n\t\tbool activ;\r\n\t}\r\n\r\n\t///@dev returns the list of organization : they may be inactive, must test activ value\r\n\t///@param _start starting index amoung organizations\r\n\t///@param _end ending index amoung ogranizations\r\n\tfunction getOrganizationsList(uint256 _start, uint256 _end)\r\n\t\tpublic\r\n\t\tview\r\n\t\tisNotNullUint256(organizationList.length)\r\n\t\treturns (organizationDesc[] memory)\r\n\t{\r\n\t\trequire(_start <= _end); // check params\r\n\t\trequire(_start < organizationList.length, \"StartIndex out of range\");\r\n\r\n\t\t// we adjust the ending value\r\n\t\tif (_end >= organizationList.length) _end = organizationList.length - 1;\r\n\r\n\t\t// creat an array for returning only usefull values\r\n\t\torganizationDesc[] memory _desc = new organizationDesc[](\r\n\t\t\t_end - _start + 1\r\n\t\t);\r\n\r\n\t\t// Fill the structure\r\n\t\tuint256 x = _start;\r\n\t\twhile (x <= _end) {\r\n\t\t\t_desc[x - _start] = organizationDesc({\r\n\t\t\t\tname: organizationList[x].name,\r\n\t\t\t\tdescription: organizationList[x].description,\r\n\t\t\t\tlogoURI: organizationList[x].logoURI,\r\n\t\t\t\tactiv: organizationList[x].activ\r\n\t\t\t});\r\n\r\n\t\t\tx++;\r\n\t\t}\r\n\t\treturn _desc;\r\n\t}\r\n\r\n\t///@dev returns the number of Organizations\r\n\tfunction getOrganisationCount() public view returns (uint256) {\r\n\t\treturn organizationList.length;\r\n\t}\r\n\r\n\t///@dev returns the count of activ admin\r\n\t///@param orgIndx count the number\r\n\tfunction getActivAdminCount(uint256 orgIndx)\r\n\t\tinternal\r\n\t\tview\r\n\t\treturns (uint256)\r\n\t{\r\n\t\tuint256 count = 0;\r\n\t\tfor (uint256 x = 0; x < organizationList[orgIndx].adminList.length; x++)\r\n\t\t\tif (organizationList[orgIndx].adminList[x] != 0) count++;\r\n\r\n\t\treturn count;\r\n\t}\r\n\r\n\t///@dev returns the list activ admin of an organisation\r\n\t///@param orgIndx  index amoung organizations\r\n\tfunction getAdminList(uint256 orgIndx)\r\n\t\tpublic\r\n\t\tview\r\n\t\tisLowerThanUint256(orgIndx, organizationList.length)\r\n\t\treturns (uint256[] memory)\r\n\t{\r\n\t\tuint256 size = getActivAdminCount(orgIndx);\r\n\r\n\t\tuint256[] memory list = new uint256[](size);\r\n\t\tfor (uint256 x = 0; x < organizationList[orgIndx].adminList.length; x++)\r\n\t\t\tif (organizationList[orgIndx].adminList[x] > 0)\r\n\t\t\t\tlist[x] = organizationList[orgIndx].adminList[x] - 1;\r\n\t\treturn list;\r\n\t}\r\n\r\n\t///@dev returns true if the user is admin of the organization\r\n\t///@param organizer  index amoung organizers\r\n\t///@param orgIndx  index amoung organizations\r\n\tfunction checkorganizerisAdminOf(uint256 organizer, uint256 orgIndx)\r\n\t\tpublic\r\n\t\tview\r\n\t\treturns (bool)\r\n\t{\r\n\t\trequire(orgIndx < organizationList.length, \"Organization not found\");\r\n\t\trequire(organizer < organizerList.length, \"Organizer not found\");\r\n\t\tuint256 maxL = organizationList[orgIndx].adminList.length;\r\n\r\n\t\tfor (uint256 i = 0; i < maxL; i++) {\r\n\t\t\tif (organizationList[orgIndx].adminList[i] == organizer)\r\n\t\t\t\treturn true;\r\n\t\t}\r\n\t\treturn false;\r\n\t}\r\n\r\n\t///@dev returns true if the user is admin of the organization\r\n\t///@param orgIndx  index amoung organizations\r\n\tfunction checkorganizerisAdminOf(uint256 orgIndx)\r\n\t\tpublic\r\n\t\tview\r\n\t\treturns (bool)\r\n\t{\r\n\t\tuint256 organizerId = organizerByAddress[msg.sender];\r\n\t\trequire(organizerId > 0, \"you must be an organizer\");\r\n\t\treturn checkorganizerisAdminOf(organizerId, orgIndx);\r\n\t}\r\n\r\n\t///@dev returns the address of an admin, given an id organizer\r\n\t///@param id  id (=index) of the organizer\r\n\tfunction getOrganizerAddressById(uint256 id)\r\n\t\tpublic\r\n\t\tview\r\n\t\tisLowerThanUint256(id, organizerList.length)\r\n\t\treturns (address)\r\n\t{\r\n\t\treturn organizerList[id]._user;\r\n\t}\r\n\r\n\t///@dev returns the list of organization the organizer subscribed to\r\n\t///@param _user  address of the user\r\n\tfunction getOrganizerOrganisationList(address _user)\r\n\t\tpublic\r\n\t\tview\r\n\t\treturns (uint256[] memory)\r\n\t{\r\n\t\t// We make sure the provided addess is correct\r\n\t\tuint256 indx = organizerByAddress[_user];\r\n\t\trequire(indx != 0, \"user is not an organizer\");\r\n\t\tindx--; // Now that we have checked, we get the correct iD\r\n\t\tuint256 size = organizerList[indx].nbActivOganization;\r\n\r\n\t\t// we stop if no subscription\r\n\t\trequire(size > 0, \"no subscription\");\r\n\r\n\t\t// Create and fill returnable array\r\n\t\tuint256[] memory result = new uint256[](size);\r\n\t\tuint256 increment = 0;\r\n\t\tfor (uint256 x = 0; x < organizationList.length; x++) {\r\n\t\t\tif (organizerList[indx].organizationList[x] > 0) {\r\n\t\t\t\tresult[increment++] =\r\n\t\t\t\t\torganizerList[indx].organizationList[x] -\r\n\t\t\t\t\t1;\r\n\t\t\t}\r\n\t\t}\r\n\t\treturn result;\r\n\t}\r\n\r\n\tfunction organizerAddEvent(\r\n\t\tuint256 organizerID,\r\n\t\tuint256 organizationId,\r\n\t\tuint256 eventID\r\n\t) internal {\r\n\t\trequire(organizerID < organizerList.length);\r\n\t\t// organizationList[organizationId].EventList.push(eventID + 1);\r\n\r\n\t\t// organizationList[organizationId].EventList.push(eventID /*+ 1*/);\r\n\t\torganizationList[organizationId].EventList.push(eventID + 1);\r\n\t}\r\n\r\n\tfunction getEventList(uint256 orgId)\r\n\t\tpublic\r\n\t\tview\r\n\t\treturns (uint256[] memory)\r\n\t{\r\n\t\tuint256[] memory EventList = organizationList[orgId].EventList;\r\n\t\treturn EventList;\r\n\t}\r\n}\r\n",
  "sourcePath": "C:\\DEV\\ETH\\Alyra\\MedalVerse\\MedalVerse-Front\\contracts\\Dapp Internal Struct\\OrganizerHandler.sol",
  "compiler": {
    "name": "solc",
    "version": "0.8.0+commit.c7dfd78e.Emscripten.clang"
  },
  "schemaVersion": "3.4.4",
  "updatedAt": "2021-12-31T22:38:00.676Z",
  "devdoc": {
    "kind": "dev",
    "methods": {
      "addOrganization(address,string,string,string)": {
        "details": "add an organization to the list of orgs",
        "params": {
          "_description": "UI description text",
          "_logoURI": "Link to the icon lo\t\tuser.organizationState[orgId] = true;",
          "_name": "UI dislay name",
          "_user": "admin of the organization"
        }
      },
      "checkorganizerisAdminOf(uint256)": {
        "details": "returns true if the user is admin of the organization",
        "params": {
          "orgIndx": "index amoung organizations"
        }
      },
      "checkorganizerisAdminOf(uint256,uint256)": {
        "details": "returns true if the user is admin of the organization",
        "params": {
          "orgIndx": "index amoung organizations",
          "organizer": "index amoung organizers"
        }
      },
      "getAdminList(uint256)": {
        "details": "returns the list activ admin of an organisation",
        "params": {
          "orgIndx": "index amoung organizations"
        }
      },
      "getOrganisationCount()": {
        "details": "returns the number of Organizations"
      },
      "getOrganizationsList(uint256,uint256)": {
        "details": "returns the list of organization : they may be inactive, must test activ value",
        "params": {
          "_end": "ending index amoung ogranizations",
          "_start": "starting index amoung organizations"
        }
      },
      "getOrganizerAddressById(uint256)": {
        "details": "returns the address of an admin, given an id organizer",
        "params": {
          "id": "id (=index) of the organizer"
        }
      },
      "getOrganizerOrganisationList(address)": {
        "details": "returns the list of organization the organizer subscribed to",
        "params": {
          "_user": "address of the user"
        }
      },
      "organizationAddAdmin(uint256,address)": {
        "details": "add an admin to an org.",
        "params": {
          "_user": "admin of the organizatio",
          "orgId": "id of the organization"
        }
      },
      "owner()": {
        "details": "Returns the address of the current owner."
      },
      "renounceOwnership()": {
        "details": "Leaves the contract without owner. It will not be possible to call `onlyOwner` functions anymore. Can only be called by the current owner. NOTE: Renouncing ownership will leave the contract without an owner, thereby removing any functionality that is only available to the owner."
      },
      "transferOwnership(address)": {
        "details": "Transfers ownership of the contract to a new account (`newOwner`). Can only be called by the current owner."
      }
    },
    "version": 1
  },
  "userdoc": {
    "kind": "user",
    "methods": {},
    "version": 1
  }
}