{
  "contractName": "OrganizerHandler",
  "abi": [
    {
      "anonymous": false,
      "inputs": [
        {
          "indexed": false,
          "internalType": "address",
          "name": "_user",
          "type": "address"
        },
        {
          "indexed": false,
          "internalType": "uint256",
          "name": "indx",
          "type": "uint256"
        }
      ],
      "name": "OganizationAdded",
      "type": "event"
    },
    {
      "anonymous": false,
      "inputs": [
        {
          "indexed": false,
          "internalType": "address",
          "name": "_user",
          "type": "address"
        },
        {
          "indexed": false,
          "internalType": "uint256",
          "name": "indx",
          "type": "uint256"
        }
      ],
      "name": "OrganizerAdded",
      "type": "event"
    },
    {
      "anonymous": false,
      "inputs": [
        {
          "indexed": true,
          "internalType": "address",
          "name": "previousOwner",
          "type": "address"
        },
        {
          "indexed": true,
          "internalType": "address",
          "name": "newOwner",
          "type": "address"
        }
      ],
      "name": "OwnershipTransferred",
      "type": "event"
    },
    {
      "inputs": [],
      "name": "owner",
      "outputs": [
        {
          "internalType": "address",
          "name": "",
          "type": "address"
        }
      ],
      "stateMutability": "view",
      "type": "function"
    },
    {
      "inputs": [],
      "name": "renounceOwnership",
      "outputs": [],
      "stateMutability": "nonpayable",
      "type": "function"
    },
    {
      "inputs": [
        {
          "internalType": "address",
          "name": "newOwner",
          "type": "address"
        }
      ],
      "name": "transferOwnership",
      "outputs": [],
      "stateMutability": "nonpayable",
      "type": "function"
    },
    {
      "inputs": [
        {
          "internalType": "address",
          "name": "_user",
          "type": "address"
        }
      ],
      "name": "addOrganizer",
      "outputs": [],
      "stateMutability": "nonpayable",
      "type": "function"
    },
    {
      "inputs": [
        {
          "internalType": "address",
          "name": "_user",
          "type": "address"
        },
        {
          "internalType": "string",
          "name": "_name",
          "type": "string"
        },
        {
          "internalType": "string",
          "name": "_description",
          "type": "string"
        },
        {
          "internalType": "string",
          "name": "_logoURI",
          "type": "string"
        }
      ],
      "name": "addOrganization",
      "outputs": [],
      "stateMutability": "nonpayable",
      "type": "function"
    }
  ],
  "bytecode": "0x608060405234801561001057600080fd5b5061002161001c610026565b61002a565b61007a565b3390565b600080546001600160a01b038381166001600160a01b0319831681178455604051919092169283917f8be0079c531659141344cd1fd0a4f28419497f9722a3daafe3b4186f6b6457e09190a35050565b610760806100896000396000f3fe608060405234801561001057600080fd5b50600436106100575760003560e01c8063715018a61461005c5780638da5cb5b14610066578063e4725f0214610084578063f2fde38b14610097578063fbcbd067146100aa575b600080fd5b6100646100bd565b005b61006e610111565b60405161007b9190610631565b60405180910390f35b61006461009236600461057b565b610120565b6100646100a536600461057b565b610243565b6100646100b836600461059c565b6102b4565b6100c56103f1565b6001600160a01b03166100d6610111565b6001600160a01b0316146101055760405162461bcd60e51b81526004016100fc906106a4565b60405180910390fd5b61010f60006103f5565b565b6000546001600160a01b031690565b6101286103f1565b6001600160a01b0316610139610111565b6001600160a01b03161461015f5760405162461bcd60e51b81526004016100fc906106a4565b806001600160a01b03811661017357600080fd5b600180548082018255600481027fb10e2d527612073b26eecdfd717e6a320cf44b4afac2b0732d9fcbe2b7fa0cf6810180546001600160a01b0387166001600160a01b0319909116811782557fb10e2d527612073b26eecdfd717e6a320cf44b4afac2b0732d9fcbe2b7fa0cf9909201805460ff191690941790935560009081526002602052604090819020829055519091907fecc5d9929809b3db05d64ac37958ea2e6d0676af617f0d6ebec74a40e43382b7906102359086908590610645565b60405180910390a150505050565b61024b6103f1565b6001600160a01b031661025c610111565b6001600160a01b0316146102825760405162461bcd60e51b81526004016100fc906106a4565b6001600160a01b0381166102a85760405162461bcd60e51b81526004016100fc9061065e565b6102b1816103f5565b50565b6102bc6103f1565b6001600160a01b03166102cd610111565b6001600160a01b0316146102f35760405162461bcd60e51b81526004016100fc906106a4565b836001600160a01b03811661030757600080fd5b600380546001810182556000919091528451600682027fc2575a0e9e593c00f959f8c92f12db2869c3395a3b0502d05e2516446f71f85b810191610372917fc2575a0e9e593c00f959f8c92f12db2869c3395a3b0502d05e2516446f71f85d01906020890190610445565b5084516103889060038301906020880190610445565b50835161039e9060048301906020870190610445565b5060058101805460ff191660011790556040517fcbbf31cd62dff8d3e3fd3ff1549adbbd47b39c0682301e54af8f3a0ffaade4a3906103e09089908590610645565b60405180910390a150505050505050565b3390565b600080546001600160a01b038381166001600160a01b0319831681178455604051919092169283917f8be0079c531659141344cd1fd0a4f28419497f9722a3daafe3b4186f6b6457e09190a35050565b828054610451906106d9565b90600052602060002090601f01602090048101928261047357600085556104b9565b82601f1061048c57805160ff19168380011785556104b9565b828001600101855582156104b9579182015b828111156104b957825182559160200191906001019061049e565b506104c59291506104c9565b5090565b5b808211156104c557600081556001016104ca565b80356001600160a01b03811681146104f557600080fd5b919050565b600082601f83011261050a578081fd5b813567ffffffffffffffff8082111561052557610525610714565b604051601f8301601f19168101602001828111828210171561054957610549610714565b604052828152848301602001861015610560578384fd5b82602086016020830137918201602001929092529392505050565b60006020828403121561058c578081fd5b610595826104de565b9392505050565b600080600080608085870312156105b1578283fd5b6105ba856104de565b9350602085013567ffffffffffffffff808211156105d6578485fd5b6105e2888389016104fa565b945060408701359150808211156105f7578384fd5b610603888389016104fa565b93506060870135915080821115610618578283fd5b50610625878288016104fa565b91505092959194509250565b6001600160a01b0391909116815260200190565b6001600160a01b03929092168252602082015260400190565b60208082526026908201527f4f776e61626c653a206e6577206f776e657220697320746865207a65726f206160408201526564647265737360d01b606082015260800190565b6020808252818101527f4f776e61626c653a2063616c6c6572206973206e6f7420746865206f776e6572604082015260600190565b6002810460018216806106ed57607f821691505b6020821081141561070e57634e487b7160e01b600052602260045260246000fd5b50919050565b634e487b7160e01b600052604160045260246000fdfea26469706673582212204b6d7307ac11e7d19899a421f959fd367d2bae1b415a96c2af9002880721ca3464736f6c63430008000033",
  "immutableReferences": {},
  "source": "// SPDX-License-Identifier: MIT\npragma solidity ^0.8;\nimport \"@openzeppelin/contracts/access/Ownable.sol\";\n\ncontract OrganizerHandler is Ownable {\n\tstruct Organizer {\n\t\taddress _user;\n\t\tuint256[] organizationList;\n\t\tmapping(uint256 => bool) organizationState;\n\t\tbool activ;\n\t}\n\n\tstruct Organization {\n\t\tuint256[] adminList;\n\t\tmapping(address => bool) adminState;\n\t\tstring name;\n\t\tstring description;\n\t\tstring logoURI;\n\t\tbool activ;\n\t}\n\n\tOrganizer[] organizerList; // List of organizers\n\tmapping(address => uint256) organizeByAddress;\n\n\tOrganization[] organizationList; // List of organization\n\n\t// Modifiers ----------------------------\n\tmodifier isNotNull(address a) virtual {\n\t\trequire(a != address(0));\n\t\t_;\n\t}\n\n\tevent OrganizerAdded(address _user, uint256 indx);\n\tevent OganizationAdded(address _user, uint256 indx);\n\n\t// Methods -------------------------------\n\tfunction addOrganizer(address _user) public onlyOwner isNotNull(_user) {\n\t\tuint256 indx = organizerList.length;\n\t\tOrganizer storage _organizer = organizerList.push();\n\t\t_organizer._user = _user;\n\t\t_organizer.activ = true;\n\t\torganizeByAddress[_user] = indx;\n\n\t\temit OrganizerAdded(_user, indx);\n\t}\n\n\tfunction addOrganization(\n\t\taddress _user,\n\t\tstring memory _name,\n\t\tstring memory _description,\n\t\tstring memory _logoURI\n\t) public onlyOwner isNotNull(_user) {\n\t\tuint256 indx = organizationList.length;\n\t\tOrganization storage _org = organizationList.push();\n\t\t_org.name = _name;\n\t\t_org.description = _description;\n\t\t_org.logoURI = _logoURI;\n\t\t_org.activ = true;\n\t\t// aJOUTER: Set admin user\n\t\temit OganizationAdded(_user, indx);\n\t}\n\n\tfunction organizationAddAdmin(address _user, uint256 orgId)\n\t\tprivate\n\t\tonlyOwner\n\t\tisNotNull(_user)\n\t{\n\t\tOrganization storage org = organizationList[orgId];\n\t\tuint256 usrIndex = organizeByAddress[_user];\n\t\tOrganizer storage user = organizerList[usrIndex];\n\n\t\t// register in the Organizer struct\n\t\tuser.organizationList.push(orgId);\n\t\tuser.organizationState[orgId] = true;\n\n\t\t// register in the Organization struct\n\t\torg.adminList.push(usrIndex);\n\t\torg.adminState[_user] = false;\n\t}\n}\n",
  "sourcePath": "/home/pec/Projets/MedalVerse/MedalVerse-Front/contracts/Dapp Internal Struct/OrganizerHandler.sol",
  "compiler": {
    "name": "solc",
    "version": "0.8.0+commit.c7dfd78e.Emscripten.clang"
  },
  "schemaVersion": "3.4.3",
  "updatedAt": "2021-12-19T16:32:54.536Z",
  "devdoc": {
    "kind": "dev",
    "methods": {
      "owner()": {
        "details": "Returns the address of the current owner."
      },
      "renounceOwnership()": {
        "details": "Leaves the contract without owner. It will not be possible to call `onlyOwner` functions anymore. Can only be called by the current owner. NOTE: Renouncing ownership will leave the contract without an owner, thereby removing any functionality that is only available to the owner."
      },
      "transferOwnership(address)": {
        "details": "Transfers ownership of the contract to a new account (`newOwner`). Can only be called by the current owner."
      }
    },
    "version": 1
  },
  "userdoc": {
    "kind": "user",
    "methods": {},
    "version": 1
  }
}