{
  "contractName": "OrganizerHandler",
  "abi": [
    {
      "anonymous": false,
      "inputs": [
        {
          "indexed": false,
          "internalType": "address",
          "name": "_user",
          "type": "address"
        },
        {
          "indexed": false,
          "internalType": "uint256",
          "name": "indx",
          "type": "uint256"
        }
      ],
      "name": "OganizationAdded",
      "type": "event"
    },
    {
      "anonymous": false,
      "inputs": [
        {
          "indexed": false,
          "internalType": "address",
          "name": "_user",
          "type": "address"
        },
        {
          "indexed": false,
          "internalType": "uint256",
          "name": "indx",
          "type": "uint256"
        }
      ],
      "name": "OrganizerAdded",
      "type": "event"
    },
    {
      "anonymous": false,
      "inputs": [
        {
          "indexed": true,
          "internalType": "address",
          "name": "previousOwner",
          "type": "address"
        },
        {
          "indexed": true,
          "internalType": "address",
          "name": "newOwner",
          "type": "address"
        }
      ],
      "name": "OwnershipTransferred",
      "type": "event"
    },
    {
      "anonymous": false,
      "inputs": [],
      "name": "organizerAddedEvent",
      "type": "event"
    },
    {
      "inputs": [],
      "name": "owner",
      "outputs": [
        {
          "internalType": "address",
          "name": "",
          "type": "address"
        }
      ],
      "stateMutability": "view",
      "type": "function"
    },
    {
      "inputs": [],
      "name": "renounceOwnership",
      "outputs": [],
      "stateMutability": "nonpayable",
      "type": "function"
    },
    {
      "inputs": [
        {
          "internalType": "address",
          "name": "newOwner",
          "type": "address"
        }
      ],
      "name": "transferOwnership",
      "outputs": [],
      "stateMutability": "nonpayable",
      "type": "function"
    },
    {
      "inputs": [
        {
          "internalType": "address",
          "name": "_user",
          "type": "address"
        },
        {
          "internalType": "string",
          "name": "_name",
          "type": "string"
        },
        {
          "internalType": "string",
          "name": "_description",
          "type": "string"
        },
        {
          "internalType": "string",
          "name": "_logoURI",
          "type": "string"
        }
      ],
      "name": "addOrganization",
      "outputs": [],
      "stateMutability": "nonpayable",
      "type": "function"
    },
    {
      "inputs": [
        {
          "internalType": "uint256",
          "name": "orgId",
          "type": "uint256"
        },
        {
          "internalType": "address",
          "name": "_user",
          "type": "address"
        }
      ],
      "name": "organizationAddAdmin",
      "outputs": [],
      "stateMutability": "nonpayable",
      "type": "function"
    },
    {
      "inputs": [
        {
          "internalType": "uint256",
          "name": "orgID",
          "type": "uint256"
        }
      ],
      "name": "getOrganizationName",
      "outputs": [
        {
          "internalType": "string",
          "name": "",
          "type": "string"
        }
      ],
      "stateMutability": "view",
      "type": "function"
    },
    {
      "inputs": [
        {
          "internalType": "uint256",
          "name": "_start",
          "type": "uint256"
        },
        {
          "internalType": "uint256",
          "name": "_end",
          "type": "uint256"
        }
      ],
      "name": "getOrganizationsList",
      "outputs": [
        {
          "components": [
            {
              "internalType": "string",
              "name": "name",
              "type": "string"
            },
            {
              "internalType": "string",
              "name": "description",
              "type": "string"
            },
            {
              "internalType": "string",
              "name": "logoURI",
              "type": "string"
            },
            {
              "internalType": "bool",
              "name": "activ",
              "type": "bool"
            }
          ],
          "internalType": "struct OrganizerHandler.organizationDesc[]",
          "name": "",
          "type": "tuple[]"
        }
      ],
      "stateMutability": "view",
      "type": "function"
    },
    {
      "inputs": [],
      "name": "getOrganisationCount",
      "outputs": [
        {
          "internalType": "uint256",
          "name": "",
          "type": "uint256"
        }
      ],
      "stateMutability": "view",
      "type": "function"
    },
    {
      "inputs": [
        {
          "internalType": "uint256",
          "name": "orgIndx",
          "type": "uint256"
        }
      ],
      "name": "getAdminList",
      "outputs": [
        {
          "internalType": "uint256[]",
          "name": "",
          "type": "uint256[]"
        }
      ],
      "stateMutability": "view",
      "type": "function"
    },
    {
      "inputs": [
        {
          "internalType": "uint256",
          "name": "orgIndx",
          "type": "uint256"
        }
      ],
      "name": "checkorganizerisAdminOf",
      "outputs": [
        {
          "internalType": "bool",
          "name": "",
          "type": "bool"
        }
      ],
      "stateMutability": "view",
      "type": "function"
    },
    {
      "inputs": [
        {
          "internalType": "uint256",
          "name": "organizer",
          "type": "uint256"
        },
        {
          "internalType": "uint256",
          "name": "orgIndx",
          "type": "uint256"
        }
      ],
      "name": "checkorganizerisAdminOf",
      "outputs": [
        {
          "internalType": "bool",
          "name": "",
          "type": "bool"
        }
      ],
      "stateMutability": "view",
      "type": "function"
    },
    {
      "inputs": [
        {
          "internalType": "uint256",
          "name": "id",
          "type": "uint256"
        }
      ],
      "name": "getOrganizerAddressById",
      "outputs": [
        {
          "internalType": "address",
          "name": "",
          "type": "address"
        }
      ],
      "stateMutability": "view",
      "type": "function"
    },
    {
      "inputs": [
        {
          "internalType": "address",
          "name": "_user",
          "type": "address"
        }
      ],
      "name": "getOrganizerOrganisationList",
      "outputs": [
        {
          "internalType": "uint256[]",
          "name": "",
          "type": "uint256[]"
        }
      ],
      "stateMutability": "view",
      "type": "function"
    },
    {
      "inputs": [
        {
          "internalType": "uint256",
          "name": "orgId",
          "type": "uint256"
        }
      ],
      "name": "getEventList",
      "outputs": [
        {
          "internalType": "uint256[]",
          "name": "",
          "type": "uint256[]"
        }
      ],
      "stateMutability": "view",
      "type": "function"
    }
  ],
  "bytecode": "0x608060405234801561001057600080fd5b5061002161001c610026565b61002a565b61007a565b3390565b600080546001600160a01b038381166001600160a01b0319831681178455604051919092169283917f8be0079c531659141344cd1fd0a4f28419497f9722a3daafe3b4186f6b6457e09190a35050565b6117f5806100896000396000f3fe608060405234801561001057600080fd5b50600436106100ba5760003560e01c80635b4c4b20146100bf5780636ccf16b0146100e8578063715018a614610108578063826226bf146101125780638da5cb5b1461013257806391850ab314610147578063b082b9c71461015a578063c46f05b91461016f578063e56afc7514610182578063f2fde38b14610195578063fb87aa42146101a8578063fbcbd067146101bb578063fbf5f199146101ce578063fe4363a3146101e1575b600080fd5b6100d26100cd366004611342565b610201565b6040516100df9190611518565b60405180910390f35b6100fb6100f6366004611342565b6102f1565b6040516100df91906114c9565b61011061037e565b005b610125610120366004611342565b6103c9565b6040516100df919061150d565b61013a610407565b6040516100df91906113f1565b6100fb610155366004611294565b610416565b610162610635565b6040516100df91906116ee565b6100fb61017d366004611342565b61063b565b61011061019036600461135a565b610801565b6101106101a3366004611294565b61094e565b61013a6101b6366004611342565b6109bf565b6101106101c93660046112ae565b610a16565b6101256101dc366004611385565b610b5c565b6101f46101ef366004611385565b610c6d565b6040516100df919061141e565b600354606090821061022e5760405162461bcd60e51b8152600401610225906116c2565b60405180910390fd5b6003828154811061024f57634e487b7160e01b600052603260045260246000fd5b9060005260206000209060060201600201805461026b9061173d565b80601f01602080910402602001604051908101604052809291908181526020018280546102979061173d565b80156102e45780601f106102b9576101008083540402835291602001916102e4565b820191906000526020600020905b8154815290600101906020018083116102c757829003601f168201915b505050505090505b919050565b606060006003838154811061031657634e487b7160e01b600052603260045260246000fd5b906000526020600020906006020160010180548060200260200160405190810160405280929190818152602001828054801561037157602002820191906000526020600020905b81548152602001906001019080831161035d575b5093979650505050505050565b61038661101e565b6001600160a01b0316610397610407565b6001600160a01b0316146103bd5760405162461bcd60e51b81526004016102259061162c565b6103c76000611022565b565b33600090815260026020526040812054806103f65760405162461bcd60e51b81526004016102259061152b565b6104008184610b5c565b9392505050565b6000546001600160a01b031690565b6001600160a01b0381166000908152600260205260409020546060908061044f5760405162461bcd60e51b8152600401610225906115a3565b8061045981611726565b91505060006001828154811061047f57634e487b7160e01b600052603260045260246000fd5b9060005260206000209060040201600201549050600081116104b35760405162461bcd60e51b8152600401610225906115d5565b6000816001600160401b038111156104db57634e487b7160e01b600052604160045260246000fd5b604051908082528060200260200182016040528015610504578160200160208202803683370190505b5090506000805b60035481101561062a5760006001868154811061053857634e487b7160e01b600052603260045260246000fd5b9060005260206000209060040201600101828154811061056857634e487b7160e01b600052603260045260246000fd5b9060005260206000200154111561061857600180868154811061059b57634e487b7160e01b600052603260045260246000fd5b906000526020600020906004020160010182815481106105cb57634e487b7160e01b600052603260045260246000fd5b90600052602060002001546105e0919061170f565b83836105eb81611778565b94508151811061060b57634e487b7160e01b600052603260045260246000fd5b6020026020010181815250505b8061062281611778565b91505061050b565b509095945050505050565b60035490565b600354606090829080821061064f57600080fd5b600061065a85611072565b90506000816001600160401b0381111561068457634e487b7160e01b600052604160045260246000fd5b6040519080825280602002602001820160405280156106ad578160200160208202803683370190505b50905060005b600387815481106106d457634e487b7160e01b600052603260045260246000fd5b60009182526020909120600690910201548110156107f75760006003888154811061070f57634e487b7160e01b600052603260045260246000fd5b9060005260206000209060060201600001828154811061073f57634e487b7160e01b600052603260045260246000fd5b906000526020600020015411156107e55760016003888154811061077357634e487b7160e01b600052603260045260246000fd5b906000526020600020906006020160000182815481106107a357634e487b7160e01b600052603260045260246000fd5b90600052602060002001546107b8919061170f565b8282815181106107d857634e487b7160e01b600052603260045260246000fd5b6020026020010181815250505b806107ef81611778565b9150506106b3565b5095945050505050565b61080961101e565b6001600160a01b031661081a610407565b6001600160a01b0316146108405760405162461bcd60e51b81526004016102259061162c565b806001600160a01b03811661085457600080fd5b60006003848154811061087757634e487b7160e01b600052603260045260246000fd5b600091825260208083206001600160a01b0387168452600290915260409092205460069091029091019150806108bd57634e487b7160e01b600052600160045260246000fd5b600060016108cb818461170f565b815481106108e957634e487b7160e01b600052603260045260246000fd5b906000526020600020906004020190508060010186600161090a91906116f7565b815460018101835560009283526020832001556002820180549161092d83611778565b90915550508254600181018455600093845260209093209092015550505050565b61095661101e565b6001600160a01b0316610967610407565b6001600160a01b03161461098d5760405162461bcd60e51b81526004016102259061162c565b6001600160a01b0381166109b35760405162461bcd60e51b81526004016102259061155d565b6109bc81611022565b50565b60015460009082908082106109d357600080fd5b600184815481106109f457634e487b7160e01b600052603260045260246000fd5b60009182526020909120600490910201546001600160a01b0316949350505050565b836001600160a01b038116610a2a57600080fd5b610a3261101e565b6001600160a01b0316610a43610407565b6001600160a01b031614610a695760405162461bcd60e51b81526004016102259061162c565b600380546001810182556000919091528451600682027fc2575a0e9e593c00f959f8c92f12db2869c3395a3b0502d05e2516446f71f85b810191610ad4917fc2575a0e9e593c00f959f8c92f12db2869c3395a3b0502d05e2516446f71f85d0190602089019061113a565b508451610aea906003830190602088019061113a565b508351610b00906004830190602087019061113a565b5060058101805460ff19166001179055610b1a8288610801565b7fcbbf31cd62dff8d3e3fd3ff1549adbbd47b39c0682301e54af8f3a0ffaade4a38783604051610b4b929190611405565b60405180910390a150505050505050565b6003546000908210610b805760405162461bcd60e51b815260040161022590611692565b600154831115610ba25760405162461bcd60e51b8152600401610225906115fe565b600060038381548110610bc557634e487b7160e01b600052603260045260246000fd5b6000918252602082206006909102015491505b81811015610c60578460038581548110610c0257634e487b7160e01b600052603260045260246000fd5b90600052602060002090600602016000018281548110610c3257634e487b7160e01b600052603260045260246000fd5b90600052602060002001541415610c4e57600192505050610c67565b80610c5881611778565b915050610bd8565b5060009150505b92915050565b60035460609080610c7d57600080fd5b82841115610c8a57600080fd5b6003548410610cab5760405162461bcd60e51b815260040161022590611661565b6003548310610cc657600354610cc39060019061170f565b92505b6000610cd2858561170f565b610cdd9060016116f7565b6001600160401b03811115610d0257634e487b7160e01b600052604160045260246000fd5b604051908082528060200260200182016040528015610d3b57816020015b610d286111be565b815260200190600190039081610d205790505b509050845b84811161101557604051806080016040528060038381548110610d7357634e487b7160e01b600052603260045260246000fd5b90600052602060002090600602016002018054610d8f9061173d565b80601f0160208091040260200160405190810160405280929190818152602001828054610dbb9061173d565b8015610e085780601f10610ddd57610100808354040283529160200191610e08565b820191906000526020600020905b815481529060010190602001808311610deb57829003601f168201915b5050505050815260200160038381548110610e3357634e487b7160e01b600052603260045260246000fd5b90600052602060002090600602016003018054610e4f9061173d565b80601f0160208091040260200160405190810160405280929190818152602001828054610e7b9061173d565b8015610ec85780601f10610e9d57610100808354040283529160200191610ec8565b820191906000526020600020905b815481529060010190602001808311610eab57829003601f168201915b5050505050815260200160038381548110610ef357634e487b7160e01b600052603260045260246000fd5b90600052602060002090600602016004018054610f0f9061173d565b80601f0160208091040260200160405190810160405280929190818152602001828054610f3b9061173d565b8015610f885780601f10610f5d57610100808354040283529160200191610f88565b820191906000526020600020905b815481529060010190602001808311610f6b57829003601f168201915b5050505050815260200160038381548110610fb357634e487b7160e01b600052603260045260246000fd5b600091825260209091206005600690920201015460ff161515905282610fd9888461170f565b81518110610ff757634e487b7160e01b600052603260045260246000fd5b6020026020010181905250808061100d90611778565b915050610d40565b50949350505050565b3390565b600080546001600160a01b038381166001600160a01b0319831681178455604051919092169283917f8be0079c531659141344cd1fd0a4f28419497f9722a3daafe3b4186f6b6457e09190a35050565b600080805b6003848154811061109857634e487b7160e01b600052603260045260246000fd5b600091825260209091206006909102015481101561113357600384815481106110d157634e487b7160e01b600052603260045260246000fd5b9060005260206000209060060201600001818154811061110157634e487b7160e01b600052603260045260246000fd5b9060005260206000200154600014611121578161111d81611778565b9250505b8061112b81611778565b915050611077565b5092915050565b8280546111469061173d565b90600052602060002090601f01602090048101928261116857600085556111ae565b82601f1061118157805160ff19168380011785556111ae565b828001600101855582156111ae579182015b828111156111ae578251825591602001919060010190611193565b506111ba9291506111e8565b5090565b60405180608001604052806060815260200160608152602001606081526020016000151581525090565b5b808211156111ba57600081556001016111e9565b80356001600160a01b03811681146102ec57600080fd5b600082601f830112611224578081fd5b81356001600160401b038082111561123e5761123e6117a9565b604051601f8301601f191681016020018281118282101715611262576112626117a9565b604052828152848301602001861015611279578384fd5b82602086016020830137918201602001929092529392505050565b6000602082840312156112a5578081fd5b610400826111fd565b600080600080608085870312156112c3578283fd5b6112cc856111fd565b935060208501356001600160401b03808211156112e7578485fd5b6112f388838901611214565b94506040870135915080821115611308578384fd5b61131488838901611214565b93506060870135915080821115611329578283fd5b5061133687828801611214565b91505092959194509250565b600060208284031215611353578081fd5b5035919050565b6000806040838503121561136c578182fd5b8235915061137c602084016111fd565b90509250929050565b60008060408385031215611397578182fd5b50508035926020909101359150565b60008151808452815b818110156113cb576020818501810151868301820152016113af565b818111156113dc5782602083870101525b50601f01601f19169290920160200192915050565b6001600160a01b0391909116815260200190565b6001600160a01b03929092168252602082015260400190565b60208082528251828201819052600091906040908185019080840286018301878501865b838110156114bb57603f19898403018552815160808151818652611468828701826113a6565b915050888201518582038a87015261148082826113a6565b915050878201518582038987015261149882826113a6565b606093840151151596909301959095525094870194925090860190600101611442565b509098975050505050505050565b6020808252825182820181905260009190848201906040850190845b81811015611501578351835292840192918401916001016114e5565b50909695505050505050565b901515815260200190565b60006020825261040060208301846113a6565b6020808252601890820152773cb7ba9036bab9ba1031329030b71037b933b0b734bd32b960411b604082015260600190565b60208082526026908201527f4f776e61626c653a206e6577206f776e657220697320746865207a65726f206160408201526564647265737360d01b606082015260800190565b6020808252601890820152773ab9b2b91034b9903737ba1030b71037b933b0b734bd32b960411b604082015260600190565b6020808252600f908201526e37379039bab139b1b934b83a34b7b760891b604082015260600190565b60208082526014908201527313dc99d85b9a5e995c88125b9d985b1a5908125960621b604082015260600190565b6020808252818101527f4f776e61626c653a2063616c6c6572206973206e6f7420746865206f776e6572604082015260600190565b6020808252601790820152765374617274496e646578206f7574206f662072616e676560481b604082015260600190565b60208082526016908201527513dc99d85b9a5e985d1a5bdb881b9bdd08199bdd5b9960521b604082015260600190565b6020808252601290820152716f72674944206f7574206f662072616e676560701b604082015260600190565b90815260200190565b6000821982111561170a5761170a611793565b500190565b60008282101561172157611721611793565b500390565b60008161173557611735611793565b506000190190565b60028104600182168061175157607f821691505b6020821081141561177257634e487b7160e01b600052602260045260246000fd5b50919050565b600060001982141561178c5761178c611793565b5060010190565b634e487b7160e01b600052601160045260246000fd5b634e487b7160e01b600052604160045260246000fdfea264697066735822122054c1dbe91742fbf72c5cd9e59fb737642f5f684b5311b4ca71141ca1417f78d164736f6c63430008000033",
  "immutableReferences": {},
  "source": "// SPDX-License-Identifier: MIT\r\npragma solidity ^0.8;\r\nimport \"@openzeppelin/contracts/access/Ownable.sol\";\r\n\r\n// The structure that handles the organization, organizers and admins\r\ncontract OrganizerHandler is Ownable {\r\n\t// An organizer is an admin of an organization\r\n\tstruct Organizer {\r\n\t\taddress _user;\r\n\t\tuint256[] organizationList; // id of orgs users subscribed to (id+1)\r\n\t\tuint256 nbActivOganization; // number of orgsid != 0\r\n\t\tbool activ;\r\n\t}\r\n\r\n\t// an Organization is a strucure that can create events\r\n\tstruct Organization {\r\n\t\tuint256[] adminList;\r\n\t\tuint256[] EventList;\r\n\t\tstring name;\r\n\t\tstring description;\r\n\t\tstring logoURI;\r\n\t\tbool activ;\r\n\t}\r\n\r\n\tOrganizer[] organizerList; // List of organizers\r\n\tmapping(address => uint256) organizerByAddress;\r\n\r\n\tOrganization[] organizationList; // List of organization\r\n\r\n\t// Modifiers ----------------------------\r\n\tmodifier isNotNull(address a) virtual {\r\n\t\trequire(a != address(0));\r\n\t\t_;\r\n\t}\r\n\tmodifier isNotNullUint256(uint256 a) virtual {\r\n\t\trequire(a != 0);\r\n\t\t_;\r\n\t}\r\n\tmodifier isLowerThanUint256(uint256 a, uint256 b) virtual {\r\n\t\trequire(a < b);\r\n\t\t_;\r\n\t}\r\n\r\n\t// Events --------------------------------\r\n\r\n\tevent OrganizerAdded(address _user, uint256 indx);\r\n\tevent OganizationAdded(address _user, uint256 indx);\r\n\r\n\t// Methods -------------------------------\r\n\t// Methods -------------------------------\r\n\t///@dev add an organizer to the list of organizers\r\n\t///@param _user address of the organizer\r\n\tfunction addOrganizer(address _user) internal onlyOwner isNotNull(_user) {\r\n\t\tuint256 indx = organizerList.length;\r\n\t\tOrganizer storage _organizer = organizerList.push();\r\n\t\t_organizer._user = _user;\r\n\t\t_organizer.activ = true;\r\n\t\torganizerByAddress[_user] = indx + 1;\r\n\r\n\t\temit OrganizerAdded(_user, indx);\r\n\t}\r\n\r\n\t// Methods -------------------------------\r\n\t///@dev add an organization to the list of orgs\r\n\t///@param _user admin of the organization\r\n\t///@param _name UI dislay name\r\n\t///@param _description UI description text\r\n\t///@param _logoURI Link to the icon lo\t\tuser.organizationState[orgId] = true;\r\n\r\n\tfunction addOrganization(\r\n\t\taddress _user,\r\n\t\tstring memory _name,\r\n\t\tstring memory _description,\r\n\t\tstring memory _logoURI\r\n\t) public isNotNull(_user) onlyOwner {\r\n\t\tuint256 indx = organizationList.length;\r\n\t\tOrganization storage _org = organizationList.push();\r\n\t\t_org.name = _name;\r\n\t\t_org.description = _description;\r\n\t\t_org.logoURI = _logoURI;\r\n\t\t_org.activ = true;\r\n\t\torganizationAddAdmin(indx, _user);\r\n\r\n\t\temit OganizationAdded(_user, indx);\r\n\t}\r\n\r\n\t///@dev add an admin to an org.\r\n\t///@param _user admin of the organizatio\r\n\t///@param orgId id of the organization\r\n\tfunction organizationAddAdmin(uint256 orgId, address _user)\r\n\t\tpublic\r\n\t\tonlyOwner\r\n\t\tisNotNull(_user)\r\n\t{\r\n\t\tOrganization storage org = organizationList[orgId];\r\n\t\tuint256 usrIndex = organizerByAddress[_user];\r\n\t\tassert(usrIndex != 0);\r\n\t\tOrganizer storage user = organizerList[usrIndex - 1];\r\n\r\n\t\t// register in the Organizer struct\r\n\t\tuser.organizationList.push(orgId + 1);\r\n\t\tuser.nbActivOganization++;\r\n\r\n\t\t// register in the Organization struct index 0 is used to remove a user from a list\r\n\t\torg.adminList.push(usrIndex);\r\n\t}\r\n\r\n\t// Exposing data to the outside ---\r\n\r\n\tfunction getOrganizationName(uint256 orgID)\r\n\t\tpublic\r\n\t\tview\r\n\t\treturns (string memory)\r\n\t{\r\n\t\trequire(orgID < organizationList.length, \"orgID out of range\");\r\n\t\treturn organizationList[orgID].name;\r\n\t}\r\n\r\n\t// Simplified struct used for viewing the internal states\r\n\tstruct organizationDesc {\r\n\t\tstring name;\r\n\t\tstring description;\r\n\t\tstring logoURI;\r\n\t\tbool activ;\r\n\t}\r\n\r\n\t///@dev returns the list of organization : they may be inactive, must test activ value\r\n\t///@param _start starting index amoung organizations\r\n\t///@param _end ending index amoung ogranizations\r\n\tfunction getOrganizationsList(uint256 _start, uint256 _end)\r\n\t\tpublic\r\n\t\tview\r\n\t\tisNotNullUint256(organizationList.length)\r\n\t\treturns (organizationDesc[] memory)\r\n\t{\r\n\t\trequire(_start <= _end); // check params\r\n\t\trequire(_start < organizationList.length, \"StartIndex out of range\");\r\n\r\n\t\t// we adjust the ending value\r\n\t\tif (_end >= organizationList.length) _end = organizationList.length - 1;\r\n\r\n\t\t// creat an array for returning only usefull values\r\n\t\torganizationDesc[] memory _desc = new organizationDesc[](\r\n\t\t\t_end - _start + 1\r\n\t\t);\r\n\r\n\t\t// Fill the structure\r\n\t\tuint256 x = _start;\r\n\t\twhile (x <= _end) {\r\n\t\t\t_desc[x - _start] = organizationDesc({\r\n\t\t\t\tname: organizationList[x].name,\r\n\t\t\t\tdescription: organizationList[x].description,\r\n\t\t\t\tlogoURI: organizationList[x].logoURI,\r\n\t\t\t\tactiv: organizationList[x].activ\r\n\t\t\t});\r\n\r\n\t\t\tx++;\r\n\t\t}\r\n\t\treturn _desc;\r\n\t}\r\n\r\n\t///@dev returns the number of Organizations\r\n\tfunction getOrganisationCount() public view returns (uint256) {\r\n\t\treturn organizationList.length;\r\n\t}\r\n\r\n\t///@dev returns the count of activ admin\r\n\t///@param orgIndx count the number\r\n\tfunction getActivAdminCount(uint256 orgIndx)\r\n\t\tinternal\r\n\t\tview\r\n\t\treturns (uint256)\r\n\t{\r\n\t\tuint256 count = 0;\r\n\t\tfor (uint256 x = 0; x < organizationList[orgIndx].adminList.length; x++)\r\n\t\t\tif (organizationList[orgIndx].adminList[x] != 0) count++;\r\n\r\n\t\treturn count;\r\n\t}\r\n\r\n\t///@dev returns the list activ admin of an organisation\r\n\t///@param orgIndx  index amoung organizations\r\n\tfunction getAdminList(uint256 orgIndx)\r\n\t\tpublic\r\n\t\tview\r\n\t\tisLowerThanUint256(orgIndx, organizationList.length)\r\n\t\treturns (uint256[] memory)\r\n\t{\r\n\t\tuint256 size = getActivAdminCount(orgIndx);\r\n\r\n\t\tuint256[] memory list = new uint256[](size);\r\n\t\tfor (uint256 x = 0; x < organizationList[orgIndx].adminList.length; x++)\r\n\t\t\tif (organizationList[orgIndx].adminList[x] > 0)\r\n\t\t\t\tlist[x] = organizationList[orgIndx].adminList[x] - 1;\r\n\t\treturn list;\r\n\t}\r\n\r\n\t///@dev returns true if the user is admin of the organization\r\n\t///@param organizer  index amoung organizers\r\n\t///@param orgIndx  index amoung organizations\r\n\tfunction checkorganizerisAdminOf(uint256 organizer, uint256 orgIndx)\r\n\t\tpublic\r\n\t\tview\r\n\t\treturns (bool)\r\n\t{\r\n\t\trequire(orgIndx < organizationList.length, \"Organization not found\");\r\n\t\trequire(organizer <= organizerList.length, \"Organizer Invalid Id\");\r\n\t\tuint256 maxL = organizationList[orgIndx].adminList.length;\r\n\r\n\t\tfor (uint256 i = 0; i < maxL; i++) {\r\n\t\t\tif (organizationList[orgIndx].adminList[i] == organizer)\r\n\t\t\t\treturn true;\r\n\t\t}\r\n\t\treturn false;\r\n\t}\r\n\r\n\t///@dev returns true if the user is admin of the organization\r\n\t///@param orgIndx  index amoung organizations\r\n\tfunction checkorganizerisAdminOf(uint256 orgIndx)\r\n\t\tpublic\r\n\t\tview\r\n\t\treturns (bool)\r\n\t{\r\n\t\tuint256 organizerId = organizerByAddress[msg.sender];\r\n\t\trequire(organizerId > 0, \"you must be an organizer\");\r\n\t\treturn checkorganizerisAdminOf(organizerId, orgIndx);\r\n\t}\r\n\r\n\t///@dev returns the address of an admin, given an id organizer\r\n\t///@param id  id (=index) of the organizer\r\n\tfunction getOrganizerAddressById(uint256 id)\r\n\t\tpublic\r\n\t\tview\r\n\t\tisLowerThanUint256(id, organizerList.length)\r\n\t\treturns (address)\r\n\t{\r\n\t\treturn organizerList[id]._user;\r\n\t}\r\n\r\n\t///@dev returns the list of organization the organizer subscribed to\r\n\t///@param _user  address of the user\r\n\tfunction getOrganizerOrganisationList(address _user)\r\n\t\tpublic\r\n\t\tview\r\n\t\treturns (uint256[] memory)\r\n\t{\r\n\t\t// We make sure the provided addess is correct\r\n\t\tuint256 indx = organizerByAddress[_user];\r\n\t\trequire(indx != 0, \"user is not an organizer\");\r\n\t\tindx--; // Now that we have checked, we get the correct iD\r\n\t\tuint256 size = organizerList[indx].nbActivOganization;\r\n\r\n\t\t// we stop if no subscription\r\n\t\trequire(size > 0, \"no subscription\");\r\n\r\n\t\t// Create and fill returnable array\r\n\t\tuint256[] memory result = new uint256[](size);\r\n\t\tuint256 increment = 0;\r\n\t\tfor (uint256 x = 0; x < organizationList.length; x++) {\r\n\t\t\tif (organizerList[indx].organizationList[x] > 0) {\r\n\t\t\t\tresult[increment++] =\r\n\t\t\t\t\torganizerList[indx].organizationList[x] -\r\n\t\t\t\t\t1;\r\n\t\t\t}\r\n\t\t}\r\n\t\treturn result;\r\n\t}\r\n\r\n\tevent organizerAddedEvent();\r\n\r\n\tfunction organizerAddEvent(\r\n\t\tuint256 organizerID,\r\n\t\tuint256 organizationId,\r\n\t\tuint256 eventID\r\n\t) internal {\r\n\t\trequire(organizerID <= organizerList.length, \"wrong Id\");\r\n\r\n\t\torganizationList[organizationId].EventList.push(eventID);\r\n\t\temit organizerAddedEvent();\r\n\t}\r\n\r\n\t///@dev return the list of events associated to an organization\r\n\t///@param orgId id of the org\r\n\tfunction getEventList(uint256 orgId)\r\n\t\tpublic\r\n\t\tview\r\n\t\treturns (uint256[] memory)\r\n\t{\r\n\t\tuint256[] memory EventList = organizationList[orgId].EventList;\r\n\t\treturn EventList;\r\n\t}\r\n}\r\n",
  "sourcePath": "C:\\DEV\\ETH\\Alyra\\MedalVerse\\MedalVerse-Front\\contracts\\Dapp Internal Struct\\OrganizerHandler.sol",
  "compiler": {
    "name": "solc",
    "version": "0.8.0+commit.c7dfd78e.Emscripten.clang"
  },
  "schemaVersion": "3.4.4",
  "updatedAt": "2022-01-12T09:39:25.166Z",
  "devdoc": {
    "kind": "dev",
    "methods": {
      "addOrganization(address,string,string,string)": {
        "details": "add an organization to the list of orgs",
        "params": {
          "_description": "UI description text",
          "_logoURI": "Link to the icon lo\t\tuser.organizationState[orgId] = true;",
          "_name": "UI dislay name",
          "_user": "admin of the organization"
        }
      },
      "checkorganizerisAdminOf(uint256)": {
        "details": "returns true if the user is admin of the organization",
        "params": {
          "orgIndx": "index amoung organizations"
        }
      },
      "checkorganizerisAdminOf(uint256,uint256)": {
        "details": "returns true if the user is admin of the organization",
        "params": {
          "orgIndx": "index amoung organizations",
          "organizer": "index amoung organizers"
        }
      },
      "getAdminList(uint256)": {
        "details": "returns the list activ admin of an organisation",
        "params": {
          "orgIndx": "index amoung organizations"
        }
      },
      "getEventList(uint256)": {
        "details": "return the list of events associated to an organization",
        "params": {
          "orgId": "id of the org"
        }
      },
      "getOrganisationCount()": {
        "details": "returns the number of Organizations"
      },
      "getOrganizationsList(uint256,uint256)": {
        "details": "returns the list of organization : they may be inactive, must test activ value",
        "params": {
          "_end": "ending index amoung ogranizations",
          "_start": "starting index amoung organizations"
        }
      },
      "getOrganizerAddressById(uint256)": {
        "details": "returns the address of an admin, given an id organizer",
        "params": {
          "id": "id (=index) of the organizer"
        }
      },
      "getOrganizerOrganisationList(address)": {
        "details": "returns the list of organization the organizer subscribed to",
        "params": {
          "_user": "address of the user"
        }
      },
      "organizationAddAdmin(uint256,address)": {
        "details": "add an admin to an org.",
        "params": {
          "_user": "admin of the organizatio",
          "orgId": "id of the organization"
        }
      },
      "owner()": {
        "details": "Returns the address of the current owner."
      },
      "renounceOwnership()": {
        "details": "Leaves the contract without owner. It will not be possible to call `onlyOwner` functions anymore. Can only be called by the current owner. NOTE: Renouncing ownership will leave the contract without an owner, thereby removing any functionality that is only available to the owner."
      },
      "transferOwnership(address)": {
        "details": "Transfers ownership of the contract to a new account (`newOwner`). Can only be called by the current owner."
      }
    },
    "version": 1
  },
  "userdoc": {
    "kind": "user",
    "methods": {},
    "version": 1
  }
}