{
  "contractName": "OrganizerHandler",
  "abi": [
    {
      "anonymous": false,
      "inputs": [
        {
          "indexed": false,
          "internalType": "address",
          "name": "_user",
          "type": "address"
        },
        {
          "indexed": false,
          "internalType": "uint256",
          "name": "indx",
          "type": "uint256"
        }
      ],
      "name": "OganizationAdded",
      "type": "event"
    },
    {
      "anonymous": false,
      "inputs": [
        {
          "indexed": false,
          "internalType": "address",
          "name": "_user",
          "type": "address"
        },
        {
          "indexed": false,
          "internalType": "uint256",
          "name": "indx",
          "type": "uint256"
        }
      ],
      "name": "OrganizerAdded",
      "type": "event"
    },
    {
      "anonymous": false,
      "inputs": [
        {
          "indexed": true,
          "internalType": "address",
          "name": "previousOwner",
          "type": "address"
        },
        {
          "indexed": true,
          "internalType": "address",
          "name": "newOwner",
          "type": "address"
        }
      ],
      "name": "OwnershipTransferred",
      "type": "event"
    },
    {
      "anonymous": false,
      "inputs": [],
      "name": "organizerAddedEvent",
      "type": "event"
    },
    {
      "inputs": [],
      "name": "owner",
      "outputs": [
        {
          "internalType": "address",
          "name": "",
          "type": "address"
        }
      ],
      "stateMutability": "view",
      "type": "function"
    },
    {
      "inputs": [],
      "name": "renounceOwnership",
      "outputs": [],
      "stateMutability": "nonpayable",
      "type": "function"
    },
    {
      "inputs": [
        {
          "internalType": "address",
          "name": "newOwner",
          "type": "address"
        }
      ],
      "name": "transferOwnership",
      "outputs": [],
      "stateMutability": "nonpayable",
      "type": "function"
    },
    {
      "inputs": [
        {
          "internalType": "address",
          "name": "_user",
          "type": "address"
        },
        {
          "internalType": "string",
          "name": "_name",
          "type": "string"
        },
        {
          "internalType": "string",
          "name": "_description",
          "type": "string"
        },
        {
          "internalType": "string",
          "name": "_logoURI",
          "type": "string"
        }
      ],
      "name": "addOrganization",
      "outputs": [],
      "stateMutability": "nonpayable",
      "type": "function"
    },
    {
      "inputs": [
        {
          "internalType": "uint256",
          "name": "orgId",
          "type": "uint256"
        },
        {
          "internalType": "address",
          "name": "_user",
          "type": "address"
        }
      ],
      "name": "organizationAddAdmin",
      "outputs": [],
      "stateMutability": "nonpayable",
      "type": "function"
    },
    {
      "inputs": [
        {
          "internalType": "uint256",
          "name": "orgID",
          "type": "uint256"
        }
      ],
      "name": "getOrganizationName",
      "outputs": [
        {
          "internalType": "string",
          "name": "",
          "type": "string"
        }
      ],
      "stateMutability": "view",
      "type": "function"
    },
    {
      "inputs": [
        {
          "internalType": "uint256",
          "name": "_start",
          "type": "uint256"
        },
        {
          "internalType": "uint256",
          "name": "_end",
          "type": "uint256"
        }
      ],
      "name": "getOrganizationsList",
      "outputs": [
        {
          "components": [
            {
              "internalType": "string",
              "name": "name",
              "type": "string"
            },
            {
              "internalType": "string",
              "name": "description",
              "type": "string"
            },
            {
              "internalType": "string",
              "name": "logoURI",
              "type": "string"
            }
          ],
          "internalType": "struct OrganizerHandler.organizationDesc[]",
          "name": "",
          "type": "tuple[]"
        }
      ],
      "stateMutability": "view",
      "type": "function"
    },
    {
      "inputs": [
        {
          "internalType": "uint256",
          "name": "orgIndx",
          "type": "uint256"
        }
      ],
      "name": "getAdminList",
      "outputs": [
        {
          "internalType": "uint256[]",
          "name": "",
          "type": "uint256[]"
        }
      ],
      "stateMutability": "view",
      "type": "function"
    },
    {
      "inputs": [
        {
          "internalType": "uint256",
          "name": "orgIndx",
          "type": "uint256"
        }
      ],
      "name": "checkorganizerisAdminOf",
      "outputs": [
        {
          "internalType": "bool",
          "name": "",
          "type": "bool"
        }
      ],
      "stateMutability": "view",
      "type": "function"
    },
    {
      "inputs": [
        {
          "internalType": "uint256",
          "name": "organizer",
          "type": "uint256"
        },
        {
          "internalType": "uint256",
          "name": "orgIndx",
          "type": "uint256"
        }
      ],
      "name": "checkorganizerisAdminOf",
      "outputs": [
        {
          "internalType": "bool",
          "name": "",
          "type": "bool"
        }
      ],
      "stateMutability": "view",
      "type": "function"
    },
    {
      "inputs": [
        {
          "internalType": "uint256",
          "name": "id",
          "type": "uint256"
        }
      ],
      "name": "getOrganizerAddressById",
      "outputs": [
        {
          "internalType": "address",
          "name": "",
          "type": "address"
        }
      ],
      "stateMutability": "view",
      "type": "function"
    },
    {
      "inputs": [
        {
          "internalType": "address",
          "name": "_user",
          "type": "address"
        }
      ],
      "name": "getOrganizerOrganisationList",
      "outputs": [
        {
          "internalType": "uint256[]",
          "name": "",
          "type": "uint256[]"
        }
      ],
      "stateMutability": "view",
      "type": "function"
    },
    {
      "inputs": [
        {
          "internalType": "uint256",
          "name": "orgId",
          "type": "uint256"
        }
      ],
      "name": "getEventList",
      "outputs": [
        {
          "internalType": "uint256[]",
          "name": "",
          "type": "uint256[]"
        }
      ],
      "stateMutability": "view",
      "type": "function"
    }
  ],
  "bytecode": "0x608060405234801561001057600080fd5b5061002161001c610026565b61002a565b61007a565b3390565b600080546001600160a01b038381166001600160a01b0319831681178455604051919092169283917f8be0079c531659141344cd1fd0a4f28419497f9722a3daafe3b4186f6b6457e09190a35050565b611699806100896000396000f3fe608060405234801561001057600080fd5b50600436106100af5760003560e01c80635b4c4b20146100b45780636ccf16b0146100dd578063715018a6146100fd578063826226bf146101075780638da5cb5b1461012757806391850ab31461013c578063c46f05b91461014f578063e56afc7514610162578063f2fde38b14610175578063fb87aa4214610188578063fbcbd0671461019b578063fbf5f199146101ae578063fe4363a3146101c1575b600080fd5b6100c76100c23660046112c8565b6101e1565b6040516100d49190611491565b60405180910390f35b6100f06100eb3660046112c8565b6102d1565b6040516100d49190611442565b61010561035e565b005b61011a6101153660046112c8565b6103a9565b6040516100d49190611486565b61012f6103e7565b6040516100d49190611377565b6100f061014a36600461121a565b6103f6565b6100f061015d3660046112c8565b610615565b6101056101703660046112e0565b6107db565b61010561018336600461121a565b610928565b61012f6101963660046112c8565b610999565b6101056101a9366004611234565b6109f0565b61011a6101bc36600461130b565b610b27565b6101d46101cf36600461130b565b610c38565b6040516100d491906113a4565b600354606090821061020e5760405162461bcd60e51b81526004016102059061157c565b60405180910390fd5b6003828154811061022f57634e487b7160e01b600052603260045260246000fd5b9060005260206000209060050201600201805461024b906115e1565b80601f0160208091040260200160405190810160405280929190818152602001828054610277906115e1565b80156102c45780601f10610299576101008083540402835291602001916102c4565b820191906000526020600020905b8154815290600101906020018083116102a757829003601f168201915b505050505090505b919050565b60606000600383815481106102f657634e487b7160e01b600052603260045260246000fd5b906000526020600020906005020160010180548060200260200160405190810160405280929190818152602001828054801561035157602002820191906000526020600020905b81548152602001906001019080831161033d575b5093979650505050505050565b610366610fad565b6001600160a01b03166103776103e7565b6001600160a01b03161461039d5760405162461bcd60e51b815260040161020590611547565b6103a76000610fb1565b565b33600090815260026020526040812054806103d65760405162461bcd60e51b815260040161020590611509565b6103e08184610b27565b9392505050565b6000546001600160a01b031690565b6001600160a01b0381166000908152600260205260409020546060908061042f5760405162461bcd60e51b815260040161020590611509565b80610439816115ca565b91505060006001828154811061045f57634e487b7160e01b600052603260045260246000fd5b9060005260206000209060040201600201549050600081116104935760405162461bcd60e51b815260040161020590611528565b6000816001600160401b038111156104bb57634e487b7160e01b600052604160045260246000fd5b6040519080825280602002602001820160405280156104e4578160200160208202803683370190505b5090506000805b60035481101561060a5760006001868154811061051857634e487b7160e01b600052603260045260246000fd5b9060005260206000209060040201600101828154811061054857634e487b7160e01b600052603260045260246000fd5b906000526020600020015411156105f857600180868154811061057b57634e487b7160e01b600052603260045260246000fd5b906000526020600020906004020160010182815481106105ab57634e487b7160e01b600052603260045260246000fd5b90600052602060002001546105c091906115b3565b83836105cb8161161c565b9450815181106105eb57634e487b7160e01b600052603260045260246000fd5b6020026020010181815250505b806106028161161c565b9150506104eb565b509095945050505050565b600354606090829080821061062957600080fd5b600061063485611001565b90506000816001600160401b0381111561065e57634e487b7160e01b600052604160045260246000fd5b604051908082528060200260200182016040528015610687578160200160208202803683370190505b50905060005b600387815481106106ae57634e487b7160e01b600052603260045260246000fd5b60009182526020909120600590910201548110156107d1576000600388815481106106e957634e487b7160e01b600052603260045260246000fd5b9060005260206000209060050201600001828154811061071957634e487b7160e01b600052603260045260246000fd5b906000526020600020015411156107bf5760016003888154811061074d57634e487b7160e01b600052603260045260246000fd5b9060005260206000209060050201600001828154811061077d57634e487b7160e01b600052603260045260246000fd5b906000526020600020015461079291906115b3565b8282815181106107b257634e487b7160e01b600052603260045260246000fd5b6020026020010181815250505b806107c98161161c565b91505061068d565b5095945050505050565b6107e3610fad565b6001600160a01b03166107f46103e7565b6001600160a01b03161461081a5760405162461bcd60e51b815260040161020590611547565b806001600160a01b03811661082e57600080fd5b60006003848154811061085157634e487b7160e01b600052603260045260246000fd5b600091825260208083206001600160a01b03871684526002909152604090922054600590910290910191508061089757634e487b7160e01b600052600160045260246000fd5b600060016108a581846115b3565b815481106108c357634e487b7160e01b600052603260045260246000fd5b90600052602060002090600402019050806001018660016108e4919061159b565b81546001810183556000928352602083200155600282018054916109078361161c565b90915550508254600181018455600093845260209093209092015550505050565b610930610fad565b6001600160a01b03166109416103e7565b6001600160a01b0316146109675760405162461bcd60e51b815260040161020590611547565b6001600160a01b03811661098d5760405162461bcd60e51b8152600401610205906114a4565b61099681610fb1565b50565b60015460009082908082106109ad57600080fd5b600184815481106109ce57634e487b7160e01b600052603260045260246000fd5b60009182526020909120600490910201546001600160a01b0316949350505050565b836001600160a01b038116610a0457600080fd5b610a0c610fad565b6001600160a01b0316610a1d6103e7565b6001600160a01b031614610a435760405162461bcd60e51b815260040161020590611547565b600380546001810182556000919091528451600582027fc2575a0e9e593c00f959f8c92f12db2869c3395a3b0502d05e2516446f71f85b810191610aae917fc2575a0e9e593c00f959f8c92f12db2869c3395a3b0502d05e2516446f71f85d019060208901906110c9565b508451610ac490600383019060208801906110c9565b508351610ada90600483019060208701906110c9565b50610ae582886107db565b7fcbbf31cd62dff8d3e3fd3ff1549adbbd47b39c0682301e54af8f3a0ffaade4a38783604051610b1692919061138b565b60405180910390a150505050505050565b6003546000908210610b4b5760405162461bcd60e51b8152600401610205906114ea565b600154831115610b6d5760405162461bcd60e51b81526004016102059061157c565b600060038381548110610b9057634e487b7160e01b600052603260045260246000fd5b6000918252602082206005909102015491505b81811015610c2b578460038581548110610bcd57634e487b7160e01b600052603260045260246000fd5b90600052602060002090600502016000018281548110610bfd57634e487b7160e01b600052603260045260246000fd5b90600052602060002001541415610c1957600192505050610c32565b80610c238161161c565b915050610ba3565b5060009150505b92915050565b60035460609080610c4857600080fd5b82841115610c5557600080fd5b6003548410610c765760405162461bcd60e51b81526004016102059061157c565b6003548310610c9157600354610c8e906001906115b3565b92505b6000610c9d85856115b3565b610ca890600161159b565b6001600160401b03811115610ccd57634e487b7160e01b600052604160045260246000fd5b604051908082528060200260200182016040528015610d0657816020015b610cf361114d565b815260200190600190039081610ceb5790505b509050845b848111610fa457604051806060016040528060038381548110610d3e57634e487b7160e01b600052603260045260246000fd5b90600052602060002090600502016002018054610d5a906115e1565b80601f0160208091040260200160405190810160405280929190818152602001828054610d86906115e1565b8015610dd35780601f10610da857610100808354040283529160200191610dd3565b820191906000526020600020905b815481529060010190602001808311610db657829003601f168201915b5050505050815260200160038381548110610dfe57634e487b7160e01b600052603260045260246000fd5b90600052602060002090600502016003018054610e1a906115e1565b80601f0160208091040260200160405190810160405280929190818152602001828054610e46906115e1565b8015610e935780601f10610e6857610100808354040283529160200191610e93565b820191906000526020600020905b815481529060010190602001808311610e7657829003601f168201915b5050505050815260200160038381548110610ebe57634e487b7160e01b600052603260045260246000fd5b90600052602060002090600502016004018054610eda906115e1565b80601f0160208091040260200160405190810160405280929190818152602001828054610f06906115e1565b8015610f535780601f10610f2857610100808354040283529160200191610f53565b820191906000526020600020905b815481529060010190602001808311610f3657829003601f168201915b5050505050815250828783610f6891906115b3565b81518110610f8657634e487b7160e01b600052603260045260246000fd5b60200260200101819052508080610f9c9061161c565b915050610d0b565b50949350505050565b3390565b600080546001600160a01b038381166001600160a01b0319831681178455604051919092169283917f8be0079c531659141344cd1fd0a4f28419497f9722a3daafe3b4186f6b6457e09190a35050565b600080805b6003848154811061102757634e487b7160e01b600052603260045260246000fd5b60009182526020909120600590910201548110156110c2576003848154811061106057634e487b7160e01b600052603260045260246000fd5b9060005260206000209060050201600001818154811061109057634e487b7160e01b600052603260045260246000fd5b90600052602060002001546000146110b057816110ac8161161c565b9250505b806110ba8161161c565b915050611006565b5092915050565b8280546110d5906115e1565b90600052602060002090601f0160209004810192826110f7576000855561113d565b82601f1061111057805160ff191683800117855561113d565b8280016001018555821561113d579182015b8281111561113d578251825591602001919060010190611122565b5061114992915061116e565b5090565b60405180606001604052806060815260200160608152602001606081525090565b5b80821115611149576000815560010161116f565b80356001600160a01b03811681146102cc57600080fd5b600082601f8301126111aa578081fd5b81356001600160401b03808211156111c4576111c461164d565b604051601f8301601f1916810160200182811182821017156111e8576111e861164d565b6040528281528483016020018610156111ff578384fd5b82602086016020830137918201602001929092529392505050565b60006020828403121561122b578081fd5b6103e082611183565b60008060008060808587031215611249578283fd5b61125285611183565b935060208501356001600160401b038082111561126d578485fd5b6112798883890161119a565b9450604087013591508082111561128e578384fd5b61129a8883890161119a565b935060608701359150808211156112af578283fd5b506112bc8782880161119a565b91505092959194509250565b6000602082840312156112d9578081fd5b5035919050565b600080604083850312156112f2578182fd5b8235915061130260208401611183565b90509250929050565b6000806040838503121561131d578182fd5b50508035926020909101359150565b60008151808452815b8181101561135157602081850181015186830182015201611335565b818111156113625782602083870101525b50601f01601f19169290920160200192915050565b6001600160a01b0391909116815260200190565b6001600160a01b03929092168252602082015260400190565b60208082528251828201819052600091906040908185019080840286018301878501865b8381101561143457603f198984030185528151606081518186526113ee8287018261132c565b915050888201518582038a870152611406828261132c565b91505087820151915084810388860152611420818361132c565b9689019694505050908601906001016113c8565b509098975050505050505050565b6020808252825182820181905260009190848201906040850190845b8181101561147a5783518352928401929184019160010161145e565b50909695505050505050565b901515815260200190565b6000602082526103e0602083018461132c565b60208082526026908201527f4f776e61626c653a206e6577206f776e657220697320746865207a65726f206160408201526564647265737360d01b606082015260800190565b6020808252600590820152644552525f3560d81b604082015260600190565b60208082526005908201526422a9292f9b60d91b604082015260600190565b6020808252600590820152644552525f3760d81b604082015260600190565b6020808252818101527f4f776e61626c653a2063616c6c6572206973206e6f7420746865206f776e6572604082015260600190565b6020808252600590820152644552525f3160d81b604082015260600190565b600082198211156115ae576115ae611637565b500190565b6000828210156115c5576115c5611637565b500390565b6000816115d9576115d9611637565b506000190190565b6002810460018216806115f557607f821691505b6020821081141561161657634e487b7160e01b600052602260045260246000fd5b50919050565b600060001982141561163057611630611637565b5060010190565b634e487b7160e01b600052601160045260246000fd5b634e487b7160e01b600052604160045260246000fdfea264697066735822122027bb55c4b8c1a505b18f21ef92f4df2063fc870891e09d02112e990c6090341e64736f6c63430008000033",
  "immutableReferences": {},
  "source": "// SPDX-License-Identifier: MIT\npragma solidity ^0.8;\nimport \"@openzeppelin/contracts/access/Ownable.sol\";\n\n// The structure that handles the organization, organizers and admins\ncontract OrganizerHandler is Ownable {\n\t// An organizer is an admin of an organization\n\tstruct Organizer {\n\t\taddress _user;\n\t\tuint256[] organizationList; // id of orgs users subscribed to (id+1)\n\t\tuint256 nbActivOganization; // number of orgsid != 0\n\t\tbool activ;\n\t}\n\n\t// an Organization is a strucure that can create events\n\tstruct Organization {\n\t\tuint256[] adminList;\n\t\tuint256[] EventList;\n\t\tstring name;\n\t\tstring description;\n\t\tstring logoURI;\n\t}\n\n\tOrganizer[] organizerList; // List of organizers\n\tmapping(address => uint256) organizerByAddress;\n\n\tOrganization[] organizationList; // List of organization\n\n\t// Modifiers ----------------------------\n\tmodifier isNotNull(address a) virtual {\n\t\trequire(a != address(0));\n\t\t_;\n\t}\n\tmodifier isNotNullUint256(uint256 a) virtual {\n\t\trequire(a != 0);\n\t\t_;\n\t}\n\tmodifier isLowerThanUint256(uint256 a, uint256 b) virtual {\n\t\trequire(a < b);\n\t\t_;\n\t}\n\n\t// Events --------------------------------\n\n\tevent OrganizerAdded(address _user, uint256 indx);\n\tevent OganizationAdded(address _user, uint256 indx);\n\n\t// Methods -------------------------------\n\t// Methods -------------------------------\n\t///@dev add an organizer to the list of organizers\n\t///@param _user address of the organizer\n\tfunction addOrganizer(address _user) internal onlyOwner isNotNull(_user) {\n\t\tuint256 indx = organizerList.length;\n\t\tOrganizer storage _organizer = organizerList.push();\n\t\t_organizer._user = _user;\n\t\t_organizer.activ = true;\n\t\torganizerByAddress[_user] = indx + 1;\n\n\t\temit OrganizerAdded(_user, indx);\n\t}\n\n\t// Methods -------------------------------\n\t///@dev add an organization to the list of orgs\n\t///@param _user admin of the organization\n\t///@param _name UI dislay name\n\t///@param _description UI description text\n\t///@param _logoURI Link to the icon lo\t\tuser.organizationState[orgId] = true;\n\n\tfunction addOrganization(\n\t\taddress _user,\n\t\tstring memory _name,\n\t\tstring memory _description,\n\t\tstring memory _logoURI\n\t) external isNotNull(_user) onlyOwner {\n\t\tuint256 indx = organizationList.length;\n\t\tOrganization storage _org = organizationList.push();\n\t\t_org.name = _name;\n\t\t_org.description = _description;\n\t\t_org.logoURI = _logoURI;\n\t\torganizationAddAdmin(indx, _user);\n\n\t\temit OganizationAdded(_user, indx);\n\t}\n\n\t///@dev add an admin to an org.\n\t///@param _user admin of the organizatio\n\t///@param orgId id of the organization\n\tfunction organizationAddAdmin(uint256 orgId, address _user)\n\t\tpublic\n\t\tonlyOwner\n\t\tisNotNull(_user)\n\t{\n\t\tOrganization storage org = organizationList[orgId];\n\t\tuint256 usrIndex = organizerByAddress[_user];\n\t\tassert(usrIndex != 0);\n\t\tOrganizer storage user = organizerList[usrIndex - 1];\n\n\t\t// register in the Organizer struct\n\t\tuser.organizationList.push(orgId + 1);\n\t\tuser.nbActivOganization++;\n\n\t\t// register in the Organization struct index 0 is used to remove a user from a list\n\t\torg.adminList.push(usrIndex);\n\t}\n\n\t// Exposing data to the outside ---\n\n\tfunction getOrganizationName(uint256 orgID)\n\t\texternal\n\t\tview\n\t\treturns (string memory)\n\t{\n\t\trequire(orgID < organizationList.length, \"ERR_1\");\n\t\treturn organizationList[orgID].name;\n\t}\n\n\t// Simplified struct used for viewing the internal states\n\tstruct organizationDesc {\n\t\tstring name;\n\t\tstring description;\n\t\tstring logoURI;\n\t}\n\n\t///@dev returns the list of organization : they may be inactive, must test activ value\n\t///@param _start starting index amoung organizations\n\t///@param _end ending index amoung ogranizations\n\tfunction getOrganizationsList(uint256 _start, uint256 _end)\n\t\texternal\n\t\tview\n\t\tisNotNullUint256(organizationList.length)\n\t\treturns (organizationDesc[] memory)\n\t{\n\t\trequire(_start <= _end); // check params\n\t\trequire(_start < organizationList.length, \"ERR_1\");\n\n\t\t// we adjust the ending value\n\t\tif (_end >= organizationList.length) _end = organizationList.length - 1;\n\n\t\t// creat an array for returning only usefull values\n\t\torganizationDesc[] memory _desc = new organizationDesc[](\n\t\t\t_end - _start + 1\n\t\t);\n\n\t\t// Fill the structure\n\t\tuint256 x = _start;\n\t\twhile (x <= _end) {\n\t\t\t_desc[x - _start] = organizationDesc({\n\t\t\t\tname: organizationList[x].name,\n\t\t\t\tdescription: organizationList[x].description,\n\t\t\t\tlogoURI: organizationList[x].logoURI\n\t\t\t});\n\n\t\t\tx++;\n\t\t}\n\t\treturn _desc;\n\t}\n\n\t///@dev returns the count of activ admin\n\t///@param orgIndx count the number\n\tfunction getActivAdminCount(uint256 orgIndx)\n\t\tinternal\n\t\tview\n\t\treturns (uint256)\n\t{\n\t\tuint256 count = 0;\n\t\tfor (uint256 x = 0; x < organizationList[orgIndx].adminList.length; x++)\n\t\t\tif (organizationList[orgIndx].adminList[x] != 0) count++;\n\n\t\treturn count;\n\t}\n\n\t///@dev returns the list activ admin of an organisation\n\t///@param orgIndx  index amoung organizations\n\tfunction getAdminList(uint256 orgIndx)\n\t\texternal\n\t\tview\n\t\tisLowerThanUint256(orgIndx, organizationList.length)\n\t\treturns (uint256[] memory)\n\t{\n\t\tuint256 size = getActivAdminCount(orgIndx);\n\n\t\tuint256[] memory list = new uint256[](size);\n\t\tfor (uint256 x = 0; x < organizationList[orgIndx].adminList.length; x++)\n\t\t\tif (organizationList[orgIndx].adminList[x] > 0)\n\t\t\t\tlist[x] = organizationList[orgIndx].adminList[x] - 1;\n\t\treturn list;\n\t}\n\n\t///@dev returns true if the user is admin of the organization\n\t///@param organizer  index amoung organizers\n\t///@param orgIndx  index amoung organizations\n\tfunction checkorganizerisAdminOf(uint256 organizer, uint256 orgIndx)\n\t\tpublic\n\t\tview\n\t\treturns (bool)\n\t{\n\t\trequire(orgIndx < organizationList.length, \"ERR_5\");\n\t\trequire(organizer <= organizerList.length, \"ERR_1\");\n\t\tuint256 maxL = organizationList[orgIndx].adminList.length;\n\n\t\tfor (uint256 i = 0; i < maxL; i++) {\n\t\t\tif (organizationList[orgIndx].adminList[i] == organizer)\n\t\t\t\treturn true;\n\t\t}\n\t\treturn false;\n\t}\n\n\t///@dev returns true if the user is admin of the organization\n\t///@param orgIndx  index amoung organizations\n\tfunction checkorganizerisAdminOf(uint256 orgIndx)\n\t\tpublic\n\t\tview\n\t\treturns (bool)\n\t{\n\t\tuint256 organizerId = organizerByAddress[msg.sender];\n\t\trequire(organizerId > 0, \"ERR_6\");\n\t\treturn checkorganizerisAdminOf(organizerId, orgIndx);\n\t}\n\n\t///@dev returns the address of an admin, given an id organizer\n\t///@param id  id (=index) of the organizer\n\tfunction getOrganizerAddressById(uint256 id)\n\t\texternal\n\t\tview\n\t\tisLowerThanUint256(id, organizerList.length)\n\t\treturns (address)\n\t{\n\t\treturn organizerList[id]._user;\n\t}\n\n\t///@dev returns the list of organization the organizer subscribed to\n\t///@param _user  address of the user\n\tfunction getOrganizerOrganisationList(address _user)\n\t\texternal\n\t\tview\n\t\treturns (uint256[] memory)\n\t{\n\t\t// We make sure the provided addess is correct\n\t\tuint256 indx = organizerByAddress[_user];\n\t\trequire(indx != 0, \"ERR_6\");\n\t\tindx--; // Now that we have checked, we get the correct iD\n\t\tuint256 size = organizerList[indx].nbActivOganization;\n\n\t\t// we stop if no subscription\n\t\trequire(size > 0, \"ERR_7\");\n\n\t\t// Create and fill returnable array\n\t\tuint256[] memory result = new uint256[](size);\n\t\tuint256 increment = 0;\n\t\tfor (uint256 x = 0; x < organizationList.length; x++) {\n\t\t\tif (organizerList[indx].organizationList[x] > 0) {\n\t\t\t\tresult[increment++] =\n\t\t\t\t\torganizerList[indx].organizationList[x] -\n\t\t\t\t\t1;\n\t\t\t}\n\t\t}\n\t\treturn result;\n\t}\n\n\tevent organizerAddedEvent();\n\n\t///@dev Add an event to an organization\n\t///@param organizerID id of the organizer\n\t///@param organizationId id of the organization\n\t///@param eventID id of the event\n\tfunction organizerAddEvent(\n\t\tuint256 organizerID,\n\t\tuint256 organizationId,\n\t\tuint256 eventID\n\t) internal {\n\t\trequire(organizerID <= organizerList.length, \"ERR_1\");\n\n\t\torganizationList[organizationId].EventList.push(eventID);\n\t\temit organizerAddedEvent();\n\t}\n\n\t///@dev return the list of events associated to an organization\n\t///@param orgId id of the org\n\tfunction getEventList(uint256 orgId)\n\t\texternal\n\t\tview\n\t\treturns (uint256[] memory)\n\t{\n\t\tuint256[] memory EventList = organizationList[orgId].EventList;\n\t\treturn EventList;\n\t}\n}\n",
  "sourcePath": "/home/pec/Projets/MedalVerse/MedalVerse-Front/contracts/Dapp Internal Struct/OrganizerHandler.sol",
  "compiler": {
    "name": "solc",
    "version": "0.8.0+commit.c7dfd78e.Emscripten.clang"
  },
  "schemaVersion": "3.4.4",
  "updatedAt": "2022-01-17T07:06:11.304Z",
  "devdoc": {
    "kind": "dev",
    "methods": {
      "addOrganization(address,string,string,string)": {
        "details": "add an organization to the list of orgs",
        "params": {
          "_description": "UI description text",
          "_logoURI": "Link to the icon lo\t\tuser.organizationState[orgId] = true;",
          "_name": "UI dislay name",
          "_user": "admin of the organization"
        }
      },
      "checkorganizerisAdminOf(uint256)": {
        "details": "returns true if the user is admin of the organization",
        "params": {
          "orgIndx": "index amoung organizations"
        }
      },
      "checkorganizerisAdminOf(uint256,uint256)": {
        "details": "returns true if the user is admin of the organization",
        "params": {
          "orgIndx": "index amoung organizations",
          "organizer": "index amoung organizers"
        }
      },
      "getAdminList(uint256)": {
        "details": "returns the list activ admin of an organisation",
        "params": {
          "orgIndx": "index amoung organizations"
        }
      },
      "getEventList(uint256)": {
        "details": "return the list of events associated to an organization",
        "params": {
          "orgId": "id of the org"
        }
      },
      "getOrganizationsList(uint256,uint256)": {
        "details": "returns the list of organization : they may be inactive, must test activ value",
        "params": {
          "_end": "ending index amoung ogranizations",
          "_start": "starting index amoung organizations"
        }
      },
      "getOrganizerAddressById(uint256)": {
        "details": "returns the address of an admin, given an id organizer",
        "params": {
          "id": "id (=index) of the organizer"
        }
      },
      "getOrganizerOrganisationList(address)": {
        "details": "returns the list of organization the organizer subscribed to",
        "params": {
          "_user": "address of the user"
        }
      },
      "organizationAddAdmin(uint256,address)": {
        "details": "add an admin to an org.",
        "params": {
          "_user": "admin of the organizatio",
          "orgId": "id of the organization"
        }
      },
      "owner()": {
        "details": "Returns the address of the current owner."
      },
      "renounceOwnership()": {
        "details": "Leaves the contract without owner. It will not be possible to call `onlyOwner` functions anymore. Can only be called by the current owner. NOTE: Renouncing ownership will leave the contract without an owner, thereby removing any functionality that is only available to the owner."
      },
      "transferOwnership(address)": {
        "details": "Transfers ownership of the contract to a new account (`newOwner`). Can only be called by the current owner."
      }
    },
    "version": 1
  },
  "userdoc": {
    "kind": "user",
    "methods": {},
    "version": 1
  }
}