{
  "contractName": "OrganizerHandler",
  "abi": [
    {
      "anonymous": false,
      "inputs": [
        {
          "indexed": false,
          "internalType": "address",
          "name": "_user",
          "type": "address"
        },
        {
          "indexed": false,
          "internalType": "uint256",
          "name": "indx",
          "type": "uint256"
        }
      ],
      "name": "OganizationAdded",
      "type": "event"
    },
    {
      "anonymous": false,
      "inputs": [
        {
          "indexed": false,
          "internalType": "address",
          "name": "_user",
          "type": "address"
        },
        {
          "indexed": false,
          "internalType": "uint256",
          "name": "indx",
          "type": "uint256"
        }
      ],
      "name": "OrganizerAdded",
      "type": "event"
    },
    {
      "anonymous": false,
      "inputs": [
        {
          "indexed": true,
          "internalType": "address",
          "name": "previousOwner",
          "type": "address"
        },
        {
          "indexed": true,
          "internalType": "address",
          "name": "newOwner",
          "type": "address"
        }
      ],
      "name": "OwnershipTransferred",
      "type": "event"
    },
    {
      "inputs": [],
      "name": "owner",
      "outputs": [
        {
          "internalType": "address",
          "name": "",
          "type": "address"
        }
      ],
      "stateMutability": "view",
      "type": "function"
    },
    {
      "inputs": [],
      "name": "renounceOwnership",
      "outputs": [],
      "stateMutability": "nonpayable",
      "type": "function"
    },
    {
      "inputs": [
        {
          "internalType": "address",
          "name": "newOwner",
          "type": "address"
        }
      ],
      "name": "transferOwnership",
      "outputs": [],
      "stateMutability": "nonpayable",
      "type": "function"
    },
    {
      "inputs": [
        {
          "internalType": "address",
          "name": "_user",
          "type": "address"
        },
        {
          "internalType": "string",
          "name": "_name",
          "type": "string"
        },
        {
          "internalType": "string",
          "name": "_description",
          "type": "string"
        },
        {
          "internalType": "string",
          "name": "_logoURI",
          "type": "string"
        }
      ],
      "name": "addOrganization",
      "outputs": [],
      "stateMutability": "nonpayable",
      "type": "function"
    },
    {
      "inputs": [
        {
          "internalType": "uint256",
          "name": "orgId",
          "type": "uint256"
        },
        {
          "internalType": "address",
          "name": "_user",
          "type": "address"
        }
      ],
      "name": "organizationAddAdmin",
      "outputs": [],
      "stateMutability": "nonpayable",
      "type": "function"
    },
    {
      "inputs": [
        {
          "internalType": "uint256",
          "name": "_start",
          "type": "uint256"
        },
        {
          "internalType": "uint256",
          "name": "_end",
          "type": "uint256"
        }
      ],
      "name": "getOrganizationsList",
      "outputs": [
        {
          "components": [
            {
              "internalType": "string",
              "name": "name",
              "type": "string"
            },
            {
              "internalType": "string",
              "name": "description",
              "type": "string"
            },
            {
              "internalType": "string",
              "name": "logoURI",
              "type": "string"
            },
            {
              "internalType": "bool",
              "name": "activ",
              "type": "bool"
            }
          ],
          "internalType": "struct OrganizerHandler.organizationDesc[]",
          "name": "",
          "type": "tuple[]"
        }
      ],
      "stateMutability": "view",
      "type": "function"
    },
    {
      "inputs": [],
      "name": "getOragnisationCount",
      "outputs": [
        {
          "internalType": "uint256",
          "name": "",
          "type": "uint256"
        }
      ],
      "stateMutability": "view",
      "type": "function"
    },
    {
      "inputs": [
        {
          "internalType": "uint256",
          "name": "orgIndx",
          "type": "uint256"
        }
      ],
      "name": "getAdminList",
      "outputs": [
        {
          "internalType": "uint256[]",
          "name": "",
          "type": "uint256[]"
        }
      ],
      "stateMutability": "view",
      "type": "function"
    },
    {
      "inputs": [
        {
          "internalType": "uint256",
          "name": "id",
          "type": "uint256"
        }
      ],
      "name": "getOrganizerAddressById",
      "outputs": [
        {
          "internalType": "address",
          "name": "",
          "type": "address"
        }
      ],
      "stateMutability": "view",
      "type": "function"
    },
    {
      "inputs": [
        {
          "internalType": "address",
          "name": "_user",
          "type": "address"
        }
      ],
      "name": "getOrganizerOrganisationList",
      "outputs": [
        {
          "internalType": "uint256[]",
          "name": "",
          "type": "uint256[]"
        }
      ],
      "stateMutability": "view",
      "type": "function"
    }
  ],
  "bytecode": "0x608060405234801561001057600080fd5b5061002161001c610026565b61002a565b61007a565b3390565b600080546001600160a01b038381166001600160a01b0319831681178455604051919092169283917f8be0079c531659141344cd1fd0a4f28419497f9722a3daafe3b4186f6b6457e09190a35050565b6113ef806100896000396000f3fe608060405234801561001057600080fd5b506004361061009e5760003560e01c8063e56afc7511610066578063e56afc7514610113578063f2fde38b14610126578063fb87aa4214610139578063fbcbd0671461014c578063fe4363a31461015f5761009e565b8063715018a6146100a35780638da5cb5b146100ad57806391850ab3146100cb578063c46f05b9146100eb578063cb06cce6146100fe575b600080fd5b6100ab61017f565b005b6100b56101d3565b6040516100c291906110ba565b60405180910390f35b6100de6100d9366004610f55565b6101e2565b6040516100c29190611192565b6100de6100f936600461100b565b610404565b6101066105cb565b6040516100c291906112e8565b6100ab610121366004611023565b6105d1565b6100ab610134366004610f55565b61071e565b6100b561014736600461100b565b61078f565b6100ab61015a366004610f76565b6107e6565b61017261016d36600461104e565b61092c565b6040516100c291906110e7565b610187610cde565b6001600160a01b03166101986101d3565b6001600160a01b0316146101c75760405162461bcd60e51b81526004016101be9061127c565b60405180910390fd5b6101d16000610ce2565b565b6000546001600160a01b031690565b6001600160a01b0381166000908152600260205260409020546060908061021b5760405162461bcd60e51b81526004016101be9061121c565b8061022581611320565b91505060006001828154811061024b57634e487b7160e01b600052603260045260246000fd5b90600052602060002090600402016002015490506000811161027f5760405162461bcd60e51b81526004016101be90611253565b60008167ffffffffffffffff8111156102a857634e487b7160e01b600052604160045260246000fd5b6040519080825280602002602001820160405280156102d1578160200160208202803683370190505b5090506000805b6003548110156103f75760006001868154811061030557634e487b7160e01b600052603260045260246000fd5b9060005260206000209060040201600101828154811061033557634e487b7160e01b600052603260045260246000fd5b906000526020600020015411156103e557600180868154811061036857634e487b7160e01b600052603260045260246000fd5b9060005260206000209060040201600101828154811061039857634e487b7160e01b600052603260045260246000fd5b90600052602060002001546103ad9190611309565b83836103b881611372565b9450815181106103d857634e487b7160e01b600052603260045260246000fd5b6020026020010181815250505b806103ef81611372565b9150506102d8565b509093505050505b919050565b600354606090829080821061041857600080fd5b600061042385610d32565b905060008167ffffffffffffffff81111561044e57634e487b7160e01b600052604160045260246000fd5b604051908082528060200260200182016040528015610477578160200160208202803683370190505b50905060005b6003878154811061049e57634e487b7160e01b600052603260045260246000fd5b60009182526020909120600590910201548110156105c1576000600388815481106104d957634e487b7160e01b600052603260045260246000fd5b9060005260206000209060050201600001828154811061050957634e487b7160e01b600052603260045260246000fd5b906000526020600020015411156105af5760016003888154811061053d57634e487b7160e01b600052603260045260246000fd5b9060005260206000209060050201600001828154811061056d57634e487b7160e01b600052603260045260246000fd5b90600052602060002001546105829190611309565b8282815181106105a257634e487b7160e01b600052603260045260246000fd5b6020026020010181815250505b806105b981611372565b91505061047d565b5095945050505050565b60035490565b6105d9610cde565b6001600160a01b03166105ea6101d3565b6001600160a01b0316146106105760405162461bcd60e51b81526004016101be9061127c565b806001600160a01b03811661062457600080fd5b60006003848154811061064757634e487b7160e01b600052603260045260246000fd5b600091825260208083206001600160a01b03871684526002909152604090922054600590910290910191508061068d57634e487b7160e01b600052600160045260246000fd5b6000600161069b8184611309565b815481106106b957634e487b7160e01b600052603260045260246000fd5b90600052602060002090600402019050806001018660016106da91906112f1565b81546001810183556000928352602083200155600282018054916106fd83611372565b90915550508254600181018455600093845260209093209092015550505050565b610726610cde565b6001600160a01b03166107376101d3565b6001600160a01b03161461075d5760405162461bcd60e51b81526004016101be9061127c565b6001600160a01b0381166107835760405162461bcd60e51b81526004016101be906111d6565b61078c81610ce2565b50565b60015460009082908082106107a357600080fd5b600184815481106107c457634e487b7160e01b600052603260045260246000fd5b60009182526020909120600490910201546001600160a01b0316949350505050565b6107ee610cde565b6001600160a01b03166107ff6101d3565b6001600160a01b0316146108255760405162461bcd60e51b81526004016101be9061127c565b836001600160a01b03811661083957600080fd5b600380546001810182556000919091528451600582027fc2575a0e9e593c00f959f8c92f12db2869c3395a3b0502d05e2516446f71f85b8101916108a4917fc2575a0e9e593c00f959f8c92f12db2869c3395a3b0502d05e2516446f71f85c01906020890190610dfa565b5084516108ba9060028301906020880190610dfa565b5083516108d09060038301906020870190610dfa565b5060048101805460ff191660011790556108ea82886105d1565b7fcbbf31cd62dff8d3e3fd3ff1549adbbd47b39c0682301e54af8f3a0ffaade4a3878360405161091b9291906110ce565b60405180910390a150505050505050565b6003546060908061093c57600080fd5b8284111561094957600080fd5b600354841061096a5760405162461bcd60e51b81526004016101be906112b1565b60035483106109855760035461098290600190611309565b92505b60006109918585611309565b61099c9060016112f1565b67ffffffffffffffff8111156109c257634e487b7160e01b600052604160045260246000fd5b6040519080825280602002602001820160405280156109fb57816020015b6109e8610e7e565b8152602001906001900390816109e05790505b509050845b848111610cd557604051806080016040528060038381548110610a3357634e487b7160e01b600052603260045260246000fd5b90600052602060002090600502016001018054610a4f90611337565b80601f0160208091040260200160405190810160405280929190818152602001828054610a7b90611337565b8015610ac85780601f10610a9d57610100808354040283529160200191610ac8565b820191906000526020600020905b815481529060010190602001808311610aab57829003601f168201915b5050505050815260200160038381548110610af357634e487b7160e01b600052603260045260246000fd5b90600052602060002090600502016002018054610b0f90611337565b80601f0160208091040260200160405190810160405280929190818152602001828054610b3b90611337565b8015610b885780601f10610b5d57610100808354040283529160200191610b88565b820191906000526020600020905b815481529060010190602001808311610b6b57829003601f168201915b5050505050815260200160038381548110610bb357634e487b7160e01b600052603260045260246000fd5b90600052602060002090600502016003018054610bcf90611337565b80601f0160208091040260200160405190810160405280929190818152602001828054610bfb90611337565b8015610c485780601f10610c1d57610100808354040283529160200191610c48565b820191906000526020600020905b815481529060010190602001808311610c2b57829003601f168201915b5050505050815260200160038381548110610c7357634e487b7160e01b600052603260045260246000fd5b600091825260209091206004600590920201015460ff161515905282610c998884611309565b81518110610cb757634e487b7160e01b600052603260045260246000fd5b60200260200101819052508080610ccd90611372565b915050610a00565b50949350505050565b3390565b600080546001600160a01b038381166001600160a01b0319831681178455604051919092169283917f8be0079c531659141344cd1fd0a4f28419497f9722a3daafe3b4186f6b6457e09190a35050565b600080805b60038481548110610d5857634e487b7160e01b600052603260045260246000fd5b6000918252602090912060059091020154811015610df35760038481548110610d9157634e487b7160e01b600052603260045260246000fd5b90600052602060002090600502016000018181548110610dc157634e487b7160e01b600052603260045260246000fd5b9060005260206000200154600014610de15781610ddd81611372565b9250505b80610deb81611372565b915050610d37565b5092915050565b828054610e0690611337565b90600052602060002090601f016020900481019282610e285760008555610e6e565b82601f10610e4157805160ff1916838001178555610e6e565b82800160010185558215610e6e579182015b82811115610e6e578251825591602001919060010190610e53565b50610e7a929150610ea8565b5090565b60405180608001604052806060815260200160608152602001606081526020016000151581525090565b5b80821115610e7a5760008155600101610ea9565b80356001600160a01b03811681146103ff57600080fd5b600082601f830112610ee4578081fd5b813567ffffffffffffffff80821115610eff57610eff6113a3565b604051601f8301601f191681016020018281118282101715610f2357610f236113a3565b604052828152848301602001861015610f3a578384fd5b82602086016020830137918201602001929092529392505050565b600060208284031215610f66578081fd5b610f6f82610ebd565b9392505050565b60008060008060808587031215610f8b578283fd5b610f9485610ebd565b9350602085013567ffffffffffffffff80821115610fb0578485fd5b610fbc88838901610ed4565b94506040870135915080821115610fd1578384fd5b610fdd88838901610ed4565b93506060870135915080821115610ff2578283fd5b50610fff87828801610ed4565b91505092959194509250565b60006020828403121561101c578081fd5b5035919050565b60008060408385031215611035578182fd5b8235915061104560208401610ebd565b90509250929050565b60008060408385031215611060578182fd5b50508035926020909101359150565b60008151808452815b8181101561109457602081850181015186830182015201611078565b818111156110a55782602083870101525b50601f01601f19169290920160200192915050565b6001600160a01b0391909116815260200190565b6001600160a01b03929092168252602082015260400190565b60208082528251828201819052600091906040908185019080840286018301878501865b8381101561118457603f198984030185528151608081518186526111318287018261106f565b915050888201518582038a870152611149828261106f565b9150508782015185820389870152611161828261106f565b60609384015115159690930195909552509487019492509086019060010161110b565b509098975050505050505050565b6020808252825182820181905260009190848201906040850190845b818110156111ca578351835292840192918401916001016111ae565b50909695505050505050565b60208082526026908201527f4f776e61626c653a206e6577206f776e657220697320746865207a65726f206160408201526564647265737360d01b606082015260800190565b60208082526018908201527f75736572206973206e6f7420616e206f7267616e697a65720000000000000000604082015260600190565b6020808252600f908201526e37379039bab139b1b934b83a34b7b760891b604082015260600190565b6020808252818101527f4f776e61626c653a2063616c6c6572206973206e6f7420746865206f776e6572604082015260600190565b60208082526017908201527f5374617274496e646578206f7574206f662072616e6765000000000000000000604082015260600190565b90815260200190565b600082198211156113045761130461138d565b500190565b60008282101561131b5761131b61138d565b500390565b60008161132f5761132f61138d565b506000190190565b60028104600182168061134b57607f821691505b6020821081141561136c57634e487b7160e01b600052602260045260246000fd5b50919050565b60006000198214156113865761138661138d565b5060010190565b634e487b7160e01b600052601160045260246000fd5b634e487b7160e01b600052604160045260246000fdfea264697066735822122080b8a9a14f6b0de79deb2abcde706434b5159d02cb4262d52c953baac01d308164736f6c63430008000033",
  "immutableReferences": {},
  "source": "// SPDX-License-Identifier: MIT\r\npragma solidity ^0.8;\r\nimport \"@openzeppelin/contracts/access/Ownable.sol\";\r\n\r\ncontract OrganizerHandler is Ownable {\r\n\tstruct Organizer {\r\n\t\taddress _user;\r\n\t\tuint256[] organizationList; // id of orgs users subscribed to (id+1)\r\n\t\tuint256 nbActivOganization; // number of orgsid != 0\r\n\t\tbool activ;\r\n\t}\r\n\r\n\tstruct Organization {\r\n\t\tuint256[] adminList;\r\n\t\tstring name;\r\n\t\tstring description;\r\n\t\tstring logoURI;\r\n\t\tbool activ;\r\n\t}\r\n\r\n\tOrganizer[] organizerList; // List of organizers\r\n\tmapping(address => uint256) organizerByAddress;\r\n\r\n\tOrganization[] organizationList; // List of organization\r\n\r\n\t// Modifiers ----------------------------\r\n\tmodifier isNotNull(address a) virtual {\r\n\t\trequire(a != address(0));\r\n\t\t_;\r\n\t}\r\n\tmodifier isNotNullUint256(uint256 a) virtual {\r\n\t\trequire(a != 0);\r\n\t\t_;\r\n\t}\r\n\tmodifier isLowerThanUint256(uint256 a, uint256 b) virtual {\r\n\t\trequire(a < b);\r\n\t\t_;\r\n\t}\r\n\r\n\t// Events --------------------------------\r\n\r\n\tevent OrganizerAdded(address _user, uint256 indx);\r\n\tevent OganizationAdded(address _user, uint256 indx);\r\n\r\n\t// Methods -------------------------------\r\n\tfunction addOrganizer(address _user) internal onlyOwner isNotNull(_user) {\r\n\t\tuint256 indx = organizerList.length;\r\n\t\tOrganizer storage _organizer = organizerList.push();\r\n\t\t_organizer._user = _user;\r\n\t\t_organizer.activ = true;\r\n\t\torganizerByAddress[_user] = indx + 1;\r\n\r\n\t\temit OrganizerAdded(_user, indx);\r\n\t}\r\n\r\n\t// Methods -------------------------------\r\n\t///@dev add an organization to the list of orgs\r\n\t///@param _user admin of the organization\r\n\t///@param _name UI dislay name\r\n\t///@param _description UI description text\r\n\t///@param _logoURI Link to the icon lo\t\tuser.organizationState[orgId] = true;\r\n\r\n\tfunction addOrganization(\r\n\t\taddress _user,\r\n\t\tstring memory _name,\r\n\t\tstring memory _description,\r\n\t\tstring memory _logoURI\r\n\t) public onlyOwner isNotNull(_user) {\r\n\t\tuint256 indx = organizationList.length;\r\n\t\tOrganization storage _org = organizationList.push();\r\n\t\t_org.name = _name;\r\n\t\t_org.description = _description;\r\n\t\t_org.logoURI = _logoURI;\r\n\t\t_org.activ = true;\r\n\r\n\t\t// add the user to the list of admin\r\n\t\torganizationAddAdmin(indx, _user);\r\n\r\n\t\temit OganizationAdded(_user, indx);\r\n\t}\r\n\r\n\t///@dev add an admin to an org.\r\n\t///@param _user admin of the organizatio\r\n\t///@param orgId id of the organization\r\n\tfunction organizationAddAdmin(uint256 orgId, address _user)\r\n\t\tpublic\r\n\t\tonlyOwner\r\n\t\tisNotNull(_user)\r\n\t{\r\n\t\tOrganization storage org = organizationList[orgId];\r\n\t\tuint256 usrIndex = organizerByAddress[_user];\r\n\t\tassert(usrIndex != 0);\r\n\t\tOrganizer storage user = organizerList[usrIndex - 1];\r\n\r\n\t\t// register in the Organizer struct\r\n\t\tuser.organizationList.push(orgId + 1);\r\n\t\tuser.nbActivOganization++;\r\n\r\n\t\t// register in the Organization struct index 0 is used to remove a user from a list\r\n\t\torg.adminList.push(usrIndex);\r\n\t}\r\n\r\n\t// Exposing data to the outside ---\r\n\r\n\t// Simplified struct used for viewing the internal states\r\n\tstruct organizationDesc {\r\n\t\tstring name;\r\n\t\tstring description;\r\n\t\tstring logoURI;\r\n\t\tbool activ;\r\n\t}\r\n\r\n\t///@dev returns the list of organization : they may be inactive, must test activ value\r\n\t///@param _start starting index amoung organizations\r\n\t///@param _end ending index amoung ogranizations\r\n\tfunction getOrganizationsList(uint256 _start, uint256 _end)\r\n\t\tpublic\r\n\t\tview\r\n\t\tisNotNullUint256(organizationList.length)\r\n\t\treturns (organizationDesc[] memory)\r\n\t{\r\n\t\trequire(_start <= _end); // check params\r\n\t\trequire(_start < organizationList.length, \"StartIndex out of range\");\r\n\r\n\t\t// we adjust the ending value\r\n\t\tif (_end >= organizationList.length) _end = organizationList.length - 1;\r\n\r\n\t\t// creat an array for returning only usefull values\r\n\t\torganizationDesc[] memory _desc = new organizationDesc[](\r\n\t\t\t_end - _start + 1\r\n\t\t);\r\n\r\n\t\t// Fill the structure\r\n\t\tuint256 x = _start;\r\n\t\twhile (x <= _end) {\r\n\t\t\t_desc[x - _start] = organizationDesc({\r\n\t\t\t\tname: organizationList[x].name,\r\n\t\t\t\tdescription: organizationList[x].description,\r\n\t\t\t\tlogoURI: organizationList[x].logoURI,\r\n\t\t\t\tactiv: organizationList[x].activ\r\n\t\t\t});\r\n\r\n\t\t\tx++;\r\n\t\t}\r\n\t\treturn _desc;\r\n\t}\r\n\r\n\t///@dev returns the number of Organizations\r\n\tfunction getOragnisationCount() public view returns (uint256) {\r\n\t\treturn organizationList.length;\r\n\t}\r\n\r\n\t///@dev returns the count of activ admin\r\n\t///@param orgIndx count the number\r\n\tfunction getActivAdminCount(uint256 orgIndx)\r\n\t\tinternal\r\n\t\tview\r\n\t\treturns (uint256)\r\n\t{\r\n\t\tuint256 count = 0;\r\n\t\tfor (uint256 x = 0; x < organizationList[orgIndx].adminList.length; x++)\r\n\t\t\tif (organizationList[orgIndx].adminList[x] != 0) count++;\r\n\r\n\t\treturn count;\r\n\t}\r\n\r\n\t///@dev returns the list activ admin of an organisation\r\n\t///@param orgIndx  index amoung organizations\r\n\tfunction getAdminList(uint256 orgIndx)\r\n\t\tpublic\r\n\t\tview\r\n\t\tisLowerThanUint256(orgIndx, organizationList.length)\r\n\t\treturns (uint256[] memory)\r\n\t{\r\n\t\tuint256 size = getActivAdminCount(orgIndx);\r\n\r\n\t\tuint256[] memory list = new uint256[](size);\r\n\t\tfor (uint256 x = 0; x < organizationList[orgIndx].adminList.length; x++)\r\n\t\t\tif (organizationList[orgIndx].adminList[x] > 0)\r\n\t\t\t\tlist[x] = organizationList[orgIndx].adminList[x] - 1;\r\n\t\treturn list;\r\n\t}\r\n\r\n\t///@dev returns the address of an admin, given an id organizer\r\n\t///@param id  id (=index) of the organizer\r\n\tfunction getOrganizerAddressById(uint256 id)\r\n\t\tpublic\r\n\t\tview\r\n\t\tisLowerThanUint256(id, organizerList.length)\r\n\t\treturns (address)\r\n\t{\r\n\t\treturn organizerList[id]._user;\r\n\t}\r\n\r\n\t///@dev returns the list of organization the organizer subscribed to\r\n\t///@param _user  address of the user\r\n\tfunction getOrganizerOrganisationList(address _user)\r\n\t\tpublic\r\n\t\tview\r\n\t\treturns (uint256[] memory)\r\n\t{\r\n\t\t// We make sure the provided addess is correct\r\n\t\tuint256 indx = organizerByAddress[_user];\r\n\t\trequire(indx != 0, \"user is not an organizer\");\r\n\t\tindx--; // Now that we have checked, we get the correct iD\r\n\t\tuint256 size = organizerList[indx].nbActivOganization;\r\n\r\n\t\t// we stop if no subscription\r\n\t\trequire(size > 0, \"no subscription\");\r\n\r\n\t\t// Create and fill returnable array\r\n\t\tuint256[] memory result = new uint256[](size);\r\n\t\tuint256 increment = 0;\r\n\t\tfor (uint256 x = 0; x < organizationList.length; x++) {\r\n\t\t\tif (organizerList[indx].organizationList[x] > 0) {\r\n\t\t\t\tresult[increment++] =\r\n\t\t\t\t\torganizerList[indx].organizationList[x] -\r\n\t\t\t\t\t1;\r\n\t\t\t}\r\n\t\t}\r\n\t\treturn result;\r\n\t}\r\n}\r\n",
  "sourcePath": "C:\\DEV\\ETH\\Alyra\\MedalVerse\\MedalVerse-Front\\contracts\\Dapp Internal Struct\\OrganizerHandler.sol",
  "compiler": {
    "name": "solc",
    "version": "0.8.0+commit.c7dfd78e.Emscripten.clang"
  },
  "schemaVersion": "3.4.3",
  "updatedAt": "2021-12-20T20:36:22.644Z",
  "devdoc": {
    "kind": "dev",
    "methods": {
      "addOrganization(address,string,string,string)": {
        "details": "add an organization to the list of orgs",
        "params": {
          "_description": "UI description text",
          "_logoURI": "Link to the icon lo\t\tuser.organizationState[orgId] = true;",
          "_name": "UI dislay name",
          "_user": "admin of the organization"
        }
      },
      "getAdminList(uint256)": {
        "details": "returns the list activ admin of an organisation",
        "params": {
          "orgIndx": "index amoung organizations"
        }
      },
      "getOragnisationCount()": {
        "details": "returns the number of Organizations"
      },
      "getOrganizationsList(uint256,uint256)": {
        "details": "returns the list of organization : they may be inactive, must test activ value",
        "params": {
          "_end": "ending index amoung ogranizations",
          "_start": "starting index amoung organizations"
        }
      },
      "getOrganizerAddressById(uint256)": {
        "details": "returns the address of an admin, given an id organizer",
        "params": {
          "id": "id (=index) of the organizer"
        }
      },
      "getOrganizerOrganisationList(address)": {
        "details": "returns the list of organization the organizer subscribed to",
        "params": {
          "_user": "address of the user"
        }
      },
      "organizationAddAdmin(uint256,address)": {
        "details": "add an admin to an org.",
        "params": {
          "_user": "admin of the organizatio",
          "orgId": "id of the organization"
        }
      },
      "owner()": {
        "details": "Returns the address of the current owner."
      },
      "renounceOwnership()": {
        "details": "Leaves the contract without owner. It will not be possible to call `onlyOwner` functions anymore. Can only be called by the current owner. NOTE: Renouncing ownership will leave the contract without an owner, thereby removing any functionality that is only available to the owner."
      },
      "transferOwnership(address)": {
        "details": "Transfers ownership of the contract to a new account (`newOwner`). Can only be called by the current owner."
      }
    },
    "version": 1
  },
  "userdoc": {
    "kind": "user",
    "methods": {},
    "version": 1
  }
}