{
  "contractName": "SportsmanHandler",
  "abi": [
    {
      "anonymous": false,
      "inputs": [
        {
          "indexed": true,
          "internalType": "address",
          "name": "previousOwner",
          "type": "address"
        },
        {
          "indexed": true,
          "internalType": "address",
          "name": "newOwner",
          "type": "address"
        }
      ],
      "name": "OwnershipTransferred",
      "type": "event"
    },
    {
      "anonymous": false,
      "inputs": [
        {
          "indexed": false,
          "internalType": "address",
          "name": "usrAddr",
          "type": "address"
        }
      ],
      "name": "sportsmanAdded",
      "type": "event"
    },
    {
      "anonymous": false,
      "inputs": [
        {
          "indexed": false,
          "internalType": "address",
          "name": "sportsmanId",
          "type": "address"
        },
        {
          "indexed": false,
          "internalType": "uint256",
          "name": "medalID",
          "type": "uint256"
        }
      ],
      "name": "sportsmanMedalAdded",
      "type": "event"
    },
    {
      "anonymous": false,
      "inputs": [
        {
          "indexed": false,
          "internalType": "address",
          "name": "usrAddr",
          "type": "address"
        },
        {
          "indexed": false,
          "internalType": "uint256",
          "name": "eventID",
          "type": "uint256"
        }
      ],
      "name": "sportsmanRegisterdEvent",
      "type": "event"
    },
    {
      "anonymous": false,
      "inputs": [
        {
          "indexed": false,
          "internalType": "address",
          "name": "usrAddr",
          "type": "address"
        },
        {
          "indexed": false,
          "internalType": "uint256",
          "name": "eventID",
          "type": "uint256"
        }
      ],
      "name": "sportsmanUnregisterdEvent",
      "type": "event"
    },
    {
      "inputs": [],
      "name": "owner",
      "outputs": [
        {
          "internalType": "address",
          "name": "",
          "type": "address"
        }
      ],
      "stateMutability": "view",
      "type": "function"
    },
    {
      "inputs": [
        {
          "internalType": "uint256",
          "name": "",
          "type": "uint256"
        }
      ],
      "name": "registeredSportsman",
      "outputs": [
        {
          "internalType": "address",
          "name": "",
          "type": "address"
        }
      ],
      "stateMutability": "view",
      "type": "function"
    },
    {
      "inputs": [],
      "name": "renounceOwnership",
      "outputs": [],
      "stateMutability": "nonpayable",
      "type": "function"
    },
    {
      "inputs": [
        {
          "internalType": "address",
          "name": "newOwner",
          "type": "address"
        }
      ],
      "name": "transferOwnership",
      "outputs": [],
      "stateMutability": "nonpayable",
      "type": "function"
    },
    {
      "inputs": [],
      "name": "getNumberOfSportsman",
      "outputs": [
        {
          "internalType": "uint256",
          "name": "",
          "type": "uint256"
        }
      ],
      "stateMutability": "view",
      "type": "function"
    },
    {
      "inputs": [
        {
          "internalType": "uint256",
          "name": "_start",
          "type": "uint256"
        },
        {
          "internalType": "uint256",
          "name": "_end",
          "type": "uint256"
        }
      ],
      "name": "getSportsmanList",
      "outputs": [
        {
          "components": [
            {
              "internalType": "address",
              "name": "userAddress",
              "type": "address"
            },
            {
              "internalType": "uint256",
              "name": "sportCategory",
              "type": "uint256"
            },
            {
              "internalType": "uint256",
              "name": "nbActivSubscriptions",
              "type": "uint256"
            },
            {
              "internalType": "bool",
              "name": "activ",
              "type": "bool"
            }
          ],
          "internalType": "struct SportsmanHandler.SportsmanDesc[]",
          "name": "",
          "type": "tuple[]"
        }
      ],
      "stateMutability": "view",
      "type": "function"
    },
    {
      "inputs": [
        {
          "internalType": "address",
          "name": "sportsmanId",
          "type": "address"
        }
      ],
      "name": "getSportsManEventsNumber",
      "outputs": [
        {
          "internalType": "uint256",
          "name": "",
          "type": "uint256"
        }
      ],
      "stateMutability": "view",
      "type": "function"
    },
    {
      "inputs": [
        {
          "internalType": "address",
          "name": "sportsmanId",
          "type": "address"
        }
      ],
      "name": "getSportsmanEventsSubscriptions",
      "outputs": [
        {
          "internalType": "uint256[]",
          "name": "",
          "type": "uint256[]"
        }
      ],
      "stateMutability": "view",
      "type": "function"
    },
    {
      "inputs": [
        {
          "internalType": "address",
          "name": "sportsmanId",
          "type": "address"
        }
      ],
      "name": "getSportsmanMedalList",
      "outputs": [
        {
          "internalType": "uint256[]",
          "name": "",
          "type": "uint256[]"
        }
      ],
      "stateMutability": "view",
      "type": "function"
    },
    {
      "inputs": [
        {
          "internalType": "address",
          "name": "sportsmanId",
          "type": "address"
        }
      ],
      "name": "getSportsmanMedalCount",
      "outputs": [
        {
          "internalType": "uint256",
          "name": "",
          "type": "uint256"
        }
      ],
      "stateMutability": "view",
      "type": "function"
    },
    {
      "inputs": [
        {
          "internalType": "address",
          "name": "sportsmanId",
          "type": "address"
        },
        {
          "internalType": "uint256",
          "name": "indx",
          "type": "uint256"
        }
      ],
      "name": "getSportsmanMedal",
      "outputs": [
        {
          "internalType": "uint256",
          "name": "",
          "type": "uint256"
        }
      ],
      "stateMutability": "view",
      "type": "function"
    },
    {
      "inputs": [
        {
          "internalType": "address",
          "name": "sportsmanId",
          "type": "address"
        },
        {
          "internalType": "uint256",
          "name": "medalID",
          "type": "uint256"
        }
      ],
      "name": "sportsmanAddMedal",
      "outputs": [],
      "stateMutability": "nonpayable",
      "type": "function"
    }
  ],
  "bytecode": "0x608060405234801561001057600080fd5b5061002161001c610026565b61002a565b61007a565b3390565b600080546001600160a01b038381166001600160a01b0319831681178455604051919092169283917f8be0079c531659141344cd1fd0a4f28419497f9722a3daafe3b4186f6b6457e09190a35050565b610b08806100896000396000f3fe608060405234801561001057600080fd5b50600436106100b45760003560e01c806388c3f26f1161007157806388c3f26f146101475780638da5cb5b1461015a5780639847587a14610162578063eebd127414610175578063f2fde38b14610188578063fd395fc51461019b576100b4565b80632bd0e1cc146100b95780633a6526fb146100e25780633da21e3a146101025780634dbc196c14610115578063715018a61461013557806375bb71741461013f575b600080fd5b6100cc6100c7366004610829565b6101bb565b6040516100d99190610948565b60405180910390f35b6100f56100f0366004610829565b61022b565b6040516100d99190610a69565b6100f561011036600461084a565b610249565b610128610123366004610873565b6102da565b6040516100d991906108ac565b61013d610304565b005b6100f561034f565b61013d61015536600461084a565b610355565b6101286103be565b6100f5610170366004610829565b6103cd565b6100cc610183366004610829565b610403565b61013d610196366004610829565b610565565b6101ae6101a936600461088b565b6105d6565b6040516100d991906108d9565b6001600160a01b03811660009081526001602090815260409182902060060180548351818402810184019094528084526060939283018282801561021e57602002820191906000526020600020905b81548152602001906001019080831161020a575b505050505090505b919050565b6001600160a01b031660009081526001602052604090206006015490565b6001600160a01b038216600090815260016020526040812060060154821061028c5760405162461bcd60e51b8152600401610283906109d2565b60405180910390fd5b6001600160a01b03831660009081526001602052604090206006018054839081106102c757634e487b7160e01b600052603260045260246000fd5b9060005260206000200154905092915050565b600281815481106102ea57600080fd5b6000918252602090912001546001600160a01b0316905081565b61030c61078b565b6001600160a01b031661031d6103be565b6001600160a01b0316146103435760405162461bcd60e51b8152600401610283906109fd565b61034d600061078f565b565b60025490565b6001600160a01b0382166000908152600160208181526040808420600601805493840181558452922001829055517fa64a320168fc7af2fa4bb2a506ae4dbf56b81b4d25b5e88e668c13f8df90c852906103b290849084906108c0565b60405180910390a15050565b6000546001600160a01b031690565b6000816001600160a01b0381166103e357600080fd5b50506001600160a01b031660009081526001602052604090206005015490565b6001600160a01b03811660009081526001602052604090206005015460609061043c57634e487b7160e01b600052600160045260246000fd5b6001600160a01b03821660009081526001602052604081206005015467ffffffffffffffff81111561047e57634e487b7160e01b600052604160045260246000fd5b6040519080825280602002602001820160405280156104a7578160200160208202803683370190505b5090506000805b6001600160a01b03851660009081526001602052604090206004015481101561055c576001600160a01b03851660009081526001602090815260408083208484526002810183528184205480855260039091019092529091205460ff16156105495780848461051c81610aa1565b95508151811061053c57634e487b7160e01b600052603260045260246000fd5b6020026020010181815250505b508061055481610aa1565b9150506104ae565b50909392505050565b61056d61078b565b6001600160a01b031661057e6103be565b6001600160a01b0316146105a45760405162461bcd60e51b8152600401610283906109fd565b6001600160a01b0381166105ca5760405162461bcd60e51b81526004016102839061098c565b6105d38161078f565b50565b600254606090806105e657600080fd5b828411156105f357600080fd5b60025484106106145760405162461bcd60e51b815260040161028390610a32565b600254831061062f5760025461062c90600190610a8a565b92505b600061063b8585610a8a565b610646906001610a72565b67ffffffffffffffff81111561066c57634e487b7160e01b600052604160045260246000fd5b6040519080825280602002602001820160405280156106a557816020015b6106926107df565b81526020019060019003908161068a5790505b509050845b84811161078257600060016000600284815481106106d857634e487b7160e01b600052603260045260246000fd5b60009182526020808320909101546001600160a01b039081168452838201949094526040928301909120825160808101845281549094168452600181015491840191909152600581015491830191909152600781015460ff16151560608301529150836107458985610a8a565b8151811061076357634e487b7160e01b600052603260045260246000fd5b6020026020010181905250818061077990610aa1565b925050506106aa565b50949350505050565b3390565b600080546001600160a01b038381166001600160a01b0319831681178455604051919092169283917f8be0079c531659141344cd1fd0a4f28419497f9722a3daafe3b4186f6b6457e09190a35050565b604051806080016040528060006001600160a01b0316815260200160008152602001600081526020016000151581525090565b80356001600160a01b038116811461022657600080fd5b60006020828403121561083a578081fd5b61084382610812565b9392505050565b6000806040838503121561085c578081fd5b61086583610812565b946020939093013593505050565b600060208284031215610884578081fd5b5035919050565b6000806040838503121561089d578182fd5b50508035926020909101359150565b6001600160a01b0391909116815260200190565b6001600160a01b03929092168252602082015260400190565b602080825282518282018190526000919060409081850190868401855b8281101561093b57815180516001600160a01b0316855286810151878601528581015186860152606090810151151590850152608090930192908501906001016108f6565b5091979650505050505050565b6020808252825182820181905260009190848201906040850190845b8181101561098057835183529284019291840191600101610964565b50909695505050505050565b60208082526026908201527f4f776e61626c653a206e6577206f776e657220697320746865207a65726f206160408201526564647265737360d01b606082015260800190565b602080825260119082015270696e6478206f7574206f662072616e676560781b604082015260600190565b6020808252818101527f4f776e61626c653a2063616c6c6572206973206e6f7420746865206f776e6572604082015260600190565b60208082526017908201527f5374617274496e646578206f7574206f662072616e6765000000000000000000604082015260600190565b90815260200190565b60008219821115610a8557610a85610abc565b500190565b600082821015610a9c57610a9c610abc565b500390565b6000600019821415610ab557610ab5610abc565b5060010190565b634e487b7160e01b600052601160045260246000fdfea26469706673582212200bb41564b28700f3bc6361e8a11bfc194de8a0bf9412b34c09224f52a50b626e64736f6c63430008000033",
  "immutableReferences": {},
  "source": "// SPDX-License-Identifier: MIT\npragma solidity ^0.8;\nimport \"@openzeppelin/contracts/access/Ownable.sol\";\nimport \"./NFT_Medal_Bkg_Desc.sol\";\n\n///@dev Structure for describing MedalVerse Authors - used by AuthorHandler\nstruct Sportsman {\n\taddress userAddress; // address used as ref\n\tuint256 sportCategory; // Categories of sports supported\n\tmapping(uint256 => uint256) eventsSubscribed; // Events referenced by count\n\tmapping(uint256 => bool) eventsActivSubscription; // subscription referenced by eventsID\n\tuint256 nbEventsSubscrided;\n\tuint256 nbActivSubscriptions;\n\tuint256[] medalList;\n\tbool activ;\n}\n\n///@dev Contract Adding / Removing Authors and their creations\ncontract SportsmanHandler is Ownable {\n\t// Data ---------------------------------\n\t// - Authors -\n\tmapping(address => Sportsman) allSportsman; // Container for all the authors by address\n\taddress[] public registeredSportsman; // Array of all the authors addresses\n\n\t// Modifiers ----------------------------\n\tmodifier isNotNull(address a) virtual {\n\t\trequire(a != address(0));\n\t\t_;\n\t}\n\tmodifier isNotNullUint256(uint256 a) virtual {\n\t\trequire(a != 0);\n\t\t_;\n\t}\n\t// Events -------------------------------\n\tevent sportsmanAdded(address usrAddr);\n\tevent sportsmanRegisterdEvent(address usrAddr, uint256 eventID);\n\tevent sportsmanUnregisterdEvent(address usrAddr, uint256 eventID);\n\tevent sportsmanMedalAdded(address sportsmanId, uint256 medalID);\n\n\t// Methods -------------------------------\n\t///@dev Register an author, given an address\n\t///@param _user Address of the user to register as author\n\tfunction addSportsman(address _user, uint256 _sportCategory)\n\t\tinternal\n\t\tonlyOwner\n\t\tisNotNull(_user)\n\t{\n\t\tregisteredSportsman.push(_user);\n\t\tSportsman storage _sportsMan = allSportsman[_user];\n\t\t_sportsMan.userAddress = _user;\n\t\t_sportsMan.sportCategory = _sportCategory;\n\t\t_sportsMan.activ = true;\n\n\t\temit sportsmanAdded(_user);\n\t}\n\n\t///@dev Sportsman registers to an Event\n\t///@param _sportsMan Address of the user sportsman\n\t///@param eventId id of the event to register to\n\tfunction registerSportsmanToEvent(address _sportsMan, uint256 eventId)\n\t\tinternal\n\t\tonlyOwner\n\t\tisNotNull(_sportsMan)\n\t\tisNotNullUint256(eventId)\n\t{\n\t\tassert(allSportsman[_sportsMan].activ);\n\t\tuint256 indx = allSportsman[_sportsMan].nbEventsSubscrided++;\n\t\tallSportsman[_sportsMan].eventsSubscribed[indx] = eventId;\n\t\tallSportsman[_sportsMan].eventsActivSubscription[eventId] = true;\n\t\tallSportsman[_sportsMan].nbActivSubscriptions++;\n\t\temit sportsmanRegisterdEvent(_sportsMan, eventId);\n\t}\n\n\t///@dev Sportsman unregisters to an Event\n\t///@param _sportsMan Address of the user sportsman\n\t///@param eventId id of the event to unregister to\n\tfunction unRegisterSportsmanFromEvent(address _sportsMan, uint256 eventId)\n\t\tprivate\n\t\tonlyOwner\n\t\tisNotNull(_sportsMan)\n\t{\n\t\tallSportsman[_sportsMan].eventsActivSubscription[eventId] = false;\n\t\tallSportsman[_sportsMan].nbActivSubscriptions--;\n\t\temit sportsmanUnregisterdEvent(_sportsMan, eventId);\n\t}\n\n\t///@dev returns the number of Sportsman\n\tfunction getNumberOfSportsman() public view returns (uint256) {\n\t\treturn registeredSportsman.length;\n\t}\n\n\tstruct SportsmanDesc {\n\t\taddress userAddress; // address used as ref\n\t\tuint256 sportCategory; // Categories of sports supported\n\t\tuint256 nbActivSubscriptions;\n\t\tbool activ;\n\t}\n\n\t///@dev returns the list of organization : they may be inactif, must test activ value\n\t///@param _start starting index amoung organizations\n\t///@param _end ending index amoung ogranizations\n\tfunction getSportsmanList(uint256 _start, uint256 _end)\n\t\tpublic\n\t\tview\n\t\tisNotNullUint256(registeredSportsman.length)\n\t\treturns (SportsmanDesc[] memory)\n\t{\n\t\trequire(_start <= _end); // check params\n\t\trequire(_start < registeredSportsman.length, \"StartIndex out of range\");\n\n\t\t// we adjust the ending value\n\t\tif (_end >= registeredSportsman.length)\n\t\t\t_end = registeredSportsman.length - 1;\n\n\t\t// creat an array for returning only usefull values\n\t\tSportsmanDesc[] memory _desc = new SportsmanDesc[](_end - _start + 1);\n\n\t\t// Fill the structure\n\t\tuint256 x = _start;\n\t\twhile (x <= _end) {\n\t\t\tSportsman storage sprt = allSportsman[registeredSportsman[x]];\n\t\t\t_desc[x - _start] = SportsmanDesc({\n\t\t\t\tuserAddress: sprt.userAddress,\n\t\t\t\tsportCategory: sprt.sportCategory,\n\t\t\t\tnbActivSubscriptions: sprt.nbActivSubscriptions,\n\t\t\t\tactiv: sprt.activ\n\t\t\t});\n\n\t\t\tx++;\n\t\t}\n\t\treturn _desc;\n\t}\n\n\t///@dev returns the nb of activ events the sportsman registered to\n\t///@param sportsmanId address of the sportsman\n\tfunction getSportsManEventsNumber(address sportsmanId)\n\t\tpublic\n\t\tview\n\t\tisNotNull(sportsmanId)\n\t\treturns (uint256)\n\t{\n\t\treturn allSportsman[sportsmanId].nbActivSubscriptions;\n\t}\n\n\t///@dev returns the list of activ events the sportsman registered to\n\t///@param sportsmanId address of the sportsman\n\tfunction getSportsmanEventsSubscriptions(\n\t\taddress sportsmanId ///@dev returns the list of activ events the sportsman registered to\n\t) public view returns (uint256[] memory) {\n\t\t// We make sure tjere are some events the user subscribed to\n\t\tassert(allSportsman[sportsmanId].nbActivSubscriptions > 0);\n\t\t//Allocate enogh entries for the resulting list\n\t\tuint256[] memory result = new uint256[](\n\t\t\tallSportsman[sportsmanId].nbActivSubscriptions\n\t\t);\n\n\t\tuint256 i = 0;\n\t\tfor (\n\t\t\tuint256 x = 0;\n\t\t\tx < allSportsman[sportsmanId].nbEventsSubscrided;\n\t\t\tx++\n\t\t) {\n\t\t\tuint256 id = allSportsman[sportsmanId].eventsSubscribed[x];\n\t\t\t// If the current subscription is active, then add it\n\t\t\tif (allSportsman[sportsmanId].eventsActivSubscription[id])\n\t\t\t\tresult[i++] = id;\n\t\t}\n\t\treturn result;\n\t}\n\n\tfunction getSportsmanMedalList(address sportsmanId)\n\t\tpublic\n\t\tview\n\t\treturns (uint256[] memory)\n\t{\n\t\treturn allSportsman[sportsmanId].medalList;\n\t}\n\n\tfunction getSportsmanMedalCount(address sportsmanId)\n\t\tpublic\n\t\tview\n\t\treturns (uint256)\n\t{\n\t\treturn allSportsman[sportsmanId].medalList.length;\n\t}\n\n\tfunction getSportsmanMedal(address sportsmanId, uint256 indx)\n\t\tpublic\n\t\tview\n\t\treturns (uint256)\n\t{\n\t\trequire(\n\t\t\tindx < allSportsman[sportsmanId].medalList.length,\n\t\t\t\"indx out of range\"\n\t\t);\n\t\treturn allSportsman[sportsmanId].medalList[indx];\n\t}\n\n\tfunction sportsmanAddMedal(address sportsmanId, uint256 medalID) public {\n\t\tallSportsman[sportsmanId].medalList.push(medalID);\n\t\temit sportsmanMedalAdded(sportsmanId, medalID);\n\t}\n}\n",
  "sourcePath": "/home/pec/Projets/MedalVerse/MedalVerse-Front/contracts/Dapp Internal Struct/SportsmanHandler.sol",
  "compiler": {
    "name": "solc",
    "version": "0.8.0+commit.c7dfd78e.Emscripten.clang"
  },
  "schemaVersion": "3.4.3",
  "updatedAt": "2022-01-03T09:54:13.568Z",
  "devdoc": {
    "details": "Contract Adding / Removing Authors and their creations",
    "kind": "dev",
    "methods": {
      "getNumberOfSportsman()": {
        "details": "returns the number of Sportsman"
      },
      "getSportsManEventsNumber(address)": {
        "details": "returns the nb of activ events the sportsman registered to",
        "params": {
          "sportsmanId": "address of the sportsman"
        }
      },
      "getSportsmanEventsSubscriptions(address)": {
        "details": "returns the list of activ events the sportsman registered to",
        "params": {
          "sportsmanId": "address of the sportsman"
        }
      },
      "getSportsmanList(uint256,uint256)": {
        "details": "returns the list of organization : they may be inactif, must test activ value",
        "params": {
          "_end": "ending index amoung ogranizations",
          "_start": "starting index amoung organizations"
        }
      },
      "owner()": {
        "details": "Returns the address of the current owner."
      },
      "renounceOwnership()": {
        "details": "Leaves the contract without owner. It will not be possible to call `onlyOwner` functions anymore. Can only be called by the current owner. NOTE: Renouncing ownership will leave the contract without an owner, thereby removing any functionality that is only available to the owner."
      },
      "transferOwnership(address)": {
        "details": "Transfers ownership of the contract to a new account (`newOwner`). Can only be called by the current owner."
      }
    },
    "version": 1
  },
  "userdoc": {
    "kind": "user",
    "methods": {},
    "version": 1
  }
}