{
  "contractName": "SportsmanHandler",
  "abi": [
    {
      "anonymous": false,
      "inputs": [
        {
          "indexed": true,
          "internalType": "address",
          "name": "previousOwner",
          "type": "address"
        },
        {
          "indexed": true,
          "internalType": "address",
          "name": "newOwner",
          "type": "address"
        }
      ],
      "name": "OwnershipTransferred",
      "type": "event"
    },
    {
      "anonymous": false,
      "inputs": [
        {
          "indexed": false,
          "internalType": "address",
          "name": "usrAddr",
          "type": "address"
        }
      ],
      "name": "sportsmanAdded",
      "type": "event"
    },
    {
      "anonymous": false,
      "inputs": [
        {
          "indexed": false,
          "internalType": "address",
          "name": "usrAddr",
          "type": "address"
        },
        {
          "indexed": false,
          "internalType": "uint256",
          "name": "eventID",
          "type": "uint256"
        }
      ],
      "name": "sportsmanRegisterdEvent",
      "type": "event"
    },
    {
      "anonymous": false,
      "inputs": [
        {
          "indexed": false,
          "internalType": "address",
          "name": "usrAddr",
          "type": "address"
        },
        {
          "indexed": false,
          "internalType": "uint256",
          "name": "eventID",
          "type": "uint256"
        }
      ],
      "name": "sportsmanUnregisterdEvent",
      "type": "event"
    },
    {
      "inputs": [],
      "name": "owner",
      "outputs": [
        {
          "internalType": "address",
          "name": "",
          "type": "address"
        }
      ],
      "stateMutability": "view",
      "type": "function"
    },
    {
      "inputs": [
        {
          "internalType": "uint256",
          "name": "",
          "type": "uint256"
        }
      ],
      "name": "registeredSportsman",
      "outputs": [
        {
          "internalType": "address",
          "name": "",
          "type": "address"
        }
      ],
      "stateMutability": "view",
      "type": "function"
    },
    {
      "inputs": [],
      "name": "renounceOwnership",
      "outputs": [],
      "stateMutability": "nonpayable",
      "type": "function"
    },
    {
      "inputs": [
        {
          "internalType": "address",
          "name": "newOwner",
          "type": "address"
        }
      ],
      "name": "transferOwnership",
      "outputs": [],
      "stateMutability": "nonpayable",
      "type": "function"
    }
  ],
  "bytecode": "0x608060405234801561001057600080fd5b5061002161001c610026565b61002a565b61007a565b3390565b600080546001600160a01b038381166001600160a01b0319831681178455604051919092169283917f8be0079c531659141344cd1fd0a4f28419497f9722a3daafe3b4186f6b6457e09190a35050565b6102fc806100896000396000f3fe608060405234801561001057600080fd5b506004361061004c5760003560e01c80634dbc196c14610051578063715018a61461007a5780638da5cb5b14610084578063f2fde38b1461008c575b600080fd5b61006461005f36600461021f565b61009f565b6040516100719190610237565b60405180910390f35b6100826100c9565b005b61006461011d565b61008261009a3660046101f1565b61012c565b600281815481106100af57600080fd5b6000918252602090912001546001600160a01b0316905081565b6100d161019d565b6001600160a01b03166100e261011d565b6001600160a01b0316146101115760405162461bcd60e51b815260040161010890610291565b60405180910390fd5b61011b60006101a1565b565b6000546001600160a01b031690565b61013461019d565b6001600160a01b031661014561011d565b6001600160a01b03161461016b5760405162461bcd60e51b815260040161010890610291565b6001600160a01b0381166101915760405162461bcd60e51b81526004016101089061024b565b61019a816101a1565b50565b3390565b600080546001600160a01b038381166001600160a01b0319831681178455604051919092169283917f8be0079c531659141344cd1fd0a4f28419497f9722a3daafe3b4186f6b6457e09190a35050565b600060208284031215610202578081fd5b81356001600160a01b0381168114610218578182fd5b9392505050565b600060208284031215610230578081fd5b5035919050565b6001600160a01b0391909116815260200190565b60208082526026908201527f4f776e61626c653a206e6577206f776e657220697320746865207a65726f206160408201526564647265737360d01b606082015260800190565b6020808252818101527f4f776e61626c653a2063616c6c6572206973206e6f7420746865206f776e657260408201526060019056fea2646970667358221220be84f0f44673bea39f927aaefec70803bb038fc86838239ae9cee4f56ac0806f64736f6c63430008000033",
  "immutableReferences": {},
  "source": "// SPDX-License-Identifier: MIT\npragma solidity ^0.8;\nimport \"@openzeppelin/contracts/access/Ownable.sol\";\nimport \"./NFT_Medal_Bkg_Desc.sol\";\n\n///@dev Structure for describing MedalVerse Authors - used by AuthorHandler\nstruct Sportsman {\n\taddress userAddress; // address used as ref\n\tuint256 sportCategory; // Number of creations\n\tmapping(uint256 => uint256) eventsSubscribed; // Events referenced by count\n\tmapping(uint256 => bool) eventsActivSubscription; // subscription referenced by eventsID\n\tuint256 nbEventsSubscrided;\n\tbool activ;\n}\n\n///@dev Contract Adding / Removing Authors and their creations\ncontract SportsmanHandler is Ownable {\n\t// Data ---------------------------------\n\t// - Authors -\n\tmapping(address => Sportsman) allSportsman; // Container for all the authors by address\n\taddress[] public registeredSportsman; // Array of all the authors addresses\n\n\t// Modifiers ----------------------------\n\tmodifier isNotNull(address a) virtual {\n\t\trequire(a != address(0));\n\t\t_;\n\t}\n\n\t// Events -------------------------------\n\tevent sportsmanAdded(address usrAddr);\n\tevent sportsmanRegisterdEvent(address usrAddr, uint256 eventID);\n\tevent sportsmanUnregisterdEvent(address usrAddr, uint256 eventID);\n\n\t// Methods -------------------------------\n\t///@dev Register an author, given an address\n\t///@param _user Address of the user to register as author\n\tfunction addAuthor(address _user, uint256 _sportCategory)\n\t\tprivate\n\t\tonlyOwner\n\t\tisNotNull(_user)\n\t{\n\t\tregisteredSportsman.push(_user);\n\t\tSportsman storage _sportsMan = allSportsman[_user];\n\t\t_sportsMan.userAddress = _user;\n\t\t_sportsMan.sportCategory = _sportCategory;\n\t\t_sportsMan.activ = true;\n\n\t\temit sportsmanAdded(_user);\n\t}\n\n\t///@dev Sportsman registers to an Event\n\t///@param _sportsMan Address of the user sportsman\n\t///@param eventId id of the event to register to\n\tfunction registerEvent(address _sportsMan, uint256 eventId)\n\t\tprivate\n\t\tonlyOwner\n\t\tisNotNull(_sportsMan)\n\t{\n\t\tassert(allSportsman[_sportsMan].activ);\n\t\tallSportsman[_sportsMan].eventsSubscribed[\n\t\t\tallSportsman[_sportsMan].nbEventsSubscrided++\n\t\t] = eventId;\n\t\tallSportsman[_sportsMan].eventsActivSubscription[eventId] = true;\n\t\temit sportsmanRegisterdEvent(_sportsMan, eventId);\n\t}\n\n\t///@dev Sportsman unregisters to an Event\n\t///@param _sportsMan Address of the user sportsman\n\t///@param eventId id of the event to unregister to\n\tfunction unRegisterEvent(address _sportsMan, uint256 eventId)\n\t\tprivate\n\t\tonlyOwner\n\t\tisNotNull(_sportsMan)\n\t{\n\t\tallSportsman[_sportsMan].eventsActivSubscription[eventId] = false;\n\t\temit sportsmanUnregisterdEvent(_sportsMan, eventId);\n\t}\n}\n",
  "sourcePath": "/home/pec/Projets/MedalVerse/MedalVerse-Front/contracts/Dapp Internal Struct/SportsmanHandler.sol",
  "compiler": {
    "name": "solc",
    "version": "0.8.0+commit.c7dfd78e.Emscripten.clang"
  },
  "schemaVersion": "3.4.3",
  "updatedAt": "2021-12-19T16:42:28.603Z",
  "devdoc": {
    "details": "Contract Adding / Removing Authors and their creations",
    "kind": "dev",
    "methods": {
      "owner()": {
        "details": "Returns the address of the current owner."
      },
      "renounceOwnership()": {
        "details": "Leaves the contract without owner. It will not be possible to call `onlyOwner` functions anymore. Can only be called by the current owner. NOTE: Renouncing ownership will leave the contract without an owner, thereby removing any functionality that is only available to the owner."
      },
      "transferOwnership(address)": {
        "details": "Transfers ownership of the contract to a new account (`newOwner`). Can only be called by the current owner."
      }
    },
    "version": 1
  },
  "userdoc": {
    "kind": "user",
    "methods": {},
    "version": 1
  }
}