{
  "contractName": "SportsmanHandler",
  "abi": [
    {
      "anonymous": false,
      "inputs": [
        {
          "indexed": true,
          "internalType": "address",
          "name": "previousOwner",
          "type": "address"
        },
        {
          "indexed": true,
          "internalType": "address",
          "name": "newOwner",
          "type": "address"
        }
      ],
      "name": "OwnershipTransferred",
      "type": "event"
    },
    {
      "anonymous": false,
      "inputs": [
        {
          "indexed": false,
          "internalType": "address",
          "name": "usrAddr",
          "type": "address"
        }
      ],
      "name": "sportsmanAdded",
      "type": "event"
    },
    {
      "anonymous": false,
      "inputs": [
        {
          "indexed": false,
          "internalType": "address",
          "name": "sportsmanId",
          "type": "address"
        },
        {
          "indexed": false,
          "internalType": "uint256",
          "name": "medalID",
          "type": "uint256"
        }
      ],
      "name": "sportsmanMedalAdded",
      "type": "event"
    },
    {
      "anonymous": false,
      "inputs": [
        {
          "indexed": false,
          "internalType": "address",
          "name": "usrAddr",
          "type": "address"
        },
        {
          "indexed": false,
          "internalType": "uint256",
          "name": "eventID",
          "type": "uint256"
        }
      ],
      "name": "sportsmanRegisterdEvent",
      "type": "event"
    },
    {
      "anonymous": false,
      "inputs": [
        {
          "indexed": false,
          "internalType": "address",
          "name": "usrAddr",
          "type": "address"
        },
        {
          "indexed": false,
          "internalType": "uint256",
          "name": "eventID",
          "type": "uint256"
        }
      ],
      "name": "sportsmanUnregisterdEvent",
      "type": "event"
    },
    {
      "inputs": [],
      "name": "owner",
      "outputs": [
        {
          "internalType": "address",
          "name": "",
          "type": "address"
        }
      ],
      "stateMutability": "view",
      "type": "function"
    },
    {
      "inputs": [
        {
          "internalType": "uint256",
          "name": "",
          "type": "uint256"
        }
      ],
      "name": "registeredSportsman",
      "outputs": [
        {
          "internalType": "address",
          "name": "",
          "type": "address"
        }
      ],
      "stateMutability": "view",
      "type": "function"
    },
    {
      "inputs": [],
      "name": "renounceOwnership",
      "outputs": [],
      "stateMutability": "nonpayable",
      "type": "function"
    },
    {
      "inputs": [
        {
          "internalType": "address",
          "name": "newOwner",
          "type": "address"
        }
      ],
      "name": "transferOwnership",
      "outputs": [],
      "stateMutability": "nonpayable",
      "type": "function"
    },
    {
      "inputs": [],
      "name": "getNumberOfSportsman",
      "outputs": [
        {
          "internalType": "uint256",
          "name": "",
          "type": "uint256"
        }
      ],
      "stateMutability": "view",
      "type": "function"
    },
    {
      "inputs": [
        {
          "internalType": "uint256",
          "name": "_start",
          "type": "uint256"
        },
        {
          "internalType": "uint256",
          "name": "_end",
          "type": "uint256"
        }
      ],
      "name": "getSportsmanList",
      "outputs": [
        {
          "components": [
            {
              "internalType": "address",
              "name": "userAddress",
              "type": "address"
            },
            {
              "internalType": "uint256",
              "name": "sportCategory",
              "type": "uint256"
            },
            {
              "internalType": "uint256",
              "name": "nbActivSubscriptions",
              "type": "uint256"
            },
            {
              "internalType": "bool",
              "name": "activ",
              "type": "bool"
            }
          ],
          "internalType": "struct SportsmanHandler.SportsmanDesc[]",
          "name": "",
          "type": "tuple[]"
        }
      ],
      "stateMutability": "view",
      "type": "function"
    },
    {
      "inputs": [
        {
          "internalType": "address",
          "name": "sportsmanId",
          "type": "address"
        }
      ],
      "name": "getSportsManEventsNumber",
      "outputs": [
        {
          "internalType": "uint256",
          "name": "",
          "type": "uint256"
        }
      ],
      "stateMutability": "view",
      "type": "function"
    },
    {
      "inputs": [
        {
          "internalType": "address",
          "name": "sportsmanId",
          "type": "address"
        }
      ],
      "name": "getSportsmanEventsSubscriptions",
      "outputs": [
        {
          "internalType": "uint256[]",
          "name": "",
          "type": "uint256[]"
        }
      ],
      "stateMutability": "view",
      "type": "function"
    },
    {
      "inputs": [
        {
          "internalType": "address",
          "name": "sportsmanId",
          "type": "address"
        }
      ],
      "name": "getSportsmanMedalList",
      "outputs": [
        {
          "internalType": "uint256[]",
          "name": "",
          "type": "uint256[]"
        }
      ],
      "stateMutability": "view",
      "type": "function"
    },
    {
      "inputs": [
        {
          "internalType": "address",
          "name": "sportsmanId",
          "type": "address"
        }
      ],
      "name": "getSportsmanMedalCount",
      "outputs": [
        {
          "internalType": "uint256",
          "name": "",
          "type": "uint256"
        }
      ],
      "stateMutability": "view",
      "type": "function"
    },
    {
      "inputs": [
        {
          "internalType": "address",
          "name": "sportsmanId",
          "type": "address"
        },
        {
          "internalType": "uint256",
          "name": "indx",
          "type": "uint256"
        }
      ],
      "name": "getSportsmanMedal",
      "outputs": [
        {
          "internalType": "uint256",
          "name": "",
          "type": "uint256"
        }
      ],
      "stateMutability": "view",
      "type": "function"
    }
  ],
  "bytecode": "0x608060405234801561001057600080fd5b5061002161001c610026565b61002a565b61007a565b3390565b600080546001600160a01b038381166001600160a01b0319831681178455604051919092169283917f8be0079c531659141344cd1fd0a4f28419497f9722a3daafe3b4186f6b6457e09190a35050565b610a68806100896000396000f3fe608060405234801561001057600080fd5b50600436106100a95760003560e01c806375bb71741161007157806375bb7174146101345780638da5cb5b1461013c5780639847587a14610144578063eebd127414610157578063f2fde38b1461016a578063fd395fc51461017d576100a9565b80632bd0e1cc146100ae5780633a6526fb146100d75780633da21e3a146100f75780634dbc196c1461010a578063715018a61461012a575b600080fd5b6100c16100bc3660046107a2565b61019d565b6040516100ce91906108a8565b60405180910390f35b6100ea6100e53660046107a2565b61020d565b6040516100ce91906109c9565b6100ea6101053660046107c3565b61022b565b61011d6101183660046107ec565b6102bc565b6040516100ce9190610825565b6101326102e6565b005b6100ea610331565b61011d610337565b6100ea6101523660046107a2565b610346565b6100c16101653660046107a2565b61037c565b6101326101783660046107a2565b6104de565b61019061018b366004610804565b61054f565b6040516100ce9190610839565b6001600160a01b03811660009081526001602090815260409182902060060180548351818402810184019094528084526060939283018282801561020057602002820191906000526020600020905b8154815260200190600101908083116101ec575b505050505090505b919050565b6001600160a01b031660009081526001602052604090206006015490565b6001600160a01b038216600090815260016020526040812060060154821061026e5760405162461bcd60e51b815260040161026590610932565b60405180910390fd5b6001600160a01b03831660009081526001602052604090206006018054839081106102a957634e487b7160e01b600052603260045260246000fd5b9060005260206000200154905092915050565b600281815481106102cc57600080fd5b6000918252602090912001546001600160a01b0316905081565b6102ee610704565b6001600160a01b03166102ff610337565b6001600160a01b0316146103255760405162461bcd60e51b81526004016102659061095d565b61032f6000610708565b565b60025490565b6000546001600160a01b031690565b6000816001600160a01b03811661035c57600080fd5b50506001600160a01b031660009081526001602052604090206005015490565b6001600160a01b0381166000908152600160205260409020600501546060906103b557634e487b7160e01b600052600160045260246000fd5b6001600160a01b03821660009081526001602052604081206005015467ffffffffffffffff8111156103f757634e487b7160e01b600052604160045260246000fd5b604051908082528060200260200182016040528015610420578160200160208202803683370190505b5090506000805b6001600160a01b0385166000908152600160205260409020600401548110156104d5576001600160a01b03851660009081526001602090815260408083208484526002810183528184205480855260039091019092529091205460ff16156104c25780848461049581610a01565b9550815181106104b557634e487b7160e01b600052603260045260246000fd5b6020026020010181815250505b50806104cd81610a01565b915050610427565b50909392505050565b6104e6610704565b6001600160a01b03166104f7610337565b6001600160a01b03161461051d5760405162461bcd60e51b81526004016102659061095d565b6001600160a01b0381166105435760405162461bcd60e51b8152600401610265906108ec565b61054c81610708565b50565b6002546060908061055f57600080fd5b8284111561056c57600080fd5b600254841061058d5760405162461bcd60e51b815260040161026590610992565b60025483106105a8576002546105a5906001906109ea565b92505b60006105b485856109ea565b6105bf9060016109d2565b67ffffffffffffffff8111156105e557634e487b7160e01b600052604160045260246000fd5b60405190808252806020026020018201604052801561061e57816020015b61060b610758565b8152602001906001900390816106035790505b509050845b8481116106fb576000600160006002848154811061065157634e487b7160e01b600052603260045260246000fd5b60009182526020808320909101546001600160a01b039081168452838201949094526040928301909120825160808101845281549094168452600181015491840191909152600581015491830191909152600781015460ff16151560608301529150836106be89856109ea565b815181106106dc57634e487b7160e01b600052603260045260246000fd5b602002602001018190525081806106f290610a01565b92505050610623565b50949350505050565b3390565b600080546001600160a01b038381166001600160a01b0319831681178455604051919092169283917f8be0079c531659141344cd1fd0a4f28419497f9722a3daafe3b4186f6b6457e09190a35050565b604051806080016040528060006001600160a01b0316815260200160008152602001600081526020016000151581525090565b80356001600160a01b038116811461020857600080fd5b6000602082840312156107b3578081fd5b6107bc8261078b565b9392505050565b600080604083850312156107d5578081fd5b6107de8361078b565b946020939093013593505050565b6000602082840312156107fd578081fd5b5035919050565b60008060408385031215610816578182fd5b50508035926020909101359150565b6001600160a01b0391909116815260200190565b602080825282518282018190526000919060409081850190868401855b8281101561089b57815180516001600160a01b031685528681015187860152858101518686015260609081015115159085015260809093019290850190600101610856565b5091979650505050505050565b6020808252825182820181905260009190848201906040850190845b818110156108e0578351835292840192918401916001016108c4565b50909695505050505050565b60208082526026908201527f4f776e61626c653a206e6577206f776e657220697320746865207a65726f206160408201526564647265737360d01b606082015260800190565b602080825260119082015270696e6478206f7574206f662072616e676560781b604082015260600190565b6020808252818101527f4f776e61626c653a2063616c6c6572206973206e6f7420746865206f776e6572604082015260600190565b60208082526017908201527f5374617274496e646578206f7574206f662072616e6765000000000000000000604082015260600190565b90815260200190565b600082198211156109e5576109e5610a1c565b500190565b6000828210156109fc576109fc610a1c565b500390565b6000600019821415610a1557610a15610a1c565b5060010190565b634e487b7160e01b600052601160045260246000fdfea2646970667358221220cdb813223e9b1db644b10130e54e069b56256b388a1672a4ff5a52b892ca202664736f6c63430008000033",
  "immutableReferences": {},
  "source": "// SPDX-License-Identifier: MIT\r\npragma solidity ^0.8;\r\nimport \"@openzeppelin/contracts/access/Ownable.sol\";\r\nimport \"./NFT_Medal_Bkg_Desc.sol\";\r\n\r\n///@dev Structure for describing MedalVerse Authors - used by AuthorHandler\r\nstruct Sportsman {\r\n\taddress userAddress; // address used as ref\r\n\tuint256 sportCategory; // Categories of sports supported\r\n\tmapping(uint256 => uint256) eventsSubscribed; // Events referenced by count\r\n\tmapping(uint256 => bool) eventsActivSubscription; // subscription referenced by eventsID\r\n\tuint256 nbEventsSubscrided;\r\n\tuint256 nbActivSubscriptions;\r\n\tuint256[] medalList;\r\n\tbool activ;\r\n}\r\n\r\n///@dev Contract Adding / Removing Authors and their creations\r\ncontract SportsmanHandler is Ownable {\r\n\t// Data ---------------------------------\r\n\t// - Authors -\r\n\tmapping(address => Sportsman) allSportsman; // Container for all the authors by address\r\n\taddress[] public registeredSportsman; // Array of all the authors addresses\r\n\r\n\t// Modifiers ----------------------------\r\n\tmodifier isNotNull(address a) virtual {\r\n\t\trequire(a != address(0));\r\n\t\t_;\r\n\t}\r\n\tmodifier isNotNullUint256(uint256 a) virtual {\r\n\t\trequire(a != 0);\r\n\t\t_;\r\n\t}\r\n\t// Events -------------------------------\r\n\tevent sportsmanAdded(address usrAddr);\r\n\tevent sportsmanRegisterdEvent(address usrAddr, uint256 eventID);\r\n\tevent sportsmanUnregisterdEvent(address usrAddr, uint256 eventID);\r\n\tevent sportsmanMedalAdded(address sportsmanId, uint256 medalID);\r\n\r\n\t// Methods -------------------------------\r\n\t///@dev Register an author, given an address\r\n\t///@param _user Address of the user to register as author\r\n\tfunction addSportsman(address _user, uint256 _sportCategory)\r\n\t\tinternal\r\n\t\tonlyOwner\r\n\t\tisNotNull(_user)\r\n\t{\r\n\t\tregisteredSportsman.push(_user);\r\n\t\tSportsman storage _sportsMan = allSportsman[_user];\r\n\t\t_sportsMan.userAddress = _user;\r\n\t\t_sportsMan.sportCategory = _sportCategory;\r\n\t\t_sportsMan.activ = true;\r\n\r\n\t\temit sportsmanAdded(_user);\r\n\t}\r\n\r\n\t///@dev Sportsman registers to an Event\r\n\t///@param _sportsMan Address of the user sportsman\r\n\t///@param eventId id of the event to register to\r\n\tfunction registerSportsmanToEvent(address _sportsMan, uint256 eventId)\r\n\t\tinternal\r\n\t\tonlyOwner\r\n\t\tisNotNull(_sportsMan)\r\n\t\tisNotNullUint256(eventId)\r\n\t{\r\n\t\tassert(allSportsman[_sportsMan].activ);\r\n\t\tuint256 indx = allSportsman[_sportsMan].nbEventsSubscrided++;\r\n\t\tallSportsman[_sportsMan].eventsSubscribed[indx] = eventId;\r\n\t\tallSportsman[_sportsMan].eventsActivSubscription[eventId] = true;\r\n\t\tallSportsman[_sportsMan].nbActivSubscriptions++;\r\n\t\temit sportsmanRegisterdEvent(_sportsMan, eventId);\r\n\t}\r\n\r\n\t///@dev Sportsman unregisters to an Event\r\n\t///@param _sportsMan Address of the user sportsman\r\n\t///@param eventId id of the event to unregister to\r\n\tfunction unRegisterSportsmanFromEvent(address _sportsMan, uint256 eventId)\r\n\t\tprivate\r\n\t\tonlyOwner\r\n\t\tisNotNull(_sportsMan)\r\n\t{\r\n\t\tallSportsman[_sportsMan].eventsActivSubscription[eventId] = false;\r\n\t\tallSportsman[_sportsMan].nbActivSubscriptions--;\r\n\t\temit sportsmanUnregisterdEvent(_sportsMan, eventId);\r\n\t}\r\n\r\n\t///@dev returns the number of Sportsman\r\n\tfunction getNumberOfSportsman() public view returns (uint256) {\r\n\t\treturn registeredSportsman.length;\r\n\t}\r\n\r\n\tstruct SportsmanDesc {\r\n\t\taddress userAddress; // address used as ref\r\n\t\tuint256 sportCategory; // Categories of sports supported\r\n\t\tuint256 nbActivSubscriptions;\r\n\t\tbool activ;\r\n\t}\r\n\r\n\t///@dev returns the list of organization : they may be inactif, must test activ value\r\n\t///@param _start starting index amoung organizations\r\n\t///@param _end ending index amoung ogranizations\r\n\tfunction getSportsmanList(uint256 _start, uint256 _end)\r\n\t\tpublic\r\n\t\tview\r\n\t\tisNotNullUint256(registeredSportsman.length)\r\n\t\treturns (SportsmanDesc[] memory)\r\n\t{\r\n\t\trequire(_start <= _end); // check params\r\n\t\trequire(_start < registeredSportsman.length, \"StartIndex out of range\");\r\n\r\n\t\t// we adjust the ending value\r\n\t\tif (_end >= registeredSportsman.length)\r\n\t\t\t_end = registeredSportsman.length - 1;\r\n\r\n\t\t// creat an array for returning only usefull values\r\n\t\tSportsmanDesc[] memory _desc = new SportsmanDesc[](_end - _start + 1);\r\n\r\n\t\t// Fill the structure\r\n\t\tuint256 x = _start;\r\n\t\twhile (x <= _end) {\r\n\t\t\tSportsman storage sprt = allSportsman[registeredSportsman[x]];\r\n\t\t\t_desc[x - _start] = SportsmanDesc({\r\n\t\t\t\tuserAddress: sprt.userAddress,\r\n\t\t\t\tsportCategory: sprt.sportCategory,\r\n\t\t\t\tnbActivSubscriptions: sprt.nbActivSubscriptions,\r\n\t\t\t\tactiv: sprt.activ\r\n\t\t\t});\r\n\r\n\t\t\tx++;\r\n\t\t}\r\n\t\treturn _desc;\r\n\t}\r\n\r\n\t///@dev returns the nb of activ events the sportsman registered to\r\n\t///@param sportsmanId address of the sportsman\r\n\tfunction getSportsManEventsNumber(address sportsmanId)\r\n\t\tpublic\r\n\t\tview\r\n\t\tisNotNull(sportsmanId)\r\n\t\treturns (uint256)\r\n\t{\r\n\t\treturn allSportsman[sportsmanId].nbActivSubscriptions;\r\n\t}\r\n\r\n\t///@dev returns the list of activ events the sportsman registered to\r\n\t///@param sportsmanId address of the sportsman\r\n\tfunction getSportsmanEventsSubscriptions(\r\n\t\taddress sportsmanId ///@dev returns the list of activ events the sportsman registered to\r\n\t) public view returns (uint256[] memory) {\r\n\t\t// We make sure tjere are some events the user subscribed to\r\n\t\tassert(allSportsman[sportsmanId].nbActivSubscriptions > 0);\r\n\t\t//Allocate enogh entries for the resulting list\r\n\t\tuint256[] memory result = new uint256[](\r\n\t\t\tallSportsman[sportsmanId].nbActivSubscriptions\r\n\t\t);\r\n\r\n\t\tuint256 i = 0;\r\n\t\tfor (\r\n\t\t\tuint256 x = 0;\r\n\t\t\tx < allSportsman[sportsmanId].nbEventsSubscrided;\r\n\t\t\tx++\r\n\t\t) {\r\n\t\t\tuint256 id = allSportsman[sportsmanId].eventsSubscribed[x];\r\n\t\t\t// If the current subscription is active, then add it\r\n\t\t\tif (allSportsman[sportsmanId].eventsActivSubscription[id])\r\n\t\t\t\tresult[i++] = id;\r\n\t\t}\r\n\t\treturn result;\r\n\t}\r\n\r\n\tfunction getSportsmanMedalList(address sportsmanId)\r\n\t\tpublic\r\n\t\tview\r\n\t\treturns (uint256[] memory)\r\n\t{\r\n\t\treturn allSportsman[sportsmanId].medalList;\r\n\t}\r\n\r\n\tfunction getSportsmanMedalCount(address sportsmanId)\r\n\t\tpublic\r\n\t\tview\r\n\t\treturns (uint256)\r\n\t{\r\n\t\treturn allSportsman[sportsmanId].medalList.length;\r\n\t}\r\n\r\n\tfunction getSportsmanMedal(address sportsmanId, uint256 indx)\r\n\t\tpublic\r\n\t\tview\r\n\t\treturns (uint256)\r\n\t{\r\n\t\trequire(\r\n\t\t\tindx < allSportsman[sportsmanId].medalList.length,\r\n\t\t\t\"indx out of range\"\r\n\t\t);\r\n\t\treturn allSportsman[sportsmanId].medalList[indx];\r\n\t}\r\n\r\n\tfunction sportsmanAddMedal(address sportsmanId, uint256 medalID) internal {\r\n\t\tallSportsman[sportsmanId].medalList.push(medalID);\r\n\t\temit sportsmanMedalAdded(sportsmanId, medalID);\r\n\t}\r\n}\r\n",
  "sourcePath": "C:\\DEV\\ETH\\Alyra\\MedalVerse\\MedalVerse-Front\\contracts\\Dapp Internal Struct\\SportsmanHandler.sol",
  "compiler": {
    "name": "solc",
    "version": "0.8.0+commit.c7dfd78e.Emscripten.clang"
  },
  "schemaVersion": "3.4.4",
  "updatedAt": "2022-01-06T11:11:37.518Z",
  "devdoc": {
    "details": "Contract Adding / Removing Authors and their creations",
    "kind": "dev",
    "methods": {
      "getNumberOfSportsman()": {
        "details": "returns the number of Sportsman"
      },
      "getSportsManEventsNumber(address)": {
        "details": "returns the nb of activ events the sportsman registered to",
        "params": {
          "sportsmanId": "address of the sportsman"
        }
      },
      "getSportsmanEventsSubscriptions(address)": {
        "details": "returns the list of activ events the sportsman registered to",
        "params": {
          "sportsmanId": "address of the sportsman"
        }
      },
      "getSportsmanList(uint256,uint256)": {
        "details": "returns the list of organization : they may be inactif, must test activ value",
        "params": {
          "_end": "ending index amoung ogranizations",
          "_start": "starting index amoung organizations"
        }
      },
      "owner()": {
        "details": "Returns the address of the current owner."
      },
      "renounceOwnership()": {
        "details": "Leaves the contract without owner. It will not be possible to call `onlyOwner` functions anymore. Can only be called by the current owner. NOTE: Renouncing ownership will leave the contract without an owner, thereby removing any functionality that is only available to the owner."
      },
      "transferOwnership(address)": {
        "details": "Transfers ownership of the contract to a new account (`newOwner`). Can only be called by the current owner."
      }
    },
    "version": 1
  },
  "userdoc": {
    "kind": "user",
    "methods": {},
    "version": 1
  }
}