{
  "contractName": "SportsmanHandler",
  "abi": [
    {
      "anonymous": false,
      "inputs": [
        {
          "indexed": true,
          "internalType": "address",
          "name": "previousOwner",
          "type": "address"
        },
        {
          "indexed": true,
          "internalType": "address",
          "name": "newOwner",
          "type": "address"
        }
      ],
      "name": "OwnershipTransferred",
      "type": "event"
    },
    {
      "anonymous": false,
      "inputs": [
        {
          "indexed": false,
          "internalType": "address",
          "name": "usrAddr",
          "type": "address"
        }
      ],
      "name": "sportsmanAdded",
      "type": "event"
    },
    {
      "anonymous": false,
      "inputs": [
        {
          "indexed": false,
          "internalType": "address",
          "name": "sportsmanId",
          "type": "address"
        },
        {
          "indexed": false,
          "internalType": "uint256",
          "name": "medalID",
          "type": "uint256"
        }
      ],
      "name": "sportsmanMedalAdded",
      "type": "event"
    },
    {
      "anonymous": false,
      "inputs": [
        {
          "indexed": false,
          "internalType": "address",
          "name": "usrAddr",
          "type": "address"
        },
        {
          "indexed": false,
          "internalType": "uint256",
          "name": "eventID",
          "type": "uint256"
        }
      ],
      "name": "sportsmanRegisterdEvent",
      "type": "event"
    },
    {
      "anonymous": false,
      "inputs": [
        {
          "indexed": false,
          "internalType": "address",
          "name": "usrAddr",
          "type": "address"
        },
        {
          "indexed": false,
          "internalType": "uint256",
          "name": "eventID",
          "type": "uint256"
        }
      ],
      "name": "sportsmanUnregisterdEvent",
      "type": "event"
    },
    {
      "inputs": [],
      "name": "owner",
      "outputs": [
        {
          "internalType": "address",
          "name": "",
          "type": "address"
        }
      ],
      "stateMutability": "view",
      "type": "function"
    },
    {
      "inputs": [
        {
          "internalType": "uint256",
          "name": "",
          "type": "uint256"
        }
      ],
      "name": "registeredSportsman",
      "outputs": [
        {
          "internalType": "address",
          "name": "",
          "type": "address"
        }
      ],
      "stateMutability": "view",
      "type": "function"
    },
    {
      "inputs": [],
      "name": "renounceOwnership",
      "outputs": [],
      "stateMutability": "nonpayable",
      "type": "function"
    },
    {
      "inputs": [
        {
          "internalType": "address",
          "name": "newOwner",
          "type": "address"
        }
      ],
      "name": "transferOwnership",
      "outputs": [],
      "stateMutability": "nonpayable",
      "type": "function"
    },
    {
      "inputs": [],
      "name": "getNumberOfSportsman",
      "outputs": [
        {
          "internalType": "uint256",
          "name": "",
          "type": "uint256"
        }
      ],
      "stateMutability": "view",
      "type": "function"
    },
    {
      "inputs": [
        {
          "internalType": "uint256",
          "name": "_start",
          "type": "uint256"
        },
        {
          "internalType": "uint256",
          "name": "_end",
          "type": "uint256"
        }
      ],
      "name": "getSportsmanList",
      "outputs": [
        {
          "components": [
            {
              "internalType": "address",
              "name": "userAddress",
              "type": "address"
            },
            {
              "internalType": "uint256",
              "name": "sportCategory",
              "type": "uint256"
            },
            {
              "internalType": "uint256",
              "name": "nbActivSubscriptions",
              "type": "uint256"
            },
            {
              "internalType": "bool",
              "name": "activ",
              "type": "bool"
            }
          ],
          "internalType": "struct SportsmanHandler.SportsmanDesc[]",
          "name": "",
          "type": "tuple[]"
        }
      ],
      "stateMutability": "view",
      "type": "function"
    },
    {
      "inputs": [
        {
          "internalType": "address",
          "name": "sportsmanId",
          "type": "address"
        }
      ],
      "name": "getSportsManEventsNumber",
      "outputs": [
        {
          "internalType": "uint256",
          "name": "",
          "type": "uint256"
        }
      ],
      "stateMutability": "view",
      "type": "function"
    },
    {
      "inputs": [
        {
          "internalType": "address",
          "name": "sportsmanId",
          "type": "address"
        }
      ],
      "name": "getSportsmanEventsSubscriptions",
      "outputs": [
        {
          "internalType": "uint256[]",
          "name": "",
          "type": "uint256[]"
        }
      ],
      "stateMutability": "view",
      "type": "function"
    },
    {
      "inputs": [
        {
          "internalType": "address",
          "name": "sportsmanId",
          "type": "address"
        }
      ],
      "name": "getSportsmanMedalList",
      "outputs": [
        {
          "internalType": "uint256[]",
          "name": "",
          "type": "uint256[]"
        }
      ],
      "stateMutability": "view",
      "type": "function"
    },
    {
      "inputs": [
        {
          "internalType": "address",
          "name": "sportsmanId",
          "type": "address"
        }
      ],
      "name": "getSportsmanMedalCount",
      "outputs": [
        {
          "internalType": "uint256",
          "name": "",
          "type": "uint256"
        }
      ],
      "stateMutability": "view",
      "type": "function"
    },
    {
      "inputs": [
        {
          "internalType": "address",
          "name": "sportsmanId",
          "type": "address"
        },
        {
          "internalType": "uint256",
          "name": "indx",
          "type": "uint256"
        }
      ],
      "name": "getSportsmanMedal",
      "outputs": [
        {
          "internalType": "uint256",
          "name": "",
          "type": "uint256"
        }
      ],
      "stateMutability": "view",
      "type": "function"
    }
  ],
  "bytecode": "0x608060405234801561001057600080fd5b5061002161001c610026565b61002a565b61007a565b3390565b600080546001600160a01b038381166001600160a01b0319831681178455604051919092169283917f8be0079c531659141344cd1fd0a4f28419497f9722a3daafe3b4186f6b6457e09190a35050565b610a50806100896000396000f3fe608060405234801561001057600080fd5b50600436106100995760003560e01c80632bd0e1cc1461009e5780633a6526fb146100c75780633da21e3a146100e75780634dbc196c146100fa578063715018a61461011a57806375bb7174146101245780638da5cb5b1461012c5780639847587a14610134578063eebd127414610147578063f2fde38b1461015a578063fd395fc51461016d575b600080fd5b6100b16100ac366004610790565b61018d565b6040516100be9190610896565b60405180910390f35b6100da6100d5366004610790565b6101fd565b6040516100be91906109b1565b6100da6100f53660046107b1565b61021b565b61010d6101083660046107da565b6102ac565b6040516100be9190610813565b6101226102d6565b005b6100da610321565b61010d610327565b6100da610142366004610790565b610336565b6100b1610155366004610790565b61036c565b610122610168366004610790565b6104cd565b61018061017b3660046107f2565b61053e565b6040516100be9190610827565b6001600160a01b0381166000908152600160209081526040918290206006018054835181840281018401909452808452606093928301828280156101f057602002820191906000526020600020905b8154815260200190600101908083116101dc575b505050505090505b919050565b6001600160a01b031660009081526001602052604090206006015490565b6001600160a01b038216600090815260016020526040812060060154821061025e5760405162461bcd60e51b815260040161025590610920565b60405180910390fd5b6001600160a01b038316600090815260016020526040902060060180548390811061029957634e487b7160e01b600052603260045260246000fd5b9060005260206000200154905092915050565b600281815481106102bc57600080fd5b6000918252602090912001546001600160a01b0316905081565b6102de6106f2565b6001600160a01b03166102ef610327565b6001600160a01b0316146103155760405162461bcd60e51b81526004016102559061094b565b61031f60006106f6565b565b60025490565b6000546001600160a01b031690565b6000816001600160a01b03811661034c57600080fd5b50506001600160a01b031660009081526001602052604090206005015490565b6001600160a01b0381166000908152600160205260409020600501546060906103a557634e487b7160e01b600052600160045260246000fd5b6001600160a01b0382166000908152600160205260408120600501546001600160401b038111156103e657634e487b7160e01b600052604160045260246000fd5b60405190808252806020026020018201604052801561040f578160200160208202803683370190505b5090506000805b6001600160a01b0385166000908152600160205260409020600401548110156104c4576001600160a01b03851660009081526001602090815260408083208484526002810183528184205480855260039091019092529091205460ff16156104b157808484610484816109e9565b9550815181106104a457634e487b7160e01b600052603260045260246000fd5b6020026020010181815250505b50806104bc816109e9565b915050610416565b50909392505050565b6104d56106f2565b6001600160a01b03166104e6610327565b6001600160a01b03161461050c5760405162461bcd60e51b81526004016102559061094b565b6001600160a01b0381166105325760405162461bcd60e51b8152600401610255906108da565b61053b816106f6565b50565b6002546060908061054e57600080fd5b8284111561055b57600080fd5b600254841061057c5760405162461bcd60e51b815260040161025590610980565b600254831061059757600254610594906001906109d2565b92505b60006105a385856109d2565b6105ae9060016109ba565b6001600160401b038111156105d357634e487b7160e01b600052604160045260246000fd5b60405190808252806020026020018201604052801561060c57816020015b6105f9610746565b8152602001906001900390816105f15790505b509050845b8481116106e9576000600160006002848154811061063f57634e487b7160e01b600052603260045260246000fd5b60009182526020808320909101546001600160a01b039081168452838201949094526040928301909120825160808101845281549094168452600181015491840191909152600581015491830191909152600781015460ff16151560608301529150836106ac89856109d2565b815181106106ca57634e487b7160e01b600052603260045260246000fd5b602002602001018190525081806106e0906109e9565b92505050610611565b50949350505050565b3390565b600080546001600160a01b038381166001600160a01b0319831681178455604051919092169283917f8be0079c531659141344cd1fd0a4f28419497f9722a3daafe3b4186f6b6457e09190a35050565b604051806080016040528060006001600160a01b0316815260200160008152602001600081526020016000151581525090565b80356001600160a01b03811681146101f857600080fd5b6000602082840312156107a1578081fd5b6107aa82610779565b9392505050565b600080604083850312156107c3578081fd5b6107cc83610779565b946020939093013593505050565b6000602082840312156107eb578081fd5b5035919050565b60008060408385031215610804578182fd5b50508035926020909101359150565b6001600160a01b0391909116815260200190565b602080825282518282018190526000919060409081850190868401855b8281101561088957815180516001600160a01b031685528681015187860152858101518686015260609081015115159085015260809093019290850190600101610844565b5091979650505050505050565b6020808252825182820181905260009190848201906040850190845b818110156108ce578351835292840192918401916001016108b2565b50909695505050505050565b60208082526026908201527f4f776e61626c653a206e6577206f776e657220697320746865207a65726f206160408201526564647265737360d01b606082015260800190565b602080825260119082015270696e6478206f7574206f662072616e676560781b604082015260600190565b6020808252818101527f4f776e61626c653a2063616c6c6572206973206e6f7420746865206f776e6572604082015260600190565b6020808252601790820152765374617274496e646578206f7574206f662072616e676560481b604082015260600190565b90815260200190565b600082198211156109cd576109cd610a04565b500190565b6000828210156109e4576109e4610a04565b500390565b60006000198214156109fd576109fd610a04565b5060010190565b634e487b7160e01b600052601160045260246000fdfea26469706673582212207981979568ec02b0992ed0f82c11e623ea92e4a481c4a9e4902d81a6356e9c8464736f6c63430008000033",
  "immutableReferences": {},
  "source": "// SPDX-License-Identifier: MIT\r\npragma solidity ^0.8;\r\nimport \"@openzeppelin/contracts/access/Ownable.sol\";\r\nimport \"./NFT_Medal_Bkg_Desc.sol\";\r\n\r\n///@dev Structure for describing MedalVerse Authors - used by AuthorHandler\r\nstruct Sportsman {\r\n\taddress userAddress; // address used as ref\r\n\tuint256 sportCategory; // Categories of sports supported\r\n\tmapping(uint256 => uint256) eventsSubscribed; // Events referenced by count\r\n\tmapping(uint256 => bool) eventsActivSubscription; // subscription referenced by eventsID\r\n\tuint256 nbEventsSubscrided;\r\n\tuint256 nbActivSubscriptions;\r\n\tuint256[] medalList;\r\n\tbool activ;\r\n}\r\n\r\n///@dev Contract Adding / Removing Authors and their creations\r\ncontract SportsmanHandler is Ownable {\r\n\t// Data ---------------------------------\r\n\t// - Authors -\r\n\tmapping(address => Sportsman) allSportsman; // Container for all the authors by address\r\n\taddress[] public registeredSportsman; // Array of all the authors addresses\r\n\r\n\t// Modifiers ----------------------------\r\n\tmodifier isNotNull(address a) virtual {\r\n\t\trequire(a != address(0));\r\n\t\t_;\r\n\t}\r\n\tmodifier isNotNullUint256(uint256 a) virtual {\r\n\t\trequire(a != 0);\r\n\t\t_;\r\n\t}\r\n\t// Events -------------------------------\r\n\tevent sportsmanAdded(address usrAddr);\r\n\tevent sportsmanRegisterdEvent(address usrAddr, uint256 eventID);\r\n\tevent sportsmanUnregisterdEvent(address usrAddr, uint256 eventID);\r\n\tevent sportsmanMedalAdded(address sportsmanId, uint256 medalID);\r\n\r\n\t// Methods -------------------------------\r\n\t///@dev Register an author, given an address\r\n\t///@param _user Address of the user to register as author\r\n\tfunction addSportsman(address _user, uint256 _sportCategory)\r\n\t\tinternal\r\n\t\tonlyOwner\r\n\t\tisNotNull(_user)\r\n\t{\r\n\t\tregisteredSportsman.push(_user);\r\n\t\tSportsman storage _sportsMan = allSportsman[_user];\r\n\t\t_sportsMan.userAddress = _user;\r\n\t\t_sportsMan.sportCategory = _sportCategory;\r\n\t\t_sportsMan.activ = true;\r\n\r\n\t\temit sportsmanAdded(_user);\r\n\t}\r\n\r\n\t///@dev Sportsman registers to an Event\r\n\t///@param _sportsMan Address of the user sportsman\r\n\t///@param eventId id of the event to register to\r\n\tfunction registerSportsmanToEvent(address _sportsMan, uint256 eventId)\r\n\t\tinternal\r\n\t\tonlyOwner\r\n\t\tisNotNull(_sportsMan)\r\n\t\tisNotNullUint256(eventId)\r\n\t{\r\n\t\tassert(allSportsman[_sportsMan].activ);\r\n\t\tuint256 indx = allSportsman[_sportsMan].nbEventsSubscrided++;\r\n\t\tallSportsman[_sportsMan].eventsSubscribed[indx] = eventId;\r\n\t\tallSportsman[_sportsMan].eventsActivSubscription[eventId] = true;\r\n\t\tallSportsman[_sportsMan].nbActivSubscriptions++;\r\n\t\temit sportsmanRegisterdEvent(_sportsMan, eventId);\r\n\t}\r\n\r\n\t///@dev Sportsman unregisters to an Event\r\n\t///@param _sportsMan Address of the user sportsman\r\n\t///@param eventId id of the event to unregister to\r\n\tfunction unRegisterSportsmanFromEvent(address _sportsMan, uint256 eventId)\r\n\t\tprivate\r\n\t\tonlyOwner\r\n\t\tisNotNull(_sportsMan)\r\n\t{\r\n\t\tallSportsman[_sportsMan].eventsActivSubscription[eventId] = false;\r\n\t\tallSportsman[_sportsMan].nbActivSubscriptions--;\r\n\t\temit sportsmanUnregisterdEvent(_sportsMan, eventId);\r\n\t}\r\n\r\n\t///@dev returns the number of Sportsman\r\n\tfunction getNumberOfSportsman() public view returns (uint256) {\r\n\t\treturn registeredSportsman.length;\r\n\t}\r\n\r\n\tstruct SportsmanDesc {\r\n\t\taddress userAddress; // address used as ref\r\n\t\tuint256 sportCategory; // Categories of sports supported\r\n\t\tuint256 nbActivSubscriptions;\r\n\t\tbool activ;\r\n\t}\r\n\r\n\t///@dev returns the list of organization : they may be inactif, must test activ value\r\n\t///@param _start starting index amoung organizations\r\n\t///@param _end ending index amoung ogranizations\r\n\tfunction getSportsmanList(uint256 _start, uint256 _end)\r\n\t\tpublic\r\n\t\tview\r\n\t\tisNotNullUint256(registeredSportsman.length)\r\n\t\treturns (SportsmanDesc[] memory)\r\n\t{\r\n\t\trequire(_start <= _end); // check params\r\n\t\trequire(_start < registeredSportsman.length, \"StartIndex out of range\");\r\n\r\n\t\t// we adjust the ending value\r\n\t\tif (_end >= registeredSportsman.length)\r\n\t\t\t_end = registeredSportsman.length - 1;\r\n\r\n\t\t// creat an array for returning only usefull values\r\n\t\tSportsmanDesc[] memory _desc = new SportsmanDesc[](_end - _start + 1);\r\n\r\n\t\t// Fill the structure\r\n\t\tuint256 x = _start;\r\n\t\twhile (x <= _end) {\r\n\t\t\tSportsman storage sprt = allSportsman[registeredSportsman[x]];\r\n\t\t\t_desc[x - _start] = SportsmanDesc({\r\n\t\t\t\tuserAddress: sprt.userAddress,\r\n\t\t\t\tsportCategory: sprt.sportCategory,\r\n\t\t\t\tnbActivSubscriptions: sprt.nbActivSubscriptions,\r\n\t\t\t\tactiv: sprt.activ\r\n\t\t\t});\r\n\r\n\t\t\tx++;\r\n\t\t}\r\n\t\treturn _desc;\r\n\t}\r\n\r\n\t///@dev returns the nb of activ events the sportsman registered to\r\n\t///@param sportsmanId address of the sportsman\r\n\tfunction getSportsManEventsNumber(address sportsmanId)\r\n\t\tpublic\r\n\t\tview\r\n\t\tisNotNull(sportsmanId)\r\n\t\treturns (uint256)\r\n\t{\r\n\t\treturn allSportsman[sportsmanId].nbActivSubscriptions;\r\n\t}\r\n\r\n\t///@dev returns the list of activ events the sportsman registered to\r\n\t///@param sportsmanId address of the sportsman\r\n\tfunction getSportsmanEventsSubscriptions(\r\n\t\taddress sportsmanId ///@dev returns the list of activ events the sportsman registered to\r\n\t) public view returns (uint256[] memory) {\r\n\t\t// We make sure tjere are some events the user subscribed to\r\n\t\tassert(allSportsman[sportsmanId].nbActivSubscriptions > 0);\r\n\t\t//Allocate enogh entries for the resulting list\r\n\t\tuint256[] memory result = new uint256[](\r\n\t\t\tallSportsman[sportsmanId].nbActivSubscriptions\r\n\t\t);\r\n\r\n\t\tuint256 i = 0;\r\n\t\tfor (\r\n\t\t\tuint256 x = 0;\r\n\t\t\tx < allSportsman[sportsmanId].nbEventsSubscrided;\r\n\t\t\tx++\r\n\t\t) {\r\n\t\t\tuint256 id = allSportsman[sportsmanId].eventsSubscribed[x];\r\n\t\t\t// If the current subscription is active, then add it\r\n\t\t\tif (allSportsman[sportsmanId].eventsActivSubscription[id])\r\n\t\t\t\tresult[i++] = id;\r\n\t\t}\r\n\t\treturn result;\r\n\t}\r\n\r\n\tfunction getSportsmanMedalList(address sportsmanId)\r\n\t\tpublic\r\n\t\tview\r\n\t\treturns (uint256[] memory)\r\n\t{\r\n\t\treturn allSportsman[sportsmanId].medalList;\r\n\t}\r\n\r\n\tfunction getSportsmanMedalCount(address sportsmanId)\r\n\t\tpublic\r\n\t\tview\r\n\t\treturns (uint256)\r\n\t{\r\n\t\treturn allSportsman[sportsmanId].medalList.length;\r\n\t}\r\n\r\n\tfunction getSportsmanMedal(address sportsmanId, uint256 indx)\r\n\t\tpublic\r\n\t\tview\r\n\t\treturns (uint256)\r\n\t{\r\n\t\trequire(\r\n\t\t\tindx < allSportsman[sportsmanId].medalList.length,\r\n\t\t\t\"indx out of range\"\r\n\t\t);\r\n\t\treturn allSportsman[sportsmanId].medalList[indx];\r\n\t}\r\n\r\n\tfunction sportsmanAddMedal(address sportsmanId, uint256 medalID) internal {\r\n\t\tallSportsman[sportsmanId].medalList.push(medalID);\r\n\t\temit sportsmanMedalAdded(sportsmanId, medalID);\r\n\t}\r\n}\r\n",
  "sourcePath": "C:\\DEV\\ETH\\Alyra\\MedalVerse\\MedalVerse-Front\\contracts\\Dapp Internal Struct\\SportsmanHandler.sol",
  "compiler": {
    "name": "solc",
    "version": "0.8.0+commit.c7dfd78e.Emscripten.clang"
  },
  "schemaVersion": "3.4.4",
  "updatedAt": "2022-01-12T09:39:25.179Z",
  "devdoc": {
    "details": "Contract Adding / Removing Authors and their creations",
    "kind": "dev",
    "methods": {
      "getNumberOfSportsman()": {
        "details": "returns the number of Sportsman"
      },
      "getSportsManEventsNumber(address)": {
        "details": "returns the nb of activ events the sportsman registered to",
        "params": {
          "sportsmanId": "address of the sportsman"
        }
      },
      "getSportsmanEventsSubscriptions(address)": {
        "details": "returns the list of activ events the sportsman registered to",
        "params": {
          "sportsmanId": "address of the sportsman"
        }
      },
      "getSportsmanList(uint256,uint256)": {
        "details": "returns the list of organization : they may be inactif, must test activ value",
        "params": {
          "_end": "ending index amoung ogranizations",
          "_start": "starting index amoung organizations"
        }
      },
      "owner()": {
        "details": "Returns the address of the current owner."
      },
      "renounceOwnership()": {
        "details": "Leaves the contract without owner. It will not be possible to call `onlyOwner` functions anymore. Can only be called by the current owner. NOTE: Renouncing ownership will leave the contract without an owner, thereby removing any functionality that is only available to the owner."
      },
      "transferOwnership(address)": {
        "details": "Transfers ownership of the contract to a new account (`newOwner`). Can only be called by the current owner."
      }
    },
    "version": 1
  },
  "userdoc": {
    "kind": "user",
    "methods": {},
    "version": 1
  }
}