{
  "contractName": "SportsmanHandler",
  "abi": [
    {
      "anonymous": false,
      "inputs": [
        {
          "indexed": true,
          "internalType": "address",
          "name": "previousOwner",
          "type": "address"
        },
        {
          "indexed": true,
          "internalType": "address",
          "name": "newOwner",
          "type": "address"
        }
      ],
      "name": "OwnershipTransferred",
      "type": "event"
    },
    {
      "anonymous": false,
      "inputs": [
        {
          "indexed": false,
          "internalType": "address",
          "name": "usrAddr",
          "type": "address"
        }
      ],
      "name": "sportsmanAdded",
      "type": "event"
    },
    {
      "anonymous": false,
      "inputs": [
        {
          "indexed": false,
          "internalType": "address",
          "name": "usrAddr",
          "type": "address"
        },
        {
          "indexed": false,
          "internalType": "uint256",
          "name": "eventID",
          "type": "uint256"
        }
      ],
      "name": "sportsmanRegisterdEvent",
      "type": "event"
    },
    {
      "anonymous": false,
      "inputs": [
        {
          "indexed": false,
          "internalType": "address",
          "name": "usrAddr",
          "type": "address"
        },
        {
          "indexed": false,
          "internalType": "uint256",
          "name": "eventID",
          "type": "uint256"
        }
      ],
      "name": "sportsmanUnregisterdEvent",
      "type": "event"
    },
    {
      "inputs": [],
      "name": "owner",
      "outputs": [
        {
          "internalType": "address",
          "name": "",
          "type": "address"
        }
      ],
      "stateMutability": "view",
      "type": "function"
    },
    {
      "inputs": [
        {
          "internalType": "uint256",
          "name": "",
          "type": "uint256"
        }
      ],
      "name": "registeredSportsman",
      "outputs": [
        {
          "internalType": "address",
          "name": "",
          "type": "address"
        }
      ],
      "stateMutability": "view",
      "type": "function"
    },
    {
      "inputs": [],
      "name": "renounceOwnership",
      "outputs": [],
      "stateMutability": "nonpayable",
      "type": "function"
    },
    {
      "inputs": [
        {
          "internalType": "address",
          "name": "newOwner",
          "type": "address"
        }
      ],
      "name": "transferOwnership",
      "outputs": [],
      "stateMutability": "nonpayable",
      "type": "function"
    },
    {
      "inputs": [],
      "name": "getNumberOfSportsman",
      "outputs": [
        {
          "internalType": "uint256",
          "name": "",
          "type": "uint256"
        }
      ],
      "stateMutability": "view",
      "type": "function"
    },
    {
      "inputs": [
        {
          "internalType": "uint256",
          "name": "_start",
          "type": "uint256"
        },
        {
          "internalType": "uint256",
          "name": "_end",
          "type": "uint256"
        }
      ],
      "name": "getSportsmanList",
      "outputs": [
        {
          "components": [
            {
              "internalType": "address",
              "name": "userAddress",
              "type": "address"
            },
            {
              "internalType": "uint256",
              "name": "sportCategory",
              "type": "uint256"
            },
            {
              "internalType": "uint256",
              "name": "nbActivSubscriptions",
              "type": "uint256"
            },
            {
              "internalType": "bool",
              "name": "activ",
              "type": "bool"
            }
          ],
          "internalType": "struct SportsmanHandler.SportsmanDesc[]",
          "name": "",
          "type": "tuple[]"
        }
      ],
      "stateMutability": "view",
      "type": "function"
    },
    {
      "inputs": [
        {
          "internalType": "address",
          "name": "sportsmanId",
          "type": "address"
        }
      ],
      "name": "getSportsmanEventsSubscriptions",
      "outputs": [
        {
          "internalType": "uint256[]",
          "name": "",
          "type": "uint256[]"
        }
      ],
      "stateMutability": "view",
      "type": "function"
    }
  ],
  "bytecode": "0x608060405234801561001057600080fd5b5061002161001c610026565b61002a565b61007a565b3390565b600080546001600160a01b038381166001600160a01b0319831681178455604051919092169283917f8be0079c531659141344cd1fd0a4f28419497f9722a3daafe3b4186f6b6457e09190a35050565b61085b806100896000396000f3fe608060405234801561001057600080fd5b506004361061007d5760003560e01c80638da5cb5b1161005b5780638da5cb5b146100ca578063eebd1274146100d2578063f2fde38b146100f2578063fd395fc5146101055761007d565b80634dbc196c14610082578063715018a6146100ab57806375bb7174146100b5575b600080fd5b61009561009036600461060a565b610125565b6040516100a29190610643565b60405180910390f35b6100b361014f565b005b6100bd6101a3565b6040516100a291906107bc565b6100956101a9565b6100e56100e03660046105dc565b6101b8565b6040516100a291906106c6565b6100b36101003660046105dc565b61032f565b610118610113366004610622565b6103a0565b6040516100a29190610657565b6002818154811061013557600080fd5b6000918252602090912001546001600160a01b0316905081565b610157610555565b6001600160a01b03166101686101a9565b6001600160a01b0316146101975760405162461bcd60e51b815260040161018e90610750565b60405180910390fd5b6101a16000610559565b565b60025490565b6000546001600160a01b031690565b6001600160a01b0381166000908152600160205260409020600501546060906101f157634e487b7160e01b600052600160045260246000fd5b6001600160a01b03821660009081526001602052604081206005015467ffffffffffffffff81111561023357634e487b7160e01b600052604160045260246000fd5b60405190808252806020026020018201604052801561025c578160200160208202803683370190505b5090506000805b6001600160a01b038516600090815260016020526040902060040154811015610326576001600160a01b038516600090815260016020908152604080832084845260030190915290205460ff1615610314576001600160a01b038516600090815260016020908152604080832084845260020190915290205483836102e7816107f4565b94508151811061030757634e487b7160e01b600052603260045260246000fd5b6020026020010181815250505b8061031e816107f4565b915050610263565b50909392505050565b610337610555565b6001600160a01b03166103486101a9565b6001600160a01b03161461036e5760405162461bcd60e51b815260040161018e90610750565b6001600160a01b0381166103945760405162461bcd60e51b815260040161018e9061070a565b61039d81610559565b50565b600254606090806103b057600080fd5b828411156103bd57600080fd5b60025484106103de5760405162461bcd60e51b815260040161018e90610785565b60025483106103f9576002546103f6906001906107dd565b92505b600061040585856107dd565b6104109060016107c5565b67ffffffffffffffff81111561043657634e487b7160e01b600052604160045260246000fd5b60405190808252806020026020018201604052801561046f57816020015b61045c6105a9565b8152602001906001900390816104545790505b509050845b84811161054c57600060016000600284815481106104a257634e487b7160e01b600052603260045260246000fd5b60009182526020808320909101546001600160a01b039081168452838201949094526040928301909120825160808101845281549094168452600181015491840191909152600581015491830191909152600681015460ff161515606083015291508361050f89856107dd565b8151811061052d57634e487b7160e01b600052603260045260246000fd5b60200260200101819052508180610543906107f4565b92505050610474565b50949350505050565b3390565b600080546001600160a01b038381166001600160a01b0319831681178455604051919092169283917f8be0079c531659141344cd1fd0a4f28419497f9722a3daafe3b4186f6b6457e09190a35050565b604051806080016040528060006001600160a01b0316815260200160008152602001600081526020016000151581525090565b6000602082840312156105ed578081fd5b81356001600160a01b0381168114610603578182fd5b9392505050565b60006020828403121561061b578081fd5b5035919050565b60008060408385031215610634578081fd5b50508035926020909101359150565b6001600160a01b0391909116815260200190565b602080825282518282018190526000919060409081850190868401855b828110156106b957815180516001600160a01b031685528681015187860152858101518686015260609081015115159085015260809093019290850190600101610674565b5091979650505050505050565b6020808252825182820181905260009190848201906040850190845b818110156106fe578351835292840192918401916001016106e2565b50909695505050505050565b60208082526026908201527f4f776e61626c653a206e6577206f776e657220697320746865207a65726f206160408201526564647265737360d01b606082015260800190565b6020808252818101527f4f776e61626c653a2063616c6c6572206973206e6f7420746865206f776e6572604082015260600190565b60208082526017908201527f5374617274496e646578206f7574206f662072616e6765000000000000000000604082015260600190565b90815260200190565b600082198211156107d8576107d861080f565b500190565b6000828210156107ef576107ef61080f565b500390565b60006000198214156108085761080861080f565b5060010190565b634e487b7160e01b600052601160045260246000fdfea2646970667358221220acce58386d838302f5ba50e90a9955a733942d4bfb1f79da0bf0b1e71883a81864736f6c63430008000033",
  "immutableReferences": {},
  "source": "// SPDX-License-Identifier: MIT\r\npragma solidity ^0.8;\r\nimport \"@openzeppelin/contracts/access/Ownable.sol\";\r\nimport \"./NFT_Medal_Bkg_Desc.sol\";\r\n\r\n///@dev Structure for describing MedalVerse Authors - used by AuthorHandler\r\nstruct Sportsman {\r\n\taddress userAddress; // address used as ref\r\n\tuint256 sportCategory; // Categories of sports supported\r\n\tmapping(uint256 => uint256) eventsSubscribed; // Events referenced by count\r\n\tmapping(uint256 => bool) eventsActivSubscription; // subscription referenced by eventsID\r\n\tuint256 nbEventsSubscrided;\r\n\tuint256 nbActivSubscriptions;\r\n\tbool activ;\r\n}\r\n\r\n///@dev Contract Adding / Removing Authors and their creations\r\ncontract SportsmanHandler is Ownable {\r\n\t// Data ---------------------------------\r\n\t// - Authors -\r\n\tmapping(address => Sportsman) allSportsman; // Container for all the authors by address\r\n\taddress[] public registeredSportsman; // Array of all the authors addresses\r\n\r\n\t// Modifiers ----------------------------\r\n\tmodifier isNotNull(address a) virtual {\r\n\t\trequire(a != address(0));\r\n\t\t_;\r\n\t}\r\n\tmodifier isNotNullUint256(uint256 a) virtual {\r\n\t\trequire(a != 0);\r\n\t\t_;\r\n\t}\r\n\t// Events -------------------------------\r\n\tevent sportsmanAdded(address usrAddr);\r\n\tevent sportsmanRegisterdEvent(address usrAddr, uint256 eventID);\r\n\tevent sportsmanUnregisterdEvent(address usrAddr, uint256 eventID);\r\n\r\n\t// Methods -------------------------------\r\n\t///@dev Register an author, given an address\r\n\t///@param _user Address of the user to register as author\r\n\tfunction addSportsman(address _user, uint256 _sportCategory)\r\n\t\tinternal\r\n\t\tonlyOwner\r\n\t\tisNotNull(_user)\r\n\t{\r\n\t\tregisteredSportsman.push(_user);\r\n\t\tSportsman storage _sportsMan = allSportsman[_user];\r\n\t\t_sportsMan.userAddress = _user;\r\n\t\t_sportsMan.sportCategory = _sportCategory;\r\n\t\t_sportsMan.activ = true;\r\n\r\n\t\temit sportsmanAdded(_user);\r\n\t}\r\n\r\n\t///@dev Sportsman registers to an Event\r\n\t///@param _sportsMan Address of the user sportsman\r\n\t///@param eventId id of the event to register to\r\n\tfunction registerSportsmanToEvent(address _sportsMan, uint256 eventId)\r\n\t\tprivate\r\n\t\tonlyOwner\r\n\t\tisNotNull(_sportsMan)\r\n\t{\r\n\t\tassert(allSportsman[_sportsMan].activ);\r\n\t\tallSportsman[_sportsMan].eventsSubscribed[\r\n\t\t\tallSportsman[_sportsMan].nbEventsSubscrided++\r\n\t\t] = eventId;\r\n\t\tallSportsman[_sportsMan].eventsActivSubscription[eventId] = true;\r\n\t\tallSportsman[_sportsMan].nbActivSubscriptions++;\r\n\t\temit sportsmanRegisterdEvent(_sportsMan, eventId);\r\n\t}\r\n\r\n\t///@dev Sportsman unregisters to an Event\r\n\t///@param _sportsMan Address of the user sportsman\r\n\t///@param eventId id of the event to unregister to\r\n\tfunction unRegisterSportsmanFromEvent(address _sportsMan, uint256 eventId)\r\n\t\tprivate\r\n\t\tonlyOwner\r\n\t\tisNotNull(_sportsMan)\r\n\t{\r\n\t\tallSportsman[_sportsMan].eventsActivSubscription[eventId] = false;\r\n\t\tallSportsman[_sportsMan].nbActivSubscriptions--;\r\n\t\temit sportsmanUnregisterdEvent(_sportsMan, eventId);\r\n\t}\r\n\r\n\t///@dev returns the number of Sportsman\r\n\tfunction getNumberOfSportsman() public view returns (uint256) {\r\n\t\treturn registeredSportsman.length;\r\n\t}\r\n\r\n\tstruct SportsmanDesc {\r\n\t\taddress userAddress; // address used as ref\r\n\t\tuint256 sportCategory; // Categories of sports supported\r\n\t\tuint256 nbActivSubscriptions;\r\n\t\tbool activ;\r\n\t}\r\n\r\n\t///@dev returns the list of organization : they may be inactif, must test activ value\r\n\t///@param _start starting index amoung organizations\r\n\t///@param _end ending index amoung ogranizations\r\n\tfunction getSportsmanList(uint256 _start, uint256 _end)\r\n\t\tpublic\r\n\t\tview\r\n\t\tisNotNullUint256(registeredSportsman.length)\r\n\t\treturns (SportsmanDesc[] memory)\r\n\t{\r\n\t\trequire(_start <= _end); // check params\r\n\t\trequire(_start < registeredSportsman.length, \"StartIndex out of range\");\r\n\r\n\t\t// we adjust the ending value\r\n\t\tif (_end >= registeredSportsman.length)\r\n\t\t\t_end = registeredSportsman.length - 1;\r\n\r\n\t\t// creat an array for returning only usefull values\r\n\t\tSportsmanDesc[] memory _desc = new SportsmanDesc[](_end - _start + 1);\r\n\r\n\t\t// Fill the structure\r\n\t\tuint256 x = _start;\r\n\t\twhile (x <= _end) {\r\n\t\t\tSportsman storage sprt = allSportsman[registeredSportsman[x]];\r\n\t\t\t_desc[x - _start] = SportsmanDesc({\r\n\t\t\t\tuserAddress: sprt.userAddress,\r\n\t\t\t\tsportCategory: sprt.sportCategory,\r\n\t\t\t\tnbActivSubscriptions: sprt.nbActivSubscriptions,\r\n\t\t\t\tactiv: sprt.activ\r\n\t\t\t});\r\n\r\n\t\t\tx++;\r\n\t\t}\r\n\t\treturn _desc;\r\n\t}\r\n\r\n\tfunction getSportsmanEventsSubscriptions(address sportsmanId)\r\n\t\tpublic\r\n\t\tview\r\n\t\treturns (uint256[] memory)\r\n\t{\r\n\t\t// We make sure tjere are some events the user subscribed to\r\n\t\tassert(allSportsman[sportsmanId].nbActivSubscriptions > 0);\r\n\t\t//Allocate enogh entries for the resulting list\r\n\t\tuint256[] memory result = new uint256[](\r\n\t\t\tallSportsman[sportsmanId].nbActivSubscriptions\r\n\t\t);\r\n\r\n\t\tuint256 i = 0;\r\n\t\tfor (\r\n\t\t\tuint256 x = 0;\r\n\t\t\tx < allSportsman[sportsmanId].nbEventsSubscrided;\r\n\t\t\tx++\r\n\t\t) {\r\n\t\t\t// If the current subscription is active, then add it\r\n\t\t\tif (allSportsman[sportsmanId].eventsActivSubscription[x])\r\n\t\t\t\tresult[i++] = allSportsman[sportsmanId].eventsSubscribed[x];\r\n\t\t}\r\n\t\treturn result;\r\n\t}\r\n}\r\n",
  "sourcePath": "C:\\DEV\\ETH\\Alyra\\MedalVerse\\MedalVerse-Front\\contracts\\Dapp Internal Struct\\SportsmanHandler.sol",
  "compiler": {
    "name": "solc",
    "version": "0.8.0+commit.c7dfd78e.Emscripten.clang"
  },
  "schemaVersion": "3.4.4",
  "updatedAt": "2021-12-22T11:49:03.929Z",
  "devdoc": {
    "details": "Contract Adding / Removing Authors and their creations",
    "kind": "dev",
    "methods": {
      "getNumberOfSportsman()": {
        "details": "returns the number of Sportsman"
      },
      "getSportsmanList(uint256,uint256)": {
        "details": "returns the list of organization : they may be inactif, must test activ value",
        "params": {
          "_end": "ending index amoung ogranizations",
          "_start": "starting index amoung organizations"
        }
      },
      "owner()": {
        "details": "Returns the address of the current owner."
      },
      "renounceOwnership()": {
        "details": "Leaves the contract without owner. It will not be possible to call `onlyOwner` functions anymore. Can only be called by the current owner. NOTE: Renouncing ownership will leave the contract without an owner, thereby removing any functionality that is only available to the owner."
      },
      "transferOwnership(address)": {
        "details": "Transfers ownership of the contract to a new account (`newOwner`). Can only be called by the current owner."
      }
    },
    "version": 1
  },
  "userdoc": {
    "kind": "user",
    "methods": {},
    "version": 1
  }
}