{
  "contractName": "SportsmanHandler",
  "abi": [
    {
      "anonymous": false,
      "inputs": [
        {
          "indexed": true,
          "internalType": "address",
          "name": "previousOwner",
          "type": "address"
        },
        {
          "indexed": true,
          "internalType": "address",
          "name": "newOwner",
          "type": "address"
        }
      ],
      "name": "OwnershipTransferred",
      "type": "event"
    },
    {
      "anonymous": false,
      "inputs": [
        {
          "indexed": false,
          "internalType": "address",
          "name": "usrAddr",
          "type": "address"
        }
      ],
      "name": "sportsmanAdded",
      "type": "event"
    },
    {
      "anonymous": false,
      "inputs": [
        {
          "indexed": false,
          "internalType": "address",
          "name": "sportsmanId",
          "type": "address"
        },
        {
          "indexed": false,
          "internalType": "uint256",
          "name": "medalID",
          "type": "uint256"
        }
      ],
      "name": "sportsmanMedalAdded",
      "type": "event"
    },
    {
      "anonymous": false,
      "inputs": [
        {
          "indexed": false,
          "internalType": "address",
          "name": "usrAddr",
          "type": "address"
        },
        {
          "indexed": false,
          "internalType": "uint256",
          "name": "eventID",
          "type": "uint256"
        }
      ],
      "name": "sportsmanRegisterdEvent",
      "type": "event"
    },
    {
      "anonymous": false,
      "inputs": [
        {
          "indexed": false,
          "internalType": "address",
          "name": "usrAddr",
          "type": "address"
        },
        {
          "indexed": false,
          "internalType": "uint256",
          "name": "eventID",
          "type": "uint256"
        }
      ],
      "name": "sportsmanUnregisterdEvent",
      "type": "event"
    },
    {
      "inputs": [],
      "name": "owner",
      "outputs": [
        {
          "internalType": "address",
          "name": "",
          "type": "address"
        }
      ],
      "stateMutability": "view",
      "type": "function"
    },
    {
      "inputs": [
        {
          "internalType": "uint256",
          "name": "",
          "type": "uint256"
        }
      ],
      "name": "registeredSportsman",
      "outputs": [
        {
          "internalType": "address",
          "name": "",
          "type": "address"
        }
      ],
      "stateMutability": "view",
      "type": "function"
    },
    {
      "inputs": [],
      "name": "renounceOwnership",
      "outputs": [],
      "stateMutability": "nonpayable",
      "type": "function"
    },
    {
      "inputs": [
        {
          "internalType": "address",
          "name": "newOwner",
          "type": "address"
        }
      ],
      "name": "transferOwnership",
      "outputs": [],
      "stateMutability": "nonpayable",
      "type": "function"
    },
    {
      "inputs": [
        {
          "internalType": "uint256",
          "name": "_start",
          "type": "uint256"
        },
        {
          "internalType": "uint256",
          "name": "_end",
          "type": "uint256"
        }
      ],
      "name": "getSportsmanList",
      "outputs": [
        {
          "components": [
            {
              "internalType": "address",
              "name": "userAddress",
              "type": "address"
            },
            {
              "internalType": "uint256",
              "name": "nbActivSubscriptions",
              "type": "uint256"
            }
          ],
          "internalType": "struct SportsmanHandler.SportsmanDesc[]",
          "name": "",
          "type": "tuple[]"
        }
      ],
      "stateMutability": "view",
      "type": "function"
    },
    {
      "inputs": [
        {
          "internalType": "address",
          "name": "sportsmanId",
          "type": "address"
        }
      ],
      "name": "getSportsManEventsNumber",
      "outputs": [
        {
          "internalType": "uint256",
          "name": "",
          "type": "uint256"
        }
      ],
      "stateMutability": "view",
      "type": "function"
    },
    {
      "inputs": [
        {
          "internalType": "address",
          "name": "sportsmanId",
          "type": "address"
        }
      ],
      "name": "getSportsmanEventsSubscriptions",
      "outputs": [
        {
          "internalType": "uint256[]",
          "name": "",
          "type": "uint256[]"
        }
      ],
      "stateMutability": "view",
      "type": "function"
    },
    {
      "inputs": [
        {
          "internalType": "address",
          "name": "sportsmanId",
          "type": "address"
        }
      ],
      "name": "getSportsmanMedalList",
      "outputs": [
        {
          "internalType": "uint256[]",
          "name": "",
          "type": "uint256[]"
        }
      ],
      "stateMutability": "view",
      "type": "function"
    },
    {
      "inputs": [
        {
          "internalType": "address",
          "name": "sportsmanId",
          "type": "address"
        }
      ],
      "name": "getSportsmanMedalCount",
      "outputs": [
        {
          "internalType": "uint256",
          "name": "",
          "type": "uint256"
        }
      ],
      "stateMutability": "view",
      "type": "function"
    },
    {
      "inputs": [
        {
          "internalType": "address",
          "name": "sportsmanId",
          "type": "address"
        },
        {
          "internalType": "uint256",
          "name": "indx",
          "type": "uint256"
        }
      ],
      "name": "getSportsmanMedal",
      "outputs": [
        {
          "internalType": "uint256",
          "name": "",
          "type": "uint256"
        }
      ],
      "stateMutability": "view",
      "type": "function"
    }
  ],
  "bytecode": "0x608060405234801561001057600080fd5b5061002161001c610026565b61002a565b61007a565b3390565b600080546001600160a01b038381166001600160a01b0319831681178455604051919092169283917f8be0079c531659141344cd1fd0a4f28419497f9722a3daafe3b4186f6b6457e09190a35050565b6109ab806100896000396000f3fe608060405234801561001057600080fd5b506004361061008e5760003560e01c80632bd0e1cc146100935780633a6526fb146100bc5780633da21e3a146100dc5780634dbc196c146100ef578063715018a61461010f5780638da5cb5b146101195780639847587a14610121578063eebd127414610134578063f2fde38b14610147578063fd395fc51461015a575b600080fd5b6100a66100a136600461073f565b61017a565b6040516100b3919061082e565b60405180910390f35b6100cf6100ca36600461073f565b6101ea565b6040516100b3919061090c565b6100cf6100ea366004610760565b610208565b6101026100fd366004610789565b610299565b6040516100b391906107c2565b6101176102c3565b005b61010261030e565b6100cf61012f36600461073f565b61031d565b6100a661014236600461073f565b610353565b61011761015536600461073f565b6104b5565b61016d6101683660046107a1565b610526565b6040516100b391906107d6565b6001600160a01b0381166000908152600160209081526040918290206005018054835181840281018401909452808452606093928301828280156101dd57602002820191906000526020600020905b8154815260200190600101908083116101c9575b505050505090505b919050565b6001600160a01b031660009081526001602052604090206005015490565b6001600160a01b038216600090815260016020526040812060050154821061024b5760405162461bcd60e51b8152600401610242906108ed565b60405180910390fd5b6001600160a01b038316600090815260016020526040902060050180548390811061028657634e487b7160e01b600052603260045260246000fd5b9060005260206000200154905092915050565b600281815481106102a957600080fd5b6000918252602090912001546001600160a01b0316905081565b6102cb6106bd565b6001600160a01b03166102dc61030e565b6001600160a01b0316146103025760405162461bcd60e51b8152600401610242906108b8565b61030c60006106c1565b565b6000546001600160a01b031690565b6000816001600160a01b03811661033357600080fd5b50506001600160a01b031660009081526001602052604090206002015490565b6001600160a01b03811660009081526001602052604090206002015460609061038c57634e487b7160e01b600052600160045260246000fd5b6001600160a01b0382166000908152600160205260408120600201546001600160401b038111156103cd57634e487b7160e01b600052604160045260246000fd5b6040519080825280602002602001820160405280156103f6578160200160208202803683370190505b5090506000805b6001600160a01b038516600090815260016020819052604090912001548110156104ac576001600160a01b03851660009081526001602090815260408083208484526003810183528184205480855260049091019092529091205460ff16156104995780848461046c81610944565b95508151811061048c57634e487b7160e01b600052603260045260246000fd5b6020026020010181815250505b50806104a481610944565b9150506103fd565b50909392505050565b6104bd6106bd565b6001600160a01b03166104ce61030e565b6001600160a01b0316146104f45760405162461bcd60e51b8152600401610242906108b8565b6001600160a01b03811661051a5760405162461bcd60e51b815260040161024290610872565b610523816106c1565b50565b6002546060908061053657600080fd5b8284111561054357600080fd5b60025484106105645760405162461bcd60e51b8152600401610242906108ed565b600254831061057f5760025461057c9060019061092d565b92505b600061058b858561092d565b610596906001610915565b6001600160401b038111156105bb57634e487b7160e01b600052604160045260246000fd5b6040519080825280602002602001820160405280156105f457816020015b6105e1610711565b8152602001906001900390816105d95790505b509050845b8481116106b4576000600160006002848154811061062757634e487b7160e01b600052603260045260246000fd5b60009182526020808320909101546001600160a01b03908116845283820194909452604092830190912082518084019093528054909316825260028301549082015290915083610677898561092d565b8151811061069557634e487b7160e01b600052603260045260246000fd5b602002602001018190525081806106ab90610944565b925050506105f9565b50949350505050565b3390565b600080546001600160a01b038381166001600160a01b0319831681178455604051919092169283917f8be0079c531659141344cd1fd0a4f28419497f9722a3daafe3b4186f6b6457e09190a35050565b604080518082019091526000808252602082015290565b80356001600160a01b03811681146101e557600080fd5b600060208284031215610750578081fd5b61075982610728565b9392505050565b60008060408385031215610772578081fd5b61077b83610728565b946020939093013593505050565b60006020828403121561079a578081fd5b5035919050565b600080604083850312156107b3578182fd5b50508035926020909101359150565b6001600160a01b0391909116815260200190565b602080825282518282018190526000919060409081850190868401855b8281101561082157815180516001600160a01b031685528601518685015292840192908501906001016107f3565b5091979650505050505050565b6020808252825182820181905260009190848201906040850190845b818110156108665783518352928401929184019160010161084a565b50909695505050505050565b60208082526026908201527f4f776e61626c653a206e6577206f776e657220697320746865207a65726f206160408201526564647265737360d01b606082015260800190565b6020808252818101527f4f776e61626c653a2063616c6c6572206973206e6f7420746865206f776e6572604082015260600190565b6020808252600590820152644552525f3160d81b604082015260600190565b90815260200190565b600082198211156109285761092861095f565b500190565b60008282101561093f5761093f61095f565b500390565b60006000198214156109585761095861095f565b5060010190565b634e487b7160e01b600052601160045260246000fdfea264697066735822122094201fdbe0c21c1205f85a5a897005706963975e41c04525d136df8b8ed080a064736f6c63430008000033",
  "immutableReferences": {},
  "source": "// SPDX-License-Identifier: MIT\r\npragma solidity ^0.8;\r\nimport \"@openzeppelin/contracts/access/Ownable.sol\";\r\n\r\n///@dev Structure for describing MedalVerse Authors - used by AuthorHandler\r\nstruct Sportsman {\r\n\taddress userAddress; // address used as ref\r\n\tuint256 nbEventsSubscrided;\r\n\tuint256 nbActivSubscriptions;\r\n\tmapping(uint256 => uint256) eventsSubscribed; // Events referenced by count\r\n\tmapping(uint256 => bool) eventsActivSubscription; // subscription referenced by eventsID\r\n\tuint256[] medalList;\r\n}\r\n\r\n///@dev Contract Adding / Removing Authors and their creations\r\ncontract SportsmanHandler is Ownable {\r\n\t// Data ---------------------------------\r\n\t// - Authors -\r\n\tmapping(address => Sportsman) allSportsman; // Container for all the authors by address\r\n\taddress[] public registeredSportsman; // Array of all the authors addresses\r\n\r\n\t// Modifiers ----------------------------\r\n\tmodifier isNotNull(address a) virtual {\r\n\t\trequire(a != address(0));\r\n\t\t_;\r\n\t}\r\n\tmodifier isNotNullUint256(uint256 a) virtual {\r\n\t\trequire(a != 0);\r\n\t\t_;\r\n\t}\r\n\t// Events -------------------------------\r\n\tevent sportsmanAdded(address usrAddr);\r\n\tevent sportsmanRegisterdEvent(address usrAddr, uint256 eventID);\r\n\tevent sportsmanUnregisterdEvent(address usrAddr, uint256 eventID);\r\n\tevent sportsmanMedalAdded(address sportsmanId, uint256 medalID);\r\n\r\n\t// Methods -------------------------------\r\n\r\n\tstruct SportsmanDesc {\r\n\t\taddress userAddress; // address used as ref\r\n\t\tuint256 nbActivSubscriptions;\r\n\t}\r\n\r\n\t///@dev returns the list of organization : they may be inactif, must test activ value\r\n\t///@param _start starting index amoung organizations\r\n\t///@param _end ending index amoung ogranizations\r\n\tfunction getSportsmanList(uint256 _start, uint256 _end)\r\n\t\texternal\r\n\t\tview\r\n\t\tisNotNullUint256(registeredSportsman.length)\r\n\t\treturns (SportsmanDesc[] memory)\r\n\t{\r\n\t\trequire(_start <= _end); // check params\r\n\t\trequire(_start < registeredSportsman.length, \"ERR_1\");\r\n\r\n\t\t// we adjust the ending value\r\n\t\tif (_end >= registeredSportsman.length)\r\n\t\t\t_end = registeredSportsman.length - 1;\r\n\r\n\t\t// creat an array for returning only usefull values\r\n\t\tSportsmanDesc[] memory _desc = new SportsmanDesc[](_end - _start + 1);\r\n\r\n\t\t// Fill the structure\r\n\t\tuint256 x = _start;\r\n\t\twhile (x <= _end) {\r\n\t\t\tSportsman storage sprt = allSportsman[registeredSportsman[x]];\r\n\t\t\t_desc[x - _start] = SportsmanDesc({\r\n\t\t\t\tuserAddress: sprt.userAddress,\r\n\t\t\t\tnbActivSubscriptions: sprt.nbActivSubscriptions\r\n\t\t\t});\r\n\r\n\t\t\tx++;\r\n\t\t}\r\n\t\treturn _desc;\r\n\t}\r\n\r\n\t///@dev returns the nb of activ events the sportsman registered to\r\n\t///@param sportsmanId address of the sportsman\r\n\tfunction getSportsManEventsNumber(address sportsmanId)\r\n\t\texternal\r\n\t\tview\r\n\t\tisNotNull(sportsmanId)\r\n\t\treturns (uint256)\r\n\t{\r\n\t\treturn allSportsman[sportsmanId].nbActivSubscriptions;\r\n\t}\r\n\r\n\t///@dev returns the list of activ events the sportsman registered to\r\n\t///@param sportsmanId address of the sportsman\r\n\tfunction getSportsmanEventsSubscriptions(\r\n\t\taddress sportsmanId ///@dev returns the list of activ events the sportsman registered to\r\n\t) external view returns (uint256[] memory) {\r\n\t\t// We make sure tjere are some events the user subscribed to\r\n\t\tassert(allSportsman[sportsmanId].nbActivSubscriptions > 0);\r\n\t\t//Allocate enogh entries for the resulting list\r\n\t\tuint256[] memory result = new uint256[](\r\n\t\t\tallSportsman[sportsmanId].nbActivSubscriptions\r\n\t\t);\r\n\r\n\t\tuint256 i = 0;\r\n\t\tfor (\r\n\t\t\tuint256 x = 0;\r\n\t\t\tx < allSportsman[sportsmanId].nbEventsSubscrided;\r\n\t\t\tx++\r\n\t\t) {\r\n\t\t\tuint256 id = allSportsman[sportsmanId].eventsSubscribed[x];\r\n\t\t\t// If the current subscription is active, then add it\r\n\t\t\tif (allSportsman[sportsmanId].eventsActivSubscription[id])\r\n\t\t\t\tresult[i++] = id;\r\n\t\t}\r\n\t\treturn result;\r\n\t}\r\n\r\n\t///@dev Returns the medals of a sportsman\r\n\t///@param sportsmanId id of the sportsman\r\n\tfunction getSportsmanMedalList(address sportsmanId)\r\n\t\texternal\r\n\t\tview\r\n\t\treturns (uint256[] memory)\r\n\t{\r\n\t\treturn allSportsman[sportsmanId].medalList;\r\n\t}\r\n\r\n\t///@dev Gets the number of medal owned by the Sportsman\r\n\t///@param sportsmanId id of the sportsman\r\n\tfunction getSportsmanMedalCount(address sportsmanId)\r\n\t\texternal\r\n\t\tview\r\n\t\treturns (uint256)\r\n\t{\r\n\t\treturn allSportsman[sportsmanId].medalList.length;\r\n\t}\r\n\r\n\t///@dev Returns a specific medal of a sportsman\r\n\t///@param sportsmanId id of the sportsman\r\n\t///@param indx indx of a sportsman\r\n\tfunction getSportsmanMedal(address sportsmanId, uint256 indx)\r\n\t\tpublic\r\n\t\tview\r\n\t\treturns (uint256)\r\n\t{\r\n\t\trequire(indx < allSportsman[sportsmanId].medalList.length, \"ERR_1\");\r\n\t\treturn allSportsman[sportsmanId].medalList[indx];\r\n\t}\r\n\r\n\t///@dev Affect a medal to a sportsman\r\n\t///@param sportsmanId id of the sportsman\r\n\t///@param medalID id of the medal\r\n\tfunction sportsmanAddMedal(address sportsmanId, uint256 medalID) internal {\r\n\t\tallSportsman[sportsmanId].medalList.push(medalID);\r\n\t\temit sportsmanMedalAdded(sportsmanId, medalID);\r\n\t}\r\n\r\n\t///@dev Register an author, given an address\r\n\t///@param _user Address of the user to register as author\r\n\tfunction addSportsman(address _user) internal onlyOwner isNotNull(_user) {\r\n\t\tregisteredSportsman.push(_user);\r\n\t\tSportsman storage _sportsMan = allSportsman[_user];\r\n\t\t_sportsMan.userAddress = _user;\r\n\t\temit sportsmanAdded(_user);\r\n\t}\r\n\r\n\t///@dev Sportsman registers to an Event\r\n\t///@param _sportsMan Address of the user sportsman\r\n\t///@param eventId id of the event to register to\r\n\tfunction registerSportsmanToEvent(address _sportsMan, uint256 eventId)\r\n\t\tinternal\r\n\t\tonlyOwner\r\n\t\tisNotNull(_sportsMan)\r\n\t\tisNotNullUint256(eventId)\r\n\t{\r\n\t\tuint256 indx = allSportsman[_sportsMan].nbEventsSubscrided++;\r\n\t\tallSportsman[_sportsMan].eventsSubscribed[indx] = eventId;\r\n\t\tallSportsman[_sportsMan].eventsActivSubscription[eventId] = true;\r\n\t\tallSportsman[_sportsMan].nbActivSubscriptions++;\r\n\t\temit sportsmanRegisterdEvent(_sportsMan, eventId);\r\n\t}\r\n}\r\n",
  "sourcePath": "C:\\DEV\\ETH\\Alyra\\MedalVerse\\MedalVerse-Front\\contracts\\Dapp Internal Struct\\SportsmanHandler.sol",
  "compiler": {
    "name": "solc",
    "version": "0.8.0+commit.c7dfd78e.Emscripten.clang"
  },
  "schemaVersion": "3.4.4",
  "updatedAt": "2022-01-16T19:36:15.995Z",
  "devdoc": {
    "details": "Contract Adding / Removing Authors and their creations",
    "kind": "dev",
    "methods": {
      "getSportsManEventsNumber(address)": {
        "details": "returns the nb of activ events the sportsman registered to",
        "params": {
          "sportsmanId": "address of the sportsman"
        }
      },
      "getSportsmanEventsSubscriptions(address)": {
        "details": "returns the list of activ events the sportsman registered to",
        "params": {
          "sportsmanId": "address of the sportsman"
        }
      },
      "getSportsmanList(uint256,uint256)": {
        "details": "returns the list of organization : they may be inactif, must test activ value",
        "params": {
          "_end": "ending index amoung ogranizations",
          "_start": "starting index amoung organizations"
        }
      },
      "getSportsmanMedal(address,uint256)": {
        "details": "Returns a specific medal of a sportsman",
        "params": {
          "indx": "indx of a sportsman",
          "sportsmanId": "id of the sportsman"
        }
      },
      "getSportsmanMedalCount(address)": {
        "details": "Gets the number of medal owned by the Sportsman",
        "params": {
          "sportsmanId": "id of the sportsman"
        }
      },
      "getSportsmanMedalList(address)": {
        "details": "Returns the medals of a sportsman",
        "params": {
          "sportsmanId": "id of the sportsman"
        }
      },
      "owner()": {
        "details": "Returns the address of the current owner."
      },
      "renounceOwnership()": {
        "details": "Leaves the contract without owner. It will not be possible to call `onlyOwner` functions anymore. Can only be called by the current owner. NOTE: Renouncing ownership will leave the contract without an owner, thereby removing any functionality that is only available to the owner."
      },
      "transferOwnership(address)": {
        "details": "Transfers ownership of the contract to a new account (`newOwner`). Can only be called by the current owner."
      }
    },
    "version": 1
  },
  "userdoc": {
    "kind": "user",
    "methods": {},
    "version": 1
  }
}