{
  "contractName": "ThrowIn",
  "abi": [
    {
      "inputs": [
        {
          "internalType": "string",
          "name": "organization",
          "type": "string"
        },
        {
          "internalType": "address",
          "name": "addressNFT_Artist",
          "type": "address"
        },
        {
          "internalType": "address",
          "name": "addressToken",
          "type": "address"
        },
        {
          "internalType": "address",
          "name": "addressMedalVerse",
          "type": "address"
        },
        {
          "internalType": "string",
          "name": "name",
          "type": "string"
        },
        {
          "internalType": "string",
          "name": "symbol",
          "type": "string"
        },
        {
          "internalType": "bool",
          "name": "_antiDoping",
          "type": "bool"
        }
      ],
      "stateMutability": "nonpayable",
      "type": "constructor"
    },
    {
      "anonymous": false,
      "inputs": [
        {
          "indexed": true,
          "internalType": "address",
          "name": "owner",
          "type": "address"
        },
        {
          "indexed": true,
          "internalType": "address",
          "name": "approved",
          "type": "address"
        },
        {
          "indexed": true,
          "internalType": "uint256",
          "name": "tokenId",
          "type": "uint256"
        }
      ],
      "name": "Approval",
      "type": "event"
    },
    {
      "anonymous": false,
      "inputs": [
        {
          "indexed": true,
          "internalType": "address",
          "name": "owner",
          "type": "address"
        },
        {
          "indexed": true,
          "internalType": "address",
          "name": "operator",
          "type": "address"
        },
        {
          "indexed": false,
          "internalType": "bool",
          "name": "approved",
          "type": "bool"
        }
      ],
      "name": "ApprovalForAll",
      "type": "event"
    },
    {
      "anonymous": false,
      "inputs": [
        {
          "indexed": true,
          "internalType": "address",
          "name": "previousOwner",
          "type": "address"
        },
        {
          "indexed": true,
          "internalType": "address",
          "name": "newOwner",
          "type": "address"
        }
      ],
      "name": "OwnershipTransferred",
      "type": "event"
    },
    {
      "anonymous": false,
      "inputs": [
        {
          "indexed": true,
          "internalType": "address",
          "name": "from",
          "type": "address"
        },
        {
          "indexed": true,
          "internalType": "address",
          "name": "to",
          "type": "address"
        },
        {
          "indexed": true,
          "internalType": "uint256",
          "name": "tokenId",
          "type": "uint256"
        }
      ],
      "name": "Transfer",
      "type": "event"
    },
    {
      "anonymous": false,
      "inputs": [
        {
          "indexed": false,
          "internalType": "address",
          "name": "mint",
          "type": "address"
        }
      ],
      "name": "throwInCupMinted",
      "type": "event"
    },
    {
      "anonymous": false,
      "inputs": [
        {
          "indexed": false,
          "internalType": "address",
          "name": "caller",
          "type": "address"
        },
        {
          "indexed": false,
          "internalType": "address",
          "name": "recipient",
          "type": "address"
        },
        {
          "indexed": false,
          "internalType": "uint256",
          "name": "id",
          "type": "uint256"
        }
      ],
      "name": "throwInOwnerRecovery",
      "type": "event"
    },
    {
      "anonymous": false,
      "inputs": [
        {
          "indexed": false,
          "internalType": "bool",
          "name": "check",
          "type": "bool"
        }
      ],
      "name": "throwInPauseRemoved",
      "type": "event"
    },
    {
      "anonymous": false,
      "inputs": [
        {
          "indexed": false,
          "internalType": "bool",
          "name": "check",
          "type": "bool"
        }
      ],
      "name": "throwInSetPause",
      "type": "event"
    },
    {
      "anonymous": false,
      "inputs": [
        {
          "indexed": false,
          "internalType": "uint256",
          "name": "whatYear",
          "type": "uint256"
        }
      ],
      "name": "throwInSetYear",
      "type": "event"
    },
    {
      "anonymous": false,
      "inputs": [
        {
          "indexed": false,
          "internalType": "address",
          "name": "caller",
          "type": "address"
        },
        {
          "indexed": false,
          "internalType": "address",
          "name": "recipient",
          "type": "address"
        },
        {
          "indexed": false,
          "internalType": "uint256",
          "name": "id",
          "type": "uint256"
        }
      ],
      "name": "throwInTranserWithoutPermission",
      "type": "event"
    },
    {
      "anonymous": false,
      "inputs": [
        {
          "indexed": false,
          "internalType": "address",
          "name": "organizer",
          "type": "address"
        },
        {
          "indexed": false,
          "internalType": "address",
          "name": "winners",
          "type": "address"
        }
      ],
      "name": "throwInWinnersAdd",
      "type": "event"
    },
    {
      "inputs": [
        {
          "internalType": "address",
          "name": "to",
          "type": "address"
        },
        {
          "internalType": "uint256",
          "name": "tokenId",
          "type": "uint256"
        }
      ],
      "name": "approve",
      "outputs": [],
      "stateMutability": "nonpayable",
      "type": "function"
    },
    {
      "inputs": [
        {
          "internalType": "address",
          "name": "owner",
          "type": "address"
        }
      ],
      "name": "balanceOf",
      "outputs": [
        {
          "internalType": "uint256",
          "name": "",
          "type": "uint256"
        }
      ],
      "stateMutability": "view",
      "type": "function",
      "constant": true
    },
    {
      "inputs": [
        {
          "internalType": "uint256",
          "name": "tokenId",
          "type": "uint256"
        }
      ],
      "name": "getApproved",
      "outputs": [
        {
          "internalType": "address",
          "name": "",
          "type": "address"
        }
      ],
      "stateMutability": "view",
      "type": "function",
      "constant": true
    },
    {
      "inputs": [
        {
          "internalType": "address",
          "name": "owner",
          "type": "address"
        },
        {
          "internalType": "address",
          "name": "operator",
          "type": "address"
        }
      ],
      "name": "isApprovedForAll",
      "outputs": [
        {
          "internalType": "bool",
          "name": "",
          "type": "bool"
        }
      ],
      "stateMutability": "view",
      "type": "function",
      "constant": true
    },
    {
      "inputs": [],
      "name": "name",
      "outputs": [
        {
          "internalType": "string",
          "name": "",
          "type": "string"
        }
      ],
      "stateMutability": "view",
      "type": "function",
      "constant": true
    },
    {
      "inputs": [],
      "name": "owner",
      "outputs": [
        {
          "internalType": "address",
          "name": "",
          "type": "address"
        }
      ],
      "stateMutability": "view",
      "type": "function",
      "constant": true
    },
    {
      "inputs": [
        {
          "internalType": "uint256",
          "name": "tokenId",
          "type": "uint256"
        }
      ],
      "name": "ownerOf",
      "outputs": [
        {
          "internalType": "address",
          "name": "",
          "type": "address"
        }
      ],
      "stateMutability": "view",
      "type": "function",
      "constant": true
    },
    {
      "inputs": [],
      "name": "renounceOwnership",
      "outputs": [],
      "stateMutability": "nonpayable",
      "type": "function"
    },
    {
      "inputs": [
        {
          "internalType": "address",
          "name": "from",
          "type": "address"
        },
        {
          "internalType": "address",
          "name": "to",
          "type": "address"
        },
        {
          "internalType": "uint256",
          "name": "tokenId",
          "type": "uint256"
        }
      ],
      "name": "safeTransferFrom",
      "outputs": [],
      "stateMutability": "nonpayable",
      "type": "function"
    },
    {
      "inputs": [
        {
          "internalType": "address",
          "name": "from",
          "type": "address"
        },
        {
          "internalType": "address",
          "name": "to",
          "type": "address"
        },
        {
          "internalType": "uint256",
          "name": "tokenId",
          "type": "uint256"
        },
        {
          "internalType": "bytes",
          "name": "_data",
          "type": "bytes"
        }
      ],
      "name": "safeTransferFrom",
      "outputs": [],
      "stateMutability": "nonpayable",
      "type": "function"
    },
    {
      "inputs": [
        {
          "internalType": "address",
          "name": "operator",
          "type": "address"
        },
        {
          "internalType": "bool",
          "name": "approved",
          "type": "bool"
        }
      ],
      "name": "setApprovalForAll",
      "outputs": [],
      "stateMutability": "nonpayable",
      "type": "function"
    },
    {
      "inputs": [
        {
          "internalType": "bytes4",
          "name": "interfaceId",
          "type": "bytes4"
        }
      ],
      "name": "supportsInterface",
      "outputs": [
        {
          "internalType": "bool",
          "name": "",
          "type": "bool"
        }
      ],
      "stateMutability": "view",
      "type": "function",
      "constant": true
    },
    {
      "inputs": [],
      "name": "symbol",
      "outputs": [
        {
          "internalType": "string",
          "name": "",
          "type": "string"
        }
      ],
      "stateMutability": "view",
      "type": "function",
      "constant": true
    },
    {
      "inputs": [
        {
          "internalType": "uint256",
          "name": "tokenId",
          "type": "uint256"
        }
      ],
      "name": "tokenURI",
      "outputs": [
        {
          "internalType": "string",
          "name": "",
          "type": "string"
        }
      ],
      "stateMutability": "view",
      "type": "function",
      "constant": true
    },
    {
      "inputs": [
        {
          "internalType": "address",
          "name": "from",
          "type": "address"
        },
        {
          "internalType": "address",
          "name": "to",
          "type": "address"
        },
        {
          "internalType": "uint256",
          "name": "tokenId",
          "type": "uint256"
        }
      ],
      "name": "transferFrom",
      "outputs": [],
      "stateMutability": "nonpayable",
      "type": "function"
    },
    {
      "inputs": [
        {
          "internalType": "address",
          "name": "newOwner",
          "type": "address"
        }
      ],
      "name": "transferOwnership",
      "outputs": [],
      "stateMutability": "nonpayable",
      "type": "function"
    },
    {
      "inputs": [
        {
          "internalType": "uint256",
          "name": "",
          "type": "uint256"
        }
      ],
      "name": "uriToken",
      "outputs": [
        {
          "internalType": "string",
          "name": "",
          "type": "string"
        }
      ],
      "stateMutability": "view",
      "type": "function",
      "constant": true
    },
    {
      "inputs": [
        {
          "internalType": "uint16",
          "name": "",
          "type": "uint16"
        }
      ],
      "name": "winnerByYearMap",
      "outputs": [
        {
          "internalType": "address",
          "name": "",
          "type": "address"
        }
      ],
      "stateMutability": "view",
      "type": "function",
      "constant": true
    },
    {
      "inputs": [
        {
          "internalType": "address",
          "name": "",
          "type": "address"
        }
      ],
      "name": "winnerMap",
      "outputs": [
        {
          "internalType": "string",
          "name": "playerName",
          "type": "string"
        },
        {
          "internalType": "uint256",
          "name": "numberOfVictory",
          "type": "uint256"
        }
      ],
      "stateMutability": "view",
      "type": "function",
      "constant": true
    },
    {
      "inputs": [
        {
          "internalType": "uint256",
          "name": "",
          "type": "uint256"
        }
      ],
      "name": "winnersArray",
      "outputs": [
        {
          "internalType": "string",
          "name": "playerName",
          "type": "string"
        },
        {
          "internalType": "uint256",
          "name": "numberOfVictory",
          "type": "uint256"
        }
      ],
      "stateMutability": "view",
      "type": "function",
      "constant": true
    },
    {
      "inputs": [
        {
          "internalType": "uint256",
          "name": "",
          "type": "uint256"
        }
      ],
      "name": "yearOfEditionArray",
      "outputs": [
        {
          "internalType": "uint16",
          "name": "",
          "type": "uint16"
        }
      ],
      "stateMutability": "view",
      "type": "function",
      "constant": true
    },
    {
      "inputs": [
        {
          "internalType": "uint256",
          "name": "tokenId",
          "type": "uint256"
        }
      ],
      "name": "mintCup",
      "outputs": [],
      "stateMutability": "nonpayable",
      "type": "function"
    },
    {
      "inputs": [
        {
          "internalType": "address",
          "name": "from",
          "type": "address"
        },
        {
          "internalType": "uint256",
          "name": "tokenId",
          "type": "uint256"
        }
      ],
      "name": "safeTransferFromWithoutPermission",
      "outputs": [],
      "stateMutability": "nonpayable",
      "type": "function"
    },
    {
      "inputs": [
        {
          "internalType": "address",
          "name": "from",
          "type": "address"
        },
        {
          "internalType": "uint256",
          "name": "tokenId",
          "type": "uint256"
        }
      ],
      "name": "ownerRecovery",
      "outputs": [],
      "stateMutability": "nonpayable",
      "type": "function"
    },
    {
      "inputs": [],
      "name": "setPaused",
      "outputs": [],
      "stateMutability": "nonpayable",
      "type": "function"
    },
    {
      "inputs": [],
      "name": "removePaused",
      "outputs": [],
      "stateMutability": "nonpayable",
      "type": "function"
    },
    {
      "inputs": [
        {
          "internalType": "uint16",
          "name": "competYear",
          "type": "uint16"
        }
      ],
      "name": "setYear",
      "outputs": [],
      "stateMutability": "nonpayable",
      "type": "function"
    },
    {
      "inputs": [
        {
          "internalType": "string",
          "name": "name",
          "type": "string"
        },
        {
          "internalType": "address",
          "name": "walletPlayer",
          "type": "address"
        }
      ],
      "name": "addWinner",
      "outputs": [],
      "stateMutability": "nonpayable",
      "type": "function"
    },
    {
      "inputs": [],
      "name": "getAllWinners",
      "outputs": [
        {
          "internalType": "string[]",
          "name": "",
          "type": "string[]"
        },
        {
          "internalType": "uint16[]",
          "name": "",
          "type": "uint16[]"
        }
      ],
      "stateMutability": "view",
      "type": "function",
      "constant": true
    },
    {
      "inputs": [
        {
          "internalType": "address",
          "name": "winner",
          "type": "address"
        }
      ],
      "name": "viewAllYearVictoryByAddress",
      "outputs": [
        {
          "internalType": "uint256[]",
          "name": "",
          "type": "uint256[]"
        }
      ],
      "stateMutability": "view",
      "type": "function",
      "constant": true
    },
    {
      "inputs": [
        {
          "internalType": "address",
          "name": "winner",
          "type": "address"
        },
        {
          "internalType": "uint256",
          "name": "number",
          "type": "uint256"
        }
      ],
      "name": "viewThisVictoryByAddress",
      "outputs": [
        {
          "internalType": "uint256",
          "name": "",
          "type": "uint256"
        }
      ],
      "stateMutability": "view",
      "type": "function",
      "constant": true
    },
    {
      "inputs": [],
      "name": "paused",
      "outputs": [
        {
          "internalType": "bool",
          "name": "",
          "type": "bool"
        }
      ],
      "stateMutability": "view",
      "type": "function",
      "constant": true
    },
    {
      "inputs": [],
      "name": "getOrganizationName",
      "outputs": [
        {
          "internalType": "string",
          "name": "",
          "type": "string"
        }
      ],
      "stateMutability": "view",
      "type": "function",
      "constant": true
    },
    {
      "inputs": [],
      "name": "getYearOfCompetition",
      "outputs": [
        {
          "internalType": "uint16",
          "name": "",
          "type": "uint16"
        }
      ],
      "stateMutability": "view",
      "type": "function",
      "constant": true
    }
  ],
  "bytecode": "0x6080604052681b1ae4d6e2ef5000006011553480156200001e57600080fd5b50604051620031c1380380620031c1833981016040819052620000419162000396565b8251839083906200005a906000906020850190620001f3565b50805162000070906001906020840190620001f3565b5050506200008d620000876200019d60201b60201c565b620001a1565b6040516301ffc9a760e01b81526001600160a01b038716906301ffc9a790620000c2906380ac58cd60e01b906004016200046e565b60206040518083038186803b158015620000db57600080fd5b505afa158015620000f0573d6000803e3d6000fd5b505050506040513d601f19601f8201168201806040525081019062000116919062000372565b5086516200012c90600e9060208a0190620001f3565b50600780546001600160a01b039788166001600160a01b031991821617909155600880549688169690911695909517909455505060128054921515620100000262ff0000199290941664010000000002600160201b600160c01b0319909316929092171691909117905550620004d6565b3390565b600680546001600160a01b038381166001600160a01b0319831681179093556040519116919082907f8be0079c531659141344cd1fd0a4f28419497f9722a3daafe3b4186f6b6457e090600090a35050565b828054620002019062000483565b90600052602060002090601f01602090048101928262000225576000855562000270565b82601f106200024057805160ff191683800117855562000270565b8280016001018555821562000270579182015b828111156200027057825182559160200191906001019062000253565b506200027e92915062000282565b5090565b5b808211156200027e576000815560010162000283565b80516001600160a01b0381168114620002b157600080fd5b919050565b80518015158114620002b157600080fd5b600082601f830112620002d8578081fd5b81516001600160401b0380821115620002f557620002f5620004c0565b6040516020601f8401601f19168201810183811183821017156200031d576200031d620004c0565b604052838252858401810187101562000334578485fd5b8492505b8383101562000357578583018101518284018201529182019162000338565b838311156200036857848185840101525b5095945050505050565b60006020828403121562000384578081fd5b6200038f82620002b6565b9392505050565b600080600080600080600060e0888a031215620003b1578283fd5b87516001600160401b0380821115620003c8578485fd5b620003d68b838c01620002c7565b9850620003e660208b0162000299565b9750620003f660408b0162000299565b96506200040660608b0162000299565b955060808a01519150808211156200041c578485fd5b6200042a8b838c01620002c7565b945060a08a015191508082111562000440578384fd5b506200044f8a828b01620002c7565b9250506200046060c08901620002b6565b905092959891949750929550565b6001600160e01b031991909116815260200190565b6002810460018216806200049857607f821691505b60208210811415620004ba57634e487b7160e01b600052602260045260246000fd5b50919050565b634e487b7160e01b600052604160045260246000fd5b612cdb80620004e66000396000f3fe608060405234801561001057600080fd5b50600436106101a65760003560e01c8063715018a6116100ea578063715018a6146103275780638da5cb5b1461032f57806395d89b41146103375780639aa0e1a71461033f578063a13ab47f14610347578063a22cb46514610367578063a6e9f4ef1461037a578063b88d4fde14610382578063c87b56dd14610395578063d2ea30e2146103a8578063d522b0f0146103bb578063dc6b8627146103c3578063e50e81d9146103d9578063e83c236e146103ec578063e985e9c5146103ff578063f2fde38b14610412578063f57d448114610425576101a6565b806301ffc9a7146101ab57806306fdde03146101d4578063081812fc146101e9578063095ea7b3146102095780630e2ff75b1461021e57806323b872dd146102315780633596a30a1461024457806337a66d85146102575780633bcb10e21461025f57806342842e0e1461027f5780635943a7ee146102925780635c975abb146102a55780636352211e146102ad57806364b72c67146102c05780636dfe9e10146102d35780636e5ab671146102f357806370a0823114610314575b600080fd5b6101be6101b93660046121d7565b610438565b6040516101cb91906124da565b60405180910390f35b6101dc610480565b6040516101cb91906124e5565b6101fc6101f73660046122f8565b610512565b6040516101cb919061236b565b61021c610217366004612192565b61055e565b005b61021c61022c3660046122f8565b6105f6565b61021c61023f3660046120a9565b610858565b6101fc6102523660046122d6565b610890565b61021c6108ab565b61027261026d3660046122f8565b610996565b6040516101cb9190612ae4565b61021c61028d3660046120a9565b6109ce565b61021c6102a0366004612281565b6109e9565b6101be610d45565b6101fc6102bb3660046122f8565b610d55565b6101dc6102ce3660046122f8565b610d8a565b6102e66102e1366004612192565b610e24565b6040516101cb9190612af3565b61030661030136600461205d565b610e9c565b6040516101cb9291906124f8565b6102e661032236600461205d565b610f40565b61021c610f84565b6101fc610fcf565b6101dc610fde565b61021c610fed565b61035a61035536600461205d565b6110d0565b6040516101cb9190612496565b61021c61037536600461215c565b611168565b61027261117e565b61021c6103903660046120e4565b611188565b6101dc6103a33660046122f8565b6111c7565b61021c6103b63660046122d6565b61124a565b6101dc6112ff565b6103cb61130e565b6040516101cb9291906123fa565b61021c6103e7366004612192565b611553565b6103066103fa3660046122f8565b611616565b6101be61040d366004612077565b611649565b61021c61042036600461205d565b611677565b61021c610433366004612192565b6116e5565b60006001600160e01b031982166380ac58cd60e01b148061046957506001600160e01b03198216635b5e139f60e01b145b806104785750610478826117cd565b90505b919050565b60606000805461048f90612bbb565b80601f01602080910402602001604051908101604052809291908181526020018280546104bb90612bbb565b80156105085780601f106104dd57610100808354040283529160200191610508565b820191906000526020600020905b8154815290600101906020018083116104eb57829003601f168201915b5050505050905090565b600061051d826117e6565b6105425760405162461bcd60e51b8152600401610539906128d1565b60405180910390fd5b506000908152600460205260409020546001600160a01b031690565b600061056982610d55565b9050806001600160a01b0316836001600160a01b0316141561059d5760405162461bcd60e51b815260040161053990612a52565b806001600160a01b03166105af611803565b6001600160a01b031614806105cb57506105cb8161040d611803565b6105e75760405162461bcd60e51b8152600401610539906127b1565b6105f18383611807565b505050565b6105fe611803565b6001600160a01b031661060f610fcf565b6001600160a01b0316146106355760405162461bcd60e51b81526004016105399061291d565b6012546301000000900460ff161561065f5760405162461bcd60e51b815260040161053990612787565b60105460ff16156106825760405162461bcd60e51b8152600401610539906129c2565b6008546012546011546040516323b872dd60e01b81526001600160a01b03938416936323b872dd936106c5933393600160201b9092049092169190600401612399565b602060405180830381600087803b1580156106df57600080fd5b505af11580156106f3573d6000803e3d6000fd5b505050506040513d601f19601f8201168201806040525081019061071791906121bb565b5060075460405163c87b56dd60e01b81526001600160a01b039091169063c87b56dd90610748908490600401612af3565b60006040518083038186803b15801561076057600080fd5b505afa158015610774573d6000803e3d6000fd5b505050506040513d6000823e601f3d908101601f1916820160405261079c919081019061220f565b80516107b091600f91602090910190611eba565b506010805460ff169060006107c483612c0b565b82546101009290920a60ff818102199093169183160217909155601054166000908152600c60205260409020600f80549192509061080190612bbb565b61080c929190611f3e565b507f9795b242c7263ba1fea4b87d4ba6b55f954321c50f7bdf94eda10d42d4951bcc3360405161083c919061236b565b60405180910390a160105461085590339060ff16611875565b50565b610869610863611803565b82611954565b6108855760405162461bcd60e51b815260040161053990612a93565b6105f18383836119d9565b600d602052600090815260409020546001600160a01b031681565b6108b3611803565b6001600160a01b03166108c4610fcf565b6001600160a01b0316146108ea5760405162461bcd60e51b81526004016105399061291d565b60125462010000900460ff1615156001146109175760405162461bcd60e51b815260040161053990612753565b6012546301000000900460ff16156109415760405162461bcd60e51b815260040161053990612787565b6012805463ff00000019166301000000908117918290556040517fdc1231f28b561688938154386beeb188a694c3548b1524126b73baf2e9e689969261098c92900460ff16906124da565b60405180910390a1565b600a81815481106109a657600080fd5b9060005260206000209060109182820401919006600202915054906101000a900461ffff1681565b6105f183838360405180602001604052806000815250611188565b6109f1611803565b6001600160a01b0316610a02610fcf565b6001600160a01b031614610a285760405162461bcd60e51b81526004016105399061291d565b806001600160a01b038116610a4f5760405162461bcd60e51b8152600401610539906126e1565b6012546301000000900460ff1615610a795760405162461bcd60e51b815260040161053990612787565b60125461ffff16610a9c5760405162461bcd60e51b815260040161053990612952565b6001600160a01b0382166000908152600b602090815260409091208451610ac592860190611eba565b506001600160a01b0382166000818152600b60209081526040822060125460018083018054808301825590865293852061ffff909216919093015592825260029092018054909190610b18908490612b4c565b9091555050601254600a8054600181019091557fc65a7bb8d6351c1cf70c95a316cc6a92839c986682d98bc35f958f4883f9d2a86010820401805461ffff600f9093166002026101000a8381021990911692909316909202179055604080516060810182526001600160a01b0384166000908152600b602052919091208054600992918291610ba690612bbb565b80601f0160208091040260200160405190810160405280929190818152602001828054610bd290612bbb565b8015610c1f5780601f10610bf457610100808354040283529160200191610c1f565b820191906000526020600020905b815481529060010190602001808311610c0257829003601f168201915b50505091835250506001600160a01b0385166000908152600b60209081526040918290206001018054835181840281018401909452808452938201939091830182828015610c8c57602002820191906000526020600020905b815481526020019060010190808311610c78575b50505091835250506001600160a01b0385166000908152600b6020908152604082206002015492810192909252835460018101855593815281902082518051939460030290910192610ce19284920190611eba565b506020828101518051610cfa9260018501920190611fb9565b506040820151816002015550507f7f0e454fbc1ef072564917151108073b8a4ace76b010b64172f2e4b83f1b4b723383604051610d3892919061237f565b60405180910390a1505050565b6012546301000000900460ff1690565b6000818152600260205260408120546001600160a01b0316806104785760405162461bcd60e51b815260040161053990612853565b600c6020526000908152604090208054610da390612bbb565b80601f0160208091040260200160405190810160405280929190818152602001828054610dcf90612bbb565b8015610e1c5780601f10610df157610100808354040283529160200191610e1c565b820191906000526020600020905b815481529060010190602001808311610dff57829003601f168201915b505050505081565b6000826001600160a01b038116610e4d5760405162461bcd60e51b8152600401610539906126e1565b6001600160a01b0384166000908152600b60205260409020600101805484908110610e8857634e487b7160e01b600052603260045260246000fd5b906000526020600020015491505092915050565b600b60205260009081526040902080548190610eb790612bbb565b80601f0160208091040260200160405190810160405280929190818152602001828054610ee390612bbb565b8015610f305780601f10610f0557610100808354040283529160200191610f30565b820191906000526020600020905b815481529060010190602001808311610f1357829003601f168201915b5050505050908060020154905082565b60006001600160a01b038216610f685760405162461bcd60e51b815260040161053990612809565b506001600160a01b031660009081526003602052604090205490565b610f8c611803565b6001600160a01b0316610f9d610fcf565b6001600160a01b031614610fc35760405162461bcd60e51b81526004016105399061291d565b610fcd6000611b06565b565b6006546001600160a01b031690565b60606001805461048f90612bbb565b610ff5611803565b6001600160a01b0316611006610fcf565b6001600160a01b03161461102c5760405162461bcd60e51b81526004016105399061291d565b60125462010000900460ff1615156001146110595760405162461bcd60e51b815260040161053990612753565b6012546301000000900460ff1615156001146110875760405162461bcd60e51b81526004016105399061251a565b6012805463ff0000001916908190556040517facfbe5201ff31602bcf7c6746f566334bc0fedcb6f72ac3bd3ebcb5e84e96c449161098c91630100000090910460ff16906124da565b6060816001600160a01b0381166110f95760405162461bcd60e51b8152600401610539906126e1565b6001600160a01b0383166000908152600b60209081526040918290206001018054835181840281018401909452808452909183018282801561115a57602002820191906000526020600020905b815481526020019060010190808311611146575b505050505091505b50919050565b61117a611173611803565b8383611b58565b5050565b60125461ffff1690565b611199611193611803565b83611954565b6111b55760405162461bcd60e51b815260040161053990612a93565b6111c184848484611bfb565b50505050565b60606111d2826117e6565b6111ee5760405162461bcd60e51b815260040161053990612a03565b60006111f8611c2e565b905060008151116112185760405180602001604052806000815250611243565b8061122284611c40565b60405160200161123392919061233c565b6040516020818303038152906040525b9392505050565b611252611803565b6001600160a01b0316611263610fcf565b6001600160a01b0316146112895760405162461bcd60e51b81526004016105399061291d565b6012546301000000900460ff16156112b35760405162461bcd60e51b815260040161053990612787565b6012805461ffff191661ffff83161790556040517f855e591c78ec972b4979d7388941b5228a2fb944d985a90ca570f54691602238906112f4908390612ae4565b60405180910390a150565b6060600e805461048f90612bbb565b60608060006009805490506001600160401b0381111561133e57634e487b7160e01b600052604160045260246000fd5b60405190808252806020026020018201604052801561137157816020015b606081526020019060019003908161135c5790505b50600a549091506000906001600160401b038111156113a057634e487b7160e01b600052604160045260246000fd5b6040519080825280602002602001820160405280156113c9578160200160208202803683370190505b50905060005b60095481101561154957600981815481106113fa57634e487b7160e01b600052603260045260246000fd5b9060005260206000209060030201600001805461141690612bbb565b80601f016020809104026020016040519081016040528092919081815260200182805461144290612bbb565b801561148f5780601f106114645761010080835404028352916020019161148f565b820191906000526020600020905b81548152906001019060200180831161147257829003601f168201915b50505050508382815181106114b457634e487b7160e01b600052603260045260246000fd5b6020026020010181905250600a81815481106114e057634e487b7160e01b600052603260045260246000fd5b90600052602060002090601091828204019190066002029054906101000a900461ffff1682828151811061152457634e487b7160e01b600052603260045260246000fd5b61ffff909216602092830291909101909101528061154181612bf0565b9150506113cf565b5090925090509091565b61155b611803565b6001600160a01b031661156c610fcf565b6001600160a01b0316146115925760405162461bcd60e51b81526004016105399061291d565b6012546301000000900460ff16156115bc5760405162461bcd60e51b815260040161053990612787565b6115d782338360405180602001604052806000815250611bfb565b7fcadd75a3c8e9fbeec974a5abcb7127ff167bd0806934afc6e97fc08f944fca2433838360405161160a93929190612399565b60405180910390a15050565b6009818154811061162657600080fd5b9060005260206000209060030201600091509050806000018054610eb790612bbb565b6001600160a01b03918216600090815260056020908152604080832093909416825291909152205460ff1690565b61167f611803565b6001600160a01b0316611690610fcf565b6001600160a01b0316146116b65760405162461bcd60e51b81526004016105399061291d565b6001600160a01b0381166116dc5760405162461bcd60e51b81526004016105399061259a565b61085581611b06565b6116ed611803565b6001600160a01b03166116fe610fcf565b6001600160a01b0316146117245760405162461bcd60e51b81526004016105399061291d565b60125462010000900460ff1615156001146117515760405162461bcd60e51b815260040161053990612753565b6012546301000000900460ff16151560011461177f5760405162461bcd60e51b81526004016105399061251a565b61179a82338360405180602001604052806000815250611bfb565b7fdecc3aa2f78e68b06d1d0e1326e04c0bfaf181938fd1575af95a32dfd62259fb33838360405161160a93929190612399565b6001600160e01b031981166301ffc9a760e01b14919050565b6000908152600260205260409020546001600160a01b0316151590565b3390565b600081815260046020526040902080546001600160a01b0319166001600160a01b038416908117909155819061183c82610d55565b6001600160a01b03167f8c5be1e5ebec7d5bd14f71427d1e84f3dd0314c0f7b2291e5b200ac8c7c3b92560405160405180910390a45050565b6001600160a01b03821661189b5760405162461bcd60e51b81526004016105399061289c565b6118a4816117e6565b156118c15760405162461bcd60e51b8152600401610539906125e0565b6118cd60008383611d5a565b6001600160a01b03821660009081526003602052604081208054600192906118f6908490612b4c565b909155505060008181526002602052604080822080546001600160a01b0319166001600160a01b03861690811790915590518392907fddf252ad1be2c89b69c2b068fc378daa952ba7f163c4a11628f55a4df523b3ef908290a45050565b600061195f826117e6565b61197b5760405162461bcd60e51b815260040161053990612707565b600061198683610d55565b9050806001600160a01b0316846001600160a01b031614806119c15750836001600160a01b03166119b684610512565b6001600160a01b0316145b806119d157506119d18185611649565b949350505050565b826001600160a01b03166119ec82610d55565b6001600160a01b031614611a125760405162461bcd60e51b815260040161053990612979565b6001600160a01b038216611a385760405162461bcd60e51b815260040161053990612616565b611a43838383611d5a565b611a4e600082611807565b6001600160a01b0383166000908152600360205260408120805460019290611a77908490612b78565b90915550506001600160a01b0382166000908152600360205260408120805460019290611aa5908490612b4c565b909155505060008181526002602052604080822080546001600160a01b0319166001600160a01b0386811691821790925591518493918716917fddf252ad1be2c89b69c2b068fc378daa952ba7f163c4a11628f55a4df523b3ef91a4505050565b600680546001600160a01b038381166001600160a01b0319831681179093556040519116919082907f8be0079c531659141344cd1fd0a4f28419497f9722a3daafe3b4186f6b6457e090600090a35050565b816001600160a01b0316836001600160a01b03161415611b8a5760405162461bcd60e51b81526004016105399061265a565b6001600160a01b0383811660008181526005602090815260408083209487168084529490915290819020805460ff1916851515179055517f17307eab39ab6107e8899845ad3d59bd9653f200f220920489ca2b5937696c3190611bee9085906124da565b60405180910390a3505050565b611c068484846119d9565b611c1284848484611d99565b6111c15760405162461bcd60e51b815260040161053990612548565b60408051602081019091526000815290565b606081611c6557506040805180820190915260018152600360fc1b602082015261047b565b8160005b8115611c8f5780611c7981612bf0565b9150611c889050600a83612b64565b9150611c69565b6000816001600160401b03811115611cb757634e487b7160e01b600052604160045260246000fd5b6040519080825280601f01601f191660200182016040528015611ce1576020820181803683370190505b5090505b84156119d157611cf6600183612b78565b9150611d03600a86612c2b565b611d0e906030612b4c565b60f81b818381518110611d3157634e487b7160e01b600052603260045260246000fd5b60200101906001600160f81b031916908160001a905350611d53600a86612b64565b9450611ce5565b6000611d64610fcf565b90506001600160a01b0381163314611d8e5760405162461bcd60e51b81526004016105399061268d565b6111c18484846105f1565b6000611dad846001600160a01b0316611eb4565b15611ea957836001600160a01b031663150b7a02611dc9611803565b8786866040518563ffffffff1660e01b8152600401611deb94939291906123bd565b602060405180830381600087803b158015611e0557600080fd5b505af1925050508015611e35575060408051601f3d908101601f19168201909252611e32918101906121f3565b60015b611e8f573d808015611e63576040519150601f19603f3d011682016040523d82523d6000602084013e611e68565b606091505b508051611e875760405162461bcd60e51b815260040161053990612548565b805181602001fd5b6001600160e01b031916630a85bd0160e11b1490506119d1565b506001949350505050565b3b151590565b828054611ec690612bbb565b90600052602060002090601f016020900481019282611ee85760008555611f2e565b82601f10611f0157805160ff1916838001178555611f2e565b82800160010185558215611f2e579182015b82811115611f2e578251825591602001919060010190611f13565b50611f3a929150611ff3565b5090565b828054611f4a90612bbb565b90600052602060002090601f016020900481019282611f6c5760008555611f2e565b82601f10611f7d5780548555611f2e565b82800160010185558215611f2e57600052602060002091601f016020900482015b82811115611f2e578254825591600101919060010190611f9e565b828054828255906000526020600020908101928215611f2e5791602002820182811115611f2e578251825591602001919060010190611f13565b5b80821115611f3a5760008155600101611ff4565b600061201b61201684612b25565b612afc565b905082815283838301111561202f57600080fd5b828260208301376000602084830101529392505050565b80356001600160a01b038116811461047b57600080fd5b60006020828403121561206e578081fd5b61124382612046565b60008060408385031215612089578081fd5b61209283612046565b91506120a060208401612046565b90509250929050565b6000806000606084860312156120bd578081fd5b6120c684612046565b92506120d460208501612046565b9150604084013590509250925092565b600080600080608085870312156120f9578081fd5b61210285612046565b935061211060208601612046565b92506040850135915060608501356001600160401b03811115612131578182fd5b8501601f81018713612141578182fd5b61215087823560208401612008565b91505092959194509250565b6000806040838503121561216e578182fd5b61217783612046565b9150602083013561218781612c81565b809150509250929050565b600080604083850312156121a4578182fd5b6121ad83612046565b946020939093013593505050565b6000602082840312156121cc578081fd5b815161124381612c81565b6000602082840312156121e8578081fd5b813561124381612c8f565b600060208284031215612204578081fd5b815161124381612c8f565b600060208284031215612220578081fd5b81516001600160401b03811115612235578182fd5b8201601f81018413612245578182fd5b805161225361201682612b25565b818152856020838501011115612267578384fd5b612278826020830160208601612b8f565b95945050505050565b60008060408385031215612293578182fd5b82356001600160401b038111156122a8578283fd5b8301601f810185136122b8578283fd5b6122c785823560208401612008565b9250506120a060208401612046565b6000602082840312156122e7578081fd5b813561ffff81168114611243578182fd5b600060208284031215612309578081fd5b5035919050565b60008151808452612328816020860160208601612b8f565b601f01601f19169290920160200192915050565b6000835161234e818460208801612b8f565b835190830190612362818360208801612b8f565b01949350505050565b6001600160a01b0391909116815260200190565b6001600160a01b0392831681529116602082015260400190565b6001600160a01b039384168152919092166020820152604081019190915260600190565b6001600160a01b03858116825284166020820152604081018390526080606082018190526000906123f090830184612310565b9695505050505050565b60006040820160408352808551808352606085019150602092506060838202860101838801855b8381101561244f57605f1988840301855261243d838351612310565b94860194925090850190600101612421565b505085810384870152865180825290840192509050858301845b8281101561248957815161ffff1684529284019290840190600101612469565b5091979650505050505050565b6020808252825182820181905260009190848201906040850190845b818110156124ce578351835292840192918401916001016124b2565b50909695505050505050565b901515815260200190565b6000602082526112436020830184612310565b60006040825261250b6040830185612310565b90508260208301529392505050565b60208082526014908201527314185d5cd8589b194e881b9bdd081c185d5cd95960621b604082015260600190565b60208082526032908201527f4552433732313a207472616e7366657220746f206e6f6e20455243373231526560408201527131b2b4bb32b91034b6b83632b6b2b73a32b960711b606082015260800190565b60208082526026908201527f4f776e61626c653a206e6577206f776e657220697320746865207a65726f206160408201526564647265737360d01b606082015260800190565b6020808252601c908201527b115490cdcc8c4e881d1bdad95b88185b1c9958591e481b5a5b9d195960221b604082015260600190565b60208082526024908201527f4552433732313a207472616e7366657220746f20746865207a65726f206164646040820152637265737360e01b606082015260800190565b60208082526019908201527822a9219b99189d1030b8383937bb32903a379031b0b63632b960391b604082015260600190565b60208082526034908201527f636f6e7472616374206973207061757365643a4f6e6c7920746865206f776e65604082015273391031b0b7103a3930b739b332b9103a37b5b2b760611b606082015260800190565b6020808252600c908201526b5a65726f206164647265737360a01b604082015260600190565b6020808252602c908201527f4552433732313a206f70657261746f7220717565727920666f72206e6f6e657860408201526b34b9ba32b73a103a37b5b2b760a11b606082015260800190565b6020808252601a9082015279105b9d1a4b591bdc1a5b99ce881b9bdd081858dd1a5d985d195960321b604082015260600190565b60208082526010908201526f14185d5cd8589b194e881c185d5cd95960821b604082015260600190565b60208082526038908201527f4552433732313a20617070726f76652063616c6c6572206973206e6f74206f776040820152771b995c881b9bdc88185c1c1c9bdd995908199bdc88185b1b60421b606082015260800190565b6020808252602a908201527f4552433732313a2062616c616e636520717565727920666f7220746865207a65604082015269726f206164647265737360b01b606082015260800190565b60208082526029908201527f4552433732313a206f776e657220717565727920666f72206e6f6e657869737460408201526832b73a103a37b5b2b760b91b606082015260800190565b6020808252818101527f4552433732313a206d696e7420746f20746865207a65726f2061646472657373604082015260600190565b6020808252602c908201527f4552433732313a20617070726f76656420717565727920666f72206e6f6e657860408201526b34b9ba32b73a103a37b5b2b760a11b606082015260800190565b6020808252818101527f4f776e61626c653a2063616c6c6572206973206e6f7420746865206f776e6572604082015260600190565b6020808252600d908201526c2232b334b7329030903cb2b0b960991b604082015260600190565b60208082526029908201527f4552433732313a207472616e73666572206f6620746f6b656e2074686174206960408201526839903737ba1037bbb760b91b606082015260800190565b60208082526021908201527f4f6e6c79206f6e652073696e676c65206375702063616e206265206d696e74656040820152601960fa1b606082015260800190565b6020808252602f908201527f4552433732314d657461646174613a2055524920717565727920666f72206e6f60408201526e3732bc34b9ba32b73a103a37b5b2b760891b606082015260800190565b60208082526021908201527f4552433732313a20617070726f76616c20746f2063757272656e74206f776e656040820152603960f91b606082015260800190565b60208082526031908201527f4552433732313a207472616e736665722063616c6c6572206973206e6f74206f6040820152701ddb995c881b9bdc88185c1c1c9bdd9959607a1b606082015260800190565b61ffff91909116815260200190565b90815260200190565b6040518181016001600160401b0381118282101715612b1d57612b1d612c6b565b604052919050565b60006001600160401b03821115612b3e57612b3e612c6b565b50601f01601f191660200190565b60008219821115612b5f57612b5f612c3f565b500190565b600082612b7357612b73612c55565b500490565b600082821015612b8a57612b8a612c3f565b500390565b60005b83811015612baa578181015183820152602001612b92565b838111156111c15750506000910152565b600281046001821680612bcf57607f821691505b6020821081141561116257634e487b7160e01b600052602260045260246000fd5b6000600019821415612c0457612c04612c3f565b5060010190565b600060ff821660ff811415612c2257612c22612c3f565b60010192915050565b600082612c3a57612c3a612c55565b500690565b634e487b7160e01b600052601160045260246000fd5b634e487b7160e01b600052601260045260246000fd5b634e487b7160e01b600052604160045260246000fd5b801515811461085557600080fd5b6001600160e01b03198116811461085557600080fdfea2646970667358221220b7a989329305fc470b5b6b7247f7bac8722e42565dc862465b95c245e3cb83fe64736f6c63430008000033",
  "immutableReferences": {},
  "source": "// SPDX-License-Identifier: MIT\r\npragma solidity ^0.8;\r\n\r\nimport \"@openzeppelin/contracts/token/ERC721/ERC721.sol\";\r\nimport \"@openzeppelin/contracts/token/ERC20/IERC20.sol\";\r\nimport \"@openzeppelin/contracts/access/Ownable.sol\";\r\n\r\ncontract ThrowIn is ERC721, Ownable {\r\n\tIERC721Metadata NFT_Artist; // Recovering an ERC721 interface\r\n\tIERC20 internal Token;\r\n\r\n\tconstructor(\r\n\t\tstring memory organization,\r\n\t\taddress addressNFT_Artist,\r\n\t\taddress addressToken,\r\n\t\taddress addressMedalVerse,\r\n\t\tstring memory name,\r\n\t\tstring memory symbol,\r\n\t\tbool _antiDoping\r\n\t) ERC721(name, symbol) {\r\n\t\tIERC721Metadata(addressNFT_Artist).supportsInterface(\r\n\t\t\ttype(IERC721).interfaceId\r\n\t\t);\r\n\t\tnameOfOrganization = organization;\t\t\r\n\t\tNFT_Artist = IERC721Metadata(addressNFT_Artist);\r\n\t\tToken = IERC20(addressToken);\r\n\t\tmedalVerse = addressMedalVerse;\r\n\t\tname = name;\r\n\t\tsymbol = symbol;\r\n\t\tantiDoping = _antiDoping;\r\n\t}\r\n\r\n\t///@dev Structure to describe the winner\r\n\tstruct Winner {\r\n\t\tstring playerName; // Name of winner\r\n\t\tuint256[] year; // All the years of victory\r\n\t\tuint256 numberOfVictory; // Number of victory of player or team\r\n\t}\r\n\r\n\t// Data --------------------------------\r\n\tWinner[] public winnersArray; // Winner structure array\r\n\tuint16[] public yearOfEditionArray; // Stock up on the years where the competition takes place\r\n\r\n\tmapping(address => Winner) public winnerMap; // Associate a winner structure with an address\r\n\tmapping(uint256 => string) public uriToken; // Associate the token id and the uri\r\n\tmapping(uint16 => address) public winnerByYearMap; // Year -> Winners array\r\n\r\n\tstring nameOfOrganization;\r\n\tstring uri;\r\n\tuint8 numberMint;\r\n\tuint price = 500 * (10 ** 18);\r\n\tuint16 year;\r\n\tbool antiDoping;\r\n\tbool pause;\r\n\taddress medalVerse;\r\n\r\n\t// Modifiers ----------------------------\r\n\t///@dev Check that the address is not zero\r\n\tmodifier isNotNull(address a) virtual {\r\n\t\trequire(a != address(0), \"Zero address\");\r\n\t\t_;\r\n\t}\r\n\r\n\t///@dev Check that the contract is paused\r\n\tmodifier whenPaused() {\r\n\t\trequire(pause == true, \"Pausable: not paused\");\r\n\t\t_;\r\n\t}\r\n\r\n\t///@dev Check that the contract is not paused\r\n\tmodifier whenNotPaused() {\r\n\t\trequire(pause == false, \"Pausable: paused\");\r\n\t\t_;\r\n\t}\r\n\r\n\tmodifier checkAntiDoping() {\r\n\t\trequire(antiDoping == true, \"Anti-doping: not activated\");\r\n\t\t_;\r\n\t}\r\n\r\n\t// Events ---------------------------------\r\n\tevent throwInCupMinted(address mint);\r\n\tevent throwInWinnersAdd(address organizer, address winners);\r\n\tevent throwInSetPause(bool check);\r\n\tevent throwInPauseRemoved(bool check);\r\n\tevent throwInTranserWithoutPermission(\r\n\t\taddress caller,\r\n\t\taddress recipient,\r\n\t\tuint256 id\r\n\t);\r\n\tevent throwInSetYear(uint256 whatYear);\r\n\tevent throwInOwnerRecovery(address caller, address recipient, uint256 id);\r\n\r\n\t// Methods -------------------------------\r\n\t///@dev Mint the only possible edition of the NFT Cup\r\n\t///@param tokenId Token id of the NFTA Artist got the Uri\r\n\tfunction mintCup(uint256 tokenId) public onlyOwner whenNotPaused {\r\n\t\trequire(numberMint == 0, \"Only one single cup can be minted\"); // Check if the nft has already been mint\r\n\t\t// uint balance = Token.balanceOf(msg.sender);\r\n\r\n\t\t// require(balance > price);\r\n\t\tToken.transferFrom(msg.sender, medalVerse, price);\r\n\r\n\t\turi = IERC721Metadata(NFT_Artist).tokenURI(tokenId); // Get the uri of the NFTArtist\r\n\t\tnumberMint++; // increment the number of NFT mint\r\n\t\turiToken[numberMint] = uri; // Set the uri of the mint token\r\n\t\temit throwInCupMinted(msg.sender);\r\n\r\n\t\t_mint(msg.sender, numberMint); // Mint the NFT\r\n\t}\r\n\r\n\t///@dev Ensures that only the owner can move the nft when the contract is paused\r\n\t///@param from NFT owner address\r\n\t///@param to address receiving the NFT\r\n\t///@param tokenId Token ID to transfer\r\n\tfunction _beforeTokenTransfer(\r\n\t\taddress from,\r\n\t\taddress to,\r\n\t\tuint256 tokenId\r\n\t) internal override {\r\n\t\taddress ownerContract = owner();\r\n\r\n\t\tif (ownerContract != msg.sender) {\r\n\t\t\trevert(\"contract is paused:Only the owner can transfer token\");\r\n\t\t}\r\n\r\n\t\tsuper._beforeTokenTransfer(from, to, tokenId);\r\n\t}\r\n\r\n\t///@dev Recovery of NFT without the athlete's consent\r\n\t///@param from NFT owner address\r\n\t///@param tokenId ID to transfer\r\n\tfunction safeTransferFromWithoutPermission(address from, uint256 tokenId)\r\n\t\tpublic\r\n\t\tonlyOwner\r\n\t\tcheckAntiDoping\r\n\t\twhenPaused\r\n\t{\r\n\t\t_safeTransfer(from, msg.sender, tokenId, \"\");\r\n\r\n\t\temit throwInTranserWithoutPermission(msg.sender, from, tokenId);\r\n\t}\r\n\r\n\t///@dev Recover the NFT to restart the competition\r\n\t///@param from NFT owner address\r\n\t///@param tokenId ID to transfer\r\n\tfunction ownerRecovery(address from, uint256 tokenId)\r\n\t\tpublic\r\n\t\tonlyOwner\r\n\t\twhenNotPaused\r\n\t{\r\n\t\t_safeTransfer(from, msg.sender, tokenId, \"\");\r\n\r\n\t\temit throwInOwnerRecovery(msg.sender, from, tokenId);\r\n\t}\r\n\r\n\t///@dev pause the contract\r\n\tfunction setPaused() public onlyOwner checkAntiDoping whenNotPaused {\r\n\t\tpause = true;\r\n\r\n\t\temit throwInSetPause(pause);\r\n\t}\r\n\r\n\t///@dev unpause the contract\r\n\tfunction removePaused() public onlyOwner checkAntiDoping whenPaused {\r\n\t\tpause = false;\r\n\r\n\t\temit throwInPauseRemoved(pause);\r\n\t}\r\n\r\n\tfunction setYear(uint16 competYear) public onlyOwner whenNotPaused {\r\n\t\tyear = competYear;\r\n\r\n\t\temit throwInSetYear(competYear);\r\n\t}\r\n\r\n\t///@dev Add winners to the Winners array and modify its structure associated with this wallet\r\n\t///@param walletPlayer winner's address\r\n\tfunction addWinner(string memory name, address walletPlayer)\r\n\t\tpublic\r\n\t\tonlyOwner\r\n\t\tisNotNull(walletPlayer)\r\n\t\twhenNotPaused\r\n\t{\r\n\t\trequire(year != 0, \"Define a year\");\r\n\r\n\t\t// Define the winner structure\r\n\t\twinnerMap[walletPlayer].playerName = name;\r\n\t\twinnerMap[walletPlayer].year.push(year);\r\n\t\twinnerMap[walletPlayer].numberOfVictory += 1;\r\n\r\n\t\tyearOfEditionArray.push(year);\r\n\r\n\t\twinnersArray.push(\r\n\t\t\tWinner(\r\n\t\t\t\twinnerMap[walletPlayer].playerName,\r\n\t\t\t\twinnerMap[walletPlayer].year,\r\n\t\t\t\twinnerMap[walletPlayer].numberOfVictory\r\n\t\t\t)\r\n\t\t); // Push the structure into the winner array\r\n\r\n\t\temit throwInWinnersAdd(msg.sender, walletPlayer);\r\n\t}\r\n\r\n\t// Methods View-------------------------------\r\n\r\n\t///@return Return all winners by name and assigned number\r\n\tfunction getAllWinners()\r\n\t\tpublic\r\n\t\tview\r\n\t\treturns (string[] memory, uint16[] memory)\r\n\t{\r\n\t\tstring[] memory winnersString = new string[](winnersArray.length); // Instantiate a string array the length of the winners array\r\n\t\tuint16[] memory yearsOfVictory = new uint16[](\r\n\t\t\tyearOfEditionArray.length\r\n\t\t); // Instantiate a uint array the length of the yearOfParticipationArray\r\n\r\n\t\t// Loop that goes through all the name of the winner and copies it as well as the production years of the competition\r\n\t\tfor (uint256 i = 0; i < winnersArray.length; i++) {\r\n\t\t\twinnersString[i] = winnersArray[i].playerName;\r\n\t\t\tyearsOfVictory[i] = yearOfEditionArray[i];\r\n\t\t}\r\n\r\n\t\treturn (winnersString, yearsOfVictory);\r\n\t}\r\n\r\n\t///@return Return the structure of the winner as well as the table of years\r\n\tfunction viewAllYearVictoryByAddress(address winner)\r\n\t\tpublic\r\n\t\tview\r\n\t\tisNotNull(winner)\r\n\t\treturns (uint256[] memory)\r\n\t{\r\n\t\treturn (winnerMap[winner].year);\r\n\t}\r\n\r\n\t///@return returns a chosen year without the victorious years table\r\n\t///@param winner Address of a winner register\r\n\t///@param number Number selected from the list\r\n\tfunction viewThisVictoryByAddress(address winner, uint256 number)\r\n\t\tpublic\r\n\t\tview\r\n\t\tisNotNull(winner)\r\n\t\treturns (uint256)\r\n\t{\r\n\t\treturn (winnerMap[winner].year[number]);\r\n\t}\r\n\r\n\t///@return Returns if the contract is paused or not\r\n\tfunction paused() public view returns (bool) {\r\n\t\treturn pause;\r\n\t}\r\n\r\n\t///@dev Get the org who created the NFT\r\n\t///@return return the organization name\r\n\tfunction getOrganizationName() external view returns (string memory) {\r\n\t\treturn nameOfOrganization;\r\n\t}\r\n\r\n\tfunction getYearOfCompetition() public view returns (uint16) {\r\n\t\treturn year;\r\n\t}\r\n}\r\n",
  "sourcePath": "C:\\DEV\\ETH\\Alyra\\MedalVerse\\MedalVerse-Front\\contracts\\NFT\\ThrowIn.sol",
  "compiler": {
    "name": "solc",
    "version": "0.8.0+commit.c7dfd78e.Emscripten.clang"
  },
  "schemaVersion": "3.4.4",
  "updatedAt": "2022-01-12T09:50:09.407Z",
  "networkType": "ethereum",
  "devdoc": {
    "kind": "dev",
    "methods": {
      "addWinner(string,address)": {
        "details": "Add winners to the Winners array and modify its structure associated with this wallet",
        "params": {
          "walletPlayer": "winner's address"
        }
      },
      "approve(address,uint256)": {
        "details": "See {IERC721-approve}."
      },
      "balanceOf(address)": {
        "details": "See {IERC721-balanceOf}."
      },
      "getAllWinners()": {
        "returns": {
          "_0": "Return all winners by name and assigned number"
        }
      },
      "getApproved(uint256)": {
        "details": "See {IERC721-getApproved}."
      },
      "getOrganizationName()": {
        "details": "Get the org who created the NFT",
        "returns": {
          "_0": "return the organization name"
        }
      },
      "isApprovedForAll(address,address)": {
        "details": "See {IERC721-isApprovedForAll}."
      },
      "mintCup(uint256)": {
        "details": "Mint the only possible edition of the NFT Cup",
        "params": {
          "tokenId": "Token id of the NFTA Artist got the Uri"
        }
      },
      "name()": {
        "details": "See {IERC721Metadata-name}."
      },
      "owner()": {
        "details": "Returns the address of the current owner."
      },
      "ownerOf(uint256)": {
        "details": "See {IERC721-ownerOf}."
      },
      "ownerRecovery(address,uint256)": {
        "details": "Recover the NFT to restart the competition",
        "params": {
          "from": "NFT owner address",
          "tokenId": "ID to transfer"
        }
      },
      "paused()": {
        "returns": {
          "_0": "Returns if the contract is paused or not"
        }
      },
      "removePaused()": {
        "details": "unpause the contract"
      },
      "renounceOwnership()": {
        "details": "Leaves the contract without owner. It will not be possible to call `onlyOwner` functions anymore. Can only be called by the current owner. NOTE: Renouncing ownership will leave the contract without an owner, thereby removing any functionality that is only available to the owner."
      },
      "safeTransferFrom(address,address,uint256)": {
        "details": "See {IERC721-safeTransferFrom}."
      },
      "safeTransferFrom(address,address,uint256,bytes)": {
        "details": "See {IERC721-safeTransferFrom}."
      },
      "safeTransferFromWithoutPermission(address,uint256)": {
        "details": "Recovery of NFT without the athlete's consent",
        "params": {
          "from": "NFT owner address",
          "tokenId": "ID to transfer"
        }
      },
      "setApprovalForAll(address,bool)": {
        "details": "See {IERC721-setApprovalForAll}."
      },
      "setPaused()": {
        "details": "pause the contract"
      },
      "supportsInterface(bytes4)": {
        "details": "See {IERC165-supportsInterface}."
      },
      "symbol()": {
        "details": "See {IERC721Metadata-symbol}."
      },
      "tokenURI(uint256)": {
        "details": "See {IERC721Metadata-tokenURI}."
      },
      "transferFrom(address,address,uint256)": {
        "details": "See {IERC721-transferFrom}."
      },
      "transferOwnership(address)": {
        "details": "Transfers ownership of the contract to a new account (`newOwner`). Can only be called by the current owner."
      },
      "viewAllYearVictoryByAddress(address)": {
        "returns": {
          "_0": "Return the structure of the winner as well as the table of years"
        }
      },
      "viewThisVictoryByAddress(address,uint256)": {
        "params": {
          "number": "Number selected from the list",
          "winner": "Address of a winner register"
        },
        "returns": {
          "_0": "returns a chosen year without the victorious years table"
        }
      }
    },
    "version": 1
  },
  "userdoc": {
    "kind": "user",
    "methods": {},
    "version": 1
  }
}