{
  "contractName": "ThrowIn",
  "abi": [
    {
      "inputs": [
        {
          "internalType": "string",
          "name": "oragnization",
          "type": "string"
        },
        {
          "internalType": "address",
          "name": "addressNFT_Medal",
          "type": "address"
        },
        {
          "internalType": "string",
          "name": "name",
          "type": "string"
        },
        {
          "internalType": "string",
          "name": "symbol",
          "type": "string"
        }
      ],
      "stateMutability": "nonpayable",
      "type": "constructor"
    },
    {
      "anonymous": false,
      "inputs": [
        {
          "indexed": true,
          "internalType": "address",
          "name": "owner",
          "type": "address"
        },
        {
          "indexed": true,
          "internalType": "address",
          "name": "approved",
          "type": "address"
        },
        {
          "indexed": true,
          "internalType": "uint256",
          "name": "tokenId",
          "type": "uint256"
        }
      ],
      "name": "Approval",
      "type": "event"
    },
    {
      "anonymous": false,
      "inputs": [
        {
          "indexed": true,
          "internalType": "address",
          "name": "owner",
          "type": "address"
        },
        {
          "indexed": true,
          "internalType": "address",
          "name": "operator",
          "type": "address"
        },
        {
          "indexed": false,
          "internalType": "bool",
          "name": "approved",
          "type": "bool"
        }
      ],
      "name": "ApprovalForAll",
      "type": "event"
    },
    {
      "anonymous": false,
      "inputs": [
        {
          "indexed": true,
          "internalType": "address",
          "name": "previousOwner",
          "type": "address"
        },
        {
          "indexed": true,
          "internalType": "address",
          "name": "newOwner",
          "type": "address"
        }
      ],
      "name": "OwnershipTransferred",
      "type": "event"
    },
    {
      "anonymous": false,
      "inputs": [],
      "name": "ThrowInAllParticipantsRemoved",
      "type": "event"
    },
    {
      "anonymous": false,
      "inputs": [
        {
          "indexed": false,
          "internalType": "address",
          "name": "mint",
          "type": "address"
        }
      ],
      "name": "ThrowInCupMinted",
      "type": "event"
    },
    {
      "anonymous": false,
      "inputs": [
        {
          "indexed": false,
          "internalType": "address",
          "name": "organizer",
          "type": "address"
        },
        {
          "indexed": false,
          "internalType": "address",
          "name": "participant",
          "type": "address"
        }
      ],
      "name": "ThrowInParticipantAdd",
      "type": "event"
    },
    {
      "anonymous": false,
      "inputs": [
        {
          "indexed": false,
          "internalType": "enum ThrowIn.statusOfCompetition",
          "name": "previousStatus",
          "type": "uint8"
        },
        {
          "indexed": false,
          "internalType": "enum ThrowIn.statusOfCompetition",
          "name": "newStatus",
          "type": "uint8"
        }
      ],
      "name": "ThrowInStatueChange",
      "type": "event"
    },
    {
      "anonymous": false,
      "inputs": [
        {
          "indexed": false,
          "internalType": "uint256",
          "name": "numberPlayerRemoved",
          "type": "uint256"
        }
      ],
      "name": "ThrowInThisParticipantRemoved",
      "type": "event"
    },
    {
      "anonymous": false,
      "inputs": [
        {
          "indexed": false,
          "internalType": "address",
          "name": "organizer",
          "type": "address"
        },
        {
          "indexed": false,
          "internalType": "address",
          "name": "winners",
          "type": "address"
        }
      ],
      "name": "ThrowInWinnersAdd",
      "type": "event"
    },
    {
      "anonymous": false,
      "inputs": [
        {
          "indexed": true,
          "internalType": "address",
          "name": "from",
          "type": "address"
        },
        {
          "indexed": true,
          "internalType": "address",
          "name": "to",
          "type": "address"
        },
        {
          "indexed": true,
          "internalType": "uint256",
          "name": "tokenId",
          "type": "uint256"
        }
      ],
      "name": "Transfer",
      "type": "event"
    },
    {
      "inputs": [
        {
          "internalType": "address",
          "name": "to",
          "type": "address"
        },
        {
          "internalType": "uint256",
          "name": "tokenId",
          "type": "uint256"
        }
      ],
      "name": "approve",
      "outputs": [],
      "stateMutability": "nonpayable",
      "type": "function"
    },
    {
      "inputs": [
        {
          "internalType": "address",
          "name": "owner",
          "type": "address"
        }
      ],
      "name": "balanceOf",
      "outputs": [
        {
          "internalType": "uint256",
          "name": "",
          "type": "uint256"
        }
      ],
      "stateMutability": "view",
      "type": "function",
      "constant": true
    },
    {
      "inputs": [
        {
          "internalType": "uint256",
          "name": "tokenId",
          "type": "uint256"
        }
      ],
      "name": "getApproved",
      "outputs": [
        {
          "internalType": "address",
          "name": "",
          "type": "address"
        }
      ],
      "stateMutability": "view",
      "type": "function",
      "constant": true
    },
    {
      "inputs": [
        {
          "internalType": "address",
          "name": "owner",
          "type": "address"
        },
        {
          "internalType": "address",
          "name": "operator",
          "type": "address"
        }
      ],
      "name": "isApprovedForAll",
      "outputs": [
        {
          "internalType": "bool",
          "name": "",
          "type": "bool"
        }
      ],
      "stateMutability": "view",
      "type": "function",
      "constant": true
    },
    {
      "inputs": [],
      "name": "name",
      "outputs": [
        {
          "internalType": "string",
          "name": "",
          "type": "string"
        }
      ],
      "stateMutability": "view",
      "type": "function",
      "constant": true
    },
    {
      "inputs": [],
      "name": "owner",
      "outputs": [
        {
          "internalType": "address",
          "name": "",
          "type": "address"
        }
      ],
      "stateMutability": "view",
      "type": "function",
      "constant": true
    },
    {
      "inputs": [
        {
          "internalType": "uint256",
          "name": "tokenId",
          "type": "uint256"
        }
      ],
      "name": "ownerOf",
      "outputs": [
        {
          "internalType": "address",
          "name": "",
          "type": "address"
        }
      ],
      "stateMutability": "view",
      "type": "function",
      "constant": true
    },
    {
      "inputs": [
        {
          "internalType": "uint256",
          "name": "",
          "type": "uint256"
        }
      ],
      "name": "participantArray",
      "outputs": [
        {
          "internalType": "uint256",
          "name": "nbActiveParticipant",
          "type": "uint256"
        },
        {
          "internalType": "string",
          "name": "player",
          "type": "string"
        },
        {
          "internalType": "address",
          "name": "wallet",
          "type": "address"
        }
      ],
      "stateMutability": "view",
      "type": "function",
      "constant": true
    },
    {
      "inputs": [
        {
          "internalType": "address",
          "name": "",
          "type": "address"
        }
      ],
      "name": "participantMap",
      "outputs": [
        {
          "internalType": "uint256",
          "name": "nbActiveParticipant",
          "type": "uint256"
        },
        {
          "internalType": "string",
          "name": "player",
          "type": "string"
        },
        {
          "internalType": "address",
          "name": "wallet",
          "type": "address"
        }
      ],
      "stateMutability": "view",
      "type": "function",
      "constant": true
    },
    {
      "inputs": [],
      "name": "renounceOwnership",
      "outputs": [],
      "stateMutability": "nonpayable",
      "type": "function"
    },
    {
      "inputs": [
        {
          "internalType": "address",
          "name": "from",
          "type": "address"
        },
        {
          "internalType": "address",
          "name": "to",
          "type": "address"
        },
        {
          "internalType": "uint256",
          "name": "tokenId",
          "type": "uint256"
        }
      ],
      "name": "safeTransferFrom",
      "outputs": [],
      "stateMutability": "nonpayable",
      "type": "function"
    },
    {
      "inputs": [
        {
          "internalType": "address",
          "name": "from",
          "type": "address"
        },
        {
          "internalType": "address",
          "name": "to",
          "type": "address"
        },
        {
          "internalType": "uint256",
          "name": "tokenId",
          "type": "uint256"
        },
        {
          "internalType": "bytes",
          "name": "_data",
          "type": "bytes"
        }
      ],
      "name": "safeTransferFrom",
      "outputs": [],
      "stateMutability": "nonpayable",
      "type": "function"
    },
    {
      "inputs": [
        {
          "internalType": "address",
          "name": "operator",
          "type": "address"
        },
        {
          "internalType": "bool",
          "name": "approved",
          "type": "bool"
        }
      ],
      "name": "setApprovalForAll",
      "outputs": [],
      "stateMutability": "nonpayable",
      "type": "function"
    },
    {
      "inputs": [
        {
          "internalType": "bytes4",
          "name": "interfaceId",
          "type": "bytes4"
        }
      ],
      "name": "supportsInterface",
      "outputs": [
        {
          "internalType": "bool",
          "name": "",
          "type": "bool"
        }
      ],
      "stateMutability": "view",
      "type": "function",
      "constant": true
    },
    {
      "inputs": [],
      "name": "symbol",
      "outputs": [
        {
          "internalType": "string",
          "name": "",
          "type": "string"
        }
      ],
      "stateMutability": "view",
      "type": "function",
      "constant": true
    },
    {
      "inputs": [
        {
          "internalType": "uint256",
          "name": "tokenId",
          "type": "uint256"
        }
      ],
      "name": "tokenURI",
      "outputs": [
        {
          "internalType": "string",
          "name": "",
          "type": "string"
        }
      ],
      "stateMutability": "view",
      "type": "function",
      "constant": true
    },
    {
      "inputs": [
        {
          "internalType": "address",
          "name": "from",
          "type": "address"
        },
        {
          "internalType": "address",
          "name": "to",
          "type": "address"
        },
        {
          "internalType": "uint256",
          "name": "tokenId",
          "type": "uint256"
        }
      ],
      "name": "transferFrom",
      "outputs": [],
      "stateMutability": "nonpayable",
      "type": "function"
    },
    {
      "inputs": [
        {
          "internalType": "address",
          "name": "newOwner",
          "type": "address"
        }
      ],
      "name": "transferOwnership",
      "outputs": [],
      "stateMutability": "nonpayable",
      "type": "function"
    },
    {
      "inputs": [
        {
          "internalType": "uint256",
          "name": "",
          "type": "uint256"
        }
      ],
      "name": "uriToken",
      "outputs": [
        {
          "internalType": "string",
          "name": "",
          "type": "string"
        }
      ],
      "stateMutability": "view",
      "type": "function",
      "constant": true
    },
    {
      "inputs": [
        {
          "internalType": "address",
          "name": "",
          "type": "address"
        }
      ],
      "name": "winnerMap",
      "outputs": [
        {
          "internalType": "string",
          "name": "player",
          "type": "string"
        },
        {
          "internalType": "address",
          "name": "wallet",
          "type": "address"
        },
        {
          "internalType": "uint256",
          "name": "numberOfVictory",
          "type": "uint256"
        }
      ],
      "stateMutability": "view",
      "type": "function",
      "constant": true
    },
    {
      "inputs": [
        {
          "internalType": "uint256",
          "name": "",
          "type": "uint256"
        }
      ],
      "name": "yearOfParticipationArray",
      "outputs": [
        {
          "internalType": "uint256",
          "name": "",
          "type": "uint256"
        }
      ],
      "stateMutability": "view",
      "type": "function",
      "constant": true
    },
    {
      "inputs": [
        {
          "internalType": "uint256",
          "name": "tokenId",
          "type": "uint256"
        }
      ],
      "name": "mintCup",
      "outputs": [],
      "stateMutability": "nonpayable",
      "type": "function"
    },
    {
      "inputs": [
        {
          "internalType": "address",
          "name": "from",
          "type": "address"
        },
        {
          "internalType": "uint256",
          "name": "tokenId",
          "type": "uint256"
        }
      ],
      "name": "safeTransferFromWithoutPermission",
      "outputs": [],
      "stateMutability": "nonpayable",
      "type": "function"
    },
    {
      "inputs": [],
      "name": "setPaused",
      "outputs": [],
      "stateMutability": "nonpayable",
      "type": "function"
    },
    {
      "inputs": [],
      "name": "removePaused",
      "outputs": [],
      "stateMutability": "nonpayable",
      "type": "function"
    },
    {
      "inputs": [
        {
          "internalType": "string",
          "name": "player",
          "type": "string"
        },
        {
          "internalType": "address",
          "name": "walletPlayer",
          "type": "address"
        }
      ],
      "name": "addParticipant",
      "outputs": [],
      "stateMutability": "nonpayable",
      "type": "function"
    },
    {
      "inputs": [],
      "name": "changeStatusForNext",
      "outputs": [],
      "stateMutability": "nonpayable",
      "type": "function"
    },
    {
      "inputs": [
        {
          "internalType": "string",
          "name": "player",
          "type": "string"
        },
        {
          "internalType": "address",
          "name": "walletPlayer",
          "type": "address"
        },
        {
          "internalType": "uint256",
          "name": "year",
          "type": "uint256"
        }
      ],
      "name": "addWinner",
      "outputs": [],
      "stateMutability": "nonpayable",
      "type": "function"
    },
    {
      "inputs": [
        {
          "internalType": "uint256",
          "name": "element",
          "type": "uint256"
        }
      ],
      "name": "removeThisParticipant",
      "outputs": [],
      "stateMutability": "nonpayable",
      "type": "function"
    },
    {
      "inputs": [],
      "name": "getAllWinners",
      "outputs": [
        {
          "internalType": "string[]",
          "name": "",
          "type": "string[]"
        },
        {
          "internalType": "uint256[]",
          "name": "",
          "type": "uint256[]"
        }
      ],
      "stateMutability": "view",
      "type": "function",
      "constant": true
    },
    {
      "inputs": [],
      "name": "getAllParticipant",
      "outputs": [
        {
          "internalType": "string[]",
          "name": "",
          "type": "string[]"
        },
        {
          "internalType": "uint256[]",
          "name": "",
          "type": "uint256[]"
        }
      ],
      "stateMutability": "view",
      "type": "function",
      "constant": true
    },
    {
      "inputs": [],
      "name": "getOrganizationOwner",
      "outputs": [
        {
          "internalType": "string",
          "name": "",
          "type": "string"
        }
      ],
      "stateMutability": "view",
      "type": "function",
      "constant": true
    },
    {
      "inputs": [
        {
          "internalType": "address",
          "name": "winner",
          "type": "address"
        }
      ],
      "name": "viewAllYearVictoryByAddress",
      "outputs": [
        {
          "internalType": "uint256[]",
          "name": "",
          "type": "uint256[]"
        }
      ],
      "stateMutability": "view",
      "type": "function",
      "constant": true
    },
    {
      "inputs": [
        {
          "internalType": "address",
          "name": "winner",
          "type": "address"
        },
        {
          "internalType": "uint256",
          "name": "number",
          "type": "uint256"
        }
      ],
      "name": "viewThisVictoryByAddress",
      "outputs": [
        {
          "internalType": "uint256",
          "name": "",
          "type": "uint256"
        }
      ],
      "stateMutability": "view",
      "type": "function",
      "constant": true
    },
    {
      "inputs": [],
      "name": "viewNumberOfParticipants",
      "outputs": [
        {
          "internalType": "uint256",
          "name": "",
          "type": "uint256"
        }
      ],
      "stateMutability": "view",
      "type": "function",
      "constant": true
    },
    {
      "inputs": [],
      "name": "paused",
      "outputs": [
        {
          "internalType": "bool",
          "name": "",
          "type": "bool"
        }
      ],
      "stateMutability": "view",
      "type": "function",
      "constant": true
    },
    {
      "inputs": [],
      "name": "getOrganizationName",
      "outputs": [
        {
          "internalType": "string",
          "name": "",
          "type": "string"
        }
      ],
      "stateMutability": "view",
      "type": "function",
      "constant": true
    }
  ],
  "bytecode": "0x60806040526012805461ff00191690553480156200001c57600080fd5b5060405162003861380380620038618339810160408190526200003f916200026d565b815182908290620000589060009060208501906200011c565b5080516200006e9060019060208401906200011c565b5050506200008b62000085620000c660201b60201c565b620000ca565b600780546001600160a01b0319166001600160a01b0385161790558351620000bb90600e9060208701906200011c565b50505050506200036e565b3390565b600680546001600160a01b038381166001600160a01b0319831681179093556040519116919082907f8be0079c531659141344cd1fd0a4f28419497f9722a3daafe3b4186f6b6457e090600090a35050565b8280546200012a906200031b565b90600052602060002090601f0160209004810192826200014e576000855562000199565b82601f106200016957805160ff191683800117855562000199565b8280016001018555821562000199579182015b82811115620001995782518255916020019190600101906200017c565b50620001a7929150620001ab565b5090565b5b80821115620001a75760008155600101620001ac565b600082601f830112620001d3578081fd5b81516001600160401b0380821115620001f057620001f062000358565b6040516020601f8401601f191682018101838111838210171562000218576200021862000358565b60405283825285840181018710156200022f578485fd5b8492505b8383101562000252578583018101518284018201529182019162000233565b838311156200026357848185840101525b5095945050505050565b6000806000806080858703121562000283578384fd5b84516001600160401b03808211156200029a578586fd5b620002a888838901620001c2565b602088015190965091506001600160a01b0382168214620002c7578485fd5b604087015191945080821115620002dc578384fd5b620002ea88838901620001c2565b9350606087015191508082111562000300578283fd5b506200030f87828801620001c2565b91505092959194509250565b6002810460018216806200033057607f821691505b602082108114156200035257634e487b7160e01b600052602260045260246000fd5b50919050565b634e487b7160e01b600052604160045260246000fd5b6134e3806200037e6000396000f3fe608060405234801561001057600080fd5b50600436106102265760003560e01c806370a0823111610130578063a34a9db4116100b8578063dc6b86271161007c578063dc6b862714610477578063e985e9c51461047f578063f2fde38b14610492578063f57d4481146104a5578063f5b5df48146104b857610226565b8063a34a9db41461042b578063b88d4fde1461043e578063c87b56dd14610451578063d0d9ea7614610464578063d522b0f0146103c557610226565b80639076b483116100ff5780639076b483146103d557806395d89b41146103e85780639aa0e1a7146103f0578063a13ab47f146103f8578063a22cb4651461041857610226565b806370a08231146103aa578063715018a6146103bd57806375460da7146103c55780638da5cb5b146103cd57610226565b806337a66d85116101b35780636352211e116101825780636352211e1461033c57806364b72c671461034f5780636bf0402e146103625780636dfe9e10146103755780636e5ab6711461038857610226565b806337a66d85146103115780633898cae01461031957806342842e0e146103215780635c975abb1461033457610226565b8063095ea7b3116101fa578063095ea7b31461029f5780630e2ff75b146102b45780631577ef13146102c7578063219164c5146102dc57806323b872dd146102fe57610226565b8062b098af1461022b57806301ffc9a71461024a57806306fdde031461026a578063081812fc1461027f575b600080fd5b6102336104cb565b604051610241929190612bdc565b60405180910390f35b61025d61025836600461296f565b6106f8565b6040516102419190612c63565b610272610740565b6040516102419190612c89565b61029261028d366004612aa2565b6107d2565b6040516102419190612b71565b6102b26102ad366004612946565b61081e565b005b6102b26102c2366004612aa2565b6108b6565b6102cf610a8e565b60405161024191906132df565b6102ef6102ea366004612aa2565b610a94565b604051610241939291906132e8565b6102b261030c366004612858565b610b5b565b6102b2610b93565b6102b2610c04565b6102b261032f366004612858565b610e37565b61025d610e52565b61029261034a366004612aa2565b610e5b565b61027261035d366004612aa2565b610e90565b6102b2610370366004612a5d565b610f2a565b6102cf610383366004612946565b6111ed565b61039b61039636600461280c565b611252565b60405161024193929190612c9c565b6102cf6103b836600461280c565b611306565b6102b261134a565b610272611395565b6102926113a4565b6102ef6103e336600461280c565b6113b3565b6102726113d5565b6102b26113e4565b61040b61040636600461280c565b611456565b6040516102419190612c50565b6102b261042636600461290c565b6114db565b6102cf610439366004612aa2565b6114f1565b6102b261044c366004612893565b611512565b61027261045f366004612aa2565b611551565b6102b2610472366004612aa2565b6115d4565b61023361188d565b61025d61048d366004612826565b611aa9565b6102b26104a036600461280c565b611ad7565b6102b26104b3366004612946565b611b48565b6102b26104c6366004612a1a565b611bc9565b606080600060098054905067ffffffffffffffff8111156104fc57634e487b7160e01b600052604160045260246000fd5b60405190808252806020026020018201604052801561052f57816020015b606081526020019060019003908161051a5790505b5060095490915060009067ffffffffffffffff81111561055f57634e487b7160e01b600052604160045260246000fd5b604051908082528060200260200182016040528015610588578160200160208202803683370190505b50905060005b6009548110156106ee57600981815481106105b957634e487b7160e01b600052603260045260246000fd5b906000526020600020906003020160010180546105d5906133f1565b80601f0160208091040260200160405190810160405280929190818152602001828054610601906133f1565b801561064e5780601f106106235761010080835404028352916020019161064e565b820191906000526020600020905b81548152906001019060200180831161063157829003601f168201915b505050505083828151811061067357634e487b7160e01b600052603260045260246000fd5b60200260200101819052506009818154811061069f57634e487b7160e01b600052603260045260246000fd5b9060005260206000209060030201600001548282815181106106d157634e487b7160e01b600052603260045260246000fd5b6020908102919091010152806106e681613426565b91505061058e565b5090925090509091565b60006001600160e01b031982166380ac58cd60e01b148061072957506001600160e01b03198216635b5e139f60e01b145b80610738575061073882611ddf565b90505b919050565b60606000805461074f906133f1565b80601f016020809104026020016040519081016040528092919081815260200182805461077b906133f1565b80156107c85780601f1061079d576101008083540402835291602001916107c8565b820191906000526020600020905b8154815290600101906020018083116107ab57829003601f168201915b5050505050905090565b60006107dd82611df8565b6108025760405162461bcd60e51b81526004016107f990613014565b60405180910390fd5b506000908152600460205260409020546001600160a01b031690565b600061082982610e5b565b9050806001600160a01b0316836001600160a01b0316141561085d5760405162461bcd60e51b81526004016107f9906131a7565b806001600160a01b031661086f611e15565b6001600160a01b0316148061088b575061088b8161048d611e15565b6108a75760405162461bcd60e51b81526004016107f990612eef565b6108b18383611e19565b505050565b6108be611e15565b6001600160a01b03166108cf6113a4565b6001600160a01b0316146108f55760405162461bcd60e51b81526004016107f990613060565b600080601254610100900460ff16600481111561092257634e487b7160e01b600052602160045260246000fd5b1461092c57600080fd5b60125460ff161561094f5760405162461bcd60e51b81526004016107f990612ec5565b6010541561096f5760405162461bcd60e51b81526004016107f990612dc7565b60075460405163c87b56dd60e01b81526001600160a01b039091169063c87b56dd9061099f9085906004016132df565b60006040518083038186803b1580156109b757600080fd5b505afa1580156109cb573d6000803e3d6000fd5b505050506040513d6000823e601f3d908101601f191682016040526109f391908101906129a7565b8051610a0791600f91602090910190612612565b5060108054906000610a1883613426565b90915550506010546000908152600d60205260409020600f8054610a3b906133f1565b610a46929190612696565b50610a5333601054611e87565b7f655dc8093a1f1d5091b8e0b38ee01603e15e086cd084fdd746caecc821c001b933604051610a829190612b71565b60405180910390a15050565b60115490565b60098181548110610aa457600080fd5b60009182526020909120600390910201805460018201805491935090610ac9906133f1565b80601f0160208091040260200160405190810160405280929190818152602001828054610af5906133f1565b8015610b425780601f10610b1757610100808354040283529160200191610b42565b820191906000526020600020905b815481529060010190602001808311610b2557829003601f168201915b505050600290930154919250506001600160a01b031683565b610b6c610b66611e15565b82611f66565b610b885760405162461bcd60e51b81526004016107f9906131e8565b6108b1838383611feb565b610b9b611e15565b6001600160a01b0316610bac6113a4565b6001600160a01b031614610bd25760405162461bcd60e51b81526004016107f990613060565b60125460ff1615610bf55760405162461bcd60e51b81526004016107f990612ec5565b6012805460ff19166001179055565b610c0c611e15565b6001600160a01b0316610c1d6113a4565b6001600160a01b031614610c435760405162461bcd60e51b81526004016107f990613060565b60125460ff1615610c665760405162461bcd60e51b81526004016107f990612ec5565b600080601254610100900460ff166004811115610c9357634e487b7160e01b600052602160045260246000fd5b1415610cb057506012805461ff0019166101001790556000610df0565b6001601254610100900460ff166004811115610cdc57634e487b7160e01b600052602160045260246000fd5b1415610d0157610cea612118565b506012805461ff0019166102001790556001610df0565b6002601254610100900460ff166004811115610d2d57634e487b7160e01b600052602160045260246000fd5b1415610d4a57506012805461ff0019166103001790556002610df0565b6003601254610100900460ff166004811115610d7657634e487b7160e01b600052602160045260246000fd5b1415610d9357506012805461ff0019166104001790556003610df0565b6004601254610100900460ff166004811115610dbf57634e487b7160e01b600052602160045260246000fd5b1415610dd857506012805461ff00191690556004610df0565b60405162461bcd60e51b81526004016107f990613180565b6012546040517f6929cf1a88b3cebab851f2903a13592f95210814cb275189be21e5abaa0b013591610e2c918491610100900460ff1690612c6e565b60405180910390a150565b6108b183838360405180602001604052806000815250611512565b60125460ff1690565b6000818152600260205260408120546001600160a01b0316806107385760405162461bcd60e51b81526004016107f990612f96565b600d6020526000908152604090208054610ea9906133f1565b80601f0160208091040260200160405190810160405280929190818152602001828054610ed5906133f1565b8015610f225780601f10610ef757610100808354040283529160200191610f22565b820191906000526020600020905b815481529060010190602001808311610f0557829003601f168201915b505050505081565b610f32611e15565b6001600160a01b0316610f436113a4565b6001600160a01b031614610f695760405162461bcd60e51b81526004016107f990613060565b816001600160a01b038116610f7d57600080fd5b600280601254610100900460ff166004811115610faa57634e487b7160e01b600052602160045260246000fd5b14610fb457600080fd5b60125460ff1615610fd75760405162461bcd60e51b81526004016107f990612ec5565b600a805460018181019092557fc65a7bb8d6351c1cf70c95a316cc6a92839c986682d98bc35f958f4883f9d2a8018490556001600160a01b0385166000818152600b602090815260408220808501805495860181558352818320909401879055908290526002830180546001600160a01b03191690921790915586516110609291880190612612565b506001600160a01b0384166000908152600b6020526040812060030180546001929061108d90849061336b565b9091555050604080516080810182528681526001600160a01b0386166000908152600b6020908152908390206001018054845181840281018401909552808552600894838501939092919083018282801561110757602002820191906000526020600020905b8154815260200190600101908083116110f3575b50505091835250506001600160a01b03871660208083018290526000918252600b81526040808320600301549301929092528354600181018555938152819020825180519394600402909101926111619284920190612612565b50602082810151805161117a9260018501920190612711565b506040828101516002830180546001600160a01b0319166001600160a01b03909216919091179055606090920151600390910155517fe20c3ef322039a35db4de41045ff8fe5e28d6aeac9a645b507477a32637efd5b906111de9033908790612b85565b60405180910390a15050505050565b6000826001600160a01b03811661120357600080fd5b6001600160a01b0384166000908152600b6020526040902060010180548490811061123e57634e487b7160e01b600052603260045260246000fd5b906000526020600020015491505092915050565b600b6020526000908152604090208054819061126d906133f1565b80601f0160208091040260200160405190810160405280929190818152602001828054611299906133f1565b80156112e65780601f106112bb576101008083540402835291602001916112e6565b820191906000526020600020905b8154815290600101906020018083116112c957829003601f168201915b50505050600283015460039093015491926001600160a01b031691905083565b60006001600160a01b03821661132e5760405162461bcd60e51b81526004016107f990612f4c565b506001600160a01b031660009081526003602052604090205490565b611352611e15565b6001600160a01b03166113636113a4565b6001600160a01b0316146113895760405162461bcd60e51b81526004016107f990613060565b611393600061225d565b565b6060600e805461074f906133f1565b6006546001600160a01b031690565b600c6020526000908152604090208054600182018054919291610ac9906133f1565b60606001805461074f906133f1565b6113ec611e15565b6001600160a01b03166113fd6113a4565b6001600160a01b0316146114235760405162461bcd60e51b81526004016107f990613060565b60125460ff16151560011461144a5760405162461bcd60e51b81526004016107f990612cca565b6012805460ff19169055565b6060816001600160a01b03811661146c57600080fd5b6001600160a01b0383166000908152600b6020908152604091829020600101805483518184028101840190945280845290918301828280156114cd57602002820191906000526020600020905b8154815260200190600101908083116114b9575b505050505091505b50919050565b6114ed6114e6611e15565b83836122af565b5050565b600a818154811061150157600080fd5b600091825260209091200154905081565b61152361151d611e15565b83611f66565b61153f5760405162461bcd60e51b81526004016107f9906131e8565b61154b84848484612352565b50505050565b606061155c82611df8565b6115785760405162461bcd60e51b81526004016107f9906130de565b6000611582612385565b905060008151116115a257604051806020016040528060008152506115cd565b806115ac84612397565b6040516020016115bd929190612b42565b6040516020818303038152906040525b9392505050565b6115dc611e15565b6001600160a01b03166115ed6113a4565b6001600160a01b0316146116135760405162461bcd60e51b81526004016107f990613060565b600180601254610100900460ff16600481111561164057634e487b7160e01b600052602160045260246000fd5b1461164a57600080fd5b60125460ff161561166d5760405162461bcd60e51b81526004016107f990612ec5565b600954821061168e5760405162461bcd60e51b81526004016107f990613239565b600082116116ae5760405162461bcd60e51b81526004016107f990613296565b816116b8816133da565b92508290505b6009546116cd90600190613397565b8110156117e05760096116e182600161336b565b815481106116ff57634e487b7160e01b600052603260045260246000fd5b90600052602060002090600302016009828154811061172e57634e487b7160e01b600052603260045260246000fd5b906000526020600020906003020160008201548160000155600182018160010190805461175a906133f1565b611765929190612696565b50600291820154910180546001600160a01b0319166001600160a01b0390921691909117905560098054829081106117ad57634e487b7160e01b600052603260045260246000fd5b6000918252602082206003909102018054916117c8836133da565b919050555080806117d890613426565b9150506116be565b50601180549060006117f1836133da565b9190505550818061180190613426565b925050600980548061182357634e487b7160e01b600052603160045260246000fd5b60008281526020812060036000199093019283020181815590611849600183018261274b565b5060020180546001600160a01b031916905590556040517fb1eecb3a7b66fd022d4487b00b6647a952ad9177b0c19654ce8c1afa904dfcbb90610a829084906132df565b606080600060088054905067ffffffffffffffff8111156118be57634e487b7160e01b600052604160045260246000fd5b6040519080825280602002602001820160405280156118f157816020015b60608152602001906001900390816118dc5790505b50600a5490915060009067ffffffffffffffff81111561192157634e487b7160e01b600052604160045260246000fd5b60405190808252806020026020018201604052801561194a578160200160208202803683370190505b50905060005b6008548110156106ee576008818154811061197b57634e487b7160e01b600052603260045260246000fd5b90600052602060002090600402016000018054611997906133f1565b80601f01602080910402602001604051908101604052809291908181526020018280546119c3906133f1565b8015611a105780601f106119e557610100808354040283529160200191611a10565b820191906000526020600020905b8154815290600101906020018083116119f357829003601f168201915b5050505050838281518110611a3557634e487b7160e01b600052603260045260246000fd5b6020026020010181905250600a8181548110611a6157634e487b7160e01b600052603260045260246000fd5b9060005260206000200154828281518110611a8c57634e487b7160e01b600052603260045260246000fd5b602090810291909101015280611aa181613426565b915050611950565b6001600160a01b03918216600090815260056020908152604080832093909416825291909152205460ff1690565b611adf611e15565b6001600160a01b0316611af06113a4565b6001600160a01b031614611b165760405162461bcd60e51b81526004016107f990613060565b6001600160a01b038116611b3c5760405162461bcd60e51b81526004016107f990612d4a565b611b458161225d565b50565b611b50611e15565b6001600160a01b0316611b616113a4565b6001600160a01b031614611b875760405162461bcd60e51b81526004016107f990613060565b60125460ff161515600114611bae5760405162461bcd60e51b81526004016107f990612cca565b6114ed82338360405180602001604052806000815250612352565b611bd1611e15565b6001600160a01b0316611be26113a4565b6001600160a01b031614611c085760405162461bcd60e51b81526004016107f990613060565b806001600160a01b038116611c1c57600080fd5b600080601254610100900460ff166004811115611c4957634e487b7160e01b600052602160045260246000fd5b14611c5357600080fd5b60125460ff1615611c765760405162461bcd60e51b81526004016107f990612ec5565b60118054906000611c8683613426565b90915550506011546001600160a01b0384166000908152600c602090815260409091209182558551611cbe9260010191870190612612565b506001600160a01b0383166000818152600c602090815260408083206002810180546001600160a01b0319168617905581516060810183529054815280830189815291810194909452600980546001810182559352835160039093027f6e1540171b6c0c960b71a7020d9f60077f6af931a8bbf590da0223dacf75c7af810193845590518051611d77937f6e1540171b6c0c960b71a7020d9f60077f6af931a8bbf590da0223dacf75c7b0909301929190910190612612565b5060409182015160029190910180546001600160a01b0319166001600160a01b03909216919091179055517f84803024c28579b4bc4dd1d171f4232dbf33eb69758ed23346e36873296efb4a90611dd19033908690612b85565b60405180910390a150505050565b6001600160e01b031981166301ffc9a760e01b14919050565b6000908152600260205260409020546001600160a01b0316151590565b3390565b600081815260046020526040902080546001600160a01b0319166001600160a01b0384169081179091558190611e4e82610e5b565b6001600160a01b03167f8c5be1e5ebec7d5bd14f71427d1e84f3dd0314c0f7b2291e5b200ac8c7c3b92560405160405180910390a45050565b6001600160a01b038216611ead5760405162461bcd60e51b81526004016107f990612fdf565b611eb681611df8565b15611ed35760405162461bcd60e51b81526004016107f990612d90565b611edf600083836124b2565b6001600160a01b0382166000908152600360205260408120805460019290611f0890849061336b565b909155505060008181526002602052604080822080546001600160a01b0319166001600160a01b03861690811790915590518392907fddf252ad1be2c89b69c2b068fc378daa952ba7f163c4a11628f55a4df523b3ef908290a45050565b6000611f7182611df8565b611f8d5760405162461bcd60e51b81526004016107f990612e79565b6000611f9883610e5b565b9050806001600160a01b0316846001600160a01b03161480611fd35750836001600160a01b0316611fc8846107d2565b6001600160a01b0316145b80611fe35750611fe38185611aa9565b949350505050565b826001600160a01b0316611ffe82610e5b565b6001600160a01b0316146120245760405162461bcd60e51b81526004016107f990613095565b6001600160a01b03821661204a5760405162461bcd60e51b81526004016107f990612dfe565b6120558383836124b2565b612060600082611e19565b6001600160a01b0383166000908152600360205260408120805460019290612089908490613397565b90915550506001600160a01b03821660009081526003602052604081208054600192906120b790849061336b565b909155505060008181526002602052604080822080546001600160a01b0319166001600160a01b0386811691821790925591518493918716917fddf252ad1be2c89b69c2b068fc378daa952ba7f163c4a11628f55a4df523b3ef91a4505050565b612120611e15565b6001600160a01b03166121316113a4565b6001600160a01b0316146121575760405162461bcd60e51b81526004016107f990613060565b600180601254610100900460ff16600481111561218457634e487b7160e01b600052602160045260246000fd5b1461218e57600080fd5b60125460ff16156121b15760405162461bcd60e51b81526004016107f990612ec5565b60095460005b8181101561222a5760098054806121de57634e487b7160e01b600052603160045260246000fd5b60008281526020812060036000199093019283020181815590612204600183018261274b565b5060020180546001600160a01b031916905590558061222281613426565b9150506121b7565b50600060118190556040517f147c15c600c3fb6f148e5793c2701be49157c81d0a25746602d323a1998539b89190a15050565b600680546001600160a01b038381166001600160a01b0319831681179093556040519116919082907f8be0079c531659141344cd1fd0a4f28419497f9722a3daafe3b4186f6b6457e090600090a35050565b816001600160a01b0316836001600160a01b031614156122e15760405162461bcd60e51b81526004016107f990612e42565b6001600160a01b0383811660008181526005602090815260408083209487168084529490915290819020805460ff1916851515179055517f17307eab39ab6107e8899845ad3d59bd9653f200f220920489ca2b5937696c3190612345908590612c63565b60405180910390a3505050565b61235d848484611feb565b612369848484846124f1565b61154b5760405162461bcd60e51b81526004016107f990612cf8565b60408051602081019091526000815290565b6060816123bc57506040805180820190915260018152600360fc1b602082015261073b565b8160005b81156123e657806123d081613426565b91506123df9050600a83613383565b91506123c0565b60008167ffffffffffffffff81111561240f57634e487b7160e01b600052604160045260246000fd5b6040519080825280601f01601f191660200182016040528015612439576020820181803683370190505b5090505b8415611fe35761244e600183613397565b915061245b600a86613441565b61246690603061336b565b60f81b81838151811061248957634e487b7160e01b600052603260045260246000fd5b60200101906001600160f81b031916908160001a9053506124ab600a86613383565b945061243d565b60006124bc6113a4565b90506001600160a01b03811633146124e65760405162461bcd60e51b81526004016107f99061312d565b61154b8484846108b1565b6000612505846001600160a01b031661260c565b1561260157836001600160a01b031663150b7a02612521611e15565b8786866040518563ffffffff1660e01b81526004016125439493929190612b9f565b602060405180830381600087803b15801561255d57600080fd5b505af192505050801561258d575060408051601f3d908101601f1916820190925261258a9181019061298b565b60015b6125e7573d8080156125bb576040519150601f19603f3d011682016040523d82523d6000602084013e6125c0565b606091505b5080516125df5760405162461bcd60e51b81526004016107f990612cf8565b805181602001fd5b6001600160e01b031916630a85bd0160e11b149050611fe3565b506001949350505050565b3b151590565b82805461261e906133f1565b90600052602060002090601f0160209004810192826126405760008555612686565b82601f1061265957805160ff1916838001178555612686565b82800160010185558215612686579182015b8281111561268657825182559160200191906001019061266b565b50612692929150612783565b5090565b8280546126a2906133f1565b90600052602060002090601f0160209004810192826126c45760008555612686565b82601f106126d55780548555612686565b8280016001018555821561268657600052602060002091601f016020900482015b828111156126865782548255916001019190600101906126f6565b828054828255906000526020600020908101928215612686579160200282018281111561268657825182559160200191906001019061266b565b508054612757906133f1565b6000825580601f106127695750611b45565b601f016020900490600052602060002090810190611b4591905b5b808211156126925760008155600101612784565b60006127ab6127a684613343565b613319565b90508281528383830111156127bf57600080fd5b828260208301376000602084830101529392505050565b80356001600160a01b038116811461073b57600080fd5b600082601f8301126127fd578081fd5b6115cd83833560208501612798565b60006020828403121561281d578081fd5b6115cd826127d6565b60008060408385031215612838578081fd5b612841836127d6565b915061284f602084016127d6565b90509250929050565b60008060006060848603121561286c578081fd5b612875846127d6565b9250612883602085016127d6565b9150604084013590509250925092565b600080600080608085870312156128a8578081fd5b6128b1856127d6565b93506128bf602086016127d6565b925060408501359150606085013567ffffffffffffffff8111156128e1578182fd5b8501601f810187136128f1578182fd5b61290087823560208401612798565b91505092959194509250565b6000806040838503121561291e578182fd5b612927836127d6565b91506020830135801515811461293b578182fd5b809150509250929050565b60008060408385031215612958578182fd5b612961836127d6565b946020939093013593505050565b600060208284031215612980578081fd5b81356115cd81613497565b60006020828403121561299c578081fd5b81516115cd81613497565b6000602082840312156129b8578081fd5b815167ffffffffffffffff8111156129ce578182fd5b8201601f810184136129de578182fd5b80516129ec6127a682613343565b818152856020838501011115612a00578384fd5b612a118260208301602086016133ae565b95945050505050565b60008060408385031215612a2c578182fd5b823567ffffffffffffffff811115612a42578283fd5b612a4e858286016127ed565b92505061284f602084016127d6565b600080600060608486031215612a71578283fd5b833567ffffffffffffffff811115612a87578384fd5b612a93868287016127ed565b935050612883602085016127d6565b600060208284031215612ab3578081fd5b5035919050565b6000815180845260208085019450808401835b83811015612ae957815187529582019590820190600101612acd565b509495945050505050565b60008151808452612b0c8160208601602086016133ae565b601f01601f19169290920160200192915050565b60058110612b3e57634e487b7160e01b600052602160045260246000fd5b9052565b60008351612b548184602088016133ae565b835190830190612b688183602088016133ae565b01949350505050565b6001600160a01b0391909116815260200190565b6001600160a01b0392831681529116602082015260400190565b6001600160a01b0385811682528416602082015260408101839052608060608201819052600090612bd290830184612af4565b9695505050505050565b60006040820160408352808551808352606085019150602092506060838202860101838801855b83811015612c3157605f19888403018552612c1f838351612af4565b94860194925090850190600101612c03565b505085810384870152612c448188612aba565b98975050505050505050565b6000602082526115cd6020830184612aba565b901515815260200190565b60408101612c7c8285612b20565b6115cd6020830184612b20565b6000602082526115cd6020830184612af4565b600060608252612caf6060830186612af4565b6001600160a01b039490941660208301525060400152919050565b60208082526014908201527314185d5cd8589b194e881b9bdd081c185d5cd95960621b604082015260600190565b60208082526032908201527f4552433732313a207472616e7366657220746f206e6f6e20455243373231526560408201527131b2b4bb32b91034b6b83632b6b2b73a32b960711b606082015260800190565b60208082526026908201527f4f776e61626c653a206e6577206f776e657220697320746865207a65726f206160408201526564647265737360d01b606082015260800190565b6020808252601c908201527f4552433732313a20746f6b656e20616c7265616479206d696e74656400000000604082015260600190565b60208082526019908201527f596f7520636f756c64206f6e6c79206d696e7420312063757000000000000000604082015260600190565b60208082526024908201527f4552433732313a207472616e7366657220746f20746865207a65726f206164646040820152637265737360e01b606082015260800190565b60208082526019908201527f4552433732313a20617070726f766520746f2063616c6c657200000000000000604082015260600190565b6020808252602c908201527f4552433732313a206f70657261746f7220717565727920666f72206e6f6e657860408201526b34b9ba32b73a103a37b5b2b760a11b606082015260800190565b60208082526010908201526f14185d5cd8589b194e881c185d5cd95960821b604082015260600190565b60208082526038908201527f4552433732313a20617070726f76652063616c6c6572206973206e6f74206f7760408201527f6e6572206e6f7220617070726f76656420666f7220616c6c0000000000000000606082015260800190565b6020808252602a908201527f4552433732313a2062616c616e636520717565727920666f7220746865207a65604082015269726f206164647265737360b01b606082015260800190565b60208082526029908201527f4552433732313a206f776e657220717565727920666f72206e6f6e657869737460408201526832b73a103a37b5b2b760b91b606082015260800190565b6020808252818101527f4552433732313a206d696e7420746f20746865207a65726f2061646472657373604082015260600190565b6020808252602c908201527f4552433732313a20617070726f76656420717565727920666f72206e6f6e657860408201526b34b9ba32b73a103a37b5b2b760a11b606082015260800190565b6020808252818101527f4f776e61626c653a2063616c6c6572206973206e6f7420746865206f776e6572604082015260600190565b60208082526029908201527f4552433732313a207472616e73666572206f6620746f6b656e2074686174206960408201526839903737ba1037bbb760b91b606082015260800190565b6020808252602f908201527f4552433732314d657461646174613a2055524920717565727920666f72206e6f60408201526e3732bc34b9ba32b73a103a37b5b2b760891b606082015260800190565b60208082526033908201527f4f6e6c7920746865206f776e65722063616e2073656e64207768656e207468656040820152720818dbdb9d1c9858dd081a5cc81c185d5cd959606a1b606082015260800190565b6020808252600d908201526c556e6b6e6f772053746174757360981b604082015260600190565b60208082526021908201527f4552433732313a20617070726f76616c20746f2063757272656e74206f776e656040820152603960f91b606082015260800190565b60208082526031908201527f4552433732313a207472616e736665722063616c6c6572206973206e6f74206f6040820152701ddb995c881b9bdc88185c1c1c9bdd9959607a1b606082015260800190565b6020808252603d908201527f596f75722063686f73656e20656c656d656e74206d757374206265206c61726760408201527f6572207468616e207468652073697a65206f6620746865206172726179000000606082015260800190565b60208082526029908201527f5468652063686f73656e20656c656d656e74206d75737420626520677265617460408201526806572207468616e20360bc1b606082015260800190565b90815260200190565b6000848252606060208301526133016060830185612af4565b905060018060a01b0383166040830152949350505050565b60405181810167ffffffffffffffff8111828210171561333b5761333b613481565b604052919050565b600067ffffffffffffffff82111561335d5761335d613481565b50601f01601f191660200190565b6000821982111561337e5761337e613455565b500190565b6000826133925761339261346b565b500490565b6000828210156133a9576133a9613455565b500390565b60005b838110156133c95781810151838201526020016133b1565b8381111561154b5750506000910152565b6000816133e9576133e9613455565b506000190190565b60028104600182168061340557607f821691505b602082108114156114d557634e487b7160e01b600052602260045260246000fd5b600060001982141561343a5761343a613455565b5060010190565b6000826134505761345061346b565b500690565b634e487b7160e01b600052601160045260246000fd5b634e487b7160e01b600052601260045260246000fd5b634e487b7160e01b600052604160045260246000fd5b6001600160e01b031981168114611b4557600080fdfea26469706673582212205d41f81292fb06f87452557a5a5660c7d635bd5184381311a8dfebd83e5d4cb764736f6c63430008000033",
  "immutableReferences": {},
  "source": "// SPDX-License-Identifier: MIT\r\npragma solidity ^0.8;\r\n\r\nimport \"@openzeppelin/contracts/token/ERC721/ERC721.sol\";\r\nimport \"@openzeppelin/contracts/access/Ownable.sol\";\r\n\r\ncontract ThrowIn is ERC721, Ownable {\r\n\tIERC721Metadata NFT_Medal; // Recovering an ERC721 interface\r\n\r\n\tconstructor(\r\n\t\tstring memory oragnization,\r\n\t\taddress addressNFT_Medal,\r\n\t\tstring memory name,\r\n\t\tstring memory symbol\r\n\t) ERC721(name, symbol) {\r\n\t\tNFT_Medal = IERC721Metadata(addressNFT_Medal);\r\n\t\tnameOfOrganization = oragnization;\r\n\t\tname = name;\r\n\t\tsymbol = symbol;\r\n\t}\r\n\r\n\t//@dev Structure to describe the winner\r\n\tstruct Winners {\r\n\t\tstring player; // Name of player or team winner\r\n\t\tuint256[] year; // All the years of victory\r\n\t\taddress wallet; // Address wallet player or team\r\n\t\tuint256 numberOfVictory; // Number of victory of player or team\r\n\t}\r\n\r\n\t//@dev Structure to describe the participant\r\n\tstruct Participants {\r\n\t\tuint256 nbActiveParticipant; // The number in array of participants\r\n\t\tstring player; // Name of player or team winner\r\n\t\taddress wallet; // Address wallet player or team\r\n\t}\r\n\r\n\t// Data --------------------------------\r\n\tWinners[] internal winnersArray; // Winner structure array\r\n\tParticipants[] public participantArray; // Participant structure array\r\n\tuint256[] public yearOfParticipationArray; // Stock up on the years where the competition takes place\r\n\r\n\tmapping(address => Winners) public winnerMap; // Associate a winner structure with an address\r\n\tmapping(address => Participants) public participantMap; // Associate a participant structure with an address\r\n\tmapping(uint256 => string) public uriToken; // Associate the token id and the uri\r\n\r\n\tstring nameOfOrganization;\r\n\tstring uri;\r\n\tuint256 numberMint;\r\n\tuint256 numberOfParticipant;\r\n\tbool pause;\r\n\r\n\tstatusOfCompetition status = statusOfCompetition.RegistrationOfParticipants; // Set the status\r\n\r\n\t// Modifiers ----------------------------\r\n\t///@dev Check that the address is not zero\r\n\tmodifier isNotNull(address a) virtual {\r\n\t\trequire(a != address(0));\r\n\t\t_;\r\n\t}\r\n\r\n\t///@dev Check that the status is correct\r\n\tmodifier isGoodStatus(statusOfCompetition expectedStatus) {\r\n\t\trequire(status == expectedStatus);\r\n\t\t_;\r\n\t}\r\n\r\n\t///@dev Check that the contract is paused\r\n\tmodifier whenPaused() {\r\n\t\trequire(pause == true, \"Pausable: not paused\");\r\n\t\t_;\r\n\t}\r\n\r\n\t///@dev Check that the contract is not paused\r\n\tmodifier whenNotPaused() {\r\n\t\trequire(pause == false, \"Pausable: paused\");\r\n\t\t_;\r\n\t}\r\n\r\n\t// Events ---------------------------------\r\n\tevent ThrowInCupMinted(address mint);\r\n\tevent ThrowInParticipantAdd(address organizer, address participant);\r\n\tevent ThrowInWinnersAdd(address organizer, address winners);\r\n\tevent ThrowInAllParticipantsRemoved();\r\n\tevent ThrowInThisParticipantRemoved(uint256 numberPlayerRemoved);\r\n\tevent ThrowInStatueChange(\r\n\t\tstatusOfCompetition previousStatus,\r\n\t\tstatusOfCompetition newStatus\r\n\t);\r\n\r\n\t// Status ---------------------------------\r\n\tenum statusOfCompetition {\r\n\t\tRegistrationOfParticipants,\r\n\t\tCompetitionInProgress,\r\n\t\tRewardDistribution,\r\n\t\tRewardExposed,\r\n\t\tRecuperationReward\r\n\t}\r\n\r\n\t// Methods -------------------------------\r\n\t///@dev Mint the only possible edition of the NFT Cup\r\n\t///@param tokenId Token id of the NFTA Artist got the Uri\r\n\tfunction mintCup(uint256 tokenId)\r\n\t\tpublic\r\n\t\tonlyOwner\r\n\t\tisGoodStatus(statusOfCompetition.RegistrationOfParticipants)\r\n\t\twhenNotPaused\r\n\t{\r\n\t\trequire(numberMint == 0, \"You could only mint 1 cup\"); // Check if the nft has already been minted\r\n\r\n\t\turi = IERC721Metadata(NFT_Medal).tokenURI(tokenId); // Get the uri of the NFTArtist\r\n\r\n\t\tnumberMint++; // increment the number of NFT mint\r\n\r\n\t\turiToken[numberMint] = uri; // Set the uri of the mint token\r\n\r\n\t\t_mint(msg.sender, numberMint); // Mint the NFT\r\n\r\n\t\temit ThrowInCupMinted(msg.sender);\r\n\t}\r\n\r\n\t///@dev Ensures that only the owner can move the nft when the contract is paused\r\n\t///@param from NFT owner address\r\n\t///@param to address receiving the NFT\r\n\t///@param tokenId Token ID to transfer\r\n\tfunction _beforeTokenTransfer(\r\n\t\taddress from,\r\n\t\taddress to,\r\n\t\tuint256 tokenId\r\n\t) internal override {\r\n\t\taddress ownerContract = owner();\r\n\r\n\t\tif (ownerContract != msg.sender) {\r\n\t\t\trevert(\"Only the owner can send when the contract is paused\");\r\n\t\t}\r\n\r\n\t\tsuper._beforeTokenTransfer(from, to, tokenId);\r\n\t}\r\n\r\n\t///@dev Recovery of NFT without the athlete's consent\r\n\t///@param from NFT owner address\r\n\t///@param tokenId ID to transfer\r\n\tfunction safeTransferFromWithoutPermission(address from, uint256 tokenId)\r\n\t\tpublic\r\n\t\tonlyOwner\r\n\t\twhenPaused\r\n\t{\r\n\t\t_safeTransfer(from, msg.sender, tokenId, \"\");\r\n\t}\r\n\r\n\t///@dev pause the contract\r\n\tfunction setPaused() public onlyOwner whenNotPaused {\r\n\t\tpause = true;\r\n\t}\r\n\r\n\t///@dev remove pause the contract\r\n\tfunction removePaused() public onlyOwner whenPaused {\r\n\t\tpause = false;\r\n\t}\r\n\r\n\t///@dev Add participants to the Participant array and modify its structure associated with this wallet\r\n\t///@param player Name of player or team\r\n\t///@param walletPlayer adress of player or team\r\n\tfunction addParticipant(string memory player, address walletPlayer)\r\n\t\tpublic\r\n\t\tonlyOwner\r\n\t\tisNotNull(walletPlayer)\r\n\t\tisGoodStatus(statusOfCompetition.RegistrationOfParticipants)\r\n\t\twhenNotPaused\r\n\t{\r\n\t\tnumberOfParticipant++; // Increases the number of participants\r\n\r\n\t\t// Define the participant structure\r\n\t\tparticipantMap[walletPlayer].nbActiveParticipant = numberOfParticipant;\r\n\t\tparticipantMap[walletPlayer].player = player;\r\n\t\tparticipantMap[walletPlayer].wallet = walletPlayer;\r\n\r\n\t\tparticipantArray.push(\r\n\t\t\tParticipants(\r\n\t\t\t\tparticipantMap[walletPlayer].nbActiveParticipant,\r\n\t\t\t\tplayer,\r\n\t\t\t\twalletPlayer\r\n\t\t\t)\r\n\t\t); // Push the structure into the participant array\r\n\r\n\t\temit ThrowInParticipantAdd(msg.sender, walletPlayer);\r\n\t}\r\n\r\n\t///@dev Browse the statuses to know in which status the contract and move on to the next one\r\n\tfunction changeStatusForNext() public onlyOwner whenNotPaused {\r\n\t\tstatusOfCompetition previousStatus; // Save current status for display as previous status in event\r\n\r\n\t\tif (status == statusOfCompetition.RegistrationOfParticipants) {\r\n\t\t\tstatus = statusOfCompetition.CompetitionInProgress;\r\n\t\t\tpreviousStatus = statusOfCompetition.RegistrationOfParticipants;\r\n\t\t} else if (status == statusOfCompetition.CompetitionInProgress) {\r\n\t\t\tremoveAllParticipants();\r\n\t\t\tstatus = statusOfCompetition.RewardDistribution;\r\n\t\t\tpreviousStatus = statusOfCompetition.CompetitionInProgress;\r\n\t\t} else if (status == statusOfCompetition.RewardDistribution) {\r\n\t\t\tstatus = statusOfCompetition.RewardExposed;\r\n\t\t\tpreviousStatus = statusOfCompetition.RewardDistribution;\r\n\t\t} else if (status == statusOfCompetition.RewardExposed) {\r\n\t\t\tstatus = statusOfCompetition.RecuperationReward;\r\n\t\t\tpreviousStatus = statusOfCompetition.RewardExposed;\r\n\t\t} else if (status == statusOfCompetition.RecuperationReward) {\r\n\t\t\tstatus = statusOfCompetition.RegistrationOfParticipants;\r\n\t\t\tpreviousStatus = statusOfCompetition.RecuperationReward;\r\n\t\t} else {\r\n\t\t\trevert(\"Unknow Status\");\r\n\t\t}\r\n\r\n\t\temit ThrowInStatueChange(previousStatus, status);\r\n\t}\r\n\r\n\t///@dev Add winners to the Winners array and modify its structure associated with this wallet\r\n\t///@param player name of winner\r\n\t///@param walletPlayer address of winner\r\n\t///@param year Year of victory\r\n\tfunction addWinner(\r\n\t\tstring memory player,\r\n\t\taddress walletPlayer,\r\n\t\tuint256 year\r\n\t)\r\n\t\tpublic\r\n\t\tonlyOwner\r\n\t\tisNotNull(walletPlayer)\r\n\t\tisGoodStatus(statusOfCompetition.RewardDistribution)\r\n\t\twhenNotPaused\r\n\t{\r\n\t\tyearOfParticipationArray.push(year); // Push the year of the competition into the array\r\n\r\n\t\t// Define the winner structure\r\n\t\twinnerMap[walletPlayer].year.push(year);\r\n\t\twinnerMap[walletPlayer].wallet = walletPlayer;\r\n\t\twinnerMap[walletPlayer].player = player;\r\n\t\twinnerMap[walletPlayer].numberOfVictory += 1;\r\n\r\n\t\twinnersArray.push(\r\n\t\t\tWinners(\r\n\t\t\t\tplayer,\r\n\t\t\t\twinnerMap[walletPlayer].year,\r\n\t\t\t\twalletPlayer,\r\n\t\t\t\twinnerMap[walletPlayer].numberOfVictory\r\n\t\t\t)\r\n\t\t); // Push the structure into the winner array\r\n\r\n\t\temit ThrowInWinnersAdd(msg.sender, walletPlayer);\r\n\t}\r\n\r\n\t///@dev Completely delete the participant array and reset the number of participants to 0\r\n\tfunction removeAllParticipants()\r\n\t\tinternal\r\n\t\tonlyOwner\r\n\t\tisGoodStatus(statusOfCompetition.CompetitionInProgress)\r\n\t\twhenNotPaused\r\n\t{\r\n\t\tuint256 len = participantArray.length; // retrieve array size\r\n\r\n\t\tfor (uint256 i; i < len; i++) {\r\n\t\t\t// loop that traverses the array\r\n\t\t\tparticipantArray.pop(); // Remove all participant\r\n\t\t}\r\n\r\n\t\tnumberOfParticipant = 0; // Participant counter reset to 0\r\n\r\n\t\temit ThrowInAllParticipantsRemoved();\r\n\t}\r\n\r\n\t///@dev Removes the targeted item from the Participants\r\n\t///@param element Number of participant remove\r\n\tfunction removeThisParticipant(uint256 element)\r\n\t\tpublic\r\n\t\tonlyOwner\r\n\t\tisGoodStatus(statusOfCompetition.CompetitionInProgress)\r\n\t\twhenNotPaused\r\n\t{\r\n\t\trequire(\r\n\t\t\telement < participantArray.length,\r\n\t\t\t\"Your chosen element must be larger than the size of the array\"\r\n\t\t); // Check that the participant number deleted smaller than the length of array\r\n\t\trequire(element > 0, \"The chosen element must be greater than 0\"); // Check that the deleted element is not below 0\r\n\r\n\t\telement--; // Remove 1 from the element to be removed to match the array\r\n\r\n\t\t// Loop that selects the targeted element and overwrites the next one until it reaches the end of the array\r\n\t\tfor (uint256 i = element; i < participantArray.length - 1; i++) {\r\n\t\t\tparticipantArray[i] = participantArray[i + 1];\r\n\t\t\tparticipantArray[i].nbActiveParticipant--; // Remove 1 from the number of lagged participants\r\n\t\t}\r\n\r\n\t\tnumberOfParticipant--; // Remove 1 from the number of participants\r\n\t\telement++; // Add 1 to retrieve the targeted element to have the correct number entered\r\n\r\n\t\tparticipantArray.pop();\r\n\r\n\t\temit ThrowInThisParticipantRemoved(element);\r\n\t}\r\n\r\n\t// Methods View-------------------------------\r\n\t///@return Return all winners by name and assigned number\r\n\tfunction getAllWinners()\r\n\t\tpublic\r\n\t\tview\r\n\t\treturns (string[] memory, uint256[] memory)\r\n\t{\r\n\t\tstring[] memory winnersString = new string[](winnersArray.length); // Instantiate a string array the length of the winners array\r\n\t\tuint256[] memory yearsOfVictory = new uint256[](\r\n\t\t\tyearOfParticipationArray.length\r\n\t\t); // Instantiate a uint array the length of the yearOfParticipationArray\r\n\r\n\t\t// Loop that goes through all the name of the winner and copies it as well as the production years of the competition\r\n\t\tfor (uint256 i = 0; i < winnersArray.length; i++) {\r\n\t\t\twinnersString[i] = winnersArray[i].player;\r\n\t\t\tyearsOfVictory[i] = yearOfParticipationArray[i];\r\n\t\t}\r\n\r\n\t\treturn (winnersString, yearsOfVictory);\r\n\t}\r\n\r\n\t///@return Return all participants by name and assigned number\r\n\tfunction getAllParticipant()\r\n\t\tpublic\r\n\t\tview\r\n\t\treturns (string[] memory, uint256[] memory)\r\n\t{\r\n\t\tstring[] memory participantString = new string[](\r\n\t\t\tparticipantArray.length\r\n\t\t); // Instantiate a string array the length of the participant array\r\n\t\tuint256[] memory numberParticipant = new uint256[](\r\n\t\t\tparticipantArray.length\r\n\t\t); // Instantiate a uint array the length of the participating array\r\n\r\n\t\t// Loop that runs through all the names of the participant board and their numbers in the competition\r\n\t\tfor (uint256 i = 0; i < participantArray.length; i++) {\r\n\t\t\tparticipantString[i] = participantArray[i].player;\r\n\t\t\tnumberParticipant[i] = participantArray[i].nbActiveParticipant;\r\n\t\t}\r\n\r\n\t\treturn (participantString, numberParticipant);\r\n\t}\r\n\r\n\t///@return The name of organization owner contract\r\n\tfunction getOrganizationOwner() public view returns (string memory) {\r\n\t\treturn nameOfOrganization;\r\n\t}\r\n\r\n\t///@return Return the structure of the winner as well as the table of years\r\n\tfunction viewAllYearVictoryByAddress(address winner)\r\n\t\tpublic\r\n\t\tview\r\n\t\tisNotNull(winner)\r\n\t\treturns (uint256[] memory)\r\n\t{\r\n\t\treturn (winnerMap[winner].year);\r\n\t}\r\n\r\n\t///@return returns a chosen year without the victorious years table\r\n\t///@param winner Address of a winner register\r\n\t///@param number Number selected from the list\r\n\tfunction viewThisVictoryByAddress(address winner, uint256 number)\r\n\t\tpublic\r\n\t\tview\r\n\t\tisNotNull(winner)\r\n\t\treturns (uint256)\r\n\t{\r\n\t\treturn (winnerMap[winner].year[number]);\r\n\t}\r\n\r\n\t///@return See the number of participants remaining\r\n\tfunction viewNumberOfParticipants() public view returns (uint256) {\r\n\t\treturn numberOfParticipant;\r\n\t}\r\n\r\n\t///@return Returns if the contract is paused or not\r\n\tfunction paused() public view returns (bool) {\r\n\t\treturn pause;\r\n\t}\r\n\r\n\t///@dev Get the org who created the NFT\r\n\t///@return return the organization name\r\n\tfunction getOrganizationName() external view returns (string memory) {\r\n\t\treturn nameOfOrganization;\r\n\t}\r\n}\r\n",
  "sourcePath": "/home/pec/Projets/MedalVerse/MedalVerse-Front/contracts/NFT/ThrowIn.sol",
  "compiler": {
    "name": "solc",
    "version": "0.8.0+commit.c7dfd78e.Emscripten.clang"
  },
  "schemaVersion": "3.4.3",
  "updatedAt": "2022-01-03T09:54:18.659Z",
  "networkType": "ethereum",
  "devdoc": {
    "kind": "dev",
    "methods": {
      "addParticipant(string,address)": {
        "details": "Add participants to the Participant array and modify its structure associated with this wallet",
        "params": {
          "player": "Name of player or team",
          "walletPlayer": "adress of player or team"
        }
      },
      "addWinner(string,address,uint256)": {
        "details": "Add winners to the Winners array and modify its structure associated with this wallet",
        "params": {
          "player": "name of winner",
          "walletPlayer": "address of winner",
          "year": "Year of victory"
        }
      },
      "approve(address,uint256)": {
        "details": "See {IERC721-approve}."
      },
      "balanceOf(address)": {
        "details": "See {IERC721-balanceOf}."
      },
      "changeStatusForNext()": {
        "details": "Browse the statuses to know in which status the contract and move on to the next one"
      },
      "getAllParticipant()": {
        "returns": {
          "_0": "Return all participants by name and assigned number"
        }
      },
      "getAllWinners()": {
        "returns": {
          "_0": "Return all winners by name and assigned number"
        }
      },
      "getApproved(uint256)": {
        "details": "See {IERC721-getApproved}."
      },
      "getOrganizationName()": {
        "details": "Get the org who created the NFT",
        "returns": {
          "_0": "return the organization name"
        }
      },
      "getOrganizationOwner()": {
        "returns": {
          "_0": "The name of organization owner contract"
        }
      },
      "isApprovedForAll(address,address)": {
        "details": "See {IERC721-isApprovedForAll}."
      },
      "mintCup(uint256)": {
        "details": "Mint the only possible edition of the NFT Cup",
        "params": {
          "tokenId": "Token id of the NFTA Artist got the Uri"
        }
      },
      "name()": {
        "details": "See {IERC721Metadata-name}."
      },
      "owner()": {
        "details": "Returns the address of the current owner."
      },
      "ownerOf(uint256)": {
        "details": "See {IERC721-ownerOf}."
      },
      "paused()": {
        "returns": {
          "_0": "Returns if the contract is paused or not"
        }
      },
      "removePaused()": {
        "details": "remove pause the contract"
      },
      "removeThisParticipant(uint256)": {
        "details": "Removes the targeted item from the Participants",
        "params": {
          "element": "Number of participant remove"
        }
      },
      "renounceOwnership()": {
        "details": "Leaves the contract without owner. It will not be possible to call `onlyOwner` functions anymore. Can only be called by the current owner. NOTE: Renouncing ownership will leave the contract without an owner, thereby removing any functionality that is only available to the owner."
      },
      "safeTransferFrom(address,address,uint256)": {
        "details": "See {IERC721-safeTransferFrom}."
      },
      "safeTransferFrom(address,address,uint256,bytes)": {
        "details": "See {IERC721-safeTransferFrom}."
      },
      "safeTransferFromWithoutPermission(address,uint256)": {
        "details": "Recovery of NFT without the athlete's consent",
        "params": {
          "from": "NFT owner address",
          "tokenId": "ID to transfer"
        }
      },
      "setApprovalForAll(address,bool)": {
        "details": "See {IERC721-setApprovalForAll}."
      },
      "setPaused()": {
        "details": "pause the contract"
      },
      "supportsInterface(bytes4)": {
        "details": "See {IERC165-supportsInterface}."
      },
      "symbol()": {
        "details": "See {IERC721Metadata-symbol}."
      },
      "tokenURI(uint256)": {
        "details": "See {IERC721Metadata-tokenURI}."
      },
      "transferFrom(address,address,uint256)": {
        "details": "See {IERC721-transferFrom}."
      },
      "transferOwnership(address)": {
        "details": "Transfers ownership of the contract to a new account (`newOwner`). Can only be called by the current owner."
      },
      "viewAllYearVictoryByAddress(address)": {
        "returns": {
          "_0": "Return the structure of the winner as well as the table of years"
        }
      },
      "viewNumberOfParticipants()": {
        "returns": {
          "_0": "See the number of participants remaining"
        }
      },
      "viewThisVictoryByAddress(address,uint256)": {
        "params": {
          "number": "Number selected from the list",
          "winner": "Address of a winner register"
        },
        "returns": {
          "_0": "returns a chosen year without the victorious years table"
        }
      }
    },
    "version": 1
  },
  "userdoc": {
    "kind": "user",
    "methods": {},
    "version": 1
  }
}