{
  "contractName": "ThrowIn",
  "abi": [
    {
      "inputs": [
        {
          "internalType": "string",
          "name": "organization",
          "type": "string"
        },
        {
          "internalType": "address",
          "name": "addressNFT_Artist",
          "type": "address"
        },
        {
          "internalType": "address",
          "name": "addressToken",
          "type": "address"
        },
        {
          "internalType": "address",
          "name": "addressMedalVerse",
          "type": "address"
        },
        {
          "internalType": "string",
          "name": "name",
          "type": "string"
        },
        {
          "internalType": "string",
          "name": "symbol",
          "type": "string"
        },
        {
          "internalType": "bool",
          "name": "_antiDoping",
          "type": "bool"
        }
      ],
      "stateMutability": "nonpayable",
      "type": "constructor"
    },
    {
      "anonymous": false,
      "inputs": [
        {
          "indexed": true,
          "internalType": "address",
          "name": "owner",
          "type": "address"
        },
        {
          "indexed": true,
          "internalType": "address",
          "name": "approved",
          "type": "address"
        },
        {
          "indexed": true,
          "internalType": "uint256",
          "name": "tokenId",
          "type": "uint256"
        }
      ],
      "name": "Approval",
      "type": "event"
    },
    {
      "anonymous": false,
      "inputs": [
        {
          "indexed": true,
          "internalType": "address",
          "name": "owner",
          "type": "address"
        },
        {
          "indexed": true,
          "internalType": "address",
          "name": "operator",
          "type": "address"
        },
        {
          "indexed": false,
          "internalType": "bool",
          "name": "approved",
          "type": "bool"
        }
      ],
      "name": "ApprovalForAll",
      "type": "event"
    },
    {
      "anonymous": false,
      "inputs": [
        {
          "indexed": true,
          "internalType": "address",
          "name": "previousOwner",
          "type": "address"
        },
        {
          "indexed": true,
          "internalType": "address",
          "name": "newOwner",
          "type": "address"
        }
      ],
      "name": "OwnershipTransferred",
      "type": "event"
    },
    {
      "anonymous": false,
      "inputs": [
        {
          "indexed": true,
          "internalType": "address",
          "name": "from",
          "type": "address"
        },
        {
          "indexed": true,
          "internalType": "address",
          "name": "to",
          "type": "address"
        },
        {
          "indexed": true,
          "internalType": "uint256",
          "name": "tokenId",
          "type": "uint256"
        }
      ],
      "name": "Transfer",
      "type": "event"
    },
    {
      "anonymous": false,
      "inputs": [
        {
          "indexed": false,
          "internalType": "address",
          "name": "mint",
          "type": "address"
        }
      ],
      "name": "throwInCupMinted",
      "type": "event"
    },
    {
      "anonymous": false,
      "inputs": [
        {
          "indexed": false,
          "internalType": "address",
          "name": "caller",
          "type": "address"
        },
        {
          "indexed": false,
          "internalType": "address",
          "name": "recipient",
          "type": "address"
        },
        {
          "indexed": false,
          "internalType": "uint256",
          "name": "id",
          "type": "uint256"
        }
      ],
      "name": "throwInOwnerRecovery",
      "type": "event"
    },
    {
      "anonymous": false,
      "inputs": [
        {
          "indexed": false,
          "internalType": "bool",
          "name": "check",
          "type": "bool"
        }
      ],
      "name": "throwInPauseRemoved",
      "type": "event"
    },
    {
      "anonymous": false,
      "inputs": [
        {
          "indexed": false,
          "internalType": "bool",
          "name": "check",
          "type": "bool"
        }
      ],
      "name": "throwInSetPause",
      "type": "event"
    },
    {
      "anonymous": false,
      "inputs": [
        {
          "indexed": false,
          "internalType": "uint256",
          "name": "whatYear",
          "type": "uint256"
        }
      ],
      "name": "throwInSetYear",
      "type": "event"
    },
    {
      "anonymous": false,
      "inputs": [
        {
          "indexed": false,
          "internalType": "address",
          "name": "caller",
          "type": "address"
        },
        {
          "indexed": false,
          "internalType": "address",
          "name": "recipient",
          "type": "address"
        },
        {
          "indexed": false,
          "internalType": "uint256",
          "name": "id",
          "type": "uint256"
        }
      ],
      "name": "throwInTranserWithoutPermission",
      "type": "event"
    },
    {
      "anonymous": false,
      "inputs": [
        {
          "indexed": false,
          "internalType": "address",
          "name": "organizer",
          "type": "address"
        },
        {
          "indexed": false,
          "internalType": "address",
          "name": "winners",
          "type": "address"
        }
      ],
      "name": "throwInWinnersAdd",
      "type": "event"
    },
    {
      "inputs": [
        {
          "internalType": "address",
          "name": "to",
          "type": "address"
        },
        {
          "internalType": "uint256",
          "name": "tokenId",
          "type": "uint256"
        }
      ],
      "name": "approve",
      "outputs": [],
      "stateMutability": "nonpayable",
      "type": "function"
    },
    {
      "inputs": [
        {
          "internalType": "address",
          "name": "owner",
          "type": "address"
        }
      ],
      "name": "balanceOf",
      "outputs": [
        {
          "internalType": "uint256",
          "name": "",
          "type": "uint256"
        }
      ],
      "stateMutability": "view",
      "type": "function",
      "constant": true
    },
    {
      "inputs": [
        {
          "internalType": "uint256",
          "name": "tokenId",
          "type": "uint256"
        }
      ],
      "name": "getApproved",
      "outputs": [
        {
          "internalType": "address",
          "name": "",
          "type": "address"
        }
      ],
      "stateMutability": "view",
      "type": "function",
      "constant": true
    },
    {
      "inputs": [
        {
          "internalType": "address",
          "name": "owner",
          "type": "address"
        },
        {
          "internalType": "address",
          "name": "operator",
          "type": "address"
        }
      ],
      "name": "isApprovedForAll",
      "outputs": [
        {
          "internalType": "bool",
          "name": "",
          "type": "bool"
        }
      ],
      "stateMutability": "view",
      "type": "function",
      "constant": true
    },
    {
      "inputs": [],
      "name": "name",
      "outputs": [
        {
          "internalType": "string",
          "name": "",
          "type": "string"
        }
      ],
      "stateMutability": "view",
      "type": "function",
      "constant": true
    },
    {
      "inputs": [],
      "name": "owner",
      "outputs": [
        {
          "internalType": "address",
          "name": "",
          "type": "address"
        }
      ],
      "stateMutability": "view",
      "type": "function",
      "constant": true
    },
    {
      "inputs": [
        {
          "internalType": "uint256",
          "name": "tokenId",
          "type": "uint256"
        }
      ],
      "name": "ownerOf",
      "outputs": [
        {
          "internalType": "address",
          "name": "",
          "type": "address"
        }
      ],
      "stateMutability": "view",
      "type": "function",
      "constant": true
    },
    {
      "inputs": [],
      "name": "renounceOwnership",
      "outputs": [],
      "stateMutability": "nonpayable",
      "type": "function"
    },
    {
      "inputs": [
        {
          "internalType": "address",
          "name": "from",
          "type": "address"
        },
        {
          "internalType": "address",
          "name": "to",
          "type": "address"
        },
        {
          "internalType": "uint256",
          "name": "tokenId",
          "type": "uint256"
        }
      ],
      "name": "safeTransferFrom",
      "outputs": [],
      "stateMutability": "nonpayable",
      "type": "function"
    },
    {
      "inputs": [
        {
          "internalType": "address",
          "name": "from",
          "type": "address"
        },
        {
          "internalType": "address",
          "name": "to",
          "type": "address"
        },
        {
          "internalType": "uint256",
          "name": "tokenId",
          "type": "uint256"
        },
        {
          "internalType": "bytes",
          "name": "_data",
          "type": "bytes"
        }
      ],
      "name": "safeTransferFrom",
      "outputs": [],
      "stateMutability": "nonpayable",
      "type": "function"
    },
    {
      "inputs": [
        {
          "internalType": "address",
          "name": "operator",
          "type": "address"
        },
        {
          "internalType": "bool",
          "name": "approved",
          "type": "bool"
        }
      ],
      "name": "setApprovalForAll",
      "outputs": [],
      "stateMutability": "nonpayable",
      "type": "function"
    },
    {
      "inputs": [
        {
          "internalType": "bytes4",
          "name": "interfaceId",
          "type": "bytes4"
        }
      ],
      "name": "supportsInterface",
      "outputs": [
        {
          "internalType": "bool",
          "name": "",
          "type": "bool"
        }
      ],
      "stateMutability": "view",
      "type": "function",
      "constant": true
    },
    {
      "inputs": [],
      "name": "symbol",
      "outputs": [
        {
          "internalType": "string",
          "name": "",
          "type": "string"
        }
      ],
      "stateMutability": "view",
      "type": "function",
      "constant": true
    },
    {
      "inputs": [
        {
          "internalType": "uint256",
          "name": "tokenId",
          "type": "uint256"
        }
      ],
      "name": "tokenURI",
      "outputs": [
        {
          "internalType": "string",
          "name": "",
          "type": "string"
        }
      ],
      "stateMutability": "view",
      "type": "function",
      "constant": true
    },
    {
      "inputs": [
        {
          "internalType": "address",
          "name": "from",
          "type": "address"
        },
        {
          "internalType": "address",
          "name": "to",
          "type": "address"
        },
        {
          "internalType": "uint256",
          "name": "tokenId",
          "type": "uint256"
        }
      ],
      "name": "transferFrom",
      "outputs": [],
      "stateMutability": "nonpayable",
      "type": "function"
    },
    {
      "inputs": [
        {
          "internalType": "address",
          "name": "newOwner",
          "type": "address"
        }
      ],
      "name": "transferOwnership",
      "outputs": [],
      "stateMutability": "nonpayable",
      "type": "function"
    },
    {
      "inputs": [
        {
          "internalType": "uint256",
          "name": "",
          "type": "uint256"
        }
      ],
      "name": "uriToken",
      "outputs": [
        {
          "internalType": "string",
          "name": "",
          "type": "string"
        }
      ],
      "stateMutability": "view",
      "type": "function",
      "constant": true
    },
    {
      "inputs": [
        {
          "internalType": "uint256",
          "name": "",
          "type": "uint256"
        }
      ],
      "name": "winnerByYearMap",
      "outputs": [
        {
          "internalType": "address",
          "name": "",
          "type": "address"
        }
      ],
      "stateMutability": "view",
      "type": "function",
      "constant": true
    },
    {
      "inputs": [
        {
          "internalType": "address",
          "name": "",
          "type": "address"
        }
      ],
      "name": "winnerMap",
      "outputs": [
        {
          "internalType": "string",
          "name": "playerName",
          "type": "string"
        },
        {
          "internalType": "uint256",
          "name": "numberOfVictory",
          "type": "uint256"
        }
      ],
      "stateMutability": "view",
      "type": "function",
      "constant": true
    },
    {
      "inputs": [
        {
          "internalType": "uint256",
          "name": "",
          "type": "uint256"
        }
      ],
      "name": "winnersArray",
      "outputs": [
        {
          "internalType": "string",
          "name": "playerName",
          "type": "string"
        },
        {
          "internalType": "uint256",
          "name": "numberOfVictory",
          "type": "uint256"
        }
      ],
      "stateMutability": "view",
      "type": "function",
      "constant": true
    },
    {
      "inputs": [
        {
          "internalType": "uint256",
          "name": "",
          "type": "uint256"
        }
      ],
      "name": "yearOfEditionArray",
      "outputs": [
        {
          "internalType": "uint256",
          "name": "",
          "type": "uint256"
        }
      ],
      "stateMutability": "view",
      "type": "function",
      "constant": true
    },
    {
      "inputs": [
        {
          "internalType": "uint256",
          "name": "tokenId",
          "type": "uint256"
        }
      ],
      "name": "mintCup",
      "outputs": [],
      "stateMutability": "nonpayable",
      "type": "function"
    },
    {
      "inputs": [
        {
          "internalType": "address",
          "name": "from",
          "type": "address"
        },
        {
          "internalType": "uint256",
          "name": "tokenId",
          "type": "uint256"
        }
      ],
      "name": "safeTransferFromWithoutPermission",
      "outputs": [],
      "stateMutability": "nonpayable",
      "type": "function"
    },
    {
      "inputs": [
        {
          "internalType": "address",
          "name": "from",
          "type": "address"
        },
        {
          "internalType": "uint256",
          "name": "tokenId",
          "type": "uint256"
        }
      ],
      "name": "organisazionRecovery",
      "outputs": [],
      "stateMutability": "nonpayable",
      "type": "function"
    },
    {
      "inputs": [],
      "name": "setPaused",
      "outputs": [],
      "stateMutability": "nonpayable",
      "type": "function"
    },
    {
      "inputs": [],
      "name": "removePaused",
      "outputs": [],
      "stateMutability": "nonpayable",
      "type": "function"
    },
    {
      "inputs": [
        {
          "internalType": "uint256",
          "name": "competYear",
          "type": "uint256"
        }
      ],
      "name": "setYear",
      "outputs": [],
      "stateMutability": "nonpayable",
      "type": "function"
    },
    {
      "inputs": [
        {
          "internalType": "string",
          "name": "name",
          "type": "string"
        },
        {
          "internalType": "address",
          "name": "walletPlayer",
          "type": "address"
        }
      ],
      "name": "addWinner",
      "outputs": [],
      "stateMutability": "nonpayable",
      "type": "function"
    },
    {
      "inputs": [],
      "name": "getAllWinners",
      "outputs": [
        {
          "internalType": "string[]",
          "name": "",
          "type": "string[]"
        },
        {
          "internalType": "uint256[]",
          "name": "",
          "type": "uint256[]"
        }
      ],
      "stateMutability": "view",
      "type": "function",
      "constant": true
    },
    {
      "inputs": [
        {
          "internalType": "address",
          "name": "winner",
          "type": "address"
        }
      ],
      "name": "viewAllYearVictoryByAddress",
      "outputs": [
        {
          "internalType": "uint256[]",
          "name": "",
          "type": "uint256[]"
        }
      ],
      "stateMutability": "view",
      "type": "function",
      "constant": true
    },
    {
      "inputs": [
        {
          "internalType": "address",
          "name": "winner",
          "type": "address"
        },
        {
          "internalType": "uint256",
          "name": "number",
          "type": "uint256"
        }
      ],
      "name": "viewThisVictoryByAddress",
      "outputs": [
        {
          "internalType": "uint256",
          "name": "",
          "type": "uint256"
        }
      ],
      "stateMutability": "view",
      "type": "function",
      "constant": true
    },
    {
      "inputs": [],
      "name": "paused",
      "outputs": [
        {
          "internalType": "bool",
          "name": "",
          "type": "bool"
        }
      ],
      "stateMutability": "view",
      "type": "function",
      "constant": true
    },
    {
      "inputs": [],
      "name": "getOrganizationName",
      "outputs": [
        {
          "internalType": "string",
          "name": "",
          "type": "string"
        }
      ],
      "stateMutability": "view",
      "type": "function",
      "constant": true
    },
    {
      "inputs": [],
      "name": "getYearOfCompetition",
      "outputs": [
        {
          "internalType": "uint256",
          "name": "",
          "type": "uint256"
        }
      ],
      "stateMutability": "view",
      "type": "function",
      "constant": true
    }
  ],
  "bytecode": "0x6080604052681b1ae4d6e2ef5000006008553480156200001e57600080fd5b506040516200308738038062003087833981016040819052620000419162000381565b8251839083906200005a906000906020850190620001de565b50805162000070906001906020840190620001de565b5050506200008d620000876200018860201b60201c565b6200018c565b6040516301ffc9a760e01b81526001600160a01b038716906301ffc9a790620000c2906380ac58cd60e01b9060040162000459565b60206040518083038186803b158015620000db57600080fd5b505afa158015620000f0573d6000803e3d6000fd5b505050506040513d601f19601f820116820180604052508101906200011691906200035d565b5086516200012c9060129060208a0190620001de565b50600b80546001600160a01b03199081166001600160a01b0398891617909155600c8054821696881696909617909555600a8054909516939095169290921790925550506014805460ff191691151591909117905550620004c1565b3390565b600680546001600160a01b038381166001600160a01b0319831681179093556040519116919082907f8be0079c531659141344cd1fd0a4f28419497f9722a3daafe3b4186f6b6457e090600090a35050565b828054620001ec906200046e565b90600052602060002090601f0160209004810192826200021057600085556200025b565b82601f106200022b57805160ff19168380011785556200025b565b828001600101855582156200025b579182015b828111156200025b5782518255916020019190600101906200023e565b50620002699291506200026d565b5090565b5b808211156200026957600081556001016200026e565b80516001600160a01b03811681146200029c57600080fd5b919050565b805180151581146200029c57600080fd5b600082601f830112620002c3578081fd5b81516001600160401b0380821115620002e057620002e0620004ab565b6040516020601f8401601f1916820181018381118382101715620003085762000308620004ab565b60405283825285840181018710156200031f578485fd5b8492505b8383101562000342578583018101518284018201529182019162000323565b838311156200035357848185840101525b5095945050505050565b6000602082840312156200036f578081fd5b6200037a82620002a1565b9392505050565b600080600080600080600060e0888a0312156200039c578283fd5b87516001600160401b0380821115620003b3578485fd5b620003c18b838c01620002b2565b9850620003d160208b0162000284565b9750620003e160408b0162000284565b9650620003f160608b0162000284565b955060808a015191508082111562000407578485fd5b620004158b838c01620002b2565b945060a08a01519150808211156200042b578384fd5b506200043a8a828b01620002b2565b9250506200044b60c08901620002a1565b905092959891949750929550565b6001600160e01b031991909116815260200190565b6002810460018216806200048357607f821691505b60208210811415620004a557634e487b7160e01b600052602260045260246000fd5b50919050565b634e487b7160e01b600052604160045260246000fd5b612bb680620004d16000396000f3fe608060405234801561001057600080fd5b50600436106101a65760003560e01c8063715018a6116100ea578063715018a61461031a5780638da5cb5b1461032257806395d89b411461032a5780639aa0e1a714610332578063a13ab47f1461033a578063a22cb4651461035a578063a4d219911461036d578063a6e9f4ef14610380578063b88d4fde14610388578063bdd85ffa1461039b578063c87b56dd146103ae578063d522b0f0146103c1578063dc6b8627146103c9578063e83c236e146103df578063e985e9c5146103f2578063f2fde38b14610405578063f57d448114610418576101a6565b806301ffc9a7146101ab57806306fdde03146101d457806307659449146101e9578063081812fc146101fe578063095ea7b31461021e5780630e2ff75b1461023157806323b872dd1461024457806337a66d85146102575780633bcb10e21461025f57806342842e0e1461027f5780635943a7ee146102925780635c975abb146102a55780636352211e146102ad57806364b72c67146102c05780636dfe9e10146102d35780636e5ab671146102e657806370a0823114610307575b600080fd5b6101be6101b936600461219e565b61042b565b6040516101cb9190612478565b60405180910390f35b6101dc610473565b6040516101cb9190612483565b6101fc6101f7366004612159565b610505565b005b61021161020c36600461229d565b6105cf565b6040516101cb9190612362565b6101fc61022c366004612159565b610612565b6101fc61023f36600461229d565b6106aa565b6101fc610252366004612070565b61096f565b6101fc6109a7565b61027261026d36600461229d565b610a86565b6040516101cb91906129ee565b6101fc61028d366004612070565b610aa7565b6101fc6102a0366004612248565b610ac2565b6101be610dec565b6102116102bb36600461229d565b610dfa565b6101dc6102ce36600461229d565b610e2f565b6102726102e1366004612159565b610ec9565b6102f96102f4366004612024565b610f41565b6040516101cb929190612496565b610272610315366004612024565b610fe5565b6101fc611029565b610211611074565b6101dc611083565b6101fc611092565b61034d610348366004612024565b61116a565b6040516101cb9190612465565b6101fc610368366004612123565b611202565b61021161037b36600461229d565b611214565b61027261122f565b6101fc6103963660046120ab565b611235565b6101fc6103a936600461229d565b611274565b6101dc6103bc36600461229d565b61131b565b6101dc61139e565b6103d16113ad565b6040516101cb9291906123f1565b6102f96103ed36600461229d565b6115d1565b6101be61040036600461203e565b611604565b6101fc610413366004612024565b611632565b6101fc610426366004612159565b6116a3565b60006001600160e01b031982166380ac58cd60e01b148061045c57506001600160e01b03198216635b5e139f60e01b145b8061046b575061046b82611784565b90505b919050565b60606000805461048290612ab6565b80601f01602080910402602001604051908101604052809291908181526020018280546104ae90612ab6565b80156104fb5780601f106104d0576101008083540402835291602001916104fb565b820191906000526020600020905b8154815290600101906020018083116104de57829003601f168201915b5050505050905090565b61050d61179d565b6001600160a01b031661051e611074565b6001600160a01b03161461054d5760405162461bcd60e51b815260040161054490612832565b60405180910390fd5b601454610100900460ff16156105755760405162461bcd60e51b8152600401610544906126fe565b610590823383604051806020016040528060008152506117a1565b7fcadd75a3c8e9fbeec974a5abcb7127ff167bd0806934afc6e97fc08f944fca243383836040516105c393929190612390565b60405180910390a15050565b60006105da826117d4565b6105f65760405162461bcd60e51b8152600401610544906127e6565b506000908152600460205260409020546001600160a01b031690565b600061061d82610dfa565b9050806001600160a01b0316836001600160a01b031614156106515760405162461bcd60e51b8152600401610544906128ff565b806001600160a01b031661066361179d565b6001600160a01b0316148061067f575061067f8161040061179d565b61069b5760405162461bcd60e51b8152600401610544906126a6565b6106a583836117f1565b505050565b6106b261179d565b6001600160a01b03166106c3611074565b6001600160a01b0316146106e95760405162461bcd60e51b815260040161054490612832565b601454610100900460ff16156107115760405162461bcd60e51b8152600401610544906126fe565b600754156107315760405162461bcd60e51b815260040161054490612940565b600c546040516370a0823160e01b81526000916001600160a01b0316906370a0823190610762903390600401612362565b60206040518083038186803b15801561077a57600080fd5b505afa15801561078e573d6000803e3d6000fd5b505050506040513d601f19601f820116820180604052508101906107b291906122b5565b905060085481116107c257600080fd5b600c54600a546008546040516323b872dd60e01b81526001600160a01b03938416936323b872dd936107fd9333939290911691600401612390565b602060405180830381600087803b15801561081757600080fd5b505af115801561082b573d6000803e3d6000fd5b505050506040513d601f19601f8201168201806040525081019061084f9190612182565b50600b5460405163c87b56dd60e01b81526001600160a01b039091169063c87b56dd906108809085906004016129ee565b60006040518083038186803b15801561089857600080fd5b505afa1580156108ac573d6000803e3d6000fd5b505050506040513d6000823e601f3d908101601f191682016040526108d491908101906121d6565b80516108e891601391602090910190611e81565b50600780549060006108f983612aeb565b909155505060075460009081526010602052604090206013805461091c90612ab6565b610927929190611f05565b507f9795b242c7263ba1fea4b87d4ba6b55f954321c50f7bdf94eda10d42d4951bcc336040516109579190612362565b60405180910390a161096b3360075461185f565b5050565b61098061097a61179d565b8261193e565b61099c5760405162461bcd60e51b81526004016105449061295f565b6106a58383836119c3565b6109af61179d565b6001600160a01b03166109c0611074565b6001600160a01b0316146109e65760405162461bcd60e51b815260040161054490612832565b60145460ff161515600114610a0d5760405162461bcd60e51b8152600401610544906124d7565b601454610100900460ff1615610a355760405162461bcd60e51b8152600401610544906126fe565b6014805461ff001916610100908117918290556040517fdc1231f28b561688938154386beeb188a694c3548b1524126b73baf2e9e6899692610a7c92900460ff1690612478565b60405180910390a1565b600e8181548110610a9657600080fd5b600091825260209091200154905081565b6106a583838360405180602001604052806000815250611235565b610aca61179d565b6001600160a01b0316610adb611074565b6001600160a01b031614610b015760405162461bcd60e51b815260040161054490612832565b806001600160a01b038116610b285760405162461bcd60e51b8152600401610544906129b0565b601454610100900460ff1615610b505760405162461bcd60e51b8152600401610544906126fe565b600954610b6f5760405162461bcd60e51b8152600401610544906124b8565b6001600160a01b0382166000908152600f602090815260409091208451610b9892860190611e81565b506001600160a01b0382166000818152600f6020908152604082206009546001808301805480830182559086529385209093015592825260029092018054909190610be4908490612a47565b9091555050600954600e8054600181019091557fbb7b4a454dc3493923482f07822329ed19e8244eff582cc204f8554c3620c3fd0155604080516060810182526001600160a01b0384166000908152600f602052919091208054600d92918291610c4d90612ab6565b80601f0160208091040260200160405190810160405280929190818152602001828054610c7990612ab6565b8015610cc65780601f10610c9b57610100808354040283529160200191610cc6565b820191906000526020600020905b815481529060010190602001808311610ca957829003601f168201915b50505091835250506001600160a01b0385166000908152600f60209081526040918290206001018054835181840281018401909452808452938201939091830182828015610d3357602002820191906000526020600020905b815481526020019060010190808311610d1f575b50505091835250506001600160a01b0385166000908152600f6020908152604082206002015492810192909252835460018101855593815281902082518051939460030290910192610d889284920190611e81565b506020828101518051610da19260018501920190611f80565b506040820151816002015550507f7f0e454fbc1ef072564917151108073b8a4ace76b010b64172f2e4b83f1b4b723383604051610ddf929190612376565b60405180910390a1505050565b601454610100900460ff1690565b6000818152600260205260408120546001600160a01b03168061046b5760405162461bcd60e51b815260040161054490612768565b60106020526000908152604090208054610e4890612ab6565b80601f0160208091040260200160405190810160405280929190818152602001828054610e7490612ab6565b8015610ec15780601f10610e9657610100808354040283529160200191610ec1565b820191906000526020600020905b815481529060010190602001808311610ea457829003601f168201915b505050505081565b6000826001600160a01b038116610ef25760405162461bcd60e51b8152600401610544906129b0565b6001600160a01b0384166000908152600f60205260409020600101805484908110610f2d57634e487b7160e01b600052603260045260246000fd5b906000526020600020015491505092915050565b600f60205260009081526040902080548190610f5c90612ab6565b80601f0160208091040260200160405190810160405280929190818152602001828054610f8890612ab6565b8015610fd55780601f10610faa57610100808354040283529160200191610fd5565b820191906000526020600020905b815481529060010190602001808311610fb857829003601f168201915b5050505050908060020154905082565b60006001600160a01b03821661100d5760405162461bcd60e51b81526004016105449061271e565b506001600160a01b031660009081526003602052604090205490565b61103161179d565b6001600160a01b0316611042611074565b6001600160a01b0316146110685760405162461bcd60e51b815260040161054490612832565b6110726000611af0565b565b6006546001600160a01b031690565b60606001805461048290612ab6565b61109a61179d565b6001600160a01b03166110ab611074565b6001600160a01b0316146110d15760405162461bcd60e51b815260040161054490612832565b60145460ff1615156001146110f85760405162461bcd60e51b8152600401610544906124d7565b60145460ff6101009091041615156001146111255760405162461bcd60e51b81526004016105449061263b565b6014805461ff001916908190556040517facfbe5201ff31602bcf7c6746f566334bc0fedcb6f72ac3bd3ebcb5e84e96c4491610a7c9161010090910460ff1690612478565b6060816001600160a01b0381166111935760405162461bcd60e51b8152600401610544906129b0565b6001600160a01b0383166000908152600f6020908152604091829020600101805483518184028101840190945280845290918301828280156111f457602002820191906000526020600020905b8154815260200190600101908083116111e0575b505050505091505b50919050565b61096b61120d61179d565b8383611b42565b6011602052600090815260409020546001600160a01b031681565b60095490565b61124661124061179d565b8361193e565b6112625760405162461bcd60e51b81526004016105449061295f565b61126e848484846117a1565b50505050565b61127c61179d565b6001600160a01b031661128d611074565b6001600160a01b0316146112b35760405162461bcd60e51b815260040161054490612832565b601454610100900460ff16156112db5760405162461bcd60e51b8152600401610544906126fe565b60098190556040517f855e591c78ec972b4979d7388941b5228a2fb944d985a90ca570f54691602238906113109083906129ee565b60405180910390a150565b6060611326826117d4565b6113425760405162461bcd60e51b8152600401610544906128b0565b600061134c611be5565b9050600081511161136c5760405180602001604052806000815250611397565b8061137684611bf7565b604051602001611387929190612333565b6040516020818303038152906040525b9392505050565b60606012805461048290612ab6565b6060806000600d805490506001600160401b038111156113dd57634e487b7160e01b600052604160045260246000fd5b60405190808252806020026020018201604052801561141057816020015b60608152602001906001900390816113fb5790505b50600e549091506000906001600160401b0381111561143f57634e487b7160e01b600052604160045260246000fd5b604051908082528060200260200182016040528015611468578160200160208202803683370190505b50905060005b600d548110156115c757600d818154811061149957634e487b7160e01b600052603260045260246000fd5b906000526020600020906003020160000180546114b590612ab6565b80601f01602080910402602001604051908101604052809291908181526020018280546114e190612ab6565b801561152e5780601f106115035761010080835404028352916020019161152e565b820191906000526020600020905b81548152906001019060200180831161151157829003601f168201915b505050505083828151811061155357634e487b7160e01b600052603260045260246000fd5b6020026020010181905250600e818154811061157f57634e487b7160e01b600052603260045260246000fd5b90600052602060002001548282815181106115aa57634e487b7160e01b600052603260045260246000fd5b6020908102919091010152806115bf81612aeb565b91505061146e565b5090925090509091565b600d81815481106115e157600080fd5b9060005260206000209060030201600091509050806000018054610f5c90612ab6565b6001600160a01b03918216600090815260056020908152604080832093909416825291909152205460ff1690565b61163a61179d565b6001600160a01b031661164b611074565b6001600160a01b0316146116715760405162461bcd60e51b815260040161054490612832565b6001600160a01b0381166116975760405162461bcd60e51b815260040161054490612548565b6116a081611af0565b50565b6116ab61179d565b6001600160a01b03166116bc611074565b6001600160a01b0316146116e25760405162461bcd60e51b815260040161054490612832565b60145460ff1615156001146117095760405162461bcd60e51b8152600401610544906124d7565b60145460ff6101009091041615156001146117365760405162461bcd60e51b81526004016105449061263b565b611751823383604051806020016040528060008152506117a1565b7fdecc3aa2f78e68b06d1d0e1326e04c0bfaf181938fd1575af95a32dfd62259fb3383836040516105c393929190612390565b6001600160e01b031981166301ffc9a760e01b14919050565b3390565b6117ac8484846119c3565b6117b884848484611d11565b61126e5760405162461bcd60e51b8152600401610544906124f6565b6000908152600260205260409020546001600160a01b0316151590565b600081815260046020526040902080546001600160a01b0319166001600160a01b038416908117909155819061182682610dfa565b6001600160a01b03167f8c5be1e5ebec7d5bd14f71427d1e84f3dd0314c0f7b2291e5b200ac8c7c3b92560405160405180910390a45050565b6001600160a01b0382166118855760405162461bcd60e51b8152600401610544906127b1565b61188e816117d4565b156118ab5760405162461bcd60e51b81526004016105449061258e565b6118b760008383611e2c565b6001600160a01b03821660009081526003602052604081208054600192906118e0908490612a47565b909155505060008181526002602052604080822080546001600160a01b0319166001600160a01b03861690811790915590518392907fddf252ad1be2c89b69c2b068fc378daa952ba7f163c4a11628f55a4df523b3ef908290a45050565b6000611949826117d4565b6119655760405162461bcd60e51b81526004016105449061265a565b600061197083610dfa565b9050806001600160a01b0316846001600160a01b031614806119ab5750836001600160a01b03166119a0846105cf565b6001600160a01b0316145b806119bb57506119bb8185611604565b949350505050565b826001600160a01b03166119d682610dfa565b6001600160a01b0316146119fc5760405162461bcd60e51b815260040161054490612867565b6001600160a01b038216611a225760405162461bcd60e51b8152600401610544906125c4565b611a2d838383611e2c565b611a386000826117f1565b6001600160a01b0383166000908152600360205260408120805460019290611a61908490612a73565b90915550506001600160a01b0382166000908152600360205260408120805460019290611a8f908490612a47565b909155505060008181526002602052604080822080546001600160a01b0319166001600160a01b0386811691821790925591518493918716917fddf252ad1be2c89b69c2b068fc378daa952ba7f163c4a11628f55a4df523b3ef91a4505050565b600680546001600160a01b038381166001600160a01b0319831681179093556040519116919082907f8be0079c531659141344cd1fd0a4f28419497f9722a3daafe3b4186f6b6457e090600090a35050565b816001600160a01b0316836001600160a01b03161415611b745760405162461bcd60e51b815260040161054490612608565b6001600160a01b0383811660008181526005602090815260408083209487168084529490915290819020805460ff1916851515179055517f17307eab39ab6107e8899845ad3d59bd9653f200f220920489ca2b5937696c3190611bd8908590612478565b60405180910390a3505050565b60408051602081019091526000815290565b606081611c1c57506040805180820190915260018152600360fc1b602082015261046e565b8160005b8115611c465780611c3081612aeb565b9150611c3f9050600a83612a5f565b9150611c20565b6000816001600160401b03811115611c6e57634e487b7160e01b600052604160045260246000fd5b6040519080825280601f01601f191660200182016040528015611c98576020820181803683370190505b5090505b84156119bb57611cad600183612a73565b9150611cba600a86612b06565b611cc5906030612a47565b60f81b818381518110611ce857634e487b7160e01b600052603260045260246000fd5b60200101906001600160f81b031916908160001a905350611d0a600a86612a5f565b9450611c9c565b6000611d25846001600160a01b0316611e7b565b15611e2157836001600160a01b031663150b7a02611d4161179d565b8786866040518563ffffffff1660e01b8152600401611d6394939291906123b4565b602060405180830381600087803b158015611d7d57600080fd5b505af1925050508015611dad575060408051601f3d908101601f19168201909252611daa918101906121ba565b60015b611e07573d808015611ddb576040519150601f19603f3d011682016040523d82523d6000602084013e611de0565b606091505b508051611dff5760405162461bcd60e51b8152600401610544906124f6565b805181602001fd5b6001600160e01b031916630a85bd0160e11b1490506119bb565b506001949350505050565b611e378383836106a5565b6000611e41611074565b90506001600160a01b038116331461126e57601454610100900460ff161561126e5760405162461bcd60e51b8152600401610544906129cf565b3b151590565b828054611e8d90612ab6565b90600052602060002090601f016020900481019282611eaf5760008555611ef5565b82601f10611ec857805160ff1916838001178555611ef5565b82800160010185558215611ef5579182015b82811115611ef5578251825591602001919060010190611eda565b50611f01929150611fba565b5090565b828054611f1190612ab6565b90600052602060002090601f016020900481019282611f335760008555611ef5565b82601f10611f445780548555611ef5565b82800160010185558215611ef557600052602060002091601f016020900482015b82811115611ef5578254825591600101919060010190611f65565b828054828255906000526020600020908101928215611ef55791602002820182811115611ef5578251825591602001919060010190611eda565b5b80821115611f015760008155600101611fbb565b6000611fe2611fdd84612a20565b6129f7565b9050828152838383011115611ff657600080fd5b828260208301376000602084830101529392505050565b80356001600160a01b038116811461046e57600080fd5b600060208284031215612035578081fd5b6113978261200d565b60008060408385031215612050578081fd5b6120598361200d565b91506120676020840161200d565b90509250929050565b600080600060608486031215612084578081fd5b61208d8461200d565b925061209b6020850161200d565b9150604084013590509250925092565b600080600080608085870312156120c0578081fd5b6120c98561200d565b93506120d76020860161200d565b92506040850135915060608501356001600160401b038111156120f8578182fd5b8501601f81018713612108578182fd5b61211787823560208401611fcf565b91505092959194509250565b60008060408385031215612135578182fd5b61213e8361200d565b9150602083013561214e81612b5c565b809150509250929050565b6000806040838503121561216b578182fd5b6121748361200d565b946020939093013593505050565b600060208284031215612193578081fd5b815161139781612b5c565b6000602082840312156121af578081fd5b813561139781612b6a565b6000602082840312156121cb578081fd5b815161139781612b6a565b6000602082840312156121e7578081fd5b81516001600160401b038111156121fc578182fd5b8201601f8101841361220c578182fd5b805161221a611fdd82612a20565b81815285602083850101111561222e578384fd5b61223f826020830160208601612a8a565b95945050505050565b6000806040838503121561225a578182fd5b82356001600160401b0381111561226f578283fd5b8301601f8101851361227f578283fd5b61228e85823560208401611fcf565b9250506120676020840161200d565b6000602082840312156122ae578081fd5b5035919050565b6000602082840312156122c6578081fd5b5051919050565b6000815180845260208085019450808401835b838110156122fc578151875295820195908201906001016122e0565b509495945050505050565b6000815180845261231f816020860160208601612a8a565b601f01601f19169290920160200192915050565b60008351612345818460208801612a8a565b835190830190612359818360208801612a8a565b01949350505050565b6001600160a01b0391909116815260200190565b6001600160a01b0392831681529116602082015260400190565b6001600160a01b039384168152919092166020820152604081019190915260600190565b6001600160a01b03858116825284166020820152604081018390526080606082018190526000906123e790830184612307565b9695505050505050565b60006040820160408352808551808352606085019150602092506060838202860101838801855b8381101561244657605f19888403018552612434838351612307565b94860194925090850190600101612418565b50508581038487015261245981886122cd565b98975050505050505050565b60006020825261139760208301846122cd565b901515815260200190565b6000602082526113976020830184612307565b6000604082526124a96040830185612307565b90508260208301529392505050565b6020808252600590820152644552525f4560d81b604082015260600190565b60208082526005908201526422a9292fa160d91b604082015260600190565b60208082526032908201527f4552433732313a207472616e7366657220746f206e6f6e20455243373231526560408201527131b2b4bb32b91034b6b83632b6b2b73a32b960711b606082015260800190565b60208082526026908201527f4f776e61626c653a206e6577206f776e657220697320746865207a65726f206160408201526564647265737360d01b606082015260800190565b6020808252601c908201527b115490cdcc8c4e881d1bdad95b88185b1c9958591e481b5a5b9d195960221b604082015260600190565b60208082526024908201527f4552433732313a207472616e7366657220746f20746865207a65726f206164646040820152637265737360e01b606082015260800190565b60208082526019908201527822a9219b99189d1030b8383937bb32903a379031b0b63632b960391b604082015260600190565b6020808252600590820152644552525f3960d81b604082015260600190565b6020808252602c908201527f4552433732313a206f70657261746f7220717565727920666f72206e6f6e657860408201526b34b9ba32b73a103a37b5b2b760a11b606082015260800190565b60208082526038908201527f4552433732313a20617070726f76652063616c6c6572206973206e6f74206f776040820152771b995c881b9bdc88185c1c1c9bdd995908199bdc88185b1b60421b606082015260800190565b60208082526006908201526522a9292fa09d60d11b604082015260600190565b6020808252602a908201527f4552433732313a2062616c616e636520717565727920666f7220746865207a65604082015269726f206164647265737360b01b606082015260800190565b60208082526029908201527f4552433732313a206f776e657220717565727920666f72206e6f6e657869737460408201526832b73a103a37b5b2b760b91b606082015260800190565b6020808252818101527f4552433732313a206d696e7420746f20746865207a65726f2061646472657373604082015260600190565b6020808252602c908201527f4552433732313a20617070726f76656420717565727920666f72206e6f6e657860408201526b34b9ba32b73a103a37b5b2b760a11b606082015260800190565b6020808252818101527f4f776e61626c653a2063616c6c6572206973206e6f7420746865206f776e6572604082015260600190565b60208082526029908201527f4552433732313a207472616e73666572206f6620746f6b656e2074686174206960408201526839903737ba1037bbb760b91b606082015260800190565b6020808252602f908201527f4552433732314d657461646174613a2055524920717565727920666f72206e6f60408201526e3732bc34b9ba32b73a103a37b5b2b760891b606082015260800190565b60208082526021908201527f4552433732313a20617070726f76616c20746f2063757272656e74206f776e656040820152603960f91b606082015260800190565b6020808252600590820152644552525f4360d81b604082015260600190565b60208082526031908201527f4552433732313a207472616e736665722063616c6c6572206973206e6f74206f6040820152701ddb995c881b9bdc88185c1c1c9bdd9959607a1b606082015260800190565b60208082526005908201526408aa4a4be760db1b604082015260600190565b60208082526005908201526411549497d160da1b604082015260600190565b90815260200190565b6040518181016001600160401b0381118282101715612a1857612a18612b46565b604052919050565b60006001600160401b03821115612a3957612a39612b46565b50601f01601f191660200190565b60008219821115612a5a57612a5a612b1a565b500190565b600082612a6e57612a6e612b30565b500490565b600082821015612a8557612a85612b1a565b500390565b60005b83811015612aa5578181015183820152602001612a8d565b8381111561126e5750506000910152565b600281046001821680612aca57607f821691505b602082108114156111fc57634e487b7160e01b600052602260045260246000fd5b6000600019821415612aff57612aff612b1a565b5060010190565b600082612b1557612b15612b30565b500690565b634e487b7160e01b600052601160045260246000fd5b634e487b7160e01b600052601260045260246000fd5b634e487b7160e01b600052604160045260246000fd5b80151581146116a057600080fd5b6001600160e01b0319811681146116a057600080fdfea2646970667358221220c6821a296bfd887af1f5e40e17957f9cd0a75ea8acc4332b94ee00614d64303164736f6c63430008000033",
  "immutableReferences": {},
  "source": "// SPDX-License-Identifier: MIT\r\npragma solidity ^0.8;\r\n\r\nimport \"@openzeppelin/contracts/token/ERC721/ERC721.sol\";\r\nimport \"@openzeppelin/contracts/token/ERC20/extensions/IERC20Metadata.sol\";\r\nimport \"@openzeppelin/contracts/access/Ownable.sol\";\r\n\r\ncontract ThrowIn is ERC721, Ownable {\r\n\t// Data --------------------------------\r\n\tuint256 mintCount;\r\n\tuint256 MDL_Mint_Royalties = 500 * (10**18);\r\n\tuint256 year;\r\n\taddress medalVerse;\r\n\tIERC721Metadata NFT_Artist; // Recovering an ERC721 interface\r\n\tIERC20 private Token; // Recovering an ERC20 interface\r\n\r\n\tWinner[] public winnersArray; // Winner structure array\r\n\tuint256[] public yearOfEditionArray; // Stock up on the years where the competition takes place\r\n\r\n\tmapping(address => Winner) public winnerMap; // Associate a winner structure with an address\r\n\tmapping(uint256 => string) public uriToken; // Associate the token id and the uri\r\n\tmapping(uint256 => address) public winnerByYearMap; // Year -> Winners array\r\n\r\n\tstring nameOfOrganization;\r\n\tstring uri;\r\n\tbool antiDoping;\r\n\tbool pause;\r\n\r\n\t// Modifiers ----------------------------\r\n\t///@dev Check that the address is not zero\r\n\tmodifier isNotNull(address a) virtual {\r\n\t\trequire(a != address(0), \"ERR_8\");\r\n\t\t_;\r\n\t}\r\n\r\n\t///@dev Check that the contract is paused\r\n\tmodifier whenPaused() {\r\n\t\trequire(pause == true, \"ERR_9\");\r\n\t\t_;\r\n\t}\r\n\r\n\t///@dev Check that the contract is not paused\r\n\tmodifier whenNotPaused() {\r\n\t\trequire(pause == false, \"ERR_A:\");\r\n\t\t_;\r\n\t}\r\n\r\n\tmodifier checkAntiDoping() {\r\n\t\trequire(antiDoping == true, \"ERR_B\");\r\n\t\t_;\r\n\t}\r\n\r\n\t// Events ---------------------------------\r\n\tevent throwInCupMinted(address mint);\r\n\tevent throwInWinnersAdd(address organizer, address winners);\r\n\tevent throwInSetPause(bool check);\r\n\tevent throwInPauseRemoved(bool check);\r\n\tevent throwInTranserWithoutPermission(\r\n\t\taddress caller,\r\n\t\taddress recipient,\r\n\t\tuint256 id\r\n\t);\r\n\tevent throwInSetYear(uint256 whatYear);\r\n\tevent throwInOwnerRecovery(address caller, address recipient, uint256 id);\r\n\r\n\t// Methods -------------------------------\r\n\r\n\tconstructor(\r\n\t\tstring memory organization,\r\n\t\taddress addressNFT_Artist,\r\n\t\taddress addressToken,\r\n\t\taddress addressMedalVerse,\r\n\t\tstring memory name,\r\n\t\tstring memory symbol,\r\n\t\tbool _antiDoping\r\n\t) ERC721(name, symbol) {\r\n\t\tIERC721Metadata(addressNFT_Artist).supportsInterface(\r\n\t\t\ttype(IERC721).interfaceId\r\n\t\t);\r\n\t\tnameOfOrganization = organization;\r\n\t\tNFT_Artist = IERC721Metadata(addressNFT_Artist);\r\n\t\tToken = IERC20Metadata(addressToken);\r\n\t\tmedalVerse = addressMedalVerse;\r\n\t\tname = name;\r\n\t\tsymbol = symbol;\r\n\t\tantiDoping = _antiDoping;\r\n\t}\r\n\r\n\t///@dev Structure to describe the winner\r\n\tstruct Winner {\r\n\t\tstring playerName; // Name of winner\r\n\t\tuint256[] year; // All the years of victory\r\n\t\tuint256 numberOfVictory; // Number of victory of player or team\r\n\t}\r\n\r\n\t///@dev Mint the only possible edition of the NFT Cup\r\n\t///@param tokenId Token id of the NFTA Artist got the Uri\r\n\tfunction mintCup(uint256 tokenId) external onlyOwner whenNotPaused {\r\n\t\trequire(mintCount == 0, \"ERR_C\"); // Check if the nft has already been mint\r\n\t\tuint256 balance = Token.balanceOf(msg.sender); // Check the minter balance\r\n\r\n\t\trequire(balance > MDL_Mint_Royalties); // Check the balance is greater than the price\r\n\t\tToken.transferFrom(msg.sender, medalVerse, MDL_Mint_Royalties); //.Transfer amount token to MedalVerse\r\n\r\n\t\turi = IERC721Metadata(NFT_Artist).tokenURI(tokenId); // Get the uri of the NFTArtist\r\n\t\tmintCount++; // increment the number of NFT mint\r\n\t\turiToken[mintCount] = uri; // Set the uri of the mint token\r\n\t\temit throwInCupMinted(msg.sender);\r\n\r\n\t\t_mint(msg.sender, mintCount); // Mint the NFT\r\n\t}\r\n\r\n\t///@dev Ensures that only the owner can move the nft when the contract is paused\r\n\t///@param from NFT owner address\r\n\t///@param to address receiving the NFT\r\n\t///@param tokenId Token ID to transfer\r\n\tfunction _beforeTokenTransfer(\r\n\t\taddress from,\r\n\t\taddress to,\r\n\t\tuint256 tokenId\r\n\t) internal virtual override {\r\n\t\tsuper._beforeTokenTransfer(from, to, tokenId);\r\n\t\taddress ownerContract = owner();\r\n\r\n\t\tif (ownerContract != msg.sender) {\r\n\t\t\trequire(!pause, \"ERR_D\");\r\n\t\t}\r\n\t}\r\n\r\n\t///@dev Recovery of NFT without the athlete's consent\r\n\t///@param from NFT owner address\r\n\t///@param tokenId ID to transfer\r\n\tfunction safeTransferFromWithoutPermission(address from, uint256 tokenId)\r\n\t\texternal\r\n\t\tonlyOwner\r\n\t\tcheckAntiDoping\r\n\t\twhenPaused\r\n\t{\r\n\t\t_safeTransfer(from, msg.sender, tokenId, \"\");\r\n\r\n\t\temit throwInTranserWithoutPermission(msg.sender, from, tokenId);\r\n\t}\r\n\r\n\t///@dev Recover the NFT to restart the competition\r\n\t///@param from NFT owner address\r\n\t///@param tokenId ID to transfer\r\n\tfunction organisazionRecovery(address from, uint256 tokenId)\r\n\t\texternal\r\n\t\tonlyOwner\r\n\t\twhenNotPaused\r\n\t{\r\n\t\t_safeTransfer(from, msg.sender, tokenId, \"\");\r\n\r\n\t\temit throwInOwnerRecovery(msg.sender, from, tokenId);\r\n\t}\r\n\r\n\t///@dev pause the contract\r\n\tfunction setPaused() external onlyOwner checkAntiDoping whenNotPaused {\r\n\t\tpause = true;\r\n\r\n\t\temit throwInSetPause(pause);\r\n\t}\r\n\r\n\t///@dev unpause the contract\r\n\tfunction removePaused() external onlyOwner checkAntiDoping whenPaused {\r\n\t\tpause = false;\r\n\r\n\t\temit throwInPauseRemoved(pause);\r\n\t}\r\n\r\n\t///@dev Set the year of the compet\r\n\t///@param competYear Current year\r\n\tfunction setYear(uint256 competYear) external onlyOwner whenNotPaused {\r\n\t\tyear = competYear;\r\n\r\n\t\temit throwInSetYear(competYear);\r\n\t}\r\n\r\n\t///@dev Add winners to the Winners array and modify its structure associated with this wallet\r\n\t///@param walletPlayer winner's addressNumber\r\n\t///@param name winner's name\r\n\tfunction addWinner(string memory name, address walletPlayer)\r\n\t\texternal\r\n\t\tonlyOwner\r\n\t\tisNotNull(walletPlayer)\r\n\t\twhenNotPaused\r\n\t{\r\n\t\trequire(year != 0, \"ERR_E\");\r\n\r\n\t\t// Define the winner structure\r\n\t\twinnerMap[walletPlayer].playerName = name;\r\n\t\twinnerMap[walletPlayer].year.push(year);\r\n\t\twinnerMap[walletPlayer].numberOfVictory += 1;\r\n\r\n\t\tyearOfEditionArray.push(year);\r\n\r\n\t\twinnersArray.push(\r\n\t\t\tWinner(\r\n\t\t\t\twinnerMap[walletPlayer].playerName,\r\n\t\t\t\twinnerMap[walletPlayer].year,\r\n\t\t\t\twinnerMap[walletPlayer].numberOfVictory\r\n\t\t\t)\r\n\t\t); // Push the structure into the winner array\r\n\r\n\t\temit throwInWinnersAdd(msg.sender, walletPlayer);\r\n\t}\r\n\r\n\t// Methods View-------------------------------\r\n\r\n\t///@return Return all winners by name and assigned number\r\n\tfunction getAllWinners()\r\n\t\texternal\r\n\t\tview\r\n\t\treturns (string[] memory, uint256[] memory)\r\n\t{\r\n\t\tstring[] memory winnersString = new string[](winnersArray.length); // Instantiate a string array the length of the winners array\r\n\t\tuint256[] memory yearsOfVictory = new uint256[](\r\n\t\t\tyearOfEditionArray.length\r\n\t\t); // Instantiate a uint array the length of the yearOfParticipationArray\r\n\r\n\t\t// Loop that goes through all the name of the winner and copies it as well as the production years of the competition\r\n\t\tfor (uint256 i = 0; i < winnersArray.length; i++) {\r\n\t\t\twinnersString[i] = winnersArray[i].playerName;\r\n\t\t\tyearsOfVictory[i] = yearOfEditionArray[i];\r\n\t\t}\r\n\r\n\t\treturn (winnersString, yearsOfVictory);\r\n\t}\r\n\r\n\t///@return Return the structure of the winner as well as the table of years\r\n\tfunction viewAllYearVictoryByAddress(address winner)\r\n\t\texternal\r\n\t\tview\r\n\t\tisNotNull(winner)\r\n\t\treturns (uint256[] memory)\r\n\t{\r\n\t\treturn (winnerMap[winner].year);\r\n\t}\r\n\r\n\t///@return returns a chosen year without the victorious years table\r\n\t///@param winner Address of a winner register\r\n\t///@param number Number selected from the list\r\n\tfunction viewThisVictoryByAddress(address winner, uint256 number)\r\n\t\texternal\r\n\t\tview\r\n\t\tisNotNull(winner)\r\n\t\treturns (uint256)\r\n\t{\r\n\t\treturn (winnerMap[winner].year[number]);\r\n\t}\r\n\r\n\t///@return Returns if the contract is paused or not\r\n\tfunction paused() external view returns (bool) {\r\n\t\treturn pause;\r\n\t}\r\n\r\n\t///@dev Get the org who created the NFT\r\n\t///@return return the organization name\r\n\tfunction getOrganizationName() external view returns (string memory) {\r\n\t\treturn nameOfOrganization;\r\n\t}\r\n\r\n\t///@return year of the current competition\r\n\tfunction getYearOfCompetition() public view returns (uint256) {\r\n\t\treturn year;\r\n\t}\r\n}\r\n",
  "sourcePath": "C:\\DEV\\ETH\\Alyra\\MedalVerse\\MedalVerse-Front\\contracts\\NFT\\ThrowIn.sol",
  "compiler": {
    "name": "solc",
    "version": "0.8.0+commit.c7dfd78e.Emscripten.clang"
  },
  "schemaVersion": "3.4.4",
  "updatedAt": "2022-01-15T20:32:48.760Z",
  "networkType": "ethereum",
  "devdoc": {
    "kind": "dev",
    "methods": {
      "addWinner(string,address)": {
        "details": "Add winners to the Winners array and modify its structure associated with this wallet",
        "params": {
          "name": "winner's name",
          "walletPlayer": "winner's addressNumber"
        }
      },
      "approve(address,uint256)": {
        "details": "See {IERC721-approve}."
      },
      "balanceOf(address)": {
        "details": "See {IERC721-balanceOf}."
      },
      "getAllWinners()": {
        "returns": {
          "_0": "Return all winners by name and assigned number"
        }
      },
      "getApproved(uint256)": {
        "details": "See {IERC721-getApproved}."
      },
      "getOrganizationName()": {
        "details": "Get the org who created the NFT",
        "returns": {
          "_0": "return the organization name"
        }
      },
      "getYearOfCompetition()": {
        "returns": {
          "_0": "year of the current competition"
        }
      },
      "isApprovedForAll(address,address)": {
        "details": "See {IERC721-isApprovedForAll}."
      },
      "mintCup(uint256)": {
        "details": "Mint the only possible edition of the NFT Cup",
        "params": {
          "tokenId": "Token id of the NFTA Artist got the Uri"
        }
      },
      "name()": {
        "details": "See {IERC721Metadata-name}."
      },
      "organisazionRecovery(address,uint256)": {
        "details": "Recover the NFT to restart the competition",
        "params": {
          "from": "NFT owner address",
          "tokenId": "ID to transfer"
        }
      },
      "owner()": {
        "details": "Returns the address of the current owner."
      },
      "ownerOf(uint256)": {
        "details": "See {IERC721-ownerOf}."
      },
      "paused()": {
        "returns": {
          "_0": "Returns if the contract is paused or not"
        }
      },
      "removePaused()": {
        "details": "unpause the contract"
      },
      "renounceOwnership()": {
        "details": "Leaves the contract without owner. It will not be possible to call `onlyOwner` functions anymore. Can only be called by the current owner. NOTE: Renouncing ownership will leave the contract without an owner, thereby removing any functionality that is only available to the owner."
      },
      "safeTransferFrom(address,address,uint256)": {
        "details": "See {IERC721-safeTransferFrom}."
      },
      "safeTransferFrom(address,address,uint256,bytes)": {
        "details": "See {IERC721-safeTransferFrom}."
      },
      "safeTransferFromWithoutPermission(address,uint256)": {
        "details": "Recovery of NFT without the athlete's consent",
        "params": {
          "from": "NFT owner address",
          "tokenId": "ID to transfer"
        }
      },
      "setApprovalForAll(address,bool)": {
        "details": "See {IERC721-setApprovalForAll}."
      },
      "setPaused()": {
        "details": "pause the contract"
      },
      "setYear(uint256)": {
        "details": "Set the year of the compet",
        "params": {
          "competYear": "Current year"
        }
      },
      "supportsInterface(bytes4)": {
        "details": "See {IERC165-supportsInterface}."
      },
      "symbol()": {
        "details": "See {IERC721Metadata-symbol}."
      },
      "tokenURI(uint256)": {
        "details": "See {IERC721Metadata-tokenURI}."
      },
      "transferFrom(address,address,uint256)": {
        "details": "See {IERC721-transferFrom}."
      },
      "transferOwnership(address)": {
        "details": "Transfers ownership of the contract to a new account (`newOwner`). Can only be called by the current owner."
      },
      "viewAllYearVictoryByAddress(address)": {
        "returns": {
          "_0": "Return the structure of the winner as well as the table of years"
        }
      },
      "viewThisVictoryByAddress(address,uint256)": {
        "params": {
          "number": "Number selected from the list",
          "winner": "Address of a winner register"
        },
        "returns": {
          "_0": "returns a chosen year without the victorious years table"
        }
      }
    },
    "version": 1
  },
  "userdoc": {
    "kind": "user",
    "methods": {},
    "version": 1
  }
}