{
  "contractName": "ThrowIn",
  "abi": [
    {
      "inputs": [],
      "stateMutability": "nonpayable",
      "type": "constructor"
    },
    {
      "anonymous": false,
      "inputs": [
        {
          "indexed": true,
          "internalType": "address",
          "name": "owner",
          "type": "address"
        },
        {
          "indexed": true,
          "internalType": "address",
          "name": "approved",
          "type": "address"
        },
        {
          "indexed": true,
          "internalType": "uint256",
          "name": "tokenId",
          "type": "uint256"
        }
      ],
      "name": "Approval",
      "type": "event"
    },
    {
      "anonymous": false,
      "inputs": [
        {
          "indexed": true,
          "internalType": "address",
          "name": "owner",
          "type": "address"
        },
        {
          "indexed": true,
          "internalType": "address",
          "name": "operator",
          "type": "address"
        },
        {
          "indexed": false,
          "internalType": "bool",
          "name": "approved",
          "type": "bool"
        }
      ],
      "name": "ApprovalForAll",
      "type": "event"
    },
    {
      "anonymous": false,
      "inputs": [
        {
          "indexed": true,
          "internalType": "address",
          "name": "previousOwner",
          "type": "address"
        },
        {
          "indexed": true,
          "internalType": "address",
          "name": "newOwner",
          "type": "address"
        }
      ],
      "name": "OwnershipTransferred",
      "type": "event"
    },
    {
      "anonymous": false,
      "inputs": [
        {
          "indexed": true,
          "internalType": "address",
          "name": "from",
          "type": "address"
        },
        {
          "indexed": true,
          "internalType": "address",
          "name": "to",
          "type": "address"
        },
        {
          "indexed": true,
          "internalType": "uint256",
          "name": "tokenId",
          "type": "uint256"
        }
      ],
      "name": "Transfer",
      "type": "event"
    },
    {
      "anonymous": false,
      "inputs": [
        {
          "indexed": false,
          "internalType": "address",
          "name": "mint",
          "type": "address"
        }
      ],
      "name": "cupMinted",
      "type": "event"
    },
    {
      "anonymous": false,
      "inputs": [
        {
          "indexed": false,
          "internalType": "address",
          "name": "organizer",
          "type": "address"
        },
        {
          "indexed": false,
          "internalType": "address",
          "name": "participant",
          "type": "address"
        }
      ],
      "name": "participantAdd",
      "type": "event"
    },
    {
      "anonymous": false,
      "inputs": [
        {
          "indexed": false,
          "internalType": "address",
          "name": "organizer",
          "type": "address"
        },
        {
          "indexed": false,
          "internalType": "address",
          "name": "winners",
          "type": "address"
        }
      ],
      "name": "winnersAdd",
      "type": "event"
    },
    {
      "inputs": [
        {
          "internalType": "address",
          "name": "to",
          "type": "address"
        },
        {
          "internalType": "uint256",
          "name": "tokenId",
          "type": "uint256"
        }
      ],
      "name": "approve",
      "outputs": [],
      "stateMutability": "nonpayable",
      "type": "function"
    },
    {
      "inputs": [
        {
          "internalType": "address",
          "name": "owner",
          "type": "address"
        }
      ],
      "name": "balanceOf",
      "outputs": [
        {
          "internalType": "uint256",
          "name": "",
          "type": "uint256"
        }
      ],
      "stateMutability": "view",
      "type": "function"
    },
    {
      "inputs": [
        {
          "internalType": "uint256",
          "name": "tokenId",
          "type": "uint256"
        }
      ],
      "name": "getApproved",
      "outputs": [
        {
          "internalType": "address",
          "name": "",
          "type": "address"
        }
      ],
      "stateMutability": "view",
      "type": "function"
    },
    {
      "inputs": [
        {
          "internalType": "address",
          "name": "owner",
          "type": "address"
        },
        {
          "internalType": "address",
          "name": "operator",
          "type": "address"
        }
      ],
      "name": "isApprovedForAll",
      "outputs": [
        {
          "internalType": "bool",
          "name": "",
          "type": "bool"
        }
      ],
      "stateMutability": "view",
      "type": "function"
    },
    {
      "inputs": [],
      "name": "name",
      "outputs": [
        {
          "internalType": "string",
          "name": "",
          "type": "string"
        }
      ],
      "stateMutability": "view",
      "type": "function"
    },
    {
      "inputs": [],
      "name": "owner",
      "outputs": [
        {
          "internalType": "address",
          "name": "",
          "type": "address"
        }
      ],
      "stateMutability": "view",
      "type": "function"
    },
    {
      "inputs": [
        {
          "internalType": "uint256",
          "name": "tokenId",
          "type": "uint256"
        }
      ],
      "name": "ownerOf",
      "outputs": [
        {
          "internalType": "address",
          "name": "",
          "type": "address"
        }
      ],
      "stateMutability": "view",
      "type": "function"
    },
    {
      "inputs": [],
      "name": "renounceOwnership",
      "outputs": [],
      "stateMutability": "nonpayable",
      "type": "function"
    },
    {
      "inputs": [
        {
          "internalType": "address",
          "name": "from",
          "type": "address"
        },
        {
          "internalType": "address",
          "name": "to",
          "type": "address"
        },
        {
          "internalType": "uint256",
          "name": "tokenId",
          "type": "uint256"
        }
      ],
      "name": "safeTransferFrom",
      "outputs": [],
      "stateMutability": "nonpayable",
      "type": "function"
    },
    {
      "inputs": [
        {
          "internalType": "address",
          "name": "from",
          "type": "address"
        },
        {
          "internalType": "address",
          "name": "to",
          "type": "address"
        },
        {
          "internalType": "uint256",
          "name": "tokenId",
          "type": "uint256"
        },
        {
          "internalType": "bytes",
          "name": "_data",
          "type": "bytes"
        }
      ],
      "name": "safeTransferFrom",
      "outputs": [],
      "stateMutability": "nonpayable",
      "type": "function"
    },
    {
      "inputs": [
        {
          "internalType": "address",
          "name": "operator",
          "type": "address"
        },
        {
          "internalType": "bool",
          "name": "approved",
          "type": "bool"
        }
      ],
      "name": "setApprovalForAll",
      "outputs": [],
      "stateMutability": "nonpayable",
      "type": "function"
    },
    {
      "inputs": [
        {
          "internalType": "bytes4",
          "name": "interfaceId",
          "type": "bytes4"
        }
      ],
      "name": "supportsInterface",
      "outputs": [
        {
          "internalType": "bool",
          "name": "",
          "type": "bool"
        }
      ],
      "stateMutability": "view",
      "type": "function"
    },
    {
      "inputs": [],
      "name": "symbol",
      "outputs": [
        {
          "internalType": "string",
          "name": "",
          "type": "string"
        }
      ],
      "stateMutability": "view",
      "type": "function"
    },
    {
      "inputs": [
        {
          "internalType": "uint256",
          "name": "tokenId",
          "type": "uint256"
        }
      ],
      "name": "tokenURI",
      "outputs": [
        {
          "internalType": "string",
          "name": "",
          "type": "string"
        }
      ],
      "stateMutability": "view",
      "type": "function"
    },
    {
      "inputs": [
        {
          "internalType": "address",
          "name": "from",
          "type": "address"
        },
        {
          "internalType": "address",
          "name": "to",
          "type": "address"
        },
        {
          "internalType": "uint256",
          "name": "tokenId",
          "type": "uint256"
        }
      ],
      "name": "transferFrom",
      "outputs": [],
      "stateMutability": "nonpayable",
      "type": "function"
    },
    {
      "inputs": [
        {
          "internalType": "address",
          "name": "newOwner",
          "type": "address"
        }
      ],
      "name": "transferOwnership",
      "outputs": [],
      "stateMutability": "nonpayable",
      "type": "function"
    },
    {
      "inputs": [
        {
          "internalType": "string",
          "name": "tokenURI",
          "type": "string"
        }
      ],
      "name": "mintCup",
      "outputs": [
        {
          "internalType": "uint256",
          "name": "",
          "type": "uint256"
        }
      ],
      "stateMutability": "nonpayable",
      "type": "function"
    },
    {
      "inputs": [
        {
          "internalType": "string",
          "name": "team",
          "type": "string"
        },
        {
          "internalType": "address",
          "name": "walletTeam",
          "type": "address"
        }
      ],
      "name": "addParticipant",
      "outputs": [],
      "stateMutability": "nonpayable",
      "type": "function"
    },
    {
      "inputs": [
        {
          "internalType": "string",
          "name": "team",
          "type": "string"
        },
        {
          "internalType": "uint256",
          "name": "year",
          "type": "uint256"
        },
        {
          "internalType": "address",
          "name": "walletTeam",
          "type": "address"
        }
      ],
      "name": "addWinners",
      "outputs": [],
      "stateMutability": "nonpayable",
      "type": "function"
    },
    {
      "inputs": [],
      "name": "removeAllParticipant",
      "outputs": [],
      "stateMutability": "nonpayable",
      "type": "function"
    },
    {
      "inputs": [
        {
          "internalType": "uint256",
          "name": "element",
          "type": "uint256"
        }
      ],
      "name": "removeThisParticipant",
      "outputs": [],
      "stateMutability": "nonpayable",
      "type": "function"
    },
    {
      "inputs": [],
      "name": "getAllWinners",
      "outputs": [
        {
          "internalType": "string[]",
          "name": "",
          "type": "string[]"
        },
        {
          "internalType": "uint256[]",
          "name": "",
          "type": "uint256[]"
        }
      ],
      "stateMutability": "view",
      "type": "function"
    },
    {
      "inputs": [],
      "name": "getAllParticipant",
      "outputs": [
        {
          "internalType": "string[]",
          "name": "",
          "type": "string[]"
        },
        {
          "internalType": "uint256[]",
          "name": "",
          "type": "uint256[]"
        }
      ],
      "stateMutability": "view",
      "type": "function"
    }
  ],
  "bytecode": "0x60806040523480156200001157600080fd5b5060408051808201825260088152670576f726c644375760c41b60208083019182528351808501909452600384526257644360e81b9084015281519192916200005d91600091620000ec565b50805162000073906001906020840190620000ec565b505050620000906200008a6200009660201b60201c565b6200009a565b620001cf565b3390565b600780546001600160a01b038381166001600160a01b0319831681179093556040519116919082907f8be0079c531659141344cd1fd0a4f28419497f9722a3daafe3b4186f6b6457e090600090a35050565b828054620000fa9062000192565b90600052602060002090601f0160209004810192826200011e576000855562000169565b82601f106200013957805160ff191683800117855562000169565b8280016001018555821562000169579182015b82811115620001695782518255916020019190600101906200014c565b50620001779291506200017b565b5090565b5b808211156200017757600081556001016200017c565b600281046001821680620001a757607f821691505b60208210811415620001c957634e487b7160e01b600052602260045260246000fd5b50919050565b6127c480620001df6000396000f3fe608060405234801561001057600080fd5b506004361061014c5760003560e01c80638da5cb5b116100c3578063d0d9ea761161007c578063d0d9ea761461029f578063dc6b8627146102b2578063e985e9c5146102ba578063edceed07146102cd578063f2fde38b146102e0578063f5b5df48146102f35761014c565b80638da5cb5b1461024e5780639189407d1461025657806395d89b411461025e578063a22cb46514610266578063b88d4fde14610279578063c87b56dd1461028c5761014c565b806323b872dd1161011557806323b872dd146101da57806342842e0e146101ed5780636352211e146102005780636a9876b21461021357806370a0823114610226578063715018a6146102465761014c565b8062b098af1461015157806301ffc9a71461017057806306fdde0314610190578063081812fc146101a5578063095ea7b3146101c5575b600080fd5b610159610306565b604051610167929190611fee565b60405180910390f35b61018361017e366004611e0d565b610533565b6040516101679190612086565b61019861057b565b6040516101679190612091565b6101b86101b3366004611f10565b61060d565b6040516101679190611f83565b6101d86101d3366004611de4565b610659565b005b6101d86101e8366004611cf6565b6106f1565b6101d86101fb366004611cf6565b610729565b6101b861020e366004611f10565b610744565b6101d8610221366004611ebb565b610779565b610239610234366004611caa565b61092a565b604051610167919061263d565b6101d861096e565b6101b86109b9565b6101d86109c8565b610198610a89565b6101d8610274366004611daa565b610a98565b6101d8610287366004611d31565b610aae565b61019861029a366004611f10565b610aed565b6101d86102ad366004611f10565b610c0e565b610159610e12565b6101836102c8366004611cc4565b611035565b6102396102db366004611e45565b611063565b6101d86102ee366004611caa565b611130565b6101d8610301366004611e78565b6111a1565b606080600060098054905067ffffffffffffffff81111561033757634e487b7160e01b600052604160045260246000fd5b60405190808252806020026020018201604052801561036a57816020015b60608152602001906001900390816103555790505b5060095490915060009067ffffffffffffffff81111561039a57634e487b7160e01b600052604160045260246000fd5b6040519080825280602002602001820160405280156103c3578160200160208202803683370190505b50905060005b60095481101561052957600981815481106103f457634e487b7160e01b600052603260045260246000fd5b90600052602060002090600302016001018054610410906126cc565b80601f016020809104026020016040519081016040528092919081815260200182805461043c906126cc565b80156104895780601f1061045e57610100808354040283529160200191610489565b820191906000526020600020905b81548152906001019060200180831161046c57829003601f168201915b50505050508382815181106104ae57634e487b7160e01b600052603260045260246000fd5b6020026020010181905250600981815481106104da57634e487b7160e01b600052603260045260246000fd5b90600052602060002090600302016000015482828151811061050c57634e487b7160e01b600052603260045260246000fd5b60209081029190910101528061052181612707565b9150506103c9565b5090925090509091565b60006001600160e01b031982166380ac58cd60e01b148061056457506001600160e01b03198216635b5e139f60e01b145b80610573575061057382611346565b90505b919050565b60606000805461058a906126cc565b80601f01602080910402602001604051908101604052809291908181526020018280546105b6906126cc565b80156106035780601f106105d857610100808354040283529160200191610603565b820191906000526020600020905b8154815290600101906020018083116105e657829003601f168201915b5050505050905090565b60006106188261135f565b61063d5760405162461bcd60e51b815260040161063490612435565b60405180910390fd5b506000908152600460205260409020546001600160a01b031690565b600061066482610744565b9050806001600160a01b0316836001600160a01b031614156106985760405162461bcd60e51b81526004016106349061254e565b806001600160a01b03166106aa61137c565b6001600160a01b031614806106c657506106c6816102c861137c565b6106e25760405162461bcd60e51b815260040161063490612271565b6106ec8383611380565b505050565b6107026106fc61137c565b826113ee565b61071e5760405162461bcd60e51b81526004016106349061258f565b6106ec83838361146b565b6106ec83838360405180602001604052806000815250610aae565b6000818152600260205260408120546001600160a01b0316806105735760405162461bcd60e51b815260040161063490612318565b61078161137c565b6001600160a01b03166107926109b9565b6001600160a01b0316146107b85760405162461bcd60e51b815260040161063490612481565b6001600160a01b0381166000818152600a602090815260409091206002810180546001600160a01b03191690931790925584516107f89291860190611ab4565b506001600160a01b0381166000908152600a60205260408120600301805460019290610825908490612646565b90915550506040805160808101825284815260208082018590526001600160a01b0384168284018190526000908152600a8252928320600301546060830152600880546001810182559352815180519293849360049091027ff3f7a9fe364faab93b216da50a3214154f22a0a2b415b23a84c8169e8b636ee301926108ae928492910190611ab4565b50602082015160018201556040808301516002830180546001600160a01b0319166001600160a01b03909216919091179055606090920151600390910155517f6f36dba54d4e6d129cd12043ea9341e5bf4bfe81b7650b7d0ea73bf64cd142f29061091c9033908590611f97565b60405180910390a150505050565b60006001600160a01b0382166109525760405162461bcd60e51b8152600401610634906122ce565b506001600160a01b031660009081526003602052604090205490565b61097661137c565b6001600160a01b03166109876109b9565b6001600160a01b0316146109ad5760405162461bcd60e51b815260040161063490612481565b6109b76000611598565b565b6007546001600160a01b031690565b6109d061137c565b6001600160a01b03166109e16109b9565b6001600160a01b031614610a075760405162461bcd60e51b815260040161063490612481565b60095460005b81811015610a80576009805480610a3457634e487b7160e01b600052603160045260246000fd5b60008281526020812060036000199093019283020181815590610a5a6001830182611b38565b5060020180546001600160a01b0319169055905580610a7881612707565b915050610a0d565b50506000600d55565b60606001805461058a906126cc565b610aaa610aa361137c565b83836115ea565b5050565b610abf610ab961137c565b836113ee565b610adb5760405162461bcd60e51b81526004016106349061258f565b610ae78484848461168d565b50505050565b6060610af88261135f565b610b145760405162461bcd60e51b8152600401610634906123e4565b60008281526006602052604081208054610b2d906126cc565b80601f0160208091040260200160405190810160405280929190818152602001828054610b59906126cc565b8015610ba65780601f10610b7b57610100808354040283529160200191610ba6565b820191906000526020600020905b815481529060010190602001808311610b8957829003601f168201915b505050505090506000610bb76116c0565b9050805160001415610bcb57509050610576565b815115610bfd578082604051602001610be5929190611f54565b60405160208183030381529060405292505050610576565b610c06846116d2565b949350505050565b610c1661137c565b6001600160a01b0316610c276109b9565b6001600160a01b031614610c4d5760405162461bcd60e51b815260040161063490612481565b6009548110610c6e5760405162461bcd60e51b8152600401610634906125e0565b80610c78816126b5565b91508190505b600954610c8d90600190612672565b811015610da0576009610ca1826001612646565b81548110610cbf57634e487b7160e01b600052603260045260246000fd5b906000526020600020906003020160098281548110610cee57634e487b7160e01b600052603260045260246000fd5b9060005260206000209060030201600082015481600001556001820181600101908054610d1a906126cc565b610d25929190611b74565b50600291820154910180546001600160a01b0319166001600160a01b039092169190911790556009805482908110610d6d57634e487b7160e01b600052603260045260246000fd5b600091825260208220600390910201805491610d88836126b5565b91905055508080610d9890612707565b915050610c7e565b50600d8054906000610db1836126b5565b91905055506009805480610dd557634e487b7160e01b600052603160045260246000fd5b60008281526020812060036000199093019283020181815590610dfb6001830182611b38565b5060020180546001600160a01b0319169055905550565b606080600060088054905067ffffffffffffffff811115610e4357634e487b7160e01b600052604160045260246000fd5b604051908082528060200260200182016040528015610e7657816020015b6060815260200190600190039081610e615790505b5060085490915060009067ffffffffffffffff811115610ea657634e487b7160e01b600052604160045260246000fd5b604051908082528060200260200182016040528015610ecf578160200160208202803683370190505b50905060005b6008548110156105295760088181548110610f0057634e487b7160e01b600052603260045260246000fd5b90600052602060002090600402016000018054610f1c906126cc565b80601f0160208091040260200160405190810160405280929190818152602001828054610f48906126cc565b8015610f955780601f10610f6a57610100808354040283529160200191610f95565b820191906000526020600020905b815481529060010190602001808311610f7857829003601f168201915b5050505050838281518110610fba57634e487b7160e01b600052603260045260246000fd5b602002602001018190525060088181548110610fe657634e487b7160e01b600052603260045260246000fd5b90600052602060002090600402016001015482828151811061101857634e487b7160e01b600052603260045260246000fd5b60209081029190910101528061102d81612707565b915050610ed5565b6001600160a01b03918216600090815260056020908152604080832093909416825291909152205460ff1690565b600061106d61137c565b6001600160a01b031661107e6109b9565b6001600160a01b0316146110a45760405162461bcd60e51b815260040161063490612481565b600c54156110c45760405162461bcd60e51b815260040161063490612173565b600c80549060006110d483612707565b91905055506110e533600c54611755565b6110f1600c5483611834565b7fcb207dc03cc65528627f26da41f6fba685b9f1d64862fc3b7383488e4f274f1b336040516111209190611f83565b60405180910390a15050600c5490565b61113861137c565b6001600160a01b03166111496109b9565b6001600160a01b03161461116f5760405162461bcd60e51b815260040161063490612481565b6001600160a01b0381166111955760405162461bcd60e51b8152600401610634906120f6565b61119e81611598565b50565b6111a961137c565b6001600160a01b03166111ba6109b9565b6001600160a01b0316146111e05760405162461bcd60e51b815260040161063490612481565b600d80549060006111f083612707565b9091555050600d546001600160a01b0382166000908152600b6020908152604090912091825583516112289260010191850190611ab4565b506001600160a01b0381166000818152600b602090815260408083206002810180546001600160a01b0319168617905581516060810183529054815280830187815291810194909452600980546001810182559352835160039093027f6e1540171b6c0c960b71a7020d9f60077f6af931a8bbf590da0223dacf75c7af8101938455905180518594936112df937f6e1540171b6c0c960b71a7020d9f60077f6af931a8bbf590da0223dacf75c7b001920190611ab4565b5060409182015160029190910180546001600160a01b0319166001600160a01b03909216919091179055517fa2f99c97a18d77bac20df9d7d3a9e2bc07a7224d5810061377a4fcb8bca8b31f906113399033908590611f97565b60405180910390a1505050565b6001600160e01b031981166301ffc9a760e01b14919050565b6000908152600260205260409020546001600160a01b0316151590565b3390565b600081815260046020526040902080546001600160a01b0319166001600160a01b03841690811790915581906113b582610744565b6001600160a01b03167f8c5be1e5ebec7d5bd14f71427d1e84f3dd0314c0f7b2291e5b200ac8c7c3b92560405160405180910390a45050565b60006113f98261135f565b6114155760405162461bcd60e51b815260040161063490612225565b600061142083610744565b9050806001600160a01b0316846001600160a01b0316148061145b5750836001600160a01b03166114508461060d565b6001600160a01b0316145b80610c065750610c068185611035565b826001600160a01b031661147e82610744565b6001600160a01b0316146114a45760405162461bcd60e51b8152600401610634906124b6565b6001600160a01b0382166114ca5760405162461bcd60e51b8152600401610634906121aa565b6114d58383836106ec565b6114e0600082611380565b6001600160a01b0383166000908152600360205260408120805460019290611509908490612672565b90915550506001600160a01b0382166000908152600360205260408120805460019290611537908490612646565b909155505060008181526002602052604080822080546001600160a01b0319166001600160a01b0386811691821790925591518493918716917fddf252ad1be2c89b69c2b068fc378daa952ba7f163c4a11628f55a4df523b3ef91a4505050565b600780546001600160a01b038381166001600160a01b0319831681179093556040519116919082907f8be0079c531659141344cd1fd0a4f28419497f9722a3daafe3b4186f6b6457e090600090a35050565b816001600160a01b0316836001600160a01b0316141561161c5760405162461bcd60e51b8152600401610634906121ee565b6001600160a01b0383811660008181526005602090815260408083209487168084529490915290819020805460ff1916851515179055517f17307eab39ab6107e8899845ad3d59bd9653f200f220920489ca2b5937696c3190611680908590612086565b60405180910390a3505050565b61169884848461146b565b6116a484848484611878565b610ae75760405162461bcd60e51b8152600401610634906120a4565b60408051602081019091526000815290565b60606116dd8261135f565b6116f95760405162461bcd60e51b8152600401610634906124ff565b60006117036116c0565b90506000815111611723576040518060200160405280600081525061174e565b8061172d84611993565b60405160200161173e929190611f54565b6040516020818303038152906040525b9392505050565b6001600160a01b03821661177b5760405162461bcd60e51b8152600401610634906123af565b6117848161135f565b156117a15760405162461bcd60e51b81526004016106349061213c565b6117ad600083836106ec565b6001600160a01b03821660009081526003602052604081208054600192906117d6908490612646565b909155505060008181526002602052604080822080546001600160a01b0319166001600160a01b03861690811790915590518392907fddf252ad1be2c89b69c2b068fc378daa952ba7f163c4a11628f55a4df523b3ef908290a45050565b61183d8261135f565b6118595760405162461bcd60e51b815260040161063490612361565b600082815260066020908152604090912082516106ec92840190611ab4565b600061188c846001600160a01b0316611aae565b1561198857836001600160a01b031663150b7a026118a861137c565b8786866040518563ffffffff1660e01b81526004016118ca9493929190611fb1565b602060405180830381600087803b1580156118e457600080fd5b505af1925050508015611914575060408051601f3d908101601f1916820190925261191191810190611e29565b60015b61196e573d808015611942576040519150601f19603f3d011682016040523d82523d6000602084013e611947565b606091505b5080516119665760405162461bcd60e51b8152600401610634906120a4565b805181602001fd5b6001600160e01b031916630a85bd0160e11b149050610c06565b506001949350505050565b6060816119b857506040805180820190915260018152600360fc1b6020820152610576565b8160005b81156119e257806119cc81612707565b91506119db9050600a8361265e565b91506119bc565b60008167ffffffffffffffff811115611a0b57634e487b7160e01b600052604160045260246000fd5b6040519080825280601f01601f191660200182016040528015611a35576020820181803683370190505b5090505b8415610c0657611a4a600183612672565b9150611a57600a86612722565b611a62906030612646565b60f81b818381518110611a8557634e487b7160e01b600052603260045260246000fd5b60200101906001600160f81b031916908160001a905350611aa7600a8661265e565b9450611a39565b3b151590565b828054611ac0906126cc565b90600052602060002090601f016020900481019282611ae25760008555611b28565b82601f10611afb57805160ff1916838001178555611b28565b82800160010185558215611b28579182015b82811115611b28578251825591602001919060010190611b0d565b50611b34929150611bef565b5090565b508054611b44906126cc565b6000825580601f10611b56575061119e565b601f01602090049060005260206000209081019061119e9190611bef565b828054611b80906126cc565b90600052602060002090601f016020900481019282611ba25760008555611b28565b82601f10611bb35780548555611b28565b82800160010185558215611b2857600052602060002091601f016020900482015b82811115611b28578254825591600101919060010190611bd4565b5b80821115611b345760008155600101611bf0565b600067ffffffffffffffff80841115611c1f57611c1f612762565b604051601f8501601f191681016020018281118282101715611c4357611c43612762565b604052848152915081838501861015611c5b57600080fd5b8484602083013760006020868301015250509392505050565b80356001600160a01b038116811461057657600080fd5b600082601f830112611c9b578081fd5b61174e83833560208501611c04565b600060208284031215611cbb578081fd5b61174e82611c74565b60008060408385031215611cd6578081fd5b611cdf83611c74565b9150611ced60208401611c74565b90509250929050565b600080600060608486031215611d0a578081fd5b611d1384611c74565b9250611d2160208501611c74565b9150604084013590509250925092565b60008060008060808587031215611d46578081fd5b611d4f85611c74565b9350611d5d60208601611c74565b925060408501359150606085013567ffffffffffffffff811115611d7f578182fd5b8501601f81018713611d8f578182fd5b611d9e87823560208401611c04565b91505092959194509250565b60008060408385031215611dbc578182fd5b611dc583611c74565b915060208301358015158114611dd9578182fd5b809150509250929050565b60008060408385031215611df6578182fd5b611dff83611c74565b946020939093013593505050565b600060208284031215611e1e578081fd5b813561174e81612778565b600060208284031215611e3a578081fd5b815161174e81612778565b600060208284031215611e56578081fd5b813567ffffffffffffffff811115611e6c578182fd5b610c0684828501611c8b565b60008060408385031215611e8a578182fd5b823567ffffffffffffffff811115611ea0578283fd5b611eac85828601611c8b565b925050611ced60208401611c74565b600080600060608486031215611ecf578283fd5b833567ffffffffffffffff811115611ee5578384fd5b611ef186828701611c8b565b93505060208401359150611f0760408501611c74565b90509250925092565b600060208284031215611f21578081fd5b5035919050565b60008151808452611f40816020860160208601612689565b601f01601f19169290920160200192915050565b60008351611f66818460208801612689565b835190830190611f7a818360208801612689565b01949350505050565b6001600160a01b0391909116815260200190565b6001600160a01b0392831681529116602082015260400190565b6001600160a01b0385811682528416602082015260408101839052608060608201819052600090611fe490830184611f28565b9695505050505050565b60006040820160408352808551808352606085019150602092506060838202860101838801855b8381101561204357605f19888403018552612031838351611f28565b94860194925090850190600101612015565b505085810384870152865180825290840192509050858301845b828110156120795781518452928401929084019060010161205d565b5091979650505050505050565b901515815260200190565b60006020825261174e6020830184611f28565b60208082526032908201527f4552433732313a207472616e7366657220746f206e6f6e20455243373231526560408201527131b2b4bb32b91034b6b83632b6b2b73a32b960711b606082015260800190565b60208082526026908201527f4f776e61626c653a206e6577206f776e657220697320746865207a65726f206160408201526564647265737360d01b606082015260800190565b6020808252601c908201527f4552433732313a20746f6b656e20616c7265616479206d696e74656400000000604082015260600190565b60208082526019908201527f596f7520636f756c64206f6e6c79206d696e7420312063757000000000000000604082015260600190565b60208082526024908201527f4552433732313a207472616e7366657220746f20746865207a65726f206164646040820152637265737360e01b606082015260800190565b60208082526019908201527f4552433732313a20617070726f766520746f2063616c6c657200000000000000604082015260600190565b6020808252602c908201527f4552433732313a206f70657261746f7220717565727920666f72206e6f6e657860408201526b34b9ba32b73a103a37b5b2b760a11b606082015260800190565b60208082526038908201527f4552433732313a20617070726f76652063616c6c6572206973206e6f74206f7760408201527f6e6572206e6f7220617070726f76656420666f7220616c6c0000000000000000606082015260800190565b6020808252602a908201527f4552433732313a2062616c616e636520717565727920666f7220746865207a65604082015269726f206164647265737360b01b606082015260800190565b60208082526029908201527f4552433732313a206f776e657220717565727920666f72206e6f6e657869737460408201526832b73a103a37b5b2b760b91b606082015260800190565b6020808252602e908201527f45524337323155524953746f726167653a2055524920736574206f66206e6f6e60408201526d32bc34b9ba32b73a103a37b5b2b760911b606082015260800190565b6020808252818101527f4552433732313a206d696e7420746f20746865207a65726f2061646472657373604082015260600190565b60208082526031908201527f45524337323155524953746f726167653a2055524920717565727920666f72206040820152703737b732bc34b9ba32b73a103a37b5b2b760791b606082015260800190565b6020808252602c908201527f4552433732313a20617070726f76656420717565727920666f72206e6f6e657860408201526b34b9ba32b73a103a37b5b2b760a11b606082015260800190565b6020808252818101527f4f776e61626c653a2063616c6c6572206973206e6f7420746865206f776e6572604082015260600190565b60208082526029908201527f4552433732313a207472616e73666572206f6620746f6b656e2074686174206960408201526839903737ba1037bbb760b91b606082015260800190565b6020808252602f908201527f4552433732314d657461646174613a2055524920717565727920666f72206e6f60408201526e3732bc34b9ba32b73a103a37b5b2b760891b606082015260800190565b60208082526021908201527f4552433732313a20617070726f76616c20746f2063757272656e74206f776e656040820152603960f91b606082015260800190565b60208082526031908201527f4552433732313a207472616e736665722063616c6c6572206973206e6f74206f6040820152701ddb995c881b9bdc88185c1c1c9bdd9959607a1b606082015260800190565b6020808252603d908201527f596f75722063686f73656e20656c656d656e74206d757374206265206c61726760408201527f6572207468616e207468652073697a65206f6620746865206172726179000000606082015260800190565b90815260200190565b6000821982111561265957612659612736565b500190565b60008261266d5761266d61274c565b500490565b60008282101561268457612684612736565b500390565b60005b838110156126a457818101518382015260200161268c565b83811115610ae75750506000910152565b6000816126c4576126c4612736565b506000190190565b6002810460018216806126e057607f821691505b6020821081141561270157634e487b7160e01b600052602260045260246000fd5b50919050565b600060001982141561271b5761271b612736565b5060010190565b6000826127315761273161274c565b500690565b634e487b7160e01b600052601160045260246000fd5b634e487b7160e01b600052601260045260246000fd5b634e487b7160e01b600052604160045260246000fd5b6001600160e01b03198116811461119e57600080fdfea264697066735822122036f380aef9b1fc2af1d3b8e71ca9cb2038d3a19dcd190cd1e2c7616f201cae7664736f6c63430008000033",
  "immutableReferences": {},
  "source": "// SPDX-License-Identifier: MIT\r\npragma solidity ^0.8;\r\n\r\nimport \"@openzeppelin/contracts/token/ERC721/extensions/ERC721URIStorage.sol\";\r\nimport \"@openzeppelin/contracts/access/Ownable.sol\";\r\n\r\n\r\n    contract ThrowIn is ERC721URIStorage, Ownable {\r\n        \r\n        constructor() ERC721 (\"WorldCup\", \"WdC\"){\r\n        }\r\n\r\n        event cupMinted(address mint);\r\n        event participantAdd(address organizer, address participant);\r\n        event winnersAdd(address organizer, address winners);\r\n\r\n\r\n        struct Winners {\r\n            string team;\r\n            uint year;\r\n            address wallet;\r\n            uint numberOfVictory;\r\n        }\r\n\r\n\r\n        struct Participants {\r\n            uint nbActiveParticipant;\r\n            string team;\r\n            address wallet;\r\n        }\r\n\r\n\r\n        Winners[] internal winners;\r\n        Participants[] internal participants;\r\n\r\n        mapping(address=>Winners) internal win;\r\n        mapping(address=>Participants) internal particip;\r\n\r\n\r\n        uint numberMint;\r\n        uint numberOfParticipant;\r\n\r\n        function mintCup (string memory tokenURI) public onlyOwner returns (uint256){\r\n\r\n            require(numberMint == 0,\"You could only mint 1 cup\" );\r\n\r\n            numberMint ++;\r\n\r\n             _mint(msg.sender, numberMint);\r\n            _setTokenURI(numberMint, tokenURI);\r\n \r\n            emit cupMinted(msg.sender);\r\n\r\n            return numberMint;\r\n        }\r\n\r\n        function addParticipant(string memory team, address walletTeam) public onlyOwner {\r\n\r\n            numberOfParticipant++;\r\n\r\n            particip[walletTeam].nbActiveParticipant = numberOfParticipant;\r\n            particip[walletTeam].team = team;\r\n            particip[walletTeam].wallet = walletTeam;\r\n\r\n            Participants memory newParticipant = Participants(particip[walletTeam].nbActiveParticipant, team, walletTeam);\r\n            participants.push(newParticipant);\r\n\r\n            emit participantAdd(msg.sender, walletTeam);\r\n        }\r\n\r\n\r\n        function addWinners(string memory team, uint year, address walletTeam) public onlyOwner {\r\n\r\n            win[walletTeam].wallet = walletTeam;\r\n            win[walletTeam].team = team;\r\n            win[walletTeam].numberOfVictory += 1;\r\n\r\n            Winners memory newWinners = Winners(team, year, walletTeam, win[walletTeam].numberOfVictory);\r\n            winners.push(newWinners);\r\n\r\n            emit winnersAdd(msg.sender, walletTeam);\r\n        }\r\n\r\n        function removeAllParticipant() public onlyOwner {\r\n\r\n            uint len = participants.length;\r\n\r\n            for(uint i; i < len; i++){\r\n                participants.pop();\r\n            }\r\n\r\n            numberOfParticipant = 0;\r\n\r\n        }\r\n\r\n        function removeThisParticipant(uint element) public onlyOwner{\r\n            require(element < participants.length, \"Your chosen element must be larger than the size of the array\");\r\n\r\n            element--;\r\n\r\n            for ( uint i = element; i < participants.length-1; i++) {\r\n                participants[i] = participants[i+1];\r\n                participants[i].nbActiveParticipant--;\r\n            }\r\n\r\n            numberOfParticipant--;\r\n\r\n            participants.pop();         \r\n\r\n        }\r\n\r\n        function getAllWinners() view public returns(string[] memory, uint[] memory){\r\n\r\n            string[] memory winnersString = new string[](winners.length);\r\n            uint[] memory yearOfVictory = new uint[](winners.length);\r\n\r\n            for(uint i = 0; i < winners.length; i++) {\r\n                winnersString[i] = winners[i].team;\r\n                yearOfVictory[i] = winners[i].year;\r\n            }\r\n\r\n            return (winnersString, yearOfVictory);\r\n        }\r\n\r\n\r\n        function getAllParticipant() view public returns(string[] memory, uint[] memory){\r\n            \r\n            string[] memory participantString = new string[](participants.length);\r\n            uint[] memory numberParticipant = new uint[](participants.length);\r\n\r\n            for(uint i = 0; i < participants.length; i++) {\r\n                participantString[i] = participants[i].team;\r\n                numberParticipant[i] = participants[i].nbActiveParticipant;\r\n            }\r\n\r\n            return (participantString, numberParticipant);\r\n        }\r\n\r\n    }\r\n",
  "sourcePath": "C:\\DEV\\ETH\\Alyra\\MedalVerse\\MedalVerse-Front\\contracts\\NFT\\ThrowIn.sol",
  "compiler": {
    "name": "solc",
    "version": "0.8.0+commit.c7dfd78e.Emscripten.clang"
  },
  "schemaVersion": "3.4.4",
  "updatedAt": "2021-12-22T11:49:03.965Z",
  "devdoc": {
    "kind": "dev",
    "methods": {
      "approve(address,uint256)": {
        "details": "See {IERC721-approve}."
      },
      "balanceOf(address)": {
        "details": "See {IERC721-balanceOf}."
      },
      "getApproved(uint256)": {
        "details": "See {IERC721-getApproved}."
      },
      "isApprovedForAll(address,address)": {
        "details": "See {IERC721-isApprovedForAll}."
      },
      "name()": {
        "details": "See {IERC721Metadata-name}."
      },
      "owner()": {
        "details": "Returns the address of the current owner."
      },
      "ownerOf(uint256)": {
        "details": "See {IERC721-ownerOf}."
      },
      "renounceOwnership()": {
        "details": "Leaves the contract without owner. It will not be possible to call `onlyOwner` functions anymore. Can only be called by the current owner. NOTE: Renouncing ownership will leave the contract without an owner, thereby removing any functionality that is only available to the owner."
      },
      "safeTransferFrom(address,address,uint256)": {
        "details": "See {IERC721-safeTransferFrom}."
      },
      "safeTransferFrom(address,address,uint256,bytes)": {
        "details": "See {IERC721-safeTransferFrom}."
      },
      "setApprovalForAll(address,bool)": {
        "details": "See {IERC721-setApprovalForAll}."
      },
      "supportsInterface(bytes4)": {
        "details": "See {IERC165-supportsInterface}."
      },
      "symbol()": {
        "details": "See {IERC721Metadata-symbol}."
      },
      "tokenURI(uint256)": {
        "details": "See {IERC721Metadata-tokenURI}."
      },
      "transferFrom(address,address,uint256)": {
        "details": "See {IERC721-transferFrom}."
      },
      "transferOwnership(address)": {
        "details": "Transfers ownership of the contract to a new account (`newOwner`). Can only be called by the current owner."
      }
    },
    "version": 1
  },
  "userdoc": {
    "kind": "user",
    "methods": {},
    "version": 1
  }
}