{
  "contractName": "ThrowIn",
  "abi": [
    {
      "inputs": [
        {
          "internalType": "string",
          "name": "organization",
          "type": "string"
        },
        {
          "internalType": "address",
          "name": "addressNFT_Medal",
          "type": "address"
        },
        {
          "internalType": "string",
          "name": "name",
          "type": "string"
        },
        {
          "internalType": "string",
          "name": "symbol",
          "type": "string"
        }
      ],
      "stateMutability": "nonpayable",
      "type": "constructor"
    },
    {
      "anonymous": false,
      "inputs": [
        {
          "indexed": true,
          "internalType": "address",
          "name": "owner",
          "type": "address"
        },
        {
          "indexed": true,
          "internalType": "address",
          "name": "approved",
          "type": "address"
        },
        {
          "indexed": true,
          "internalType": "uint256",
          "name": "tokenId",
          "type": "uint256"
        }
      ],
      "name": "Approval",
      "type": "event"
    },
    {
      "anonymous": false,
      "inputs": [
        {
          "indexed": true,
          "internalType": "address",
          "name": "owner",
          "type": "address"
        },
        {
          "indexed": true,
          "internalType": "address",
          "name": "operator",
          "type": "address"
        },
        {
          "indexed": false,
          "internalType": "bool",
          "name": "approved",
          "type": "bool"
        }
      ],
      "name": "ApprovalForAll",
      "type": "event"
    },
    {
      "anonymous": false,
      "inputs": [
        {
          "indexed": true,
          "internalType": "address",
          "name": "previousOwner",
          "type": "address"
        },
        {
          "indexed": true,
          "internalType": "address",
          "name": "newOwner",
          "type": "address"
        }
      ],
      "name": "OwnershipTransferred",
      "type": "event"
    },
    {
      "anonymous": false,
      "inputs": [
        {
          "indexed": true,
          "internalType": "address",
          "name": "from",
          "type": "address"
        },
        {
          "indexed": true,
          "internalType": "address",
          "name": "to",
          "type": "address"
        },
        {
          "indexed": true,
          "internalType": "uint256",
          "name": "tokenId",
          "type": "uint256"
        }
      ],
      "name": "Transfer",
      "type": "event"
    },
    {
      "anonymous": false,
      "inputs": [
        {
          "indexed": false,
          "internalType": "address",
          "name": "mint",
          "type": "address"
        }
      ],
      "name": "throwInCupMinted",
      "type": "event"
    },
    {
      "anonymous": false,
      "inputs": [
        {
          "indexed": false,
          "internalType": "bool",
          "name": "check",
          "type": "bool"
        }
      ],
      "name": "throwInPauseRemoved",
      "type": "event"
    },
    {
      "anonymous": false,
      "inputs": [
        {
          "indexed": false,
          "internalType": "bool",
          "name": "check",
          "type": "bool"
        }
      ],
      "name": "throwInSetPause",
      "type": "event"
    },
    {
      "anonymous": false,
      "inputs": [
        {
          "indexed": false,
          "internalType": "uint256",
          "name": "whatYear",
          "type": "uint256"
        }
      ],
      "name": "throwInSetYear",
      "type": "event"
    },
    {
      "anonymous": false,
      "inputs": [
        {
          "indexed": false,
          "internalType": "address",
          "name": "caller",
          "type": "address"
        },
        {
          "indexed": false,
          "internalType": "address",
          "name": "recipient",
          "type": "address"
        },
        {
          "indexed": false,
          "internalType": "uint256",
          "name": "id",
          "type": "uint256"
        }
      ],
      "name": "throwInTranserWithoutPermission",
      "type": "event"
    },
    {
      "anonymous": false,
      "inputs": [
        {
          "indexed": false,
          "internalType": "address",
          "name": "organizer",
          "type": "address"
        },
        {
          "indexed": false,
          "internalType": "address",
          "name": "winners",
          "type": "address"
        }
      ],
      "name": "throwInWinnersAdd",
      "type": "event"
    },
    {
      "inputs": [
        {
          "internalType": "address",
          "name": "to",
          "type": "address"
        },
        {
          "internalType": "uint256",
          "name": "tokenId",
          "type": "uint256"
        }
      ],
      "name": "approve",
      "outputs": [],
      "stateMutability": "nonpayable",
      "type": "function"
    },
    {
      "inputs": [
        {
          "internalType": "address",
          "name": "owner",
          "type": "address"
        }
      ],
      "name": "balanceOf",
      "outputs": [
        {
          "internalType": "uint256",
          "name": "",
          "type": "uint256"
        }
      ],
      "stateMutability": "view",
      "type": "function",
      "constant": true
    },
    {
      "inputs": [
        {
          "internalType": "uint256",
          "name": "tokenId",
          "type": "uint256"
        }
      ],
      "name": "getApproved",
      "outputs": [
        {
          "internalType": "address",
          "name": "",
          "type": "address"
        }
      ],
      "stateMutability": "view",
      "type": "function",
      "constant": true
    },
    {
      "inputs": [
        {
          "internalType": "address",
          "name": "owner",
          "type": "address"
        },
        {
          "internalType": "address",
          "name": "operator",
          "type": "address"
        }
      ],
      "name": "isApprovedForAll",
      "outputs": [
        {
          "internalType": "bool",
          "name": "",
          "type": "bool"
        }
      ],
      "stateMutability": "view",
      "type": "function",
      "constant": true
    },
    {
      "inputs": [],
      "name": "name",
      "outputs": [
        {
          "internalType": "string",
          "name": "",
          "type": "string"
        }
      ],
      "stateMutability": "view",
      "type": "function",
      "constant": true
    },
    {
      "inputs": [],
      "name": "owner",
      "outputs": [
        {
          "internalType": "address",
          "name": "",
          "type": "address"
        }
      ],
      "stateMutability": "view",
      "type": "function",
      "constant": true
    },
    {
      "inputs": [
        {
          "internalType": "uint256",
          "name": "tokenId",
          "type": "uint256"
        }
      ],
      "name": "ownerOf",
      "outputs": [
        {
          "internalType": "address",
          "name": "",
          "type": "address"
        }
      ],
      "stateMutability": "view",
      "type": "function",
      "constant": true
    },
    {
      "inputs": [],
      "name": "renounceOwnership",
      "outputs": [],
      "stateMutability": "nonpayable",
      "type": "function"
    },
    {
      "inputs": [
        {
          "internalType": "address",
          "name": "from",
          "type": "address"
        },
        {
          "internalType": "address",
          "name": "to",
          "type": "address"
        },
        {
          "internalType": "uint256",
          "name": "tokenId",
          "type": "uint256"
        }
      ],
      "name": "safeTransferFrom",
      "outputs": [],
      "stateMutability": "nonpayable",
      "type": "function"
    },
    {
      "inputs": [
        {
          "internalType": "address",
          "name": "from",
          "type": "address"
        },
        {
          "internalType": "address",
          "name": "to",
          "type": "address"
        },
        {
          "internalType": "uint256",
          "name": "tokenId",
          "type": "uint256"
        },
        {
          "internalType": "bytes",
          "name": "_data",
          "type": "bytes"
        }
      ],
      "name": "safeTransferFrom",
      "outputs": [],
      "stateMutability": "nonpayable",
      "type": "function"
    },
    {
      "inputs": [
        {
          "internalType": "address",
          "name": "operator",
          "type": "address"
        },
        {
          "internalType": "bool",
          "name": "approved",
          "type": "bool"
        }
      ],
      "name": "setApprovalForAll",
      "outputs": [],
      "stateMutability": "nonpayable",
      "type": "function"
    },
    {
      "inputs": [
        {
          "internalType": "bytes4",
          "name": "interfaceId",
          "type": "bytes4"
        }
      ],
      "name": "supportsInterface",
      "outputs": [
        {
          "internalType": "bool",
          "name": "",
          "type": "bool"
        }
      ],
      "stateMutability": "view",
      "type": "function",
      "constant": true
    },
    {
      "inputs": [],
      "name": "symbol",
      "outputs": [
        {
          "internalType": "string",
          "name": "",
          "type": "string"
        }
      ],
      "stateMutability": "view",
      "type": "function",
      "constant": true
    },
    {
      "inputs": [
        {
          "internalType": "uint256",
          "name": "tokenId",
          "type": "uint256"
        }
      ],
      "name": "tokenURI",
      "outputs": [
        {
          "internalType": "string",
          "name": "",
          "type": "string"
        }
      ],
      "stateMutability": "view",
      "type": "function",
      "constant": true
    },
    {
      "inputs": [
        {
          "internalType": "address",
          "name": "from",
          "type": "address"
        },
        {
          "internalType": "address",
          "name": "to",
          "type": "address"
        },
        {
          "internalType": "uint256",
          "name": "tokenId",
          "type": "uint256"
        }
      ],
      "name": "transferFrom",
      "outputs": [],
      "stateMutability": "nonpayable",
      "type": "function"
    },
    {
      "inputs": [
        {
          "internalType": "address",
          "name": "newOwner",
          "type": "address"
        }
      ],
      "name": "transferOwnership",
      "outputs": [],
      "stateMutability": "nonpayable",
      "type": "function"
    },
    {
      "inputs": [
        {
          "internalType": "uint256",
          "name": "",
          "type": "uint256"
        }
      ],
      "name": "uriToken",
      "outputs": [
        {
          "internalType": "string",
          "name": "",
          "type": "string"
        }
      ],
      "stateMutability": "view",
      "type": "function",
      "constant": true
    },
    {
      "inputs": [
        {
          "internalType": "uint16",
          "name": "",
          "type": "uint16"
        }
      ],
      "name": "winnerByYearMap",
      "outputs": [
        {
          "internalType": "address",
          "name": "",
          "type": "address"
        }
      ],
      "stateMutability": "view",
      "type": "function",
      "constant": true
    },
    {
      "inputs": [
        {
          "internalType": "address",
          "name": "",
          "type": "address"
        }
      ],
      "name": "winnerMap",
      "outputs": [
        {
          "internalType": "string",
          "name": "playerName",
          "type": "string"
        },
        {
          "internalType": "uint256",
          "name": "numberOfVictory",
          "type": "uint256"
        }
      ],
      "stateMutability": "view",
      "type": "function",
      "constant": true
    },
    {
      "inputs": [
        {
          "internalType": "uint256",
          "name": "",
          "type": "uint256"
        }
      ],
      "name": "winnersArray",
      "outputs": [
        {
          "internalType": "string",
          "name": "playerName",
          "type": "string"
        },
        {
          "internalType": "uint256",
          "name": "numberOfVictory",
          "type": "uint256"
        }
      ],
      "stateMutability": "view",
      "type": "function",
      "constant": true
    },
    {
      "inputs": [
        {
          "internalType": "uint256",
          "name": "",
          "type": "uint256"
        }
      ],
      "name": "yearOfEditionArray",
      "outputs": [
        {
          "internalType": "uint16",
          "name": "",
          "type": "uint16"
        }
      ],
      "stateMutability": "view",
      "type": "function",
      "constant": true
    },
    {
      "inputs": [
        {
          "internalType": "uint256",
          "name": "tokenId",
          "type": "uint256"
        }
      ],
      "name": "mintCup",
      "outputs": [],
      "stateMutability": "nonpayable",
      "type": "function"
    },
    {
      "inputs": [
        {
          "internalType": "address",
          "name": "from",
          "type": "address"
        },
        {
          "internalType": "uint256",
          "name": "tokenId",
          "type": "uint256"
        }
      ],
      "name": "safeTransferFromWithoutPermission",
      "outputs": [],
      "stateMutability": "nonpayable",
      "type": "function"
    },
    {
      "inputs": [],
      "name": "setPaused",
      "outputs": [],
      "stateMutability": "nonpayable",
      "type": "function"
    },
    {
      "inputs": [],
      "name": "removePaused",
      "outputs": [],
      "stateMutability": "nonpayable",
      "type": "function"
    },
    {
      "inputs": [
        {
          "internalType": "uint16",
          "name": "competYear",
          "type": "uint16"
        }
      ],
      "name": "setYear",
      "outputs": [],
      "stateMutability": "nonpayable",
      "type": "function"
    },
    {
      "inputs": [
        {
          "internalType": "string",
          "name": "name",
          "type": "string"
        },
        {
          "internalType": "address",
          "name": "walletPlayer",
          "type": "address"
        }
      ],
      "name": "addWinner",
      "outputs": [],
      "stateMutability": "nonpayable",
      "type": "function"
    },
    {
      "inputs": [],
      "name": "getAllWinners",
      "outputs": [
        {
          "internalType": "string[]",
          "name": "",
          "type": "string[]"
        },
        {
          "internalType": "uint16[]",
          "name": "",
          "type": "uint16[]"
        }
      ],
      "stateMutability": "view",
      "type": "function",
      "constant": true
    },
    {
      "inputs": [
        {
          "internalType": "address",
          "name": "winner",
          "type": "address"
        }
      ],
      "name": "viewAllYearVictoryByAddress",
      "outputs": [
        {
          "internalType": "uint256[]",
          "name": "",
          "type": "uint256[]"
        }
      ],
      "stateMutability": "view",
      "type": "function",
      "constant": true
    },
    {
      "inputs": [
        {
          "internalType": "address",
          "name": "winner",
          "type": "address"
        },
        {
          "internalType": "uint256",
          "name": "number",
          "type": "uint256"
        }
      ],
      "name": "viewThisVictoryByAddress",
      "outputs": [
        {
          "internalType": "uint256",
          "name": "",
          "type": "uint256"
        }
      ],
      "stateMutability": "view",
      "type": "function",
      "constant": true
    },
    {
      "inputs": [],
      "name": "paused",
      "outputs": [
        {
          "internalType": "bool",
          "name": "",
          "type": "bool"
        }
      ],
      "stateMutability": "view",
      "type": "function",
      "constant": true
    },
    {
      "inputs": [],
      "name": "getOrganizationName",
      "outputs": [
        {
          "internalType": "string",
          "name": "",
          "type": "string"
        }
      ],
      "stateMutability": "view",
      "type": "function",
      "constant": true
    },
    {
      "inputs": [],
      "name": "getYearOfCompetition",
      "outputs": [
        {
          "internalType": "uint16",
          "name": "",
          "type": "uint16"
        }
      ],
      "stateMutability": "view",
      "type": "function",
      "constant": true
    }
  ],
  "bytecode": "0x60806040523480156200001157600080fd5b5060405162002eec38038062002eec833981016040819052620000349162000315565b8151829082906200004d9060009060208501906200019b565b508051620000639060019060208401906200019b565b505050620000806200007a6200014560201b60201c565b62000149565b6040516301ffc9a760e01b81526001600160a01b038416906301ffc9a790620000b5906380ac58cd60e01b90600401620003c3565b60206040518083038186803b158015620000ce57600080fd5b505afa158015620000e3573d6000803e3d6000fd5b505050506040513d601f19601f82011682018060405250810190620001099190620002ec565b50600780546001600160a01b0319166001600160a01b03851617905583516200013a90600d9060208701906200019b565b50505050506200042b565b3390565b600680546001600160a01b038381166001600160a01b0319831681179093556040519116919082907f8be0079c531659141344cd1fd0a4f28419497f9722a3daafe3b4186f6b6457e090600090a35050565b828054620001a990620003d8565b90600052602060002090601f016020900481019282620001cd576000855562000218565b82601f10620001e857805160ff191683800117855562000218565b8280016001018555821562000218579182015b8281111562000218578251825591602001919060010190620001fb565b50620002269291506200022a565b5090565b5b808211156200022657600081556001016200022b565b600082601f83011262000252578081fd5b81516001600160401b03808211156200026f576200026f62000415565b6040516020601f8401601f191682018101838111838210171562000297576200029762000415565b6040528382528584018101871015620002ae578485fd5b8492505b83831015620002d15785830181015182840182015291820191620002b2565b83831115620002e257848185840101525b5095945050505050565b600060208284031215620002fe578081fd5b815180151581146200030e578182fd5b9392505050565b600080600080608085870312156200032b578283fd5b84516001600160401b038082111562000342578485fd5b620003508883890162000241565b602088015190965091506001600160a01b03821682146200036f578485fd5b60408701519194508082111562000384578384fd5b620003928883890162000241565b93506060870151915080821115620003a8578283fd5b50620003b78782880162000241565b91505092959194509250565b6001600160e01b031991909116815260200190565b600281046001821680620003ed57607f821691505b602082108114156200040f57634e487b7160e01b600052602260045260246000fd5b50919050565b634e487b7160e01b600052604160045260246000fd5b612ab1806200043b6000396000f3fe608060405234801561001057600080fd5b50600436106101fb5760003560e01c806370a082311161011a578063b88d4fde116100ad578063dc6b86271161007c578063dc6b862714610418578063e83c236e1461042e578063e985e9c514610441578063f2fde38b14610454578063f57d448114610467576101fb565b8063b88d4fde146103d7578063c87b56dd146103ea578063d2ea30e2146103fd578063d522b0f014610410576101fb565b80639aa0e1a7116100e95780639aa0e1a714610394578063a13ab47f1461039c578063a22cb465146103bc578063a6e9f4ef146103cf576101fb565b806370a0823114610369578063715018a61461037c5780638da5cb5b1461038457806395d89b411461038c576101fb565b80633bcb10e2116101925780636352211e116101615780636352211e1461030257806364b72c67146103155780636dfe9e10146103285780636e5ab67114610348576101fb565b80633bcb10e2146102b457806342842e0e146102d45780635943a7ee146102e75780635c975abb146102fa576101fb565b80630e2ff75b116101ce5780630e2ff75b1461027357806323b872dd146102865780633596a30a1461029957806337a66d85146102ac576101fb565b806301ffc9a71461020057806306fdde0314610229578063081812fc1461023e578063095ea7b31461025e575b600080fd5b61021361020e366004612001565b61047a565b6040516102209190612306565b60405180910390f35b6102316104c2565b6040516102209190612311565b61025161024c366004612124565b610554565b6040516102209190612197565b61027161026c366004611fd8565b6105a0565b005b610271610281366004612124565b610638565b610271610294366004611eea565b6107de565b6102516102a7366004612102565b610816565b610271610831565b6102c76102c2366004612124565b6108ec565b60405161022091906128e6565b6102716102e2366004611eea565b610924565b6102716102f53660046120ac565b61093f565b610213610c9a565b610251610310366004612124565b610ca9565b610231610323366004612124565b610cde565b61033b610336366004611fd8565b610d78565b60405161022091906128f5565b61035b610356366004611e9e565b610df0565b604051610220929190612324565b61033b610377366004611e9e565b610e94565b610271610ed8565b610251610f23565b610231610f32565b610271610f41565b6103af6103aa366004611e9e565b610ff4565b60405161022091906122c2565b6102716103ca366004611f9e565b61108c565b6102c76110a2565b6102716103e5366004611f25565b6110ac565b6102316103f8366004612124565b6110eb565b61027161040b366004612102565b61116e565b610231611222565b610420611231565b604051610220929190612226565b61035b61043c366004612124565b611478565b61021361044f366004611eb8565b6114ab565b610271610462366004611e9e565b6114d9565b610271610475366004611fd8565b611547565b60006001600160e01b031982166380ac58cd60e01b14806104ab57506001600160e01b03198216635b5e139f60e01b145b806104ba57506104ba8261160d565b90505b919050565b6060600080546104d1906129bf565b80601f01602080910402602001604051908101604052809291908181526020018280546104fd906129bf565b801561054a5780601f1061051f5761010080835404028352916020019161054a565b820191906000526020600020905b81548152906001019060200180831161052d57829003601f168201915b5050505050905090565b600061055f82611626565b6105845760405162461bcd60e51b815260040161057b906126d3565b60405180910390fd5b506000908152600460205260409020546001600160a01b031690565b60006105ab82610ca9565b9050806001600160a01b0316836001600160a01b031614156105df5760405162461bcd60e51b815260040161057b90612854565b806001600160a01b03166105f1611643565b6001600160a01b0316148061060d575061060d8161044f611643565b6106295760405162461bcd60e51b815260040161057b906125ae565b6106338383611647565b505050565b610640611643565b6001600160a01b0316610651610f23565b6001600160a01b0316146106775760405162461bcd60e51b815260040161057b9061271f565b60105462010000900460ff16156106a05760405162461bcd60e51b815260040161057b90612584565b600f54156106c05760405162461bcd60e51b815260040161057b906127c4565b60075460405163c87b56dd60e01b81526001600160a01b039091169063c87b56dd906106f09084906004016128f5565b60006040518083038186803b15801561070857600080fd5b505afa15801561071c573d6000803e3d6000fd5b505050506040513d6000823e601f3d908101601f191682016040526107449190810190612039565b805161075891600e91602090910190611cfb565b50600f8054906000610769836129f4565b9091555050600f546000908152600b60205260409020600e805461078c906129bf565b610797929190611d7f565b507f9795b242c7263ba1fea4b87d4ba6b55f954321c50f7bdf94eda10d42d4951bcc336040516107c79190612197565b60405180910390a16107db33600f546116b5565b50565b6107ef6107e9611643565b82611794565b61080b5760405162461bcd60e51b815260040161057b90612895565b610633838383611819565b600c602052600090815260409020546001600160a01b031681565b610839611643565b6001600160a01b031661084a610f23565b6001600160a01b0316146108705760405162461bcd60e51b815260040161057b9061271f565b60105462010000900460ff16156108995760405162461bcd60e51b815260040161057b90612584565b6010805462ff0000191662010000908117918290556040517fdc1231f28b561688938154386beeb188a694c3548b1524126b73baf2e9e68996926108e292900460ff1690612306565b60405180910390a1565b600981815481106108fc57600080fd5b9060005260206000209060109182820401919006600202915054906101000a900461ffff1681565b610633838383604051806020016040528060008152506110ac565b610947611643565b6001600160a01b0316610958610f23565b6001600160a01b03161461097e5760405162461bcd60e51b815260040161057b9061271f565b806001600160a01b0381166109a55760405162461bcd60e51b815260040161057b90612512565b60105462010000900460ff16156109ce5760405162461bcd60e51b815260040161057b90612584565b60105461ffff166109f15760405162461bcd60e51b815260040161057b90612754565b6001600160a01b0382166000908152600a602090815260409091208451610a1a92860190611cfb565b506001600160a01b0382166000818152600a60209081526040822060105460018083018054808301825590865293852061ffff909216919093015592825260029092018054909190610a6d908490612950565b90915550506010805460098054600181019091559182047f6e1540171b6c0c960b71a7020d9f60077f6af931a8bbf590da0223dacf75c7af0180546002600f909416939093026101000a61ffff9283168102920219909216179055604080516060810182526001600160a01b0384166000908152600a602052919091208054600892918291610afb906129bf565b80601f0160208091040260200160405190810160405280929190818152602001828054610b27906129bf565b8015610b745780601f10610b4957610100808354040283529160200191610b74565b820191906000526020600020905b815481529060010190602001808311610b5757829003601f168201915b50505091835250506001600160a01b0385166000908152600a60209081526040918290206001018054835181840281018401909452808452938201939091830182828015610be157602002820191906000526020600020905b815481526020019060010190808311610bcd575b50505091835250506001600160a01b0385166000908152600a6020908152604082206002015492810192909252835460018101855593815281902082518051939460030290910192610c369284920190611cfb565b506020828101518051610c4f9260018501920190611dfa565b506040820151816002015550507f7f0e454fbc1ef072564917151108073b8a4ace76b010b64172f2e4b83f1b4b723383604051610c8d9291906121ab565b60405180910390a1505050565b60105462010000900460ff1690565b6000818152600260205260408120546001600160a01b0316806104ba5760405162461bcd60e51b815260040161057b90612655565b600b6020526000908152604090208054610cf7906129bf565b80601f0160208091040260200160405190810160405280929190818152602001828054610d23906129bf565b8015610d705780601f10610d4557610100808354040283529160200191610d70565b820191906000526020600020905b815481529060010190602001808311610d5357829003601f168201915b505050505081565b6000826001600160a01b038116610da15760405162461bcd60e51b815260040161057b90612512565b6001600160a01b0384166000908152600a60205260409020600101805484908110610ddc57634e487b7160e01b600052603260045260246000fd5b906000526020600020015491505092915050565b600a60205260009081526040902080548190610e0b906129bf565b80601f0160208091040260200160405190810160405280929190818152602001828054610e37906129bf565b8015610e845780601f10610e5957610100808354040283529160200191610e84565b820191906000526020600020905b815481529060010190602001808311610e6757829003601f168201915b5050505050908060020154905082565b60006001600160a01b038216610ebc5760405162461bcd60e51b815260040161057b9061260b565b506001600160a01b031660009081526003602052604090205490565b610ee0611643565b6001600160a01b0316610ef1610f23565b6001600160a01b031614610f175760405162461bcd60e51b815260040161057b9061271f565b610f216000611946565b565b6006546001600160a01b031690565b6060600180546104d1906129bf565b610f49611643565b6001600160a01b0316610f5a610f23565b6001600160a01b031614610f805760405162461bcd60e51b815260040161057b9061271f565b60105462010000900460ff161515600114610fad5760405162461bcd60e51b815260040161057b90612346565b6010805462ff00001916908190556040517facfbe5201ff31602bcf7c6746f566334bc0fedcb6f72ac3bd3ebcb5e84e96c44916108e2916201000090910460ff1690612306565b6060816001600160a01b03811661101d5760405162461bcd60e51b815260040161057b90612512565b6001600160a01b0383166000908152600a60209081526040918290206001018054835181840281018401909452808452909183018282801561107e57602002820191906000526020600020905b81548152602001906001019080831161106a575b505050505091505b50919050565b61109e611097611643565b8383611998565b5050565b60105461ffff1690565b6110bd6110b7611643565b83611794565b6110d95760405162461bcd60e51b815260040161057b90612895565b6110e584848484611a3b565b50505050565b60606110f682611626565b6111125760405162461bcd60e51b815260040161057b90612805565b600061111c611a6e565b9050600081511161113c5760405180602001604052806000815250611167565b8061114684611a80565b604051602001611157929190612168565b6040516020818303038152906040525b9392505050565b611176611643565b6001600160a01b0316611187610f23565b6001600160a01b0316146111ad5760405162461bcd60e51b815260040161057b9061271f565b60105462010000900460ff16156111d65760405162461bcd60e51b815260040161057b90612584565b6010805461ffff191661ffff83161790556040517f855e591c78ec972b4979d7388941b5228a2fb944d985a90ca570f54691602238906112179083906128e6565b60405180910390a150565b6060600d80546104d1906129bf565b606080600060088054905067ffffffffffffffff81111561126257634e487b7160e01b600052604160045260246000fd5b60405190808252806020026020018201604052801561129557816020015b60608152602001906001900390816112805790505b5060095490915060009067ffffffffffffffff8111156112c557634e487b7160e01b600052604160045260246000fd5b6040519080825280602002602001820160405280156112ee578160200160208202803683370190505b50905060005b60085481101561146e576008818154811061131f57634e487b7160e01b600052603260045260246000fd5b9060005260206000209060030201600001805461133b906129bf565b80601f0160208091040260200160405190810160405280929190818152602001828054611367906129bf565b80156113b45780601f10611389576101008083540402835291602001916113b4565b820191906000526020600020905b81548152906001019060200180831161139757829003601f168201915b50505050508382815181106113d957634e487b7160e01b600052603260045260246000fd5b60200260200101819052506009818154811061140557634e487b7160e01b600052603260045260246000fd5b90600052602060002090601091828204019190066002029054906101000a900461ffff1682828151811061144957634e487b7160e01b600052603260045260246000fd5b61ffff9092166020928302919091019091015280611466816129f4565b9150506112f4565b5090925090509091565b6008818154811061148857600080fd5b9060005260206000209060030201600091509050806000018054610e0b906129bf565b6001600160a01b03918216600090815260056020908152604080832093909416825291909152205460ff1690565b6114e1611643565b6001600160a01b03166114f2610f23565b6001600160a01b0316146115185760405162461bcd60e51b815260040161057b9061271f565b6001600160a01b03811661153e5760405162461bcd60e51b815260040161057b906123c6565b6107db81611946565b61154f611643565b6001600160a01b0316611560610f23565b6001600160a01b0316146115865760405162461bcd60e51b815260040161057b9061271f565b60105462010000900460ff1615156001146115b35760405162461bcd60e51b815260040161057b90612346565b6115ce82338360405180602001604052806000815250611a3b565b7fdecc3aa2f78e68b06d1d0e1326e04c0bfaf181938fd1575af95a32dfd62259fb338383604051611601939291906121c5565b60405180910390a15050565b6001600160e01b031981166301ffc9a760e01b14919050565b6000908152600260205260409020546001600160a01b0316151590565b3390565b600081815260046020526040902080546001600160a01b0319166001600160a01b038416908117909155819061167c82610ca9565b6001600160a01b03167f8c5be1e5ebec7d5bd14f71427d1e84f3dd0314c0f7b2291e5b200ac8c7c3b92560405160405180910390a45050565b6001600160a01b0382166116db5760405162461bcd60e51b815260040161057b9061269e565b6116e481611626565b156117015760405162461bcd60e51b815260040161057b9061240c565b61170d60008383611b9b565b6001600160a01b0382166000908152600360205260408120805460019290611736908490612950565b909155505060008181526002602052604080822080546001600160a01b0319166001600160a01b03861690811790915590518392907fddf252ad1be2c89b69c2b068fc378daa952ba7f163c4a11628f55a4df523b3ef908290a45050565b600061179f82611626565b6117bb5760405162461bcd60e51b815260040161057b90612538565b60006117c683610ca9565b9050806001600160a01b0316846001600160a01b031614806118015750836001600160a01b03166117f684610554565b6001600160a01b0316145b80611811575061181181856114ab565b949350505050565b826001600160a01b031661182c82610ca9565b6001600160a01b0316146118525760405162461bcd60e51b815260040161057b9061277b565b6001600160a01b0382166118785760405162461bcd60e51b815260040161057b90612443565b611883838383611b9b565b61188e600082611647565b6001600160a01b03831660009081526003602052604081208054600192906118b790849061297c565b90915550506001600160a01b03821660009081526003602052604081208054600192906118e5908490612950565b909155505060008181526002602052604080822080546001600160a01b0319166001600160a01b0386811691821790925591518493918716917fddf252ad1be2c89b69c2b068fc378daa952ba7f163c4a11628f55a4df523b3ef91a4505050565b600680546001600160a01b038381166001600160a01b0319831681179093556040519116919082907f8be0079c531659141344cd1fd0a4f28419497f9722a3daafe3b4186f6b6457e090600090a35050565b816001600160a01b0316836001600160a01b031614156119ca5760405162461bcd60e51b815260040161057b90612487565b6001600160a01b0383811660008181526005602090815260408083209487168084529490915290819020805460ff1916851515179055517f17307eab39ab6107e8899845ad3d59bd9653f200f220920489ca2b5937696c3190611a2e908590612306565b60405180910390a3505050565b611a46848484611819565b611a5284848484611bda565b6110e55760405162461bcd60e51b815260040161057b90612374565b60408051602081019091526000815290565b606081611aa557506040805180820190915260018152600360fc1b60208201526104bd565b8160005b8115611acf5780611ab9816129f4565b9150611ac89050600a83612968565b9150611aa9565b60008167ffffffffffffffff811115611af857634e487b7160e01b600052604160045260246000fd5b6040519080825280601f01601f191660200182016040528015611b22576020820181803683370190505b5090505b841561181157611b3760018361297c565b9150611b44600a86612a0f565b611b4f906030612950565b60f81b818381518110611b7257634e487b7160e01b600052603260045260246000fd5b60200101906001600160f81b031916908160001a905350611b94600a86612968565b9450611b26565b6000611ba5610f23565b90506001600160a01b0381163314611bcf5760405162461bcd60e51b815260040161057b906124be565b6110e5848484610633565b6000611bee846001600160a01b0316611cf5565b15611cea57836001600160a01b031663150b7a02611c0a611643565b8786866040518563ffffffff1660e01b8152600401611c2c94939291906121e9565b602060405180830381600087803b158015611c4657600080fd5b505af1925050508015611c76575060408051601f3d908101601f19168201909252611c739181019061201d565b60015b611cd0573d808015611ca4576040519150601f19603f3d011682016040523d82523d6000602084013e611ca9565b606091505b508051611cc85760405162461bcd60e51b815260040161057b90612374565b805181602001fd5b6001600160e01b031916630a85bd0160e11b149050611811565b506001949350505050565b3b151590565b828054611d07906129bf565b90600052602060002090601f016020900481019282611d295760008555611d6f565b82601f10611d4257805160ff1916838001178555611d6f565b82800160010185558215611d6f579182015b82811115611d6f578251825591602001919060010190611d54565b50611d7b929150611e34565b5090565b828054611d8b906129bf565b90600052602060002090601f016020900481019282611dad5760008555611d6f565b82601f10611dbe5780548555611d6f565b82800160010185558215611d6f57600052602060002091601f016020900482015b82811115611d6f578254825591600101919060010190611ddf565b828054828255906000526020600020908101928215611d6f5791602002820182811115611d6f578251825591602001919060010190611d54565b5b80821115611d7b5760008155600101611e35565b6000611e5c611e5784612928565b6128fe565b9050828152838383011115611e7057600080fd5b828260208301376000602084830101529392505050565b80356001600160a01b03811681146104bd57600080fd5b600060208284031215611eaf578081fd5b61116782611e87565b60008060408385031215611eca578081fd5b611ed383611e87565b9150611ee160208401611e87565b90509250929050565b600080600060608486031215611efe578081fd5b611f0784611e87565b9250611f1560208501611e87565b9150604084013590509250925092565b60008060008060808587031215611f3a578081fd5b611f4385611e87565b9350611f5160208601611e87565b925060408501359150606085013567ffffffffffffffff811115611f73578182fd5b8501601f81018713611f83578182fd5b611f9287823560208401611e49565b91505092959194509250565b60008060408385031215611fb0578182fd5b611fb983611e87565b915060208301358015158114611fcd578182fd5b809150509250929050565b60008060408385031215611fea578182fd5b611ff383611e87565b946020939093013593505050565b600060208284031215612012578081fd5b813561116781612a65565b60006020828403121561202e578081fd5b815161116781612a65565b60006020828403121561204a578081fd5b815167ffffffffffffffff811115612060578182fd5b8201601f81018413612070578182fd5b805161207e611e5782612928565b818152856020838501011115612092578384fd5b6120a3826020830160208601612993565b95945050505050565b600080604083850312156120be578182fd5b823567ffffffffffffffff8111156120d4578283fd5b8301601f810185136120e4578283fd5b6120f385823560208401611e49565b925050611ee160208401611e87565b600060208284031215612113578081fd5b813561ffff81168114611167578182fd5b600060208284031215612135578081fd5b5035919050565b60008151808452612154816020860160208601612993565b601f01601f19169290920160200192915050565b6000835161217a818460208801612993565b83519083019061218e818360208801612993565b01949350505050565b6001600160a01b0391909116815260200190565b6001600160a01b0392831681529116602082015260400190565b6001600160a01b039384168152919092166020820152604081019190915260600190565b6001600160a01b038581168252841660208201526040810183905260806060820181905260009061221c9083018461213c565b9695505050505050565b60006040820160408352808551808352606085019150602092506060838202860101838801855b8381101561227b57605f1988840301855261226983835161213c565b9486019492509085019060010161224d565b505085810384870152865180825290840192509050858301845b828110156122b557815161ffff1684529284019290840190600101612295565b5091979650505050505050565b6020808252825182820181905260009190848201906040850190845b818110156122fa578351835292840192918401916001016122de565b50909695505050505050565b901515815260200190565b600060208252611167602083018461213c565b600060408252612337604083018561213c565b90508260208301529392505050565b60208082526014908201527314185d5cd8589b194e881b9bdd081c185d5cd95960621b604082015260600190565b60208082526032908201527f4552433732313a207472616e7366657220746f206e6f6e20455243373231526560408201527131b2b4bb32b91034b6b83632b6b2b73a32b960711b606082015260800190565b60208082526026908201527f4f776e61626c653a206e6577206f776e657220697320746865207a65726f206160408201526564647265737360d01b606082015260800190565b6020808252601c908201527f4552433732313a20746f6b656e20616c7265616479206d696e74656400000000604082015260600190565b60208082526024908201527f4552433732313a207472616e7366657220746f20746865207a65726f206164646040820152637265737360e01b606082015260800190565b60208082526019908201527f4552433732313a20617070726f766520746f2063616c6c657200000000000000604082015260600190565b60208082526034908201527f636f6e7472616374206973207061757365643a4f6e6c7920746865206f776e65604082015273391031b0b7103a3930b739b332b9103a37b5b2b760611b606082015260800190565b6020808252600c908201526b5a65726f206164647265737360a01b604082015260600190565b6020808252602c908201527f4552433732313a206f70657261746f7220717565727920666f72206e6f6e657860408201526b34b9ba32b73a103a37b5b2b760a11b606082015260800190565b60208082526010908201526f14185d5cd8589b194e881c185d5cd95960821b604082015260600190565b60208082526038908201527f4552433732313a20617070726f76652063616c6c6572206973206e6f74206f7760408201527f6e6572206e6f7220617070726f76656420666f7220616c6c0000000000000000606082015260800190565b6020808252602a908201527f4552433732313a2062616c616e636520717565727920666f7220746865207a65604082015269726f206164647265737360b01b606082015260800190565b60208082526029908201527f4552433732313a206f776e657220717565727920666f72206e6f6e657869737460408201526832b73a103a37b5b2b760b91b606082015260800190565b6020808252818101527f4552433732313a206d696e7420746f20746865207a65726f2061646472657373604082015260600190565b6020808252602c908201527f4552433732313a20617070726f76656420717565727920666f72206e6f6e657860408201526b34b9ba32b73a103a37b5b2b760a11b606082015260800190565b6020808252818101527f4f776e61626c653a2063616c6c6572206973206e6f7420746865206f776e6572604082015260600190565b6020808252600d908201526c2232b334b7329030903cb2b0b960991b604082015260600190565b60208082526029908201527f4552433732313a207472616e73666572206f6620746f6b656e2074686174206960408201526839903737ba1037bbb760b91b606082015260800190565b60208082526021908201527f4f6e6c79206f6e652073696e676c65206375702063616e206265206d696e74656040820152601960fa1b606082015260800190565b6020808252602f908201527f4552433732314d657461646174613a2055524920717565727920666f72206e6f60408201526e3732bc34b9ba32b73a103a37b5b2b760891b606082015260800190565b60208082526021908201527f4552433732313a20617070726f76616c20746f2063757272656e74206f776e656040820152603960f91b606082015260800190565b60208082526031908201527f4552433732313a207472616e736665722063616c6c6572206973206e6f74206f6040820152701ddb995c881b9bdc88185c1c1c9bdd9959607a1b606082015260800190565b61ffff91909116815260200190565b90815260200190565b60405181810167ffffffffffffffff8111828210171561292057612920612a4f565b604052919050565b600067ffffffffffffffff82111561294257612942612a4f565b50601f01601f191660200190565b6000821982111561296357612963612a23565b500190565b60008261297757612977612a39565b500490565b60008282101561298e5761298e612a23565b500390565b60005b838110156129ae578181015183820152602001612996565b838111156110e55750506000910152565b6002810460018216806129d357607f821691505b6020821081141561108657634e487b7160e01b600052602260045260246000fd5b6000600019821415612a0857612a08612a23565b5060010190565b600082612a1e57612a1e612a39565b500690565b634e487b7160e01b600052601160045260246000fd5b634e487b7160e01b600052601260045260246000fd5b634e487b7160e01b600052604160045260246000fd5b6001600160e01b0319811681146107db57600080fdfea26469706673582212203bb2426e689e310b0a82bc75c51d85fc78299380218c0c40fb9ed6ed295bad2064736f6c63430008000033",
  "immutableReferences": {},
  "source": "// SPDX-License-Identifier: MIT\r\npragma solidity ^0.8;\r\n\r\nimport \"@openzeppelin/contracts/token/ERC721/ERC721.sol\";\r\nimport \"@openzeppelin/contracts/access/Ownable.sol\";\r\n\r\ncontract ThrowIn is ERC721, Ownable {\r\n\tIERC721Metadata NFT_Medal; // Recovering an ERC721 interface\r\n\r\n\tconstructor(\r\n\t\tstring memory organization,\r\n\t\taddress addressNFT_Medal,\r\n\t\tstring memory name,\r\n\t\tstring memory symbol\r\n\t) ERC721(name, symbol) {\r\n\t\tIERC721Metadata(addressNFT_Medal).supportsInterface(\r\n\t\t\ttype(IERC721).interfaceId\r\n\t\t);\r\n\t\tNFT_Medal = IERC721Metadata(addressNFT_Medal);\r\n\t\tnameOfOrganization = organization;\r\n\t\tname = name;\r\n\t\tsymbol = symbol;\r\n\t}\r\n\r\n\t///@dev Structure to describe the winner\r\n\tstruct Winner {\r\n\t\tstring playerName; // Name of winner\r\n\t\tuint256[] year; // All the years of victory\r\n\t\tuint256 numberOfVictory; // Number of victory of player or team\r\n\t}\r\n\r\n\t// Data --------------------------------\r\n\tWinner[] public winnersArray; // Winner structure array\r\n\tuint16[] public yearOfEditionArray; // Stock up on the years where the competition takes place\r\n\r\n\tmapping(address => Winner) public winnerMap; // Associate a winner structure with an address\r\n\tmapping(uint256 => string) public uriToken; // Associate the token id and the uri\r\n\tmapping(uint16 => address) public winnerByYearMap; // Year -> Winners array\r\n\r\n\tstring nameOfOrganization;\r\n\tstring uri;\r\n\tuint256 numberMint;\r\n\tuint16 year;\r\n\tbool pause;\r\n\r\n\t// Modifiers ----------------------------\r\n\t///@dev Check that the address is not zero\r\n\tmodifier isNotNull(address a) virtual {\r\n\t\trequire(a != address(0), \"Zero address\");\r\n\t\t_;\r\n\t}\r\n\r\n\t///@dev Check that the contract is paused\r\n\tmodifier whenPaused() {\r\n\t\trequire(pause == true, \"Pausable: not paused\");\r\n\t\t_;\r\n\t}\r\n\r\n\t///@dev Check that the contract is not paused\r\n\tmodifier whenNotPaused() {\r\n\t\trequire(pause == false, \"Pausable: paused\");\r\n\t\t_;\r\n\t}\r\n\r\n\t// Events ---------------------------------\r\n\tevent throwInCupMinted(address mint);\r\n\tevent throwInWinnersAdd(address organizer, address winners);\r\n\tevent throwInSetPause(bool check);\r\n\tevent throwInPauseRemoved(bool check);\r\n\tevent throwInTranserWithoutPermission(\r\n\t\taddress caller,\r\n\t\taddress recipient,\r\n\t\tuint256 id\r\n\t);\r\n\tevent throwInSetYear(uint256 whatYear);\r\n\r\n\t// Methods -------------------------------\r\n\t///@dev Mint the only possible edition of the NFT Cup\r\n\t///@param tokenId Token id of the NFTA Artist got the Uri\r\n\tfunction mintCup(uint256 tokenId) public onlyOwner whenNotPaused {\r\n\t\trequire(numberMint == 0, \"Only one single cup can be minted\"); // Check if the nft has already been minted\r\n\r\n\t\turi = IERC721Metadata(NFT_Medal).tokenURI(tokenId); // Get the uri of the NFTArtist\r\n\t\tnumberMint++; // increment the number of NFT mint\r\n\t\turiToken[numberMint] = uri; // Set the uri of the mint token\r\n\t\temit throwInCupMinted(msg.sender);\r\n\r\n\t\t_mint(msg.sender, numberMint); // Mint the NFT\r\n\t}\r\n\r\n\t///@dev Ensures that only the owner can move the nft when the contract is paused\r\n\t///@param from NFT owner address\r\n\t///@param to address receiving the NFT\r\n\t///@param tokenId Token ID to transfer\r\n\tfunction _beforeTokenTransfer(\r\n\t\taddress from,\r\n\t\taddress to,\r\n\t\tuint256 tokenId\r\n\t) internal override {\r\n\t\taddress ownerContract = owner();\r\n\r\n\t\tif (ownerContract != msg.sender) {\r\n\t\t\trevert(\"contract is paused:Only the owner can transfer token\");\r\n\t\t}\r\n\r\n\t\tsuper._beforeTokenTransfer(from, to, tokenId);\r\n\t}\r\n\r\n\t///@dev Recovery of NFT without the athlete's consent\r\n\t///@param from NFT owner address\r\n\t///@param tokenId ID to transfer\r\n\tfunction safeTransferFromWithoutPermission(address from, uint256 tokenId)\r\n\t\tpublic\r\n\t\tonlyOwner\r\n\t\twhenPaused\r\n\t{\r\n\t\t_safeTransfer(from, msg.sender, tokenId, \"\");\r\n\r\n\t\temit throwInTranserWithoutPermission(msg.sender, from, tokenId);\r\n\t}\r\n\r\n\t///@dev pause the contract\r\n\tfunction setPaused() public onlyOwner whenNotPaused {\r\n\t\tpause = true;\r\n\r\n\t\temit throwInSetPause(pause);\r\n\t}\r\n\r\n\t///@dev unpause the contract\r\n\tfunction removePaused() public onlyOwner whenPaused {\r\n\t\tpause = false;\r\n\r\n\t\temit throwInPauseRemoved(pause);\r\n\t}\r\n\r\n\tfunction setYear(uint16 competYear) public onlyOwner whenNotPaused {\r\n\t\tyear = competYear;\r\n\r\n\t\temit throwInSetYear(competYear);\r\n\t}\r\n\r\n\t///@dev Add winners to the Winners array and modify its structure associated with this wallet\r\n\t///@param walletPlayer winner's address\r\n\tfunction addWinner(string memory name, address walletPlayer)\r\n\t\tpublic\r\n\t\tonlyOwner\r\n\t\tisNotNull(walletPlayer)\r\n\t\twhenNotPaused\r\n\t{\r\n\t\trequire(year != 0, \"Define a year\");\r\n\r\n\t\t// Define the winner structure\r\n\t\twinnerMap[walletPlayer].playerName = name;\r\n\t\twinnerMap[walletPlayer].year.push(year);\r\n\t\twinnerMap[walletPlayer].numberOfVictory += 1;\r\n\r\n\t\tyearOfEditionArray.push(year);\r\n\r\n\t\twinnersArray.push(\r\n\t\t\tWinner(\r\n\t\t\t\twinnerMap[walletPlayer].playerName,\r\n\t\t\t\twinnerMap[walletPlayer].year,\r\n\t\t\t\twinnerMap[walletPlayer].numberOfVictory\r\n\t\t\t)\r\n\t\t); // Push the structure into the winner array\r\n\r\n\t\temit throwInWinnersAdd(msg.sender, walletPlayer);\r\n\t}\r\n\r\n\t// Methods View-------------------------------\r\n\r\n\t///@return Return all winners by name and assigned number\r\n\tfunction getAllWinners()\r\n\t\tpublic\r\n\t\tview\r\n\t\treturns (string[] memory, uint16[] memory)\r\n\t{\r\n\t\tstring[] memory winnersString = new string[](winnersArray.length); // Instantiate a string array the length of the winners array\r\n\t\tuint16[] memory yearsOfVictory = new uint16[](\r\n\t\t\tyearOfEditionArray.length\r\n\t\t); // Instantiate a uint array the length of the yearOfParticipationArray\r\n\r\n\t\t// Loop that goes through all the name of the winner and copies it as well as the production years of the competition\r\n\t\tfor (uint256 i = 0; i < winnersArray.length; i++) {\r\n\t\t\twinnersString[i] = winnersArray[i].playerName;\r\n\t\t\tyearsOfVictory[i] = yearOfEditionArray[i];\r\n\t\t}\r\n\r\n\t\treturn (winnersString, yearsOfVictory);\r\n\t}\r\n\r\n\t///@return Return the structure of the winner as well as the table of years\r\n\tfunction viewAllYearVictoryByAddress(address winner)\r\n\t\tpublic\r\n\t\tview\r\n\t\tisNotNull(winner)\r\n\t\treturns (uint256[] memory)\r\n\t{\r\n\t\treturn (winnerMap[winner].year);\r\n\t}\r\n\r\n\t///@return returns a chosen year without the victorious years table\r\n\t///@param winner Address of a winner register\r\n\t///@param number Number selected from the list\r\n\tfunction viewThisVictoryByAddress(address winner, uint256 number)\r\n\t\tpublic\r\n\t\tview\r\n\t\tisNotNull(winner)\r\n\t\treturns (uint256)\r\n\t{\r\n\t\treturn (winnerMap[winner].year[number]);\r\n\t}\r\n\r\n\t///@return Returns if the contract is paused or not\r\n\tfunction paused() public view returns (bool) {\r\n\t\treturn pause;\r\n\t}\r\n\r\n\t///@dev Get the org who created the NFT\r\n\t///@return return the organization name\r\n\tfunction getOrganizationName() external view returns (string memory) {\r\n\t\treturn nameOfOrganization;\r\n\t}\r\n\r\n\tfunction getYearOfCompetition() public view returns (uint16) {\r\n\t\treturn year;\r\n\t}\r\n}\r\n",
  "sourcePath": "C:\\DEV\\ETH\\Alyra\\MedalVerse\\MedalVerse-Front\\contracts\\NFT\\ThrowIn.sol",
  "compiler": {
    "name": "solc",
    "version": "0.8.0+commit.c7dfd78e.Emscripten.clang"
  },
  "schemaVersion": "3.4.4",
  "updatedAt": "2022-01-09T21:08:52.309Z",
  "networkType": "ethereum",
  "devdoc": {
    "kind": "dev",
    "methods": {
      "addWinner(string,address)": {
        "details": "Add winners to the Winners array and modify its structure associated with this wallet",
        "params": {
          "walletPlayer": "winner's address"
        }
      },
      "approve(address,uint256)": {
        "details": "See {IERC721-approve}."
      },
      "balanceOf(address)": {
        "details": "See {IERC721-balanceOf}."
      },
      "getAllWinners()": {
        "returns": {
          "_0": "Return all winners by name and assigned number"
        }
      },
      "getApproved(uint256)": {
        "details": "See {IERC721-getApproved}."
      },
      "getOrganizationName()": {
        "details": "Get the org who created the NFT",
        "returns": {
          "_0": "return the organization name"
        }
      },
      "isApprovedForAll(address,address)": {
        "details": "See {IERC721-isApprovedForAll}."
      },
      "mintCup(uint256)": {
        "details": "Mint the only possible edition of the NFT Cup",
        "params": {
          "tokenId": "Token id of the NFTA Artist got the Uri"
        }
      },
      "name()": {
        "details": "See {IERC721Metadata-name}."
      },
      "owner()": {
        "details": "Returns the address of the current owner."
      },
      "ownerOf(uint256)": {
        "details": "See {IERC721-ownerOf}."
      },
      "paused()": {
        "returns": {
          "_0": "Returns if the contract is paused or not"
        }
      },
      "removePaused()": {
        "details": "unpause the contract"
      },
      "renounceOwnership()": {
        "details": "Leaves the contract without owner. It will not be possible to call `onlyOwner` functions anymore. Can only be called by the current owner. NOTE: Renouncing ownership will leave the contract without an owner, thereby removing any functionality that is only available to the owner."
      },
      "safeTransferFrom(address,address,uint256)": {
        "details": "See {IERC721-safeTransferFrom}."
      },
      "safeTransferFrom(address,address,uint256,bytes)": {
        "details": "See {IERC721-safeTransferFrom}."
      },
      "safeTransferFromWithoutPermission(address,uint256)": {
        "details": "Recovery of NFT without the athlete's consent",
        "params": {
          "from": "NFT owner address",
          "tokenId": "ID to transfer"
        }
      },
      "setApprovalForAll(address,bool)": {
        "details": "See {IERC721-setApprovalForAll}."
      },
      "setPaused()": {
        "details": "pause the contract"
      },
      "supportsInterface(bytes4)": {
        "details": "See {IERC165-supportsInterface}."
      },
      "symbol()": {
        "details": "See {IERC721Metadata-symbol}."
      },
      "tokenURI(uint256)": {
        "details": "See {IERC721Metadata-tokenURI}."
      },
      "transferFrom(address,address,uint256)": {
        "details": "See {IERC721-transferFrom}."
      },
      "transferOwnership(address)": {
        "details": "Transfers ownership of the contract to a new account (`newOwner`). Can only be called by the current owner."
      },
      "viewAllYearVictoryByAddress(address)": {
        "returns": {
          "_0": "Return the structure of the winner as well as the table of years"
        }
      },
      "viewThisVictoryByAddress(address,uint256)": {
        "params": {
          "number": "Number selected from the list",
          "winner": "Address of a winner register"
        },
        "returns": {
          "_0": "returns a chosen year without the victorious years table"
        }
      }
    },
    "version": 1
  },
  "userdoc": {
    "kind": "user",
    "methods": {},
    "version": 1
  }
}