{
  "contractName": "ThrowIn",
  "abi": [
    {
      "inputs": [
        {
          "internalType": "string",
          "name": "oragnization",
          "type": "string"
        },
        {
          "internalType": "address",
          "name": "addressNFT_Medal",
          "type": "address"
        },
        {
          "internalType": "string",
          "name": "name",
          "type": "string"
        },
        {
          "internalType": "string",
          "name": "symbol",
          "type": "string"
        }
      ],
      "stateMutability": "nonpayable",
      "type": "constructor"
    },
    {
      "anonymous": false,
      "inputs": [
        {
          "indexed": true,
          "internalType": "address",
          "name": "owner",
          "type": "address"
        },
        {
          "indexed": true,
          "internalType": "address",
          "name": "approved",
          "type": "address"
        },
        {
          "indexed": true,
          "internalType": "uint256",
          "name": "tokenId",
          "type": "uint256"
        }
      ],
      "name": "Approval",
      "type": "event"
    },
    {
      "anonymous": false,
      "inputs": [
        {
          "indexed": true,
          "internalType": "address",
          "name": "owner",
          "type": "address"
        },
        {
          "indexed": true,
          "internalType": "address",
          "name": "operator",
          "type": "address"
        },
        {
          "indexed": false,
          "internalType": "bool",
          "name": "approved",
          "type": "bool"
        }
      ],
      "name": "ApprovalForAll",
      "type": "event"
    },
    {
      "anonymous": false,
      "inputs": [
        {
          "indexed": true,
          "internalType": "address",
          "name": "previousOwner",
          "type": "address"
        },
        {
          "indexed": true,
          "internalType": "address",
          "name": "newOwner",
          "type": "address"
        }
      ],
      "name": "OwnershipTransferred",
      "type": "event"
    },
    {
      "anonymous": false,
      "inputs": [],
      "name": "ThrowInAllParticipantsRemoved",
      "type": "event"
    },
    {
      "anonymous": false,
      "inputs": [
        {
          "indexed": false,
          "internalType": "address",
          "name": "mint",
          "type": "address"
        }
      ],
      "name": "ThrowInCupMinted",
      "type": "event"
    },
    {
      "anonymous": false,
      "inputs": [
        {
          "indexed": false,
          "internalType": "address",
          "name": "organizer",
          "type": "address"
        },
        {
          "indexed": false,
          "internalType": "address",
          "name": "participant",
          "type": "address"
        }
      ],
      "name": "ThrowInParticipantAdd",
      "type": "event"
    },
    {
      "anonymous": false,
      "inputs": [
        {
          "indexed": false,
          "internalType": "enum ThrowIn.statusOfCompetition",
          "name": "previousStatus",
          "type": "uint8"
        },
        {
          "indexed": false,
          "internalType": "enum ThrowIn.statusOfCompetition",
          "name": "newStatus",
          "type": "uint8"
        }
      ],
      "name": "ThrowInStatueChange",
      "type": "event"
    },
    {
      "anonymous": false,
      "inputs": [
        {
          "indexed": false,
          "internalType": "uint256",
          "name": "numberPlayerRemoved",
          "type": "uint256"
        }
      ],
      "name": "ThrowInThisParticipantRemoved",
      "type": "event"
    },
    {
      "anonymous": false,
      "inputs": [
        {
          "indexed": false,
          "internalType": "address",
          "name": "organizer",
          "type": "address"
        },
        {
          "indexed": false,
          "internalType": "address",
          "name": "winners",
          "type": "address"
        }
      ],
      "name": "ThrowInWinnersAdd",
      "type": "event"
    },
    {
      "anonymous": false,
      "inputs": [
        {
          "indexed": true,
          "internalType": "address",
          "name": "from",
          "type": "address"
        },
        {
          "indexed": true,
          "internalType": "address",
          "name": "to",
          "type": "address"
        },
        {
          "indexed": true,
          "internalType": "uint256",
          "name": "tokenId",
          "type": "uint256"
        }
      ],
      "name": "Transfer",
      "type": "event"
    },
    {
      "inputs": [
        {
          "internalType": "address",
          "name": "to",
          "type": "address"
        },
        {
          "internalType": "uint256",
          "name": "tokenId",
          "type": "uint256"
        }
      ],
      "name": "approve",
      "outputs": [],
      "stateMutability": "nonpayable",
      "type": "function"
    },
    {
      "inputs": [
        {
          "internalType": "address",
          "name": "owner",
          "type": "address"
        }
      ],
      "name": "balanceOf",
      "outputs": [
        {
          "internalType": "uint256",
          "name": "",
          "type": "uint256"
        }
      ],
      "stateMutability": "view",
      "type": "function",
      "constant": true
    },
    {
      "inputs": [
        {
          "internalType": "uint256",
          "name": "tokenId",
          "type": "uint256"
        }
      ],
      "name": "getApproved",
      "outputs": [
        {
          "internalType": "address",
          "name": "",
          "type": "address"
        }
      ],
      "stateMutability": "view",
      "type": "function",
      "constant": true
    },
    {
      "inputs": [
        {
          "internalType": "address",
          "name": "owner",
          "type": "address"
        },
        {
          "internalType": "address",
          "name": "operator",
          "type": "address"
        }
      ],
      "name": "isApprovedForAll",
      "outputs": [
        {
          "internalType": "bool",
          "name": "",
          "type": "bool"
        }
      ],
      "stateMutability": "view",
      "type": "function",
      "constant": true
    },
    {
      "inputs": [],
      "name": "name",
      "outputs": [
        {
          "internalType": "string",
          "name": "",
          "type": "string"
        }
      ],
      "stateMutability": "view",
      "type": "function",
      "constant": true
    },
    {
      "inputs": [],
      "name": "owner",
      "outputs": [
        {
          "internalType": "address",
          "name": "",
          "type": "address"
        }
      ],
      "stateMutability": "view",
      "type": "function",
      "constant": true
    },
    {
      "inputs": [
        {
          "internalType": "uint256",
          "name": "tokenId",
          "type": "uint256"
        }
      ],
      "name": "ownerOf",
      "outputs": [
        {
          "internalType": "address",
          "name": "",
          "type": "address"
        }
      ],
      "stateMutability": "view",
      "type": "function",
      "constant": true
    },
    {
      "inputs": [
        {
          "internalType": "uint256",
          "name": "",
          "type": "uint256"
        }
      ],
      "name": "participantArray",
      "outputs": [
        {
          "internalType": "uint256",
          "name": "nbActiveParticipant",
          "type": "uint256"
        },
        {
          "internalType": "string",
          "name": "player",
          "type": "string"
        },
        {
          "internalType": "address",
          "name": "wallet",
          "type": "address"
        }
      ],
      "stateMutability": "view",
      "type": "function",
      "constant": true
    },
    {
      "inputs": [
        {
          "internalType": "address",
          "name": "",
          "type": "address"
        }
      ],
      "name": "participantMap",
      "outputs": [
        {
          "internalType": "uint256",
          "name": "nbActiveParticipant",
          "type": "uint256"
        },
        {
          "internalType": "string",
          "name": "player",
          "type": "string"
        },
        {
          "internalType": "address",
          "name": "wallet",
          "type": "address"
        }
      ],
      "stateMutability": "view",
      "type": "function",
      "constant": true
    },
    {
      "inputs": [],
      "name": "renounceOwnership",
      "outputs": [],
      "stateMutability": "nonpayable",
      "type": "function"
    },
    {
      "inputs": [
        {
          "internalType": "address",
          "name": "from",
          "type": "address"
        },
        {
          "internalType": "address",
          "name": "to",
          "type": "address"
        },
        {
          "internalType": "uint256",
          "name": "tokenId",
          "type": "uint256"
        }
      ],
      "name": "safeTransferFrom",
      "outputs": [],
      "stateMutability": "nonpayable",
      "type": "function"
    },
    {
      "inputs": [
        {
          "internalType": "address",
          "name": "from",
          "type": "address"
        },
        {
          "internalType": "address",
          "name": "to",
          "type": "address"
        },
        {
          "internalType": "uint256",
          "name": "tokenId",
          "type": "uint256"
        },
        {
          "internalType": "bytes",
          "name": "_data",
          "type": "bytes"
        }
      ],
      "name": "safeTransferFrom",
      "outputs": [],
      "stateMutability": "nonpayable",
      "type": "function"
    },
    {
      "inputs": [
        {
          "internalType": "address",
          "name": "operator",
          "type": "address"
        },
        {
          "internalType": "bool",
          "name": "approved",
          "type": "bool"
        }
      ],
      "name": "setApprovalForAll",
      "outputs": [],
      "stateMutability": "nonpayable",
      "type": "function"
    },
    {
      "inputs": [
        {
          "internalType": "bytes4",
          "name": "interfaceId",
          "type": "bytes4"
        }
      ],
      "name": "supportsInterface",
      "outputs": [
        {
          "internalType": "bool",
          "name": "",
          "type": "bool"
        }
      ],
      "stateMutability": "view",
      "type": "function",
      "constant": true
    },
    {
      "inputs": [],
      "name": "symbol",
      "outputs": [
        {
          "internalType": "string",
          "name": "",
          "type": "string"
        }
      ],
      "stateMutability": "view",
      "type": "function",
      "constant": true
    },
    {
      "inputs": [
        {
          "internalType": "uint256",
          "name": "tokenId",
          "type": "uint256"
        }
      ],
      "name": "tokenURI",
      "outputs": [
        {
          "internalType": "string",
          "name": "",
          "type": "string"
        }
      ],
      "stateMutability": "view",
      "type": "function",
      "constant": true
    },
    {
      "inputs": [
        {
          "internalType": "address",
          "name": "from",
          "type": "address"
        },
        {
          "internalType": "address",
          "name": "to",
          "type": "address"
        },
        {
          "internalType": "uint256",
          "name": "tokenId",
          "type": "uint256"
        }
      ],
      "name": "transferFrom",
      "outputs": [],
      "stateMutability": "nonpayable",
      "type": "function"
    },
    {
      "inputs": [
        {
          "internalType": "address",
          "name": "newOwner",
          "type": "address"
        }
      ],
      "name": "transferOwnership",
      "outputs": [],
      "stateMutability": "nonpayable",
      "type": "function"
    },
    {
      "inputs": [
        {
          "internalType": "uint256",
          "name": "",
          "type": "uint256"
        }
      ],
      "name": "uriToken",
      "outputs": [
        {
          "internalType": "string",
          "name": "",
          "type": "string"
        }
      ],
      "stateMutability": "view",
      "type": "function",
      "constant": true
    },
    {
      "inputs": [
        {
          "internalType": "address",
          "name": "",
          "type": "address"
        }
      ],
      "name": "winnerMap",
      "outputs": [
        {
          "internalType": "string",
          "name": "player",
          "type": "string"
        },
        {
          "internalType": "address",
          "name": "wallet",
          "type": "address"
        },
        {
          "internalType": "uint256",
          "name": "numberOfVictory",
          "type": "uint256"
        }
      ],
      "stateMutability": "view",
      "type": "function",
      "constant": true
    },
    {
      "inputs": [
        {
          "internalType": "uint256",
          "name": "",
          "type": "uint256"
        }
      ],
      "name": "yearOfParticipationArray",
      "outputs": [
        {
          "internalType": "uint256",
          "name": "",
          "type": "uint256"
        }
      ],
      "stateMutability": "view",
      "type": "function",
      "constant": true
    },
    {
      "inputs": [
        {
          "internalType": "uint256",
          "name": "tokenId",
          "type": "uint256"
        }
      ],
      "name": "mintCup",
      "outputs": [],
      "stateMutability": "nonpayable",
      "type": "function"
    },
    {
      "inputs": [
        {
          "internalType": "address",
          "name": "from",
          "type": "address"
        },
        {
          "internalType": "uint256",
          "name": "tokenId",
          "type": "uint256"
        }
      ],
      "name": "safeTransferFromOnlyCheater",
      "outputs": [],
      "stateMutability": "nonpayable",
      "type": "function"
    },
    {
      "inputs": [],
      "name": "setPaused",
      "outputs": [],
      "stateMutability": "nonpayable",
      "type": "function"
    },
    {
      "inputs": [],
      "name": "removePaused",
      "outputs": [],
      "stateMutability": "nonpayable",
      "type": "function"
    },
    {
      "inputs": [
        {
          "internalType": "string",
          "name": "player",
          "type": "string"
        },
        {
          "internalType": "address",
          "name": "walletPlayer",
          "type": "address"
        }
      ],
      "name": "addParticipant",
      "outputs": [],
      "stateMutability": "nonpayable",
      "type": "function"
    },
    {
      "inputs": [],
      "name": "changeStatusForNext",
      "outputs": [],
      "stateMutability": "nonpayable",
      "type": "function"
    },
    {
      "inputs": [
        {
          "internalType": "string",
          "name": "player",
          "type": "string"
        },
        {
          "internalType": "address",
          "name": "walletPlayer",
          "type": "address"
        },
        {
          "internalType": "uint256",
          "name": "year",
          "type": "uint256"
        }
      ],
      "name": "addWinner",
      "outputs": [],
      "stateMutability": "nonpayable",
      "type": "function"
    },
    {
      "inputs": [],
      "name": "removeAllParticipants",
      "outputs": [],
      "stateMutability": "nonpayable",
      "type": "function"
    },
    {
      "inputs": [
        {
          "internalType": "uint256",
          "name": "element",
          "type": "uint256"
        }
      ],
      "name": "removeThisParticipant",
      "outputs": [],
      "stateMutability": "nonpayable",
      "type": "function"
    },
    {
      "inputs": [],
      "name": "getAllWinners",
      "outputs": [
        {
          "internalType": "string[]",
          "name": "",
          "type": "string[]"
        },
        {
          "internalType": "uint256[]",
          "name": "",
          "type": "uint256[]"
        }
      ],
      "stateMutability": "view",
      "type": "function",
      "constant": true
    },
    {
      "inputs": [],
      "name": "getAllParticipant",
      "outputs": [
        {
          "internalType": "string[]",
          "name": "",
          "type": "string[]"
        },
        {
          "internalType": "uint256[]",
          "name": "",
          "type": "uint256[]"
        }
      ],
      "stateMutability": "view",
      "type": "function",
      "constant": true
    },
    {
      "inputs": [],
      "name": "getOrganizationOwner",
      "outputs": [
        {
          "internalType": "string",
          "name": "",
          "type": "string"
        }
      ],
      "stateMutability": "view",
      "type": "function",
      "constant": true
    },
    {
      "inputs": [
        {
          "internalType": "address",
          "name": "winner",
          "type": "address"
        }
      ],
      "name": "viewAllYearVictoryByAddress",
      "outputs": [
        {
          "internalType": "uint256[]",
          "name": "",
          "type": "uint256[]"
        }
      ],
      "stateMutability": "view",
      "type": "function",
      "constant": true
    },
    {
      "inputs": [
        {
          "internalType": "address",
          "name": "winner",
          "type": "address"
        },
        {
          "internalType": "uint256",
          "name": "number",
          "type": "uint256"
        }
      ],
      "name": "viewThisVictoryByAddress",
      "outputs": [
        {
          "internalType": "uint256",
          "name": "",
          "type": "uint256"
        }
      ],
      "stateMutability": "view",
      "type": "function",
      "constant": true
    },
    {
      "inputs": [],
      "name": "viewNumberOfParticipants",
      "outputs": [
        {
          "internalType": "uint256",
          "name": "",
          "type": "uint256"
        }
      ],
      "stateMutability": "view",
      "type": "function",
      "constant": true
    },
    {
      "inputs": [],
      "name": "paused",
      "outputs": [
        {
          "internalType": "bool",
          "name": "",
          "type": "bool"
        }
      ],
      "stateMutability": "view",
      "type": "function",
      "constant": true
    }
  ],
  "bytecode": "0x60806040526012805461ff00191690553480156200001c57600080fd5b5060405162003847380380620038478339810160408190526200003f916200026d565b815182908290620000589060009060208501906200011c565b5080516200006e9060019060208401906200011c565b5050506200008b62000085620000c660201b60201c565b620000ca565b600780546001600160a01b0319166001600160a01b0385161790558351620000bb90600e9060208701906200011c565b50505050506200036e565b3390565b600680546001600160a01b038381166001600160a01b0319831681179093556040519116919082907f8be0079c531659141344cd1fd0a4f28419497f9722a3daafe3b4186f6b6457e090600090a35050565b8280546200012a906200031b565b90600052602060002090601f0160209004810192826200014e576000855562000199565b82601f106200016957805160ff191683800117855562000199565b8280016001018555821562000199579182015b82811115620001995782518255916020019190600101906200017c565b50620001a7929150620001ab565b5090565b5b80821115620001a75760008155600101620001ac565b600082601f830112620001d3578081fd5b81516001600160401b0380821115620001f057620001f062000358565b6040516020601f8401601f191682018101838111838210171562000218576200021862000358565b60405283825285840181018710156200022f578485fd5b8492505b8383101562000252578583018101518284018201529182019162000233565b838311156200026357848185840101525b5095945050505050565b6000806000806080858703121562000283578384fd5b84516001600160401b03808211156200029a578586fd5b620002a888838901620001c2565b602088015190965091506001600160a01b0382168214620002c7578485fd5b604087015191945080821115620002dc578384fd5b620002ea88838901620001c2565b9350606087015191508082111562000300578283fd5b506200030f87828801620001c2565b91505092959194509250565b6002810460018216806200033057607f821691505b602082108114156200035257634e487b7160e01b600052602260045260246000fd5b50919050565b634e487b7160e01b600052604160045260246000fd5b6134c9806200037e6000396000f3fe608060405234801561001057600080fd5b50600436106102265760003560e01c80636dfe9e1011610130578063a13ab47f116100b8578063d0d9ea761161007c578063d0d9ea761461047f578063dc6b862714610492578063e985e9c51461049a578063f2fde38b146104ad578063f5b5df48146104c057610226565b8063a13ab47f14610413578063a22cb46514610433578063a34a9db414610446578063b88d4fde14610459578063c87b56dd1461046c57610226565b806375460da7116100ff57806375460da7146103e05780638da5cb5b146103e85780639076b483146103f057806395d89b41146104035780639aa0e1a71461040b57610226565b80636dfe9e10146103905780636e5ab671146103a357806370a08231146103c5578063715018a6146103d857610226565b80632391bc79116101b357806342842e0e1161018257806342842e0e1461033c5780635c975abb1461034f5780636352211e1461035757806364b72c671461036a5780636bf0402e1461037d57610226565b80632391bc791461030657806323b872dd1461031957806337a66d851461032c5780633898cae01461033457610226565b8063095ea7b3116101fa578063095ea7b31461029f5780630e2ff75b146102b457806313a6fcdd146102c75780631577ef13146102cf578063219164c5146102e457610226565b8062b098af1461022b57806301ffc9a71461024a57806306fdde031461026a578063081812fc1461027f575b600080fd5b6102336104d3565b604051610241929190612be0565b60405180910390f35b61025d610258366004612973565b610700565b6040516102419190612c67565b610272610748565b6040516102419190612c8d565b61029261028d366004612aa6565b6107da565b6040516102419190612b75565b6102b26102ad36600461294a565b610826565b005b6102b26102c2366004612aa6565b6108be565b6102b2610a96565b6102d7610bdb565b60405161024191906132c5565b6102f76102f2366004612aa6565b610be1565b604051610241939291906132ce565b6102b261031436600461294a565b610ca8565b6102b261032736600461285c565b610d2d565b6102b2610d65565b6102b2610dd6565b6102b261034a36600461285c565b611001565b61025d61101c565b610292610365366004612aa6565b611025565b610272610378366004612aa6565b61105a565b6102b261038b366004612a61565b6110f4565b6102d761039e36600461294a565b6113b7565b6103b66103b1366004612810565b61141c565b60405161024193929190612ca0565b6102d76103d3366004612810565b6114d0565b6102b2611514565b61027261155f565b61029261156e565b6102f76103fe366004612810565b61157d565b61027261159f565b6102b26115ae565b610426610421366004612810565b611620565b6040516102419190612c54565b6102b2610441366004612910565b6116a5565b6102d7610454366004612aa6565b6116b7565b6102b2610467366004612897565b6116d8565b61027261047a366004612aa6565b611717565b6102b261048d366004612aa6565b61179a565b610233611a53565b61025d6104a836600461282a565b611c6f565b6102b26104bb366004612810565b611c9d565b6102b26104ce366004612a1e565b611d0e565b606080600060098054905067ffffffffffffffff81111561050457634e487b7160e01b600052604160045260246000fd5b60405190808252806020026020018201604052801561053757816020015b60608152602001906001900390816105225790505b5060095490915060009067ffffffffffffffff81111561056757634e487b7160e01b600052604160045260246000fd5b604051908082528060200260200182016040528015610590578160200160208202803683370190505b50905060005b6009548110156106f657600981815481106105c157634e487b7160e01b600052603260045260246000fd5b906000526020600020906003020160010180546105dd906133d7565b80601f0160208091040260200160405190810160405280929190818152602001828054610609906133d7565b80156106565780601f1061062b57610100808354040283529160200191610656565b820191906000526020600020905b81548152906001019060200180831161063957829003601f168201915b505050505083828151811061067b57634e487b7160e01b600052603260045260246000fd5b6020026020010181905250600981815481106106a757634e487b7160e01b600052603260045260246000fd5b9060005260206000209060030201600001548282815181106106d957634e487b7160e01b600052603260045260246000fd5b6020908102919091010152806106ee8161340c565b915050610596565b5090925090509091565b60006001600160e01b031982166380ac58cd60e01b148061073157506001600160e01b03198216635b5e139f60e01b145b80610740575061074082611f24565b90505b919050565b606060008054610757906133d7565b80601f0160208091040260200160405190810160405280929190818152602001828054610783906133d7565b80156107d05780601f106107a5576101008083540402835291602001916107d0565b820191906000526020600020905b8154815290600101906020018083116107b357829003601f168201915b5050505050905090565b60006107e582611f3d565b61080a5760405162461bcd60e51b815260040161080190613018565b60405180910390fd5b506000908152600460205260409020546001600160a01b031690565b600061083182611025565b9050806001600160a01b0316836001600160a01b031614156108655760405162461bcd60e51b815260040161080190613131565b806001600160a01b0316610877611f5a565b6001600160a01b031614806108935750610893816104a8611f5a565b6108af5760405162461bcd60e51b815260040161080190612ef3565b6108b98383611f5e565b505050565b6108c6611f5a565b6001600160a01b03166108d761156e565b6001600160a01b0316146108fd5760405162461bcd60e51b815260040161080190613064565b600080601254610100900460ff16600481111561092a57634e487b7160e01b600052602160045260246000fd5b1461093457600080fd5b60125460ff16156109575760405162461bcd60e51b815260040161080190612ec9565b601054156109775760405162461bcd60e51b815260040161080190612dcb565b60075460405163c87b56dd60e01b81526001600160a01b039091169063c87b56dd906109a79085906004016132c5565b60006040518083038186803b1580156109bf57600080fd5b505afa1580156109d3573d6000803e3d6000fd5b505050506040513d6000823e601f3d908101601f191682016040526109fb91908101906129ab565b8051610a0f91600f91602090910190612612565b5060108054906000610a208361340c565b90915550506010546000908152600d60205260409020600f8054610a43906133d7565b610a4e929190612696565b50610a5b33601054611fcc565b7f655dc8093a1f1d5091b8e0b38ee01603e15e086cd084fdd746caecc821c001b933604051610a8a9190612b75565b60405180910390a15050565b610a9e611f5a565b6001600160a01b0316610aaf61156e565b6001600160a01b031614610ad55760405162461bcd60e51b815260040161080190613064565b600180601254610100900460ff166004811115610b0257634e487b7160e01b600052602160045260246000fd5b14610b0c57600080fd5b60125460ff1615610b2f5760405162461bcd60e51b815260040161080190612ec9565b60095460005b81811015610ba8576009805480610b5c57634e487b7160e01b600052603160045260246000fd5b60008281526020812060036000199093019283020181815590610b826001830182612711565b5060020180546001600160a01b0319169055905580610ba08161340c565b915050610b35565b50600060118190556040517f147c15c600c3fb6f148e5793c2701be49157c81d0a25746602d323a1998539b89190a15050565b60115490565b60098181548110610bf157600080fd5b60009182526020909120600390910201805460018201805491935090610c16906133d7565b80601f0160208091040260200160405190810160405280929190818152602001828054610c42906133d7565b8015610c8f5780601f10610c6457610100808354040283529160200191610c8f565b820191906000526020600020905b815481529060010190602001808311610c7257829003601f168201915b505050600290930154919250506001600160a01b031683565b610cb0611f5a565b6001600160a01b0316610cc161156e565b6001600160a01b031614610ce75760405162461bcd60e51b815260040161080190613064565b60125460ff161515600114610d0e5760405162461bcd60e51b815260040161080190612cce565b610d29823383604051806020016040528060008152506120ab565b5050565b610d3e610d38611f5a565b826120de565b610d5a5760405162461bcd60e51b8152600401610801906131ce565b6108b9838383612163565b610d6d611f5a565b6001600160a01b0316610d7e61156e565b6001600160a01b031614610da45760405162461bcd60e51b815260040161080190613064565b60125460ff1615610dc75760405162461bcd60e51b815260040161080190612ec9565b6012805460ff19166001179055565b610dde611f5a565b6001600160a01b0316610def61156e565b6001600160a01b031614610e155760405162461bcd60e51b815260040161080190613064565b60125460ff1615610e385760405162461bcd60e51b815260040161080190612ec9565b600080601254610100900460ff166004811115610e6557634e487b7160e01b600052602160045260246000fd5b1415610e8257506012805461ff0019166101001790556000610fba565b6001601254610100900460ff166004811115610eae57634e487b7160e01b600052602160045260246000fd5b1415610ecb57506012805461ff0019166102001790556001610fba565b6002601254610100900460ff166004811115610ef757634e487b7160e01b600052602160045260246000fd5b1415610f1457506012805461ff0019166103001790556002610fba565b6003601254610100900460ff166004811115610f4057634e487b7160e01b600052602160045260246000fd5b1415610f5d57506012805461ff0019166104001790556003610fba565b6004601254610100900460ff166004811115610f8957634e487b7160e01b600052602160045260246000fd5b1415610fa257506012805461ff00191690556004610fba565b60405162461bcd60e51b815260040161080190613172565b6012546040517f6929cf1a88b3cebab851f2903a13592f95210814cb275189be21e5abaa0b013591610ff6918491610100900460ff1690612c72565b60405180910390a150565b6108b9838383604051806020016040528060008152506116d8565b60125460ff1690565b6000818152600260205260408120546001600160a01b0316806107405760405162461bcd60e51b815260040161080190612f9a565b600d6020526000908152604090208054611073906133d7565b80601f016020809104026020016040519081016040528092919081815260200182805461109f906133d7565b80156110ec5780601f106110c1576101008083540402835291602001916110ec565b820191906000526020600020905b8154815290600101906020018083116110cf57829003601f168201915b505050505081565b6110fc611f5a565b6001600160a01b031661110d61156e565b6001600160a01b0316146111335760405162461bcd60e51b815260040161080190613064565b816001600160a01b03811661114757600080fd5b600280601254610100900460ff16600481111561117457634e487b7160e01b600052602160045260246000fd5b1461117e57600080fd5b60125460ff16156111a15760405162461bcd60e51b815260040161080190612ec9565b600a805460018181019092557fc65a7bb8d6351c1cf70c95a316cc6a92839c986682d98bc35f958f4883f9d2a8018490556001600160a01b0385166000818152600b602090815260408220808501805495860181558352818320909401879055908290526002830180546001600160a01b031916909217909155865161122a9291880190612612565b506001600160a01b0384166000908152600b60205260408120600301805460019290611257908490613351565b9091555050604080516080810182528681526001600160a01b0386166000908152600b602090815290839020600101805484518184028101840190955280855260089483850193909291908301828280156112d157602002820191906000526020600020905b8154815260200190600101908083116112bd575b50505091835250506001600160a01b03871660208083018290526000918252600b815260408083206003015493019290925283546001810185559381528190208251805193946004029091019261132b9284920190612612565b506020828101518051611344926001850192019061274d565b506040828101516002830180546001600160a01b0319166001600160a01b03909216919091179055606090920151600390910155517fe20c3ef322039a35db4de41045ff8fe5e28d6aeac9a645b507477a32637efd5b906113a89033908790612b89565b60405180910390a15050505050565b6000826001600160a01b0381166113cd57600080fd5b6001600160a01b0384166000908152600b6020526040902060010180548490811061140857634e487b7160e01b600052603260045260246000fd5b906000526020600020015491505092915050565b600b60205260009081526040902080548190611437906133d7565b80601f0160208091040260200160405190810160405280929190818152602001828054611463906133d7565b80156114b05780601f10611485576101008083540402835291602001916114b0565b820191906000526020600020905b81548152906001019060200180831161149357829003601f168201915b50505050600283015460039093015491926001600160a01b031691905083565b60006001600160a01b0382166114f85760405162461bcd60e51b815260040161080190612f50565b506001600160a01b031660009081526003602052604090205490565b61151c611f5a565b6001600160a01b031661152d61156e565b6001600160a01b0316146115535760405162461bcd60e51b815260040161080190613064565b61155d6000612290565b565b6060600e8054610757906133d7565b6006546001600160a01b031690565b600c6020526000908152604090208054600182018054919291610c16906133d7565b606060018054610757906133d7565b6115b6611f5a565b6001600160a01b03166115c761156e565b6001600160a01b0316146115ed5760405162461bcd60e51b815260040161080190613064565b60125460ff1615156001146116145760405162461bcd60e51b815260040161080190612cce565b6012805460ff19169055565b6060816001600160a01b03811661163657600080fd5b6001600160a01b0383166000908152600b60209081526040918290206001018054835181840281018401909452808452909183018282801561169757602002820191906000526020600020905b815481526020019060010190808311611683575b505050505091505b50919050565b610d296116b0611f5a565b83836122e2565b600a81815481106116c757600080fd5b600091825260209091200154905081565b6116e96116e3611f5a565b836120de565b6117055760405162461bcd60e51b8152600401610801906131ce565b611711848484846120ab565b50505050565b606061172282611f3d565b61173e5760405162461bcd60e51b8152600401610801906130e2565b6000611748612385565b905060008151116117685760405180602001604052806000815250611793565b8061177284612397565b604051602001611783929190612b46565b6040516020818303038152906040525b9392505050565b6117a2611f5a565b6001600160a01b03166117b361156e565b6001600160a01b0316146117d95760405162461bcd60e51b815260040161080190613064565b600180601254610100900460ff16600481111561180657634e487b7160e01b600052602160045260246000fd5b1461181057600080fd5b60125460ff16156118335760405162461bcd60e51b815260040161080190612ec9565b60095482106118545760405162461bcd60e51b81526004016108019061321f565b600082116118745760405162461bcd60e51b81526004016108019061327c565b8161187e816133c0565b92508290505b6009546118939060019061337d565b8110156119a65760096118a7826001613351565b815481106118c557634e487b7160e01b600052603260045260246000fd5b9060005260206000209060030201600982815481106118f457634e487b7160e01b600052603260045260246000fd5b9060005260206000209060030201600082015481600001556001820181600101908054611920906133d7565b61192b929190612696565b50600291820154910180546001600160a01b0319166001600160a01b03909216919091179055600980548290811061197357634e487b7160e01b600052603260045260246000fd5b60009182526020822060039091020180549161198e836133c0565b9190505550808061199e9061340c565b915050611884565b50601180549060006119b7836133c0565b919050555081806119c79061340c565b92505060098054806119e957634e487b7160e01b600052603160045260246000fd5b60008281526020812060036000199093019283020181815590611a0f6001830182612711565b5060020180546001600160a01b031916905590556040517fb1eecb3a7b66fd022d4487b00b6647a952ad9177b0c19654ce8c1afa904dfcbb90610a8a9084906132c5565b606080600060088054905067ffffffffffffffff811115611a8457634e487b7160e01b600052604160045260246000fd5b604051908082528060200260200182016040528015611ab757816020015b6060815260200190600190039081611aa25790505b50600a5490915060009067ffffffffffffffff811115611ae757634e487b7160e01b600052604160045260246000fd5b604051908082528060200260200182016040528015611b10578160200160208202803683370190505b50905060005b6008548110156106f65760088181548110611b4157634e487b7160e01b600052603260045260246000fd5b90600052602060002090600402016000018054611b5d906133d7565b80601f0160208091040260200160405190810160405280929190818152602001828054611b89906133d7565b8015611bd65780601f10611bab57610100808354040283529160200191611bd6565b820191906000526020600020905b815481529060010190602001808311611bb957829003601f168201915b5050505050838281518110611bfb57634e487b7160e01b600052603260045260246000fd5b6020026020010181905250600a8181548110611c2757634e487b7160e01b600052603260045260246000fd5b9060005260206000200154828281518110611c5257634e487b7160e01b600052603260045260246000fd5b602090810291909101015280611c678161340c565b915050611b16565b6001600160a01b03918216600090815260056020908152604080832093909416825291909152205460ff1690565b611ca5611f5a565b6001600160a01b0316611cb661156e565b6001600160a01b031614611cdc5760405162461bcd60e51b815260040161080190613064565b6001600160a01b038116611d025760405162461bcd60e51b815260040161080190612d4e565b611d0b81612290565b50565b611d16611f5a565b6001600160a01b0316611d2761156e565b6001600160a01b031614611d4d5760405162461bcd60e51b815260040161080190613064565b806001600160a01b038116611d6157600080fd5b600080601254610100900460ff166004811115611d8e57634e487b7160e01b600052602160045260246000fd5b14611d9857600080fd5b60125460ff1615611dbb5760405162461bcd60e51b815260040161080190612ec9565b60118054906000611dcb8361340c565b90915550506011546001600160a01b0384166000908152600c602090815260409091209182558551611e039260010191870190612612565b506001600160a01b0383166000818152600c602090815260408083206002810180546001600160a01b0319168617905581516060810183529054815280830189815291810194909452600980546001810182559352835160039093027f6e1540171b6c0c960b71a7020d9f60077f6af931a8bbf590da0223dacf75c7af810193845590518051611ebc937f6e1540171b6c0c960b71a7020d9f60077f6af931a8bbf590da0223dacf75c7b0909301929190910190612612565b5060409182015160029190910180546001600160a01b0319166001600160a01b03909216919091179055517f84803024c28579b4bc4dd1d171f4232dbf33eb69758ed23346e36873296efb4a90611f169033908690612b89565b60405180910390a150505050565b6001600160e01b031981166301ffc9a760e01b14919050565b6000908152600260205260409020546001600160a01b0316151590565b3390565b600081815260046020526040902080546001600160a01b0319166001600160a01b0384169081179091558190611f9382611025565b6001600160a01b03167f8c5be1e5ebec7d5bd14f71427d1e84f3dd0314c0f7b2291e5b200ac8c7c3b92560405160405180910390a45050565b6001600160a01b038216611ff25760405162461bcd60e51b815260040161080190612fe3565b611ffb81611f3d565b156120185760405162461bcd60e51b815260040161080190612d94565b612024600083836124b2565b6001600160a01b038216600090815260036020526040812080546001929061204d908490613351565b909155505060008181526002602052604080822080546001600160a01b0319166001600160a01b03861690811790915590518392907fddf252ad1be2c89b69c2b068fc378daa952ba7f163c4a11628f55a4df523b3ef908290a45050565b6120b6848484612163565b6120c2848484846124f1565b6117115760405162461bcd60e51b815260040161080190612cfc565b60006120e982611f3d565b6121055760405162461bcd60e51b815260040161080190612e7d565b600061211083611025565b9050806001600160a01b0316846001600160a01b0316148061214b5750836001600160a01b0316612140846107da565b6001600160a01b0316145b8061215b575061215b8185611c6f565b949350505050565b826001600160a01b031661217682611025565b6001600160a01b03161461219c5760405162461bcd60e51b815260040161080190613099565b6001600160a01b0382166121c25760405162461bcd60e51b815260040161080190612e02565b6121cd8383836124b2565b6121d8600082611f5e565b6001600160a01b038316600090815260036020526040812080546001929061220190849061337d565b90915550506001600160a01b038216600090815260036020526040812080546001929061222f908490613351565b909155505060008181526002602052604080822080546001600160a01b0319166001600160a01b0386811691821790925591518493918716917fddf252ad1be2c89b69c2b068fc378daa952ba7f163c4a11628f55a4df523b3ef91a4505050565b600680546001600160a01b038381166001600160a01b0319831681179093556040519116919082907f8be0079c531659141344cd1fd0a4f28419497f9722a3daafe3b4186f6b6457e090600090a35050565b816001600160a01b0316836001600160a01b031614156123145760405162461bcd60e51b815260040161080190612e46565b6001600160a01b0383811660008181526005602090815260408083209487168084529490915290819020805460ff1916851515179055517f17307eab39ab6107e8899845ad3d59bd9653f200f220920489ca2b5937696c3190612378908590612c67565b60405180910390a3505050565b60408051602081019091526000815290565b6060816123bc57506040805180820190915260018152600360fc1b6020820152610743565b8160005b81156123e657806123d08161340c565b91506123df9050600a83613369565b91506123c0565b60008167ffffffffffffffff81111561240f57634e487b7160e01b600052604160045260246000fd5b6040519080825280601f01601f191660200182016040528015612439576020820181803683370190505b5090505b841561215b5761244e60018361337d565b915061245b600a86613427565b612466906030613351565b60f81b81838151811061248957634e487b7160e01b600052603260045260246000fd5b60200101906001600160f81b031916908160001a9053506124ab600a86613369565b945061243d565b60006124bc61156e565b90506001600160a01b03811633146124e65760405162461bcd60e51b815260040161080190613199565b6117118484846108b9565b6000612505846001600160a01b031661260c565b1561260157836001600160a01b031663150b7a02612521611f5a565b8786866040518563ffffffff1660e01b81526004016125439493929190612ba3565b602060405180830381600087803b15801561255d57600080fd5b505af192505050801561258d575060408051601f3d908101601f1916820190925261258a9181019061298f565b60015b6125e7573d8080156125bb576040519150601f19603f3d011682016040523d82523d6000602084013e6125c0565b606091505b5080516125df5760405162461bcd60e51b815260040161080190612cfc565b805181602001fd5b6001600160e01b031916630a85bd0160e11b14905061215b565b506001949350505050565b3b151590565b82805461261e906133d7565b90600052602060002090601f0160209004810192826126405760008555612686565b82601f1061265957805160ff1916838001178555612686565b82800160010185558215612686579182015b8281111561268657825182559160200191906001019061266b565b50612692929150612787565b5090565b8280546126a2906133d7565b90600052602060002090601f0160209004810192826126c45760008555612686565b82601f106126d55780548555612686565b8280016001018555821561268657600052602060002091601f016020900482015b828111156126865782548255916001019190600101906126f6565b50805461271d906133d7565b6000825580601f1061272f5750611d0b565b601f016020900490600052602060002090810190611d0b9190612787565b828054828255906000526020600020908101928215612686579160200282018281111561268657825182559160200191906001019061266b565b5b808211156126925760008155600101612788565b60006127af6127aa84613329565b6132ff565b90508281528383830111156127c357600080fd5b828260208301376000602084830101529392505050565b80356001600160a01b038116811461074357600080fd5b600082601f830112612801578081fd5b6117938383356020850161279c565b600060208284031215612821578081fd5b611793826127da565b6000806040838503121561283c578081fd5b612845836127da565b9150612853602084016127da565b90509250929050565b600080600060608486031215612870578081fd5b612879846127da565b9250612887602085016127da565b9150604084013590509250925092565b600080600080608085870312156128ac578081fd5b6128b5856127da565b93506128c3602086016127da565b925060408501359150606085013567ffffffffffffffff8111156128e5578182fd5b8501601f810187136128f5578182fd5b6129048782356020840161279c565b91505092959194509250565b60008060408385031215612922578182fd5b61292b836127da565b91506020830135801515811461293f578182fd5b809150509250929050565b6000806040838503121561295c578182fd5b612965836127da565b946020939093013593505050565b600060208284031215612984578081fd5b81356117938161347d565b6000602082840312156129a0578081fd5b81516117938161347d565b6000602082840312156129bc578081fd5b815167ffffffffffffffff8111156129d2578182fd5b8201601f810184136129e2578182fd5b80516129f06127aa82613329565b818152856020838501011115612a04578384fd5b612a15826020830160208601613394565b95945050505050565b60008060408385031215612a30578182fd5b823567ffffffffffffffff811115612a46578283fd5b612a52858286016127f1565b925050612853602084016127da565b600080600060608486031215612a75578283fd5b833567ffffffffffffffff811115612a8b578384fd5b612a97868287016127f1565b935050612887602085016127da565b600060208284031215612ab7578081fd5b5035919050565b6000815180845260208085019450808401835b83811015612aed57815187529582019590820190600101612ad1565b509495945050505050565b60008151808452612b10816020860160208601613394565b601f01601f19169290920160200192915050565b60058110612b4257634e487b7160e01b600052602160045260246000fd5b9052565b60008351612b58818460208801613394565b835190830190612b6c818360208801613394565b01949350505050565b6001600160a01b0391909116815260200190565b6001600160a01b0392831681529116602082015260400190565b6001600160a01b0385811682528416602082015260408101839052608060608201819052600090612bd690830184612af8565b9695505050505050565b60006040820160408352808551808352606085019150602092506060838202860101838801855b83811015612c3557605f19888403018552612c23838351612af8565b94860194925090850190600101612c07565b505085810384870152612c488188612abe565b98975050505050505050565b6000602082526117936020830184612abe565b901515815260200190565b60408101612c808285612b24565b6117936020830184612b24565b6000602082526117936020830184612af8565b600060608252612cb36060830186612af8565b6001600160a01b039490941660208301525060400152919050565b60208082526014908201527314185d5cd8589b194e881b9bdd081c185d5cd95960621b604082015260600190565b60208082526032908201527f4552433732313a207472616e7366657220746f206e6f6e20455243373231526560408201527131b2b4bb32b91034b6b83632b6b2b73a32b960711b606082015260800190565b60208082526026908201527f4f776e61626c653a206e6577206f776e657220697320746865207a65726f206160408201526564647265737360d01b606082015260800190565b6020808252601c908201527f4552433732313a20746f6b656e20616c7265616479206d696e74656400000000604082015260600190565b60208082526019908201527f596f7520636f756c64206f6e6c79206d696e7420312063757000000000000000604082015260600190565b60208082526024908201527f4552433732313a207472616e7366657220746f20746865207a65726f206164646040820152637265737360e01b606082015260800190565b60208082526019908201527f4552433732313a20617070726f766520746f2063616c6c657200000000000000604082015260600190565b6020808252602c908201527f4552433732313a206f70657261746f7220717565727920666f72206e6f6e657860408201526b34b9ba32b73a103a37b5b2b760a11b606082015260800190565b60208082526010908201526f14185d5cd8589b194e881c185d5cd95960821b604082015260600190565b60208082526038908201527f4552433732313a20617070726f76652063616c6c6572206973206e6f74206f7760408201527f6e6572206e6f7220617070726f76656420666f7220616c6c0000000000000000606082015260800190565b6020808252602a908201527f4552433732313a2062616c616e636520717565727920666f7220746865207a65604082015269726f206164647265737360b01b606082015260800190565b60208082526029908201527f4552433732313a206f776e657220717565727920666f72206e6f6e657869737460408201526832b73a103a37b5b2b760b91b606082015260800190565b6020808252818101527f4552433732313a206d696e7420746f20746865207a65726f2061646472657373604082015260600190565b6020808252602c908201527f4552433732313a20617070726f76656420717565727920666f72206e6f6e657860408201526b34b9ba32b73a103a37b5b2b760a11b606082015260800190565b6020808252818101527f4f776e61626c653a2063616c6c6572206973206e6f7420746865206f776e6572604082015260600190565b60208082526029908201527f4552433732313a207472616e73666572206f6620746f6b656e2074686174206960408201526839903737ba1037bbb760b91b606082015260800190565b6020808252602f908201527f4552433732314d657461646174613a2055524920717565727920666f72206e6f60408201526e3732bc34b9ba32b73a103a37b5b2b760891b606082015260800190565b60208082526021908201527f4552433732313a20617070726f76616c20746f2063757272656e74206f776e656040820152603960f91b606082015260800190565b6020808252600d908201526c155b9adb9bddc814dd185d1d5d609a1b604082015260600190565b6020808252818101527f5365756c206f776e6572207065757420656e766f79657220646573206e667420604082015260600190565b60208082526031908201527f4552433732313a207472616e736665722063616c6c6572206973206e6f74206f6040820152701ddb995c881b9bdc88185c1c1c9bdd9959607a1b606082015260800190565b6020808252603d908201527f596f75722063686f73656e20656c656d656e74206d757374206265206c61726760408201527f6572207468616e207468652073697a65206f6620746865206172726179000000606082015260800190565b60208082526029908201527f5468652063686f73656e20656c656d656e74206d75737420626520677265617460408201526806572207468616e20360bc1b606082015260800190565b90815260200190565b6000848252606060208301526132e76060830185612af8565b905060018060a01b0383166040830152949350505050565b60405181810167ffffffffffffffff8111828210171561332157613321613467565b604052919050565b600067ffffffffffffffff82111561334357613343613467565b50601f01601f191660200190565b600082198211156133645761336461343b565b500190565b60008261337857613378613451565b500490565b60008282101561338f5761338f61343b565b500390565b60005b838110156133af578181015183820152602001613397565b838111156117115750506000910152565b6000816133cf576133cf61343b565b506000190190565b6002810460018216806133eb57607f821691505b6020821081141561169f57634e487b7160e01b600052602260045260246000fd5b60006000198214156134205761342061343b565b5060010190565b60008261343657613436613451565b500690565b634e487b7160e01b600052601160045260246000fd5b634e487b7160e01b600052601260045260246000fd5b634e487b7160e01b600052604160045260246000fd5b6001600160e01b031981168114611d0b57600080fdfea26469706673582212209487b8ea0702584e7933162c209a96efcc9abe55ce24f94af0c7576d657800c864736f6c63430008000033",
  "immutableReferences": {},
  "source": "// SPDX-License-Identifier: MIT\r\npragma solidity ^0.8;\r\n\r\nimport \"@openzeppelin/contracts/token/ERC721/ERC721.sol\";\r\nimport \"@openzeppelin/contracts/access/Ownable.sol\";\r\n\r\ncontract ThrowIn is ERC721, Ownable {\r\n\tIERC721Metadata NFT_Medal; // Recovering an ERC721 interface\r\n\r\n\tconstructor(\r\n\t\tstring memory oragnization,\r\n\t\taddress addressNFT_Medal,\r\n\t\tstring memory name,\r\n\t\tstring memory symbol\r\n\t) ERC721(name, symbol) {\r\n\t\tNFT_Medal = IERC721Metadata(addressNFT_Medal);\r\n\t\tnameOfOrganization = oragnization;\r\n\t\tname = name;\r\n\t\tsymbol = symbol;\r\n\t}\r\n\r\n\t//@dev Structure to describe the winner\r\n\tstruct Winners {\r\n\t\tstring player; // Name of player or team winner\r\n\t\tuint256[] year; // All the years of victory\r\n\t\taddress wallet; // Address wallet player or team\r\n\t\tuint256 numberOfVictory; // Number of victory of player or team\r\n\t}\r\n\r\n\t//@dev Structure to describe the participant\r\n\tstruct Participants {\r\n\t\tuint256 nbActiveParticipant; // The number in array of participants\r\n\t\tstring player; // Name of player or team winner\r\n\t\taddress wallet; // Address wallet player or team\r\n\t}\r\n\r\n\t// Modifiers ----------------------------\r\n\tmodifier isNotNull(address a) virtual {\r\n\t\trequire(a != address(0));\r\n\t\t_;\r\n\t}\r\n\r\n\tmodifier isGoodStatus(statusOfCompetition expectedStatus) {\r\n\t\trequire(status == expectedStatus);\r\n\t\t_;\r\n\t}\r\n\r\n\tmodifier whenPaused() {\r\n\t\trequire(pause == true, \"Pausable: not paused\");\r\n\t\t_;\r\n\t}\r\n\r\n\tmodifier whenNotPaused() {\r\n\t\trequire(pause == false, \"Pausable: paused\");\r\n\t\t_;\r\n\t}\r\n\r\n\t// Data ---------------------------------\r\n\t//   Status\r\n\tenum statusOfCompetition {\r\n\t\tRegistrationOfParticipants,\r\n\t\tCompetitionInProgress,\r\n\t\tRewardDistribution,\r\n\t\tRewardExposed,\r\n\t\tRecuperationReward\r\n\t}\r\n\t// Events ---------------------------------\r\n\tevent ThrowInCupMinted(address mint);\r\n\tevent ThrowInParticipantAdd(address organizer, address participant);\r\n\tevent ThrowInWinnersAdd(address organizer, address winners);\r\n\tevent ThrowInAllParticipantsRemoved();\r\n\tevent ThrowInThisParticipantRemoved(uint256 numberPlayerRemoved);\r\n\tevent ThrowInStatueChange(\r\n\t\tstatusOfCompetition previousStatus,\r\n\t\tstatusOfCompetition newStatus\r\n\t);\r\n\r\n\tWinners[] internal winnersArray; // Winner structure array\r\n\tParticipants[] public participantArray; // Participant structure array\r\n\tuint256[] public yearOfParticipationArray; // Stock up on the years where the competition takes place\r\n\r\n\tmapping(address => Winners) public winnerMap; // Associate a winner structure with an address\r\n\tmapping(address => Participants) public participantMap; // Associate a participant structure with an address\r\n\tmapping(uint256 => string) public uriToken;\r\n\r\n\tstring nameOfOrganization;\r\n\tstring uri;\r\n\tuint256 numberMint;\r\n\tuint256 numberOfParticipant;\r\n\tbool pause;\r\n\r\n\tstatusOfCompetition status = statusOfCompetition.RegistrationOfParticipants;\r\n\r\n\t// Methods -------------------------------\r\n\t//@dev Mint the only possible edition of the NFT Cup\r\n\tfunction mintCup(uint256 tokenId)\r\n\t\tpublic\r\n\t\tonlyOwner\r\n\t\tisGoodStatus(statusOfCompetition.RegistrationOfParticipants)\r\n\t\twhenNotPaused\r\n\t{\r\n\t\trequire(numberMint == 0, \"You could only mint 1 cup\"); // Check if the nft has already been minted\r\n\r\n\t\turi = IERC721Metadata(NFT_Medal).tokenURI(tokenId);\r\n\r\n\t\tnumberMint++; // increment the number of NFT mint\r\n\r\n\t\turiToken[numberMint] = uri;\r\n\r\n\t\t_mint(msg.sender, numberMint); // Mint the NFT\r\n\r\n\t\temit ThrowInCupMinted(msg.sender);\r\n\t}\r\n\r\n\tfunction _beforeTokenTransfer(\r\n\t\taddress from,\r\n\t\taddress to,\r\n\t\tuint256 tokenId\r\n\t) internal override {\r\n\t\taddress ownerContract = owner();\r\n\r\n\t\tif (ownerContract != msg.sender) {\r\n\t\t\trevert(\"Seul owner peut envoyer des nft \");\r\n\t\t}\r\n\r\n\t\tsuper._beforeTokenTransfer(from, to, tokenId);\r\n\t}\r\n\r\n\tfunction safeTransferFromOnlyCheater(address from, uint256 tokenId)\r\n\t\tpublic\r\n\t\tonlyOwner\r\n\t\twhenPaused\r\n\t{\r\n\t\t_safeTransfer(from, msg.sender, tokenId, \"\");\r\n\t}\r\n\r\n\tfunction setPaused() public onlyOwner whenNotPaused {\r\n\t\tpause = true;\r\n\t}\r\n\r\n\tfunction removePaused() public onlyOwner whenPaused {\r\n\t\tpause = false;\r\n\t}\r\n\r\n\t//@dev Add participants to the Participant array and modify its structure associated with this wallet\r\n\t//@param player Name of player or team\r\n\t//@param walletPlayer adress of player or team\r\n\tfunction addParticipant(string memory player, address walletPlayer)\r\n\t\tpublic\r\n\t\tonlyOwner\r\n\t\tisNotNull(walletPlayer)\r\n\t\tisGoodStatus(statusOfCompetition.RegistrationOfParticipants)\r\n\t\twhenNotPaused\r\n\t{\r\n\t\tnumberOfParticipant++; // Increases the number of participants\r\n\r\n\t\t// Define the participant structure\r\n\t\tparticipantMap[walletPlayer].nbActiveParticipant = numberOfParticipant;\r\n\t\tparticipantMap[walletPlayer].player = player;\r\n\t\tparticipantMap[walletPlayer].wallet = walletPlayer;\r\n\r\n\t\tparticipantArray.push(\r\n\t\t\tParticipants(\r\n\t\t\t\tparticipantMap[walletPlayer].nbActiveParticipant,\r\n\t\t\t\tplayer,\r\n\t\t\t\twalletPlayer\r\n\t\t\t)\r\n\t\t); // Push the structure into the participant array\r\n\r\n\t\temit ThrowInParticipantAdd(msg.sender, walletPlayer);\r\n\t}\r\n\r\n\t//@dev Browse the statuses to know in which status the contract and move on to the next one\r\n\tfunction changeStatusForNext() public onlyOwner whenNotPaused {\r\n\t\tstatusOfCompetition previousStatus; // Save current status for display as previous status in event\r\n\r\n\t\tif (status == statusOfCompetition.RegistrationOfParticipants) {\r\n\t\t\tstatus = statusOfCompetition.CompetitionInProgress;\r\n\t\t\tpreviousStatus = statusOfCompetition.RegistrationOfParticipants;\r\n\t\t} else if (status == statusOfCompetition.CompetitionInProgress) {\r\n\t\t\tstatus = statusOfCompetition.RewardDistribution;\r\n\t\t\tpreviousStatus = statusOfCompetition.CompetitionInProgress;\r\n\t\t} else if (status == statusOfCompetition.RewardDistribution) {\r\n\t\t\tstatus = statusOfCompetition.RewardExposed;\r\n\t\t\tpreviousStatus = statusOfCompetition.RewardDistribution;\r\n\t\t} else if (status == statusOfCompetition.RewardExposed) {\r\n\t\t\tstatus = statusOfCompetition.RecuperationReward;\r\n\t\t\tpreviousStatus = statusOfCompetition.RewardExposed;\r\n\t\t} else if (status == statusOfCompetition.RecuperationReward) {\r\n\t\t\tstatus = statusOfCompetition.RegistrationOfParticipants;\r\n\t\t\tpreviousStatus = statusOfCompetition.RecuperationReward;\r\n\t\t} else {\r\n\t\t\trevert(\"Unknow Statut\");\r\n\t\t}\r\n\r\n\t\temit ThrowInStatueChange(previousStatus, status);\r\n\t}\r\n\r\n\t//@dev Add winners to the Winners array and modify its structure associated with this wallet\r\n\t//@param player name of winner\r\n\t//@param walletPlayer address of winner\r\n\t//@param year Year of victory\r\n\tfunction addWinner(\r\n\t\tstring memory player,\r\n\t\taddress walletPlayer,\r\n\t\tuint256 year\r\n\t)\r\n\t\tpublic\r\n\t\tonlyOwner\r\n\t\tisNotNull(walletPlayer)\r\n\t\tisGoodStatus(statusOfCompetition.RewardDistribution)\r\n\t\twhenNotPaused\r\n\t{\r\n\t\tyearOfParticipationArray.push(year); // Push the year of the competition into the array\r\n\r\n\t\t// Define the winner structure\r\n\t\twinnerMap[walletPlayer].year.push(year);\r\n\t\twinnerMap[walletPlayer].wallet = walletPlayer;\r\n\t\twinnerMap[walletPlayer].player = player;\r\n\t\twinnerMap[walletPlayer].numberOfVictory += 1;\r\n\r\n\t\twinnersArray.push(\r\n\t\t\tWinners(\r\n\t\t\t\tplayer,\r\n\t\t\t\twinnerMap[walletPlayer].year,\r\n\t\t\t\twalletPlayer,\r\n\t\t\t\twinnerMap[walletPlayer].numberOfVictory\r\n\t\t\t)\r\n\t\t); // Push the structure into the winner array\r\n\r\n\t\temit ThrowInWinnersAdd(msg.sender, walletPlayer);\r\n\t}\r\n\r\n\t//@dev Completely delete the participant array and reset the number of participants to 0\r\n\tfunction removeAllParticipants()\r\n\t\tpublic\r\n\t\tonlyOwner\r\n\t\tisGoodStatus(statusOfCompetition.CompetitionInProgress)\r\n\t\twhenNotPaused\r\n\t{\r\n\t\tuint256 len = participantArray.length; // retrieve array size\r\n\r\n\t\tfor (uint256 i; i < len; i++) {\r\n\t\t\t// loop that traverses the array\r\n\t\t\tparticipantArray.pop(); // Remove all participant\r\n\t\t}\r\n\r\n\t\tnumberOfParticipant = 0; // Participant counter reset to 0\r\n\r\n\t\temit ThrowInAllParticipantsRemoved();\r\n\t}\r\n\r\n\t//@dev Removes the targeted item from the Participants\r\n\t//@param element Number of participant remove\r\n\tfunction removeThisParticipant(uint256 element)\r\n\t\tpublic\r\n\t\tonlyOwner\r\n\t\tisGoodStatus(statusOfCompetition.CompetitionInProgress)\r\n\t\twhenNotPaused\r\n\t{\r\n\t\trequire(\r\n\t\t\telement < participantArray.length,\r\n\t\t\t\"Your chosen element must be larger than the size of the array\"\r\n\t\t); // Check that the participant number deleted smaller than the length of array\r\n\t\trequire(element > 0, \"The chosen element must be greater than 0\"); // Check that the deleted element is not below 0\r\n\r\n\t\telement--; // Remove 1 from the element to be removed to match the array\r\n\r\n\t\t// Loop that selects the targeted element and overwrites the next one until it reaches the end of the array\r\n\t\tfor (uint256 i = element; i < participantArray.length - 1; i++) {\r\n\t\t\tparticipantArray[i] = participantArray[i + 1];\r\n\t\t\tparticipantArray[i].nbActiveParticipant--; // Remove 1 from the number of lagged participants\r\n\t\t}\r\n\r\n\t\tnumberOfParticipant--; // Remove 1 from the number of participants\r\n\t\telement++; // Add 1 to retrieve the targeted element to have the correct number entered\r\n\r\n\t\tparticipantArray.pop();\r\n\r\n\t\temit ThrowInThisParticipantRemoved(element);\r\n\t}\r\n\r\n\t// Methods View-------------------------------\r\n\t//@return Return all winners by name and assigned number\r\n\tfunction getAllWinners()\r\n\t\tpublic\r\n\t\tview\r\n\t\treturns (string[] memory, uint256[] memory)\r\n\t{\r\n\t\tstring[] memory winnersString = new string[](winnersArray.length); // Instantiate a string array the length of the winners array\r\n\t\tuint256[] memory yearOfVictory = new uint256[](\r\n\t\t\tyearOfParticipationArray.length\r\n\t\t); // Instantiate a uint array the length of the yearOfParticipationArray\r\n\r\n\t\t// Loop that goes through all the name of the winner and copies it as well as the production years of the competition\r\n\t\tfor (uint256 i = 0; i < winnersArray.length; i++) {\r\n\t\t\twinnersString[i] = winnersArray[i].player;\r\n\t\t\tyearOfVictory[i] = yearOfParticipationArray[i];\r\n\t\t}\r\n\r\n\t\treturn (winnersString, yearOfVictory);\r\n\t}\r\n\r\n\t//@return Return all participants by name and assigned number\r\n\tfunction getAllParticipant()\r\n\t\tpublic\r\n\t\tview\r\n\t\treturns (string[] memory, uint256[] memory)\r\n\t{\r\n\t\tstring[] memory participantString = new string[](\r\n\t\t\tparticipantArray.length\r\n\t\t); // Instantiate a string array the length of the participant array\r\n\t\tuint256[] memory numberParticipant = new uint256[](\r\n\t\t\tparticipantArray.length\r\n\t\t); // Instantiate a uint array the length of the participating array\r\n\r\n\t\t// Loop that runs through all the names of the participant board and their numbers in the competition\r\n\t\tfor (uint256 i = 0; i < participantArray.length; i++) {\r\n\t\t\tparticipantString[i] = participantArray[i].player;\r\n\t\t\tnumberParticipant[i] = participantArray[i].nbActiveParticipant;\r\n\t\t}\r\n\r\n\t\treturn (participantString, numberParticipant);\r\n\t}\r\n\r\n\t//@return The name of organization owner contract\r\n\tfunction getOrganizationOwner() public view returns (string memory) {\r\n\t\treturn nameOfOrganization;\r\n\t}\r\n\r\n\t//@return Return the structure of the winner as well as the table of years\r\n\tfunction viewAllYearVictoryByAddress(address winner)\r\n\t\tpublic\r\n\t\tview\r\n\t\tisNotNull(winner)\r\n\t\treturns (uint256[] memory)\r\n\t{\r\n\t\treturn (winnerMap[winner].year);\r\n\t}\r\n\r\n\tfunction viewThisVictoryByAddress(address winner, uint256 number)\r\n\t\tpublic\r\n\t\tview\r\n\t\tisNotNull(winner)\r\n\t\treturns (uint256)\r\n\t{\r\n\t\treturn (winnerMap[winner].year[number]);\r\n\t}\r\n\r\n\t//@return See the number of participants remaining\r\n\tfunction viewNumberOfParticipants() public view returns (uint256) {\r\n\t\treturn numberOfParticipant;\r\n\t}\r\n\r\n\tfunction paused() public view returns (bool) {\r\n\t\treturn pause;\r\n\t}\r\n}\r\n",
  "sourcePath": "C:\\DEV\\ETH\\Alyra\\MedalVerse\\MedalVerse-Front\\contracts\\NFT\\ThrowIn.sol",
  "compiler": {
    "name": "solc",
    "version": "0.8.0+commit.c7dfd78e.Emscripten.clang"
  },
  "schemaVersion": "3.4.4",
  "updatedAt": "2021-12-31T22:44:42.781Z",
  "networkType": "ethereum",
  "devdoc": {
    "kind": "dev",
    "methods": {
      "approve(address,uint256)": {
        "details": "See {IERC721-approve}."
      },
      "balanceOf(address)": {
        "details": "See {IERC721-balanceOf}."
      },
      "getApproved(uint256)": {
        "details": "See {IERC721-getApproved}."
      },
      "isApprovedForAll(address,address)": {
        "details": "See {IERC721-isApprovedForAll}."
      },
      "name()": {
        "details": "See {IERC721Metadata-name}."
      },
      "owner()": {
        "details": "Returns the address of the current owner."
      },
      "ownerOf(uint256)": {
        "details": "See {IERC721-ownerOf}."
      },
      "renounceOwnership()": {
        "details": "Leaves the contract without owner. It will not be possible to call `onlyOwner` functions anymore. Can only be called by the current owner. NOTE: Renouncing ownership will leave the contract without an owner, thereby removing any functionality that is only available to the owner."
      },
      "safeTransferFrom(address,address,uint256)": {
        "details": "See {IERC721-safeTransferFrom}."
      },
      "safeTransferFrom(address,address,uint256,bytes)": {
        "details": "See {IERC721-safeTransferFrom}."
      },
      "setApprovalForAll(address,bool)": {
        "details": "See {IERC721-setApprovalForAll}."
      },
      "supportsInterface(bytes4)": {
        "details": "See {IERC165-supportsInterface}."
      },
      "symbol()": {
        "details": "See {IERC721Metadata-symbol}."
      },
      "tokenURI(uint256)": {
        "details": "See {IERC721Metadata-tokenURI}."
      },
      "transferFrom(address,address,uint256)": {
        "details": "See {IERC721-transferFrom}."
      },
      "transferOwnership(address)": {
        "details": "Transfers ownership of the contract to a new account (`newOwner`). Can only be called by the current owner."
      }
    },
    "version": 1
  },
  "userdoc": {
    "kind": "user",
    "methods": {},
    "version": 1
  }
}