{
  "contractName": "UserHandler",
  "abi": [
    {
      "anonymous": false,
      "inputs": [
        {
          "indexed": true,
          "internalType": "address",
          "name": "previousOwner",
          "type": "address"
        },
        {
          "indexed": true,
          "internalType": "address",
          "name": "newOwner",
          "type": "address"
        }
      ],
      "name": "OwnershipTransferred",
      "type": "event"
    },
    {
      "anonymous": false,
      "inputs": [
        {
          "indexed": false,
          "internalType": "address",
          "name": "usrAddr",
          "type": "address"
        },
        {
          "indexed": false,
          "internalType": "uint256",
          "name": "indx",
          "type": "uint256"
        }
      ],
      "name": "UserAdded",
      "type": "event"
    },
    {
      "inputs": [],
      "name": "owner",
      "outputs": [
        {
          "internalType": "address",
          "name": "",
          "type": "address"
        }
      ],
      "stateMutability": "view",
      "type": "function"
    },
    {
      "inputs": [
        {
          "internalType": "uint256",
          "name": "",
          "type": "uint256"
        }
      ],
      "name": "registeredUsers",
      "outputs": [
        {
          "internalType": "address",
          "name": "",
          "type": "address"
        }
      ],
      "stateMutability": "view",
      "type": "function"
    },
    {
      "inputs": [],
      "name": "renounceOwnership",
      "outputs": [],
      "stateMutability": "nonpayable",
      "type": "function"
    },
    {
      "inputs": [
        {
          "internalType": "address",
          "name": "newOwner",
          "type": "address"
        }
      ],
      "name": "transferOwnership",
      "outputs": [],
      "stateMutability": "nonpayable",
      "type": "function"
    },
    {
      "inputs": [
        {
          "internalType": "address",
          "name": "_userAdr",
          "type": "address"
        }
      ],
      "name": "getUserDetails",
      "outputs": [
        {
          "components": [
            {
              "internalType": "string",
              "name": "iconURI",
              "type": "string"
            },
            {
              "internalType": "string",
              "name": "userName",
              "type": "string"
            },
            {
              "internalType": "string",
              "name": "email",
              "type": "string"
            },
            {
              "internalType": "uint8",
              "name": "role",
              "type": "uint8"
            },
            {
              "internalType": "bool",
              "name": "activ",
              "type": "bool"
            }
          ],
          "internalType": "struct User",
          "name": "",
          "type": "tuple"
        }
      ],
      "stateMutability": "view",
      "type": "function"
    },
    {
      "inputs": [],
      "name": "getUserCount",
      "outputs": [
        {
          "internalType": "uint256",
          "name": "",
          "type": "uint256"
        }
      ],
      "stateMutability": "view",
      "type": "function"
    }
  ],
  "bytecode": "0x608060405234801561001057600080fd5b5061002161001c610026565b61002a565b61007a565b3390565b600080546001600160a01b038381166001600160a01b0319831681178455604051919092169283917f8be0079c531659141344cd1fd0a4f28419497f9722a3daafe3b4186f6b6457e09190a35050565b6106a4806100896000396000f3fe608060405234801561001057600080fd5b50600436106100625760003560e01c8063715018a6146100675780637259e0f8146100715780638da5cb5b1461009a578063b5cb15f7146100a2578063cc3d967b146100b7578063f2fde38b146100d7575b600080fd5b61006f6100ea565b005b61008461007f3660046104c0565b61013e565b6040516100919190610523565b60405180910390f35b610084610168565b6100aa610177565b6040516100919190610630565b6100ca6100c5366004610492565b61017d565b60405161009191906105b2565b61006f6100e5366004610492565b610399565b6100f261040a565b6001600160a01b0316610103610168565b6001600160a01b0316146101325760405162461bcd60e51b81526004016101299061057d565b60405180910390fd5b61013c600061040e565b565b6002818154811061014e57600080fd5b6000918252602090912001546001600160a01b0316905081565b6000546001600160a01b031690565b60025490565b61018561045e565b816001600160a01b03811661019957600080fd5b6001600160a01b03831660009081526001602052604090819020815160a081019092528054829082906101cb90610639565b80601f01602080910402602001604051908101604052809291908181526020018280546101f790610639565b80156102445780601f1061021957610100808354040283529160200191610244565b820191906000526020600020905b81548152906001019060200180831161022757829003601f168201915b5050505050815260200160018201805461025d90610639565b80601f016020809104026020016040519081016040528092919081815260200182805461028990610639565b80156102d65780601f106102ab576101008083540402835291602001916102d6565b820191906000526020600020905b8154815290600101906020018083116102b957829003601f168201915b505050505081526020016002820180546102ef90610639565b80601f016020809104026020016040519081016040528092919081815260200182805461031b90610639565b80156103685780601f1061033d57610100808354040283529160200191610368565b820191906000526020600020905b81548152906001019060200180831161034b57829003601f168201915b50505091835250506003919091015460ff808216602084015261010090910416151560409091015291505b50919050565b6103a161040a565b6001600160a01b03166103b2610168565b6001600160a01b0316146103d85760405162461bcd60e51b81526004016101299061057d565b6001600160a01b0381166103fe5760405162461bcd60e51b815260040161012990610537565b6104078161040e565b50565b3390565b600080546001600160a01b038381166001600160a01b0319831681178455604051919092169283917f8be0079c531659141344cd1fd0a4f28419497f9722a3daafe3b4186f6b6457e09190a35050565b6040518060a00160405280606081526020016060815260200160608152602001600060ff1681526020016000151581525090565b6000602082840312156104a3578081fd5b81356001600160a01b03811681146104b9578182fd5b9392505050565b6000602082840312156104d1578081fd5b5035919050565b60008151808452815b818110156104fd576020818501810151868301820152016104e1565b8181111561050e5782602083870101525b50601f01601f19169290920160200192915050565b6001600160a01b0391909116815260200190565b60208082526026908201527f4f776e61626c653a206e6577206f776e657220697320746865207a65726f206160408201526564647265737360d01b606082015260800190565b6020808252818101527f4f776e61626c653a2063616c6c6572206973206e6f7420746865206f776e6572604082015260600190565b600060208252825160a060208401526105ce60c08401826104d8565b90506020840151601f19808584030160408601526105ec83836104d8565b925060408601519150808584030160608601525061060a82826104d8565b91505060ff60608501511660808401526080840151151560a08401528091505092915050565b90815260200190565b60028104600182168061064d57607f821691505b6020821081141561039357634e487b7160e01b600052602260045260246000fdfea26469706673582212204d88e88c7fef59bba8259f80f7700bfa14c94446f2588d60d45e53c66e77c1aa64736f6c63430008000033",
  "immutableReferences": {},
  "source": "// SPDX-License-Identifier: MIT\npragma solidity ^0.8;\nimport \"@openzeppelin/contracts/access/Ownable.sol\";\n\n///@dev Structure for describing MedalVerse Users - used by the main contract\nstruct User {\n\tstring iconURI; // URI for displaying user in UI\n\tstring userName; // Username for UI elements\n\tstring email; // email for the user\n\tuint8 role; // Role in MedalVerse (Admin, Author,)\n\tbool activ; // user is activ on the website\n}\n\ncontract UserHandler is Ownable {\n\t// Data ---------------------------------\n\tmapping(address => User) _Users;\n\taddress[] public registeredUsers; // List of Users registered to DAPP\n\n\t// Modifiers ----------------------------\n\tmodifier isNotNull(address a) virtual {\n\t\trequire(a != address(0));\n\t\t_;\n\t}\n\n\t// Events -------------------------------\n\tevent UserAdded(address usrAddr, uint256 indx);\n\n\t// User Methods -------------------------\n\n\t///@dev Registers a User, given an address and all the details\n\t///@param _userAddress of the user to register as User\n\t///@param _iconURI UI for the user\n\t///@param _userName concatenation of first & last name\n\t///@param _email of the user to register as User\n\t///@param _role of the user to register as User\n\tfunction addUser(\n\t\taddress _userAddress,\n\t\tstring memory _iconURI,\n\t\tstring memory _userName,\n\t\tstring memory _email,\n\t\tuint8 _role\n\t) internal onlyOwner isNotNull(_userAddress) {\n\t\t// Copy to the structure\n\t\t_Users[_userAddress] = User({\n\t\t\ticonURI: _iconURI,\n\t\t\tuserName: _userName,\n\t\t\temail: _email,\n\t\t\trole: _role,\n\t\t\tactiv: true\n\t\t});\n\t\t// Push to the list of users so we can parse registered users.\n\t\tregisteredUsers.push(_userAddress);\n\t\temit UserAdded(_userAddress, registeredUsers.length - 1);\n\t}\n\n\t///@dev Returns details about a user, given an address (for UI=)\n\t///@param _userAdr of the user\n\tfunction getUserDetails(address _userAdr)\n\t\texternal\n\t\tview\n\t\tisNotNull(_userAdr)\n\t\treturns (User memory)\n\t{\n\t\treturn _Users[_userAdr];\n\t}\n\n\tfunction getUserCount() external view returns (uint256) {\n\t\treturn registeredUsers.length;\n\t}\n}\n",
  "sourcePath": "/home/pec/Projets/MedalVerse/MedalVerse-Front/contracts/Dapp Internal Struct/UserHandler.sol",
  "compiler": {
    "name": "solc",
    "version": "0.8.0+commit.c7dfd78e.Emscripten.clang"
  },
  "schemaVersion": "3.4.4",
  "updatedAt": "2022-01-10T07:15:20.842Z",
  "devdoc": {
    "kind": "dev",
    "methods": {
      "getUserDetails(address)": {
        "details": "Returns details about a user, given an address (for UI=)",
        "params": {
          "_userAdr": "of the user"
        }
      },
      "owner()": {
        "details": "Returns the address of the current owner."
      },
      "renounceOwnership()": {
        "details": "Leaves the contract without owner. It will not be possible to call `onlyOwner` functions anymore. Can only be called by the current owner. NOTE: Renouncing ownership will leave the contract without an owner, thereby removing any functionality that is only available to the owner."
      },
      "transferOwnership(address)": {
        "details": "Transfers ownership of the contract to a new account (`newOwner`). Can only be called by the current owner."
      }
    },
    "version": 1
  },
  "userdoc": {
    "kind": "user",
    "methods": {},
    "version": 1
  }
}