{
  "contractName": "UserHandler",
  "abi": [
    {
      "anonymous": false,
      "inputs": [
        {
          "indexed": true,
          "internalType": "address",
          "name": "previousOwner",
          "type": "address"
        },
        {
          "indexed": true,
          "internalType": "address",
          "name": "newOwner",
          "type": "address"
        }
      ],
      "name": "OwnershipTransferred",
      "type": "event"
    },
    {
      "anonymous": false,
      "inputs": [
        {
          "indexed": false,
          "internalType": "address",
          "name": "usrAddr",
          "type": "address"
        },
        {
          "indexed": false,
          "internalType": "uint256",
          "name": "indx",
          "type": "uint256"
        }
      ],
      "name": "UserAdded",
      "type": "event"
    },
    {
      "inputs": [],
      "name": "owner",
      "outputs": [
        {
          "internalType": "address",
          "name": "",
          "type": "address"
        }
      ],
      "stateMutability": "view",
      "type": "function"
    },
    {
      "inputs": [
        {
          "internalType": "uint256",
          "name": "",
          "type": "uint256"
        }
      ],
      "name": "registeredUsers",
      "outputs": [
        {
          "internalType": "address",
          "name": "",
          "type": "address"
        }
      ],
      "stateMutability": "view",
      "type": "function"
    },
    {
      "inputs": [],
      "name": "renounceOwnership",
      "outputs": [],
      "stateMutability": "nonpayable",
      "type": "function"
    },
    {
      "inputs": [
        {
          "internalType": "address",
          "name": "newOwner",
          "type": "address"
        }
      ],
      "name": "transferOwnership",
      "outputs": [],
      "stateMutability": "nonpayable",
      "type": "function"
    },
    {
      "inputs": [
        {
          "internalType": "address",
          "name": "_userAddress",
          "type": "address"
        },
        {
          "internalType": "string",
          "name": "_iconURI",
          "type": "string"
        },
        {
          "internalType": "string",
          "name": "_userName",
          "type": "string"
        },
        {
          "internalType": "string",
          "name": "_email",
          "type": "string"
        },
        {
          "internalType": "uint8",
          "name": "_role",
          "type": "uint8"
        }
      ],
      "name": "addUser",
      "outputs": [],
      "stateMutability": "nonpayable",
      "type": "function"
    },
    {
      "inputs": [
        {
          "internalType": "address",
          "name": "_userAdr",
          "type": "address"
        }
      ],
      "name": "getUserDetails",
      "outputs": [
        {
          "components": [
            {
              "internalType": "string",
              "name": "iconURI",
              "type": "string"
            },
            {
              "internalType": "string",
              "name": "userName",
              "type": "string"
            },
            {
              "internalType": "string",
              "name": "email",
              "type": "string"
            },
            {
              "internalType": "uint8",
              "name": "role",
              "type": "uint8"
            },
            {
              "internalType": "bool",
              "name": "activ",
              "type": "bool"
            }
          ],
          "internalType": "struct User",
          "name": "",
          "type": "tuple"
        }
      ],
      "stateMutability": "view",
      "type": "function"
    }
  ],
  "bytecode": "0x608060405234801561001057600080fd5b5061002161001c610026565b61002a565b61007a565b3390565b600080546001600160a01b038381166001600160a01b0319831681178455604051919092169283917f8be0079c531659141344cd1fd0a4f28419497f9722a3daafe3b4186f6b6457e09190a35050565b610a70806100896000396000f3fe608060405234801561001057600080fd5b50600436106100625760003560e01c806366590a6014610067578063715018a61461007c5780637259e0f8146100845780638da5cb5b146100ad578063cc3d967b146100b5578063f2fde38b146100d5575b600080fd5b61007a610075366004610794565b6100e8565b005b61007a6102a4565b610097610092366004610843565b6102ef565b6040516100a491906108a6565b60405180910390f35b610097610319565b6100c86100c3366004610773565b610328565b6040516100a4919061094e565b61007a6100e3366004610773565b610544565b6100f06105b5565b6001600160a01b0316610101610319565b6001600160a01b0316146101305760405162461bcd60e51b815260040161012790610919565b60405180910390fd5b846001600160a01b03811661014457600080fd5b6040805160a081018252868152602080820187905281830186905260ff851660608301526001608083018190526001600160a01b038a16600090815290825292909220815180519293919261019c9284920190610609565b5060208281015180516101b59260018501920190610609565b50604082015180516101d1916002840191602090910190610609565b5060608201516003909101805460809093015115156101000261ff001960ff90931660ff199094169390931791909116919091179055600280546001818101835560008390527f405787fa12a823e0f2b7631cc41b3ba8828b3321ca811111fa75cd3aa3bb5ace90910180546001600160a01b038a166001600160a01b031990911617905590547f25ddd06f7eaeb83bb3fbcaa231d4b89e2d7bcd781043983661920061e755a7f091889161028691906109cc565b6040516102949291906108ba565b60405180910390a1505050505050565b6102ac6105b5565b6001600160a01b03166102bd610319565b6001600160a01b0316146102e35760405162461bcd60e51b815260040161012790610919565b6102ed60006105b9565b565b600281815481106102ff57600080fd5b6000918252602090912001546001600160a01b0316905081565b6000546001600160a01b031690565b61033061068d565b816001600160a01b03811661034457600080fd5b6001600160a01b03831660009081526001602052604090819020815160a08101909252805482908290610376906109ef565b80601f01602080910402602001604051908101604052809291908181526020018280546103a2906109ef565b80156103ef5780601f106103c4576101008083540402835291602001916103ef565b820191906000526020600020905b8154815290600101906020018083116103d257829003601f168201915b50505050508152602001600182018054610408906109ef565b80601f0160208091040260200160405190810160405280929190818152602001828054610434906109ef565b80156104815780601f1061045657610100808354040283529160200191610481565b820191906000526020600020905b81548152906001019060200180831161046457829003601f168201915b5050505050815260200160028201805461049a906109ef565b80601f01602080910402602001604051908101604052809291908181526020018280546104c6906109ef565b80156105135780601f106104e857610100808354040283529160200191610513565b820191906000526020600020905b8154815290600101906020018083116104f657829003601f168201915b50505091835250506003919091015460ff808216602084015261010090910416151560409091015291505b50919050565b61054c6105b5565b6001600160a01b031661055d610319565b6001600160a01b0316146105835760405162461bcd60e51b815260040161012790610919565b6001600160a01b0381166105a95760405162461bcd60e51b8152600401610127906108d3565b6105b2816105b9565b50565b3390565b600080546001600160a01b038381166001600160a01b0319831681178455604051919092169283917f8be0079c531659141344cd1fd0a4f28419497f9722a3daafe3b4186f6b6457e09190a35050565b828054610615906109ef565b90600052602060002090601f016020900481019282610637576000855561067d565b82601f1061065057805160ff191683800117855561067d565b8280016001018555821561067d579182015b8281111561067d578251825591602001919060010190610662565b506106899291506106c1565b5090565b6040518060a00160405280606081526020016060815260200160608152602001600060ff1681526020016000151581525090565b5b8082111561068957600081556001016106c2565b80356001600160a01b03811681146106ed57600080fd5b919050565b600082601f830112610702578081fd5b813567ffffffffffffffff8082111561071d5761071d610a24565b604051601f8301601f19168101602001828111828210171561074157610741610a24565b604052828152848301602001861015610758578384fd5b82602086016020830137918201602001929092529392505050565b600060208284031215610784578081fd5b61078d826106d6565b9392505050565b600080600080600060a086880312156107ab578081fd5b6107b4866106d6565b9450602086013567ffffffffffffffff808211156107d0578283fd5b6107dc89838a016106f2565b955060408801359150808211156107f1578283fd5b6107fd89838a016106f2565b94506060880135915080821115610812578283fd5b5061081f888289016106f2565b925050608086013560ff81168114610835578182fd5b809150509295509295909350565b600060208284031215610854578081fd5b5035919050565b60008151808452815b8181101561088057602081850181015186830182015201610864565b818111156108915782602083870101525b50601f01601f19169290920160200192915050565b6001600160a01b0391909116815260200190565b6001600160a01b03929092168252602082015260400190565b60208082526026908201527f4f776e61626c653a206e6577206f776e657220697320746865207a65726f206160408201526564647265737360d01b606082015260800190565b6020808252818101527f4f776e61626c653a2063616c6c6572206973206e6f7420746865206f776e6572604082015260600190565b600060208252825160a0602084015261096a60c084018261085b565b90506020840151601f1980858403016040860152610988838361085b565b92506040860151915080858403016060860152506109a6828261085b565b91505060ff60608501511660808401526080840151151560a08401528091505092915050565b6000828210156109ea57634e487b7160e01b81526011600452602481fd5b500390565b600281046001821680610a0357607f821691505b6020821081141561053e57634e487b7160e01b600052602260045260246000fd5b634e487b7160e01b600052604160045260246000fdfea264697066735822122085327ba77893bfa1e9bca6ae36921ee4234c81c2ca2c1326a3caf4481beb3fd964736f6c63430008000033",
  "immutableReferences": {},
  "source": "// SPDX-License-Identifier: MIT\npragma solidity ^0.8;\nimport \"@openzeppelin/contracts/access/Ownable.sol\";\n\n///@dev Structure for describing MedalVerse Users - used by the main contract\nstruct User {\n\tstring iconURI; // URI for displaying user in UI\n\tstring userName; // Username for UI elements\n\tstring email; // email for the user\n\tuint8 role; // Role in MedalVerse (Admin, Author,)\n\tbool activ; // user is activ on the website\n}\n\ncontract UserHandler is Ownable {\n\t// Data ---------------------------------\n\tmapping(address => User) _Users;\n\taddress[] public registeredUsers; // List of Users registered to DAPP\n\n\t// Modifiers ----------------------------\n\tmodifier isNotNull(address a) virtual {\n\t\trequire(a != address(0));\n\t\t_;\n\t}\n\n\t// Events -------------------------------\n\tevent UserAdded(address usrAddr, uint256 indx);\n\n\t// User Methods -------------------------\n\tfunction addUser(\n\t\taddress _userAddress,\n\t\tstring memory _iconURI,\n\t\tstring memory _userName,\n\t\tstring memory _email,\n\t\tuint8 _role\n\t) public onlyOwner isNotNull(_userAddress) {\n\t\t// Copy to the structure\n\t\t_Users[_userAddress] = User({\n\t\t\ticonURI: _iconURI,\n\t\t\tuserName: _userName,\n\t\t\temail: _email,\n\t\t\trole: _role,\n\t\t\tactiv: true\n\t\t});\n\t\t// Push to the list of users so we can parse registered users.\n\t\tregisteredUsers.push(_userAddress);\n\t\temit UserAdded(_userAddress, registeredUsers.length - 1);\n\t}\n\n\tfunction getUserDetails(address _userAdr)\n\t\texternal\n\t\tview\n\t\tisNotNull(_userAdr)\n\t\treturns (User memory)\n\t{\n\t\treturn _Users[_userAdr];\n\t}\n}\n",
  "sourcePath": "/home/pec/Projets/MedalVerse/MedalVerse-Front/contracts/Dapp Internal Struct/UserHandler.sol",
  "compiler": {
    "name": "solc",
    "version": "0.8.0+commit.c7dfd78e.Emscripten.clang"
  },
  "schemaVersion": "3.4.3",
  "updatedAt": "2021-12-19T16:32:54.544Z",
  "devdoc": {
    "kind": "dev",
    "methods": {
      "owner()": {
        "details": "Returns the address of the current owner."
      },
      "renounceOwnership()": {
        "details": "Leaves the contract without owner. It will not be possible to call `onlyOwner` functions anymore. Can only be called by the current owner. NOTE: Renouncing ownership will leave the contract without an owner, thereby removing any functionality that is only available to the owner."
      },
      "transferOwnership(address)": {
        "details": "Transfers ownership of the contract to a new account (`newOwner`). Can only be called by the current owner."
      }
    },
    "version": 1
  },
  "userdoc": {
    "kind": "user",
    "methods": {},
    "version": 1
  }
}