{
  "contractName": "UserHandler",
  "abi": [
    {
      "anonymous": false,
      "inputs": [
        {
          "indexed": true,
          "internalType": "address",
          "name": "previousOwner",
          "type": "address"
        },
        {
          "indexed": true,
          "internalType": "address",
          "name": "newOwner",
          "type": "address"
        }
      ],
      "name": "OwnershipTransferred",
      "type": "event"
    },
    {
      "anonymous": false,
      "inputs": [
        {
          "indexed": false,
          "internalType": "address",
          "name": "usrAddr",
          "type": "address"
        },
        {
          "indexed": false,
          "internalType": "uint256",
          "name": "indx",
          "type": "uint256"
        }
      ],
      "name": "UserAdded",
      "type": "event"
    },
    {
      "inputs": [],
      "name": "owner",
      "outputs": [
        {
          "internalType": "address",
          "name": "",
          "type": "address"
        }
      ],
      "stateMutability": "view",
      "type": "function"
    },
    {
      "inputs": [
        {
          "internalType": "uint256",
          "name": "",
          "type": "uint256"
        }
      ],
      "name": "registeredUsers",
      "outputs": [
        {
          "internalType": "address",
          "name": "",
          "type": "address"
        }
      ],
      "stateMutability": "view",
      "type": "function"
    },
    {
      "inputs": [],
      "name": "renounceOwnership",
      "outputs": [],
      "stateMutability": "nonpayable",
      "type": "function"
    },
    {
      "inputs": [
        {
          "internalType": "address",
          "name": "newOwner",
          "type": "address"
        }
      ],
      "name": "transferOwnership",
      "outputs": [],
      "stateMutability": "nonpayable",
      "type": "function"
    },
    {
      "inputs": [
        {
          "internalType": "address",
          "name": "_userAdr",
          "type": "address"
        }
      ],
      "name": "getUserDetails",
      "outputs": [
        {
          "components": [
            {
              "internalType": "uint256",
              "name": "role",
              "type": "uint256"
            },
            {
              "internalType": "string",
              "name": "iconURI",
              "type": "string"
            },
            {
              "internalType": "string",
              "name": "userName",
              "type": "string"
            },
            {
              "internalType": "string",
              "name": "email",
              "type": "string"
            },
            {
              "internalType": "bool",
              "name": "activ",
              "type": "bool"
            }
          ],
          "internalType": "struct User",
          "name": "",
          "type": "tuple"
        }
      ],
      "stateMutability": "view",
      "type": "function"
    },
    {
      "inputs": [],
      "name": "getUserCount",
      "outputs": [
        {
          "internalType": "uint256",
          "name": "",
          "type": "uint256"
        }
      ],
      "stateMutability": "view",
      "type": "function"
    }
  ],
  "bytecode": "0x608060405234801561001057600080fd5b5061002161001c610026565b61002a565b61007a565b3390565b600080546001600160a01b038381166001600160a01b0319831681178455604051919092169283917f8be0079c531659141344cd1fd0a4f28419497f9722a3daafe3b4186f6b6457e09190a35050565b610699806100896000396000f3fe608060405234801561001057600080fd5b50600436106100625760003560e01c8063715018a6146100675780637259e0f8146100715780638da5cb5b1461009a578063b5cb15f7146100a2578063cc3d967b146100b7578063f2fde38b146100d7575b600080fd5b61006f6100ea565b005b61008461007f3660046104b8565b61013e565b604051610091919061051b565b60405180910390f35b610084610168565b6100aa610177565b6040516100919190610625565b6100ca6100c536600461048a565b61017d565b60405161009191906105aa565b61006f6100e536600461048a565b610394565b6100f2610405565b6001600160a01b0316610103610168565b6001600160a01b0316146101325760405162461bcd60e51b815260040161012990610575565b60405180910390fd5b61013c6000610409565b565b6002818154811061014e57600080fd5b6000918252602090912001546001600160a01b0316905081565b6000546001600160a01b031690565b60025490565b610185610459565b816001600160a01b03811661019957600080fd5b6001600160a01b038316600090815260016020818152604092839020835160a08101909452805484529182018054918401916101d49061062e565b80601f01602080910402602001604051908101604052809291908181526020018280546102009061062e565b801561024d5780601f106102225761010080835404028352916020019161024d565b820191906000526020600020905b81548152906001019060200180831161023057829003601f168201915b505050505081526020016002820180546102669061062e565b80601f01602080910402602001604051908101604052809291908181526020018280546102929061062e565b80156102df5780601f106102b4576101008083540402835291602001916102df565b820191906000526020600020905b8154815290600101906020018083116102c257829003601f168201915b505050505081526020016003820180546102f89061062e565b80601f01602080910402602001604051908101604052809291908181526020018280546103249061062e565b80156103715780601f1061034657610100808354040283529160200191610371565b820191906000526020600020905b81548152906001019060200180831161035457829003601f168201915b50505091835250506004919091015460ff16151560209091015291505b50919050565b61039c610405565b6001600160a01b03166103ad610168565b6001600160a01b0316146103d35760405162461bcd60e51b815260040161012990610575565b6001600160a01b0381166103f95760405162461bcd60e51b81526004016101299061052f565b61040281610409565b50565b3390565b600080546001600160a01b038381166001600160a01b0319831681178455604051919092169283917f8be0079c531659141344cd1fd0a4f28419497f9722a3daafe3b4186f6b6457e09190a35050565b6040518060a00160405280600081526020016060815260200160608152602001606081526020016000151581525090565b60006020828403121561049b578081fd5b81356001600160a01b03811681146104b1578182fd5b9392505050565b6000602082840312156104c9578081fd5b5035919050565b60008151808452815b818110156104f5576020818501810151868301820152016104d9565b818111156105065782602083870101525b50601f01601f19169290920160200192915050565b6001600160a01b0391909116815260200190565b60208082526026908201527f4f776e61626c653a206e6577206f776e657220697320746865207a65726f206160408201526564647265737360d01b606082015260800190565b6020808252818101527f4f776e61626c653a2063616c6c6572206973206e6f7420746865206f776e6572604082015260600190565b60006020825282516020830152602083015160a060408401526105d060c08401826104d0565b90506040840151601f19808584030160608601526105ee83836104d0565b925060608601519150808584030160808601525061060c82826104d0565b9150506080840151151560a08401528091505092915050565b90815260200190565b60028104600182168061064257607f821691505b6020821081141561038e57634e487b7160e01b600052602260045260246000fdfea2646970667358221220da20a91003980ae8f789b517c7d502499be5d45c87a18eb578fbc052b591215764736f6c63430008000033",
  "immutableReferences": {},
  "source": "// SPDX-License-Identifier: MIT\r\npragma solidity ^0.8;\r\nimport \"@openzeppelin/contracts/access/Ownable.sol\";\r\n\r\n///@dev Structure for describing MedalVerse Users - used by the main contract\r\nstruct User {\r\n\tuint256 role; // Role in MedalVerse (Admin, Author,)\r\n\tstring iconURI; // URI for displaying user in UI\r\n\tstring userName; // Username for UI elements\r\n\tstring email; // email for the user\r\n\tbool activ; // user is activ on the website\r\n}\r\n\r\ncontract UserHandler is Ownable {\r\n\t// Data ---------------------------------\r\n\tmapping(address => User) _Users;\r\n\taddress[] public registeredUsers; // List of Users registered to DAPP\r\n\r\n\t// Modifiers ----------------------------\r\n\tmodifier isNotNull(address a) virtual {\r\n\t\trequire(a != address(0));\r\n\t\t_;\r\n\t}\r\n\r\n\t// Events -------------------------------\r\n\tevent UserAdded(address usrAddr, uint256 indx);\r\n\r\n\t// User Methods -------------------------\r\n\r\n\t///@dev Registers a User, given an address and all the details\r\n\t///@param _userAddress of the user to register as User\r\n\t///@param _iconURI UI for the user\r\n\t///@param _userName concatenation of first & last name\r\n\t///@param _email of the user to register as User\r\n\t///@param _role of the user to register as User\r\n\tfunction addUser(\r\n\t\taddress _userAddress,\r\n\t\tstring memory _iconURI,\r\n\t\tstring memory _userName,\r\n\t\tstring memory _email,\r\n\t\tuint256 _role\r\n\t) internal onlyOwner isNotNull(_userAddress) {\r\n\t\t// Copy to the structure\r\n\t\t_Users[_userAddress] = User({\r\n\t\t\ticonURI: _iconURI,\r\n\t\t\tuserName: _userName,\r\n\t\t\temail: _email,\r\n\t\t\trole: _role,\r\n\t\t\tactiv: true\r\n\t\t});\r\n\t\t// Push to the list of users so we can parse registered users.\r\n\t\tregisteredUsers.push(_userAddress);\r\n\t\temit UserAdded(_userAddress, registeredUsers.length - 1);\r\n\t}\r\n\r\n\t///@dev Returns details about a user, given an address (for UI=)\r\n\t///@param _userAdr of the user\r\n\tfunction getUserDetails(address _userAdr)\r\n\t\texternal\r\n\t\tview\r\n\t\tisNotNull(_userAdr)\r\n\t\treturns (User memory)\r\n\t{\r\n\t\treturn _Users[_userAdr];\r\n\t}\r\n\r\n\tfunction getUserCount() external view returns (uint256) {\r\n\t\treturn registeredUsers.length;\r\n\t}\r\n}\r\n",
  "sourcePath": "C:\\DEV\\ETH\\Alyra\\MedalVerse\\MedalVerse-Front\\contracts\\Dapp Internal Struct\\UserHandler.sol",
  "compiler": {
    "name": "solc",
    "version": "0.8.0+commit.c7dfd78e.Emscripten.clang"
  },
  "schemaVersion": "3.4.4",
  "updatedAt": "2022-01-16T15:20:09.003Z",
  "devdoc": {
    "kind": "dev",
    "methods": {
      "getUserDetails(address)": {
        "details": "Returns details about a user, given an address (for UI=)",
        "params": {
          "_userAdr": "of the user"
        }
      },
      "owner()": {
        "details": "Returns the address of the current owner."
      },
      "renounceOwnership()": {
        "details": "Leaves the contract without owner. It will not be possible to call `onlyOwner` functions anymore. Can only be called by the current owner. NOTE: Renouncing ownership will leave the contract without an owner, thereby removing any functionality that is only available to the owner."
      },
      "transferOwnership(address)": {
        "details": "Transfers ownership of the contract to a new account (`newOwner`). Can only be called by the current owner."
      }
    },
    "version": 1
  },
  "userdoc": {
    "kind": "user",
    "methods": {},
    "version": 1
  }
}