{
  "contractName": "UserHandler",
  "abi": [
    {
      "anonymous": false,
      "inputs": [
        {
          "indexed": true,
          "internalType": "address",
          "name": "previousOwner",
          "type": "address"
        },
        {
          "indexed": true,
          "internalType": "address",
          "name": "newOwner",
          "type": "address"
        }
      ],
      "name": "OwnershipTransferred",
      "type": "event"
    },
    {
      "anonymous": false,
      "inputs": [
        {
          "indexed": false,
          "internalType": "address",
          "name": "usrAddr",
          "type": "address"
        },
        {
          "indexed": false,
          "internalType": "uint256",
          "name": "indx",
          "type": "uint256"
        }
      ],
      "name": "UserAdded",
      "type": "event"
    },
    {
      "inputs": [],
      "name": "owner",
      "outputs": [
        {
          "internalType": "address",
          "name": "",
          "type": "address"
        }
      ],
      "stateMutability": "view",
      "type": "function"
    },
    {
      "inputs": [
        {
          "internalType": "uint256",
          "name": "",
          "type": "uint256"
        }
      ],
      "name": "registeredUsers",
      "outputs": [
        {
          "internalType": "address",
          "name": "",
          "type": "address"
        }
      ],
      "stateMutability": "view",
      "type": "function"
    },
    {
      "inputs": [],
      "name": "renounceOwnership",
      "outputs": [],
      "stateMutability": "nonpayable",
      "type": "function"
    },
    {
      "inputs": [
        {
          "internalType": "address",
          "name": "newOwner",
          "type": "address"
        }
      ],
      "name": "transferOwnership",
      "outputs": [],
      "stateMutability": "nonpayable",
      "type": "function"
    },
    {
      "inputs": [
        {
          "internalType": "address",
          "name": "_userAdr",
          "type": "address"
        }
      ],
      "name": "getUserDetails",
      "outputs": [
        {
          "components": [
            {
              "internalType": "string",
              "name": "iconURI",
              "type": "string"
            },
            {
              "internalType": "string",
              "name": "userName",
              "type": "string"
            },
            {
              "internalType": "string",
              "name": "email",
              "type": "string"
            },
            {
              "internalType": "uint8",
              "name": "role",
              "type": "uint8"
            },
            {
              "internalType": "bool",
              "name": "activ",
              "type": "bool"
            }
          ],
          "internalType": "struct User",
          "name": "",
          "type": "tuple"
        }
      ],
      "stateMutability": "view",
      "type": "function"
    }
  ],
  "bytecode": "0x608060405234801561001057600080fd5b5061002161001c610026565b61002a565b61007a565b3390565b600080546001600160a01b038381166001600160a01b0319831681178455604051919092169283917f8be0079c531659141344cd1fd0a4f28419497f9722a3daafe3b4186f6b6457e09190a35050565b610675806100896000396000f3fe608060405234801561001057600080fd5b50600436106100575760003560e01c8063715018a61461005c5780637259e0f8146100665780638da5cb5b1461008f578063cc3d967b14610097578063f2fde38b146100b7575b600080fd5b6100646100ca565b005b61007961007436600461049a565b61011e565b60405161008691906104fd565b60405180910390f35b610079610148565b6100aa6100a536600461046c565b610157565b604051610086919061058c565b6100646100c536600461046c565b610373565b6100d26103e4565b6001600160a01b03166100e3610148565b6001600160a01b0316146101125760405162461bcd60e51b815260040161010990610557565b60405180910390fd5b61011c60006103e8565b565b6002818154811061012e57600080fd5b6000918252602090912001546001600160a01b0316905081565b6000546001600160a01b031690565b61015f610438565b816001600160a01b03811661017357600080fd5b6001600160a01b03831660009081526001602052604090819020815160a081019092528054829082906101a59061060a565b80601f01602080910402602001604051908101604052809291908181526020018280546101d19061060a565b801561021e5780601f106101f35761010080835404028352916020019161021e565b820191906000526020600020905b81548152906001019060200180831161020157829003601f168201915b505050505081526020016001820180546102379061060a565b80601f01602080910402602001604051908101604052809291908181526020018280546102639061060a565b80156102b05780601f10610285576101008083540402835291602001916102b0565b820191906000526020600020905b81548152906001019060200180831161029357829003601f168201915b505050505081526020016002820180546102c99061060a565b80601f01602080910402602001604051908101604052809291908181526020018280546102f59061060a565b80156103425780601f1061031757610100808354040283529160200191610342565b820191906000526020600020905b81548152906001019060200180831161032557829003601f168201915b50505091835250506003919091015460ff808216602084015261010090910416151560409091015291505b50919050565b61037b6103e4565b6001600160a01b031661038c610148565b6001600160a01b0316146103b25760405162461bcd60e51b815260040161010990610557565b6001600160a01b0381166103d85760405162461bcd60e51b815260040161010990610511565b6103e1816103e8565b50565b3390565b600080546001600160a01b038381166001600160a01b0319831681178455604051919092169283917f8be0079c531659141344cd1fd0a4f28419497f9722a3daafe3b4186f6b6457e09190a35050565b6040518060a00160405280606081526020016060815260200160608152602001600060ff1681526020016000151581525090565b60006020828403121561047d578081fd5b81356001600160a01b0381168114610493578182fd5b9392505050565b6000602082840312156104ab578081fd5b5035919050565b60008151808452815b818110156104d7576020818501810151868301820152016104bb565b818111156104e85782602083870101525b50601f01601f19169290920160200192915050565b6001600160a01b0391909116815260200190565b60208082526026908201527f4f776e61626c653a206e6577206f776e657220697320746865207a65726f206160408201526564647265737360d01b606082015260800190565b6020808252818101527f4f776e61626c653a2063616c6c6572206973206e6f7420746865206f776e6572604082015260600190565b600060208252825160a060208401526105a860c08401826104b2565b90506020840151601f19808584030160408601526105c683836104b2565b92506040860151915080858403016060860152506105e482826104b2565b91505060ff60608501511660808401526080840151151560a08401528091505092915050565b60028104600182168061061e57607f821691505b6020821081141561036d57634e487b7160e01b600052602260045260246000fdfea26469706673582212207f6f58f37d11423ded24faa15c0f9ae608e405ea9e84d1ffcd58f39983d1ea4c64736f6c63430008000033",
  "immutableReferences": {},
  "source": "// SPDX-License-Identifier: MIT\r\npragma solidity ^0.8;\r\nimport \"@openzeppelin/contracts/access/Ownable.sol\";\r\n\r\n///@dev Structure for describing MedalVerse Users - used by the main contract\r\nstruct User {\r\n\tstring iconURI; // URI for displaying user in UI\r\n\tstring userName; // Username for UI elements\r\n\tstring email; // email for the user\r\n\tuint8 role; // Role in MedalVerse (Admin, Author,)\r\n\tbool activ; // user is activ on the website\r\n}\r\n\r\ncontract UserHandler is Ownable {\r\n\t// Data ---------------------------------\r\n\tmapping(address => User) _Users;\r\n\taddress[] public registeredUsers; // List of Users registered to DAPP\r\n\r\n\t// Modifiers ----------------------------\r\n\tmodifier isNotNull(address a) virtual {\r\n\t\trequire(a != address(0));\r\n\t\t_;\r\n\t}\r\n\r\n\t// Events -------------------------------\r\n\tevent UserAdded(address usrAddr, uint256 indx);\r\n\r\n\t// User Methods -------------------------\r\n\r\n\t///@dev Registers a User, given an address and all the details\r\n\t///@param _userAddress of the user to register as User\r\n\t///@param _iconURI UI for the user\r\n\t///@param _userName concatenation of first & last name\r\n\t///@param _email of the user to register as User\r\n\t///@param _role of the user to register as User\r\n\tfunction addUser(\r\n\t\taddress _userAddress,\r\n\t\tstring memory _iconURI,\r\n\t\tstring memory _userName,\r\n\t\tstring memory _email,\r\n\t\tuint8 _role\r\n\t) internal onlyOwner isNotNull(_userAddress) {\r\n\t\t// Copy to the structure\r\n\t\t_Users[_userAddress] = User({\r\n\t\t\ticonURI: _iconURI,\r\n\t\t\tuserName: _userName,\r\n\t\t\temail: _email,\r\n\t\t\trole: _role,\r\n\t\t\tactiv: true\r\n\t\t});\r\n\t\t// Push to the list of users so we can parse registered users.\r\n\t\tregisteredUsers.push(_userAddress);\r\n\t\temit UserAdded(_userAddress, registeredUsers.length - 1);\r\n\t}\r\n\r\n\t///@dev Returns details about a user, given an address (for UI=)\r\n\t///@param _userAdr of the user\r\n\tfunction getUserDetails(address _userAdr)\r\n\t\texternal\r\n\t\tview\r\n\t\tisNotNull(_userAdr)\r\n\t\treturns (User memory)\r\n\t{\r\n\t\treturn _Users[_userAdr];\r\n\t}\r\n}\r\n",
  "sourcePath": "C:\\DEV\\ETH\\Alyra\\MedalVerse\\MedalVerse-Front\\contracts\\Dapp Internal Struct\\UserHandler.sol",
  "compiler": {
    "name": "solc",
    "version": "0.8.0+commit.c7dfd78e.Emscripten.clang"
  },
  "schemaVersion": "3.4.3",
  "updatedAt": "2021-12-20T20:36:22.666Z",
  "devdoc": {
    "kind": "dev",
    "methods": {
      "getUserDetails(address)": {
        "details": "Returns details about a user, given an address (for UI=)",
        "params": {
          "_userAdr": "of the user"
        }
      },
      "owner()": {
        "details": "Returns the address of the current owner."
      },
      "renounceOwnership()": {
        "details": "Leaves the contract without owner. It will not be possible to call `onlyOwner` functions anymore. Can only be called by the current owner. NOTE: Renouncing ownership will leave the contract without an owner, thereby removing any functionality that is only available to the owner."
      },
      "transferOwnership(address)": {
        "details": "Transfers ownership of the contract to a new account (`newOwner`). Can only be called by the current owner."
      }
    },
    "version": 1
  },
  "userdoc": {
    "kind": "user",
    "methods": {},
    "version": 1
  }
}